{
  "_format": "hh-sol-artifact-1",
  "contractName": "PoACVerifier",
  "sourceName": "contracts/PoACVerifier.sol",
  "abi": [
    {
      "inputs": [
        {
          "internalType": "address",
          "name": "_deviceRegistry",
          "type": "address"
        },
        {
          "internalType": "uint256",
          "name": "_maxTimestampSkew",
          "type": "uint256"
        }
      ],
      "stateMutability": "nonpayable",
      "type": "constructor"
    },
    {
      "inputs": [],
      "name": "ArrayLengthMismatch",
      "type": "error"
    },
    {
      "inputs": [
        {
          "internalType": "bytes32",
          "name": "deviceId",
          "type": "bytes32"
        },
        {
          "internalType": "bytes32",
          "name": "submitted",
          "type": "bytes32"
        },
        {
          "internalType": "bytes32",
          "name": "expected",
          "type": "bytes32"
        }
      ],
      "name": "ChainLinkageBroken",
      "type": "error"
    },
    {
      "inputs": [
        {
          "internalType": "bytes32",
          "name": "deviceId",
          "type": "bytes32"
        },
        {
          "internalType": "uint32",
          "name": "submitted",
          "type": "uint32"
        },
        {
          "internalType": "uint32",
          "name": "lastKnown",
          "type": "uint32"
        }
      ],
      "name": "CounterNotMonotonic",
      "type": "error"
    },
    {
      "inputs": [
        {
          "internalType": "bytes32",
          "name": "deviceId",
          "type": "bytes32"
        }
      ],
      "name": "DeviceNotActive",
      "type": "error"
    },
    {
      "inputs": [
        {
          "internalType": "bytes32",
          "name": "deviceId",
          "type": "bytes32"
        }
      ],
      "name": "DeviceNotRegistered",
      "type": "error"
    },
    {
      "inputs": [],
      "name": "EmptyBatch",
      "type": "error"
    },
    {
      "inputs": [
        {
          "internalType": "uint256",
          "name": "provided",
          "type": "uint256"
        }
      ],
      "name": "InvalidBodyLength",
      "type": "error"
    },
    {
      "inputs": [
        {
          "internalType": "uint8",
          "name": "provided",
          "type": "uint8"
        }
      ],
      "name": "InvalidSchemaVersion",
      "type": "error"
    },
    {
      "inputs": [
        {
          "internalType": "bytes32",
          "name": "deviceId",
          "type": "bytes32"
        },
        {
          "internalType": "bytes32",
          "name": "recordHash",
          "type": "bytes32"
        }
      ],
      "name": "InvalidSignature",
      "type": "error"
    },
    {
      "inputs": [
        {
          "internalType": "uint256",
          "name": "provided",
          "type": "uint256"
        }
      ],
      "name": "InvalidSignatureLength",
      "type": "error"
    },
    {
      "inputs": [
        {
          "internalType": "address",
          "name": "owner",
          "type": "address"
        }
      ],
      "name": "OwnableInvalidOwner",
      "type": "error"
    },
    {
      "inputs": [
        {
          "internalType": "address",
          "name": "account",
          "type": "address"
        }
      ],
      "name": "OwnableUnauthorizedAccount",
      "type": "error"
    },
    {
      "inputs": [
        {
          "internalType": "bytes32",
          "name": "recordHash",
          "type": "bytes32"
        }
      ],
      "name": "RecordAlreadySubmitted",
      "type": "error"
    },
    {
      "inputs": [
        {
          "internalType": "bytes32",
          "name": "recordHash",
          "type": "bytes32"
        }
      ],
      "name": "RecordAlreadyVerified",
      "type": "error"
    },
    {
      "inputs": [],
      "name": "ReentrancyGuardReentrantCall",
      "type": "error"
    },
    {
      "inputs": [
        {
          "internalType": "bytes32",
          "name": "deviceId",
          "type": "bytes32"
        },
        {
          "internalType": "int64",
          "name": "recordTs",
          "type": "int64"
        },
        {
          "internalType": "uint256",
          "name": "blockTs",
          "type": "uint256"
        },
        {
          "internalType": "uint256",
          "name": "maxSkew",
          "type": "uint256"
        }
      ],
      "name": "TimestampOutOfRange",
      "type": "error"
    },
    {
      "anonymous": false,
      "inputs": [
        {
          "indexed": false,
          "internalType": "uint256",
          "name": "submitted",
          "type": "uint256"
        },
        {
          "indexed": false,
          "internalType": "uint256",
          "name": "verified",
          "type": "uint256"
        },
        {
          "indexed": false,
          "internalType": "uint256",
          "name": "rejected",
          "type": "uint256"
        }
      ],
      "name": "BatchVerified",
      "type": "event"
    },
    {
      "anonymous": false,
      "inputs": [
        {
          "indexed": true,
          "internalType": "address",
          "name": "previousOwner",
          "type": "address"
        },
        {
          "indexed": true,
          "internalType": "address",
          "name": "newOwner",
          "type": "address"
        }
      ],
      "name": "OwnershipTransferred",
      "type": "event"
    },
    {
      "anonymous": false,
      "inputs": [
        {
          "indexed": true,
          "internalType": "bytes32",
          "name": "deviceId",
          "type": "bytes32"
        },
        {
          "indexed": true,
          "internalType": "bytes32",
          "name": "recordHash",
          "type": "bytes32"
        },
        {
          "indexed": false,
          "internalType": "uint32",
          "name": "monotonicCtr",
          "type": "uint32"
        },
        {
          "indexed": false,
          "internalType": "int64",
          "name": "timestampMs",
          "type": "int64"
        },
        {
          "indexed": false,
          "internalType": "uint8",
          "name": "actionCode",
          "type": "uint8"
        },
        {
          "indexed": false,
          "internalType": "uint8",
          "name": "inferenceResult",
          "type": "uint8"
        },
        {
          "indexed": false,
          "internalType": "uint32",
          "name": "bountyId",
          "type": "uint32"
        }
      ],
      "name": "PoACVerified",
      "type": "event"
    },
    {
      "inputs": [],
      "name": "P256_PRECOMPILE",
      "outputs": [
        {
          "internalType": "address",
          "name": "",
          "type": "address"
        }
      ],
      "stateMutability": "view",
      "type": "function"
    },
    {
      "inputs": [],
      "name": "POAC_BODY_SIZE",
      "outputs": [
        {
          "internalType": "uint256",
          "name": "",
          "type": "uint256"
        }
      ],
      "stateMutability": "view",
      "type": "function"
    },
    {
      "inputs": [],
      "name": "POAC_SIG_SIZE",
      "outputs": [
        {
          "internalType": "uint256",
          "name": "",
          "type": "uint256"
        }
      ],
      "stateMutability": "view",
      "type": "function"
    },
    {
      "inputs": [],
      "name": "deviceRegistry",
      "outputs": [
        {
          "internalType": "contract DeviceRegistry",
          "name": "",
          "type": "address"
        }
      ],
      "stateMutability": "view",
      "type": "function"
    },
    {
      "inputs": [
        {
          "internalType": "bytes32",
          "name": "_deviceId",
          "type": "bytes32"
        }
      ],
      "name": "getChainHead",
      "outputs": [
        {
          "internalType": "bytes32",
          "name": "lastRecordHash",
          "type": "bytes32"
        },
        {
          "internalType": "uint32",
          "name": "lastCounter",
          "type": "uint32"
        },
        {
          "internalType": "bool",
          "name": "initialized",
          "type": "bool"
        }
      ],
      "stateMutability": "view",
      "type": "function"
    },
    {
      "inputs": [
        {
          "internalType": "bytes32",
          "name": "_recordHash",
          "type": "bytes32"
        }
      ],
      "name": "getRecordSchema",
      "outputs": [
        {
          "internalType": "uint8",
          "name": "schemaVersion",
          "type": "uint8"
        },
        {
          "internalType": "bool",
          "name": "isSet",
          "type": "bool"
        }
      ],
      "stateMutability": "view",
      "type": "function"
    },
    {
      "inputs": [
        {
          "internalType": "bytes32",
          "name": "_deviceId",
          "type": "bytes32"
        }
      ],
      "name": "getVerifiedCount",
      "outputs": [
        {
          "internalType": "uint32",
          "name": "count",
          "type": "uint32"
        }
      ],
      "stateMutability": "view",
      "type": "function"
    },
    {
      "inputs": [
        {
          "internalType": "bytes32",
          "name": "_recordHash",
          "type": "bytes32"
        }
      ],
      "name": "isRecordVerified",
      "outputs": [
        {
          "internalType": "bool",
          "name": "",
          "type": "bool"
        }
      ],
      "stateMutability": "view",
      "type": "function"
    },
    {
      "inputs": [],
      "name": "maxTimestampSkew",
      "outputs": [
        {
          "internalType": "uint256",
          "name": "",
          "type": "uint256"
        }
      ],
      "stateMutability": "view",
      "type": "function"
    },
    {
      "inputs": [],
      "name": "owner",
      "outputs": [
        {
          "internalType": "address",
          "name": "",
          "type": "address"
        }
      ],
      "stateMutability": "view",
      "type": "function"
    },
    {
      "inputs": [
        {
          "internalType": "bytes32",
          "name": "",
          "type": "bytes32"
        }
      ],
      "name": "recordHasSchema",
      "outputs": [
        {
          "internalType": "bool",
          "name": "",
          "type": "bool"
        }
      ],
      "stateMutability": "view",
      "type": "function"
    },
    {
      "inputs": [
        {
          "internalType": "bytes32",
          "name": "",
          "type": "bytes32"
        }
      ],
      "name": "recordInferences",
      "outputs": [
        {
          "internalType": "uint8",
          "name": "",
          "type": "uint8"
        }
      ],
      "stateMutability": "view",
      "type": "function"
    },
    {
      "inputs": [
        {
          "internalType": "bytes32",
          "name": "",
          "type": "bytes32"
        }
      ],
      "name": "recordSchemas",
      "outputs": [
        {
          "internalType": "uint8",
          "name": "",
          "type": "uint8"
        }
      ],
      "stateMutability": "view",
      "type": "function"
    },
    {
      "inputs": [],
      "name": "renounceOwnership",
      "outputs": [],
      "stateMutability": "nonpayable",
      "type": "function"
    },
    {
      "inputs": [
        {
          "internalType": "uint256",
          "name": "_newSkew",
          "type": "uint256"
        }
      ],
      "name": "setMaxTimestampSkew",
      "outputs": [],
      "stateMutability": "nonpayable",
      "type": "function"
    },
    {
      "inputs": [
        {
          "internalType": "bytes32",
          "name": "",
          "type": "bytes32"
        }
      ],
      "name": "submittedHashes",
      "outputs": [
        {
          "internalType": "bool",
          "name": "",
          "type": "bool"
        }
      ],
      "stateMutability": "view",
      "type": "function"
    },
    {
      "inputs": [],
      "name": "totalVerifiedCount",
      "outputs": [
        {
          "internalType": "uint256",
          "name": "",
          "type": "uint256"
        }
      ],
      "stateMutability": "view",
      "type": "function"
    },
    {
      "inputs": [
        {
          "internalType": "address",
          "name": "newOwner",
          "type": "address"
        }
      ],
      "name": "transferOwnership",
      "outputs": [],
      "stateMutability": "nonpayable",
      "type": "function"
    },
    {
      "inputs": [
        {
          "internalType": "bytes32",
          "name": "",
          "type": "bytes32"
        }
      ],
      "name": "verifiedRecords",
      "outputs": [
        {
          "internalType": "bool",
          "name": "",
          "type": "bool"
        }
      ],
      "stateMutability": "view",
      "type": "function"
    },
    {
      "inputs": [
        {
          "internalType": "bytes32",
          "name": "_deviceId",
          "type": "bytes32"
        },
        {
          "internalType": "bytes",
          "name": "_rawBody",
          "type": "bytes"
        },
        {
          "internalType": "bytes",
          "name": "_signature",
          "type": "bytes"
        }
      ],
      "name": "verifyPoAC",
      "outputs": [
        {
          "internalType": "bytes32",
          "name": "recordHash",
          "type": "bytes32"
        }
      ],
      "stateMutability": "nonpayable",
      "type": "function"
    },
    {
      "inputs": [
        {
          "internalType": "bytes32[]",
          "name": "_deviceIds",
          "type": "bytes32[]"
        },
        {
          "internalType": "bytes[]",
          "name": "_rawBodies",
          "type": "bytes[]"
        },
        {
          "internalType": "bytes[]",
          "name": "_signatures",
          "type": "bytes[]"
        }
      ],
      "name": "verifyPoACBatch",
      "outputs": [
        {
          "internalType": "bytes32[]",
          "name": "recordHashes",
          "type": "bytes32[]"
        }
      ],
      "stateMutability": "nonpayable",
      "type": "function"
    },
    {
      "inputs": [
        {
          "internalType": "bytes32",
          "name": "_deviceId",
          "type": "bytes32"
        },
        {
          "internalType": "bytes",
          "name": "_rawBody",
          "type": "bytes"
        },
        {
          "internalType": "bytes",
          "name": "_signature",
          "type": "bytes"
        }
      ],
      "name": "verifyPoACExternal",
      "outputs": [
        {
          "internalType": "bytes32",
          "name": "",
          "type": "bytes32"
        }
      ],
      "stateMutability": "nonpayable",
      "type": "function"
    },
    {
      "inputs": [
        {
          "internalType": "bytes32",
          "name": "_deviceId",
          "type": "bytes32"
        },
        {
          "internalType": "bytes",
          "name": "_rawBody",
          "type": "bytes"
        },
        {
          "internalType": "bytes",
          "name": "_signature",
          "type": "bytes"
        },
        {
          "internalType": "uint8",
          "name": "_schemaVersion",
          "type": "uint8"
        }
      ],
      "name": "verifyPoACWithSchema",
      "outputs": [
        {
          "internalType": "bytes32",
          "name": "recordHash",
          "type": "bytes32"
        }
      ],
      "stateMutability": "nonpayable",
      "type": "function"
    }
  ],
  "bytecode": "0x6080346100d257601f6118b038819003918201601f19168301916001600160401b038311848410176100d75780849260409485528339810103126100d25780516001600160a01b0391828216918290036100d257602001519033156100b95760005460018060a01b0319903382821617600055604051943391167f8be0079c531659141344cd1fd0a4f28419497f9722a3daafe3b4186f6b6457e0600080a36001805560035416176003556002556117c290816100ee8239f35b604051631e4fbdf760e01b815260006004820152602490fd5b600080fd5b634e487b7160e01b600052604160045260246000fdfe6080604052600436101561001257600080fd5b60003560e01c806301b8dee6146101825780630beb4da71461017d578063122ec0e01461017857806322b338d7146101735780632ae732471461016e578063488dbfad146101695780634d0af428146101695780635efb870a14610164578063668a8d3c1461015f578063715018a61461015a578063803a28f6146101555780638196276f146101505780638da5cb5b1461014b578063915fe23c1461014657806395b3222514610141578063a542b44f1461013c578063b1f5993b14610137578063cd68a83114610132578063d25cd6661461012d578063d50ee3b514610128578063e9b6c01914610123578063f2fde38b1461011e5763fb108fd91461011957600080fd5b610a5d565b6109d1565b610975565b610957565b61093b565b61090c565b6108ef565b6108be565b610603565b610577565b61054e565b6104e6565b610420565b6103c2565b610391565b610368565b610337565b6102f6565b6102da565b6102a3565b610231565b610197565b600091031261019257565b600080fd5b34610192576000366003190112610192576020600254604051908152f35b9181601f84011215610192578235916001600160401b038311610192576020838186019501011161019257565b90606060031983011261019257600435916001600160401b03916024358381116101925782610213916004016101b5565b939093926044359182116101925761022d916004016101b5565b9091565b346101925761023f366101e2565b9193929330330361025e5760209461025694610d90565b604051908152f35b60405162461bcd60e51b815260206004820152601b60248201527f506f414356657269666965723a20696e7465726e616c206f6e6c7900000000006044820152606490fd5b34610192576020366003190112610192576004356000526004602052602063ffffffff600160406000200154821c16604051908152f35b3461019257600036600319011261019257602060405160a48152f35b34610192576020366003190112610192576004356000526009602052604060ff816000205416600a60205260ff826000205416825191825215156020820152f35b34610192576020366003190112610192576004356000526005602052602060ff604060002054166040519015158152f35b34610192576000366003190112610192576003546040516001600160a01b039091168152602090f35b3461019257602036600319011261019257600435600052600a602052602060ff604060002054166040519015158152f35b346101925760008060031936011261041d576103dc610a8c565b80546001600160a01b03198116825581906001600160a01b03167f8be0079c531659141344cd1fd0a4f28419497f9722a3daafe3b4186f6b6457e08280a380f35b80fd5b346101925761042e366101e2565b9361043a939193610ad2565b60a483036104cd57602060006040518585823780868101838152039060025afa156104c8576000805160066020526040909120610479905b5460ff1690565b6104aa576104a661048d8787878787610d90565b61049660018055565b6040519081529081906020820190565b0390f35b6040516332888c0560e21b81526004810191909152602490fd5b0390fd5b610ac6565b6040516308575bc960e41b815260048101849052602490fd5b34610192576080366003190112610192576001600160401b03602435818111610192576105179036906004016101b5565b91604435908111610192576105309036906004016101b5565b6064359160ff83168303610192576104a69461049694600435610cb6565b34610192576000366003190112610192576000546040516001600160a01b039091168152602090f35b3461019257602036600319011261019257610590610a8c565b600435600255005b9181601f84011215610192578235916001600160401b038311610192576020808501948460051b01011161019257565b6020908160408183019282815285518094520193019160005b8281106105ef575050505090565b8351855293810193928101926001016105e1565b346101925760603660031901126101925760046001600160401b038135818111610192576106349036908401610598565b9290916024358181116101925761064e9036908401610598565b939091604435908111610192576106689036908501610598565b9190610672610ad2565b86156108ad578587148015906108a3575b61089257949293919061069587610b7b565b95600094859686955b8a87106106fa57604080518c8152602081018b90529081018990526104a6908b907f6cedc2bc02d0738da2fff66f7bc5753bdbb34f5aaf4f9c2a71c4d52b661aed0790606090a16106ee60018055565b604051918291826105c8565b90919293949596878a60a4610710838888610bed565b90500361087f5750610723908585610bed565b60409291600084518061073a816020968796610ab8565b039060025afa156104c857888c91888f8d968a8a928e60005161076a610472826000526006602052604060002090565b610863578b6107d795946107af828b9c9d9e9f95966107be976107aa61079d6107b6986000526006602052604060002090565b805460ff19166001179055565b610c47565b3597610bed565b999096610bed565b9151630beb4da760e01b815297889586958d8701610c87565b03816000305af1918291600093610834575b505061081a575061080f9160006108038b61080994610c33565b52610bc3565b97610bc3565b95949392919061069e565b99899a61080361080f949b61082e94610c33565b98610bc3565b610854929350803d1061085c575b61084c8183610b23565b810190610c57565b9038806107e9565b503d610842565b50505050505050505090600061080361080f9461080994610c33565b9160006108036108099361080f95610c33565b60405163512509d360e11b81528590fd5b5082871415610683565b60405163c2e5347d60e01b81528590fd5b34610192576020366003190112610192576004356000526006602052602060ff604060002054166040519015158152f35b346101925760003660031901126101925760206040516101008152f35b34610192576020366003190112610192576004356000526008602052602060ff60406000205416604051908152f35b3461019257600036600319011261019257602060405160408152f35b34610192576000366003190112610192576020600754604051908152f35b346101925760203660031901126101925760043560005260046020526060604060002060ff6001825492015460405192835263ffffffff8116602084015260401c1615156040820152f35b6001600160a01b0381160361019257565b34610192576020366003190112610192576004356109ee816109c0565b6109f6610a8c565b6001600160a01b039081168015610a4457600080546001600160a01b03198116831782559092167f8be0079c531659141344cd1fd0a4f28419497f9722a3daafe3b4186f6b6457e08380a380f35b604051631e4fbdf760e01b815260006004820152602490fd5b34610192576020366003190112610192576004356000526009602052602060ff60406000205416604051908152f35b6000546001600160a01b03163303610aa057565b60405163118cdaa760e01b8152336004820152602490fd5b908092918237016000815290565b6040513d6000823e3d90fd5b600260015414610ae3576002600155565b604051633ee5aeb560e01b8152600490fd5b634e487b7160e01b600052604160045260246000fd5b6001600160401b038111610b1e57604052565b610af5565b90601f801991011681019081106001600160401b03821117610b1e57604052565b6040519061014082018281106001600160401b03821117610b1e57604052565b6001600160401b038111610b1e5760051b60200190565b90610b8582610b64565b610b926040519182610b23565b8281528092610ba3601f1991610b64565b0190602036910137565b634e487b7160e01b600052601160045260246000fd5b6000198114610bd25760010190565b610bad565b634e487b7160e01b600052603260045260246000fd5b9190811015610c2e5760051b81013590601e19813603018212156101925701908135916001600160401b038311610192576020018236038113610192579190565b610bd7565b8051821015610c2e5760209160051b010190565b9190811015610c2e5760051b0190565b90816020910312610192575190565b908060209392818452848401376000828201840152601f01601f1916010190565b9391610cb39593610ca5928652606060208701526060860191610c66565b926040818503910152610c66565b90565b610cbe610ad2565b60ff861615610d605760a483036104cd576020600060405180610ce2818888610ab8565b039060025afa156104c8576000805160066020526040909120610d0490610472565b6104aa575091610d199391610d3d9593610d90565b91610d2e836000526009602052604060002090565b9060ff1660ff19825416179055565b610d5461079d82600052600a602052604060002090565b90610d5e60018055565b565b604051633deba3d960e21b815260ff87166004820152602490fd5b63ffffffff809116908114610bd25760010190565b9294939060a483036104cd5760409182810361114957610daf8561131e565b60208351948580610dc4600098899488610ab8565b039060025afa156104c857835196610de9610472896000526005602052604060002090565b61113157610e029291610dfd91898861141b565b6115a4565b90610e17846000526004602052604060002090565b60018101805480841c60ff16949290858061111a575b6110c9575088906080840195610e4d610e47885160070b90565b8a6114f8565b84519081611080575b505055610ee46060830191610e88610e72845163ffffffff1690565b825463ffffffff191663ffffffff909116178255565b610ec7610ea5610ea0835463ffffffff9060201c1690565b610d7b565b825467ffffffff00000000191660209190911b67ffffffff0000000016178255565b805468ff0000000000000000191668010000000000000000179055565b6020820194610f0b610ef7875160ff1690565b610d2e8b6000526008602052604060002090565b610f2261079d8a6000526006602052604060002090565b610f3961079d8a6000526005602052604060002090565b610f4c610f47600754610bc3565b600755565b600354610f69906001600160a01b03165b6001600160a01b031690565b803b1561107c5792610ffb610ff361105e94848895610fdf8f9d9c9a998d7fcfaf1c01b5ed0efe033edf39991653ab530ccf7137a5f17be336449eadb644ce9d9b519485809481936307567c7560e01b835260048301606060009193929360808101948152600160208201528260408201520152565b03925af1611063575b505163ffffffff1690565b945160070b90565b9461102560a06110196110118686015160ff1690565b935160ff1690565b93015163ffffffff1690565b925163ffffffff958616815260079690960b602087015260ff9081166040870152166060850152919091166080830152819060a0820190565b0390a3565b8061107061107692610b0b565b80610187565b38610fe8565b5080fd5b91925090806110be575b6110975790818a92610e56565b815485516304b3e53960e31b8152600481018a905260248101929092526044820152606490fd5b50815481141561108a565b63ffffffff906104c489876110e5606089015163ffffffff1690565b905194859463dce74d9160e01b86521691600485019160409194936060840195845263ffffffff809216602085015216910152565b50606084015163ffffffff82811691161115610e2d565b835163384c4ec960e01b815260048101899052602490fd5b825163058676ad60e31b81526004810191909152602490fd5b5190811515820361019257565b9081602091031261019257610cb390611162565b5190610d5e826109c0565b51906001600160401b038216820361019257565b6001600160401b038111610b1e57601f01601f191660200190565b919080601f84011215610192578251906111d6826111a2565b916111e46040519384610b23565b8083526020918282870101116101925760005b81811061120c57508260009394955001015290565b85810183015184820184015282016111f7565b519063ffffffff8216820361019257565b519061ffff8216820361019257565b6020818303126101925780516001600160401b03918282116101925701906101408284031261019257611270610b44565b9261127a83611183565b84526112886020840161118e565b60208501526112996040840161118e565b6040850152606083015160608501526112b460808401611162565b608085015260a0830151918211610192576112d09183016111bd565b60a08301526112e160c0820161121f565b60c08301526112f260e0820161121f565b60e083015261010061130581830161121f565b90830152611317610120809201611230565b9082015290565b600354611333906001600160a01b0316610f5d565b604051635ec8fe6b60e01b815260048101839052602081602481855afa9081156104c8576000916113ed575b5015611369575050565b6040516359d902ed60e01b81526004810183905290600090829060249082905afa90816113ca575b506113b05760405163072b382f60e21b81526004810191909152602490fd5b60405163159c717560e11b81526004810191909152602490fd5b6113e6903d806000833e6113de8183610b23565b81019061123f565b5082611391565b61140e915060203d8111611414575b6114068183610b23565b81019061116f565b3861135f565b503d6113fc565b60035460405163804ad24960e01b8152600481018390529294919360009390918490829060249082906001600160a01b03165afa9384156104c857809461149c575b50509161146e916114729386611690565b1590565b61147a575050565b604051636366097760e11b815260048101919091526024810191909152604490fd5b909193503d8082843e6114af8184610b23565b82019160208184031261107c578051916001600160401b03831161041d5750611472949261146e94926114e292016111bd565b9381935061145d565b91908201809211610bd257565b906103e8804202428104821442151715610bd2576000600784900b811361159e57506001600160401b038316905b60025492808402908482041484151715610bd25761154481836114eb565b831192831561158a575b50505061155a57505050565b60405163587b5a6d60e01b8152600481019390935260079190910b60248301524260448301526064820152608490fd5b6115959293506114eb565b1038808061154e565b90611526565b9060405160c081018181106001600160401b03821117610b1e5760405260a08082948035845263ffffffff60808201358060001a60208701528060011a604087015260c01c166060850152608881013560c01c6080850152013560e01c910152565b1561160d57565b60405162461bcd60e51b815260206004820152602560248201527f506f414356657269666965723a207075626b6579206d75737420626520363520604482015264627974657360d81b6064820152608490fd5b3d1561168b573d90611671826111a2565b9161167f6040519384610b23565b82523d6000602084013e565b606090565b909160400361173657826116ff600094936116af604187965114611606565b6116f1604160218501519401516040519485936020850197602082013591359089939160a0959391855260208501526040840152606083015260808201520190565b03601f198101835282610b23565b51906101005afa61170e611660565b9015801561172b575b611725576020015160011490565b50600090565b506020815110611717565b60405162461bcd60e51b815260206004820152602860248201527f506f414356657269666965723a207369676e6174757265206d75737420626520604482015267363420627974657360c01b6064820152608490fdfea26469706673582212205bc466ae3512ee8a56b0acf2f6f3863dde46af1d2599dbdd9b5fb5cfb51f56f564736f6c63430008140033",
  "linkReferences": {},
  "deployedLinkReferences": {}
}