{
  "_format": "hh-sol-artifact-1",
  "contractName": "TournamentGateV2",
  "sourceName": "contracts/TournamentGateV2.sol",
  "abi": [
    {
      "inputs": [
        {
          "internalType": "address",
          "name": "_phgRegistry",
          "type": "address"
        },
        {
          "internalType": "uint256",
          "name": "_minCumulative",
          "type": "uint256"
        },
        {
          "internalType": "uint256",
          "name": "_minVelocity",
          "type": "uint256"
        },
        {
          "internalType": "uint256",
          "name": "_velocityWindow",
          "type": "uint256"
        }
      ],
      "stateMutability": "nonpayable",
      "type": "constructor"
    },
    {
      "inputs": [
        {
          "internalType": "bytes32",
          "name": "deviceId",
          "type": "bytes32"
        },
        {
          "internalType": "uint256",
          "name": "have",
          "type": "uint256"
        },
        {
          "internalType": "uint256",
          "name": "need",
          "type": "uint256"
        }
      ],
      "name": "InsufficientHumanityScore",
      "type": "error"
    },
    {
      "inputs": [
        {
          "internalType": "bytes32",
          "name": "deviceId",
          "type": "bytes32"
        },
        {
          "internalType": "uint256",
          "name": "have",
          "type": "uint256"
        },
        {
          "internalType": "uint256",
          "name": "need",
          "type": "uint256"
        }
      ],
      "name": "InsufficientRecentVelocity",
      "type": "error"
    },
    {
      "inputs": [
        {
          "internalType": "bytes32",
          "name": "deviceId",
          "type": "bytes32"
        }
      ],
      "name": "assertEligible",
      "outputs": [],
      "stateMutability": "view",
      "type": "function"
    },
    {
      "inputs": [],
      "name": "minCumulative",
      "outputs": [
        {
          "internalType": "uint256",
          "name": "",
          "type": "uint256"
        }
      ],
      "stateMutability": "view",
      "type": "function"
    },
    {
      "inputs": [],
      "name": "minVelocity",
      "outputs": [
        {
          "internalType": "uint256",
          "name": "",
          "type": "uint256"
        }
      ],
      "stateMutability": "view",
      "type": "function"
    },
    {
      "inputs": [],
      "name": "phgRegistry",
      "outputs": [
        {
          "internalType": "contract PHGRegistry",
          "name": "",
          "type": "address"
        }
      ],
      "stateMutability": "view",
      "type": "function"
    },
    {
      "inputs": [],
      "name": "velocityWindow",
      "outputs": [
        {
          "internalType": "uint256",
          "name": "",
          "type": "uint256"
        }
      ],
      "stateMutability": "view",
      "type": "function"
    }
  ],
  "bytecode": "0x6101003461015257601f61051138819003918201601f19168301916001600160401b03831184841017610157578084926080946040528339810103126101525780516001600160a01b03811691908290036101525760208101516060604083015192015192801561010d5783156100c85760805260a05260c05260e0526040516103a3908161016e823960805181818160ff01526102cc015260a05181818160720152610141015260c05181818160b001526101bd015260e05181818161018501526103120152f35b60405162461bcd60e51b815260206004820152601d60248201527f546f75726e616d656e744761746556323a207a65726f2077696e646f770000006044820152606490fd5b60405162461bcd60e51b815260206004820152601f60248201527f546f75726e616d656e744761746556323a207a65726f207265676973747279006044820152606490fd5b600080fd5b634e487b7160e01b600052604160045260246000fdfe608060408181526004918236101561001657600080fd5b600092833560e01c9182632075e01e146102fb57508163245cc4e7146102b75781632e82fb78146100d3575080639a52659d146100995763ad239f871461005c57600080fd5b34610095578160031936011261009557602090517f00000000000000000000000000000000000000000000000000000000000000008152f35b5080fd5b5034610095578160031936011261009557602090517f00000000000000000000000000000000000000000000000000000000000000008152f35b9050346102b357602091826003193601126102af5780516218cc9360e41b8152823581840181905293907f00000000000000000000000000000000000000000000000000000000000000006001600160a01b0316908281602481855afa9081156102a5578791610274575b507f0000000000000000000000000000000000000000000000000000000000000000908181106102495750508160449184519283809263104a4a8560e11b825289898301527f000000000000000000000000000000000000000000000000000000000000000060248301525afa91821561023f57869261020d575b50507f0000000000000000000000000000000000000000000000000000000000000000918282106101e8578580f35b51633af3ce1960e11b8152928301938452602084015260408301529081906060010390fd5b90809250813d8311610238575b6102248183610335565b81010312610234575138806101b9565b8480fd5b503d61021a565b83513d88823e3d90fd5b9351631750e4e960e21b81529485019586526020860193909352505060408301529081906060010390fd5b90508281813d831161029e575b61028b8183610335565b8101031261029a57513861013e565b8680fd5b503d610281565b84513d89823e3d90fd5b8380fd5b8280fd5b505034610095578160031936011261009557517f00000000000000000000000000000000000000000000000000000000000000006001600160a01b03168152602090f35b8490346100955781600319360112610095576020907f00000000000000000000000000000000000000000000000000000000000000008152f35b90601f8019910116810190811067ffffffffffffffff82111761035757604052565b634e487b7160e01b600052604160045260246000fdfea26469706673582212203961b3544d91ef5a97d0f3308eb2b7029ea7f8ad569f9481cb6ea6c0e441577764736f6c63430008140033",
  "linkReferences": {},
  "deployedLinkReferences": {}
}