{
  "_format": "hh-sol-artifact-1",
  "contractName": "TeamProofAggregator",
  "sourceName": "contracts/TeamProofAggregator.sol",
  "abi": [
    {
      "inputs": [
        {
          "internalType": "address",
          "name": "_poACVerifier",
          "type": "address"
        }
      ],
      "stateMutability": "nonpayable",
      "type": "constructor"
    },
    {
      "inputs": [
        {
          "internalType": "bytes32",
          "name": "recordHash",
          "type": "bytes32"
        },
        {
          "internalType": "uint8",
          "name": "inferenceResult",
          "type": "uint8"
        }
      ],
      "name": "CheatFlagDetected",
      "type": "error"
    },
    {
      "inputs": [
        {
          "internalType": "bytes32",
          "name": "computed",
          "type": "bytes32"
        },
        {
          "internalType": "bytes32",
          "name": "submitted",
          "type": "bytes32"
        }
      ],
      "name": "InvalidMerkleRoot",
      "type": "error"
    },
    {
      "inputs": [
        {
          "internalType": "uint256",
          "name": "size",
          "type": "uint256"
        }
      ],
      "name": "InvalidTeamSize",
      "type": "error"
    },
    {
      "inputs": [
        {
          "internalType": "uint256",
          "name": "expected",
          "type": "uint256"
        },
        {
          "internalType": "uint256",
          "name": "provided",
          "type": "uint256"
        }
      ],
      "name": "MemberCountMismatch",
      "type": "error"
    },
    {
      "inputs": [
        {
          "internalType": "address",
          "name": "owner",
          "type": "address"
        }
      ],
      "name": "OwnableInvalidOwner",
      "type": "error"
    },
    {
      "inputs": [
        {
          "internalType": "address",
          "name": "account",
          "type": "address"
        }
      ],
      "name": "OwnableUnauthorizedAccount",
      "type": "error"
    },
    {
      "inputs": [
        {
          "internalType": "bytes32",
          "name": "recordHash",
          "type": "bytes32"
        }
      ],
      "name": "RecordNotVerified",
      "type": "error"
    },
    {
      "inputs": [
        {
          "internalType": "bytes32",
          "name": "teamId",
          "type": "bytes32"
        }
      ],
      "name": "TeamAlreadyExists",
      "type": "error"
    },
    {
      "inputs": [
        {
          "internalType": "bytes32",
          "name": "teamId",
          "type": "bytes32"
        }
      ],
      "name": "TeamNotActive",
      "type": "error"
    },
    {
      "inputs": [
        {
          "internalType": "bytes32",
          "name": "teamId",
          "type": "bytes32"
        }
      ],
      "name": "TeamNotFound",
      "type": "error"
    },
    {
      "anonymous": false,
      "inputs": [
        {
          "indexed": true,
          "internalType": "address",
          "name": "previousOwner",
          "type": "address"
        },
        {
          "indexed": true,
          "internalType": "address",
          "name": "newOwner",
          "type": "address"
        }
      ],
      "name": "OwnershipTransferred",
      "type": "event"
    },
    {
      "anonymous": false,
      "inputs": [
        {
          "indexed": true,
          "internalType": "bytes32",
          "name": "teamId",
          "type": "bytes32"
        },
        {
          "indexed": true,
          "internalType": "address",
          "name": "captain",
          "type": "address"
        },
        {
          "indexed": false,
          "internalType": "uint8",
          "name": "memberCount",
          "type": "uint8"
        }
      ],
      "name": "TeamCreated",
      "type": "event"
    },
    {
      "anonymous": false,
      "inputs": [
        {
          "indexed": true,
          "internalType": "bytes32",
          "name": "teamId",
          "type": "bytes32"
        },
        {
          "indexed": true,
          "internalType": "uint256",
          "name": "proofId",
          "type": "uint256"
        },
        {
          "indexed": false,
          "internalType": "bytes32",
          "name": "merkleRoot",
          "type": "bytes32"
        },
        {
          "indexed": false,
          "internalType": "uint8",
          "name": "memberCount",
          "type": "uint8"
        },
        {
          "indexed": false,
          "internalType": "bool",
          "name": "allClean",
          "type": "bool"
        }
      ],
      "name": "TeamProofSubmitted",
      "type": "event"
    },
    {
      "inputs": [],
      "name": "CHEAT_INFERENCE_MAX",
      "outputs": [
        {
          "internalType": "uint8",
          "name": "",
          "type": "uint8"
        }
      ],
      "stateMutability": "view",
      "type": "function"
    },
    {
      "inputs": [],
      "name": "CHEAT_INFERENCE_MIN",
      "outputs": [
        {
          "internalType": "uint8",
          "name": "",
          "type": "uint8"
        }
      ],
      "stateMutability": "view",
      "type": "function"
    },
    {
      "inputs": [],
      "name": "MAX_TEAM_SIZE",
      "outputs": [
        {
          "internalType": "uint8",
          "name": "",
          "type": "uint8"
        }
      ],
      "stateMutability": "view",
      "type": "function"
    },
    {
      "inputs": [],
      "name": "MIN_TEAM_SIZE",
      "outputs": [
        {
          "internalType": "uint8",
          "name": "",
          "type": "uint8"
        }
      ],
      "stateMutability": "view",
      "type": "function"
    },
    {
      "inputs": [
        {
          "internalType": "bytes32[]",
          "name": "_leaves",
          "type": "bytes32[]"
        }
      ],
      "name": "computeMerkleRoot",
      "outputs": [
        {
          "internalType": "bytes32",
          "name": "",
          "type": "bytes32"
        }
      ],
      "stateMutability": "pure",
      "type": "function"
    },
    {
      "inputs": [
        {
          "internalType": "bytes32",
          "name": "_teamId",
          "type": "bytes32"
        },
        {
          "internalType": "bytes32[]",
          "name": "_deviceIds",
          "type": "bytes32[]"
        }
      ],
      "name": "createTeam",
      "outputs": [],
      "stateMutability": "nonpayable",
      "type": "function"
    },
    {
      "inputs": [
        {
          "internalType": "bytes32",
          "name": "_teamId",
          "type": "bytes32"
        }
      ],
      "name": "getTeam",
      "outputs": [
        {
          "internalType": "bytes32[]",
          "name": "memberDeviceIds",
          "type": "bytes32[]"
        },
        {
          "internalType": "address",
          "name": "captain",
          "type": "address"
        },
        {
          "internalType": "uint64",
          "name": "createdAt",
          "type": "uint64"
        },
        {
          "internalType": "bool",
          "name": "active",
          "type": "bool"
        }
      ],
      "stateMutability": "view",
      "type": "function"
    },
    {
      "inputs": [
        {
          "internalType": "uint256",
          "name": "_proofId",
          "type": "uint256"
        }
      ],
      "name": "getTeamProof",
      "outputs": [
        {
          "components": [
            {
              "internalType": "bytes32",
              "name": "teamId",
              "type": "bytes32"
            },
            {
              "internalType": "bytes32",
              "name": "merkleRoot",
              "type": "bytes32"
            },
            {
              "internalType": "bytes32[]",
              "name": "recordHashes",
              "type": "bytes32[]"
            },
            {
              "internalType": "uint8",
              "name": "memberCount",
              "type": "uint8"
            },
            {
              "internalType": "bool",
              "name": "allClean",
              "type": "bool"
            },
            {
              "internalType": "uint64",
              "name": "submittedAt",
              "type": "uint64"
            },
            {
              "internalType": "address",
              "name": "submitter",
              "type": "address"
            }
          ],
          "internalType": "struct TeamProofAggregator.TeamProof",
          "name": "",
          "type": "tuple"
        }
      ],
      "stateMutability": "view",
      "type": "function"
    },
    {
      "inputs": [
        {
          "internalType": "bytes32",
          "name": "_teamId",
          "type": "bytes32"
        }
      ],
      "name": "getTeamProofCount",
      "outputs": [
        {
          "internalType": "uint256",
          "name": "",
          "type": "uint256"
        }
      ],
      "stateMutability": "view",
      "type": "function"
    },
    {
      "inputs": [
        {
          "internalType": "bytes32",
          "name": "_teamId",
          "type": "bytes32"
        }
      ],
      "name": "getTeamProofIds",
      "outputs": [
        {
          "internalType": "uint256[]",
          "name": "",
          "type": "uint256[]"
        }
      ],
      "stateMutability": "view",
      "type": "function"
    },
    {
      "inputs": [],
      "name": "owner",
      "outputs": [
        {
          "internalType": "address",
          "name": "",
          "type": "address"
        }
      ],
      "stateMutability": "view",
      "type": "function"
    },
    {
      "inputs": [],
      "name": "poACVerifier",
      "outputs": [
        {
          "internalType": "contract PoACVerifier",
          "name": "",
          "type": "address"
        }
      ],
      "stateMutability": "view",
      "type": "function"
    },
    {
      "inputs": [],
      "name": "proofCount",
      "outputs": [
        {
          "internalType": "uint256",
          "name": "",
          "type": "uint256"
        }
      ],
      "stateMutability": "view",
      "type": "function"
    },
    {
      "inputs": [],
      "name": "renounceOwnership",
      "outputs": [],
      "stateMutability": "nonpayable",
      "type": "function"
    },
    {
      "inputs": [
        {
          "internalType": "bytes32",
          "name": "_teamId",
          "type": "bytes32"
        },
        {
          "internalType": "bytes32[]",
          "name": "_recordHashes",
          "type": "bytes32[]"
        },
        {
          "internalType": "bytes32",
          "name": "_merkleRoot",
          "type": "bytes32"
        }
      ],
      "name": "submitTeamProof",
      "outputs": [
        {
          "internalType": "uint256",
          "name": "proofId",
          "type": "uint256"
        }
      ],
      "stateMutability": "nonpayable",
      "type": "function"
    },
    {
      "inputs": [
        {
          "internalType": "bytes32",
          "name": "",
          "type": "bytes32"
        }
      ],
      "name": "teamExists",
      "outputs": [
        {
          "internalType": "bool",
          "name": "",
          "type": "bool"
        }
      ],
      "stateMutability": "view",
      "type": "function"
    },
    {
      "inputs": [
        {
          "internalType": "address",
          "name": "newOwner",
          "type": "address"
        }
      ],
      "name": "transferOwnership",
      "outputs": [],
      "stateMutability": "nonpayable",
      "type": "function"
    }
  ],
  "bytecode": "0x6080346100c657601f610f5638819003918201601f19168301916001600160401b038311848410176100cb578084926020946040528339810103126100c657516001600160a01b0390818116908190036100c65733156100ad5760005460018060a01b0319903382821617600055604051933391167f8be0079c531659141344cd1fd0a4f28419497f9722a3daafe3b4186f6b6457e0600080a36001541617600155610e7490816100e28239f35b604051631e4fbdf760e01b815260006004820152602490fd5b600080fd5b634e487b7160e01b600052604160045260246000fdfe60406080815260048036101561001457600080fd5b600091823560e01c80632b8b906c14610a445780633bd561751461090357806344ea6c69146108d65780634bb34a7d1461083857806350072dd7146104bb578063638371ee1461041d578063715018a6146103c05780638ad6fcfb146103a45780638da5cb5b1461037c578063addecc061461035e578063c0d3f38514610336578063c37a636b1461031a578063c3a39536146101d0578063d4b9c129146101b4578063de62201a14610198578063f1cf79051461016b5763f2fde38b146100db57600080fd5b34610167576020366003190112610167576001600160a01b038235818116939192908490036101635761010c610abf565b831561014d57505082546001600160a01b0319811683178455167f8be0079c531659141344cd1fd0a4f28419497f9722a3daafe3b4186f6b6457e08380a380f35b51631e4fbdf760e01b8152908101849052602490fd5b8480fd5b8280fd5b83823461019457816003193601126101945760015490516001600160a01b039091168152602090f35b5080fd5b83823461019457816003193601126101945760209051602a8152f35b8382346101945781600319360112610194576020905160068152f35b503461016757806003193601126101675781359060243567ffffffffffffffff8111610163576102039036908501610a89565b93838652600360205260ff8387205416610303576002851080156102f9575b6102e2575082855260026020528185206001810180546001600160e81b0319163368ffffffffffffffffff60a01b1916174260a01b67ffffffffffffffff60a01b1617600160e01b179055855b8581106102bf5750505060ff9082855260036020528085206001831982541617905551921682527fd51f1ea8e0b03f99b94c0bdb936c2fc4683c160bf64b58e5fbc3ccbe4c20f9ca60203393a380f35b806102d86102d16102dd938987610b10565b3584610b4e565b610aeb565b61026f565b825163ef2e255d60e01b8152908101859052602490fd5b5060068511610222565b825163f7bd25cb60e01b8152908101849052602490fd5b8382346101945781600319360112610194576020905160288152f35b5090346101675760203660031901126101675760209282913581526006845220549051908152f35b50903461016757826003193601126101675760209250549051908152f35b838234610194578160031936011261019457905490516001600160a01b039091168152602090f35b8382346101945781600319360112610194576020905160028152f35b833461041a578060031936011261041a576103d9610abf565b80546001600160a01b03198116825581906001600160a01b03167f8be0079c531659141344cd1fd0a4f28419497f9722a3daafe3b4186f6b6457e08280a380f35b80fd5b50913461041a57602091826003193601126101945792919235815260068352818120908251808584549182815201908194845286842090845b8181106104a7575050508161046c910382610ba6565b83519485948186019282875251809352850193925b82811061049057505050500390f35b835185528695509381019392810192600101610481565b825484529288019260019283019201610456565b50346101675760603660031901126101675781356024803567ffffffffffffffff8111610834576104ef9036908601610a89565b909460449687359385825260209860038a5260ff908189852054161561081e5787845260028b5288842082600182015460e01c161561080857548087036107ef57506001546001600160a01b0316845b878c8183106106ac579091506105559250610bf4565b8781036106935750509783549861056b8a610aeb565b855589845260058b528884208881556001810188905560038101805462010000600160f01b031961ffff199190911693891693841761010017164260101b69ffffffffffffffff000016173360501b600160501b600160f01b03161790559095600290910190845b81811061067557505050508582526006895286822091825493600160401b85101561066557505050927f6faf02f204baeaaf295439e5483b112c706763054453bed74b5d8647e82ca55b928761064d610636858399986001606098018155610b36565b819391549060031b91821b91600019901b19161790565b9055865191825288820152600186820152a351908152f35b634e487b7160e01b825260419052fd5b806102d861068761068e938588610b10565b3585610b4e565b6105d3565b878487928c51936327c4ed9760e21b8552840152820152fd5b6106b7918391610b10565b358d8c519063488dbfad60e01b8252828a830152818881875afa908115610799578f89926107b8575b5050156107a3578b5163cd68a83160e01b81528881018290528e818881875afa90811561079957908f9187928a9261075b575b50501690602882101580610750575b61073657505061073190610aeb565b61053f565b8491878a928f519363379a771360e21b8552840152820152fd5b50602a821115610722565b8193508092503d8311610792575b6107738183610ba6565b8101031261078e5751858116810361078e5785908f80610713565b8780fd5b503d610769565b8d513d8a823e3d90fd5b8786918d5191632047f23560e21b8352820152fd5b90809250813d83116107e8575b6107cf8183610ba6565b8101031261078e5751801515810361078e57388f6106e0565b503d6107c5565b868487928c5193634c1eb76960e11b8552840152820152fd5b895163b79eacfb60e01b81528087018a90528490fd5b8851630760a05360e31b81528086018990528390fd5b8580fd5b50919034610194576020908160031936011261016757919091358152600282528281209260019261086c8486015495610ded565b92825194608086016080875285518091528360a088019601925b8181106108c3576001600160a01b0389168589015260a089901c67ffffffffffffffff168689015260e089901c60ff161515606089015287870388f35b8351875295840195928401928201610886565b509034610167576020366003190112610167578160209360ff923581526003855220541690519015158152f35b50913461041a5760209182600319360112610194578160c0859493955161092981610b8a565b82815282858201526060868201528260608201528260808201528260a082015201523583526005815281832082519261096184610b8a565b815484526001918281015494848101958652600361098160028401610ded565b92848301938452015493606082019760ff86168952608083019160ff8760081c161515835260a084019367ffffffffffffffff95868960101c16865260c082019760018060a01b03809a60501c16895280519b8b8d528c8c6101008201955191015251908c0152519860e060608c01528951809252806101208c019a01935b828110610a3157505050505060ff87985116608088015251151560a0870152511660c0850152511660e08301520390f35b84518b5299810199938101938301610a00565b50823461041a57602036600319011261041a5782359067ffffffffffffffff821161041a5750610a7c602093610a8292369101610a89565b90610bf4565b9051908152f35b9181601f84011215610aba5782359167ffffffffffffffff8311610aba576020808501948460051b010111610aba57565b600080fd5b6000546001600160a01b03163303610ad357565b60405163118cdaa760e01b8152336004820152602490fd5b6000198114610afa5760010190565b634e487b7160e01b600052601160045260246000fd5b9190811015610b205760051b0190565b634e487b7160e01b600052603260045260246000fd5b8054821015610b205760005260206000200190600090565b805490600160401b821015610b745781610636916001610b7094018155610b36565b9055565b634e487b7160e01b600052604160045260246000fd5b60e0810190811067ffffffffffffffff821117610b7457604052565b90601f8019910116810190811067ffffffffffffffff821117610b7457604052565b67ffffffffffffffff8111610b745760051b60200190565b8051821015610b205760209160051b010190565b9080600191828114610de157610c0981610bc8565b92604092610c1984519586610ba6565b828552610c2583610bc8565b9560209384870197601f190136893760005b818110610dc25750505081805b610d1a575b505b818111610c6057505050505115610b20575190565b818101808211610afa57821c9060005b828110610c7e575050610c4b565b80841b9080820460021481151715610afa5784820191828111610afa5783831015610d0057610cb0610cb8918a610be0565b519289610be0565b519187519287840191825288840152878352606083019280841067ffffffffffffffff851117610b7457610cfb938952519020610cf5828a610be0565b52610aeb565b610c70565b610cfb9250610d0f9089610be0565b51610cf5828a610be0565b8551811015610dbd578281610d30829389610be0565b5181935b610d4d575b610cf5610d4793948a610be0565b90610c44565b915091801585811580610d9c575b15610d915750600019820191808311610afa57610d83610d7b848c610be0565b51918b610be0565b52610afa5791849182610d34565b929050929092610d39565b50506000198201828111610afa5783610db688928c610be0565b5111610d5b565b610c49565b80610dd1610ddc928486610b10565b35610cf5828b610be0565b610c37565b91505015610b20573590565b9060405191828154918282526020928383019160005283600020936000905b828210610e2457505050610e2292500383610ba6565b565b855484526001958601958895509381019390910190610e0c56fea2646970667358221220fb3a37b06226f73bade93aac6468e75aec26fbe0384e34c2e094c49f538b04da64736f6c63430008140033",
  "linkReferences": {},
  "deployedLinkReferences": {}
}