{
  "_format": "hh-sol-artifact-1",
  "contractName": "IdentityContinuityRegistry",
  "sourceName": "contracts/IdentityContinuityRegistry.sol",
  "abi": [
    {
      "inputs": [
        {
          "internalType": "address",
          "name": "_bridge",
          "type": "address"
        },
        {
          "internalType": "address",
          "name": "_phgRegistry",
          "type": "address"
        }
      ],
      "stateMutability": "nonpayable",
      "type": "constructor"
    },
    {
      "inputs": [
        {
          "internalType": "bytes32",
          "name": "deviceId",
          "type": "bytes32"
        }
      ],
      "name": "AlreadyClaimed",
      "type": "error"
    },
    {
      "inputs": [],
      "name": "OnlyBridge",
      "type": "error"
    },
    {
      "inputs": [
        {
          "internalType": "bytes32",
          "name": "oldDeviceId",
          "type": "bytes32"
        }
      ],
      "name": "SourceAlreadyClaimed",
      "type": "error"
    },
    {
      "anonymous": false,
      "inputs": [
        {
          "indexed": true,
          "internalType": "bytes32",
          "name": "oldDeviceId",
          "type": "bytes32"
        },
        {
          "indexed": true,
          "internalType": "bytes32",
          "name": "newDeviceId",
          "type": "bytes32"
        },
        {
          "indexed": false,
          "internalType": "bytes32",
          "name": "biometricProofHash",
          "type": "bytes32"
        },
        {
          "indexed": false,
          "internalType": "uint256",
          "name": "scoreMigrated",
          "type": "uint256"
        },
        {
          "indexed": false,
          "internalType": "uint256",
          "name": "blockNumber",
          "type": "uint256"
        }
      ],
      "name": "ContinuityAttested",
      "type": "event"
    },
    {
      "inputs": [
        {
          "internalType": "bytes32",
          "name": "oldDeviceId",
          "type": "bytes32"
        },
        {
          "internalType": "bytes32",
          "name": "newDeviceId",
          "type": "bytes32"
        },
        {
          "internalType": "bytes32",
          "name": "biometricProofHash",
          "type": "bytes32"
        }
      ],
      "name": "attestContinuity",
      "outputs": [],
      "stateMutability": "nonpayable",
      "type": "function"
    },
    {
      "inputs": [],
      "name": "bridge",
      "outputs": [
        {
          "internalType": "address",
          "name": "",
          "type": "address"
        }
      ],
      "stateMutability": "view",
      "type": "function"
    },
    {
      "inputs": [
        {
          "internalType": "bytes32",
          "name": "",
          "type": "bytes32"
        }
      ],
      "name": "claimed",
      "outputs": [
        {
          "internalType": "bool",
          "name": "",
          "type": "bool"
        }
      ],
      "stateMutability": "view",
      "type": "function"
    },
    {
      "inputs": [
        {
          "internalType": "bytes32",
          "name": "",
          "type": "bytes32"
        }
      ],
      "name": "continuedFrom",
      "outputs": [
        {
          "internalType": "bytes32",
          "name": "",
          "type": "bytes32"
        }
      ],
      "stateMutability": "view",
      "type": "function"
    },
    {
      "inputs": [
        {
          "internalType": "bytes32",
          "name": "deviceId",
          "type": "bytes32"
        }
      ],
      "name": "getCanonicalRoot",
      "outputs": [
        {
          "internalType": "bytes32",
          "name": "root",
          "type": "bytes32"
        }
      ],
      "stateMutability": "view",
      "type": "function"
    },
    {
      "inputs": [
        {
          "internalType": "bytes32",
          "name": "newId",
          "type": "bytes32"
        },
        {
          "internalType": "bytes32",
          "name": "oldId",
          "type": "bytes32"
        }
      ],
      "name": "isContinuationOf",
      "outputs": [
        {
          "internalType": "bool",
          "name": "",
          "type": "bool"
        }
      ],
      "stateMutability": "view",
      "type": "function"
    },
    {
      "inputs": [],
      "name": "phgRegistry",
      "outputs": [
        {
          "internalType": "contract PHGRegistry",
          "name": "",
          "type": "address"
        }
      ],
      "stateMutability": "view",
      "type": "function"
    }
  ],
  "bytecode": "0x60c03461012957601f6105e538819003918201601f19168301916001600160401b0383118484101761012e57808492604094855283398101031261012957610052602061004b83610144565b9201610144565b6001600160a01b0390828216156100e4571690811561009f5760805260a05260405161048c908161015982396080518181816085015261021a015260a05181818161016e015261029f0152f35b60405162461bcd60e51b815260206004820152601a60248201527f4943523a207a65726f20726567697374727920616464726573730000000000006044820152606490fd5b60405162461bcd60e51b815260206004820152601860248201527f4943523a207a65726f20627269646765206164647265737300000000000000006044820152606490fd5b600080fd5b634e487b7160e01b600052604160045260246000fd5b51906001600160a01b03821682036101295756fe608060408181526004918236101561001657600080fd5b600092833560e01c91826306fd46b7146101ef57508163095dae08146101c857816320153f2f1461019d578163245cc4e71461015957816394b1677c146100e9578163cc3c0f06146100b8575063e78cea921461007257600080fd5b346100b457816003193601126100b457517f00000000000000000000000000000000000000000000000000000000000000006001600160a01b03168152602090f35b5080fd5b9050346100e55760203660031901126100e5578160209360ff923581526001855220541690519015158152f35b8280fd5b8383346100b457602092836003193601126100e55791823592815b60088310610116575b50505051908152f35b90919380825281865283822054908115610152575093600019811461013f576001019190610104565b506011602492634e487b7160e01b835252fd5b945061010d565b5050346100b457816003193601126100b457517f00000000000000000000000000000000000000000000000000000000000000006001600160a01b03168152602090f35b9050346100e557816003193601126100e5579160209235815280835281602435912054149051908152f35b9050346100e55760203660031901126100e557602092829135815280845220549051908152f35b90929150346103b15760603660031901126103b15760248035938035936001600160a01b03939092907f00000000000000000000000000000000000000000000000000000000000000008516330361044857508587526020936001855260ff8489205416610433578588526001855260ff848920541661041e579087918783526001865284832060ff199060018282541617905587845260018685209182541617905587835282865286858420557f000000000000000000000000000000000000000000000000000000000000000016928451936218cc9360e41b8552878286015286858481845afa9485156104145784956103b5575b50803b156103b157839060448751809681936373e0766960e01b83528c878401528d888401525af180156103a757610356575b50505091817fdd27986caa81692e0d3042e0df81f692806a961f98765416ef7b1207c484b68093606093519260443584528301524390820152a380f35b67ffffffffffffffff8399949911610396575050825294817fdd27986caa81692e0d3042e0df81f692806a961f98765416ef7b1207c484b6806060610319565b634e487b7160e01b84526041905282fd5b85513d8b823e3d90fd5b8380fd5b919293509350853d871161040d575b601f8101601f1916820167ffffffffffffffff8111838210176103fb57828b9594939289928952810103126103b1575193386102e6565b634e487b7160e01b8b5260418452848bfd5b503d6103c4565b86513d86823e3d90fd5b50915163f43d05cb60e01b8152908101849052fd5b509151633210992160e21b8152908101859052fd5b6338da3b1560e01b81529050fdfea26469706673582212205806a5b41ae44b99387cd5a6b877fe5ee9f4bfe679e1a03c1237b531ea08fa9d64736f6c63430008140033",
  "linkReferences": {},
  "deployedLinkReferences": {}
}