{
  "_format": "hh-sol-artifact-1",
  "contractName": "DeviceRegistry",
  "sourceName": "contracts/DeviceRegistry.sol",
  "abi": [
    {
      "inputs": [
        {
          "internalType": "uint256",
          "name": "_minimumDeposit",
          "type": "uint256"
        }
      ],
      "stateMutability": "nonpayable",
      "type": "constructor"
    },
    {
      "inputs": [
        {
          "internalType": "bytes32",
          "name": "deviceId",
          "type": "bytes32"
        },
        {
          "internalType": "uint256",
          "name": "availableAt",
          "type": "uint256"
        }
      ],
      "name": "CooldownNotElapsed",
      "type": "error"
    },
    {
      "inputs": [
        {
          "internalType": "bytes32",
          "name": "deviceId",
          "type": "bytes32"
        }
      ],
      "name": "DepositAlreadyWithdrawn",
      "type": "error"
    },
    {
      "inputs": [
        {
          "internalType": "bytes32",
          "name": "deviceId",
          "type": "bytes32"
        }
      ],
      "name": "DeviceAlreadyRegistered",
      "type": "error"
    },
    {
      "inputs": [
        {
          "internalType": "bytes32",
          "name": "deviceId",
          "type": "bytes32"
        }
      ],
      "name": "DeviceNotActive",
      "type": "error"
    },
    {
      "inputs": [
        {
          "internalType": "bytes32",
          "name": "deviceId",
          "type": "bytes32"
        }
      ],
      "name": "DeviceNotFound",
      "type": "error"
    },
    {
      "inputs": [
        {
          "internalType": "uint256",
          "name": "provided",
          "type": "uint256"
        },
        {
          "internalType": "uint256",
          "name": "required",
          "type": "uint256"
        }
      ],
      "name": "InsufficientDeposit",
      "type": "error"
    },
    {
      "inputs": [
        {
          "internalType": "uint256",
          "name": "provided",
          "type": "uint256"
        },
        {
          "internalType": "uint256",
          "name": "expected",
          "type": "uint256"
        }
      ],
      "name": "InvalidPubkeyLength",
      "type": "error"
    },
    {
      "inputs": [
        {
          "internalType": "uint8",
          "name": "provided",
          "type": "uint8"
        }
      ],
      "name": "InvalidPubkeyPrefix",
      "type": "error"
    },
    {
      "inputs": [
        {
          "internalType": "address",
          "name": "caller",
          "type": "address"
        }
      ],
      "name": "NotAuthorizedUpdater",
      "type": "error"
    },
    {
      "inputs": [
        {
          "internalType": "bytes32",
          "name": "deviceId",
          "type": "bytes32"
        },
        {
          "internalType": "address",
          "name": "caller",
          "type": "address"
        }
      ],
      "name": "NotDeviceOwner",
      "type": "error"
    },
    {
      "inputs": [
        {
          "internalType": "address",
          "name": "owner",
          "type": "address"
        }
      ],
      "name": "OwnableInvalidOwner",
      "type": "error"
    },
    {
      "inputs": [
        {
          "internalType": "address",
          "name": "account",
          "type": "address"
        }
      ],
      "name": "OwnableUnauthorizedAccount",
      "type": "error"
    },
    {
      "inputs": [],
      "name": "ReentrancyGuardReentrantCall",
      "type": "error"
    },
    {
      "anonymous": false,
      "inputs": [
        {
          "indexed": true,
          "internalType": "bytes32",
          "name": "deviceId",
          "type": "bytes32"
        },
        {
          "indexed": true,
          "internalType": "address",
          "name": "owner",
          "type": "address"
        },
        {
          "indexed": false,
          "internalType": "uint256",
          "name": "amount",
          "type": "uint256"
        }
      ],
      "name": "DepositWithdrawn",
      "type": "event"
    },
    {
      "anonymous": false,
      "inputs": [
        {
          "indexed": true,
          "internalType": "bytes32",
          "name": "deviceId",
          "type": "bytes32"
        },
        {
          "indexed": true,
          "internalType": "address",
          "name": "owner",
          "type": "address"
        },
        {
          "indexed": false,
          "internalType": "uint64",
          "name": "deactivatedAt",
          "type": "uint64"
        }
      ],
      "name": "DeviceDeactivated",
      "type": "event"
    },
    {
      "anonymous": false,
      "inputs": [
        {
          "indexed": true,
          "internalType": "bytes32",
          "name": "deviceId",
          "type": "bytes32"
        },
        {
          "indexed": true,
          "internalType": "address",
          "name": "owner",
          "type": "address"
        },
        {
          "indexed": false,
          "internalType": "uint256",
          "name": "deposit",
          "type": "uint256"
        },
        {
          "indexed": false,
          "internalType": "uint64",
          "name": "registeredAt",
          "type": "uint64"
        }
      ],
      "name": "DeviceRegistered",
      "type": "event"
    },
    {
      "anonymous": false,
      "inputs": [
        {
          "indexed": true,
          "internalType": "address",
          "name": "previousOwner",
          "type": "address"
        },
        {
          "indexed": true,
          "internalType": "address",
          "name": "newOwner",
          "type": "address"
        }
      ],
      "name": "OwnershipTransferred",
      "type": "event"
    },
    {
      "anonymous": false,
      "inputs": [
        {
          "indexed": true,
          "internalType": "bytes32",
          "name": "deviceId",
          "type": "bytes32"
        },
        {
          "indexed": false,
          "internalType": "uint16",
          "name": "oldScore",
          "type": "uint16"
        },
        {
          "indexed": false,
          "internalType": "uint16",
          "name": "newScore",
          "type": "uint16"
        },
        {
          "indexed": false,
          "internalType": "uint32",
          "name": "verifiedPoACCount",
          "type": "uint32"
        },
        {
          "indexed": false,
          "internalType": "uint32",
          "name": "corroborationCount",
          "type": "uint32"
        },
        {
          "indexed": false,
          "internalType": "uint32",
          "name": "disputeCount",
          "type": "uint32"
        }
      ],
      "name": "ReputationUpdated",
      "type": "event"
    },
    {
      "inputs": [],
      "name": "DEACTIVATION_COOLDOWN",
      "outputs": [
        {
          "internalType": "uint256",
          "name": "",
          "type": "uint256"
        }
      ],
      "stateMutability": "view",
      "type": "function"
    },
    {
      "inputs": [],
      "name": "MAX_REPUTATION",
      "outputs": [
        {
          "internalType": "uint16",
          "name": "",
          "type": "uint16"
        }
      ],
      "stateMutability": "view",
      "type": "function"
    },
    {
      "inputs": [],
      "name": "PUBKEY_LENGTH",
      "outputs": [
        {
          "internalType": "uint256",
          "name": "",
          "type": "uint256"
        }
      ],
      "stateMutability": "view",
      "type": "function"
    },
    {
      "inputs": [
        {
          "internalType": "bytes32",
          "name": "_deviceId",
          "type": "bytes32"
        }
      ],
      "name": "canClaimBounty",
      "outputs": [
        {
          "internalType": "bool",
          "name": "",
          "type": "bool"
        }
      ],
      "stateMutability": "view",
      "type": "function"
    },
    {
      "inputs": [
        {
          "internalType": "bytes",
          "name": "_pubkey",
          "type": "bytes"
        }
      ],
      "name": "computeDeviceId",
      "outputs": [
        {
          "internalType": "bytes32",
          "name": "",
          "type": "bytes32"
        }
      ],
      "stateMutability": "pure",
      "type": "function"
    },
    {
      "inputs": [
        {
          "internalType": "bytes32",
          "name": "_deviceId",
          "type": "bytes32"
        }
      ],
      "name": "deactivateDevice",
      "outputs": [],
      "stateMutability": "nonpayable",
      "type": "function"
    },
    {
      "inputs": [],
      "name": "deviceCount",
      "outputs": [
        {
          "internalType": "uint256",
          "name": "",
          "type": "uint256"
        }
      ],
      "stateMutability": "view",
      "type": "function"
    },
    {
      "inputs": [
        {
          "internalType": "bytes32",
          "name": "_deviceId",
          "type": "bytes32"
        }
      ],
      "name": "getDeviceInfo",
      "outputs": [
        {
          "components": [
            {
              "internalType": "address",
              "name": "owner",
              "type": "address"
            },
            {
              "internalType": "uint64",
              "name": "registeredAt",
              "type": "uint64"
            },
            {
              "internalType": "uint64",
              "name": "deactivatedAt",
              "type": "uint64"
            },
            {
              "internalType": "uint256",
              "name": "deposit",
              "type": "uint256"
            },
            {
              "internalType": "bool",
              "name": "active",
              "type": "bool"
            },
            {
              "internalType": "bytes",
              "name": "pubkey",
              "type": "bytes"
            },
            {
              "internalType": "uint32",
              "name": "verifiedPoACCount",
              "type": "uint32"
            },
            {
              "internalType": "uint32",
              "name": "corroborationCount",
              "type": "uint32"
            },
            {
              "internalType": "uint32",
              "name": "disputeCount",
              "type": "uint32"
            },
            {
              "internalType": "uint16",
              "name": "reputationScore",
              "type": "uint16"
            }
          ],
          "internalType": "struct DeviceRegistry.DeviceInfo",
          "name": "info",
          "type": "tuple"
        }
      ],
      "stateMutability": "view",
      "type": "function"
    },
    {
      "inputs": [
        {
          "internalType": "bytes32",
          "name": "_deviceId",
          "type": "bytes32"
        }
      ],
      "name": "getDevicePubkey",
      "outputs": [
        {
          "internalType": "bytes",
          "name": "",
          "type": "bytes"
        }
      ],
      "stateMutability": "view",
      "type": "function"
    },
    {
      "inputs": [
        {
          "internalType": "bytes32",
          "name": "_deviceId",
          "type": "bytes32"
        }
      ],
      "name": "getReputationScore",
      "outputs": [
        {
          "internalType": "uint16",
          "name": "score",
          "type": "uint16"
        }
      ],
      "stateMutability": "view",
      "type": "function"
    },
    {
      "inputs": [
        {
          "internalType": "bytes32",
          "name": "_deviceId",
          "type": "bytes32"
        }
      ],
      "name": "isDeviceActive",
      "outputs": [
        {
          "internalType": "bool",
          "name": "",
          "type": "bool"
        }
      ],
      "stateMutability": "view",
      "type": "function"
    },
    {
      "inputs": [],
      "name": "minimumDeposit",
      "outputs": [
        {
          "internalType": "uint256",
          "name": "",
          "type": "uint256"
        }
      ],
      "stateMutability": "view",
      "type": "function"
    },
    {
      "inputs": [],
      "name": "owner",
      "outputs": [
        {
          "internalType": "address",
          "name": "",
          "type": "address"
        }
      ],
      "stateMutability": "view",
      "type": "function"
    },
    {
      "inputs": [
        {
          "internalType": "bytes",
          "name": "_pubkey",
          "type": "bytes"
        }
      ],
      "name": "registerDevice",
      "outputs": [
        {
          "internalType": "bytes32",
          "name": "deviceId",
          "type": "bytes32"
        }
      ],
      "stateMutability": "payable",
      "type": "function"
    },
    {
      "inputs": [],
      "name": "renounceOwnership",
      "outputs": [],
      "stateMutability": "nonpayable",
      "type": "function"
    },
    {
      "inputs": [
        {
          "internalType": "address",
          "name": "",
          "type": "address"
        }
      ],
      "name": "reputationUpdaters",
      "outputs": [
        {
          "internalType": "bool",
          "name": "",
          "type": "bool"
        }
      ],
      "stateMutability": "view",
      "type": "function"
    },
    {
      "inputs": [
        {
          "internalType": "uint256",
          "name": "_newMinimum",
          "type": "uint256"
        }
      ],
      "name": "setMinimumDeposit",
      "outputs": [],
      "stateMutability": "nonpayable",
      "type": "function"
    },
    {
      "inputs": [
        {
          "internalType": "address",
          "name": "_updater",
          "type": "address"
        },
        {
          "internalType": "bool",
          "name": "_authorized",
          "type": "bool"
        }
      ],
      "name": "setReputationUpdater",
      "outputs": [],
      "stateMutability": "nonpayable",
      "type": "function"
    },
    {
      "inputs": [
        {
          "internalType": "address",
          "name": "newOwner",
          "type": "address"
        }
      ],
      "name": "transferOwnership",
      "outputs": [],
      "stateMutability": "nonpayable",
      "type": "function"
    },
    {
      "inputs": [
        {
          "internalType": "bytes32",
          "name": "_deviceId",
          "type": "bytes32"
        },
        {
          "internalType": "uint32",
          "name": "_addVerified",
          "type": "uint32"
        },
        {
          "internalType": "uint32",
          "name": "_addCorroborations",
          "type": "uint32"
        },
        {
          "internalType": "uint32",
          "name": "_addDisputes",
          "type": "uint32"
        }
      ],
      "name": "updateReputation",
      "outputs": [],
      "stateMutability": "nonpayable",
      "type": "function"
    },
    {
      "inputs": [
        {
          "internalType": "bytes32",
          "name": "_deviceId",
          "type": "bytes32"
        }
      ],
      "name": "withdrawDeposit",
      "outputs": [],
      "stateMutability": "nonpayable",
      "type": "function"
    }
  ],
  "bytecode": "0x6080346100ba57601f61123c38819003918201601f19168301916001600160401b038311848410176100bf578084926020946040528339810103126100ba575133156100a15760008054336001600160a01b0319821681178355604051939290916001600160a01b0316907f8be0079c531659141344cd1fd0a4f28419497f9722a3daafe3b4186f6b6457e09080a36001805560025561116690816100d68239f35b604051631e4fbdf760e01b815260006004820152602490fd5b600080fd5b634e487b7160e01b600052604160045260246000fdfe608080604052600436101561001357600080fd5b600090813560e01c90816307567c7514610baf575080630766e84514610aee5780631f9b019b146105ce5780633050a73d14610aaf5780634a5f16e9146107d5578063535bca9a146107b757806359d902ed146105d35780635ec8fe6b146105ce578063636bfbab146105b0578063715018a614610556578063739ad43c1461050b578063804ad249146104975780638da5cb5b146104705780639f14f88414610447578063a4d55d1d1461042b578063a8e06bc314610245578063ac72ab29146101ee578063d213c0f2146101d1578063e78ec42e146101ae578063ec5760d3146101905763f2fde38b1461010857600080fd5b3461018d57602036600319011261018d57610121610dcb565b610129610e6a565b6001600160a01b039081169081156101745782546001600160a01b0319811683178455167f8be0079c531659141344cd1fd0a4f28419497f9722a3daafe3b4186f6b6457e08380a380f35b604051631e4fbdf760e01b815260048101849052602490fd5b80fd5b503461018d578060031936011261018d57602060405162093a808152f35b503461018d57602036600319011261018d576101c8610e6a565b60043560025580f35b503461018d578060031936011261018d5760206040516127108152f35b503461018d57604036600319011261018d57610208610dcb565b602435908115158092036102415761021e610e6a565b60018060a01b031682526004602052604082209060ff8019835416911617905580f35b8280fd5b503461018d57602036600319011261018d57600435610262610e96565b8082526003602052604082209081546001600160401b0392838260a01c1615610412576001600160a01b039182163381036103f35760ff6003830154166103da576002820180549586156103c15760018401541662093a8081018091116103ad5780421061038f57508680878194828095555af13d1561038a573d6102e681610f0c565b906102f46040519283610eeb565b81528660203d92013e5b15610339577f0c4c5d4c3bcc4e68b960f90448e78b3a2eb8ddbd45fdb5fadb203a1c3c56878b91602091541693604051908152a36001805580f35b60405162461bcd60e51b815260206004820152602360248201527f44657669636552656769737472793a20455448207472616e73666572206661696044820152621b195960ea1b6064820152608490fd5b6102fe565b8560449160405191636e0e8a7b60e11b835260048301526024820152fd5b634e487b7160e01b88526011600452602488fd5b60405163a9d21a9d60e01b815260048101879052602490fd5b60405163159c717560e11b815260048101859052602490fd5b604051635a4d198760e01b815260048101859052336024820152604490fd5b60405163e5aab9e560e01b815260048101849052602490fd5b503461018d578060031936011261018d57602060405160418152f35b503461018d57602061046261045b36610de1565b3691610f27565b818151910120604051908152f35b503461018d578060031936011261018d57546040516001600160a01b039091168152602090f35b503461018d57602036600319011261018d57604060043591828152600360205220906001600160401b03825460a01c16156104f3576104ef6104db6004840161108a565b604051918291602083526020830190610e2a565b0390f35b6024906040519063e5aab9e560e01b82526004820152fd5b503461018d57602036600319011261018d57604060043591828152600360205220906001600160401b03825460a01c16156104f357602061ffff600584015460601c16604051908152f35b503461018d578060031936011261018d5761056f610e6a565b80546001600160a01b03198116825581906001600160a01b03167f8be0079c531659141344cd1fd0a4f28419497f9722a3daafe3b4186f6b6457e08280a380f35b503461018d578060031936011261018d576020600254604051908152f35b610d92565b503461018d57602036600319011261018d578060409161012083516105f781610eb9565b8281528260208201528285820152826060820152826080820152606060a08201528260c08201528260e0820152826101008201520152600435815260036020522061ffff60056040519261064a84610eb9565b80546001600160a01b038116855260a01c6001600160401b039081166020860152600182015416604085015260028101546060850152600381015460ff161515608085015261069b6004820161108a565b60a0850152015463ffffffff811660c084015263ffffffff8160201c1660e084015263ffffffff8160401c1661010084015260601c166101208201526001600160401b036020820151161561079e5760405180916020825260018060a01b0381511660208301526001600160401b0360208201511660408301526001600160401b036040820151166060830152606081015160808301526080810151151560a083015260a081015161ffff610120610761610140938460c0880152610160870190610e2a565b9363ffffffff60c08201511660e087015263ffffffff60e08201511661010087015263ffffffff6101008201511682870152015116908301520390f35b602460405163e5aab9e560e01b81526004356004820152fd5b503461018d578060031936011261018d576020600554604051908152f35b506107df36610de1565b6107e7610e96565b60025460418203610a8f578115610a7b57823560f81c60048103610a635750610811368385610f27565b93845160208096012093848252600386526001600160401b039283604084205460a01c16610a4a57803410610a2c575084825260038087526040832080546001600160e01b0319163367ffffffffffffffff60a01b1916174260a01b67ffffffffffffffff60a01b16178155346002820155908101805460ff19166001908117909155949091600483019190858211610a18576108ae8354610f5e565b601f81116109d2575b508490601f831160011461096b57600594939291869183610960575b5050600019600383901b1c191690871b1790555b01805461ffff60601b191661027160631b17905560055490600019821461094c5750820160055560405190348252421684820152827fd12213ea6e64a238716c781b0705a90db6b6253451f8266f8fecc0bdff9e327860403393a38055604051908152f35b634e487b7160e01b81526011600452602490fd5b0135905038806108d3565b8386528986209194939288929091601f198316885b8d8282106109bc5750509683600598106109a2575b505050811b0190556108e7565b0135600019600384901b60f8161c19169055388080610995565b838a01358555988901988c969094019301610980565b838652898620601f840160051c8101918b8510610a0e575b601f0160051c019088905b828110610a035750506108b7565b8781550188906109f5565b90915081906109ea565b634e487b7160e01b85526041600452602485fd5b604490604051906312e1fa3760e11b82523460048301526024820152fd5b60405163054c5de760e51b815260048101879052602490fd5b60249060405190637b60931160e11b82526004820152fd5b634e487b7160e01b84526032600452602484fd5b604051630b40a61b60e21b81526004810183905260416024820152604490fd5b503461018d57602036600319011261018d5760209060ff906040906001600160a01b03610ada610dcb565b168152600484522054166040519015158152f35b503461018d57602036600319011261018d576004358082526003602052604082209081546001600160401b0390818160a01c161561041257600384019081549060ff821615610b9657336001600160a01b03909116036103f357906001929160ff1916905542169201826001600160401b03198254161790556040519182527f19a0c1f77bd7e2409f74ab3d9f512e7655a3b9b413b21828e6864684a1ce5f1f60203393a380f35b60405163159c717560e11b815260048101869052602490fd5b905034610d8e576080366003190112610d8e576004359063ffffffff906024358281168103610d8a57604435918383168303610d86576064358481168103610d82573387526020916004835260ff6040892054161580610d6e575b610d59575085875260038252604087206001600160401b03815460a01c1615610d4057948093819360a096936bffffffff0000000000000000610cb967ffffffff00000000610c9b87610c8660057fc0af51c21917d3ec881a16c91e89b23e795ada618d453130b1986c332a6083ab9f019889549d8e16610f98565b169863ffffffff198c168a17871c8916610f98565b851b169267ffffffffffffffff198a168817841760401c8716610f98565b60401b1680866bffffffffffffffffffffffff198a1617831717610cee61ffff60601b9187808260401c1691871c1689610fc6565b60601b1691866dffffffffffffffffffffffffffff198a161717171793848093556040519661ffff809160601c1688528360601c168288015260408701521c16606084015260401c166080820152a280f35b60405163e5aab9e560e01b815260048101889052602490fd5b6318856b8760e11b8152336004820152602490fd5b5087546001600160a01b0316331415610c0a565b8680fd5b8580fd5b8480fd5b5080fd5b34610dc6576020366003190112610dc6576004356000526003602052602060ff600360406000200154166040519015158152f35b600080fd5b600435906001600160a01b0382168203610dc657565b906020600319830112610dc6576004356001600160401b0392838211610dc65780602383011215610dc6578160040135938411610dc65760248483010111610dc6576024019190565b919082519283825260005b848110610e56575050826000602080949584010152601f8019910116010190565b602081830181015184830182015201610e35565b6000546001600160a01b03163303610e7e57565b60405163118cdaa760e01b8152336004820152602490fd5b600260015414610ea7576002600155565b604051633ee5aeb560e01b8152600490fd5b61014081019081106001600160401b03821117610ed557604052565b634e487b7160e01b600052604160045260246000fd5b90601f801991011681019081106001600160401b03821117610ed557604052565b6001600160401b038111610ed557601f01601f191660200190565b929192610f3382610f0c565b91610f416040519384610eeb565b829481845281830111610dc6578281602093846000960137010152565b90600182811c92168015610f8e575b6020831014610f7857565b634e487b7160e01b600052602260045260246000fd5b91607f1691610f6d565b91909163ffffffff80809416911601918211610fb057565b634e487b7160e01b600052601160045260246000fd5b61271092919063ffffffff90811684811115611084575083925b6401fffffffe8284169360011b169280840460021490151715610fb0571690600a820291808304600a1490151715610fb0578201809211610fb0578181101561107c5780820391808311610fb057828402911482820484141715610fb0576103e88201809211610fb057811561106657048181111561105d575090565b61ffff91501690565b634e487b7160e01b600052601260045260246000fd5b505050600090565b92610fe0565b906040519182600082549261109e84610f5e565b90818452600194858116908160001461110d57506001146110ca575b50506110c892500383610eeb565b565b9093915060005260209081600020936000915b8183106110f55750506110c8935082010138806110ba565b855488840185015294850194879450918301916110dd565b9150506110c894506020925060ff191682840152151560051b82010138806110ba56fea26469706673582212200e0064eea6e5fc2985845b24dc419fe28ea3bd5ae584c98923667dfd4c6cab6d64736f6c63430008140033",
  "linkReferences": {},
  "deployedLinkReferences": {}
}