{
  "_format": "hh-sol-artifact-1",
  "contractName": "TeamProofAggregatorZKTestable",
  "sourceName": "contracts/TeamProofAggregatorZKTestable.sol",
  "abi": [
    {
      "inputs": [
        {
          "internalType": "address",
          "name": "_poACVerifier",
          "type": "address"
        }
      ],
      "stateMutability": "nonpayable",
      "type": "constructor"
    },
    {
      "inputs": [
        {
          "internalType": "bytes32",
          "name": "recordHash",
          "type": "bytes32"
        },
        {
          "internalType": "uint8",
          "name": "inferenceResult",
          "type": "uint8"
        }
      ],
      "name": "CheatFlagDetected",
      "type": "error"
    },
    {
      "inputs": [
        {
          "internalType": "bytes32",
          "name": "computed",
          "type": "bytes32"
        },
        {
          "internalType": "bytes32",
          "name": "submitted",
          "type": "bytes32"
        }
      ],
      "name": "InvalidMerkleRoot",
      "type": "error"
    },
    {
      "inputs": [
        {
          "internalType": "uint256",
          "name": "size",
          "type": "uint256"
        }
      ],
      "name": "InvalidTeamSize",
      "type": "error"
    },
    {
      "inputs": [],
      "name": "InvalidZKProof",
      "type": "error"
    },
    {
      "inputs": [
        {
          "internalType": "uint256",
          "name": "expected",
          "type": "uint256"
        },
        {
          "internalType": "uint256",
          "name": "provided",
          "type": "uint256"
        }
      ],
      "name": "MemberCountMismatch",
      "type": "error"
    },
    {
      "inputs": [
        {
          "internalType": "bytes32",
          "name": "nullifier",
          "type": "bytes32"
        }
      ],
      "name": "NullifierAlreadyUsed",
      "type": "error"
    },
    {
      "inputs": [
        {
          "internalType": "address",
          "name": "owner",
          "type": "address"
        }
      ],
      "name": "OwnableInvalidOwner",
      "type": "error"
    },
    {
      "inputs": [
        {
          "internalType": "address",
          "name": "account",
          "type": "address"
        }
      ],
      "name": "OwnableUnauthorizedAccount",
      "type": "error"
    },
    {
      "inputs": [
        {
          "internalType": "bytes32",
          "name": "recordHash",
          "type": "bytes32"
        }
      ],
      "name": "RecordNotVerified",
      "type": "error"
    },
    {
      "inputs": [
        {
          "internalType": "bytes32",
          "name": "teamId",
          "type": "bytes32"
        }
      ],
      "name": "TeamAlreadyExists",
      "type": "error"
    },
    {
      "inputs": [
        {
          "internalType": "bytes32",
          "name": "teamId",
          "type": "bytes32"
        }
      ],
      "name": "TeamNotActive",
      "type": "error"
    },
    {
      "inputs": [
        {
          "internalType": "bytes32",
          "name": "teamId",
          "type": "bytes32"
        }
      ],
      "name": "TeamNotFound",
      "type": "error"
    },
    {
      "anonymous": false,
      "inputs": [
        {
          "indexed": true,
          "internalType": "address",
          "name": "previousOwner",
          "type": "address"
        },
        {
          "indexed": true,
          "internalType": "address",
          "name": "newOwner",
          "type": "address"
        }
      ],
      "name": "OwnershipTransferred",
      "type": "event"
    },
    {
      "anonymous": false,
      "inputs": [
        {
          "indexed": true,
          "internalType": "bytes32",
          "name": "teamId",
          "type": "bytes32"
        },
        {
          "indexed": true,
          "internalType": "address",
          "name": "captain",
          "type": "address"
        },
        {
          "indexed": false,
          "internalType": "uint8",
          "name": "memberCount",
          "type": "uint8"
        }
      ],
      "name": "TeamCreated",
      "type": "event"
    },
    {
      "anonymous": false,
      "inputs": [
        {
          "indexed": true,
          "internalType": "bytes32",
          "name": "teamId",
          "type": "bytes32"
        },
        {
          "indexed": true,
          "internalType": "uint256",
          "name": "proofId",
          "type": "uint256"
        },
        {
          "indexed": false,
          "internalType": "bytes32",
          "name": "merkleRoot",
          "type": "bytes32"
        },
        {
          "indexed": false,
          "internalType": "uint8",
          "name": "memberCount",
          "type": "uint8"
        },
        {
          "indexed": false,
          "internalType": "bool",
          "name": "allClean",
          "type": "bool"
        }
      ],
      "name": "TeamProofSubmitted",
      "type": "event"
    },
    {
      "anonymous": false,
      "inputs": [
        {
          "indexed": true,
          "internalType": "address",
          "name": "verifier",
          "type": "address"
        }
      ],
      "name": "TeamProofVerifierSet",
      "type": "event"
    },
    {
      "anonymous": false,
      "inputs": [
        {
          "indexed": true,
          "internalType": "bytes32",
          "name": "teamId",
          "type": "bytes32"
        },
        {
          "indexed": true,
          "internalType": "bytes32",
          "name": "merkleRoot",
          "type": "bytes32"
        },
        {
          "indexed": false,
          "internalType": "bytes32",
          "name": "nullifierHash",
          "type": "bytes32"
        },
        {
          "indexed": false,
          "internalType": "uint256",
          "name": "memberCount",
          "type": "uint256"
        }
      ],
      "name": "ZKTeamProofSubmitted",
      "type": "event"
    },
    {
      "inputs": [],
      "name": "CHEAT_INFERENCE_MAX",
      "outputs": [
        {
          "internalType": "uint8",
          "name": "",
          "type": "uint8"
        }
      ],
      "stateMutability": "view",
      "type": "function"
    },
    {
      "inputs": [],
      "name": "CHEAT_INFERENCE_MIN",
      "outputs": [
        {
          "internalType": "uint8",
          "name": "",
          "type": "uint8"
        }
      ],
      "stateMutability": "view",
      "type": "function"
    },
    {
      "inputs": [],
      "name": "MAX_TEAM_SIZE",
      "outputs": [
        {
          "internalType": "uint8",
          "name": "",
          "type": "uint8"
        }
      ],
      "stateMutability": "view",
      "type": "function"
    },
    {
      "inputs": [],
      "name": "MIN_TEAM_SIZE",
      "outputs": [
        {
          "internalType": "uint8",
          "name": "",
          "type": "uint8"
        }
      ],
      "stateMutability": "view",
      "type": "function"
    },
    {
      "inputs": [],
      "name": "MOCK_PROOF_SIZE",
      "outputs": [
        {
          "internalType": "uint256",
          "name": "",
          "type": "uint256"
        }
      ],
      "stateMutability": "view",
      "type": "function"
    },
    {
      "inputs": [],
      "name": "ZK_VERSION",
      "outputs": [
        {
          "internalType": "bytes32",
          "name": "",
          "type": "bytes32"
        }
      ],
      "stateMutability": "view",
      "type": "function"
    },
    {
      "inputs": [
        {
          "internalType": "bytes32[]",
          "name": "_leaves",
          "type": "bytes32[]"
        }
      ],
      "name": "computeMerkleRoot",
      "outputs": [
        {
          "internalType": "bytes32",
          "name": "",
          "type": "bytes32"
        }
      ],
      "stateMutability": "pure",
      "type": "function"
    },
    {
      "inputs": [
        {
          "internalType": "bytes32",
          "name": "_teamId",
          "type": "bytes32"
        },
        {
          "internalType": "bytes32[]",
          "name": "_deviceIds",
          "type": "bytes32[]"
        }
      ],
      "name": "createTeam",
      "outputs": [],
      "stateMutability": "nonpayable",
      "type": "function"
    },
    {
      "inputs": [
        {
          "internalType": "bytes32",
          "name": "_teamId",
          "type": "bytes32"
        }
      ],
      "name": "getTeam",
      "outputs": [
        {
          "internalType": "bytes32[]",
          "name": "memberDeviceIds",
          "type": "bytes32[]"
        },
        {
          "internalType": "address",
          "name": "captain",
          "type": "address"
        },
        {
          "internalType": "uint64",
          "name": "createdAt",
          "type": "uint64"
        },
        {
          "internalType": "bool",
          "name": "active",
          "type": "bool"
        }
      ],
      "stateMutability": "view",
      "type": "function"
    },
    {
      "inputs": [
        {
          "internalType": "uint256",
          "name": "_proofId",
          "type": "uint256"
        }
      ],
      "name": "getTeamProof",
      "outputs": [
        {
          "components": [
            {
              "internalType": "bytes32",
              "name": "teamId",
              "type": "bytes32"
            },
            {
              "internalType": "bytes32",
              "name": "merkleRoot",
              "type": "bytes32"
            },
            {
              "internalType": "bytes32[]",
              "name": "recordHashes",
              "type": "bytes32[]"
            },
            {
              "internalType": "uint8",
              "name": "memberCount",
              "type": "uint8"
            },
            {
              "internalType": "bool",
              "name": "allClean",
              "type": "bool"
            },
            {
              "internalType": "uint64",
              "name": "submittedAt",
              "type": "uint64"
            },
            {
              "internalType": "address",
              "name": "submitter",
              "type": "address"
            }
          ],
          "internalType": "struct TeamProofAggregator.TeamProof",
          "name": "",
          "type": "tuple"
        }
      ],
      "stateMutability": "view",
      "type": "function"
    },
    {
      "inputs": [
        {
          "internalType": "bytes32",
          "name": "_teamId",
          "type": "bytes32"
        }
      ],
      "name": "getTeamProofCount",
      "outputs": [
        {
          "internalType": "uint256",
          "name": "",
          "type": "uint256"
        }
      ],
      "stateMutability": "view",
      "type": "function"
    },
    {
      "inputs": [
        {
          "internalType": "bytes32",
          "name": "_teamId",
          "type": "bytes32"
        }
      ],
      "name": "getTeamProofIds",
      "outputs": [
        {
          "internalType": "uint256[]",
          "name": "",
          "type": "uint256[]"
        }
      ],
      "stateMutability": "view",
      "type": "function"
    },
    {
      "inputs": [],
      "name": "mockZKResult",
      "outputs": [
        {
          "internalType": "bool",
          "name": "",
          "type": "bool"
        }
      ],
      "stateMutability": "view",
      "type": "function"
    },
    {
      "inputs": [],
      "name": "owner",
      "outputs": [
        {
          "internalType": "address",
          "name": "",
          "type": "address"
        }
      ],
      "stateMutability": "view",
      "type": "function"
    },
    {
      "inputs": [],
      "name": "poACVerifier",
      "outputs": [
        {
          "internalType": "contract PoACVerifier",
          "name": "",
          "type": "address"
        }
      ],
      "stateMutability": "view",
      "type": "function"
    },
    {
      "inputs": [],
      "name": "proofCount",
      "outputs": [
        {
          "internalType": "uint256",
          "name": "",
          "type": "uint256"
        }
      ],
      "stateMutability": "view",
      "type": "function"
    },
    {
      "inputs": [],
      "name": "renounceOwnership",
      "outputs": [],
      "stateMutability": "nonpayable",
      "type": "function"
    },
    {
      "inputs": [
        {
          "internalType": "bool",
          "name": "result",
          "type": "bool"
        }
      ],
      "name": "setMockZKResult",
      "outputs": [],
      "stateMutability": "nonpayable",
      "type": "function"
    },
    {
      "inputs": [
        {
          "internalType": "address",
          "name": "_verifier",
          "type": "address"
        }
      ],
      "name": "setTeamProofVerifier",
      "outputs": [],
      "stateMutability": "nonpayable",
      "type": "function"
    },
    {
      "inputs": [
        {
          "internalType": "bytes32",
          "name": "_teamId",
          "type": "bytes32"
        },
        {
          "internalType": "bytes32[]",
          "name": "_recordHashes",
          "type": "bytes32[]"
        },
        {
          "internalType": "bytes32",
          "name": "_merkleRoot",
          "type": "bytes32"
        }
      ],
      "name": "submitTeamProof",
      "outputs": [
        {
          "internalType": "uint256",
          "name": "proofId",
          "type": "uint256"
        }
      ],
      "stateMutability": "nonpayable",
      "type": "function"
    },
    {
      "inputs": [
        {
          "internalType": "bytes32",
          "name": "_teamId",
          "type": "bytes32"
        },
        {
          "internalType": "bytes32[]",
          "name": "_recordHashes",
          "type": "bytes32[]"
        },
        {
          "internalType": "bytes32",
          "name": "_merkleRoot",
          "type": "bytes32"
        },
        {
          "internalType": "bytes32",
          "name": "_nullifierHash",
          "type": "bytes32"
        },
        {
          "internalType": "bytes",
          "name": "_zkProof",
          "type": "bytes"
        },
        {
          "internalType": "uint256",
          "name": "_poseidonMerkleRoot",
          "type": "uint256"
        },
        {
          "internalType": "uint256",
          "name": "_epoch",
          "type": "uint256"
        }
      ],
      "name": "submitTeamProofZK",
      "outputs": [
        {
          "internalType": "uint256",
          "name": "proofId",
          "type": "uint256"
        }
      ],
      "stateMutability": "nonpayable",
      "type": "function"
    },
    {
      "inputs": [
        {
          "internalType": "bytes32",
          "name": "_teamId",
          "type": "bytes32"
        },
        {
          "internalType": "bytes32[]",
          "name": "_recordHashes",
          "type": "bytes32[]"
        },
        {
          "internalType": "bytes32",
          "name": "_merkleRoot",
          "type": "bytes32"
        },
        {
          "internalType": "bytes32",
          "name": "_nullifierHash",
          "type": "bytes32"
        },
        {
          "internalType": "bytes",
          "name": "_zkProof",
          "type": "bytes"
        }
      ],
      "name": "submitTeamProofZK",
      "outputs": [
        {
          "internalType": "uint256",
          "name": "proofId",
          "type": "uint256"
        }
      ],
      "stateMutability": "nonpayable",
      "type": "function"
    },
    {
      "inputs": [
        {
          "internalType": "bytes32",
          "name": "",
          "type": "bytes32"
        }
      ],
      "name": "teamExists",
      "outputs": [
        {
          "internalType": "bool",
          "name": "",
          "type": "bool"
        }
      ],
      "stateMutability": "view",
      "type": "function"
    },
    {
      "inputs": [],
      "name": "teamProofVerifier",
      "outputs": [
        {
          "internalType": "address",
          "name": "",
          "type": "address"
        }
      ],
      "stateMutability": "view",
      "type": "function"
    },
    {
      "inputs": [
        {
          "internalType": "address",
          "name": "newOwner",
          "type": "address"
        }
      ],
      "name": "transferOwnership",
      "outputs": [],
      "stateMutability": "nonpayable",
      "type": "function"
    },
    {
      "inputs": [
        {
          "internalType": "bytes32",
          "name": "",
          "type": "bytes32"
        }
      ],
      "name": "usedNullifiers",
      "outputs": [
        {
          "internalType": "bool",
          "name": "",
          "type": "bool"
        }
      ],
      "stateMutability": "view",
      "type": "function"
    }
  ],
  "bytecode": "0x6080346100d957601f6112bc38819003918201601f19168301916001600160401b038311848410176100de578084926020946040528339810103126100d957516001600160a01b0390818116908190036100d95733156100c05760005460018060a01b0319903382821617600055604051933391167f8be0079c531659141344cd1fd0a4f28419497f9722a3daafe3b4186f6b6457e0600080a36001541617600155600160a01b60ff60a01b1960085416176008556111c790816100f58239f35b604051631e4fbdf760e01b815260006004820152602490fd5b600080fd5b634e487b7160e01b600052604160045260246000fdfe608060408181526004908136101561001657600080fd5b600092833560e01c908163023e41b91461099b5750806312a9016e1461097e578063206137aa146109515780632b8b906c1461091457806334a1d644146108ad5780633bd561751461076d57806344ea6c69146107405780634bb34a7d146106a357806350072dd71461065f578063604a090214610624578063638371ee14610586578063715018a61461052c5780638635ca06146104fa5780638ad6fcfb146104de5780638da5cb5b146104b6578063ac99e57614610478578063addecc061461045a578063b7119a5f14610433578063c0d3f3851461040b578063c37a636b146103ef578063c3a39536146102a6578063d4b9c1291461028a578063de62201a1461026e578063ef4a949e146101ff578063f1cf7905146101d25763f2fde38b1461014257600080fd5b346101ce5760203660031901126101ce576001600160a01b038235818116939192908490036101ca57610173610a22565b83156101b457505082546001600160a01b0319811683178455167f8be0079c531659141344cd1fd0a4f28419497f9722a3daafe3b4186f6b6457e08380a380f35b51631e4fbdf760e01b8152908101849052602490fd5b8480fd5b8280fd5b8382346101fb57816003193601126101fb5760015490516001600160a01b039091168152602090f35b5080fd5b5090346101ce5760a03660031901126101ce576001600160401b036024358181116101ca5761023190369084016109c0565b91909460843591821161026b5750916020949161025461026494369084016109f5565b50506064359260443592356110eb565b9051908152f35b80fd5b8382346101fb57816003193601126101fb5760209051602a8152f35b8382346101fb57816003193601126101fb576020905160068152f35b50346101ce57806003193601126101ce578135906024356001600160401b0381116101ca576102d890369085016109c0565b93838652600360205260ff83872054166103d8576002851080156103ce575b6103b7575082855260026020528185206001810180546001600160e81b0319163368ffffffffffffffffff60a01b1916174260a01b67ffffffffffffffff60a01b1617600160e01b179055855b8581106103945750505060ff9082855260036020528085206001831982541617905551921682527fd51f1ea8e0b03f99b94c0bdb936c2fc4683c160bf64b58e5fbc3ccbe4c20f9ca60203393a380f35b806103ad6103a66103b2938987610a73565b3584610ab1565b610a4e565b610344565b825163ef2e255d60e01b8152908101859052602490fd5b50600685116102f7565b825163f7bd25cb60e01b8152908101849052602490fd5b8382346101fb57816003193601126101fb576020905160288152f35b5090346101ce5760203660031901126101ce5760209282913581526006845220549051908152f35b8382346101fb57816003193601126101fb5760209060ff60085460a01c1690519015158152f35b5090346101ce57826003193601126101ce5760209250549051908152f35b5050346101fb5760203660031901126101fb57358015158091036101fb576008805460ff60a01b191660a09290921b60ff60a01b1691909117905580f35b8382346101fb57816003193601126101fb57905490516001600160a01b039091168152602090f35b8382346101fb57816003193601126101fb576020905160028152f35b5090346101ce5760e03660031901126101ce576001600160401b036024358181116101ca5761023190369084016109c0565b833461026b578060031936011261026b57610545610a22565b80546001600160a01b03198116825581906001600160a01b03167f8be0079c531659141344cd1fd0a4f28419497f9722a3daafe3b4186f6b6457e08280a380f35b50913461026b57602091826003193601126101fb5792919235815260068352818120908251808584549182815201908194845286842090845b81811061061057505050816105d5910382610b1f565b83519485948186019282875251809352850193925b8281106105f957505050500390f35b8351855286955093810193928101926001016105ea565b8254845292880192600192830192016105bf565b8382346101fb57816003193601126101fb57602090517f22c53f333828936b9047d0d278f0624190302e02696fa9aa397835bd5b74bbd18152f35b50823461026b57606036600319011261026b57602435906001600160401b03821161026b575060209261069861026492369083016109c0565b906044359235610b40565b509190346101fb57602090816003193601126101ce5791909135815260028252828120926001926106d7848601549561109a565b92825194608086016080875285518091528360a088019601925b81811061072d576001600160a01b0389168589015260a089901c6001600160401b03168689015260e089901c60ff161515606089015287870388f35b83518752958401959284019282016106f1565b5090346101ce5760203660031901126101ce578160209360ff923581526003855220541690519015158152f35b50913461026b57602091826003193601126101fb578160c0859493955161079381610b04565b82815282858201526060868201528260608201528260808201528260a08201520152358352600581528183208251926107cb84610b04565b81548452600191828101549484810195865260036107eb6002840161109a565b92848301938452015493606082019760ff86168952608083019160ff8760081c161515835260a08401936001600160401b0395868960101c16865260c082019760018060a01b03809a60501c16895280519b8b8d528c8c6101008201955191015251908c0152519860e060608c01528951809252806101208c019a01935b82811061089a57505050505060ff87985116608088015251151560a0870152511660c0850152511660e08301520390f35b84518b5299810199938101938301610869565b5050346101fb5760203660031901126101fb57356001600160a01b038116908190036101fb576108db610a22565b600880546001600160a01b031916821790557fba20270f1db7d5ba92574e021388b3ed01069a5c039d928a0f6343c565e4059e8280a280f35b50823461026b57602036600319011261026b578235906001600160401b03821161026b575061094b602093610264923691016109c0565b90610ea2565b5090346101ce5760203660031901126101ce578160209360ff923581526007855220541690519015158152f35b8382346101fb57816003193601126101fb57602090516101008152f35b8490346101fb57816003193601126101fb576008546001600160a01b03168152602090f35b9181601f840112156109f0578235916001600160401b0383116109f0576020808501948460051b0101116109f057565b600080fd5b9181601f840112156109f0578235916001600160401b0383116109f057602083818601950101116109f057565b6000546001600160a01b03163303610a3657565b60405163118cdaa760e01b8152336004820152602490fd5b6000198114610a5d5760010190565b634e487b7160e01b600052601160045260246000fd5b9190811015610a835760051b0190565b634e487b7160e01b600052603260045260246000fd5b8054821015610a835760005260206000200190600090565b805490600160401b821015610aee5781610ad3916001610aea94018155610a99565b819391549060031b91821b91600019901b19161790565b9055565b634e487b7160e01b600052604160045260246000fd5b60e081019081106001600160401b03821117610aee57604052565b90601f801991011681019081106001600160401b03821117610aee57604052565b90939260008281526020936003855260ff9460409286848220541615610e5f578581526002825283812087600182015460e01c1615610e475754808403610e2a57506001546001600160a01b0316815b848110610ce6575050610ba3838a610ea2565b858103610cc957506004549698610bb988610a4e565b600455878252600583528482208781556001810187905560038101805462010000600160f01b031961ffff19919091169c87169c8d1761010017164260101b69ffffffffffffffff000016173360501b600160501b600160f01b031617905597998a989094600290910190835b818110610cab575050505085815260068252838120805491600160401b831015610c9757509260019288610c87610ad3857f6faf02f204baeaaf295439e5483b112c706763054453bed74b5d8647e82ca55b9a988860609b98018155610a99565b90558251948552840152820152a3565b634e487b7160e01b81526041600452602490fd5b806103ad610cbd610cc4938588610a73565b3585610ab1565b610c26565b604490868651916327c4ed9760e21b835260048301526024820152fd5b610cf181868d610a73565b865163488dbfad60e01b8152903560048083018290529160249087818381895afa908115610dd6578791610df4575b5015610de057885163cd68a83160e01b815283810183905287818381895afa908115610dd657908d918891610d98575b501691602883101580610d8d575b610d745750505050610d6f90610a4e565b610b90565b895163379a771360e21b81529384015282015260449150fd5b50602a831115610d5e565b809250898092503d8311610dcf575b610db18183610b1f565b81010312610dcb57518c81168103610dcb578c9038610d50565b8680fd5b503d610da7565b8a513d89823e3d90fd5b9250875191632047f23560e21b8352820152fd5b90508781813d8311610e23575b610e0b8183610b1f565b81010312610dcb57518015158103610dcb5738610d20565b503d610e01565b60449084865191634c1eb76960e11b835260048301526024820152fd5b845163b79eacfb60e01b815260048101889052602490fd5b8351630760a05360e31b815260048101879052602490fd5b6001600160401b038111610aee5760051b60200190565b8051821015610a835760209160051b010190565b908060019182811461108e57610eb781610e77565b92604092610ec784519586610b1f565b828552610ed383610e77565b9560209384870197601f190136893760005b81811061106f5750505081805b610fc7575b505b818111610f0e57505050505115610a83575190565b818101808211610a5d57821c9060005b828110610f2c575050610ef9565b80841b9080820460021481151715610a5d5784820191828111610a5d5783831015610fad57610f5e610f66918a610e8e565b519289610e8e565b51918751928784019182528884015287835260608301928084106001600160401b03851117610aee57610fa8938952519020610fa2828a610e8e565b52610a4e565b610f1e565b610fa89250610fbc9089610e8e565b51610fa2828a610e8e565b855181101561106a578281610fdd829389610e8e565b5181935b610ffa575b610fa2610ff493948a610e8e565b90610ef2565b915091801585811580611049575b1561103e5750600019820191808311610a5d57611030611028848c610e8e565b51918b610e8e565b52610a5d5791849182610fe1565b929050929092610fe6565b50506000198201828111610a5d578361106388928c610e8e565b5111611008565b610ef7565b8061107e611089928486610a73565b35610fa2828b610e8e565b610ee5565b91505015610a83573590565b9060405191828154918282526020928383019160005283600020936000905b8282106110d1575050506110cf92500383610b1f565b565b8554845260019586019588955093810193909101906110b9565b91949380600052600760205260409160ff83600020541661117a5760ff60085460a01c1615611169579061115b85887f5fde3eefb6947171e166b973c9376f8f26046d6be28db64b8819df9fda8ea80d959484600052600760205285600020600160ff1982541617905587610b40565b9682519182526020820152a3565b82516303b2487b60e11b8152600490fd5b506024915190632920f74160e21b82526004820152fdfea26469706673582212203d62ec85e5e789f863b5046460bbba6dccac84b4a9fd84deec2d5ce896b49e4c64736f6c63430008140033",
  "linkReferences": {},
  "deployedLinkReferences": {}
}