{
  "_format": "hh-sol-artifact-1",
  "contractName": "PHGCredential",
  "sourceName": "contracts/PHGCredential.sol",
  "abi": [
    {
      "inputs": [
        {
          "internalType": "address",
          "name": "_bridge",
          "type": "address"
        }
      ],
      "stateMutability": "nonpayable",
      "type": "constructor"
    },
    {
      "inputs": [
        {
          "internalType": "bytes32",
          "name": "deviceId",
          "type": "bytes32"
        }
      ],
      "name": "AlreadyMinted",
      "type": "error"
    },
    {
      "inputs": [
        {
          "internalType": "bytes32",
          "name": "deviceId",
          "type": "bytes32"
        }
      ],
      "name": "AlreadySuspended",
      "type": "error"
    },
    {
      "inputs": [
        {
          "internalType": "bytes32",
          "name": "deviceId",
          "type": "bytes32"
        }
      ],
      "name": "CredentialNotMinted",
      "type": "error"
    },
    {
      "inputs": [
        {
          "internalType": "uint256",
          "name": "value",
          "type": "uint256"
        }
      ],
      "name": "InvalidScore",
      "type": "error"
    },
    {
      "inputs": [
        {
          "internalType": "bytes32",
          "name": "deviceId",
          "type": "bytes32"
        }
      ],
      "name": "NotSuspended",
      "type": "error"
    },
    {
      "inputs": [
        {
          "internalType": "bytes32",
          "name": "nullifierHash",
          "type": "bytes32"
        }
      ],
      "name": "NullifierUsed",
      "type": "error"
    },
    {
      "inputs": [],
      "name": "OnlyBridge",
      "type": "error"
    },
    {
      "anonymous": false,
      "inputs": [
        {
          "indexed": true,
          "internalType": "bytes32",
          "name": "deviceId",
          "type": "bytes32"
        },
        {
          "indexed": true,
          "internalType": "uint256",
          "name": "credentialId",
          "type": "uint256"
        },
        {
          "indexed": false,
          "internalType": "uint256",
          "name": "humanityProbInt",
          "type": "uint256"
        },
        {
          "indexed": false,
          "internalType": "uint256",
          "name": "blockNumber",
          "type": "uint256"
        }
      ],
      "name": "CredentialMinted",
      "type": "event"
    },
    {
      "anonymous": false,
      "inputs": [
        {
          "indexed": true,
          "internalType": "bytes32",
          "name": "deviceId",
          "type": "bytes32"
        }
      ],
      "name": "CredentialReinstated",
      "type": "event"
    },
    {
      "anonymous": false,
      "inputs": [
        {
          "indexed": true,
          "internalType": "bytes32",
          "name": "deviceId",
          "type": "bytes32"
        },
        {
          "indexed": false,
          "internalType": "bytes32",
          "name": "evidenceHash",
          "type": "bytes32"
        },
        {
          "indexed": false,
          "internalType": "uint256",
          "name": "until",
          "type": "uint256"
        }
      ],
      "name": "CredentialSuspended",
      "type": "event"
    },
    {
      "inputs": [],
      "name": "bridge",
      "outputs": [
        {
          "internalType": "address",
          "name": "",
          "type": "address"
        }
      ],
      "stateMutability": "view",
      "type": "function"
    },
    {
      "inputs": [
        {
          "internalType": "bytes32",
          "name": "",
          "type": "bytes32"
        }
      ],
      "name": "credentialOf",
      "outputs": [
        {
          "internalType": "uint256",
          "name": "",
          "type": "uint256"
        }
      ],
      "stateMutability": "view",
      "type": "function"
    },
    {
      "inputs": [
        {
          "internalType": "uint256",
          "name": "",
          "type": "uint256"
        }
      ],
      "name": "credentials",
      "outputs": [
        {
          "internalType": "bytes32",
          "name": "nullifierHash",
          "type": "bytes32"
        },
        {
          "internalType": "bytes32",
          "name": "featureCommitment",
          "type": "bytes32"
        },
        {
          "internalType": "uint256",
          "name": "humanityProbInt",
          "type": "uint256"
        },
        {
          "internalType": "uint256",
          "name": "mintedAt",
          "type": "uint256"
        }
      ],
      "stateMutability": "view",
      "type": "function"
    },
    {
      "inputs": [
        {
          "internalType": "uint256",
          "name": "",
          "type": "uint256"
        }
      ],
      "name": "deviceOfId",
      "outputs": [
        {
          "internalType": "bytes32",
          "name": "",
          "type": "bytes32"
        }
      ],
      "stateMutability": "view",
      "type": "function"
    },
    {
      "inputs": [
        {
          "internalType": "bytes32",
          "name": "deviceId",
          "type": "bytes32"
        }
      ],
      "name": "getCredential",
      "outputs": [
        {
          "components": [
            {
              "internalType": "bytes32",
              "name": "nullifierHash",
              "type": "bytes32"
            },
            {
              "internalType": "bytes32",
              "name": "featureCommitment",
              "type": "bytes32"
            },
            {
              "internalType": "uint256",
              "name": "humanityProbInt",
              "type": "uint256"
            },
            {
              "internalType": "uint256",
              "name": "mintedAt",
              "type": "uint256"
            }
          ],
          "internalType": "struct PHGCredential.Credential",
          "name": "",
          "type": "tuple"
        }
      ],
      "stateMutability": "view",
      "type": "function"
    },
    {
      "inputs": [
        {
          "internalType": "bytes32",
          "name": "deviceId",
          "type": "bytes32"
        }
      ],
      "name": "hasCredential",
      "outputs": [
        {
          "internalType": "bool",
          "name": "",
          "type": "bool"
        }
      ],
      "stateMutability": "view",
      "type": "function"
    },
    {
      "inputs": [
        {
          "internalType": "bytes32",
          "name": "deviceId",
          "type": "bytes32"
        }
      ],
      "name": "isActive",
      "outputs": [
        {
          "internalType": "bool",
          "name": "",
          "type": "bool"
        }
      ],
      "stateMutability": "view",
      "type": "function"
    },
    {
      "inputs": [
        {
          "internalType": "bytes32",
          "name": "",
          "type": "bytes32"
        }
      ],
      "name": "isSuspended",
      "outputs": [
        {
          "internalType": "bool",
          "name": "",
          "type": "bool"
        }
      ],
      "stateMutability": "view",
      "type": "function"
    },
    {
      "inputs": [
        {
          "internalType": "uint256",
          "name": "",
          "type": "uint256"
        }
      ],
      "name": "locked",
      "outputs": [
        {
          "internalType": "bool",
          "name": "",
          "type": "bool"
        }
      ],
      "stateMutability": "pure",
      "type": "function"
    },
    {
      "inputs": [
        {
          "internalType": "bytes32",
          "name": "deviceId",
          "type": "bytes32"
        },
        {
          "internalType": "bytes32",
          "name": "nullifierHash",
          "type": "bytes32"
        },
        {
          "internalType": "bytes32",
          "name": "featureCommitment",
          "type": "bytes32"
        },
        {
          "internalType": "uint256",
          "name": "humanityProbInt",
          "type": "uint256"
        }
      ],
      "name": "mintCredential",
      "outputs": [
        {
          "internalType": "uint256",
          "name": "id",
          "type": "uint256"
        }
      ],
      "stateMutability": "nonpayable",
      "type": "function"
    },
    {
      "inputs": [
        {
          "internalType": "bytes32",
          "name": "deviceId",
          "type": "bytes32"
        }
      ],
      "name": "reinstate",
      "outputs": [],
      "stateMutability": "nonpayable",
      "type": "function"
    },
    {
      "inputs": [
        {
          "internalType": "bytes32",
          "name": "deviceId",
          "type": "bytes32"
        },
        {
          "internalType": "bytes32",
          "name": "evidenceHash",
          "type": "bytes32"
        },
        {
          "internalType": "uint256",
          "name": "durationSeconds",
          "type": "uint256"
        }
      ],
      "name": "suspend",
      "outputs": [],
      "stateMutability": "nonpayable",
      "type": "function"
    },
    {
      "inputs": [
        {
          "internalType": "bytes32",
          "name": "",
          "type": "bytes32"
        }
      ],
      "name": "suspendedUntil",
      "outputs": [
        {
          "internalType": "uint256",
          "name": "",
          "type": "uint256"
        }
      ],
      "stateMutability": "view",
      "type": "function"
    },
    {
      "inputs": [
        {
          "internalType": "bytes32",
          "name": "",
          "type": "bytes32"
        }
      ],
      "name": "suspensionEvidence",
      "outputs": [
        {
          "internalType": "bytes32",
          "name": "",
          "type": "bytes32"
        }
      ],
      "stateMutability": "view",
      "type": "function"
    },
    {
      "inputs": [
        {
          "internalType": "bytes32",
          "name": "",
          "type": "bytes32"
        }
      ],
      "name": "usedNullifiers",
      "outputs": [
        {
          "internalType": "bool",
          "name": "",
          "type": "bool"
        }
      ],
      "stateMutability": "view",
      "type": "function"
    }
  ],
  "bytecode": "0x60a03461008457601f61084e38819003918201601f19168301916001600160401b038311848410176100895780849260209460405283398101031261008457516001600160a01b03811681036100845760805260016000556040516107ae90816100a08239608051818181610107015281816102c2015281816103ba01526104ea0152f35b600080fd5b634e487b7160e01b600052604160045260246000fdfe6080604081815260048036101561001557600080fd5b600092833560e01c9081630b67cd81146106b357508063206137aa146106885780632354415d14610661578063435eeac5146104cd5780634ab8a80b146103985780635c36901c1461036c57806389099a63146102aa57806389f75a9014610283578063b45a3c0e14610266578063c37329011461023d578063ce4f789714610216578063d1be488314610183578063e0574e3f1461013a578063e78cea92146100f25763fda8098e146100c857600080fd5b346100ee5760203660031901126100ee5760209282913581526006845220549051908152f35b8280fd5b505034610136578160031936011261013657517f00000000000000000000000000000000000000000000000000000000000000006001600160a01b03168152602090f35b5080fd5b50346100ee5760203660031901126100ee576080928291358152600360205220908154916001810154916003600283015492015492815194855260208501528301526060820152f35b5090346100ee57602091826003193601126102125783829160809560606101a86106de565b828152828882015282868201520152358152600184528181205481526003845220906101d26106de565b9180549384845260018201548185019081526060600360028501549486880195865201549501948552835195865251908501525190830152516060820152f35b8380fd5b50346100ee5760203660031901126100ee5760209282913581526007845220549051908152f35b50346100ee5760203660031901126100ee57602092829135815260018452205415159051908152f35b505034610136576020366003190112610136576020905160018152f35b50346100ee5760203660031901126100ee5760209282913581526002845220549051908152f35b5090346100ee5760203660031901126100ee578135917f00000000000000000000000000000000000000000000000000000000000000006001600160a01b0316330361035e57828452600560205260ff82852054161561034957508290828252600560205280822060ff19815416905560066020528120557ffa59749d5751f33378a25b7daa6d68326c79e179eb19fc99169233eb1e1aedc18280a280f35b82602492519163d2a15e2d60e01b8352820152fd5b90516338da3b1560e01b8152fd5b509134610395576020366003190112610395575061038c60209235610737565b90519015158152f35b80fd5b50919034610136576060366003190112610136576044359280359190602435907f00000000000000000000000000000000000000000000000000000000000000006001600160a01b031633036104bf578385526020906001825283862054156104a8578486526005825260ff848720541680610498575b61048157506104748596857fd6c424fdcdce8b558bdd64aa7346ffc68532dcde0f11e82b231838ce5a5d837c96975260058352848820600160ff1982541617905561045a8142610714565b878952600684528589205560078352838589205542610714565b908351928352820152a280f35b835163e092dd7d60e01b8152908101859052602490fd5b506006825283862054421061040f565b8351630737aeb360e31b8152908101859052602490fd5b82516338da3b1560e01b8152fd5b5090346100ee5760803660031901126100ee5781356064356024357f00000000000000000000000000000000000000000000000000000000000000006001600160a01b0316330361065157828652602095600187528481205461063b5781815285875260ff8582205416610624576103e8831161060d5780549560001987146105fa57927fee227cb452cac5bc3a83e8c2192bbae594a8e14dda45141f8950ae5e32ef04529260038988948a989760018a0182558482528252858120600160ff198254161790558781526001825288868220558881526002825287868220556105b46106de565b938452818401604435815286808601928784528560608801954287528d83525220945185555160018501555160028401555191015581519081524388820152a351908152f35b634e487b7160e01b825260119052602490fd5b8451632c870e6b60e11b8152808701849052602490fd5b84516312ab05ef60e21b8152808701839052602490fd5b84516226521360e81b8152808701859052602490fd5b505050516338da3b1560e01b8152fd5b50346100ee5760203660031901126100ee5760209282913581526001845220549051908152f35b50346100ee5760203660031901126100ee57816020938260ff93358252855220541690519015158152f35b9291905034610212576020366003190112610212573583526005602090815292205460ff1615158152f35b604051906080820182811067ffffffffffffffff8211176106fe57604052565b634e487b7160e01b600052604160045260246000fd5b9190820180921161072157565b634e487b7160e01b600052601160045260246000fd5b60005260016020526040600020541561077357600560205260ff604060002054161561076e57600660205260406000205442101590565b600190565b60009056fea264697066735822122039a433a55e77967f734f383fd30bb3f2e35034dd83e9516b1d7979c37086a3b364736f6c63430008140033",
  "linkReferences": {},
  "deployedLinkReferences": {}
}