{
  "_format": "hh-sol-artifact-1",
  "contractName": "PHGCredential",
  "sourceName": "contracts/PHGCredential.sol",
  "abi": [
    {
      "inputs": [
        {
          "internalType": "address",
          "name": "_bridge",
          "type": "address"
        }
      ],
      "stateMutability": "nonpayable",
      "type": "constructor"
    },
    {
      "inputs": [
        {
          "internalType": "bytes32",
          "name": "deviceId",
          "type": "bytes32"
        }
      ],
      "name": "AlreadyMinted",
      "type": "error"
    },
    {
      "inputs": [
        {
          "internalType": "uint256",
          "name": "value",
          "type": "uint256"
        }
      ],
      "name": "InvalidScore",
      "type": "error"
    },
    {
      "inputs": [
        {
          "internalType": "bytes32",
          "name": "nullifierHash",
          "type": "bytes32"
        }
      ],
      "name": "NullifierUsed",
      "type": "error"
    },
    {
      "inputs": [],
      "name": "OnlyBridge",
      "type": "error"
    },
    {
      "anonymous": false,
      "inputs": [
        {
          "indexed": true,
          "internalType": "bytes32",
          "name": "deviceId",
          "type": "bytes32"
        },
        {
          "indexed": true,
          "internalType": "uint256",
          "name": "credentialId",
          "type": "uint256"
        },
        {
          "indexed": false,
          "internalType": "uint256",
          "name": "humanityProbInt",
          "type": "uint256"
        },
        {
          "indexed": false,
          "internalType": "uint256",
          "name": "blockNumber",
          "type": "uint256"
        }
      ],
      "name": "CredentialMinted",
      "type": "event"
    },
    {
      "inputs": [],
      "name": "bridge",
      "outputs": [
        {
          "internalType": "address",
          "name": "",
          "type": "address"
        }
      ],
      "stateMutability": "view",
      "type": "function"
    },
    {
      "inputs": [
        {
          "internalType": "bytes32",
          "name": "",
          "type": "bytes32"
        }
      ],
      "name": "credentialOf",
      "outputs": [
        {
          "internalType": "uint256",
          "name": "",
          "type": "uint256"
        }
      ],
      "stateMutability": "view",
      "type": "function"
    },
    {
      "inputs": [
        {
          "internalType": "uint256",
          "name": "",
          "type": "uint256"
        }
      ],
      "name": "credentials",
      "outputs": [
        {
          "internalType": "bytes32",
          "name": "nullifierHash",
          "type": "bytes32"
        },
        {
          "internalType": "bytes32",
          "name": "featureCommitment",
          "type": "bytes32"
        },
        {
          "internalType": "uint256",
          "name": "humanityProbInt",
          "type": "uint256"
        },
        {
          "internalType": "uint256",
          "name": "mintedAt",
          "type": "uint256"
        }
      ],
      "stateMutability": "view",
      "type": "function"
    },
    {
      "inputs": [
        {
          "internalType": "uint256",
          "name": "",
          "type": "uint256"
        }
      ],
      "name": "deviceOfId",
      "outputs": [
        {
          "internalType": "bytes32",
          "name": "",
          "type": "bytes32"
        }
      ],
      "stateMutability": "view",
      "type": "function"
    },
    {
      "inputs": [
        {
          "internalType": "bytes32",
          "name": "deviceId",
          "type": "bytes32"
        }
      ],
      "name": "getCredential",
      "outputs": [
        {
          "components": [
            {
              "internalType": "bytes32",
              "name": "nullifierHash",
              "type": "bytes32"
            },
            {
              "internalType": "bytes32",
              "name": "featureCommitment",
              "type": "bytes32"
            },
            {
              "internalType": "uint256",
              "name": "humanityProbInt",
              "type": "uint256"
            },
            {
              "internalType": "uint256",
              "name": "mintedAt",
              "type": "uint256"
            }
          ],
          "internalType": "struct PHGCredential.Credential",
          "name": "",
          "type": "tuple"
        }
      ],
      "stateMutability": "view",
      "type": "function"
    },
    {
      "inputs": [
        {
          "internalType": "bytes32",
          "name": "deviceId",
          "type": "bytes32"
        }
      ],
      "name": "hasCredential",
      "outputs": [
        {
          "internalType": "bool",
          "name": "",
          "type": "bool"
        }
      ],
      "stateMutability": "view",
      "type": "function"
    },
    {
      "inputs": [
        {
          "internalType": "uint256",
          "name": "",
          "type": "uint256"
        }
      ],
      "name": "locked",
      "outputs": [
        {
          "internalType": "bool",
          "name": "",
          "type": "bool"
        }
      ],
      "stateMutability": "pure",
      "type": "function"
    },
    {
      "inputs": [
        {
          "internalType": "bytes32",
          "name": "deviceId",
          "type": "bytes32"
        },
        {
          "internalType": "bytes32",
          "name": "nullifierHash",
          "type": "bytes32"
        },
        {
          "internalType": "bytes32",
          "name": "featureCommitment",
          "type": "bytes32"
        },
        {
          "internalType": "uint256",
          "name": "humanityProbInt",
          "type": "uint256"
        }
      ],
      "name": "mintCredential",
      "outputs": [
        {
          "internalType": "uint256",
          "name": "id",
          "type": "uint256"
        }
      ],
      "stateMutability": "nonpayable",
      "type": "function"
    },
    {
      "inputs": [
        {
          "internalType": "bytes32",
          "name": "",
          "type": "bytes32"
        }
      ],
      "name": "usedNullifiers",
      "outputs": [
        {
          "internalType": "bool",
          "name": "",
          "type": "bool"
        }
      ],
      "stateMutability": "view",
      "type": "function"
    }
  ],
  "bytecode": "0x60a03461007557601f61050238819003918201601f19168301916001600160401b0383118484101761007a5780849260209460405283398101031261007557516001600160a01b038116810361007557608052600160005560405161047190816100918239608051818181609b015261023d0152f35b600080fd5b634e487b7160e01b600052604160045260246000fdfe608060408181526004918236101561001657600080fd5b600092833560e01c918263206137aa146103dc575081632354415d146103b4578163435eeac51461021f57816389f75a90146101f7578163b45a3c0e146101da578163c3732901146101b0578163d1be48831461011c578163e0574e3f146100ce575063e78cea921461008857600080fd5b346100ca57816003193601126100ca57517f00000000000000000000000000000000000000000000000000000000000000006001600160a01b03168152602090f35b5080fd5b905034610118576020366003190112610118576080928291358152600360205220908154916001810154916003600283015492015492815194855260208501528301526060820152f35b8280fd5b9190503461011857602091826003193601126101ac578382916080956060610142610405565b8281528288820152828682015201523581526001845281812054815260038452209061016c610405565b9180549384845260018201548185019081526060600360028501549486880195865201549501948552835195865251908501525190830152516060820152f35b8380fd5b90503461011857602036600319011261011857602092829135815260018452205415159051908152f35b5050346100ca5760203660031901126100ca576020905160018152f35b9050346101185760203660031901126101185760209282913581526002845220549051908152f35b919050346101185760803660031901126101185781356064356024357f00000000000000000000000000000000000000000000000000000000000000006001600160a01b031633036103a457828652602095600187528481205461038e5781815285875260ff8582205416610377576103e8831161036057805495600019871461034d57927fee227cb452cac5bc3a83e8c2192bbae594a8e14dda45141f8950ae5e32ef04529260038988948a989760018a0182558482528252858120600160ff19825416179055878152600182528886822055888152600282528786822055610307610405565b938452818401604435815286808601928784528560608801954287528d83525220945185555160018501555160028401555191015581519081524388820152a351908152f35b634e487b7160e01b825260119052602490fd5b8451632c870e6b60e11b8152808701849052602490fd5b84516312ab05ef60e21b8152808701839052602490fd5b84516226521360e81b8152808701859052602490fd5b505050516338da3b1560e01b8152fd5b9050346101185760203660031901126101185760209282913581526001845220549051908152f35b929150346101ac5760203660031901126101ac5780358452602090815292205460ff1615158152f35b604051906080820182811067ffffffffffffffff82111761042557604052565b634e487b7160e01b600052604160045260246000fdfea2646970667358221220cc17eda81b4f530e2998cf818792a18d0791b4bede78c1122b17c542d8dcf94064736f6c63430008140033",
  "linkReferences": {},
  "deployedLinkReferences": {}
}