{"contracts/BountyMarket.sol":{"BountyMarket":{"abi":[{"inputs":[{"internalType":"address","name":"_poACVerifier","type":"address"},{"internalType":"address","name":"_deviceRegistry","type":"address"},{"internalType":"uint16","name":"_platformFeeBps","type":"uint16"}],"stateMutability":"nonpayable","type":"constructor"},{"inputs":[{"internalType":"uint256","name":"bountyId","type":"uint256"},{"internalType":"bytes32","name":"deviceId","type":"bytes32"}],"name":"AlreadyAccepted","type":"error"},{"inputs":[{"internalType":"uint256","name":"bountyId","type":"uint256"}],"name":"BountyAlreadyFulfilled","type":"error"},{"inputs":[{"internalType":"uint256","name":"bountyId","type":"uint256"}],"name":"BountyNotActive","type":"error"},{"inputs":[{"internalType":"uint256","name":"bountyId","type":"uint256"}],"name":"BountyNotExpired","type":"error"},{"inputs":[{"internalType":"uint256","name":"bountyId","type":"uint256"}],"name":"BountyNotFound","type":"error"},{"inputs":[{"internalType":"bytes32","name":"deviceId","type":"bytes32"}],"name":"DeviceNotActive","type":"error"},{"inputs":[{"internalType":"bytes32","name":"deviceId","type":"bytes32"}],"name":"DeviceNotRegistered","type":"error"},{"inputs":[],"name":"InsufficientReward","type":"error"},{"inputs":[{"internalType":"uint256","name":"duration","type":"uint256"}],"name":"InvalidDuration","type":"error"},{"inputs":[],"name":"InvalidMinSamples","type":"error"},{"inputs":[],"name":"InvalidZone","type":"error"},{"inputs":[{"internalType":"uint256","name":"bountyId","type":"uint256"},{"internalType":"uint16","name":"submitted","type":"uint16"},{"internalType":"uint16","name":"required","type":"uint16"}],"name":"MinSamplesNotReached","type":"error"},{"inputs":[{"internalType":"uint256","name":"bountyId","type":"uint256"}],"name":"NoDevicesForAggregation","type":"error"},{"inputs":[{"internalType":"uint256","name":"bountyId","type":"uint256"},{"internalType":"bytes32","name":"deviceId","type":"bytes32"}],"name":"NotAccepted","type":"error"},{"inputs":[{"internalType":"uint256","name":"bountyId","type":"uint256"},{"internalType":"address","name":"caller","type":"address"}],"name":"NotBountyCreator","type":"error"},{"inputs":[{"internalType":"int64","name":"lat","type":"int64"},{"internalType":"int64","name":"lon","type":"int64"}],"name":"OutsideGeographicZone","type":"error"},{"inputs":[{"internalType":"address","name":"owner","type":"address"}],"name":"OwnableInvalidOwner","type":"error"},{"inputs":[{"internalType":"address","name":"account","type":"address"}],"name":"OwnableUnauthorizedAccount","type":"error"},{"inputs":[{"internalType":"bytes32","name":"recordHash","type":"bytes32"},{"internalType":"uint256","name":"existingBountyId","type":"uint256"}],"name":"RecordAlreadyUsed","type":"error"},{"inputs":[{"internalType":"bytes32","name":"recordHash","type":"bytes32"}],"name":"RecordNotVerified","type":"error"},{"inputs":[],"name":"ReentrancyGuardReentrantCall","type":"error"},{"inputs":[{"internalType":"int64","name":"lastTs","type":"int64"},{"internalType":"int64","name":"currentTs","type":"int64"},{"internalType":"uint32","name":"requiredInterval","type":"uint32"}],"name":"SampleIntervalNotRespected","type":"error"},{"inputs":[],"name":"TransferFailed","type":"error"},{"anonymous":false,"inputs":[{"indexed":true,"internalType":"uint256","name":"bountyId","type":"uint256"},{"indexed":true,"internalType":"bytes32","name":"deviceId","type":"bytes32"},{"indexed":false,"internalType":"uint64","name":"acceptedAt","type":"uint64"}],"name":"BountyAccepted","type":"event"},{"anonymous":false,"inputs":[{"indexed":true,"internalType":"uint256","name":"bountyId","type":"uint256"},{"indexed":true,"internalType":"address","name":"creator","type":"address"},{"indexed":false,"internalType":"uint256","name":"refundAmount","type":"uint256"}],"name":"BountyExpired","type":"event"},{"anonymous":false,"inputs":[{"indexed":true,"internalType":"uint256","name":"bountyId","type":"uint256"},{"indexed":true,"internalType":"address","name":"creator","type":"address"},{"indexed":false,"internalType":"uint256","name":"reward","type":"uint256"},{"indexed":false,"internalType":"uint16","name":"sensorRequirements","type":"uint16"},{"indexed":false,"internalType":"uint16","name":"minSamples","type":"uint16"},{"indexed":false,"internalType":"uint64","name":"deadlineMs","type":"uint64"}],"name":"BountyPosted","type":"event"},{"anonymous":false,"inputs":[{"indexed":true,"internalType":"uint256","name":"bountyId","type":"uint256"},{"indexed":true,"internalType":"bytes32","name":"deviceId","type":"bytes32"},{"indexed":true,"internalType":"bytes32","name":"recordHash","type":"bytes32"},{"indexed":false,"internalType":"uint16","name":"sampleNumber","type":"uint16"}],"name":"EvidenceSubmitted","type":"event"},{"anonymous":false,"inputs":[{"indexed":true,"internalType":"address","name":"previousOwner","type":"address"},{"indexed":true,"internalType":"address","name":"newOwner","type":"address"}],"name":"OwnershipTransferred","type":"event"},{"anonymous":false,"inputs":[{"indexed":true,"internalType":"uint256","name":"bountyId","type":"uint256"},{"indexed":false,"internalType":"uint256","name":"deviceCount","type":"uint256"},{"indexed":false,"internalType":"uint256","name":"totalSamples","type":"uint256"},{"indexed":false,"internalType":"uint16","name":"confidenceScore","type":"uint16"},{"indexed":false,"internalType":"uint8","name":"consensusInference","type":"uint8"},{"indexed":false,"internalType":"int64","name":"medianLatitude","type":"int64"},{"indexed":false,"internalType":"int64","name":"medianLongitude","type":"int64"},{"indexed":false,"internalType":"int64","name":"earliestTimestampMs","type":"int64"},{"indexed":false,"internalType":"int64","name":"latestTimestampMs","type":"int64"}],"name":"PhysicalOracleReport","type":"event"},{"anonymous":false,"inputs":[{"indexed":true,"internalType":"uint256","name":"bountyId","type":"uint256"},{"indexed":true,"internalType":"bytes32","name":"deviceId","type":"bytes32"},{"indexed":true,"internalType":"address","name":"recipient","type":"address"},{"indexed":false,"internalType":"uint256","name":"amount","type":"uint256"}],"name":"RewardClaimed","type":"event"},{"inputs":[],"name":"COORD_SCALE","outputs":[{"internalType":"int64","name":"","type":"int64"}],"stateMutability":"view","type":"function"},{"inputs":[],"name":"MAX_BOUNTY_DURATION","outputs":[{"internalType":"uint256","name":"","type":"uint256"}],"stateMutability":"view","type":"function"},{"inputs":[],"name":"MIN_BOUNTY_DURATION","outputs":[{"internalType":"uint256","name":"","type":"uint256"}],"stateMutability":"view","type":"function"},{"inputs":[],"name":"REQUIRES_GPS","outputs":[{"internalType":"uint16","name":"","type":"uint16"}],"stateMutability":"view","type":"function"},{"inputs":[],"name":"REQUIRES_HUMIDITY","outputs":[{"internalType":"uint16","name":"","type":"uint16"}],"stateMutability":"view","type":"function"},{"inputs":[],"name":"REQUIRES_LIGHT","outputs":[{"internalType":"uint16","name":"","type":"uint16"}],"stateMutability":"view","type":"function"},{"inputs":[],"name":"REQUIRES_MOTION","outputs":[{"internalType":"uint16","name":"","type":"uint16"}],"stateMutability":"view","type":"function"},{"inputs":[],"name":"REQUIRES_PRESSURE","outputs":[{"internalType":"uint16","name":"","type":"uint16"}],"stateMutability":"view","type":"function"},{"inputs":[],"name":"REQUIRES_TEMP","outputs":[{"internalType":"uint16","name":"","type":"uint16"}],"stateMutability":"view","type":"function"},{"inputs":[],"name":"REQUIRES_VOC","outputs":[{"internalType":"uint16","name":"","type":"uint16"}],"stateMutability":"view","type":"function"},{"inputs":[{"internalType":"uint256","name":"_bountyId","type":"uint256"},{"internalType":"bytes32","name":"_deviceId","type":"bytes32"}],"name":"acceptBounty","outputs":[],"stateMutability":"nonpayable","type":"function"},{"inputs":[{"internalType":"uint256","name":"","type":"uint256"},{"internalType":"bytes32","name":"","type":"bytes32"}],"name":"acceptances","outputs":[{"internalType":"bool","name":"accepted","type":"bool"},{"internalType":"uint64","name":"acceptedAt","type":"uint64"},{"internalType":"uint16","name":"samplesSubmitted","type":"uint16"},{"internalType":"int64","name":"lastSampleTimestampMs","type":"int64"}],"stateMutability":"view","type":"function"},{"inputs":[],"name":"accumulatedFees","outputs":[{"internalType":"uint256","name":"","type":"uint256"}],"stateMutability":"view","type":"function"},{"inputs":[{"internalType":"uint256","name":"_bountyId","type":"uint256"},{"internalType":"bytes32[]","name":"_deviceIds","type":"bytes32[]"},{"internalType":"bytes32[]","name":"_recordHashes","type":"bytes32[]"},{"internalType":"int64[]","name":"_latitudes","type":"int64[]"},{"internalType":"int64[]","name":"_longitudes","type":"int64[]"},{"internalType":"int64[]","name":"_timestampsMs","type":"int64[]"},{"internalType":"uint8[]","name":"_inferences","type":"uint8[]"}],"name":"aggregateSwarmReport","outputs":[{"components":[{"internalType":"uint256","name":"bountyId","type":"uint256"},{"internalType":"uint256","name":"deviceCount","type":"uint256"},{"internalType":"uint256","name":"totalSamples","type":"uint256"},{"internalType":"uint16","name":"confidenceScore","type":"uint16"},{"internalType":"uint8","name":"consensusInference","type":"uint8"},{"internalType":"int64","name":"medianLatitude","type":"int64"},{"internalType":"int64","name":"medianLongitude","type":"int64"},{"internalType":"int64","name":"earliestTimestampMs","type":"int64"},{"internalType":"int64","name":"latestTimestampMs","type":"int64"}],"internalType":"struct BountyMarket.SwarmReport","name":"report","type":"tuple"}],"stateMutability":"nonpayable","type":"function"},{"inputs":[{"internalType":"uint256","name":"","type":"uint256"}],"name":"bounties","outputs":[{"internalType":"uint256","name":"bountyId","type":"uint256"},{"internalType":"address","name":"creator","type":"address"},{"internalType":"uint256","name":"reward","type":"uint256"},{"internalType":"uint16","name":"sensorRequirements","type":"uint16"},{"internalType":"uint16","name":"minSamples","type":"uint16"},{"internalType":"uint32","name":"sampleIntervalS","type":"uint32"},{"internalType":"uint32","name":"durationS","type":"uint32"},{"internalType":"uint64","name":"deadlineMs","type":"uint64"},{"internalType":"int64","name":"zoneLatMin","type":"int64"},{"internalType":"int64","name":"zoneLatMax","type":"int64"},{"internalType":"int64","name":"zoneLonMin","type":"int64"},{"internalType":"int64","name":"zoneLonMax","type":"int64"},{"internalType":"int256","name":"vocThreshold","type":"int256"},{"internalType":"int256","name":"tempThresholdHi","type":"int256"},{"internalType":"int256","name":"tempThresholdLo","type":"int256"},{"internalType":"enum BountyMarket.BountyStatus","name":"status","type":"uint8"},{"internalType":"uint256","name":"createdAt","type":"uint256"}],"stateMutability":"view","type":"function"},{"inputs":[{"internalType":"uint256","name":"_bountyId","type":"uint256"},{"internalType":"bytes32","name":"_deviceId","type":"bytes32"}],"name":"claimReward","outputs":[],"stateMutability":"nonpayable","type":"function"},{"inputs":[],"name":"deviceRegistry","outputs":[{"internalType":"contract DeviceRegistry","name":"","type":"address"}],"stateMutability":"view","type":"function"},{"inputs":[{"internalType":"bytes32","name":"","type":"bytes32"}],"name":"evidenceRecordToBounty","outputs":[{"internalType":"uint256","name":"","type":"uint256"}],"stateMutability":"view","type":"function"},{"inputs":[{"internalType":"uint256","name":"_bountyId","type":"uint256"}],"name":"expireBounty","outputs":[],"stateMutability":"nonpayable","type":"function"},{"inputs":[{"internalType":"uint256","name":"_bountyId","type":"uint256"},{"internalType":"bytes32","name":"_deviceId","type":"bytes32"}],"name":"getAcceptance","outputs":[{"components":[{"internalType":"bool","name":"accepted","type":"bool"},{"internalType":"uint64","name":"acceptedAt","type":"uint64"},{"internalType":"uint16","name":"samplesSubmitted","type":"uint16"},{"internalType":"int64","name":"lastSampleTimestampMs","type":"int64"}],"internalType":"struct BountyMarket.Acceptance","name":"","type":"tuple"}],"stateMutability":"view","type":"function"},{"inputs":[{"internalType":"uint256","name":"_bountyId","type":"uint256"}],"name":"getAcceptedDevices","outputs":[{"internalType":"bytes32[]","name":"","type":"bytes32[]"}],"stateMutability":"view","type":"function"},{"inputs":[{"internalType":"uint256","name":"_bountyId","type":"uint256"}],"name":"getBounty","outputs":[{"components":[{"internalType":"uint256","name":"bountyId","type":"uint256"},{"internalType":"address","name":"creator","type":"address"},{"internalType":"uint256","name":"reward","type":"uint256"},{"internalType":"uint16","name":"sensorRequirements","type":"uint16"},{"internalType":"uint16","name":"minSamples","type":"uint16"},{"internalType":"uint32","name":"sampleIntervalS","type":"uint32"},{"internalType":"uint32","name":"durationS","type":"uint32"},{"internalType":"uint64","name":"deadlineMs","type":"uint64"},{"internalType":"int64","name":"zoneLatMin","type":"int64"},{"internalType":"int64","name":"zoneLatMax","type":"int64"},{"internalType":"int64","name":"zoneLonMin","type":"int64"},{"internalType":"int64","name":"zoneLonMax","type":"int64"},{"internalType":"int256","name":"vocThreshold","type":"int256"},{"internalType":"int256","name":"tempThresholdHi","type":"int256"},{"internalType":"int256","name":"tempThresholdLo","type":"int256"},{"internalType":"enum BountyMarket.BountyStatus","name":"status","type":"uint8"},{"internalType":"uint256","name":"createdAt","type":"uint256"}],"internalType":"struct BountyMarket.BountyDescriptor","name":"","type":"tuple"}],"stateMutability":"view","type":"function"},{"inputs":[{"internalType":"uint256","name":"_bountyId","type":"uint256"},{"internalType":"uint256","name":"_index","type":"uint256"}],"name":"getEvidence","outputs":[{"components":[{"internalType":"bytes32","name":"deviceId","type":"bytes32"},{"internalType":"bytes32","name":"recordHash","type":"bytes32"},{"internalType":"int64","name":"timestampMs","type":"int64"},{"internalType":"int64","name":"latitude","type":"int64"},{"internalType":"int64","name":"longitude","type":"int64"}],"internalType":"struct BountyMarket.Evidence","name":"","type":"tuple"}],"stateMutability":"view","type":"function"},{"inputs":[{"internalType":"uint256","name":"_bountyId","type":"uint256"}],"name":"getEvidenceCount","outputs":[{"internalType":"uint256","name":"count","type":"uint256"}],"stateMutability":"view","type":"function"},{"inputs":[],"name":"nextBountyId","outputs":[{"internalType":"uint256","name":"","type":"uint256"}],"stateMutability":"view","type":"function"},{"inputs":[],"name":"owner","outputs":[{"internalType":"address","name":"","type":"address"}],"stateMutability":"view","type":"function"},{"inputs":[],"name":"platformFeeBps","outputs":[{"internalType":"uint16","name":"","type":"uint16"}],"stateMutability":"view","type":"function"},{"inputs":[],"name":"poACVerifier","outputs":[{"internalType":"contract PoACVerifier","name":"","type":"address"}],"stateMutability":"view","type":"function"},{"inputs":[{"internalType":"uint16","name":"_sensorRequirements","type":"uint16"},{"internalType":"uint16","name":"_minSamples","type":"uint16"},{"internalType":"uint32","name":"_sampleIntervalS","type":"uint32"},{"internalType":"uint32","name":"_durationS","type":"uint32"},{"internalType":"int64","name":"_zoneLatMin","type":"int64"},{"internalType":"int64","name":"_zoneLatMax","type":"int64"},{"internalType":"int64","name":"_zoneLonMin","type":"int64"},{"internalType":"int64","name":"_zoneLonMax","type":"int64"},{"internalType":"int256","name":"_vocThreshold","type":"int256"},{"internalType":"int256","name":"_tempThresholdHi","type":"int256"},{"internalType":"int256","name":"_tempThresholdLo","type":"int256"}],"name":"postBounty","outputs":[{"internalType":"uint256","name":"bountyId","type":"uint256"}],"stateMutability":"payable","type":"function"},{"inputs":[],"name":"renounceOwnership","outputs":[],"stateMutability":"nonpayable","type":"function"},{"inputs":[{"internalType":"uint16","name":"_newFeeBps","type":"uint16"}],"name":"setPlatformFee","outputs":[],"stateMutability":"nonpayable","type":"function"},{"inputs":[{"internalType":"uint256","name":"_bountyId","type":"uint256"},{"internalType":"bytes32","name":"_deviceId","type":"bytes32"},{"internalType":"bytes32","name":"_recordHash","type":"bytes32"},{"internalType":"int64","name":"_latitude","type":"int64"},{"internalType":"int64","name":"_longitude","type":"int64"},{"internalType":"int64","name":"_timestampMs","type":"int64"}],"name":"submitEvidence","outputs":[],"stateMutability":"nonpayable","type":"function"},{"inputs":[{"internalType":"address","name":"newOwner","type":"address"}],"name":"transferOwnership","outputs":[],"stateMutability":"nonpayable","type":"function"},{"inputs":[],"name":"withdrawFees","outputs":[],"stateMutability":"nonpayable","type":"function"}],"evm":{"bytecode":{"linkReferences":{},"object":"6080346200011657601f6200293d38819003918201601f19168301916001600160401b038311848410176200011b5780849260609460405283398101031262000116576200004d8162000131565b9060406200005e6020830162000131565b9101519061ffff821680920362000116573315620000fd5760008054336001600160a01b0319808316821784556040519690946001600160a01b03949093859391908416907f8be0079c531659141344cd1fd0a4f28419497f9722a3daafe3b4186f6b6457e09080a360018055168360045416176004551690600554161760055561ffff19600254161760025560016006556127f69081620001478239f35b604051631e4fbdf760e01b815260006004820152602490fd5b600080fd5b634e487b7160e01b600052604160045260246000fd5b51906001600160a01b0382168203620001165756fe61028080604052600436101561001457600080fd5b60003560e01c90816311955a8d146124a05750806322dcd13e1461247e5780632cd5a77a146123cb578063327cea62146123af578063423aee311461238357806344c5e39b146119c55780634636f70a146119a9578063476343ee1461195c57806348591e5514611940578063496e62f714611921578063587f5ed7146119035780635cbc742c146118735780635efb870a1461184a5780635faedcef146117525780636569dac41461145d578063715018a61461140457806385c3dd80146113d85780638da5cb5b146113af578063925ac9b114611393578063b52947e414611378578063bd62ad221461135b578063c9ae98bd14610ea2578063d5f9897f14610e3f578063d7b5a84a14610e23578063dc2f874414610d17578063e144064a14610cfb578063e489232d14610a77578063eacd3ab314610690578063ee8c4bbf146103dd578063f1b8a98c14610318578063f1cf7905146102ef578063f2fde38b1461025f578063f4f47683146101b95763fd14fad41461019657600080fd5b346101b45760003660031901126101b4576020600654604051908152f35b600080fd5b346101b4576020806003193601126101b457600435600052600a8152604060002060405190818382549182815201908192600052846000209060005b8682821061024b57868661020b828803836125ed565b604051928392818401908285525180915260408401929160005b82811061023457505050500390f35b835185528695509381019392810192600101610225565b8354855290930192600192830192016101f5565b346101b45760203660031901126101b4576004356001600160a01b03818116918290036101b45761028e612540565b81156102d657600054826bffffffffffffffffffffffff60a01b821617600055167f8be0079c531659141344cd1fd0a4f28419497f9722a3daafe3b4186f6b6457e0600080a3005b604051631e4fbdf760e01b815260006004820152602490fd5b346101b45760003660031901126101b4576004546040516001600160a01b039091168152602090f35b346101b45760403660031901126101b45760006080604051610339816125b6565b8281528260208201528260408201528260608201520152600435600052600960205260a061036d60243560406000206126a5565b506040519061037b826125b6565b8054918281526002600183015492602083019384520154906040810160079383850b8252608060608401938560401c870b8552019360801c850b845260405195865251602086015251830b604085015251820b606084015251900b6080820152f35b346101b45760203660031901126101b45760006102006040516103ff816125d1565b8281528260208201528260408201528260608201528260808201528260a08201528260c08201528260e08201528261010082015282610120820152826101408201528261016082015282610180820152826101a0820152826101c0820152826101e082015201526004356000526007602052604060002060ff600882015416600481101561067a57801561066157610200610220926009604051916104a3836125d1565b80549485845260018060a01b03600183015416602085015260028201546040850152600382015461ffff8116606086015261ffff8160101c16608086015263ffffffff8160201c1660a086015263ffffffff8160401c1660c08601526001600160401b038160601c1660e086015260a01c60070b61010085015260048201548060070b6101208601528060401c60070b61014086015260801c60070b610160850152600582015461018085015260068201546101a085015260078201546101c08501526101e084015201548282015260405192835260018060a01b0360208201511660208401526040810151604084015261ffff606082015116606084015261ffff608082015116608084015263ffffffff60a08201511660a084015263ffffffff60c08201511660c08401526001600160401b0360e08201511660e084015261010081015160070b61010084015261012081015160070b61012084015261014081015160070b61014084015261016081015160070b6101608401526101808101516101808401526101a08101516101a08401526101c08101516101c08401526106576101e08201516101e0850190612533565b0151610200820152f35b602460405163728640f360e11b81526004356004820152fd5b634e487b7160e01b600052602160045260246000fd5b346101b45761069e366124bc565b6106a6612659565b81600052602091600783526040600020600881019081549160ff8316600481101561067a578015610a5e5760028114610a4557600103610a2c57836000526008865260406000208560005286526040600020549260ff841615610a0e5761ffff809460481c1684600385015460101c16908181106109ea57505090600280939260ff1916179055015490600254168082029082820414821517156109d45761271090048082039182116109d45761075f9060035461268b565b6003556005546040516359d902ed60e01b8152600481018590526001600160a01b039591600090829060249082908a165afa80156109c8578691600091610854575b505116946000808080868a5af16107b6612629565b5015610842576005541691823b156101b4576040516307567c7560e01b81526004810186905260006024820181905260016044830152606482018190527f26ef85f0daac61fc17bf2398563cb3e2d7731117f76c2b14f2fdbbb6bad62bac948290608490829084905af1610833575b50604051908152a460018055005b61083c906125a3565b86610825565b6040516312171d8360e31b8152600490fd5b9150503d806000833e61086781836125ed565b810182828203126101b45781516001600160401b03928382116101b45701906101409283838303126101b457604051938401848110828211176109b257604052825189811681036101b45784526108bf8584016126e1565b858501526108cf604084016126e1565b6040850152606083015160608501526108ea60808401612698565b608085015260a08301519081116101b457820181601f820112156101b4578051906109148261260e565b9261092260405194856125ed565b8284528683830101116101b4578994939291869160005b82811061099b575050906000918301015260a083015261095b60c082016126f5565b60c083015261096c60e082016126f5565b60e083015261010061097f8183016126f5565b90830152610991610120809201612706565b90820152876107a1565b8181018401518582018501528c9750889301610939565b634e487b7160e01b600052604160045260246000fd5b6040513d6000823e3d90fd5b634e487b7160e01b600052601160045260246000fd5b606491879160405192636bb8313960e11b8452600484015260248301526044820152fd5b604485876040519163dfcd137d60e01b835260048301526024820152fd5b60405163616b4a8360e01b815260048101859052602490fd5b6040516310670cd160e01b815260048101869052602490fd5b60405163728640f360e11b815260048101869052602490fd5b346101b457610a85366124bc565b9080600052602060078152604060002060ff600882015416600481101561067a578015610ce257600103610cc9576103e88042029042820414421517156109d4576003916001600160401b03928391015460601c1610610cc957600554604051635ec8fe6b60e01b815260048101869052908390829060249082906001600160a01b03165afa9081156109c857600091610c94575b5015610c7b578260005260088252604060002084600052825260ff60406000205416610c5d57421690610be6604051610b528161256c565b60018152828101848152600060408084018281526060850183815289845260088089528385208c86528952929093209451855494519151935172ffffffffffffffffffffffffffffffffffffff1990951690151560ff161768ffffffffffffffff009190921b161761ffff60481b60489290921b919091161767ffffffffffffffff60581b60589290921b91909116179055565b82600052600a8152604060002091825492600160401b8410156109b25760018401808255841015610c47577f439c72668c744083584e3621696c1da1e6e44a0ecf9ebd7e0105655b86044fd0938691600052836000200155604051908152a3005b634e487b7160e01b600052603260045260246000fd5b604483856040519163e548d20960e01b835260048301526024820152fd5b60405163159c717560e11b815260048101859052602490fd5b90508281813d8311610cc2575b610cab81836125ed565b810103126101b457610cbc90612698565b85610b1a565b503d610ca1565b60405163616b4a8360e01b815260048101849052602490fd5b60405163728640f360e11b815260048101859052602490fd5b346101b45760003660031901126101b457602060405160408152f35b346101b45760203660031901126101b457600435600052610220600780602052604060002090610e1b82549260018060a01b03600182015416926002820154906003830154906004840154906005850154916006860154938287015495600960ff60088a015416980154996040519b8c5260208c015260408b015261ffff80821660608c01528160101c1660808b015263ffffffff808260201c1660a08c01528160401c1660c08b01526001600160401b038160601c1660e08b015260a01c820b6101008a015280820b6101208a01528060401c820b6101408a015260801c900b6101608801526101808701526101a08601526101c08501526101e0840190612533565b610200820152f35b346101b45760003660031901126101b457602060405160028152f35b346101b457610e4d366124bc565b90600052600860205260406000209060005260205260806040600020546040519060ff8116151582526001600160401b038160081c16602083015261ffff8160481c16604083015260581c60070b6060820152f35b346101b45760c03660031901126101b4576064358060070b81036101b457610ec8612513565b610ed0612523565b91610ed9612659565b600435600052600760205260406000209160ff600884015416600481101561067a57801561066157600103611342576003830154926001600160401b038460601c166001600160401b03861611611342576004356000526008602052604060002060243560005260205260406000209384549160ff831615611321576024602060018060a01b03600454166040519283809263488dbfad60e01b825260443560048301525afa9081156109c8576000916112e7575b50156112cd57604435600052600b602052604060002054806112ad57508160a01c60070b8560070b12908115611298575b8115611280575b8115611269575b506112455761ffff8260481c16151580611233575b6111b9575b5050600435600052600960205260406000209060405192611007846125b6565b602435845260443560208501528560070b604085015260070b606084015260070b60808301528054600160401b8110156109b25761104a916001820181556126a5565b9190916111a357608060026110e7938351815560208401516001820155019160408101516001600160401b0319845416906001600160401b03161783556110bb606082015160070b849081549060401b67ffffffffffffffff60401b169067ffffffffffffffff60401b1916179055565b0151815460809190911b67ffffffffffffffff60801b1667ffffffffffffffff60801b19909116179055565b604435600052600b60205260043560406000205561ffff815460481c1661ffff81146109d45781546affff000000000000000000191660019190910160481b61ffff60481b1617815561ffff9161116290825460589190911b67ffffffffffffffff60581b1667ffffffffffffffff60581b19909116178255565b5460481c1660405190815260443590602435907f34f15eb843ffba278410dec94d6ed018dbcd7f438b771255faa42192a42e2f9b602060043592a460018055005b634e487b7160e01b600052600060045260246000fd5b63ffffffff9060201c166103e88160070b02918260070b9283036109d45760581c60070b918660070b90838203677fffffffffffffff8113677fffffffffffffff198212176109d45760070b126112105750610fe7565b6064935060405192633ae02db960e21b8452600484015260248301526044820152fd5b5063ffffffff8160201c161515610fe2565b60405163bfb806bb60e01b8152600785810b600483015284900b6024820152604490fd5b60049150015460801c60070b8360070b1387610fcd565b9050600481015460401c60070b8460070b1290610fc6565b9050600481015460070b8560070b1390610fbf565b60405163321d419760e11b81526044803560048301526024820192909252fd5b604051632047f23560e21b81526044356004820152602490fd5b90506020813d602011611319575b81611302602093836125ed565b810103126101b45761131390612698565b88610f8e565b3d91506112f5565b604460405163dfcd137d60e01b815260043560048201526024356024820152fd5b602460405163616b4a8360e01b81526004356004820152fd5b346101b45760003660031901126101b4576020604051610e108152f35b346101b45760003660031901126101b4576020604051818152f35b346101b45760003660031901126101b457602060405160018152f35b346101b45760003660031901126101b4576000546040516001600160a01b039091168152602090f35b346101b45760203660031901126101b457600435600052600b6020526020604060002054604051908152f35b346101b45760003660031901126101b45761141d612540565b600080546001600160a01b0319811682556001600160a01b03167f8be0079c531659141344cd1fd0a4f28419497f9722a3daafe3b4186f6b6457e08280a3005b6101603660031901126101b457611472612502565b61ffff60243516602435036101b45763ffffffff8060443516604435036101b4578060643516606435036101b4576114a8612513565b6114b0612523565b60c43560070b60c435036101b45760e43560070b60e435036101b4576114d4612659565b341561174057610e10836064351610801561172f575b611713578060070b8260070b128015906116ff575b6116ed5761ffff60243516156116db5761152c6006549361151f8561267c565b600655606435164261268b565b6103e8908181029181830414901517156109d457602094846000526007865260406000209085825560018201336bffffffffffffffffffffffff60a01b82541617905534600283015561ffff600383019116948582549160a01b6001600160401b0360a01b169163ffffffff60e01b161763ffff000060243560101b161767ffffffff000000006044358a1b16176bffffffff000000000000000060643560401b16176001600160401b0360601b8560601b161717905561165b600482016001600160401b03198154166001600160401b0395861617815561163360c435829081549060401b67ffffffffffffffff60401b169067ffffffffffffffff60401b1916179055565b805467ffffffffffffffff60801b191667ffffffffffffffff60801b60e43560801b16179055565b61010435600582015561012435600682015561014435600782015560088101600160ff19825416179055600942910155604051923484528584015261ffff602435166040840152166060820152817f36924365dfd16e16e86593c39511c44d2a1c13a28e05c093cfb1e908aebe5c0960803393a360018055604051908152f35b60405163adf316ad60e01b8152600490fd5b604051639d3c586b60e01b8152600490fd5b5060e43560070b60c43560070b12156114ff565b6040516313b783af60e21b815260643584166004820152602490fd5b506301e133808360643516116114ea565b604051636bbdb6db60e11b8152600490fd5b346101b45760203660031901126101b45760043561176e612659565b80600052600760205260406000209060088201805460ff8116600481101561067a578015610ce257600103610cc9576103e88042029042820414421517156109d4576001600160401b03600386015460601c1610156118315760039060ff191617905560016002830154920160018060a01b0390600080808087868654165af16117f6612629565b5015610842577fbcaf9d6f28ffdbd48d1abf354b5f84d03eda4274bf2995a6b1f0a84630c01b8791602091541693604051908152a360018055005b604051630134589d60e41b815260048101849052602490fd5b346101b45760003660031901126101b4576005546040516001600160a01b039091168152602090f35b346101b45760203660031901126101b45761ffff61188f612502565b611897612540565b166103e881116118b25761ffff196002541617600255600080f35b60405162461bcd60e51b815260206004820152602360248201527f426f756e74794d61726b65743a206665652063616e6e6f74206578636565642060448201526231302560e81b6064820152608490fd5b346101b45760003660031901126101b4576020600354604051908152f35b346101b45760003660031901126101b45760206040516301e133808152f35b346101b45760003660031901126101b457602060405160108152f35b346101b45760003660031901126101b457611975612540565b61197d612659565b60008080806003548160035560018060a01b038254165af161199d612629565b50156108425760018055005b346101b45760003660031901126101b457602060405160088152f35b346101b45760e03660031901126101b4576024356001600160401b0381116101b4576119f59036906004016124d2565b610220526044356001600160401b0381116101b457611a189036906004016124d2565b610160526064356001600160401b0381116101b457611a3b9036906004016124d2565b61024052610200526084356001600160401b0381116101b457611a629036906004016124d2565b60a0526101405260a4356001600160401b0381116101b457611a889036906004016124d2565b90926001600160401b0360c435116101b457611aa93660c4356004016124d2565b61026052610120526000610100604051611ac281612587565b8281528260208201528260408201528260608201528260808201528260a08201528260c08201528260e0820152015261016051610220519081149081612376575b8161236a575b81612360575b81612353575b50156123025761022051156122e9576004356000526007602052604060002060ff600882015416600481101561067a571561066157600060e052600061010052677fffffffffffffff6101a052677fffffffffffffff196101e05260006080526000610180526040518060c052806120008101106001600160401b03612000830111176109b25780612000809296939601604052369037611bb861022051612715565b90611bc660405192836125ed565b610220518252601f19611bdb61022051612715565b0136602084013760006101c0525b610220516101c0519081101561209c576020611c1460018060a01b036004541692610160518561272c565b3560246040518094819363488dbfad60e01b835260048301525afa9081156109c857600091612062575b501561200c57611c60611c5b6101c051610240516102005161272c565b61273c565b600386015460a01c60070b9060070b121580611fe1575b80611fb4575b80611f87575b15611f385760019460005b61010051811015611f3057611ca3818561274a565b51611cb56101c051610220518861272c565b3514611cc957611cc49061267c565b611c8e565b5091945060005b611df6575b611ce6611c5b6101c051868961272c565b6101a05160070b9060070b12611ddc575b611d08611c5b6101c051868961272c565b6101e05160070b9060070b13611dc2575b611d3b611d33611c5b6101c051610240516102005161272c565b60805161275e565b608052611d60611d57611c5b6101c05160a0516101405161272c565b6101805161275e565b61018052611d786101c051610260516101205161272c565b3560ff811681036101b457611da960ff611d9f611d9982851660c051612786565b5161267c565b921660c051612786565b52611db66101c05161267c565b6101c052939093611be9565b611dd3611c5b6101c051868961272c565b6101e052611d19565b611ded611c5b6101c051868961272c565b6101a052611cf7565b611e076101c051610220518561272c565b35611e15610100518761274a565b52611e226101005161267c565b6101005260018060a01b0360055416611e426101c051610220518661272c565b604051631ce6b50f60e21b815290356004820152602081602481855afa60009181611ef4575b50611edb575b50611e806101c051610220518661272c565b3590803b156101b4576040516307567c7560e01b815260048101929092526000602483018190526001604484015260648301819052908290608490829084905af1611ecc575b50611cd5565b611ed5906125a3565b86611ec6565b61ffff611eeb911660e05161268b565b60e05287611e6e565b9091506020813d602011611f28575b81611f10602093836125ed565b810103126101b457611f2190612706565b9089611e68565b3d9150611f03565b509194611cd0565b60405162461bcd60e51b815260206004820152602160248201527f426f756e74794d61726b65743a207265636f7264206f757473696465207a6f6e6044820152606560f81b6064820152608490fd5b50611f9e611c5b6101c05160a0516101405161272c565b600486015460801c60070b9060070b1315611c83565b50611fcb611c5b6101c05160a0516101405161272c565b600486015460401c60070b9060070b1215611c7d565b50611ff9611c5b6101c051610240516102005161272c565b600486015460070b9060070b1315611c77565b60405162461bcd60e51b815260206004820152602860248201527f426f756e74794d61726b65743a20756e7665726966696564207265636f726420604482015267696e20737761726d60c01b6064820152608490fd5b90506020813d602011612094575b8161207d602093836125ed565b810103126101b45761208e90612698565b87611c3e565b3d9150612070565b60008060005b61010081106122ab575061010051600a8111156122a557600a905b6103e89082828102048214831517156109d457801561229c576120e29060e0516126c1565b915b8461271081020461271014851517156109d45761211d60039361212293612116610120986127106102205191026126c1565b930261268b565b61268b565b0461271081111561229357506127105b6102205160070b9161215361214984608051612798565b9361018051612798565b6040519361216085612587565b600435855261010051602086015261022051604086015261ffff8416606086015260ff831660808601528060070b60a08601528160070b60c08601526101a05160070b60e086015260ff6101e05160070b938461010088015261ffff6040519661010051885261022051602089015216604087015216606085015260070b608084015260070b60a08301526101a05160070b60c083015260e08201527f27ac23b194a7076145dc8eae5267a9483caccbbdb3f36aebbb7397eafd8235d461010060043592a26101006040519180518352602081015160208401526040810151604084015261ffff606082015116606084015260ff608082015116608084015260a081015160070b60a084015260c081015160070b60c084015260e081015160070b60e0840152015160070b610100820152f35b61ffff16612132565b506000916120e4565b806120bd565b826122b88260c051612786565b51116122cd575b6122c89061267c565b6120a2565b8092506122dd915060c051612786565b519060ff8116906122bf565b602460405163287ae57960e01b81526004356004820152fd5b60405162461bcd60e51b815260206004820152602360248201527f426f756e74794d61726b65743a206172726179206c656e677468206d69736d616044820152620e8c6d60eb1b6064820152608490fd5b9050610260511485611b15565b8381149150611b0f565b60a05181149150611b09565b6102405181149150611b03565b346101b45760203660031901126101b45760043560005260096020526020604060002054604051908152f35b346101b45760003660031901126101b457602060405160048152f35b346101b4576123d9366124bc565b90600060606040516123ea8161256c565b8281528260208201528260408201520152600052600860205260406000209060005260205260806040600020604051906124238261256c565b5460ff8116151591828152602081016001600160401b03808460081c1682526040830191606061ffff94858760481c168552019460581c60070b855260405195865251166020850152511660408301525160070b6060820152f35b346101b45760003660031901126101b457602061ffff60025416604051908152f35b346101b45760003660031901126101b457806298968060209252f35b60409060031901126101b4576004359060243590565b9181601f840112156101b4578235916001600160401b0383116101b4576020808501948460051b0101116101b457565b6004359061ffff821682036101b457565b608435908160070b82036101b457565b60a435908160070b82036101b457565b90600482101561067a5752565b6000546001600160a01b0316330361255457565b60405163118cdaa760e01b8152336004820152602490fd5b608081019081106001600160401b038211176109b257604052565b61012081019081106001600160401b038211176109b257604052565b6001600160401b0381116109b257604052565b60a081019081106001600160401b038211176109b257604052565b61022081019081106001600160401b038211176109b257604052565b90601f801991011681019081106001600160401b038211176109b257604052565b6001600160401b0381116109b257601f01601f191660200190565b3d15612654573d9061263a8261260e565b9161264860405193846125ed565b82523d6000602084013e565b606090565b60026001541461266a576002600155565b604051633ee5aeb560e01b8152600490fd5b60001981146109d45760010190565b919082018092116109d457565b519081151582036101b457565b8054821015610c47576000526003602060002091020190600090565b81156126cb570490565b634e487b7160e01b600052601260045260246000fd5b51906001600160401b03821682036101b457565b519063ffffffff821682036101b457565b519061ffff821682036101b457565b6001600160401b0381116109b25760051b60200190565b9190811015610c475760051b0190565b358060070b81036101b45790565b8051821015610c475760209160051b010190565b9060070b9060070b0190677fffffffffffffff198212677fffffffffffffff8313176109d457565b90610100811015610c475760051b0190565b60070b9060070b9081156126cb57677fffffffffffffff1981146000198314166109d457059056fea26469706673582212207a9fdf16f8763e3d9c4f57f9ffe5c3ea522caac354aa51780dc4de231e6ebdee64736f6c63430008140033","opcodes":"PUSH1 0x80 CALLVALUE PUSH3 0x116 JUMPI PUSH1 0x1F PUSH3 0x293D CODESIZE DUP2 SWAP1 SUB SWAP2 DUP3 ADD PUSH1 0x1F NOT AND DUP4 ADD SWAP2 PUSH1 0x1 PUSH1 0x1 PUSH1 0x40 SHL SUB DUP4 GT DUP5 DUP5 LT OR PUSH3 0x11B JUMPI DUP1 DUP5 SWAP3 PUSH1 0x60 SWAP5 PUSH1 0x40 MSTORE DUP4 CODECOPY DUP2 ADD SUB SLT PUSH3 0x116 JUMPI PUSH3 0x4D DUP2 PUSH3 0x131 JUMP JUMPDEST SWAP1 PUSH1 0x40 PUSH3 0x5E PUSH1 0x20 DUP4 ADD PUSH3 0x131 JUMP JUMPDEST SWAP2 ADD MLOAD SWAP1 PUSH2 0xFFFF DUP3 AND DUP1 SWAP3 SUB PUSH3 0x116 JUMPI CALLER ISZERO PUSH3 0xFD JUMPI PUSH1 0x0 DUP1 SLOAD CALLER PUSH1 0x1 PUSH1 0x1 PUSH1 0xA0 SHL SUB NOT DUP1 DUP4 AND DUP3 OR DUP5 SSTORE PUSH1 0x40 MLOAD SWAP7 SWAP1 SWAP5 PUSH1 0x1 PUSH1 0x1 PUSH1 0xA0 SHL SUB SWAP5 SWAP1 SWAP4 DUP6 SWAP4 SWAP2 SWAP1 DUP5 AND SWAP1 PUSH32 0x8BE0079C531659141344CD1FD0A4F28419497F9722A3DAAFE3B4186F6B6457E0 SWAP1 DUP1 LOG3 PUSH1 0x1 DUP1 SSTORE AND DUP4 PUSH1 0x4 SLOAD AND OR PUSH1 0x4 SSTORE AND SWAP1 PUSH1 0x5 SLOAD AND OR PUSH1 0x5 SSTORE PUSH2 0xFFFF NOT PUSH1 0x2 SLOAD AND OR PUSH1 0x2 SSTORE PUSH1 0x1 PUSH1 0x6 SSTORE PUSH2 0x27F6 SWAP1 DUP2 PUSH3 0x147 DUP3 CODECOPY RETURN JUMPDEST PUSH1 0x40 MLOAD PUSH4 0x1E4FBDF7 PUSH1 0xE0 SHL DUP2 MSTORE PUSH1 0x0 PUSH1 0x4 DUP3 ADD MSTORE PUSH1 0x24 SWAP1 REVERT JUMPDEST PUSH1 0x0 DUP1 REVERT JUMPDEST PUSH4 0x4E487B71 PUSH1 0xE0 SHL PUSH1 0x0 MSTORE PUSH1 0x41 PUSH1 0x4 MSTORE PUSH1 0x24 PUSH1 0x0 REVERT JUMPDEST MLOAD SWAP1 PUSH1 0x1 PUSH1 0x1 PUSH1 0xA0 SHL SUB DUP3 AND DUP3 SUB PUSH3 0x116 JUMPI JUMP INVALID PUSH2 0x280 DUP1 PUSH1 0x40 MSTORE PUSH1 0x4 CALLDATASIZE LT ISZERO PUSH2 0x14 JUMPI PUSH1 0x0 DUP1 REVERT JUMPDEST PUSH1 0x0 CALLDATALOAD PUSH1 0xE0 SHR SWAP1 DUP2 PUSH4 0x11955A8D EQ PUSH2 0x24A0 JUMPI POP DUP1 PUSH4 0x22DCD13E EQ PUSH2 0x247E JUMPI DUP1 PUSH4 0x2CD5A77A EQ PUSH2 0x23CB JUMPI DUP1 PUSH4 0x327CEA62 EQ PUSH2 0x23AF JUMPI DUP1 PUSH4 0x423AEE31 EQ PUSH2 0x2383 JUMPI DUP1 PUSH4 0x44C5E39B EQ PUSH2 0x19C5 JUMPI DUP1 PUSH4 0x4636F70A EQ PUSH2 0x19A9 JUMPI DUP1 PUSH4 0x476343EE EQ PUSH2 0x195C JUMPI DUP1 PUSH4 0x48591E55 EQ PUSH2 0x1940 JUMPI DUP1 PUSH4 0x496E62F7 EQ PUSH2 0x1921 JUMPI DUP1 PUSH4 0x587F5ED7 EQ PUSH2 0x1903 JUMPI DUP1 PUSH4 0x5CBC742C EQ PUSH2 0x1873 JUMPI DUP1 PUSH4 0x5EFB870A EQ PUSH2 0x184A JUMPI DUP1 PUSH4 0x5FAEDCEF EQ PUSH2 0x1752 JUMPI DUP1 PUSH4 0x6569DAC4 EQ PUSH2 0x145D JUMPI DUP1 PUSH4 0x715018A6 EQ PUSH2 0x1404 JUMPI DUP1 PUSH4 0x85C3DD80 EQ PUSH2 0x13D8 JUMPI DUP1 PUSH4 0x8DA5CB5B EQ PUSH2 0x13AF JUMPI DUP1 PUSH4 0x925AC9B1 EQ PUSH2 0x1393 JUMPI DUP1 PUSH4 0xB52947E4 EQ PUSH2 0x1378 JUMPI DUP1 PUSH4 0xBD62AD22 EQ PUSH2 0x135B JUMPI DUP1 PUSH4 0xC9AE98BD EQ PUSH2 0xEA2 JUMPI DUP1 PUSH4 0xD5F9897F EQ PUSH2 0xE3F JUMPI DUP1 PUSH4 0xD7B5A84A EQ PUSH2 0xE23 JUMPI DUP1 PUSH4 0xDC2F8744 EQ PUSH2 0xD17 JUMPI DUP1 PUSH4 0xE144064A EQ PUSH2 0xCFB JUMPI DUP1 PUSH4 0xE489232D EQ PUSH2 0xA77 JUMPI DUP1 PUSH4 0xEACD3AB3 EQ PUSH2 0x690 JUMPI DUP1 PUSH4 0xEE8C4BBF EQ PUSH2 0x3DD JUMPI DUP1 PUSH4 0xF1B8A98C EQ PUSH2 0x318 JUMPI DUP1 PUSH4 0xF1CF7905 EQ PUSH2 0x2EF JUMPI DUP1 PUSH4 0xF2FDE38B EQ PUSH2 0x25F JUMPI DUP1 PUSH4 0xF4F47683 EQ PUSH2 0x1B9 JUMPI PUSH4 0xFD14FAD4 EQ PUSH2 0x196 JUMPI PUSH1 0x0 DUP1 REVERT JUMPDEST CALLVALUE PUSH2 0x1B4 JUMPI PUSH1 0x0 CALLDATASIZE PUSH1 0x3 NOT ADD SLT PUSH2 0x1B4 JUMPI PUSH1 0x20 PUSH1 0x6 SLOAD PUSH1 0x40 MLOAD SWAP1 DUP2 MSTORE RETURN JUMPDEST PUSH1 0x0 DUP1 REVERT JUMPDEST CALLVALUE PUSH2 0x1B4 JUMPI PUSH1 0x20 DUP1 PUSH1 0x3 NOT CALLDATASIZE ADD SLT PUSH2 0x1B4 JUMPI PUSH1 0x4 CALLDATALOAD PUSH1 0x0 MSTORE PUSH1 0xA DUP2 MSTORE PUSH1 0x40 PUSH1 0x0 KECCAK256 PUSH1 0x40 MLOAD SWAP1 DUP2 DUP4 DUP3 SLOAD SWAP2 DUP3 DUP2 MSTORE ADD SWAP1 DUP2 SWAP3 PUSH1 0x0 MSTORE DUP5 PUSH1 0x0 KECCAK256 SWAP1 PUSH1 0x0 JUMPDEST DUP7 DUP3 DUP3 LT PUSH2 0x24B JUMPI DUP7 DUP7 PUSH2 0x20B DUP3 DUP9 SUB DUP4 PUSH2 0x25ED JUMP JUMPDEST PUSH1 0x40 MLOAD SWAP3 DUP4 SWAP3 DUP2 DUP5 ADD SWAP1 DUP3 DUP6 MSTORE MLOAD DUP1 SWAP2 MSTORE PUSH1 0x40 DUP5 ADD SWAP3 SWAP2 PUSH1 0x0 JUMPDEST DUP3 DUP2 LT PUSH2 0x234 JUMPI POP POP POP POP SUB SWAP1 RETURN JUMPDEST DUP4 MLOAD DUP6 MSTORE DUP7 SWAP6 POP SWAP4 DUP2 ADD SWAP4 SWAP3 DUP2 ADD SWAP3 PUSH1 0x1 ADD PUSH2 0x225 JUMP JUMPDEST DUP4 SLOAD DUP6 MSTORE SWAP1 SWAP4 ADD SWAP3 PUSH1 0x1 SWAP3 DUP4 ADD SWAP3 ADD PUSH2 0x1F5 JUMP JUMPDEST CALLVALUE PUSH2 0x1B4 JUMPI PUSH1 0x20 CALLDATASIZE PUSH1 0x3 NOT ADD SLT PUSH2 0x1B4 JUMPI PUSH1 0x4 CALLDATALOAD PUSH1 0x1 PUSH1 0x1 PUSH1 0xA0 SHL SUB DUP2 DUP2 AND SWAP2 DUP3 SWAP1 SUB PUSH2 0x1B4 JUMPI PUSH2 0x28E PUSH2 0x2540 JUMP JUMPDEST DUP2 ISZERO PUSH2 0x2D6 JUMPI PUSH1 0x0 SLOAD DUP3 PUSH12 0xFFFFFFFFFFFFFFFFFFFFFFFF PUSH1 0xA0 SHL DUP3 AND OR PUSH1 0x0 SSTORE AND PUSH32 0x8BE0079C531659141344CD1FD0A4F28419497F9722A3DAAFE3B4186F6B6457E0 PUSH1 0x0 DUP1 LOG3 STOP JUMPDEST PUSH1 0x40 MLOAD PUSH4 0x1E4FBDF7 PUSH1 0xE0 SHL DUP2 MSTORE PUSH1 0x0 PUSH1 0x4 DUP3 ADD MSTORE PUSH1 0x24 SWAP1 REVERT JUMPDEST CALLVALUE PUSH2 0x1B4 JUMPI PUSH1 0x0 CALLDATASIZE PUSH1 0x3 NOT ADD SLT PUSH2 0x1B4 JUMPI PUSH1 0x4 SLOAD PUSH1 0x40 MLOAD PUSH1 0x1 PUSH1 0x1 PUSH1 0xA0 SHL SUB SWAP1 SWAP2 AND DUP2 MSTORE PUSH1 0x20 SWAP1 RETURN JUMPDEST CALLVALUE PUSH2 0x1B4 JUMPI PUSH1 0x40 CALLDATASIZE PUSH1 0x3 NOT ADD SLT PUSH2 0x1B4 JUMPI PUSH1 0x0 PUSH1 0x80 PUSH1 0x40 MLOAD PUSH2 0x339 DUP2 PUSH2 0x25B6 JUMP JUMPDEST DUP3 DUP2 MSTORE DUP3 PUSH1 0x20 DUP3 ADD MSTORE DUP3 PUSH1 0x40 DUP3 ADD MSTORE DUP3 PUSH1 0x60 DUP3 ADD MSTORE ADD MSTORE PUSH1 0x4 CALLDATALOAD PUSH1 0x0 MSTORE PUSH1 0x9 PUSH1 0x20 MSTORE PUSH1 0xA0 PUSH2 0x36D PUSH1 0x24 CALLDATALOAD PUSH1 0x40 PUSH1 0x0 KECCAK256 PUSH2 0x26A5 JUMP JUMPDEST POP PUSH1 0x40 MLOAD SWAP1 PUSH2 0x37B DUP3 PUSH2 0x25B6 JUMP JUMPDEST DUP1 SLOAD SWAP2 DUP3 DUP2 MSTORE PUSH1 0x2 PUSH1 0x1 DUP4 ADD SLOAD SWAP3 PUSH1 0x20 DUP4 ADD SWAP4 DUP5 MSTORE ADD SLOAD SWAP1 PUSH1 0x40 DUP2 ADD PUSH1 0x7 SWAP4 DUP4 DUP6 SIGNEXTEND DUP3 MSTORE PUSH1 0x80 PUSH1 0x60 DUP5 ADD SWAP4 DUP6 PUSH1 0x40 SHR DUP8 SIGNEXTEND DUP6 MSTORE ADD SWAP4 PUSH1 0x80 SHR DUP6 SIGNEXTEND DUP5 MSTORE PUSH1 0x40 MLOAD SWAP6 DUP7 MSTORE MLOAD PUSH1 0x20 DUP7 ADD MSTORE MLOAD DUP4 SIGNEXTEND PUSH1 0x40 DUP6 ADD MSTORE MLOAD DUP3 SIGNEXTEND PUSH1 0x60 DUP5 ADD MSTORE MLOAD SWAP1 SIGNEXTEND PUSH1 0x80 DUP3 ADD MSTORE RETURN JUMPDEST CALLVALUE PUSH2 0x1B4 JUMPI PUSH1 0x20 CALLDATASIZE PUSH1 0x3 NOT ADD SLT PUSH2 0x1B4 JUMPI PUSH1 0x0 PUSH2 0x200 PUSH1 0x40 MLOAD PUSH2 0x3FF DUP2 PUSH2 0x25D1 JUMP JUMPDEST DUP3 DUP2 MSTORE DUP3 PUSH1 0x20 DUP3 ADD MSTORE DUP3 PUSH1 0x40 DUP3 ADD MSTORE DUP3 PUSH1 0x60 DUP3 ADD MSTORE DUP3 PUSH1 0x80 DUP3 ADD MSTORE DUP3 PUSH1 0xA0 DUP3 ADD MSTORE DUP3 PUSH1 0xC0 DUP3 ADD MSTORE DUP3 PUSH1 0xE0 DUP3 ADD MSTORE DUP3 PUSH2 0x100 DUP3 ADD MSTORE DUP3 PUSH2 0x120 DUP3 ADD MSTORE DUP3 PUSH2 0x140 DUP3 ADD MSTORE DUP3 PUSH2 0x160 DUP3 ADD MSTORE DUP3 PUSH2 0x180 DUP3 ADD MSTORE DUP3 PUSH2 0x1A0 DUP3 ADD MSTORE DUP3 PUSH2 0x1C0 DUP3 ADD MSTORE DUP3 PUSH2 0x1E0 DUP3 ADD MSTORE ADD MSTORE PUSH1 0x4 CALLDATALOAD PUSH1 0x0 MSTORE PUSH1 0x7 PUSH1 0x20 MSTORE PUSH1 0x40 PUSH1 0x0 KECCAK256 PUSH1 0xFF PUSH1 0x8 DUP3 ADD SLOAD AND PUSH1 0x4 DUP2 LT ISZERO PUSH2 0x67A JUMPI DUP1 ISZERO PUSH2 0x661 JUMPI PUSH2 0x200 PUSH2 0x220 SWAP3 PUSH1 0x9 PUSH1 0x40 MLOAD SWAP2 PUSH2 0x4A3 DUP4 PUSH2 0x25D1 JUMP JUMPDEST DUP1 SLOAD SWAP5 DUP6 DUP5 MSTORE PUSH1 0x1 DUP1 PUSH1 0xA0 SHL SUB PUSH1 0x1 DUP4 ADD SLOAD AND PUSH1 0x20 DUP6 ADD MSTORE PUSH1 0x2 DUP3 ADD SLOAD PUSH1 0x40 DUP6 ADD MSTORE PUSH1 0x3 DUP3 ADD SLOAD PUSH2 0xFFFF DUP2 AND PUSH1 0x60 DUP7 ADD MSTORE PUSH2 0xFFFF DUP2 PUSH1 0x10 SHR AND PUSH1 0x80 DUP7 ADD MSTORE PUSH4 0xFFFFFFFF DUP2 PUSH1 0x20 SHR AND PUSH1 0xA0 DUP7 ADD MSTORE PUSH4 0xFFFFFFFF DUP2 PUSH1 0x40 SHR AND PUSH1 0xC0 DUP7 ADD MSTORE PUSH1 0x1 PUSH1 0x1 PUSH1 0x40 SHL SUB DUP2 PUSH1 0x60 SHR AND PUSH1 0xE0 DUP7 ADD MSTORE PUSH1 0xA0 SHR PUSH1 0x7 SIGNEXTEND PUSH2 0x100 DUP6 ADD MSTORE PUSH1 0x4 DUP3 ADD SLOAD DUP1 PUSH1 0x7 SIGNEXTEND PUSH2 0x120 DUP7 ADD MSTORE DUP1 PUSH1 0x40 SHR PUSH1 0x7 SIGNEXTEND PUSH2 0x140 DUP7 ADD MSTORE PUSH1 0x80 SHR PUSH1 0x7 SIGNEXTEND PUSH2 0x160 DUP6 ADD MSTORE PUSH1 0x5 DUP3 ADD SLOAD PUSH2 0x180 DUP6 ADD MSTORE PUSH1 0x6 DUP3 ADD SLOAD PUSH2 0x1A0 DUP6 ADD MSTORE PUSH1 0x7 DUP3 ADD SLOAD PUSH2 0x1C0 DUP6 ADD MSTORE PUSH2 0x1E0 DUP5 ADD MSTORE ADD SLOAD DUP3 DUP3 ADD MSTORE PUSH1 0x40 MLOAD SWAP3 DUP4 MSTORE PUSH1 0x1 DUP1 PUSH1 0xA0 SHL SUB PUSH1 0x20 DUP3 ADD MLOAD AND PUSH1 0x20 DUP5 ADD MSTORE PUSH1 0x40 DUP2 ADD MLOAD PUSH1 0x40 DUP5 ADD MSTORE PUSH2 0xFFFF PUSH1 0x60 DUP3 ADD MLOAD AND PUSH1 0x60 DUP5 ADD MSTORE PUSH2 0xFFFF PUSH1 0x80 DUP3 ADD MLOAD AND PUSH1 0x80 DUP5 ADD MSTORE PUSH4 0xFFFFFFFF PUSH1 0xA0 DUP3 ADD MLOAD AND PUSH1 0xA0 DUP5 ADD MSTORE PUSH4 0xFFFFFFFF PUSH1 0xC0 DUP3 ADD MLOAD AND PUSH1 0xC0 DUP5 ADD MSTORE PUSH1 0x1 PUSH1 0x1 PUSH1 0x40 SHL SUB PUSH1 0xE0 DUP3 ADD MLOAD AND PUSH1 0xE0 DUP5 ADD MSTORE PUSH2 0x100 DUP2 ADD MLOAD PUSH1 0x7 SIGNEXTEND PUSH2 0x100 DUP5 ADD MSTORE PUSH2 0x120 DUP2 ADD MLOAD PUSH1 0x7 SIGNEXTEND PUSH2 0x120 DUP5 ADD MSTORE PUSH2 0x140 DUP2 ADD MLOAD PUSH1 0x7 SIGNEXTEND PUSH2 0x140 DUP5 ADD MSTORE PUSH2 0x160 DUP2 ADD MLOAD PUSH1 0x7 SIGNEXTEND PUSH2 0x160 DUP5 ADD MSTORE PUSH2 0x180 DUP2 ADD MLOAD PUSH2 0x180 DUP5 ADD MSTORE PUSH2 0x1A0 DUP2 ADD MLOAD PUSH2 0x1A0 DUP5 ADD MSTORE PUSH2 0x1C0 DUP2 ADD MLOAD PUSH2 0x1C0 DUP5 ADD MSTORE PUSH2 0x657 PUSH2 0x1E0 DUP3 ADD MLOAD PUSH2 0x1E0 DUP6 ADD SWAP1 PUSH2 0x2533 JUMP JUMPDEST ADD MLOAD PUSH2 0x200 DUP3 ADD MSTORE RETURN JUMPDEST PUSH1 0x24 PUSH1 0x40 MLOAD PUSH4 0x728640F3 PUSH1 0xE1 SHL DUP2 MSTORE PUSH1 0x4 CALLDATALOAD PUSH1 0x4 DUP3 ADD MSTORE REVERT JUMPDEST PUSH4 0x4E487B71 PUSH1 0xE0 SHL PUSH1 0x0 MSTORE PUSH1 0x21 PUSH1 0x4 MSTORE PUSH1 0x24 PUSH1 0x0 REVERT JUMPDEST CALLVALUE PUSH2 0x1B4 JUMPI PUSH2 0x69E CALLDATASIZE PUSH2 0x24BC JUMP JUMPDEST PUSH2 0x6A6 PUSH2 0x2659 JUMP JUMPDEST DUP2 PUSH1 0x0 MSTORE PUSH1 0x20 SWAP2 PUSH1 0x7 DUP4 MSTORE PUSH1 0x40 PUSH1 0x0 KECCAK256 PUSH1 0x8 DUP2 ADD SWAP1 DUP2 SLOAD SWAP2 PUSH1 0xFF DUP4 AND PUSH1 0x4 DUP2 LT ISZERO PUSH2 0x67A JUMPI DUP1 ISZERO PUSH2 0xA5E JUMPI PUSH1 0x2 DUP2 EQ PUSH2 0xA45 JUMPI PUSH1 0x1 SUB PUSH2 0xA2C JUMPI DUP4 PUSH1 0x0 MSTORE PUSH1 0x8 DUP7 MSTORE PUSH1 0x40 PUSH1 0x0 KECCAK256 DUP6 PUSH1 0x0 MSTORE DUP7 MSTORE PUSH1 0x40 PUSH1 0x0 KECCAK256 SLOAD SWAP3 PUSH1 0xFF DUP5 AND ISZERO PUSH2 0xA0E JUMPI PUSH2 0xFFFF DUP1 SWAP5 PUSH1 0x48 SHR AND DUP5 PUSH1 0x3 DUP6 ADD SLOAD PUSH1 0x10 SHR AND SWAP1 DUP2 DUP2 LT PUSH2 0x9EA JUMPI POP POP SWAP1 PUSH1 0x2 DUP1 SWAP4 SWAP3 PUSH1 0xFF NOT AND OR SWAP1 SSTORE ADD SLOAD SWAP1 PUSH1 0x2 SLOAD AND DUP1 DUP3 MUL SWAP1 DUP3 DUP3 DIV EQ DUP3 ISZERO OR ISZERO PUSH2 0x9D4 JUMPI PUSH2 0x2710 SWAP1 DIV DUP1 DUP3 SUB SWAP2 DUP3 GT PUSH2 0x9D4 JUMPI PUSH2 0x75F SWAP1 PUSH1 0x3 SLOAD PUSH2 0x268B JUMP JUMPDEST PUSH1 0x3 SSTORE PUSH1 0x5 SLOAD PUSH1 0x40 MLOAD PUSH4 0x59D902ED PUSH1 0xE0 SHL DUP2 MSTORE PUSH1 0x4 DUP2 ADD DUP6 SWAP1 MSTORE PUSH1 0x1 PUSH1 0x1 PUSH1 0xA0 SHL SUB SWAP6 SWAP2 PUSH1 0x0 SWAP1 DUP3 SWAP1 PUSH1 0x24 SWAP1 DUP3 SWAP1 DUP11 AND GAS STATICCALL DUP1 ISZERO PUSH2 0x9C8 JUMPI DUP7 SWAP2 PUSH1 0x0 SWAP2 PUSH2 0x854 JUMPI JUMPDEST POP MLOAD AND SWAP5 PUSH1 0x0 DUP1 DUP1 DUP1 DUP7 DUP11 GAS CALL PUSH2 0x7B6 PUSH2 0x2629 JUMP JUMPDEST POP ISZERO PUSH2 0x842 JUMPI PUSH1 0x5 SLOAD AND SWAP2 DUP3 EXTCODESIZE ISZERO PUSH2 0x1B4 JUMPI PUSH1 0x40 MLOAD PUSH4 0x7567C75 PUSH1 0xE0 SHL DUP2 MSTORE PUSH1 0x4 DUP2 ADD DUP7 SWAP1 MSTORE PUSH1 0x0 PUSH1 0x24 DUP3 ADD DUP2 SWAP1 MSTORE PUSH1 0x1 PUSH1 0x44 DUP4 ADD MSTORE PUSH1 0x64 DUP3 ADD DUP2 SWAP1 MSTORE PUSH32 0x26EF85F0DAAC61FC17BF2398563CB3E2D7731117F76C2B14F2FDBBB6BAD62BAC SWAP5 DUP3 SWAP1 PUSH1 0x84 SWAP1 DUP3 SWAP1 DUP5 SWAP1 GAS CALL PUSH2 0x833 JUMPI JUMPDEST POP PUSH1 0x40 MLOAD SWAP1 DUP2 MSTORE LOG4 PUSH1 0x1 DUP1 SSTORE STOP JUMPDEST PUSH2 0x83C SWAP1 PUSH2 0x25A3 JUMP JUMPDEST DUP7 PUSH2 0x825 JUMP JUMPDEST PUSH1 0x40 MLOAD PUSH4 0x12171D83 PUSH1 0xE3 SHL DUP2 MSTORE PUSH1 0x4 SWAP1 REVERT JUMPDEST SWAP2 POP POP RETURNDATASIZE DUP1 PUSH1 0x0 DUP4 RETURNDATACOPY PUSH2 0x867 DUP2 DUP4 PUSH2 0x25ED JUMP JUMPDEST DUP2 ADD DUP3 DUP3 DUP3 SUB SLT PUSH2 0x1B4 JUMPI DUP2 MLOAD PUSH1 0x1 PUSH1 0x1 PUSH1 0x40 SHL SUB SWAP3 DUP4 DUP3 GT PUSH2 0x1B4 JUMPI ADD SWAP1 PUSH2 0x140 SWAP3 DUP4 DUP4 DUP4 SUB SLT PUSH2 0x1B4 JUMPI PUSH1 0x40 MLOAD SWAP4 DUP5 ADD DUP5 DUP2 LT DUP3 DUP3 GT OR PUSH2 0x9B2 JUMPI PUSH1 0x40 MSTORE DUP3 MLOAD DUP10 DUP2 AND DUP2 SUB PUSH2 0x1B4 JUMPI DUP5 MSTORE PUSH2 0x8BF DUP6 DUP5 ADD PUSH2 0x26E1 JUMP JUMPDEST DUP6 DUP6 ADD MSTORE PUSH2 0x8CF PUSH1 0x40 DUP5 ADD PUSH2 0x26E1 JUMP JUMPDEST PUSH1 0x40 DUP6 ADD MSTORE PUSH1 0x60 DUP4 ADD MLOAD PUSH1 0x60 DUP6 ADD MSTORE PUSH2 0x8EA PUSH1 0x80 DUP5 ADD PUSH2 0x2698 JUMP JUMPDEST PUSH1 0x80 DUP6 ADD MSTORE PUSH1 0xA0 DUP4 ADD MLOAD SWAP1 DUP2 GT PUSH2 0x1B4 JUMPI DUP3 ADD DUP2 PUSH1 0x1F DUP3 ADD SLT ISZERO PUSH2 0x1B4 JUMPI DUP1 MLOAD SWAP1 PUSH2 0x914 DUP3 PUSH2 0x260E JUMP JUMPDEST SWAP3 PUSH2 0x922 PUSH1 0x40 MLOAD SWAP5 DUP6 PUSH2 0x25ED JUMP JUMPDEST DUP3 DUP5 MSTORE DUP7 DUP4 DUP4 ADD ADD GT PUSH2 0x1B4 JUMPI DUP10 SWAP5 SWAP4 SWAP3 SWAP2 DUP7 SWAP2 PUSH1 0x0 JUMPDEST DUP3 DUP2 LT PUSH2 0x99B JUMPI POP POP SWAP1 PUSH1 0x0 SWAP2 DUP4 ADD ADD MSTORE PUSH1 0xA0 DUP4 ADD MSTORE PUSH2 0x95B PUSH1 0xC0 DUP3 ADD PUSH2 0x26F5 JUMP JUMPDEST PUSH1 0xC0 DUP4 ADD MSTORE PUSH2 0x96C PUSH1 0xE0 DUP3 ADD PUSH2 0x26F5 JUMP JUMPDEST PUSH1 0xE0 DUP4 ADD MSTORE PUSH2 0x100 PUSH2 0x97F DUP2 DUP4 ADD PUSH2 0x26F5 JUMP JUMPDEST SWAP1 DUP4 ADD MSTORE PUSH2 0x991 PUSH2 0x120 DUP1 SWAP3 ADD PUSH2 0x2706 JUMP JUMPDEST SWAP1 DUP3 ADD MSTORE DUP8 PUSH2 0x7A1 JUMP JUMPDEST DUP2 DUP2 ADD DUP5 ADD MLOAD DUP6 DUP3 ADD DUP6 ADD MSTORE DUP13 SWAP8 POP DUP9 SWAP4 ADD PUSH2 0x939 JUMP JUMPDEST PUSH4 0x4E487B71 PUSH1 0xE0 SHL PUSH1 0x0 MSTORE PUSH1 0x41 PUSH1 0x4 MSTORE PUSH1 0x24 PUSH1 0x0 REVERT JUMPDEST PUSH1 0x40 MLOAD RETURNDATASIZE PUSH1 0x0 DUP3 RETURNDATACOPY RETURNDATASIZE SWAP1 REVERT JUMPDEST PUSH4 0x4E487B71 PUSH1 0xE0 SHL PUSH1 0x0 MSTORE PUSH1 0x11 PUSH1 0x4 MSTORE PUSH1 0x24 PUSH1 0x0 REVERT JUMPDEST PUSH1 0x64 SWAP2 DUP8 SWAP2 PUSH1 0x40 MLOAD SWAP3 PUSH4 0x6BB83139 PUSH1 0xE1 SHL DUP5 MSTORE PUSH1 0x4 DUP5 ADD MSTORE PUSH1 0x24 DUP4 ADD MSTORE PUSH1 0x44 DUP3 ADD MSTORE REVERT JUMPDEST PUSH1 0x44 DUP6 DUP8 PUSH1 0x40 MLOAD SWAP2 PUSH4 0xDFCD137D PUSH1 0xE0 SHL DUP4 MSTORE PUSH1 0x4 DUP4 ADD MSTORE PUSH1 0x24 DUP3 ADD MSTORE REVERT JUMPDEST PUSH1 0x40 MLOAD PUSH4 0x616B4A83 PUSH1 0xE0 SHL DUP2 MSTORE PUSH1 0x4 DUP2 ADD DUP6 SWAP1 MSTORE PUSH1 0x24 SWAP1 REVERT JUMPDEST PUSH1 0x40 MLOAD PUSH4 0x10670CD1 PUSH1 0xE0 SHL DUP2 MSTORE PUSH1 0x4 DUP2 ADD DUP7 SWAP1 MSTORE PUSH1 0x24 SWAP1 REVERT JUMPDEST PUSH1 0x40 MLOAD PUSH4 0x728640F3 PUSH1 0xE1 SHL DUP2 MSTORE PUSH1 0x4 DUP2 ADD DUP7 SWAP1 MSTORE PUSH1 0x24 SWAP1 REVERT JUMPDEST CALLVALUE PUSH2 0x1B4 JUMPI PUSH2 0xA85 CALLDATASIZE PUSH2 0x24BC JUMP JUMPDEST SWAP1 DUP1 PUSH1 0x0 MSTORE PUSH1 0x20 PUSH1 0x7 DUP2 MSTORE PUSH1 0x40 PUSH1 0x0 KECCAK256 PUSH1 0xFF PUSH1 0x8 DUP3 ADD SLOAD AND PUSH1 0x4 DUP2 LT ISZERO PUSH2 0x67A JUMPI DUP1 ISZERO PUSH2 0xCE2 JUMPI PUSH1 0x1 SUB PUSH2 0xCC9 JUMPI PUSH2 0x3E8 DUP1 TIMESTAMP MUL SWAP1 TIMESTAMP DUP3 DIV EQ TIMESTAMP ISZERO OR ISZERO PUSH2 0x9D4 JUMPI PUSH1 0x3 SWAP2 PUSH1 0x1 PUSH1 0x1 PUSH1 0x40 SHL SUB SWAP3 DUP4 SWAP2 ADD SLOAD PUSH1 0x60 SHR AND LT PUSH2 0xCC9 JUMPI PUSH1 0x5 SLOAD PUSH1 0x40 MLOAD PUSH4 0x5EC8FE6B PUSH1 0xE0 SHL DUP2 MSTORE PUSH1 0x4 DUP2 ADD DUP7 SWAP1 MSTORE SWAP1 DUP4 SWAP1 DUP3 SWAP1 PUSH1 0x24 SWAP1 DUP3 SWAP1 PUSH1 0x1 PUSH1 0x1 PUSH1 0xA0 SHL SUB AND GAS STATICCALL SWAP1 DUP2 ISZERO PUSH2 0x9C8 JUMPI PUSH1 0x0 SWAP2 PUSH2 0xC94 JUMPI JUMPDEST POP ISZERO PUSH2 0xC7B JUMPI DUP3 PUSH1 0x0 MSTORE PUSH1 0x8 DUP3 MSTORE PUSH1 0x40 PUSH1 0x0 KECCAK256 DUP5 PUSH1 0x0 MSTORE DUP3 MSTORE PUSH1 0xFF PUSH1 0x40 PUSH1 0x0 KECCAK256 SLOAD AND PUSH2 0xC5D JUMPI TIMESTAMP AND SWAP1 PUSH2 0xBE6 PUSH1 0x40 MLOAD PUSH2 0xB52 DUP2 PUSH2 0x256C JUMP JUMPDEST PUSH1 0x1 DUP2 MSTORE DUP3 DUP2 ADD DUP5 DUP2 MSTORE PUSH1 0x0 PUSH1 0x40 DUP1 DUP5 ADD DUP3 DUP2 MSTORE PUSH1 0x60 DUP6 ADD DUP4 DUP2 MSTORE DUP10 DUP5 MSTORE PUSH1 0x8 DUP1 DUP10 MSTORE DUP4 DUP6 KECCAK256 DUP13 DUP7 MSTORE DUP10 MSTORE SWAP3 SWAP1 SWAP4 KECCAK256 SWAP5 MLOAD DUP6 SLOAD SWAP5 MLOAD SWAP2 MLOAD SWAP4 MLOAD PUSH19 0xFFFFFFFFFFFFFFFFFFFFFFFFFFFFFFFFFFFFFF NOT SWAP1 SWAP6 AND SWAP1 ISZERO ISZERO PUSH1 0xFF AND OR PUSH9 0xFFFFFFFFFFFFFFFF00 SWAP2 SWAP1 SWAP3 SHL AND OR PUSH2 0xFFFF PUSH1 0x48 SHL PUSH1 0x48 SWAP3 SWAP1 SWAP3 SHL SWAP2 SWAP1 SWAP2 AND OR PUSH8 0xFFFFFFFFFFFFFFFF PUSH1 0x58 SHL PUSH1 0x58 SWAP3 SWAP1 SWAP3 SHL SWAP2 SWAP1 SWAP2 AND OR SWAP1 SSTORE JUMP JUMPDEST DUP3 PUSH1 0x0 MSTORE PUSH1 0xA DUP2 MSTORE PUSH1 0x40 PUSH1 0x0 KECCAK256 SWAP2 DUP3 SLOAD SWAP3 PUSH1 0x1 PUSH1 0x40 SHL DUP5 LT ISZERO PUSH2 0x9B2 JUMPI PUSH1 0x1 DUP5 ADD DUP1 DUP3 SSTORE DUP5 LT ISZERO PUSH2 0xC47 JUMPI PUSH32 0x439C72668C744083584E3621696C1DA1E6E44A0ECF9EBD7E0105655B86044FD0 SWAP4 DUP7 SWAP2 PUSH1 0x0 MSTORE DUP4 PUSH1 0x0 KECCAK256 ADD SSTORE PUSH1 0x40 MLOAD SWAP1 DUP2 MSTORE LOG3 STOP JUMPDEST PUSH4 0x4E487B71 PUSH1 0xE0 SHL PUSH1 0x0 MSTORE PUSH1 0x32 PUSH1 0x4 MSTORE PUSH1 0x24 PUSH1 0x0 REVERT JUMPDEST PUSH1 0x44 DUP4 DUP6 PUSH1 0x40 MLOAD SWAP2 PUSH4 0xE548D209 PUSH1 0xE0 SHL DUP4 MSTORE PUSH1 0x4 DUP4 ADD MSTORE PUSH1 0x24 DUP3 ADD MSTORE REVERT JUMPDEST PUSH1 0x40 MLOAD PUSH4 0x159C7175 PUSH1 0xE1 SHL DUP2 MSTORE PUSH1 0x4 DUP2 ADD DUP6 SWAP1 MSTORE PUSH1 0x24 SWAP1 REVERT JUMPDEST SWAP1 POP DUP3 DUP2 DUP2 RETURNDATASIZE DUP4 GT PUSH2 0xCC2 JUMPI JUMPDEST PUSH2 0xCAB DUP2 DUP4 PUSH2 0x25ED JUMP JUMPDEST DUP2 ADD SUB SLT PUSH2 0x1B4 JUMPI PUSH2 0xCBC SWAP1 PUSH2 0x2698 JUMP JUMPDEST DUP6 PUSH2 0xB1A JUMP JUMPDEST POP RETURNDATASIZE PUSH2 0xCA1 JUMP JUMPDEST PUSH1 0x40 MLOAD PUSH4 0x616B4A83 PUSH1 0xE0 SHL DUP2 MSTORE PUSH1 0x4 DUP2 ADD DUP5 SWAP1 MSTORE PUSH1 0x24 SWAP1 REVERT JUMPDEST PUSH1 0x40 MLOAD PUSH4 0x728640F3 PUSH1 0xE1 SHL DUP2 MSTORE PUSH1 0x4 DUP2 ADD DUP6 SWAP1 MSTORE PUSH1 0x24 SWAP1 REVERT JUMPDEST CALLVALUE PUSH2 0x1B4 JUMPI PUSH1 0x0 CALLDATASIZE PUSH1 0x3 NOT ADD SLT PUSH2 0x1B4 JUMPI PUSH1 0x20 PUSH1 0x40 MLOAD PUSH1 0x40 DUP2 MSTORE RETURN JUMPDEST CALLVALUE PUSH2 0x1B4 JUMPI PUSH1 0x20 CALLDATASIZE PUSH1 0x3 NOT ADD SLT PUSH2 0x1B4 JUMPI PUSH1 0x4 CALLDATALOAD PUSH1 0x0 MSTORE PUSH2 0x220 PUSH1 0x7 DUP1 PUSH1 0x20 MSTORE PUSH1 0x40 PUSH1 0x0 KECCAK256 SWAP1 PUSH2 0xE1B DUP3 SLOAD SWAP3 PUSH1 0x1 DUP1 PUSH1 0xA0 SHL SUB PUSH1 0x1 DUP3 ADD SLOAD AND SWAP3 PUSH1 0x2 DUP3 ADD SLOAD SWAP1 PUSH1 0x3 DUP4 ADD SLOAD SWAP1 PUSH1 0x4 DUP5 ADD SLOAD SWAP1 PUSH1 0x5 DUP6 ADD SLOAD SWAP2 PUSH1 0x6 DUP7 ADD SLOAD SWAP4 DUP3 DUP8 ADD SLOAD SWAP6 PUSH1 0x9 PUSH1 0xFF PUSH1 0x8 DUP11 ADD SLOAD AND SWAP9 ADD SLOAD SWAP10 PUSH1 0x40 MLOAD SWAP12 DUP13 MSTORE PUSH1 0x20 DUP13 ADD MSTORE PUSH1 0x40 DUP12 ADD MSTORE PUSH2 0xFFFF DUP1 DUP3 AND PUSH1 0x60 DUP13 ADD MSTORE DUP2 PUSH1 0x10 SHR AND PUSH1 0x80 DUP12 ADD MSTORE PUSH4 0xFFFFFFFF DUP1 DUP3 PUSH1 0x20 SHR AND PUSH1 0xA0 DUP13 ADD MSTORE DUP2 PUSH1 0x40 SHR AND PUSH1 0xC0 DUP12 ADD MSTORE PUSH1 0x1 PUSH1 0x1 PUSH1 0x40 SHL SUB DUP2 PUSH1 0x60 SHR AND PUSH1 0xE0 DUP12 ADD MSTORE PUSH1 0xA0 SHR DUP3 SIGNEXTEND PUSH2 0x100 DUP11 ADD MSTORE DUP1 DUP3 SIGNEXTEND PUSH2 0x120 DUP11 ADD MSTORE DUP1 PUSH1 0x40 SHR DUP3 SIGNEXTEND PUSH2 0x140 DUP11 ADD MSTORE PUSH1 0x80 SHR SWAP1 SIGNEXTEND PUSH2 0x160 DUP9 ADD MSTORE PUSH2 0x180 DUP8 ADD MSTORE PUSH2 0x1A0 DUP7 ADD MSTORE PUSH2 0x1C0 DUP6 ADD MSTORE PUSH2 0x1E0 DUP5 ADD SWAP1 PUSH2 0x2533 JUMP JUMPDEST PUSH2 0x200 DUP3 ADD MSTORE RETURN JUMPDEST CALLVALUE PUSH2 0x1B4 JUMPI PUSH1 0x0 CALLDATASIZE PUSH1 0x3 NOT ADD SLT PUSH2 0x1B4 JUMPI PUSH1 0x20 PUSH1 0x40 MLOAD PUSH1 0x2 DUP2 MSTORE RETURN JUMPDEST CALLVALUE PUSH2 0x1B4 JUMPI PUSH2 0xE4D CALLDATASIZE PUSH2 0x24BC JUMP JUMPDEST SWAP1 PUSH1 0x0 MSTORE PUSH1 0x8 PUSH1 0x20 MSTORE PUSH1 0x40 PUSH1 0x0 KECCAK256 SWAP1 PUSH1 0x0 MSTORE PUSH1 0x20 MSTORE PUSH1 0x80 PUSH1 0x40 PUSH1 0x0 KECCAK256 SLOAD PUSH1 0x40 MLOAD SWAP1 PUSH1 0xFF DUP2 AND ISZERO ISZERO DUP3 MSTORE PUSH1 0x1 PUSH1 0x1 PUSH1 0x40 SHL SUB DUP2 PUSH1 0x8 SHR AND PUSH1 0x20 DUP4 ADD MSTORE PUSH2 0xFFFF DUP2 PUSH1 0x48 SHR AND PUSH1 0x40 DUP4 ADD MSTORE PUSH1 0x58 SHR PUSH1 0x7 SIGNEXTEND PUSH1 0x60 DUP3 ADD MSTORE RETURN JUMPDEST CALLVALUE PUSH2 0x1B4 JUMPI PUSH1 0xC0 CALLDATASIZE PUSH1 0x3 NOT ADD SLT PUSH2 0x1B4 JUMPI PUSH1 0x64 CALLDATALOAD DUP1 PUSH1 0x7 SIGNEXTEND DUP2 SUB PUSH2 0x1B4 JUMPI PUSH2 0xEC8 PUSH2 0x2513 JUMP JUMPDEST PUSH2 0xED0 PUSH2 0x2523 JUMP JUMPDEST SWAP2 PUSH2 0xED9 PUSH2 0x2659 JUMP JUMPDEST PUSH1 0x4 CALLDATALOAD PUSH1 0x0 MSTORE PUSH1 0x7 PUSH1 0x20 MSTORE PUSH1 0x40 PUSH1 0x0 KECCAK256 SWAP2 PUSH1 0xFF PUSH1 0x8 DUP5 ADD SLOAD AND PUSH1 0x4 DUP2 LT ISZERO PUSH2 0x67A JUMPI DUP1 ISZERO PUSH2 0x661 JUMPI PUSH1 0x1 SUB PUSH2 0x1342 JUMPI PUSH1 0x3 DUP4 ADD SLOAD SWAP3 PUSH1 0x1 PUSH1 0x1 PUSH1 0x40 SHL SUB DUP5 PUSH1 0x60 SHR AND PUSH1 0x1 PUSH1 0x1 PUSH1 0x40 SHL SUB DUP7 AND GT PUSH2 0x1342 JUMPI PUSH1 0x4 CALLDATALOAD PUSH1 0x0 MSTORE PUSH1 0x8 PUSH1 0x20 MSTORE PUSH1 0x40 PUSH1 0x0 KECCAK256 PUSH1 0x24 CALLDATALOAD PUSH1 0x0 MSTORE PUSH1 0x20 MSTORE PUSH1 0x40 PUSH1 0x0 KECCAK256 SWAP4 DUP5 SLOAD SWAP2 PUSH1 0xFF DUP4 AND ISZERO PUSH2 0x1321 JUMPI PUSH1 0x24 PUSH1 0x20 PUSH1 0x1 DUP1 PUSH1 0xA0 SHL SUB PUSH1 0x4 SLOAD AND PUSH1 0x40 MLOAD SWAP3 DUP4 DUP1 SWAP3 PUSH4 0x488DBFAD PUSH1 0xE0 SHL DUP3 MSTORE PUSH1 0x44 CALLDATALOAD PUSH1 0x4 DUP4 ADD MSTORE GAS STATICCALL SWAP1 DUP2 ISZERO PUSH2 0x9C8 JUMPI PUSH1 0x0 SWAP2 PUSH2 0x12E7 JUMPI JUMPDEST POP ISZERO PUSH2 0x12CD JUMPI PUSH1 0x44 CALLDATALOAD PUSH1 0x0 MSTORE PUSH1 0xB PUSH1 0x20 MSTORE PUSH1 0x40 PUSH1 0x0 KECCAK256 SLOAD DUP1 PUSH2 0x12AD JUMPI POP DUP2 PUSH1 0xA0 SHR PUSH1 0x7 SIGNEXTEND DUP6 PUSH1 0x7 SIGNEXTEND SLT SWAP1 DUP2 ISZERO PUSH2 0x1298 JUMPI JUMPDEST DUP2 ISZERO PUSH2 0x1280 JUMPI JUMPDEST DUP2 ISZERO PUSH2 0x1269 JUMPI JUMPDEST POP PUSH2 0x1245 JUMPI PUSH2 0xFFFF DUP3 PUSH1 0x48 SHR AND ISZERO ISZERO DUP1 PUSH2 0x1233 JUMPI JUMPDEST PUSH2 0x11B9 JUMPI JUMPDEST POP POP PUSH1 0x4 CALLDATALOAD PUSH1 0x0 MSTORE PUSH1 0x9 PUSH1 0x20 MSTORE PUSH1 0x40 PUSH1 0x0 KECCAK256 SWAP1 PUSH1 0x40 MLOAD SWAP3 PUSH2 0x1007 DUP5 PUSH2 0x25B6 JUMP JUMPDEST PUSH1 0x24 CALLDATALOAD DUP5 MSTORE PUSH1 0x44 CALLDATALOAD PUSH1 0x20 DUP6 ADD MSTORE DUP6 PUSH1 0x7 SIGNEXTEND PUSH1 0x40 DUP6 ADD MSTORE PUSH1 0x7 SIGNEXTEND PUSH1 0x60 DUP5 ADD MSTORE PUSH1 0x7 SIGNEXTEND PUSH1 0x80 DUP4 ADD MSTORE DUP1 SLOAD PUSH1 0x1 PUSH1 0x40 SHL DUP2 LT ISZERO PUSH2 0x9B2 JUMPI PUSH2 0x104A SWAP2 PUSH1 0x1 DUP3 ADD DUP2 SSTORE PUSH2 0x26A5 JUMP JUMPDEST SWAP2 SWAP1 SWAP2 PUSH2 0x11A3 JUMPI PUSH1 0x80 PUSH1 0x2 PUSH2 0x10E7 SWAP4 DUP4 MLOAD DUP2 SSTORE PUSH1 0x20 DUP5 ADD MLOAD PUSH1 0x1 DUP3 ADD SSTORE ADD SWAP2 PUSH1 0x40 DUP2 ADD MLOAD PUSH1 0x1 PUSH1 0x1 PUSH1 0x40 SHL SUB NOT DUP5 SLOAD AND SWAP1 PUSH1 0x1 PUSH1 0x1 PUSH1 0x40 SHL SUB AND OR DUP4 SSTORE PUSH2 0x10BB PUSH1 0x60 DUP3 ADD MLOAD PUSH1 0x7 SIGNEXTEND DUP5 SWAP1 DUP2 SLOAD SWAP1 PUSH1 0x40 SHL PUSH8 0xFFFFFFFFFFFFFFFF PUSH1 0x40 SHL AND SWAP1 PUSH8 0xFFFFFFFFFFFFFFFF PUSH1 0x40 SHL NOT AND OR SWAP1 SSTORE JUMP JUMPDEST ADD MLOAD DUP2 SLOAD PUSH1 0x80 SWAP2 SWAP1 SWAP2 SHL PUSH8 0xFFFFFFFFFFFFFFFF PUSH1 0x80 SHL AND PUSH8 0xFFFFFFFFFFFFFFFF PUSH1 0x80 SHL NOT SWAP1 SWAP2 AND OR SWAP1 SSTORE JUMP JUMPDEST PUSH1 0x44 CALLDATALOAD PUSH1 0x0 MSTORE PUSH1 0xB PUSH1 0x20 MSTORE PUSH1 0x4 CALLDATALOAD PUSH1 0x40 PUSH1 0x0 KECCAK256 SSTORE PUSH2 0xFFFF DUP2 SLOAD PUSH1 0x48 SHR AND PUSH2 0xFFFF DUP2 EQ PUSH2 0x9D4 JUMPI DUP2 SLOAD PUSH11 0xFFFF000000000000000000 NOT AND PUSH1 0x1 SWAP2 SWAP1 SWAP2 ADD PUSH1 0x48 SHL PUSH2 0xFFFF PUSH1 0x48 SHL AND OR DUP2 SSTORE PUSH2 0xFFFF SWAP2 PUSH2 0x1162 SWAP1 DUP3 SLOAD PUSH1 0x58 SWAP2 SWAP1 SWAP2 SHL PUSH8 0xFFFFFFFFFFFFFFFF PUSH1 0x58 SHL AND PUSH8 0xFFFFFFFFFFFFFFFF PUSH1 0x58 SHL NOT SWAP1 SWAP2 AND OR DUP3 SSTORE JUMP JUMPDEST SLOAD PUSH1 0x48 SHR AND PUSH1 0x40 MLOAD SWAP1 DUP2 MSTORE PUSH1 0x44 CALLDATALOAD SWAP1 PUSH1 0x24 CALLDATALOAD SWAP1 PUSH32 0x34F15EB843FFBA278410DEC94D6ED018DBCD7F438B771255FAA42192A42E2F9B PUSH1 0x20 PUSH1 0x4 CALLDATALOAD SWAP3 LOG4 PUSH1 0x1 DUP1 SSTORE STOP JUMPDEST PUSH4 0x4E487B71 PUSH1 0xE0 SHL PUSH1 0x0 MSTORE PUSH1 0x0 PUSH1 0x4 MSTORE PUSH1 0x24 PUSH1 0x0 REVERT JUMPDEST PUSH4 0xFFFFFFFF SWAP1 PUSH1 0x20 SHR AND PUSH2 0x3E8 DUP2 PUSH1 0x7 SIGNEXTEND MUL SWAP2 DUP3 PUSH1 0x7 SIGNEXTEND SWAP3 DUP4 SUB PUSH2 0x9D4 JUMPI PUSH1 0x58 SHR PUSH1 0x7 SIGNEXTEND SWAP2 DUP7 PUSH1 0x7 SIGNEXTEND SWAP1 DUP4 DUP3 SUB PUSH8 0x7FFFFFFFFFFFFFFF DUP2 SGT PUSH8 0x7FFFFFFFFFFFFFFF NOT DUP3 SLT OR PUSH2 0x9D4 JUMPI PUSH1 0x7 SIGNEXTEND SLT PUSH2 0x1210 JUMPI POP PUSH2 0xFE7 JUMP JUMPDEST PUSH1 0x64 SWAP4 POP PUSH1 0x40 MLOAD SWAP3 PUSH4 0x3AE02DB9 PUSH1 0xE2 SHL DUP5 MSTORE PUSH1 0x4 DUP5 ADD MSTORE PUSH1 0x24 DUP4 ADD MSTORE PUSH1 0x44 DUP3 ADD MSTORE REVERT JUMPDEST POP PUSH4 0xFFFFFFFF DUP2 PUSH1 0x20 SHR AND ISZERO ISZERO PUSH2 0xFE2 JUMP JUMPDEST PUSH1 0x40 MLOAD PUSH4 0xBFB806BB PUSH1 0xE0 SHL DUP2 MSTORE PUSH1 0x7 DUP6 DUP2 SIGNEXTEND PUSH1 0x4 DUP4 ADD MSTORE DUP5 SWAP1 SIGNEXTEND PUSH1 0x24 DUP3 ADD MSTORE PUSH1 0x44 SWAP1 REVERT JUMPDEST PUSH1 0x4 SWAP2 POP ADD SLOAD PUSH1 0x80 SHR PUSH1 0x7 SIGNEXTEND DUP4 PUSH1 0x7 SIGNEXTEND SGT DUP8 PUSH2 0xFCD JUMP JUMPDEST SWAP1 POP PUSH1 0x4 DUP2 ADD SLOAD PUSH1 0x40 SHR PUSH1 0x7 SIGNEXTEND DUP5 PUSH1 0x7 SIGNEXTEND SLT SWAP1 PUSH2 0xFC6 JUMP JUMPDEST SWAP1 POP PUSH1 0x4 DUP2 ADD SLOAD PUSH1 0x7 SIGNEXTEND DUP6 PUSH1 0x7 SIGNEXTEND SGT SWAP1 PUSH2 0xFBF JUMP JUMPDEST PUSH1 0x40 MLOAD PUSH4 0x321D4197 PUSH1 0xE1 SHL DUP2 MSTORE PUSH1 0x44 DUP1 CALLDATALOAD PUSH1 0x4 DUP4 ADD MSTORE PUSH1 0x24 DUP3 ADD SWAP3 SWAP1 SWAP3 MSTORE REVERT JUMPDEST PUSH1 0x40 MLOAD PUSH4 0x2047F235 PUSH1 0xE2 SHL DUP2 MSTORE PUSH1 0x44 CALLDATALOAD PUSH1 0x4 DUP3 ADD MSTORE PUSH1 0x24 SWAP1 REVERT JUMPDEST SWAP1 POP PUSH1 0x20 DUP2 RETURNDATASIZE PUSH1 0x20 GT PUSH2 0x1319 JUMPI JUMPDEST DUP2 PUSH2 0x1302 PUSH1 0x20 SWAP4 DUP4 PUSH2 0x25ED JUMP JUMPDEST DUP2 ADD SUB SLT PUSH2 0x1B4 JUMPI PUSH2 0x1313 SWAP1 PUSH2 0x2698 JUMP JUMPDEST DUP9 PUSH2 0xF8E JUMP JUMPDEST RETURNDATASIZE SWAP2 POP PUSH2 0x12F5 JUMP JUMPDEST PUSH1 0x44 PUSH1 0x40 MLOAD PUSH4 0xDFCD137D PUSH1 0xE0 SHL DUP2 MSTORE PUSH1 0x4 CALLDATALOAD PUSH1 0x4 DUP3 ADD MSTORE PUSH1 0x24 CALLDATALOAD PUSH1 0x24 DUP3 ADD MSTORE REVERT JUMPDEST PUSH1 0x24 PUSH1 0x40 MLOAD PUSH4 0x616B4A83 PUSH1 0xE0 SHL DUP2 MSTORE PUSH1 0x4 CALLDATALOAD PUSH1 0x4 DUP3 ADD MSTORE REVERT JUMPDEST CALLVALUE PUSH2 0x1B4 JUMPI PUSH1 0x0 CALLDATASIZE PUSH1 0x3 NOT ADD SLT PUSH2 0x1B4 JUMPI PUSH1 0x20 PUSH1 0x40 MLOAD PUSH2 0xE10 DUP2 MSTORE RETURN JUMPDEST CALLVALUE PUSH2 0x1B4 JUMPI PUSH1 0x0 CALLDATASIZE PUSH1 0x3 NOT ADD SLT PUSH2 0x1B4 JUMPI PUSH1 0x20 PUSH1 0x40 MLOAD DUP2 DUP2 MSTORE RETURN JUMPDEST CALLVALUE PUSH2 0x1B4 JUMPI PUSH1 0x0 CALLDATASIZE PUSH1 0x3 NOT ADD SLT PUSH2 0x1B4 JUMPI PUSH1 0x20 PUSH1 0x40 MLOAD PUSH1 0x1 DUP2 MSTORE RETURN JUMPDEST CALLVALUE PUSH2 0x1B4 JUMPI PUSH1 0x0 CALLDATASIZE PUSH1 0x3 NOT ADD SLT PUSH2 0x1B4 JUMPI PUSH1 0x0 SLOAD PUSH1 0x40 MLOAD PUSH1 0x1 PUSH1 0x1 PUSH1 0xA0 SHL SUB SWAP1 SWAP2 AND DUP2 MSTORE PUSH1 0x20 SWAP1 RETURN JUMPDEST CALLVALUE PUSH2 0x1B4 JUMPI PUSH1 0x20 CALLDATASIZE PUSH1 0x3 NOT ADD SLT PUSH2 0x1B4 JUMPI PUSH1 0x4 CALLDATALOAD PUSH1 0x0 MSTORE PUSH1 0xB PUSH1 0x20 MSTORE PUSH1 0x20 PUSH1 0x40 PUSH1 0x0 KECCAK256 SLOAD PUSH1 0x40 MLOAD SWAP1 DUP2 MSTORE RETURN JUMPDEST CALLVALUE PUSH2 0x1B4 JUMPI PUSH1 0x0 CALLDATASIZE PUSH1 0x3 NOT ADD SLT PUSH2 0x1B4 JUMPI PUSH2 0x141D PUSH2 0x2540 JUMP JUMPDEST PUSH1 0x0 DUP1 SLOAD PUSH1 0x1 PUSH1 0x1 PUSH1 0xA0 SHL SUB NOT DUP2 AND DUP3 SSTORE PUSH1 0x1 PUSH1 0x1 PUSH1 0xA0 SHL SUB AND PUSH32 0x8BE0079C531659141344CD1FD0A4F28419497F9722A3DAAFE3B4186F6B6457E0 DUP3 DUP1 LOG3 STOP JUMPDEST PUSH2 0x160 CALLDATASIZE PUSH1 0x3 NOT ADD SLT PUSH2 0x1B4 JUMPI PUSH2 0x1472 PUSH2 0x2502 JUMP JUMPDEST PUSH2 0xFFFF PUSH1 0x24 CALLDATALOAD AND PUSH1 0x24 CALLDATALOAD SUB PUSH2 0x1B4 JUMPI PUSH4 0xFFFFFFFF DUP1 PUSH1 0x44 CALLDATALOAD AND PUSH1 0x44 CALLDATALOAD SUB PUSH2 0x1B4 JUMPI DUP1 PUSH1 0x64 CALLDATALOAD AND PUSH1 0x64 CALLDATALOAD SUB PUSH2 0x1B4 JUMPI PUSH2 0x14A8 PUSH2 0x2513 JUMP JUMPDEST PUSH2 0x14B0 PUSH2 0x2523 JUMP JUMPDEST PUSH1 0xC4 CALLDATALOAD PUSH1 0x7 SIGNEXTEND PUSH1 0xC4 CALLDATALOAD SUB PUSH2 0x1B4 JUMPI PUSH1 0xE4 CALLDATALOAD PUSH1 0x7 SIGNEXTEND PUSH1 0xE4 CALLDATALOAD SUB PUSH2 0x1B4 JUMPI PUSH2 0x14D4 PUSH2 0x2659 JUMP JUMPDEST CALLVALUE ISZERO PUSH2 0x1740 JUMPI PUSH2 0xE10 DUP4 PUSH1 0x64 CALLDATALOAD AND LT DUP1 ISZERO PUSH2 0x172F JUMPI JUMPDEST PUSH2 0x1713 JUMPI DUP1 PUSH1 0x7 SIGNEXTEND DUP3 PUSH1 0x7 SIGNEXTEND SLT DUP1 ISZERO SWAP1 PUSH2 0x16FF JUMPI JUMPDEST PUSH2 0x16ED JUMPI PUSH2 0xFFFF PUSH1 0x24 CALLDATALOAD AND ISZERO PUSH2 0x16DB JUMPI PUSH2 0x152C PUSH1 0x6 SLOAD SWAP4 PUSH2 0x151F DUP6 PUSH2 0x267C JUMP JUMPDEST PUSH1 0x6 SSTORE PUSH1 0x64 CALLDATALOAD AND TIMESTAMP PUSH2 0x268B JUMP JUMPDEST PUSH2 0x3E8 SWAP1 DUP2 DUP2 MUL SWAP2 DUP2 DUP4 DIV EQ SWAP1 ISZERO OR ISZERO PUSH2 0x9D4 JUMPI PUSH1 0x20 SWAP5 DUP5 PUSH1 0x0 MSTORE PUSH1 0x7 DUP7 MSTORE PUSH1 0x40 PUSH1 0x0 KECCAK256 SWAP1 DUP6 DUP3 SSTORE PUSH1 0x1 DUP3 ADD CALLER PUSH12 0xFFFFFFFFFFFFFFFFFFFFFFFF PUSH1 0xA0 SHL DUP3 SLOAD AND OR SWAP1 SSTORE CALLVALUE PUSH1 0x2 DUP4 ADD SSTORE PUSH2 0xFFFF PUSH1 0x3 DUP4 ADD SWAP2 AND SWAP5 DUP6 DUP3 SLOAD SWAP2 PUSH1 0xA0 SHL PUSH1 0x1 PUSH1 0x1 PUSH1 0x40 SHL SUB PUSH1 0xA0 SHL AND SWAP2 PUSH4 0xFFFFFFFF PUSH1 0xE0 SHL AND OR PUSH4 0xFFFF0000 PUSH1 0x24 CALLDATALOAD PUSH1 0x10 SHL AND OR PUSH8 0xFFFFFFFF00000000 PUSH1 0x44 CALLDATALOAD DUP11 SHL AND OR PUSH12 0xFFFFFFFF0000000000000000 PUSH1 0x64 CALLDATALOAD PUSH1 0x40 SHL AND OR PUSH1 0x1 PUSH1 0x1 PUSH1 0x40 SHL SUB PUSH1 0x60 SHL DUP6 PUSH1 0x60 SHL AND OR OR SWAP1 SSTORE PUSH2 0x165B PUSH1 0x4 DUP3 ADD PUSH1 0x1 PUSH1 0x1 PUSH1 0x40 SHL SUB NOT DUP2 SLOAD AND PUSH1 0x1 PUSH1 0x1 PUSH1 0x40 SHL SUB SWAP6 DUP7 AND OR DUP2 SSTORE PUSH2 0x1633 PUSH1 0xC4 CALLDATALOAD DUP3 SWAP1 DUP2 SLOAD SWAP1 PUSH1 0x40 SHL PUSH8 0xFFFFFFFFFFFFFFFF PUSH1 0x40 SHL AND SWAP1 PUSH8 0xFFFFFFFFFFFFFFFF PUSH1 0x40 SHL NOT AND OR SWAP1 SSTORE JUMP JUMPDEST DUP1 SLOAD PUSH8 0xFFFFFFFFFFFFFFFF PUSH1 0x80 SHL NOT AND PUSH8 0xFFFFFFFFFFFFFFFF PUSH1 0x80 SHL PUSH1 0xE4 CALLDATALOAD PUSH1 0x80 SHL AND OR SWAP1 SSTORE JUMP JUMPDEST PUSH2 0x104 CALLDATALOAD PUSH1 0x5 DUP3 ADD SSTORE PUSH2 0x124 CALLDATALOAD PUSH1 0x6 DUP3 ADD SSTORE PUSH2 0x144 CALLDATALOAD PUSH1 0x7 DUP3 ADD SSTORE PUSH1 0x8 DUP2 ADD PUSH1 0x1 PUSH1 0xFF NOT DUP3 SLOAD AND OR SWAP1 SSTORE PUSH1 0x9 TIMESTAMP SWAP2 ADD SSTORE PUSH1 0x40 MLOAD SWAP3 CALLVALUE DUP5 MSTORE DUP6 DUP5 ADD MSTORE PUSH2 0xFFFF PUSH1 0x24 CALLDATALOAD AND PUSH1 0x40 DUP5 ADD MSTORE AND PUSH1 0x60 DUP3 ADD MSTORE DUP2 PUSH32 0x36924365DFD16E16E86593C39511C44D2A1C13A28E05C093CFB1E908AEBE5C09 PUSH1 0x80 CALLER SWAP4 LOG3 PUSH1 0x1 DUP1 SSTORE PUSH1 0x40 MLOAD SWAP1 DUP2 MSTORE RETURN JUMPDEST PUSH1 0x40 MLOAD PUSH4 0xADF316AD PUSH1 0xE0 SHL DUP2 MSTORE PUSH1 0x4 SWAP1 REVERT JUMPDEST PUSH1 0x40 MLOAD PUSH4 0x9D3C586B PUSH1 0xE0 SHL DUP2 MSTORE PUSH1 0x4 SWAP1 REVERT JUMPDEST POP PUSH1 0xE4 CALLDATALOAD PUSH1 0x7 SIGNEXTEND PUSH1 0xC4 CALLDATALOAD PUSH1 0x7 SIGNEXTEND SLT ISZERO PUSH2 0x14FF JUMP JUMPDEST PUSH1 0x40 MLOAD PUSH4 0x13B783AF PUSH1 0xE2 SHL DUP2 MSTORE PUSH1 0x64 CALLDATALOAD DUP5 AND PUSH1 0x4 DUP3 ADD MSTORE PUSH1 0x24 SWAP1 REVERT JUMPDEST POP PUSH4 0x1E13380 DUP4 PUSH1 0x64 CALLDATALOAD AND GT PUSH2 0x14EA JUMP JUMPDEST PUSH1 0x40 MLOAD PUSH4 0x6BBDB6DB PUSH1 0xE1 SHL DUP2 MSTORE PUSH1 0x4 SWAP1 REVERT JUMPDEST CALLVALUE PUSH2 0x1B4 JUMPI PUSH1 0x20 CALLDATASIZE PUSH1 0x3 NOT ADD SLT PUSH2 0x1B4 JUMPI PUSH1 0x4 CALLDATALOAD PUSH2 0x176E PUSH2 0x2659 JUMP JUMPDEST DUP1 PUSH1 0x0 MSTORE PUSH1 0x7 PUSH1 0x20 MSTORE PUSH1 0x40 PUSH1 0x0 KECCAK256 SWAP1 PUSH1 0x8 DUP3 ADD DUP1 SLOAD PUSH1 0xFF DUP2 AND PUSH1 0x4 DUP2 LT ISZERO PUSH2 0x67A JUMPI DUP1 ISZERO PUSH2 0xCE2 JUMPI PUSH1 0x1 SUB PUSH2 0xCC9 JUMPI PUSH2 0x3E8 DUP1 TIMESTAMP MUL SWAP1 TIMESTAMP DUP3 DIV EQ TIMESTAMP ISZERO OR ISZERO PUSH2 0x9D4 JUMPI PUSH1 0x1 PUSH1 0x1 PUSH1 0x40 SHL SUB PUSH1 0x3 DUP7 ADD SLOAD PUSH1 0x60 SHR AND LT ISZERO PUSH2 0x1831 JUMPI PUSH1 0x3 SWAP1 PUSH1 0xFF NOT AND OR SWAP1 SSTORE PUSH1 0x1 PUSH1 0x2 DUP4 ADD SLOAD SWAP3 ADD PUSH1 0x1 DUP1 PUSH1 0xA0 SHL SUB SWAP1 PUSH1 0x0 DUP1 DUP1 DUP1 DUP8 DUP7 DUP7 SLOAD AND GAS CALL PUSH2 0x17F6 PUSH2 0x2629 JUMP JUMPDEST POP ISZERO PUSH2 0x842 JUMPI PUSH32 0xBCAF9D6F28FFDBD48D1ABF354B5F84D03EDA4274BF2995A6B1F0A84630C01B87 SWAP2 PUSH1 0x20 SWAP2 SLOAD AND SWAP4 PUSH1 0x40 MLOAD SWAP1 DUP2 MSTORE LOG3 PUSH1 0x1 DUP1 SSTORE STOP JUMPDEST PUSH1 0x40 MLOAD PUSH4 0x134589D PUSH1 0xE4 SHL DUP2 MSTORE PUSH1 0x4 DUP2 ADD DUP5 SWAP1 MSTORE PUSH1 0x24 SWAP1 REVERT JUMPDEST CALLVALUE PUSH2 0x1B4 JUMPI PUSH1 0x0 CALLDATASIZE PUSH1 0x3 NOT ADD SLT PUSH2 0x1B4 JUMPI PUSH1 0x5 SLOAD PUSH1 0x40 MLOAD PUSH1 0x1 PUSH1 0x1 PUSH1 0xA0 SHL SUB SWAP1 SWAP2 AND DUP2 MSTORE PUSH1 0x20 SWAP1 RETURN JUMPDEST CALLVALUE PUSH2 0x1B4 JUMPI PUSH1 0x20 CALLDATASIZE PUSH1 0x3 NOT ADD SLT PUSH2 0x1B4 JUMPI PUSH2 0xFFFF PUSH2 0x188F PUSH2 0x2502 JUMP JUMPDEST PUSH2 0x1897 PUSH2 0x2540 JUMP JUMPDEST AND PUSH2 0x3E8 DUP2 GT PUSH2 0x18B2 JUMPI PUSH2 0xFFFF NOT PUSH1 0x2 SLOAD AND OR PUSH1 0x2 SSTORE PUSH1 0x0 DUP1 RETURN JUMPDEST PUSH1 0x40 MLOAD PUSH3 0x461BCD PUSH1 0xE5 SHL DUP2 MSTORE PUSH1 0x20 PUSH1 0x4 DUP3 ADD MSTORE PUSH1 0x23 PUSH1 0x24 DUP3 ADD MSTORE PUSH32 0x426F756E74794D61726B65743A206665652063616E6E6F742065786365656420 PUSH1 0x44 DUP3 ADD MSTORE PUSH3 0x313025 PUSH1 0xE8 SHL PUSH1 0x64 DUP3 ADD MSTORE PUSH1 0x84 SWAP1 REVERT JUMPDEST CALLVALUE PUSH2 0x1B4 JUMPI PUSH1 0x0 CALLDATASIZE PUSH1 0x3 NOT ADD SLT PUSH2 0x1B4 JUMPI PUSH1 0x20 PUSH1 0x3 SLOAD PUSH1 0x40 MLOAD SWAP1 DUP2 MSTORE RETURN JUMPDEST CALLVALUE PUSH2 0x1B4 JUMPI PUSH1 0x0 CALLDATASIZE PUSH1 0x3 NOT ADD SLT PUSH2 0x1B4 JUMPI PUSH1 0x20 PUSH1 0x40 MLOAD PUSH4 0x1E13380 DUP2 MSTORE RETURN JUMPDEST CALLVALUE PUSH2 0x1B4 JUMPI PUSH1 0x0 CALLDATASIZE PUSH1 0x3 NOT ADD SLT PUSH2 0x1B4 JUMPI PUSH1 0x20 PUSH1 0x40 MLOAD PUSH1 0x10 DUP2 MSTORE RETURN JUMPDEST CALLVALUE PUSH2 0x1B4 JUMPI PUSH1 0x0 CALLDATASIZE PUSH1 0x3 NOT ADD SLT PUSH2 0x1B4 JUMPI PUSH2 0x1975 PUSH2 0x2540 JUMP JUMPDEST PUSH2 0x197D PUSH2 0x2659 JUMP JUMPDEST PUSH1 0x0 DUP1 DUP1 DUP1 PUSH1 0x3 SLOAD DUP2 PUSH1 0x3 SSTORE PUSH1 0x1 DUP1 PUSH1 0xA0 SHL SUB DUP3 SLOAD AND GAS CALL PUSH2 0x199D PUSH2 0x2629 JUMP JUMPDEST POP ISZERO PUSH2 0x842 JUMPI PUSH1 0x1 DUP1 SSTORE STOP JUMPDEST CALLVALUE PUSH2 0x1B4 JUMPI PUSH1 0x0 CALLDATASIZE PUSH1 0x3 NOT ADD SLT PUSH2 0x1B4 JUMPI PUSH1 0x20 PUSH1 0x40 MLOAD PUSH1 0x8 DUP2 MSTORE RETURN JUMPDEST CALLVALUE PUSH2 0x1B4 JUMPI PUSH1 0xE0 CALLDATASIZE PUSH1 0x3 NOT ADD SLT PUSH2 0x1B4 JUMPI PUSH1 0x24 CALLDATALOAD PUSH1 0x1 PUSH1 0x1 PUSH1 0x40 SHL SUB DUP2 GT PUSH2 0x1B4 JUMPI PUSH2 0x19F5 SWAP1 CALLDATASIZE SWAP1 PUSH1 0x4 ADD PUSH2 0x24D2 JUMP JUMPDEST PUSH2 0x220 MSTORE PUSH1 0x44 CALLDATALOAD PUSH1 0x1 PUSH1 0x1 PUSH1 0x40 SHL SUB DUP2 GT PUSH2 0x1B4 JUMPI PUSH2 0x1A18 SWAP1 CALLDATASIZE SWAP1 PUSH1 0x4 ADD PUSH2 0x24D2 JUMP JUMPDEST PUSH2 0x160 MSTORE PUSH1 0x64 CALLDATALOAD PUSH1 0x1 PUSH1 0x1 PUSH1 0x40 SHL SUB DUP2 GT PUSH2 0x1B4 JUMPI PUSH2 0x1A3B SWAP1 CALLDATASIZE SWAP1 PUSH1 0x4 ADD PUSH2 0x24D2 JUMP JUMPDEST PUSH2 0x240 MSTORE PUSH2 0x200 MSTORE PUSH1 0x84 CALLDATALOAD PUSH1 0x1 PUSH1 0x1 PUSH1 0x40 SHL SUB DUP2 GT PUSH2 0x1B4 JUMPI PUSH2 0x1A62 SWAP1 CALLDATASIZE SWAP1 PUSH1 0x4 ADD PUSH2 0x24D2 JUMP JUMPDEST PUSH1 0xA0 MSTORE PUSH2 0x140 MSTORE PUSH1 0xA4 CALLDATALOAD PUSH1 0x1 PUSH1 0x1 PUSH1 0x40 SHL SUB DUP2 GT PUSH2 0x1B4 JUMPI PUSH2 0x1A88 SWAP1 CALLDATASIZE SWAP1 PUSH1 0x4 ADD PUSH2 0x24D2 JUMP JUMPDEST SWAP1 SWAP3 PUSH1 0x1 PUSH1 0x1 PUSH1 0x40 SHL SUB PUSH1 0xC4 CALLDATALOAD GT PUSH2 0x1B4 JUMPI PUSH2 0x1AA9 CALLDATASIZE PUSH1 0xC4 CALLDATALOAD PUSH1 0x4 ADD PUSH2 0x24D2 JUMP JUMPDEST PUSH2 0x260 MSTORE PUSH2 0x120 MSTORE PUSH1 0x0 PUSH2 0x100 PUSH1 0x40 MLOAD PUSH2 0x1AC2 DUP2 PUSH2 0x2587 JUMP JUMPDEST DUP3 DUP2 MSTORE DUP3 PUSH1 0x20 DUP3 ADD MSTORE DUP3 PUSH1 0x40 DUP3 ADD MSTORE DUP3 PUSH1 0x60 DUP3 ADD MSTORE DUP3 PUSH1 0x80 DUP3 ADD MSTORE DUP3 PUSH1 0xA0 DUP3 ADD MSTORE DUP3 PUSH1 0xC0 DUP3 ADD MSTORE DUP3 PUSH1 0xE0 DUP3 ADD MSTORE ADD MSTORE PUSH2 0x160 MLOAD PUSH2 0x220 MLOAD SWAP1 DUP2 EQ SWAP1 DUP2 PUSH2 0x2376 JUMPI JUMPDEST DUP2 PUSH2 0x236A JUMPI JUMPDEST DUP2 PUSH2 0x2360 JUMPI JUMPDEST DUP2 PUSH2 0x2353 JUMPI JUMPDEST POP ISZERO PUSH2 0x2302 JUMPI PUSH2 0x220 MLOAD ISZERO PUSH2 0x22E9 JUMPI PUSH1 0x4 CALLDATALOAD PUSH1 0x0 MSTORE PUSH1 0x7 PUSH1 0x20 MSTORE PUSH1 0x40 PUSH1 0x0 KECCAK256 PUSH1 0xFF PUSH1 0x8 DUP3 ADD SLOAD AND PUSH1 0x4 DUP2 LT ISZERO PUSH2 0x67A JUMPI ISZERO PUSH2 0x661 JUMPI PUSH1 0x0 PUSH1 0xE0 MSTORE PUSH1 0x0 PUSH2 0x100 MSTORE PUSH8 0x7FFFFFFFFFFFFFFF PUSH2 0x1A0 MSTORE PUSH8 0x7FFFFFFFFFFFFFFF NOT PUSH2 0x1E0 MSTORE PUSH1 0x0 PUSH1 0x80 MSTORE PUSH1 0x0 PUSH2 0x180 MSTORE PUSH1 0x40 MLOAD DUP1 PUSH1 0xC0 MSTORE DUP1 PUSH2 0x2000 DUP2 ADD LT PUSH1 0x1 PUSH1 0x1 PUSH1 0x40 SHL SUB PUSH2 0x2000 DUP4 ADD GT OR PUSH2 0x9B2 JUMPI DUP1 PUSH2 0x2000 DUP1 SWAP3 SWAP7 SWAP4 SWAP7 ADD PUSH1 0x40 MSTORE CALLDATASIZE SWAP1 CALLDATACOPY PUSH2 0x1BB8 PUSH2 0x220 MLOAD PUSH2 0x2715 JUMP JUMPDEST SWAP1 PUSH2 0x1BC6 PUSH1 0x40 MLOAD SWAP3 DUP4 PUSH2 0x25ED JUMP JUMPDEST PUSH2 0x220 MLOAD DUP3 MSTORE PUSH1 0x1F NOT PUSH2 0x1BDB PUSH2 0x220 MLOAD PUSH2 0x2715 JUMP JUMPDEST ADD CALLDATASIZE PUSH1 0x20 DUP5 ADD CALLDATACOPY PUSH1 0x0 PUSH2 0x1C0 MSTORE JUMPDEST PUSH2 0x220 MLOAD PUSH2 0x1C0 MLOAD SWAP1 DUP2 LT ISZERO PUSH2 0x209C JUMPI PUSH1 0x20 PUSH2 0x1C14 PUSH1 0x1 DUP1 PUSH1 0xA0 SHL SUB PUSH1 0x4 SLOAD AND SWAP3 PUSH2 0x160 MLOAD DUP6 PUSH2 0x272C JUMP JUMPDEST CALLDATALOAD PUSH1 0x24 PUSH1 0x40 MLOAD DUP1 SWAP5 DUP2 SWAP4 PUSH4 0x488DBFAD PUSH1 0xE0 SHL DUP4 MSTORE PUSH1 0x4 DUP4 ADD MSTORE GAS STATICCALL SWAP1 DUP2 ISZERO PUSH2 0x9C8 JUMPI PUSH1 0x0 SWAP2 PUSH2 0x2062 JUMPI JUMPDEST POP ISZERO PUSH2 0x200C JUMPI PUSH2 0x1C60 PUSH2 0x1C5B PUSH2 0x1C0 MLOAD PUSH2 0x240 MLOAD PUSH2 0x200 MLOAD PUSH2 0x272C JUMP JUMPDEST PUSH2 0x273C JUMP JUMPDEST PUSH1 0x3 DUP7 ADD SLOAD PUSH1 0xA0 SHR PUSH1 0x7 SIGNEXTEND SWAP1 PUSH1 0x7 SIGNEXTEND SLT ISZERO DUP1 PUSH2 0x1FE1 JUMPI JUMPDEST DUP1 PUSH2 0x1FB4 JUMPI JUMPDEST DUP1 PUSH2 0x1F87 JUMPI JUMPDEST ISZERO PUSH2 0x1F38 JUMPI PUSH1 0x1 SWAP5 PUSH1 0x0 JUMPDEST PUSH2 0x100 MLOAD DUP2 LT ISZERO PUSH2 0x1F30 JUMPI PUSH2 0x1CA3 DUP2 DUP6 PUSH2 0x274A JUMP JUMPDEST MLOAD PUSH2 0x1CB5 PUSH2 0x1C0 MLOAD PUSH2 0x220 MLOAD DUP9 PUSH2 0x272C JUMP JUMPDEST CALLDATALOAD EQ PUSH2 0x1CC9 JUMPI PUSH2 0x1CC4 SWAP1 PUSH2 0x267C JUMP JUMPDEST PUSH2 0x1C8E JUMP JUMPDEST POP SWAP2 SWAP5 POP PUSH1 0x0 JUMPDEST PUSH2 0x1DF6 JUMPI JUMPDEST PUSH2 0x1CE6 PUSH2 0x1C5B PUSH2 0x1C0 MLOAD DUP7 DUP10 PUSH2 0x272C JUMP JUMPDEST PUSH2 0x1A0 MLOAD PUSH1 0x7 SIGNEXTEND SWAP1 PUSH1 0x7 SIGNEXTEND SLT PUSH2 0x1DDC JUMPI JUMPDEST PUSH2 0x1D08 PUSH2 0x1C5B PUSH2 0x1C0 MLOAD DUP7 DUP10 PUSH2 0x272C JUMP JUMPDEST PUSH2 0x1E0 MLOAD PUSH1 0x7 SIGNEXTEND SWAP1 PUSH1 0x7 SIGNEXTEND SGT PUSH2 0x1DC2 JUMPI JUMPDEST PUSH2 0x1D3B PUSH2 0x1D33 PUSH2 0x1C5B PUSH2 0x1C0 MLOAD PUSH2 0x240 MLOAD PUSH2 0x200 MLOAD PUSH2 0x272C JUMP JUMPDEST PUSH1 0x80 MLOAD PUSH2 0x275E JUMP JUMPDEST PUSH1 0x80 MSTORE PUSH2 0x1D60 PUSH2 0x1D57 PUSH2 0x1C5B PUSH2 0x1C0 MLOAD PUSH1 0xA0 MLOAD PUSH2 0x140 MLOAD PUSH2 0x272C JUMP JUMPDEST PUSH2 0x180 MLOAD PUSH2 0x275E JUMP JUMPDEST PUSH2 0x180 MSTORE PUSH2 0x1D78 PUSH2 0x1C0 MLOAD PUSH2 0x260 MLOAD PUSH2 0x120 MLOAD PUSH2 0x272C JUMP JUMPDEST CALLDATALOAD PUSH1 0xFF DUP2 AND DUP2 SUB PUSH2 0x1B4 JUMPI PUSH2 0x1DA9 PUSH1 0xFF PUSH2 0x1D9F PUSH2 0x1D99 DUP3 DUP6 AND PUSH1 0xC0 MLOAD PUSH2 0x2786 JUMP JUMPDEST MLOAD PUSH2 0x267C JUMP JUMPDEST SWAP3 AND PUSH1 0xC0 MLOAD PUSH2 0x2786 JUMP JUMPDEST MSTORE PUSH2 0x1DB6 PUSH2 0x1C0 MLOAD PUSH2 0x267C JUMP JUMPDEST PUSH2 0x1C0 MSTORE SWAP4 SWAP1 SWAP4 PUSH2 0x1BE9 JUMP JUMPDEST PUSH2 0x1DD3 PUSH2 0x1C5B PUSH2 0x1C0 MLOAD DUP7 DUP10 PUSH2 0x272C JUMP JUMPDEST PUSH2 0x1E0 MSTORE PUSH2 0x1D19 JUMP JUMPDEST PUSH2 0x1DED PUSH2 0x1C5B PUSH2 0x1C0 MLOAD DUP7 DUP10 PUSH2 0x272C JUMP JUMPDEST PUSH2 0x1A0 MSTORE PUSH2 0x1CF7 JUMP JUMPDEST PUSH2 0x1E07 PUSH2 0x1C0 MLOAD PUSH2 0x220 MLOAD DUP6 PUSH2 0x272C JUMP JUMPDEST CALLDATALOAD PUSH2 0x1E15 PUSH2 0x100 MLOAD DUP8 PUSH2 0x274A JUMP JUMPDEST MSTORE PUSH2 0x1E22 PUSH2 0x100 MLOAD PUSH2 0x267C JUMP JUMPDEST PUSH2 0x100 MSTORE PUSH1 0x1 DUP1 PUSH1 0xA0 SHL SUB PUSH1 0x5 SLOAD AND PUSH2 0x1E42 PUSH2 0x1C0 MLOAD PUSH2 0x220 MLOAD DUP7 PUSH2 0x272C JUMP JUMPDEST PUSH1 0x40 MLOAD PUSH4 0x1CE6B50F PUSH1 0xE2 SHL DUP2 MSTORE SWAP1 CALLDATALOAD PUSH1 0x4 DUP3 ADD MSTORE PUSH1 0x20 DUP2 PUSH1 0x24 DUP2 DUP6 GAS STATICCALL PUSH1 0x0 SWAP2 DUP2 PUSH2 0x1EF4 JUMPI JUMPDEST POP PUSH2 0x1EDB JUMPI JUMPDEST POP PUSH2 0x1E80 PUSH2 0x1C0 MLOAD PUSH2 0x220 MLOAD DUP7 PUSH2 0x272C JUMP JUMPDEST CALLDATALOAD SWAP1 DUP1 EXTCODESIZE ISZERO PUSH2 0x1B4 JUMPI PUSH1 0x40 MLOAD PUSH4 0x7567C75 PUSH1 0xE0 SHL DUP2 MSTORE PUSH1 0x4 DUP2 ADD SWAP3 SWAP1 SWAP3 MSTORE PUSH1 0x0 PUSH1 0x24 DUP4 ADD DUP2 SWAP1 MSTORE PUSH1 0x1 PUSH1 0x44 DUP5 ADD MSTORE PUSH1 0x64 DUP4 ADD DUP2 SWAP1 MSTORE SWAP1 DUP3 SWAP1 PUSH1 0x84 SWAP1 DUP3 SWAP1 DUP5 SWAP1 GAS CALL PUSH2 0x1ECC JUMPI JUMPDEST POP PUSH2 0x1CD5 JUMP JUMPDEST PUSH2 0x1ED5 SWAP1 PUSH2 0x25A3 JUMP JUMPDEST DUP7 PUSH2 0x1EC6 JUMP JUMPDEST PUSH2 0xFFFF PUSH2 0x1EEB SWAP2 AND PUSH1 0xE0 MLOAD PUSH2 0x268B JUMP JUMPDEST PUSH1 0xE0 MSTORE DUP8 PUSH2 0x1E6E JUMP JUMPDEST SWAP1 SWAP2 POP PUSH1 0x20 DUP2 RETURNDATASIZE PUSH1 0x20 GT PUSH2 0x1F28 JUMPI JUMPDEST DUP2 PUSH2 0x1F10 PUSH1 0x20 SWAP4 DUP4 PUSH2 0x25ED JUMP JUMPDEST DUP2 ADD SUB SLT PUSH2 0x1B4 JUMPI PUSH2 0x1F21 SWAP1 PUSH2 0x2706 JUMP JUMPDEST SWAP1 DUP10 PUSH2 0x1E68 JUMP JUMPDEST RETURNDATASIZE SWAP2 POP PUSH2 0x1F03 JUMP JUMPDEST POP SWAP2 SWAP5 PUSH2 0x1CD0 JUMP JUMPDEST PUSH1 0x40 MLOAD PUSH3 0x461BCD PUSH1 0xE5 SHL DUP2 MSTORE PUSH1 0x20 PUSH1 0x4 DUP3 ADD MSTORE PUSH1 0x21 PUSH1 0x24 DUP3 ADD MSTORE PUSH32 0x426F756E74794D61726B65743A207265636F7264206F757473696465207A6F6E PUSH1 0x44 DUP3 ADD MSTORE PUSH1 0x65 PUSH1 0xF8 SHL PUSH1 0x64 DUP3 ADD MSTORE PUSH1 0x84 SWAP1 REVERT JUMPDEST POP PUSH2 0x1F9E PUSH2 0x1C5B PUSH2 0x1C0 MLOAD PUSH1 0xA0 MLOAD PUSH2 0x140 MLOAD PUSH2 0x272C JUMP JUMPDEST PUSH1 0x4 DUP7 ADD SLOAD PUSH1 0x80 SHR PUSH1 0x7 SIGNEXTEND SWAP1 PUSH1 0x7 SIGNEXTEND SGT ISZERO PUSH2 0x1C83 JUMP JUMPDEST POP PUSH2 0x1FCB PUSH2 0x1C5B PUSH2 0x1C0 MLOAD PUSH1 0xA0 MLOAD PUSH2 0x140 MLOAD PUSH2 0x272C JUMP JUMPDEST PUSH1 0x4 DUP7 ADD SLOAD PUSH1 0x40 SHR PUSH1 0x7 SIGNEXTEND SWAP1 PUSH1 0x7 SIGNEXTEND SLT ISZERO PUSH2 0x1C7D JUMP JUMPDEST POP PUSH2 0x1FF9 PUSH2 0x1C5B PUSH2 0x1C0 MLOAD PUSH2 0x240 MLOAD PUSH2 0x200 MLOAD PUSH2 0x272C JUMP JUMPDEST PUSH1 0x4 DUP7 ADD SLOAD PUSH1 0x7 SIGNEXTEND SWAP1 PUSH1 0x7 SIGNEXTEND SGT ISZERO PUSH2 0x1C77 JUMP JUMPDEST PUSH1 0x40 MLOAD PUSH3 0x461BCD PUSH1 0xE5 SHL DUP2 MSTORE PUSH1 0x20 PUSH1 0x4 DUP3 ADD MSTORE PUSH1 0x28 PUSH1 0x24 DUP3 ADD MSTORE PUSH32 0x426F756E74794D61726B65743A20756E7665726966696564207265636F726420 PUSH1 0x44 DUP3 ADD MSTORE PUSH8 0x696E20737761726D PUSH1 0xC0 SHL PUSH1 0x64 DUP3 ADD MSTORE PUSH1 0x84 SWAP1 REVERT JUMPDEST SWAP1 POP PUSH1 0x20 DUP2 RETURNDATASIZE PUSH1 0x20 GT PUSH2 0x2094 JUMPI JUMPDEST DUP2 PUSH2 0x207D PUSH1 0x20 SWAP4 DUP4 PUSH2 0x25ED JUMP JUMPDEST DUP2 ADD SUB SLT PUSH2 0x1B4 JUMPI PUSH2 0x208E SWAP1 PUSH2 0x2698 JUMP JUMPDEST DUP8 PUSH2 0x1C3E JUMP JUMPDEST RETURNDATASIZE SWAP2 POP PUSH2 0x2070 JUMP JUMPDEST PUSH1 0x0 DUP1 PUSH1 0x0 JUMPDEST PUSH2 0x100 DUP2 LT PUSH2 0x22AB JUMPI POP PUSH2 0x100 MLOAD PUSH1 0xA DUP2 GT ISZERO PUSH2 0x22A5 JUMPI PUSH1 0xA SWAP1 JUMPDEST PUSH2 0x3E8 SWAP1 DUP3 DUP3 DUP2 MUL DIV DUP3 EQ DUP4 ISZERO OR ISZERO PUSH2 0x9D4 JUMPI DUP1 ISZERO PUSH2 0x229C JUMPI PUSH2 0x20E2 SWAP1 PUSH1 0xE0 MLOAD PUSH2 0x26C1 JUMP JUMPDEST SWAP2 JUMPDEST DUP5 PUSH2 0x2710 DUP2 MUL DIV PUSH2 0x2710 EQ DUP6 ISZERO OR ISZERO PUSH2 0x9D4 JUMPI PUSH2 0x211D PUSH1 0x3 SWAP4 PUSH2 0x2122 SWAP4 PUSH2 0x2116 PUSH2 0x120 SWAP9 PUSH2 0x2710 PUSH2 0x220 MLOAD SWAP2 MUL PUSH2 0x26C1 JUMP JUMPDEST SWAP4 MUL PUSH2 0x268B JUMP JUMPDEST PUSH2 0x268B JUMP JUMPDEST DIV PUSH2 0x2710 DUP2 GT ISZERO PUSH2 0x2293 JUMPI POP PUSH2 0x2710 JUMPDEST PUSH2 0x220 MLOAD PUSH1 0x7 SIGNEXTEND SWAP2 PUSH2 0x2153 PUSH2 0x2149 DUP5 PUSH1 0x80 MLOAD PUSH2 0x2798 JUMP JUMPDEST SWAP4 PUSH2 0x180 MLOAD PUSH2 0x2798 JUMP JUMPDEST PUSH1 0x40 MLOAD SWAP4 PUSH2 0x2160 DUP6 PUSH2 0x2587 JUMP JUMPDEST PUSH1 0x4 CALLDATALOAD DUP6 MSTORE PUSH2 0x100 MLOAD PUSH1 0x20 DUP7 ADD MSTORE PUSH2 0x220 MLOAD PUSH1 0x40 DUP7 ADD MSTORE PUSH2 0xFFFF DUP5 AND PUSH1 0x60 DUP7 ADD MSTORE PUSH1 0xFF DUP4 AND PUSH1 0x80 DUP7 ADD MSTORE DUP1 PUSH1 0x7 SIGNEXTEND PUSH1 0xA0 DUP7 ADD MSTORE DUP2 PUSH1 0x7 SIGNEXTEND PUSH1 0xC0 DUP7 ADD MSTORE PUSH2 0x1A0 MLOAD PUSH1 0x7 SIGNEXTEND PUSH1 0xE0 DUP7 ADD MSTORE PUSH1 0xFF PUSH2 0x1E0 MLOAD PUSH1 0x7 SIGNEXTEND SWAP4 DUP5 PUSH2 0x100 DUP9 ADD MSTORE PUSH2 0xFFFF PUSH1 0x40 MLOAD SWAP7 PUSH2 0x100 MLOAD DUP9 MSTORE PUSH2 0x220 MLOAD PUSH1 0x20 DUP10 ADD MSTORE AND PUSH1 0x40 DUP8 ADD MSTORE AND PUSH1 0x60 DUP6 ADD MSTORE PUSH1 0x7 SIGNEXTEND PUSH1 0x80 DUP5 ADD MSTORE PUSH1 0x7 SIGNEXTEND PUSH1 0xA0 DUP4 ADD MSTORE PUSH2 0x1A0 MLOAD PUSH1 0x7 SIGNEXTEND PUSH1 0xC0 DUP4 ADD MSTORE PUSH1 0xE0 DUP3 ADD MSTORE PUSH32 0x27AC23B194A7076145DC8EAE5267A9483CACCBBDB3F36AEBBB7397EAFD8235D4 PUSH2 0x100 PUSH1 0x4 CALLDATALOAD SWAP3 LOG2 PUSH2 0x100 PUSH1 0x40 MLOAD SWAP2 DUP1 MLOAD DUP4 MSTORE PUSH1 0x20 DUP2 ADD MLOAD PUSH1 0x20 DUP5 ADD MSTORE PUSH1 0x40 DUP2 ADD MLOAD PUSH1 0x40 DUP5 ADD MSTORE PUSH2 0xFFFF PUSH1 0x60 DUP3 ADD MLOAD AND PUSH1 0x60 DUP5 ADD MSTORE PUSH1 0xFF PUSH1 0x80 DUP3 ADD MLOAD AND PUSH1 0x80 DUP5 ADD MSTORE PUSH1 0xA0 DUP2 ADD MLOAD PUSH1 0x7 SIGNEXTEND PUSH1 0xA0 DUP5 ADD MSTORE PUSH1 0xC0 DUP2 ADD MLOAD PUSH1 0x7 SIGNEXTEND PUSH1 0xC0 DUP5 ADD MSTORE PUSH1 0xE0 DUP2 ADD MLOAD PUSH1 0x7 SIGNEXTEND PUSH1 0xE0 DUP5 ADD MSTORE ADD MLOAD PUSH1 0x7 SIGNEXTEND PUSH2 0x100 DUP3 ADD MSTORE RETURN JUMPDEST PUSH2 0xFFFF AND PUSH2 0x2132 JUMP JUMPDEST POP PUSH1 0x0 SWAP2 PUSH2 0x20E4 JUMP JUMPDEST DUP1 PUSH2 0x20BD JUMP JUMPDEST DUP3 PUSH2 0x22B8 DUP3 PUSH1 0xC0 MLOAD PUSH2 0x2786 JUMP JUMPDEST MLOAD GT PUSH2 0x22CD JUMPI JUMPDEST PUSH2 0x22C8 SWAP1 PUSH2 0x267C JUMP JUMPDEST PUSH2 0x20A2 JUMP JUMPDEST DUP1 SWAP3 POP PUSH2 0x22DD SWAP2 POP PUSH1 0xC0 MLOAD PUSH2 0x2786 JUMP JUMPDEST MLOAD SWAP1 PUSH1 0xFF DUP2 AND SWAP1 PUSH2 0x22BF JUMP JUMPDEST PUSH1 0x24 PUSH1 0x40 MLOAD PUSH4 0x287AE579 PUSH1 0xE0 SHL DUP2 MSTORE PUSH1 0x4 CALLDATALOAD PUSH1 0x4 DUP3 ADD MSTORE REVERT JUMPDEST PUSH1 0x40 MLOAD PUSH3 0x461BCD PUSH1 0xE5 SHL DUP2 MSTORE PUSH1 0x20 PUSH1 0x4 DUP3 ADD MSTORE PUSH1 0x23 PUSH1 0x24 DUP3 ADD MSTORE PUSH32 0x426F756E74794D61726B65743A206172726179206C656E677468206D69736D61 PUSH1 0x44 DUP3 ADD MSTORE PUSH3 0xE8C6D PUSH1 0xEB SHL PUSH1 0x64 DUP3 ADD MSTORE PUSH1 0x84 SWAP1 REVERT JUMPDEST SWAP1 POP PUSH2 0x260 MLOAD EQ DUP6 PUSH2 0x1B15 JUMP JUMPDEST DUP4 DUP2 EQ SWAP2 POP PUSH2 0x1B0F JUMP JUMPDEST PUSH1 0xA0 MLOAD DUP2 EQ SWAP2 POP PUSH2 0x1B09 JUMP JUMPDEST PUSH2 0x240 MLOAD DUP2 EQ SWAP2 POP PUSH2 0x1B03 JUMP JUMPDEST CALLVALUE PUSH2 0x1B4 JUMPI PUSH1 0x20 CALLDATASIZE PUSH1 0x3 NOT ADD SLT PUSH2 0x1B4 JUMPI PUSH1 0x4 CALLDATALOAD PUSH1 0x0 MSTORE PUSH1 0x9 PUSH1 0x20 MSTORE PUSH1 0x20 PUSH1 0x40 PUSH1 0x0 KECCAK256 SLOAD PUSH1 0x40 MLOAD SWAP1 DUP2 MSTORE RETURN JUMPDEST CALLVALUE PUSH2 0x1B4 JUMPI PUSH1 0x0 CALLDATASIZE PUSH1 0x3 NOT ADD SLT PUSH2 0x1B4 JUMPI PUSH1 0x20 PUSH1 0x40 MLOAD PUSH1 0x4 DUP2 MSTORE RETURN JUMPDEST CALLVALUE PUSH2 0x1B4 JUMPI PUSH2 0x23D9 CALLDATASIZE PUSH2 0x24BC JUMP JUMPDEST SWAP1 PUSH1 0x0 PUSH1 0x60 PUSH1 0x40 MLOAD PUSH2 0x23EA DUP2 PUSH2 0x256C JUMP JUMPDEST DUP3 DUP2 MSTORE DUP3 PUSH1 0x20 DUP3 ADD MSTORE DUP3 PUSH1 0x40 DUP3 ADD MSTORE ADD MSTORE PUSH1 0x0 MSTORE PUSH1 0x8 PUSH1 0x20 MSTORE PUSH1 0x40 PUSH1 0x0 KECCAK256 SWAP1 PUSH1 0x0 MSTORE PUSH1 0x20 MSTORE PUSH1 0x80 PUSH1 0x40 PUSH1 0x0 KECCAK256 PUSH1 0x40 MLOAD SWAP1 PUSH2 0x2423 DUP3 PUSH2 0x256C JUMP JUMPDEST SLOAD PUSH1 0xFF DUP2 AND ISZERO ISZERO SWAP2 DUP3 DUP2 MSTORE PUSH1 0x20 DUP2 ADD PUSH1 0x1 PUSH1 0x1 PUSH1 0x40 SHL SUB DUP1 DUP5 PUSH1 0x8 SHR AND DUP3 MSTORE PUSH1 0x40 DUP4 ADD SWAP2 PUSH1 0x60 PUSH2 0xFFFF SWAP5 DUP6 DUP8 PUSH1 0x48 SHR AND DUP6 MSTORE ADD SWAP5 PUSH1 0x58 SHR PUSH1 0x7 SIGNEXTEND DUP6 MSTORE PUSH1 0x40 MLOAD SWAP6 DUP7 MSTORE MLOAD AND PUSH1 0x20 DUP6 ADD MSTORE MLOAD AND PUSH1 0x40 DUP4 ADD MSTORE MLOAD PUSH1 0x7 SIGNEXTEND PUSH1 0x60 DUP3 ADD MSTORE RETURN JUMPDEST CALLVALUE PUSH2 0x1B4 JUMPI PUSH1 0x0 CALLDATASIZE PUSH1 0x3 NOT ADD SLT PUSH2 0x1B4 JUMPI PUSH1 0x20 PUSH2 0xFFFF PUSH1 0x2 SLOAD AND PUSH1 0x40 MLOAD SWAP1 DUP2 MSTORE RETURN JUMPDEST CALLVALUE PUSH2 0x1B4 JUMPI PUSH1 0x0 CALLDATASIZE PUSH1 0x3 NOT ADD SLT PUSH2 0x1B4 JUMPI DUP1 PUSH3 0x989680 PUSH1 0x20 SWAP3 MSTORE RETURN JUMPDEST PUSH1 0x40 SWAP1 PUSH1 0x3 NOT ADD SLT PUSH2 0x1B4 JUMPI PUSH1 0x4 CALLDATALOAD SWAP1 PUSH1 0x24 CALLDATALOAD SWAP1 JUMP JUMPDEST SWAP2 DUP2 PUSH1 0x1F DUP5 ADD SLT ISZERO PUSH2 0x1B4 JUMPI DUP3 CALLDATALOAD SWAP2 PUSH1 0x1 PUSH1 0x1 PUSH1 0x40 SHL SUB DUP4 GT PUSH2 0x1B4 JUMPI PUSH1 0x20 DUP1 DUP6 ADD SWAP5 DUP5 PUSH1 0x5 SHL ADD ADD GT PUSH2 0x1B4 JUMPI JUMP JUMPDEST PUSH1 0x4 CALLDATALOAD SWAP1 PUSH2 0xFFFF DUP3 AND DUP3 SUB PUSH2 0x1B4 JUMPI JUMP JUMPDEST PUSH1 0x84 CALLDATALOAD SWAP1 DUP2 PUSH1 0x7 SIGNEXTEND DUP3 SUB PUSH2 0x1B4 JUMPI JUMP JUMPDEST PUSH1 0xA4 CALLDATALOAD SWAP1 DUP2 PUSH1 0x7 SIGNEXTEND DUP3 SUB PUSH2 0x1B4 JUMPI JUMP JUMPDEST SWAP1 PUSH1 0x4 DUP3 LT ISZERO PUSH2 0x67A JUMPI MSTORE JUMP JUMPDEST PUSH1 0x0 SLOAD PUSH1 0x1 PUSH1 0x1 PUSH1 0xA0 SHL SUB AND CALLER SUB PUSH2 0x2554 JUMPI JUMP JUMPDEST PUSH1 0x40 MLOAD PUSH4 0x118CDAA7 PUSH1 0xE0 SHL DUP2 MSTORE CALLER PUSH1 0x4 DUP3 ADD MSTORE PUSH1 0x24 SWAP1 REVERT JUMPDEST PUSH1 0x80 DUP2 ADD SWAP1 DUP2 LT PUSH1 0x1 PUSH1 0x1 PUSH1 0x40 SHL SUB DUP3 GT OR PUSH2 0x9B2 JUMPI PUSH1 0x40 MSTORE JUMP JUMPDEST PUSH2 0x120 DUP2 ADD SWAP1 DUP2 LT PUSH1 0x1 PUSH1 0x1 PUSH1 0x40 SHL SUB DUP3 GT OR PUSH2 0x9B2 JUMPI PUSH1 0x40 MSTORE JUMP JUMPDEST PUSH1 0x1 PUSH1 0x1 PUSH1 0x40 SHL SUB DUP2 GT PUSH2 0x9B2 JUMPI PUSH1 0x40 MSTORE JUMP JUMPDEST PUSH1 0xA0 DUP2 ADD SWAP1 DUP2 LT PUSH1 0x1 PUSH1 0x1 PUSH1 0x40 SHL SUB DUP3 GT OR PUSH2 0x9B2 JUMPI PUSH1 0x40 MSTORE JUMP JUMPDEST PUSH2 0x220 DUP2 ADD SWAP1 DUP2 LT PUSH1 0x1 PUSH1 0x1 PUSH1 0x40 SHL SUB DUP3 GT OR PUSH2 0x9B2 JUMPI PUSH1 0x40 MSTORE JUMP JUMPDEST SWAP1 PUSH1 0x1F DUP1 NOT SWAP2 ADD AND DUP2 ADD SWAP1 DUP2 LT PUSH1 0x1 PUSH1 0x1 PUSH1 0x40 SHL SUB DUP3 GT OR PUSH2 0x9B2 JUMPI PUSH1 0x40 MSTORE JUMP JUMPDEST PUSH1 0x1 PUSH1 0x1 PUSH1 0x40 SHL SUB DUP2 GT PUSH2 0x9B2 JUMPI PUSH1 0x1F ADD PUSH1 0x1F NOT AND PUSH1 0x20 ADD SWAP1 JUMP JUMPDEST RETURNDATASIZE ISZERO PUSH2 0x2654 JUMPI RETURNDATASIZE SWAP1 PUSH2 0x263A DUP3 PUSH2 0x260E JUMP JUMPDEST SWAP2 PUSH2 0x2648 PUSH1 0x40 MLOAD SWAP4 DUP5 PUSH2 0x25ED JUMP JUMPDEST DUP3 MSTORE RETURNDATASIZE PUSH1 0x0 PUSH1 0x20 DUP5 ADD RETURNDATACOPY JUMP JUMPDEST PUSH1 0x60 SWAP1 JUMP JUMPDEST PUSH1 0x2 PUSH1 0x1 SLOAD EQ PUSH2 0x266A JUMPI PUSH1 0x2 PUSH1 0x1 SSTORE JUMP JUMPDEST PUSH1 0x40 MLOAD PUSH4 0x3EE5AEB5 PUSH1 0xE0 SHL DUP2 MSTORE PUSH1 0x4 SWAP1 REVERT JUMPDEST PUSH1 0x0 NOT DUP2 EQ PUSH2 0x9D4 JUMPI PUSH1 0x1 ADD SWAP1 JUMP JUMPDEST SWAP2 SWAP1 DUP3 ADD DUP1 SWAP3 GT PUSH2 0x9D4 JUMPI JUMP JUMPDEST MLOAD SWAP1 DUP2 ISZERO ISZERO DUP3 SUB PUSH2 0x1B4 JUMPI JUMP JUMPDEST DUP1 SLOAD DUP3 LT ISZERO PUSH2 0xC47 JUMPI PUSH1 0x0 MSTORE PUSH1 0x3 PUSH1 0x20 PUSH1 0x0 KECCAK256 SWAP2 MUL ADD SWAP1 PUSH1 0x0 SWAP1 JUMP JUMPDEST DUP2 ISZERO PUSH2 0x26CB JUMPI DIV SWAP1 JUMP JUMPDEST PUSH4 0x4E487B71 PUSH1 0xE0 SHL PUSH1 0x0 MSTORE PUSH1 0x12 PUSH1 0x4 MSTORE PUSH1 0x24 PUSH1 0x0 REVERT JUMPDEST MLOAD SWAP1 PUSH1 0x1 PUSH1 0x1 PUSH1 0x40 SHL SUB DUP3 AND DUP3 SUB PUSH2 0x1B4 JUMPI JUMP JUMPDEST MLOAD SWAP1 PUSH4 0xFFFFFFFF DUP3 AND DUP3 SUB PUSH2 0x1B4 JUMPI JUMP JUMPDEST MLOAD SWAP1 PUSH2 0xFFFF DUP3 AND DUP3 SUB PUSH2 0x1B4 JUMPI JUMP JUMPDEST PUSH1 0x1 PUSH1 0x1 PUSH1 0x40 SHL SUB DUP2 GT PUSH2 0x9B2 JUMPI PUSH1 0x5 SHL PUSH1 0x20 ADD SWAP1 JUMP JUMPDEST SWAP2 SWAP1 DUP2 LT ISZERO PUSH2 0xC47 JUMPI PUSH1 0x5 SHL ADD SWAP1 JUMP JUMPDEST CALLDATALOAD DUP1 PUSH1 0x7 SIGNEXTEND DUP2 SUB PUSH2 0x1B4 JUMPI SWAP1 JUMP JUMPDEST DUP1 MLOAD DUP3 LT ISZERO PUSH2 0xC47 JUMPI PUSH1 0x20 SWAP2 PUSH1 0x5 SHL ADD ADD SWAP1 JUMP JUMPDEST SWAP1 PUSH1 0x7 SIGNEXTEND SWAP1 PUSH1 0x7 SIGNEXTEND ADD SWAP1 PUSH8 0x7FFFFFFFFFFFFFFF NOT DUP3 SLT PUSH8 0x7FFFFFFFFFFFFFFF DUP4 SGT OR PUSH2 0x9D4 JUMPI JUMP JUMPDEST SWAP1 PUSH2 0x100 DUP2 LT ISZERO PUSH2 0xC47 JUMPI PUSH1 0x5 SHL ADD SWAP1 JUMP JUMPDEST PUSH1 0x7 SIGNEXTEND SWAP1 PUSH1 0x7 SIGNEXTEND SWAP1 DUP2 ISZERO PUSH2 0x26CB JUMPI PUSH8 0x7FFFFFFFFFFFFFFF NOT DUP2 EQ PUSH1 0x0 NOT DUP4 EQ AND PUSH2 0x9D4 JUMPI SDIV SWAP1 JUMP INVALID LOG2 PUSH5 0x6970667358 0x22 SLT KECCAK256 PUSH27 0x9FDF16F8763E3D9C4F57F9FFE5C3EA522CAAC354AA51780DC4DE23 0x1E PUSH15 0xBDEE64736F6C634300081400330000 "},"methodIdentifiers":{"COORD_SCALE()":"11955a8d","MAX_BOUNTY_DURATION()":"496e62f7","MIN_BOUNTY_DURATION()":"bd62ad22","REQUIRES_GPS()":"e144064a","REQUIRES_HUMIDITY()":"327cea62","REQUIRES_LIGHT()":"b52947e4","REQUIRES_MOTION()":"48591e55","REQUIRES_PRESSURE()":"4636f70a","REQUIRES_TEMP()":"d7b5a84a","REQUIRES_VOC()":"925ac9b1","acceptBounty(uint256,bytes32)":"e489232d","acceptances(uint256,bytes32)":"d5f9897f","accumulatedFees()":"587f5ed7","aggregateSwarmReport(uint256,bytes32[],bytes32[],int64[],int64[],int64[],uint8[])":"44c5e39b","bounties(uint256)":"dc2f8744","claimReward(uint256,bytes32)":"eacd3ab3","deviceRegistry()":"5efb870a","evidenceRecordToBounty(bytes32)":"85c3dd80","expireBounty(uint256)":"5faedcef","getAcceptance(uint256,bytes32)":"2cd5a77a","getAcceptedDevices(uint256)":"f4f47683","getBounty(uint256)":"ee8c4bbf","getEvidence(uint256,uint256)":"f1b8a98c","getEvidenceCount(uint256)":"423aee31","nextBountyId()":"fd14fad4","owner()":"8da5cb5b","platformFeeBps()":"22dcd13e","poACVerifier()":"f1cf7905","postBounty(uint16,uint16,uint32,uint32,int64,int64,int64,int64,int256,int256,int256)":"6569dac4","renounceOwnership()":"715018a6","setPlatformFee(uint16)":"5cbc742c","submitEvidence(uint256,bytes32,bytes32,int64,int64,int64)":"c9ae98bd","transferOwnership(address)":"f2fde38b","withdrawFees()":"476343ee"}}}}}