{"contracts/PoACVerifier.sol":{"PoACVerifier":{"abi":[{"inputs":[{"internalType":"address","name":"_deviceRegistry","type":"address"},{"internalType":"uint256","name":"_maxTimestampSkew","type":"uint256"}],"stateMutability":"nonpayable","type":"constructor"},{"inputs":[],"name":"ArrayLengthMismatch","type":"error"},{"inputs":[{"internalType":"bytes32","name":"deviceId","type":"bytes32"},{"internalType":"bytes32","name":"submitted","type":"bytes32"},{"internalType":"bytes32","name":"expected","type":"bytes32"}],"name":"ChainLinkageBroken","type":"error"},{"inputs":[{"internalType":"bytes32","name":"deviceId","type":"bytes32"},{"internalType":"uint32","name":"submitted","type":"uint32"},{"internalType":"uint32","name":"lastKnown","type":"uint32"}],"name":"CounterNotMonotonic","type":"error"},{"inputs":[{"internalType":"bytes32","name":"deviceId","type":"bytes32"}],"name":"DeviceNotActive","type":"error"},{"inputs":[{"internalType":"bytes32","name":"deviceId","type":"bytes32"}],"name":"DeviceNotRegistered","type":"error"},{"inputs":[],"name":"EmptyBatch","type":"error"},{"inputs":[{"internalType":"uint256","name":"provided","type":"uint256"}],"name":"InvalidBodyLength","type":"error"},{"inputs":[{"internalType":"bytes32","name":"deviceId","type":"bytes32"},{"internalType":"bytes32","name":"recordHash","type":"bytes32"}],"name":"InvalidSignature","type":"error"},{"inputs":[{"internalType":"uint256","name":"provided","type":"uint256"}],"name":"InvalidSignatureLength","type":"error"},{"inputs":[{"internalType":"address","name":"owner","type":"address"}],"name":"OwnableInvalidOwner","type":"error"},{"inputs":[{"internalType":"address","name":"account","type":"address"}],"name":"OwnableUnauthorizedAccount","type":"error"},{"inputs":[{"internalType":"bytes32","name":"recordHash","type":"bytes32"}],"name":"RecordAlreadyVerified","type":"error"},{"inputs":[],"name":"ReentrancyGuardReentrantCall","type":"error"},{"inputs":[{"internalType":"bytes32","name":"deviceId","type":"bytes32"},{"internalType":"int64","name":"recordTs","type":"int64"},{"internalType":"uint256","name":"blockTs","type":"uint256"},{"internalType":"uint256","name":"maxSkew","type":"uint256"}],"name":"TimestampOutOfRange","type":"error"},{"anonymous":false,"inputs":[{"indexed":false,"internalType":"uint256","name":"submitted","type":"uint256"},{"indexed":false,"internalType":"uint256","name":"verified","type":"uint256"},{"indexed":false,"internalType":"uint256","name":"rejected","type":"uint256"}],"name":"BatchVerified","type":"event"},{"anonymous":false,"inputs":[{"indexed":true,"internalType":"address","name":"previousOwner","type":"address"},{"indexed":true,"internalType":"address","name":"newOwner","type":"address"}],"name":"OwnershipTransferred","type":"event"},{"anonymous":false,"inputs":[{"indexed":true,"internalType":"bytes32","name":"deviceId","type":"bytes32"},{"indexed":true,"internalType":"bytes32","name":"recordHash","type":"bytes32"},{"indexed":false,"internalType":"uint32","name":"monotonicCtr","type":"uint32"},{"indexed":false,"internalType":"int64","name":"timestampMs","type":"int64"},{"indexed":false,"internalType":"uint8","name":"actionCode","type":"uint8"},{"indexed":false,"internalType":"uint8","name":"inferenceResult","type":"uint8"},{"indexed":false,"internalType":"uint32","name":"bountyId","type":"uint32"}],"name":"PoACVerified","type":"event"},{"inputs":[],"name":"P256_PRECOMPILE","outputs":[{"internalType":"address","name":"","type":"address"}],"stateMutability":"view","type":"function"},{"inputs":[],"name":"POAC_BODY_SIZE","outputs":[{"internalType":"uint256","name":"","type":"uint256"}],"stateMutability":"view","type":"function"},{"inputs":[],"name":"POAC_SIG_SIZE","outputs":[{"internalType":"uint256","name":"","type":"uint256"}],"stateMutability":"view","type":"function"},{"inputs":[],"name":"deviceRegistry","outputs":[{"internalType":"contract DeviceRegistry","name":"","type":"address"}],"stateMutability":"view","type":"function"},{"inputs":[{"internalType":"bytes32","name":"_deviceId","type":"bytes32"}],"name":"getChainHead","outputs":[{"internalType":"bytes32","name":"lastRecordHash","type":"bytes32"},{"internalType":"uint32","name":"lastCounter","type":"uint32"},{"internalType":"bool","name":"initialized","type":"bool"}],"stateMutability":"view","type":"function"},{"inputs":[{"internalType":"bytes32","name":"_deviceId","type":"bytes32"}],"name":"getVerifiedCount","outputs":[{"internalType":"uint32","name":"count","type":"uint32"}],"stateMutability":"view","type":"function"},{"inputs":[{"internalType":"bytes32","name":"_recordHash","type":"bytes32"}],"name":"isRecordVerified","outputs":[{"internalType":"bool","name":"","type":"bool"}],"stateMutability":"view","type":"function"},{"inputs":[],"name":"maxTimestampSkew","outputs":[{"internalType":"uint256","name":"","type":"uint256"}],"stateMutability":"view","type":"function"},{"inputs":[],"name":"owner","outputs":[{"internalType":"address","name":"","type":"address"}],"stateMutability":"view","type":"function"},{"inputs":[],"name":"renounceOwnership","outputs":[],"stateMutability":"nonpayable","type":"function"},{"inputs":[{"internalType":"uint256","name":"_newSkew","type":"uint256"}],"name":"setMaxTimestampSkew","outputs":[],"stateMutability":"nonpayable","type":"function"},{"inputs":[],"name":"totalVerifiedCount","outputs":[{"internalType":"uint256","name":"","type":"uint256"}],"stateMutability":"view","type":"function"},{"inputs":[{"internalType":"address","name":"newOwner","type":"address"}],"name":"transferOwnership","outputs":[],"stateMutability":"nonpayable","type":"function"},{"inputs":[{"internalType":"bytes32","name":"","type":"bytes32"}],"name":"verifiedRecords","outputs":[{"internalType":"bool","name":"","type":"bool"}],"stateMutability":"view","type":"function"},{"inputs":[{"internalType":"bytes32","name":"_deviceId","type":"bytes32"},{"internalType":"bytes","name":"_rawBody","type":"bytes"},{"internalType":"bytes","name":"_signature","type":"bytes"}],"name":"verifyPoAC","outputs":[{"internalType":"bytes32","name":"recordHash","type":"bytes32"}],"stateMutability":"nonpayable","type":"function"},{"inputs":[{"internalType":"bytes32[]","name":"_deviceIds","type":"bytes32[]"},{"internalType":"bytes[]","name":"_rawBodies","type":"bytes[]"},{"internalType":"bytes[]","name":"_signatures","type":"bytes[]"}],"name":"verifyPoACBatch","outputs":[{"internalType":"bytes32[]","name":"recordHashes","type":"bytes32[]"}],"stateMutability":"nonpayable","type":"function"},{"inputs":[{"internalType":"bytes32","name":"_deviceId","type":"bytes32"},{"internalType":"bytes","name":"_rawBody","type":"bytes"},{"internalType":"bytes","name":"_signature","type":"bytes"}],"name":"verifyPoACExternal","outputs":[{"internalType":"bytes32","name":"","type":"bytes32"}],"stateMutability":"nonpayable","type":"function"}],"evm":{"bytecode":{"linkReferences":{},"object":"6080346100d257601f6114cb38819003918201601f19168301916001600160401b038311848410176100d75780849260409485528339810103126100d25780516001600160a01b0391828216918290036100d257602001519033156100b95760005460018060a01b0319903382821617600055604051943391167f8be0079c531659141344cd1fd0a4f28419497f9722a3daafe3b4186f6b6457e0600080a36001805560035416176003556002556113dd90816100ee8239f35b604051631e4fbdf760e01b815260006004820152602490fd5b600080fd5b634e487b7160e01b600052604160045260246000fdfe6080604052600436101561001257600080fd5b60003560e01c806301b8dee6146101225780630beb4da71461011d578063122ec0e01461011857806322b338d714610113578063488dbfad1461010e5780634d0af4281461010e5780635efb870a14610109578063715018a614610104578063803a28f6146100ff5780638da5cb5b146100fa578063915fe23c146100f557806395b32225146100f0578063b1f5993b146100eb578063d25cd666146100e6578063d50ee3b5146100e1578063e9b6c019146100dc5763f2fde38b146100d757600080fd5b6106e3565b610687565b610669565b61064d565b610630565b610433565b6103a7565b61037e565b61034e565b6102f0565b6102c7565b610296565b61027a565b610243565b6101d1565b610137565b600091031261013257565b600080fd5b34610132576000366003190112610132576020600254604051908152f35b9181601f84011215610132578235916001600160401b038311610132576020838186019501011161013257565b90606060031983011261013257600435916001600160401b039160243583811161013257826101b391600401610155565b93909392604435918211610132576101cd91600401610155565b9091565b34610132576101df36610182565b919392933033036101fe576020946101f6946109ae565b604051908152f35b60405162461bcd60e51b815260206004820152601b60248201527f506f414356657269666965723a20696e7465726e616c206f6e6c7900000000006044820152606490fd5b34610132576020366003190112610132576004356000526004602052602063ffffffff600160406000200154821c16604051908152f35b3461013257600036600319011261013257602060405160a48152f35b34610132576020366003190112610132576004356000526005602052602060ff604060002054166040519015158152f35b34610132576000366003190112610132576003546040516001600160a01b039091168152602090f35b346101325760008060031936011261034b5761030a61076f565b80546001600160a01b03198116825581906001600160a01b03167f8be0079c531659141344cd1fd0a4f28419497f9722a3daafe3b4186f6b6457e08280a380f35b80fd5b3461013257602061037261036136610182565b9361036d93919361079b565b6109ae565b60018055604051908152f35b34610132576000366003190112610132576000546040516001600160a01b039091168152602090f35b34610132576020366003190112610132576103c061076f565b600435600255005b9181601f84011215610132578235916001600160401b038311610132576020808501948460051b01011161013257565b6020908160408183019282815285518094520193019160005b82811061041f575050505090565b835185529381019392810192600101610411565b346101325760603660031901126101325760046001600160401b0381358181116101325761046490369084016103c8565b906024358381116101325761047c90369086016103c8565b9190936044359081116101325761049690369087016103c8565b9490956104a161079b565b841561062157838514801590610617575b6106085794959291906104c485610844565b95600097889589955b88871061052d57604080518a8152602081018d9052908101899052610529908b907f6cedc2bc02d0738da2fff66f7bc5753bdbb34f5aaf4f9c2a71c4d52b661aed0790606090a161051d60018055565b604051918291826103f8565b0390f35b9091929394959661057c610542898b8a6108b6565b358661054f8b868b6108cb565b9061055b8d8a8a6108cb565b6040969196519687948594630beb4da760e01b86526020988998870161093c565b03816000305af19182916000936105d9575b50506105bf57506105ae6105b49160006105a88b8e610977565b5261088c565b9761088c565b9594939291906104cd565b889b6105d3916105a86105b4949b8e610977565b9a61088c565b6105f9929350803d10610601575b6105f181836107ec565b81019061090c565b90388061058e565b503d6105e7565b60405163512509d360e11b8152fd5b50858514156104b2565b60405163c2e5347d60e01b8152fd5b346101325760003660031901126101325760206040516101008152f35b3461013257600036600319011261013257602060405160408152f35b34610132576000366003190112610132576020600654604051908152f35b346101325760203660031901126101325760043560005260046020526060604060002060ff6001825492015460405192835263ffffffff8116602084015260401c1615156040820152f35b6001600160a01b0381160361013257565b3461013257602036600319011261013257600435610700816106d2565b61070861076f565b6001600160a01b03908116801561075657600080546001600160a01b03198116831782559092167f8be0079c531659141344cd1fd0a4f28419497f9722a3daafe3b4186f6b6457e08380a380f35b604051631e4fbdf760e01b815260006004820152602490fd5b6000546001600160a01b0316330361078357565b60405163118cdaa760e01b8152336004820152602490fd5b6002600154146107ac576002600155565b604051633ee5aeb560e01b8152600490fd5b634e487b7160e01b600052604160045260246000fd5b6001600160401b0381116107e757604052565b6107be565b90601f801991011681019081106001600160401b038211176107e757604052565b6040519061014082018281106001600160401b038211176107e757604052565b6001600160401b0381116107e75760051b60200190565b9061084e8261082d565b61085b60405191826107ec565b828152809261086c601f199161082d565b0190602036910137565b634e487b7160e01b600052601160045260246000fd5b600019811461089b5760010190565b610876565b634e487b7160e01b600052603260045260246000fd5b91908110156108c65760051b0190565b6108a0565b91908110156108c65760051b81013590601e19813603018212156101325701908135916001600160401b038311610132576020018236038113610132579190565b90816020910312610132575190565b908060209392818452848401376000828201840152601f01601f1916010190565b9391610968959361095a92865260606020870152606086019161091b565b92604081850391015261091b565b90565b6040513d6000823e3d90fd5b80518210156108c65760209160051b010190565b908092918237016000815290565b63ffffffff80911690811461089b5760010190565b929493919060a48203610d6257604092838103610d49576109ce85610f39565b602084519384806109e360009788948861098b565b039060025afa15610d4457825196610a0f610a08896000526005602052604060002090565b5460ff1690565b610d2c57610a289291610a23918988611036565b6111bf565b91610a3d846000526004602052604060002090565b60018101805480841c60ff16949192908580610d15575b610cc4575088906080870195610a74610a6e885160070b90565b8a611113565b87519081610c77575b505055610b0b6060860192610aaf610a99855163ffffffff1690565b825463ffffffff191663ffffffff909116178255565b610aee610acc610ac7835463ffffffff9060201c1690565b610999565b825467ffffffff00000000191660209190911b67ffffffff0000000016178255565b805468ff0000000000000000191668010000000000000000179055565b610b2f610b22896000526005602052604060002090565b805460ff19166001179055565b610b42610b3d60065461088c565b600655565b600354610b5f906001600160a01b03165b6001600160a01b031690565b803b15610c735792610bef610be77fcfaf1c01b5ed0efe033edf39991653ab530ccf7137a5f17be336449eadb644ce969484610c5595610bd38c9b998f9d88519485809481936307567c7560e01b835260048301606060009193929360808101948152600160208201528260408201520152565b03925af1610c5a575b505163ffffffff1690565b935160070b90565b93610bfd8282015160ff1690565b610c1c60a0610c10602085015160ff1690565b93015163ffffffff1690565b925163ffffffff958616815260079690960b602087015260ff9081166040870152166060850152919091166080830152819060a0820190565b0390a3565b80610c67610c6d926107d4565b80610127565b38610bdc565b5080fd5b9192509080610cb9575b610c8e5790818a92610a7d565b815485516304b3e53960e31b8152600481018a905260248101929092526044820152606490fd5b0390fd5b508154811415610c81565b63ffffffff90610cb58987610ce060608c015163ffffffff1690565b905194859463dce74d9160e01b86521691600485019160409194936060840195845263ffffffff809216602085015216910152565b50606087015163ffffffff82811691161115610a54565b845163384c4ec960e01b815260048101899052602490fd5b61096b565b835163058676ad60e31b81526004810191909152602490fd5b6040516308575bc960e41b815260048101839052602490fd5b5190811515820361013257565b908160209103126101325761096890610d7b565b5190610da7826106d2565b565b51906001600160401b038216820361013257565b6001600160401b0381116107e757601f01601f191660200190565b919080601f8401121561013257825190610df182610dbd565b91610dff60405193846107ec565b8083526020918282870101116101325760005b818110610e2757508260009394955001015290565b8581018301518482018401528201610e12565b519063ffffffff8216820361013257565b519061ffff8216820361013257565b6020818303126101325780516001600160401b03918282116101325701906101408284031261013257610e8b61080d565b92610e9583610d9c565b8452610ea360208401610da9565b6020850152610eb460408401610da9565b604085015260608301516060850152610ecf60808401610d7b565b608085015260a083015191821161013257610eeb918301610dd8565b60a0830152610efc60c08201610e3a565b60c0830152610f0d60e08201610e3a565b60e0830152610100610f20818301610e3a565b90830152610f32610120809201610e4b565b9082015290565b600354610f4e906001600160a01b0316610b53565b604051635ec8fe6b60e01b815260048101839052602081602481855afa908115610d4457600091611008575b5015610f84575050565b6040516359d902ed60e01b81526004810183905290600090829060249082905afa9081610fe5575b50610fcb5760405163072b382f60e21b81526004810191909152602490fd5b60405163159c717560e11b81526004810191909152602490fd5b611001903d806000833e610ff981836107ec565b810190610e5a565b5082610fac565b611029915060203d811161102f575b61102181836107ec565b810190610d88565b38610f7a565b503d611017565b60035460405163804ad24960e01b8152600481018390529294919360009390918490829060249082906001600160a01b03165afa938415610d445780946110b7575b5050916110899161108d93866112ab565b1590565b611095575050565b604051636366097760e11b815260048101919091526024810191909152604490fd5b909193503d8082843e6110ca81846107ec565b820191602081840312610c73578051916001600160401b03831161034b575061108d949261108994926110fd9201610dd8565b93819350611078565b9190820180921161089b57565b906103e880420242810482144215171561089b576000600784900b81136111b957506001600160401b038316905b6002549280840290848204148415171561089b5761115f8183611106565b83119283156111a5575b50505061117557505050565b60405163587b5a6d60e01b8152600481019390935260079190910b60248301524260448301526064820152608490fd5b6111b0929350611106565b10388080611169565b90611141565b9060405160c081018181106001600160401b038211176107e75760405260a08082948035845263ffffffff60808201358060001a60208701528060011a604087015260c01c166060850152608881013560c01c6080850152013560e01c910152565b1561122857565b60405162461bcd60e51b815260206004820152602560248201527f506f414356657269666965723a207075626b6579206d75737420626520363520604482015264627974657360d81b6064820152608490fd5b3d156112a6573d9061128c82610dbd565b9161129a60405193846107ec565b82523d6000602084013e565b606090565b9091604003611351578261131a600094936112ca604187965114611221565b61130c604160218501519401516040519485936020850197602082013591359089939160a0959391855260208501526040840152606083015260808201520190565b03601f1981018352826107ec565b51906101005afa61132961127b565b90158015611346575b611340576020015160011490565b50600090565b506020815110611332565b60405162461bcd60e51b815260206004820152602860248201527f506f414356657269666965723a207369676e6174757265206d75737420626520604482015267363420627974657360c01b6064820152608490fdfea264697066735822122005a22ca1f8ae7ca2430f7899d2e6119088194cf8a4a3e4ce62f450fcd3dd959764736f6c63430008140033","opcodes":"PUSH1 0x80 CALLVALUE PUSH2 0xD2 JUMPI PUSH1 0x1F PUSH2 0x14CB CODESIZE DUP2 SWAP1 SUB SWAP2 DUP3 ADD PUSH1 0x1F NOT AND DUP4 ADD SWAP2 PUSH1 0x1 PUSH1 0x1 PUSH1 0x40 SHL SUB DUP4 GT DUP5 DUP5 LT OR PUSH2 0xD7 JUMPI DUP1 DUP5 SWAP3 PUSH1 0x40 SWAP5 DUP6 MSTORE DUP4 CODECOPY DUP2 ADD SUB SLT PUSH2 0xD2 JUMPI DUP1 MLOAD PUSH1 0x1 PUSH1 0x1 PUSH1 0xA0 SHL SUB SWAP2 DUP3 DUP3 AND SWAP2 DUP3 SWAP1 SUB PUSH2 0xD2 JUMPI PUSH1 0x20 ADD MLOAD SWAP1 CALLER ISZERO PUSH2 0xB9 JUMPI PUSH1 0x0 SLOAD PUSH1 0x1 DUP1 PUSH1 0xA0 SHL SUB NOT SWAP1 CALLER DUP3 DUP3 AND OR PUSH1 0x0 SSTORE PUSH1 0x40 MLOAD SWAP5 CALLER SWAP2 AND PUSH32 0x8BE0079C531659141344CD1FD0A4F28419497F9722A3DAAFE3B4186F6B6457E0 PUSH1 0x0 DUP1 LOG3 PUSH1 0x1 DUP1 SSTORE PUSH1 0x3 SLOAD AND OR PUSH1 0x3 SSTORE PUSH1 0x2 SSTORE PUSH2 0x13DD SWAP1 DUP2 PUSH2 0xEE DUP3 CODECOPY RETURN JUMPDEST PUSH1 0x40 MLOAD PUSH4 0x1E4FBDF7 PUSH1 0xE0 SHL DUP2 MSTORE PUSH1 0x0 PUSH1 0x4 DUP3 ADD MSTORE PUSH1 0x24 SWAP1 REVERT JUMPDEST PUSH1 0x0 DUP1 REVERT JUMPDEST PUSH4 0x4E487B71 PUSH1 0xE0 SHL PUSH1 0x0 MSTORE PUSH1 0x41 PUSH1 0x4 MSTORE PUSH1 0x24 PUSH1 0x0 REVERT INVALID PUSH1 0x80 PUSH1 0x40 MSTORE PUSH1 0x4 CALLDATASIZE LT ISZERO PUSH2 0x12 JUMPI PUSH1 0x0 DUP1 REVERT JUMPDEST PUSH1 0x0 CALLDATALOAD PUSH1 0xE0 SHR DUP1 PUSH4 0x1B8DEE6 EQ PUSH2 0x122 JUMPI DUP1 PUSH4 0xBEB4DA7 EQ PUSH2 0x11D JUMPI DUP1 PUSH4 0x122EC0E0 EQ PUSH2 0x118 JUMPI DUP1 PUSH4 0x22B338D7 EQ PUSH2 0x113 JUMPI DUP1 PUSH4 0x488DBFAD EQ PUSH2 0x10E JUMPI DUP1 PUSH4 0x4D0AF428 EQ PUSH2 0x10E JUMPI DUP1 PUSH4 0x5EFB870A EQ PUSH2 0x109 JUMPI DUP1 PUSH4 0x715018A6 EQ PUSH2 0x104 JUMPI DUP1 PUSH4 0x803A28F6 EQ PUSH2 0xFF JUMPI DUP1 PUSH4 0x8DA5CB5B EQ PUSH2 0xFA JUMPI DUP1 PUSH4 0x915FE23C EQ PUSH2 0xF5 JUMPI DUP1 PUSH4 0x95B32225 EQ PUSH2 0xF0 JUMPI DUP1 PUSH4 0xB1F5993B EQ PUSH2 0xEB JUMPI DUP1 PUSH4 0xD25CD666 EQ PUSH2 0xE6 JUMPI DUP1 PUSH4 0xD50EE3B5 EQ PUSH2 0xE1 JUMPI DUP1 PUSH4 0xE9B6C019 EQ PUSH2 0xDC JUMPI PUSH4 0xF2FDE38B EQ PUSH2 0xD7 JUMPI PUSH1 0x0 DUP1 REVERT JUMPDEST PUSH2 0x6E3 JUMP JUMPDEST PUSH2 0x687 JUMP JUMPDEST PUSH2 0x669 JUMP JUMPDEST PUSH2 0x64D JUMP JUMPDEST PUSH2 0x630 JUMP JUMPDEST PUSH2 0x433 JUMP JUMPDEST PUSH2 0x3A7 JUMP JUMPDEST PUSH2 0x37E JUMP JUMPDEST PUSH2 0x34E JUMP JUMPDEST PUSH2 0x2F0 JUMP JUMPDEST PUSH2 0x2C7 JUMP JUMPDEST PUSH2 0x296 JUMP JUMPDEST PUSH2 0x27A JUMP JUMPDEST PUSH2 0x243 JUMP JUMPDEST PUSH2 0x1D1 JUMP JUMPDEST PUSH2 0x137 JUMP JUMPDEST PUSH1 0x0 SWAP2 SUB SLT PUSH2 0x132 JUMPI JUMP JUMPDEST PUSH1 0x0 DUP1 REVERT JUMPDEST CALLVALUE PUSH2 0x132 JUMPI PUSH1 0x0 CALLDATASIZE PUSH1 0x3 NOT ADD SLT PUSH2 0x132 JUMPI PUSH1 0x20 PUSH1 0x2 SLOAD PUSH1 0x40 MLOAD SWAP1 DUP2 MSTORE RETURN JUMPDEST SWAP2 DUP2 PUSH1 0x1F DUP5 ADD SLT ISZERO PUSH2 0x132 JUMPI DUP3 CALLDATALOAD SWAP2 PUSH1 0x1 PUSH1 0x1 PUSH1 0x40 SHL SUB DUP4 GT PUSH2 0x132 JUMPI PUSH1 0x20 DUP4 DUP2 DUP7 ADD SWAP6 ADD ADD GT PUSH2 0x132 JUMPI JUMP JUMPDEST SWAP1 PUSH1 0x60 PUSH1 0x3 NOT DUP4 ADD SLT PUSH2 0x132 JUMPI PUSH1 0x4 CALLDATALOAD SWAP2 PUSH1 0x1 PUSH1 0x1 PUSH1 0x40 SHL SUB SWAP2 PUSH1 0x24 CALLDATALOAD DUP4 DUP2 GT PUSH2 0x132 JUMPI DUP3 PUSH2 0x1B3 SWAP2 PUSH1 0x4 ADD PUSH2 0x155 JUMP JUMPDEST SWAP4 SWAP1 SWAP4 SWAP3 PUSH1 0x44 CALLDATALOAD SWAP2 DUP3 GT PUSH2 0x132 JUMPI PUSH2 0x1CD SWAP2 PUSH1 0x4 ADD PUSH2 0x155 JUMP JUMPDEST SWAP1 SWAP2 JUMP JUMPDEST CALLVALUE PUSH2 0x132 JUMPI PUSH2 0x1DF CALLDATASIZE PUSH2 0x182 JUMP JUMPDEST SWAP2 SWAP4 SWAP3 SWAP4 ADDRESS CALLER SUB PUSH2 0x1FE JUMPI PUSH1 0x20 SWAP5 PUSH2 0x1F6 SWAP5 PUSH2 0x9AE JUMP JUMPDEST PUSH1 0x40 MLOAD SWAP1 DUP2 MSTORE RETURN JUMPDEST PUSH1 0x40 MLOAD PUSH3 0x461BCD PUSH1 0xE5 SHL DUP2 MSTORE PUSH1 0x20 PUSH1 0x4 DUP3 ADD MSTORE PUSH1 0x1B PUSH1 0x24 DUP3 ADD MSTORE PUSH32 0x506F414356657269666965723A20696E7465726E616C206F6E6C790000000000 PUSH1 0x44 DUP3 ADD MSTORE PUSH1 0x64 SWAP1 REVERT JUMPDEST CALLVALUE PUSH2 0x132 JUMPI PUSH1 0x20 CALLDATASIZE PUSH1 0x3 NOT ADD SLT PUSH2 0x132 JUMPI PUSH1 0x4 CALLDATALOAD PUSH1 0x0 MSTORE PUSH1 0x4 PUSH1 0x20 MSTORE PUSH1 0x20 PUSH4 0xFFFFFFFF PUSH1 0x1 PUSH1 0x40 PUSH1 0x0 KECCAK256 ADD SLOAD DUP3 SHR AND PUSH1 0x40 MLOAD SWAP1 DUP2 MSTORE RETURN JUMPDEST CALLVALUE PUSH2 0x132 JUMPI PUSH1 0x0 CALLDATASIZE PUSH1 0x3 NOT ADD SLT PUSH2 0x132 JUMPI PUSH1 0x20 PUSH1 0x40 MLOAD PUSH1 0xA4 DUP2 MSTORE RETURN JUMPDEST CALLVALUE PUSH2 0x132 JUMPI PUSH1 0x20 CALLDATASIZE PUSH1 0x3 NOT ADD SLT PUSH2 0x132 JUMPI PUSH1 0x4 CALLDATALOAD PUSH1 0x0 MSTORE PUSH1 0x5 PUSH1 0x20 MSTORE PUSH1 0x20 PUSH1 0xFF PUSH1 0x40 PUSH1 0x0 KECCAK256 SLOAD AND PUSH1 0x40 MLOAD SWAP1 ISZERO ISZERO DUP2 MSTORE RETURN JUMPDEST CALLVALUE PUSH2 0x132 JUMPI PUSH1 0x0 CALLDATASIZE PUSH1 0x3 NOT ADD SLT PUSH2 0x132 JUMPI PUSH1 0x3 SLOAD PUSH1 0x40 MLOAD PUSH1 0x1 PUSH1 0x1 PUSH1 0xA0 SHL SUB SWAP1 SWAP2 AND DUP2 MSTORE PUSH1 0x20 SWAP1 RETURN JUMPDEST CALLVALUE PUSH2 0x132 JUMPI PUSH1 0x0 DUP1 PUSH1 0x3 NOT CALLDATASIZE ADD SLT PUSH2 0x34B JUMPI PUSH2 0x30A PUSH2 0x76F JUMP JUMPDEST DUP1 SLOAD PUSH1 0x1 PUSH1 0x1 PUSH1 0xA0 SHL SUB NOT DUP2 AND DUP3 SSTORE DUP2 SWAP1 PUSH1 0x1 PUSH1 0x1 PUSH1 0xA0 SHL SUB AND PUSH32 0x8BE0079C531659141344CD1FD0A4F28419497F9722A3DAAFE3B4186F6B6457E0 DUP3 DUP1 LOG3 DUP1 RETURN JUMPDEST DUP1 REVERT JUMPDEST CALLVALUE PUSH2 0x132 JUMPI PUSH1 0x20 PUSH2 0x372 PUSH2 0x361 CALLDATASIZE PUSH2 0x182 JUMP JUMPDEST SWAP4 PUSH2 0x36D SWAP4 SWAP2 SWAP4 PUSH2 0x79B JUMP JUMPDEST PUSH2 0x9AE JUMP JUMPDEST PUSH1 0x1 DUP1 SSTORE PUSH1 0x40 MLOAD SWAP1 DUP2 MSTORE RETURN JUMPDEST CALLVALUE PUSH2 0x132 JUMPI PUSH1 0x0 CALLDATASIZE PUSH1 0x3 NOT ADD SLT PUSH2 0x132 JUMPI PUSH1 0x0 SLOAD PUSH1 0x40 MLOAD PUSH1 0x1 PUSH1 0x1 PUSH1 0xA0 SHL SUB SWAP1 SWAP2 AND DUP2 MSTORE PUSH1 0x20 SWAP1 RETURN JUMPDEST CALLVALUE PUSH2 0x132 JUMPI PUSH1 0x20 CALLDATASIZE PUSH1 0x3 NOT ADD SLT PUSH2 0x132 JUMPI PUSH2 0x3C0 PUSH2 0x76F JUMP JUMPDEST PUSH1 0x4 CALLDATALOAD PUSH1 0x2 SSTORE STOP JUMPDEST SWAP2 DUP2 PUSH1 0x1F DUP5 ADD SLT ISZERO PUSH2 0x132 JUMPI DUP3 CALLDATALOAD SWAP2 PUSH1 0x1 PUSH1 0x1 PUSH1 0x40 SHL SUB DUP4 GT PUSH2 0x132 JUMPI PUSH1 0x20 DUP1 DUP6 ADD SWAP5 DUP5 PUSH1 0x5 SHL ADD ADD GT PUSH2 0x132 JUMPI JUMP JUMPDEST PUSH1 0x20 SWAP1 DUP2 PUSH1 0x40 DUP2 DUP4 ADD SWAP3 DUP3 DUP2 MSTORE DUP6 MLOAD DUP1 SWAP5 MSTORE ADD SWAP4 ADD SWAP2 PUSH1 0x0 JUMPDEST DUP3 DUP2 LT PUSH2 0x41F JUMPI POP POP POP POP SWAP1 JUMP JUMPDEST DUP4 MLOAD DUP6 MSTORE SWAP4 DUP2 ADD SWAP4 SWAP3 DUP2 ADD SWAP3 PUSH1 0x1 ADD PUSH2 0x411 JUMP JUMPDEST CALLVALUE PUSH2 0x132 JUMPI PUSH1 0x60 CALLDATASIZE PUSH1 0x3 NOT ADD SLT PUSH2 0x132 JUMPI PUSH1 0x4 PUSH1 0x1 PUSH1 0x1 PUSH1 0x40 SHL SUB DUP2 CALLDATALOAD DUP2 DUP2 GT PUSH2 0x132 JUMPI PUSH2 0x464 SWAP1 CALLDATASIZE SWAP1 DUP5 ADD PUSH2 0x3C8 JUMP JUMPDEST SWAP1 PUSH1 0x24 CALLDATALOAD DUP4 DUP2 GT PUSH2 0x132 JUMPI PUSH2 0x47C SWAP1 CALLDATASIZE SWAP1 DUP7 ADD PUSH2 0x3C8 JUMP JUMPDEST SWAP2 SWAP1 SWAP4 PUSH1 0x44 CALLDATALOAD SWAP1 DUP2 GT PUSH2 0x132 JUMPI PUSH2 0x496 SWAP1 CALLDATASIZE SWAP1 DUP8 ADD PUSH2 0x3C8 JUMP JUMPDEST SWAP5 SWAP1 SWAP6 PUSH2 0x4A1 PUSH2 0x79B JUMP JUMPDEST DUP5 ISZERO PUSH2 0x621 JUMPI DUP4 DUP6 EQ DUP1 ISZERO SWAP1 PUSH2 0x617 JUMPI JUMPDEST PUSH2 0x608 JUMPI SWAP5 SWAP6 SWAP3 SWAP2 SWAP1 PUSH2 0x4C4 DUP6 PUSH2 0x844 JUMP JUMPDEST SWAP6 PUSH1 0x0 SWAP8 DUP9 SWAP6 DUP10 SWAP6 JUMPDEST DUP9 DUP8 LT PUSH2 0x52D JUMPI PUSH1 0x40 DUP1 MLOAD DUP11 DUP2 MSTORE PUSH1 0x20 DUP2 ADD DUP14 SWAP1 MSTORE SWAP1 DUP2 ADD DUP10 SWAP1 MSTORE PUSH2 0x529 SWAP1 DUP12 SWAP1 PUSH32 0x6CEDC2BC02D0738DA2FFF66F7BC5753BDBB34F5AAF4F9C2A71C4D52B661AED07 SWAP1 PUSH1 0x60 SWAP1 LOG1 PUSH2 0x51D PUSH1 0x1 DUP1 SSTORE JUMP JUMPDEST PUSH1 0x40 MLOAD SWAP2 DUP3 SWAP2 DUP3 PUSH2 0x3F8 JUMP JUMPDEST SUB SWAP1 RETURN JUMPDEST SWAP1 SWAP2 SWAP3 SWAP4 SWAP5 SWAP6 SWAP7 PUSH2 0x57C PUSH2 0x542 DUP10 DUP12 DUP11 PUSH2 0x8B6 JUMP JUMPDEST CALLDATALOAD DUP7 PUSH2 0x54F DUP12 DUP7 DUP12 PUSH2 0x8CB JUMP JUMPDEST SWAP1 PUSH2 0x55B DUP14 DUP11 DUP11 PUSH2 0x8CB JUMP JUMPDEST PUSH1 0x40 SWAP7 SWAP2 SWAP7 MLOAD SWAP7 DUP8 SWAP5 DUP6 SWAP5 PUSH4 0xBEB4DA7 PUSH1 0xE0 SHL DUP7 MSTORE PUSH1 0x20 SWAP9 DUP10 SWAP9 DUP8 ADD PUSH2 0x93C JUMP JUMPDEST SUB DUP2 PUSH1 0x0 ADDRESS GAS CALL SWAP2 DUP3 SWAP2 PUSH1 0x0 SWAP4 PUSH2 0x5D9 JUMPI JUMPDEST POP POP PUSH2 0x5BF JUMPI POP PUSH2 0x5AE PUSH2 0x5B4 SWAP2 PUSH1 0x0 PUSH2 0x5A8 DUP12 DUP15 PUSH2 0x977 JUMP JUMPDEST MSTORE PUSH2 0x88C JUMP JUMPDEST SWAP8 PUSH2 0x88C JUMP JUMPDEST SWAP6 SWAP5 SWAP4 SWAP3 SWAP2 SWAP1 PUSH2 0x4CD JUMP JUMPDEST DUP9 SWAP12 PUSH2 0x5D3 SWAP2 PUSH2 0x5A8 PUSH2 0x5B4 SWAP5 SWAP12 DUP15 PUSH2 0x977 JUMP JUMPDEST SWAP11 PUSH2 0x88C JUMP JUMPDEST PUSH2 0x5F9 SWAP3 SWAP4 POP DUP1 RETURNDATASIZE LT PUSH2 0x601 JUMPI JUMPDEST PUSH2 0x5F1 DUP2 DUP4 PUSH2 0x7EC JUMP JUMPDEST DUP2 ADD SWAP1 PUSH2 0x90C JUMP JUMPDEST SWAP1 CODESIZE DUP1 PUSH2 0x58E JUMP JUMPDEST POP RETURNDATASIZE PUSH2 0x5E7 JUMP JUMPDEST PUSH1 0x40 MLOAD PUSH4 0x512509D3 PUSH1 0xE1 SHL DUP2 MSTORE REVERT JUMPDEST POP DUP6 DUP6 EQ ISZERO PUSH2 0x4B2 JUMP JUMPDEST PUSH1 0x40 MLOAD PUSH4 0xC2E5347D PUSH1 0xE0 SHL DUP2 MSTORE REVERT JUMPDEST CALLVALUE PUSH2 0x132 JUMPI PUSH1 0x0 CALLDATASIZE PUSH1 0x3 NOT ADD SLT PUSH2 0x132 JUMPI PUSH1 0x20 PUSH1 0x40 MLOAD PUSH2 0x100 DUP2 MSTORE RETURN JUMPDEST CALLVALUE PUSH2 0x132 JUMPI PUSH1 0x0 CALLDATASIZE PUSH1 0x3 NOT ADD SLT PUSH2 0x132 JUMPI PUSH1 0x20 PUSH1 0x40 MLOAD PUSH1 0x40 DUP2 MSTORE RETURN JUMPDEST CALLVALUE PUSH2 0x132 JUMPI PUSH1 0x0 CALLDATASIZE PUSH1 0x3 NOT ADD SLT PUSH2 0x132 JUMPI PUSH1 0x20 PUSH1 0x6 SLOAD PUSH1 0x40 MLOAD SWAP1 DUP2 MSTORE RETURN JUMPDEST CALLVALUE PUSH2 0x132 JUMPI PUSH1 0x20 CALLDATASIZE PUSH1 0x3 NOT ADD SLT PUSH2 0x132 JUMPI PUSH1 0x4 CALLDATALOAD PUSH1 0x0 MSTORE PUSH1 0x4 PUSH1 0x20 MSTORE PUSH1 0x60 PUSH1 0x40 PUSH1 0x0 KECCAK256 PUSH1 0xFF PUSH1 0x1 DUP3 SLOAD SWAP3 ADD SLOAD PUSH1 0x40 MLOAD SWAP3 DUP4 MSTORE PUSH4 0xFFFFFFFF DUP2 AND PUSH1 0x20 DUP5 ADD MSTORE PUSH1 0x40 SHR AND ISZERO ISZERO PUSH1 0x40 DUP3 ADD MSTORE RETURN JUMPDEST PUSH1 0x1 PUSH1 0x1 PUSH1 0xA0 SHL SUB DUP2 AND SUB PUSH2 0x132 JUMPI JUMP JUMPDEST CALLVALUE PUSH2 0x132 JUMPI PUSH1 0x20 CALLDATASIZE PUSH1 0x3 NOT ADD SLT PUSH2 0x132 JUMPI PUSH1 0x4 CALLDATALOAD PUSH2 0x700 DUP2 PUSH2 0x6D2 JUMP JUMPDEST PUSH2 0x708 PUSH2 0x76F JUMP JUMPDEST PUSH1 0x1 PUSH1 0x1 PUSH1 0xA0 SHL SUB SWAP1 DUP2 AND DUP1 ISZERO PUSH2 0x756 JUMPI PUSH1 0x0 DUP1 SLOAD PUSH1 0x1 PUSH1 0x1 PUSH1 0xA0 SHL SUB NOT DUP2 AND DUP4 OR DUP3 SSTORE SWAP1 SWAP3 AND PUSH32 0x8BE0079C531659141344CD1FD0A4F28419497F9722A3DAAFE3B4186F6B6457E0 DUP4 DUP1 LOG3 DUP1 RETURN JUMPDEST PUSH1 0x40 MLOAD PUSH4 0x1E4FBDF7 PUSH1 0xE0 SHL DUP2 MSTORE PUSH1 0x0 PUSH1 0x4 DUP3 ADD MSTORE PUSH1 0x24 SWAP1 REVERT JUMPDEST PUSH1 0x0 SLOAD PUSH1 0x1 PUSH1 0x1 PUSH1 0xA0 SHL SUB AND CALLER SUB PUSH2 0x783 JUMPI JUMP JUMPDEST PUSH1 0x40 MLOAD PUSH4 0x118CDAA7 PUSH1 0xE0 SHL DUP2 MSTORE CALLER PUSH1 0x4 DUP3 ADD MSTORE PUSH1 0x24 SWAP1 REVERT JUMPDEST PUSH1 0x2 PUSH1 0x1 SLOAD EQ PUSH2 0x7AC JUMPI PUSH1 0x2 PUSH1 0x1 SSTORE JUMP JUMPDEST PUSH1 0x40 MLOAD PUSH4 0x3EE5AEB5 PUSH1 0xE0 SHL DUP2 MSTORE PUSH1 0x4 SWAP1 REVERT JUMPDEST PUSH4 0x4E487B71 PUSH1 0xE0 SHL PUSH1 0x0 MSTORE PUSH1 0x41 PUSH1 0x4 MSTORE PUSH1 0x24 PUSH1 0x0 REVERT JUMPDEST PUSH1 0x1 PUSH1 0x1 PUSH1 0x40 SHL SUB DUP2 GT PUSH2 0x7E7 JUMPI PUSH1 0x40 MSTORE JUMP JUMPDEST PUSH2 0x7BE JUMP JUMPDEST SWAP1 PUSH1 0x1F DUP1 NOT SWAP2 ADD AND DUP2 ADD SWAP1 DUP2 LT PUSH1 0x1 PUSH1 0x1 PUSH1 0x40 SHL SUB DUP3 GT OR PUSH2 0x7E7 JUMPI PUSH1 0x40 MSTORE JUMP JUMPDEST PUSH1 0x40 MLOAD SWAP1 PUSH2 0x140 DUP3 ADD DUP3 DUP2 LT PUSH1 0x1 PUSH1 0x1 PUSH1 0x40 SHL SUB DUP3 GT OR PUSH2 0x7E7 JUMPI PUSH1 0x40 MSTORE JUMP JUMPDEST PUSH1 0x1 PUSH1 0x1 PUSH1 0x40 SHL SUB DUP2 GT PUSH2 0x7E7 JUMPI PUSH1 0x5 SHL PUSH1 0x20 ADD SWAP1 JUMP JUMPDEST SWAP1 PUSH2 0x84E DUP3 PUSH2 0x82D JUMP JUMPDEST PUSH2 0x85B PUSH1 0x40 MLOAD SWAP2 DUP3 PUSH2 0x7EC JUMP JUMPDEST DUP3 DUP2 MSTORE DUP1 SWAP3 PUSH2 0x86C PUSH1 0x1F NOT SWAP2 PUSH2 0x82D JUMP JUMPDEST ADD SWAP1 PUSH1 0x20 CALLDATASIZE SWAP2 ADD CALLDATACOPY JUMP JUMPDEST PUSH4 0x4E487B71 PUSH1 0xE0 SHL PUSH1 0x0 MSTORE PUSH1 0x11 PUSH1 0x4 MSTORE PUSH1 0x24 PUSH1 0x0 REVERT JUMPDEST PUSH1 0x0 NOT DUP2 EQ PUSH2 0x89B JUMPI PUSH1 0x1 ADD SWAP1 JUMP JUMPDEST PUSH2 0x876 JUMP JUMPDEST PUSH4 0x4E487B71 PUSH1 0xE0 SHL PUSH1 0x0 MSTORE PUSH1 0x32 PUSH1 0x4 MSTORE PUSH1 0x24 PUSH1 0x0 REVERT JUMPDEST SWAP2 SWAP1 DUP2 LT ISZERO PUSH2 0x8C6 JUMPI PUSH1 0x5 SHL ADD SWAP1 JUMP JUMPDEST PUSH2 0x8A0 JUMP JUMPDEST SWAP2 SWAP1 DUP2 LT ISZERO PUSH2 0x8C6 JUMPI PUSH1 0x5 SHL DUP2 ADD CALLDATALOAD SWAP1 PUSH1 0x1E NOT DUP2 CALLDATASIZE SUB ADD DUP3 SLT ISZERO PUSH2 0x132 JUMPI ADD SWAP1 DUP2 CALLDATALOAD SWAP2 PUSH1 0x1 PUSH1 0x1 PUSH1 0x40 SHL SUB DUP4 GT PUSH2 0x132 JUMPI PUSH1 0x20 ADD DUP3 CALLDATASIZE SUB DUP2 SGT PUSH2 0x132 JUMPI SWAP2 SWAP1 JUMP JUMPDEST SWAP1 DUP2 PUSH1 0x20 SWAP2 SUB SLT PUSH2 0x132 JUMPI MLOAD SWAP1 JUMP JUMPDEST SWAP1 DUP1 PUSH1 0x20 SWAP4 SWAP3 DUP2 DUP5 MSTORE DUP5 DUP5 ADD CALLDATACOPY PUSH1 0x0 DUP3 DUP3 ADD DUP5 ADD MSTORE PUSH1 0x1F ADD PUSH1 0x1F NOT AND ADD ADD SWAP1 JUMP JUMPDEST SWAP4 SWAP2 PUSH2 0x968 SWAP6 SWAP4 PUSH2 0x95A SWAP3 DUP7 MSTORE PUSH1 0x60 PUSH1 0x20 DUP8 ADD MSTORE PUSH1 0x60 DUP7 ADD SWAP2 PUSH2 0x91B JUMP JUMPDEST SWAP3 PUSH1 0x40 DUP2 DUP6 SUB SWAP2 ADD MSTORE PUSH2 0x91B JUMP JUMPDEST SWAP1 JUMP JUMPDEST PUSH1 0x40 MLOAD RETURNDATASIZE PUSH1 0x0 DUP3 RETURNDATACOPY RETURNDATASIZE SWAP1 REVERT JUMPDEST DUP1 MLOAD DUP3 LT ISZERO PUSH2 0x8C6 JUMPI PUSH1 0x20 SWAP2 PUSH1 0x5 SHL ADD ADD SWAP1 JUMP JUMPDEST SWAP1 DUP1 SWAP3 SWAP2 DUP3 CALLDATACOPY ADD PUSH1 0x0 DUP2 MSTORE SWAP1 JUMP JUMPDEST PUSH4 0xFFFFFFFF DUP1 SWAP2 AND SWAP1 DUP2 EQ PUSH2 0x89B JUMPI PUSH1 0x1 ADD SWAP1 JUMP JUMPDEST SWAP3 SWAP5 SWAP4 SWAP2 SWAP1 PUSH1 0xA4 DUP3 SUB PUSH2 0xD62 JUMPI PUSH1 0x40 SWAP3 DUP4 DUP2 SUB PUSH2 0xD49 JUMPI PUSH2 0x9CE DUP6 PUSH2 0xF39 JUMP JUMPDEST PUSH1 0x20 DUP5 MLOAD SWAP4 DUP5 DUP1 PUSH2 0x9E3 PUSH1 0x0 SWAP8 DUP9 SWAP5 DUP9 PUSH2 0x98B JUMP JUMPDEST SUB SWAP1 PUSH1 0x2 GAS STATICCALL ISZERO PUSH2 0xD44 JUMPI DUP3 MLOAD SWAP7 PUSH2 0xA0F PUSH2 0xA08 DUP10 PUSH1 0x0 MSTORE PUSH1 0x5 PUSH1 0x20 MSTORE PUSH1 0x40 PUSH1 0x0 KECCAK256 SWAP1 JUMP JUMPDEST SLOAD PUSH1 0xFF AND SWAP1 JUMP JUMPDEST PUSH2 0xD2C JUMPI PUSH2 0xA28 SWAP3 SWAP2 PUSH2 0xA23 SWAP2 DUP10 DUP9 PUSH2 0x1036 JUMP JUMPDEST PUSH2 0x11BF JUMP JUMPDEST SWAP2 PUSH2 0xA3D DUP5 PUSH1 0x0 MSTORE PUSH1 0x4 PUSH1 0x20 MSTORE PUSH1 0x40 PUSH1 0x0 KECCAK256 SWAP1 JUMP JUMPDEST PUSH1 0x1 DUP2 ADD DUP1 SLOAD DUP1 DUP5 SHR PUSH1 0xFF AND SWAP5 SWAP2 SWAP3 SWAP1 DUP6 DUP1 PUSH2 0xD15 JUMPI JUMPDEST PUSH2 0xCC4 JUMPI POP DUP9 SWAP1 PUSH1 0x80 DUP8 ADD SWAP6 PUSH2 0xA74 PUSH2 0xA6E DUP9 MLOAD PUSH1 0x7 SIGNEXTEND SWAP1 JUMP JUMPDEST DUP11 PUSH2 0x1113 JUMP JUMPDEST DUP8 MLOAD SWAP1 DUP2 PUSH2 0xC77 JUMPI JUMPDEST POP POP SSTORE PUSH2 0xB0B PUSH1 0x60 DUP7 ADD SWAP3 PUSH2 0xAAF PUSH2 0xA99 DUP6 MLOAD PUSH4 0xFFFFFFFF AND SWAP1 JUMP JUMPDEST DUP3 SLOAD PUSH4 0xFFFFFFFF NOT AND PUSH4 0xFFFFFFFF SWAP1 SWAP2 AND OR DUP3 SSTORE JUMP JUMPDEST PUSH2 0xAEE PUSH2 0xACC PUSH2 0xAC7 DUP4 SLOAD PUSH4 0xFFFFFFFF SWAP1 PUSH1 0x20 SHR AND SWAP1 JUMP JUMPDEST PUSH2 0x999 JUMP JUMPDEST DUP3 SLOAD PUSH8 0xFFFFFFFF00000000 NOT AND PUSH1 0x20 SWAP2 SWAP1 SWAP2 SHL PUSH8 0xFFFFFFFF00000000 AND OR DUP3 SSTORE JUMP JUMPDEST DUP1 SLOAD PUSH9 0xFF0000000000000000 NOT AND PUSH9 0x10000000000000000 OR SWAP1 SSTORE JUMP JUMPDEST PUSH2 0xB2F PUSH2 0xB22 DUP10 PUSH1 0x0 MSTORE PUSH1 0x5 PUSH1 0x20 MSTORE PUSH1 0x40 PUSH1 0x0 KECCAK256 SWAP1 JUMP JUMPDEST DUP1 SLOAD PUSH1 0xFF NOT AND PUSH1 0x1 OR SWAP1 SSTORE JUMP JUMPDEST PUSH2 0xB42 PUSH2 0xB3D PUSH1 0x6 SLOAD PUSH2 0x88C JUMP JUMPDEST PUSH1 0x6 SSTORE JUMP JUMPDEST PUSH1 0x3 SLOAD PUSH2 0xB5F SWAP1 PUSH1 0x1 PUSH1 0x1 PUSH1 0xA0 SHL SUB AND JUMPDEST PUSH1 0x1 PUSH1 0x1 PUSH1 0xA0 SHL SUB AND SWAP1 JUMP JUMPDEST DUP1 EXTCODESIZE ISZERO PUSH2 0xC73 JUMPI SWAP3 PUSH2 0xBEF PUSH2 0xBE7 PUSH32 0xCFAF1C01B5ED0EFE033EDF39991653AB530CCF7137A5F17BE336449EADB644CE SWAP7 SWAP5 DUP5 PUSH2 0xC55 SWAP6 PUSH2 0xBD3 DUP13 SWAP12 SWAP10 DUP16 SWAP14 DUP9 MLOAD SWAP5 DUP6 DUP1 SWAP5 DUP2 SWAP4 PUSH4 0x7567C75 PUSH1 0xE0 SHL DUP4 MSTORE PUSH1 0x4 DUP4 ADD PUSH1 0x60 PUSH1 0x0 SWAP2 SWAP4 SWAP3 SWAP4 PUSH1 0x80 DUP2 ADD SWAP5 DUP2 MSTORE PUSH1 0x1 PUSH1 0x20 DUP3 ADD MSTORE DUP3 PUSH1 0x40 DUP3 ADD MSTORE ADD MSTORE JUMP JUMPDEST SUB SWAP3 GAS CALL PUSH2 0xC5A JUMPI JUMPDEST POP MLOAD PUSH4 0xFFFFFFFF AND SWAP1 JUMP JUMPDEST SWAP4 MLOAD PUSH1 0x7 SIGNEXTEND SWAP1 JUMP JUMPDEST SWAP4 PUSH2 0xBFD DUP3 DUP3 ADD MLOAD PUSH1 0xFF AND SWAP1 JUMP JUMPDEST PUSH2 0xC1C PUSH1 0xA0 PUSH2 0xC10 PUSH1 0x20 DUP6 ADD MLOAD PUSH1 0xFF AND SWAP1 JUMP JUMPDEST SWAP4 ADD MLOAD PUSH4 0xFFFFFFFF AND SWAP1 JUMP JUMPDEST SWAP3 MLOAD PUSH4 0xFFFFFFFF SWAP6 DUP7 AND DUP2 MSTORE PUSH1 0x7 SWAP7 SWAP1 SWAP7 SIGNEXTEND PUSH1 0x20 DUP8 ADD MSTORE PUSH1 0xFF SWAP1 DUP2 AND PUSH1 0x40 DUP8 ADD MSTORE AND PUSH1 0x60 DUP6 ADD MSTORE SWAP2 SWAP1 SWAP2 AND PUSH1 0x80 DUP4 ADD MSTORE DUP2 SWAP1 PUSH1 0xA0 DUP3 ADD SWAP1 JUMP JUMPDEST SUB SWAP1 LOG3 JUMP JUMPDEST DUP1 PUSH2 0xC67 PUSH2 0xC6D SWAP3 PUSH2 0x7D4 JUMP JUMPDEST DUP1 PUSH2 0x127 JUMP JUMPDEST CODESIZE PUSH2 0xBDC JUMP JUMPDEST POP DUP1 REVERT JUMPDEST SWAP2 SWAP3 POP SWAP1 DUP1 PUSH2 0xCB9 JUMPI JUMPDEST PUSH2 0xC8E JUMPI SWAP1 DUP2 DUP11 SWAP3 PUSH2 0xA7D JUMP JUMPDEST DUP2 SLOAD DUP6 MLOAD PUSH4 0x4B3E539 PUSH1 0xE3 SHL DUP2 MSTORE PUSH1 0x4 DUP2 ADD DUP11 SWAP1 MSTORE PUSH1 0x24 DUP2 ADD SWAP3 SWAP1 SWAP3 MSTORE PUSH1 0x44 DUP3 ADD MSTORE PUSH1 0x64 SWAP1 REVERT JUMPDEST SUB SWAP1 REVERT JUMPDEST POP DUP2 SLOAD DUP2 EQ ISZERO PUSH2 0xC81 JUMP JUMPDEST PUSH4 0xFFFFFFFF SWAP1 PUSH2 0xCB5 DUP10 DUP8 PUSH2 0xCE0 PUSH1 0x60 DUP13 ADD MLOAD PUSH4 0xFFFFFFFF AND SWAP1 JUMP JUMPDEST SWAP1 MLOAD SWAP5 DUP6 SWAP5 PUSH4 0xDCE74D91 PUSH1 0xE0 SHL DUP7 MSTORE AND SWAP2 PUSH1 0x4 DUP6 ADD SWAP2 PUSH1 0x40 SWAP2 SWAP5 SWAP4 PUSH1 0x60 DUP5 ADD SWAP6 DUP5 MSTORE PUSH4 0xFFFFFFFF DUP1 SWAP3 AND PUSH1 0x20 DUP6 ADD MSTORE AND SWAP2 ADD MSTORE JUMP JUMPDEST POP PUSH1 0x60 DUP8 ADD MLOAD PUSH4 0xFFFFFFFF DUP3 DUP2 AND SWAP2 AND GT ISZERO PUSH2 0xA54 JUMP JUMPDEST DUP5 MLOAD PUSH4 0x384C4EC9 PUSH1 0xE0 SHL DUP2 MSTORE PUSH1 0x4 DUP2 ADD DUP10 SWAP1 MSTORE PUSH1 0x24 SWAP1 REVERT JUMPDEST PUSH2 0x96B JUMP JUMPDEST DUP4 MLOAD PUSH4 0x58676AD PUSH1 0xE3 SHL DUP2 MSTORE PUSH1 0x4 DUP2 ADD SWAP2 SWAP1 SWAP2 MSTORE PUSH1 0x24 SWAP1 REVERT JUMPDEST PUSH1 0x40 MLOAD PUSH4 0x8575BC9 PUSH1 0xE4 SHL DUP2 MSTORE PUSH1 0x4 DUP2 ADD DUP4 SWAP1 MSTORE PUSH1 0x24 SWAP1 REVERT JUMPDEST MLOAD SWAP1 DUP2 ISZERO ISZERO DUP3 SUB PUSH2 0x132 JUMPI JUMP JUMPDEST SWAP1 DUP2 PUSH1 0x20 SWAP2 SUB SLT PUSH2 0x132 JUMPI PUSH2 0x968 SWAP1 PUSH2 0xD7B JUMP JUMPDEST MLOAD SWAP1 PUSH2 0xDA7 DUP3 PUSH2 0x6D2 JUMP JUMPDEST JUMP JUMPDEST MLOAD SWAP1 PUSH1 0x1 PUSH1 0x1 PUSH1 0x40 SHL SUB DUP3 AND DUP3 SUB PUSH2 0x132 JUMPI JUMP JUMPDEST PUSH1 0x1 PUSH1 0x1 PUSH1 0x40 SHL SUB DUP2 GT PUSH2 0x7E7 JUMPI PUSH1 0x1F ADD PUSH1 0x1F NOT AND PUSH1 0x20 ADD SWAP1 JUMP JUMPDEST SWAP2 SWAP1 DUP1 PUSH1 0x1F DUP5 ADD SLT ISZERO PUSH2 0x132 JUMPI DUP3 MLOAD SWAP1 PUSH2 0xDF1 DUP3 PUSH2 0xDBD JUMP JUMPDEST SWAP2 PUSH2 0xDFF PUSH1 0x40 MLOAD SWAP4 DUP5 PUSH2 0x7EC JUMP JUMPDEST DUP1 DUP4 MSTORE PUSH1 0x20 SWAP2 DUP3 DUP3 DUP8 ADD ADD GT PUSH2 0x132 JUMPI PUSH1 0x0 JUMPDEST DUP2 DUP2 LT PUSH2 0xE27 JUMPI POP DUP3 PUSH1 0x0 SWAP4 SWAP5 SWAP6 POP ADD ADD MSTORE SWAP1 JUMP JUMPDEST DUP6 DUP2 ADD DUP4 ADD MLOAD DUP5 DUP3 ADD DUP5 ADD MSTORE DUP3 ADD PUSH2 0xE12 JUMP JUMPDEST MLOAD SWAP1 PUSH4 0xFFFFFFFF DUP3 AND DUP3 SUB PUSH2 0x132 JUMPI JUMP JUMPDEST MLOAD SWAP1 PUSH2 0xFFFF DUP3 AND DUP3 SUB PUSH2 0x132 JUMPI JUMP JUMPDEST PUSH1 0x20 DUP2 DUP4 SUB SLT PUSH2 0x132 JUMPI DUP1 MLOAD PUSH1 0x1 PUSH1 0x1 PUSH1 0x40 SHL SUB SWAP2 DUP3 DUP3 GT PUSH2 0x132 JUMPI ADD SWAP1 PUSH2 0x140 DUP3 DUP5 SUB SLT PUSH2 0x132 JUMPI PUSH2 0xE8B PUSH2 0x80D JUMP JUMPDEST SWAP3 PUSH2 0xE95 DUP4 PUSH2 0xD9C JUMP JUMPDEST DUP5 MSTORE PUSH2 0xEA3 PUSH1 0x20 DUP5 ADD PUSH2 0xDA9 JUMP JUMPDEST PUSH1 0x20 DUP6 ADD MSTORE PUSH2 0xEB4 PUSH1 0x40 DUP5 ADD PUSH2 0xDA9 JUMP JUMPDEST PUSH1 0x40 DUP6 ADD MSTORE PUSH1 0x60 DUP4 ADD MLOAD PUSH1 0x60 DUP6 ADD MSTORE PUSH2 0xECF PUSH1 0x80 DUP5 ADD PUSH2 0xD7B JUMP JUMPDEST PUSH1 0x80 DUP6 ADD MSTORE PUSH1 0xA0 DUP4 ADD MLOAD SWAP2 DUP3 GT PUSH2 0x132 JUMPI PUSH2 0xEEB SWAP2 DUP4 ADD PUSH2 0xDD8 JUMP JUMPDEST PUSH1 0xA0 DUP4 ADD MSTORE PUSH2 0xEFC PUSH1 0xC0 DUP3 ADD PUSH2 0xE3A JUMP JUMPDEST PUSH1 0xC0 DUP4 ADD MSTORE PUSH2 0xF0D PUSH1 0xE0 DUP3 ADD PUSH2 0xE3A JUMP JUMPDEST PUSH1 0xE0 DUP4 ADD MSTORE PUSH2 0x100 PUSH2 0xF20 DUP2 DUP4 ADD PUSH2 0xE3A JUMP JUMPDEST SWAP1 DUP4 ADD MSTORE PUSH2 0xF32 PUSH2 0x120 DUP1 SWAP3 ADD PUSH2 0xE4B JUMP JUMPDEST SWAP1 DUP3 ADD MSTORE SWAP1 JUMP JUMPDEST PUSH1 0x3 SLOAD PUSH2 0xF4E SWAP1 PUSH1 0x1 PUSH1 0x1 PUSH1 0xA0 SHL SUB AND PUSH2 0xB53 JUMP JUMPDEST PUSH1 0x40 MLOAD PUSH4 0x5EC8FE6B PUSH1 0xE0 SHL DUP2 MSTORE PUSH1 0x4 DUP2 ADD DUP4 SWAP1 MSTORE PUSH1 0x20 DUP2 PUSH1 0x24 DUP2 DUP6 GAS STATICCALL SWAP1 DUP2 ISZERO PUSH2 0xD44 JUMPI PUSH1 0x0 SWAP2 PUSH2 0x1008 JUMPI JUMPDEST POP ISZERO PUSH2 0xF84 JUMPI POP POP JUMP JUMPDEST PUSH1 0x40 MLOAD PUSH4 0x59D902ED PUSH1 0xE0 SHL DUP2 MSTORE PUSH1 0x4 DUP2 ADD DUP4 SWAP1 MSTORE SWAP1 PUSH1 0x0 SWAP1 DUP3 SWAP1 PUSH1 0x24 SWAP1 DUP3 SWAP1 GAS STATICCALL SWAP1 DUP2 PUSH2 0xFE5 JUMPI JUMPDEST POP PUSH2 0xFCB JUMPI PUSH1 0x40 MLOAD PUSH4 0x72B382F PUSH1 0xE2 SHL DUP2 MSTORE PUSH1 0x4 DUP2 ADD SWAP2 SWAP1 SWAP2 MSTORE PUSH1 0x24 SWAP1 REVERT JUMPDEST PUSH1 0x40 MLOAD PUSH4 0x159C7175 PUSH1 0xE1 SHL DUP2 MSTORE PUSH1 0x4 DUP2 ADD SWAP2 SWAP1 SWAP2 MSTORE PUSH1 0x24 SWAP1 REVERT JUMPDEST PUSH2 0x1001 SWAP1 RETURNDATASIZE DUP1 PUSH1 0x0 DUP4 RETURNDATACOPY PUSH2 0xFF9 DUP2 DUP4 PUSH2 0x7EC JUMP JUMPDEST DUP2 ADD SWAP1 PUSH2 0xE5A JUMP JUMPDEST POP DUP3 PUSH2 0xFAC JUMP JUMPDEST PUSH2 0x1029 SWAP2 POP PUSH1 0x20 RETURNDATASIZE DUP2 GT PUSH2 0x102F JUMPI JUMPDEST PUSH2 0x1021 DUP2 DUP4 PUSH2 0x7EC JUMP JUMPDEST DUP2 ADD SWAP1 PUSH2 0xD88 JUMP JUMPDEST CODESIZE PUSH2 0xF7A JUMP JUMPDEST POP RETURNDATASIZE PUSH2 0x1017 JUMP JUMPDEST PUSH1 0x3 SLOAD PUSH1 0x40 MLOAD PUSH4 0x804AD249 PUSH1 0xE0 SHL DUP2 MSTORE PUSH1 0x4 DUP2 ADD DUP4 SWAP1 MSTORE SWAP3 SWAP5 SWAP2 SWAP4 PUSH1 0x0 SWAP4 SWAP1 SWAP2 DUP5 SWAP1 DUP3 SWAP1 PUSH1 0x24 SWAP1 DUP3 SWAP1 PUSH1 0x1 PUSH1 0x1 PUSH1 0xA0 SHL SUB AND GAS STATICCALL SWAP4 DUP5 ISZERO PUSH2 0xD44 JUMPI DUP1 SWAP5 PUSH2 0x10B7 JUMPI JUMPDEST POP POP SWAP2 PUSH2 0x1089 SWAP2 PUSH2 0x108D SWAP4 DUP7 PUSH2 0x12AB JUMP JUMPDEST ISZERO SWAP1 JUMP JUMPDEST PUSH2 0x1095 JUMPI POP POP JUMP JUMPDEST PUSH1 0x40 MLOAD PUSH4 0x63660977 PUSH1 0xE1 SHL DUP2 MSTORE PUSH1 0x4 DUP2 ADD SWAP2 SWAP1 SWAP2 MSTORE PUSH1 0x24 DUP2 ADD SWAP2 SWAP1 SWAP2 MSTORE PUSH1 0x44 SWAP1 REVERT JUMPDEST SWAP1 SWAP2 SWAP4 POP RETURNDATASIZE DUP1 DUP3 DUP5 RETURNDATACOPY PUSH2 0x10CA DUP2 DUP5 PUSH2 0x7EC JUMP JUMPDEST DUP3 ADD SWAP2 PUSH1 0x20 DUP2 DUP5 SUB SLT PUSH2 0xC73 JUMPI DUP1 MLOAD SWAP2 PUSH1 0x1 PUSH1 0x1 PUSH1 0x40 SHL SUB DUP4 GT PUSH2 0x34B JUMPI POP PUSH2 0x108D SWAP5 SWAP3 PUSH2 0x1089 SWAP5 SWAP3 PUSH2 0x10FD SWAP3 ADD PUSH2 0xDD8 JUMP JUMPDEST SWAP4 DUP2 SWAP4 POP PUSH2 0x1078 JUMP JUMPDEST SWAP2 SWAP1 DUP3 ADD DUP1 SWAP3 GT PUSH2 0x89B JUMPI JUMP JUMPDEST SWAP1 PUSH2 0x3E8 DUP1 TIMESTAMP MUL TIMESTAMP DUP2 DIV DUP3 EQ TIMESTAMP ISZERO OR ISZERO PUSH2 0x89B JUMPI PUSH1 0x0 PUSH1 0x7 DUP5 SWAP1 SIGNEXTEND DUP2 SGT PUSH2 0x11B9 JUMPI POP PUSH1 0x1 PUSH1 0x1 PUSH1 0x40 SHL SUB DUP4 AND SWAP1 JUMPDEST PUSH1 0x2 SLOAD SWAP3 DUP1 DUP5 MUL SWAP1 DUP5 DUP3 DIV EQ DUP5 ISZERO OR ISZERO PUSH2 0x89B JUMPI PUSH2 0x115F DUP2 DUP4 PUSH2 0x1106 JUMP JUMPDEST DUP4 GT SWAP3 DUP4 ISZERO PUSH2 0x11A5 JUMPI JUMPDEST POP POP POP PUSH2 0x1175 JUMPI POP POP POP JUMP JUMPDEST PUSH1 0x40 MLOAD PUSH4 0x587B5A6D PUSH1 0xE0 SHL DUP2 MSTORE PUSH1 0x4 DUP2 ADD SWAP4 SWAP1 SWAP4 MSTORE PUSH1 0x7 SWAP2 SWAP1 SWAP2 SIGNEXTEND PUSH1 0x24 DUP4 ADD MSTORE TIMESTAMP PUSH1 0x44 DUP4 ADD MSTORE PUSH1 0x64 DUP3 ADD MSTORE PUSH1 0x84 SWAP1 REVERT JUMPDEST PUSH2 0x11B0 SWAP3 SWAP4 POP PUSH2 0x1106 JUMP JUMPDEST LT CODESIZE DUP1 DUP1 PUSH2 0x1169 JUMP JUMPDEST SWAP1 PUSH2 0x1141 JUMP JUMPDEST SWAP1 PUSH1 0x40 MLOAD PUSH1 0xC0 DUP2 ADD DUP2 DUP2 LT PUSH1 0x1 PUSH1 0x1 PUSH1 0x40 SHL SUB DUP3 GT OR PUSH2 0x7E7 JUMPI PUSH1 0x40 MSTORE PUSH1 0xA0 DUP1 DUP3 SWAP5 DUP1 CALLDATALOAD DUP5 MSTORE PUSH4 0xFFFFFFFF PUSH1 0x80 DUP3 ADD CALLDATALOAD DUP1 PUSH1 0x0 BYTE PUSH1 0x20 DUP8 ADD MSTORE DUP1 PUSH1 0x1 BYTE PUSH1 0x40 DUP8 ADD MSTORE PUSH1 0xC0 SHR AND PUSH1 0x60 DUP6 ADD MSTORE PUSH1 0x88 DUP2 ADD CALLDATALOAD PUSH1 0xC0 SHR PUSH1 0x80 DUP6 ADD MSTORE ADD CALLDATALOAD PUSH1 0xE0 SHR SWAP2 ADD MSTORE JUMP JUMPDEST ISZERO PUSH2 0x1228 JUMPI JUMP JUMPDEST PUSH1 0x40 MLOAD PUSH3 0x461BCD PUSH1 0xE5 SHL DUP2 MSTORE PUSH1 0x20 PUSH1 0x4 DUP3 ADD MSTORE PUSH1 0x25 PUSH1 0x24 DUP3 ADD MSTORE PUSH32 0x506F414356657269666965723A207075626B6579206D75737420626520363520 PUSH1 0x44 DUP3 ADD MSTORE PUSH5 0x6279746573 PUSH1 0xD8 SHL PUSH1 0x64 DUP3 ADD MSTORE PUSH1 0x84 SWAP1 REVERT JUMPDEST RETURNDATASIZE ISZERO PUSH2 0x12A6 JUMPI RETURNDATASIZE SWAP1 PUSH2 0x128C DUP3 PUSH2 0xDBD JUMP JUMPDEST SWAP2 PUSH2 0x129A PUSH1 0x40 MLOAD SWAP4 DUP5 PUSH2 0x7EC JUMP JUMPDEST DUP3 MSTORE RETURNDATASIZE PUSH1 0x0 PUSH1 0x20 DUP5 ADD RETURNDATACOPY JUMP JUMPDEST PUSH1 0x60 SWAP1 JUMP JUMPDEST SWAP1 SWAP2 PUSH1 0x40 SUB PUSH2 0x1351 JUMPI DUP3 PUSH2 0x131A PUSH1 0x0 SWAP5 SWAP4 PUSH2 0x12CA PUSH1 0x41 DUP8 SWAP7 MLOAD EQ PUSH2 0x1221 JUMP JUMPDEST PUSH2 0x130C PUSH1 0x41 PUSH1 0x21 DUP6 ADD MLOAD SWAP5 ADD MLOAD PUSH1 0x40 MLOAD SWAP5 DUP6 SWAP4 PUSH1 0x20 DUP6 ADD SWAP8 PUSH1 0x20 DUP3 ADD CALLDATALOAD SWAP2 CALLDATALOAD SWAP1 DUP10 SWAP4 SWAP2 PUSH1 0xA0 SWAP6 SWAP4 SWAP2 DUP6 MSTORE PUSH1 0x20 DUP6 ADD MSTORE PUSH1 0x40 DUP5 ADD MSTORE PUSH1 0x60 DUP4 ADD MSTORE PUSH1 0x80 DUP3 ADD MSTORE ADD SWAP1 JUMP JUMPDEST SUB PUSH1 0x1F NOT DUP2 ADD DUP4 MSTORE DUP3 PUSH2 0x7EC JUMP JUMPDEST MLOAD SWAP1 PUSH2 0x100 GAS STATICCALL PUSH2 0x1329 PUSH2 0x127B JUMP JUMPDEST SWAP1 ISZERO DUP1 ISZERO PUSH2 0x1346 JUMPI JUMPDEST PUSH2 0x1340 JUMPI PUSH1 0x20 ADD MLOAD PUSH1 0x1 EQ SWAP1 JUMP JUMPDEST POP PUSH1 0x0 SWAP1 JUMP JUMPDEST POP PUSH1 0x20 DUP2 MLOAD LT PUSH2 0x1332 JUMP JUMPDEST PUSH1 0x40 MLOAD PUSH3 0x461BCD PUSH1 0xE5 SHL DUP2 MSTORE PUSH1 0x20 PUSH1 0x4 DUP3 ADD MSTORE PUSH1 0x28 PUSH1 0x24 DUP3 ADD MSTORE PUSH32 0x506F414356657269666965723A207369676E6174757265206D75737420626520 PUSH1 0x44 DUP3 ADD MSTORE PUSH8 0x3634206279746573 PUSH1 0xC0 SHL PUSH1 0x64 DUP3 ADD MSTORE PUSH1 0x84 SWAP1 REVERT INVALID LOG2 PUSH5 0x6970667358 0x22 SLT KECCAK256 SDIV LOG2 0x2C LOG1 0xF8 0xAE PUSH29 0xA2430F7899D2E6119088194CF8A4A3E4CE62F450FCD3DD959764736F6C PUSH4 0x43000814 STOP CALLER "},"methodIdentifiers":{"P256_PRECOMPILE()":"b1f5993b","POAC_BODY_SIZE()":"22b338d7","POAC_SIG_SIZE()":"d25cd666","deviceRegistry()":"5efb870a","getChainHead(bytes32)":"e9b6c019","getVerifiedCount(bytes32)":"122ec0e0","isRecordVerified(bytes32)":"488dbfad","maxTimestampSkew()":"01b8dee6","owner()":"8da5cb5b","renounceOwnership()":"715018a6","setMaxTimestampSkew(uint256)":"915fe23c","totalVerifiedCount()":"d50ee3b5","transferOwnership(address)":"f2fde38b","verifiedRecords(bytes32)":"4d0af428","verifyPoAC(bytes32,bytes,bytes)":"803a28f6","verifyPoACBatch(bytes32[],bytes[],bytes[])":"95b32225","verifyPoACExternal(bytes32,bytes,bytes)":"0beb4da7"}}}}}