{"contracts/BountyMarket.sol":{"BountyMarket":{"abi":[{"inputs":[{"internalType":"address","name":"_poACVerifier","type":"address"},{"internalType":"address","name":"_deviceRegistry","type":"address"},{"internalType":"uint16","name":"_platformFeeBps","type":"uint16"}],"stateMutability":"nonpayable","type":"constructor"},{"inputs":[{"internalType":"uint256","name":"bountyId","type":"uint256"},{"internalType":"bytes32","name":"deviceId","type":"bytes32"}],"name":"AlreadyAccepted","type":"error"},{"inputs":[{"internalType":"uint256","name":"bountyId","type":"uint256"}],"name":"BountyAlreadyFulfilled","type":"error"},{"inputs":[{"internalType":"uint256","name":"bountyId","type":"uint256"}],"name":"BountyNotActive","type":"error"},{"inputs":[{"internalType":"uint256","name":"bountyId","type":"uint256"}],"name":"BountyNotExpired","type":"error"},{"inputs":[{"internalType":"uint256","name":"bountyId","type":"uint256"}],"name":"BountyNotFound","type":"error"},{"inputs":[{"internalType":"bytes32","name":"deviceId","type":"bytes32"}],"name":"DeviceNotActive","type":"error"},{"inputs":[{"internalType":"bytes32","name":"deviceId","type":"bytes32"}],"name":"DeviceNotRegistered","type":"error"},{"inputs":[{"internalType":"bytes32","name":"deviceId","type":"bytes32"}],"name":"GateCheckFailed","type":"error"},{"inputs":[{"internalType":"bytes32","name":"deviceId","type":"bytes32"}],"name":"IneligibleTier","type":"error"},{"inputs":[],"name":"InsufficientReward","type":"error"},{"inputs":[{"internalType":"uint256","name":"duration","type":"uint256"}],"name":"InvalidDuration","type":"error"},{"inputs":[],"name":"InvalidMinSamples","type":"error"},{"inputs":[],"name":"InvalidZone","type":"error"},{"inputs":[{"internalType":"uint256","name":"bountyId","type":"uint256"},{"internalType":"uint16","name":"submitted","type":"uint16"},{"internalType":"uint16","name":"required","type":"uint16"}],"name":"MinSamplesNotReached","type":"error"},{"inputs":[{"internalType":"uint256","name":"bountyId","type":"uint256"}],"name":"NoDevicesForAggregation","type":"error"},{"inputs":[{"internalType":"uint256","name":"bountyId","type":"uint256"},{"internalType":"bytes32","name":"deviceId","type":"bytes32"}],"name":"NotAccepted","type":"error"},{"inputs":[{"internalType":"uint256","name":"bountyId","type":"uint256"},{"internalType":"address","name":"caller","type":"address"}],"name":"NotBountyCreator","type":"error"},{"inputs":[{"internalType":"int64","name":"lat","type":"int64"},{"internalType":"int64","name":"lon","type":"int64"}],"name":"OutsideGeographicZone","type":"error"},{"inputs":[{"internalType":"address","name":"owner","type":"address"}],"name":"OwnableInvalidOwner","type":"error"},{"inputs":[{"internalType":"address","name":"account","type":"address"}],"name":"OwnableUnauthorizedAccount","type":"error"},{"inputs":[{"internalType":"bytes32","name":"recordHash","type":"bytes32"},{"internalType":"uint256","name":"existingBountyId","type":"uint256"}],"name":"RecordAlreadyUsed","type":"error"},{"inputs":[{"internalType":"bytes32","name":"recordHash","type":"bytes32"}],"name":"RecordNotVerified","type":"error"},{"inputs":[],"name":"ReentrancyGuardReentrantCall","type":"error"},{"inputs":[{"internalType":"int64","name":"lastTs","type":"int64"},{"internalType":"int64","name":"currentTs","type":"int64"},{"internalType":"uint32","name":"requiredInterval","type":"uint32"}],"name":"SampleIntervalNotRespected","type":"error"},{"inputs":[],"name":"TransferFailed","type":"error"},{"anonymous":false,"inputs":[{"indexed":true,"internalType":"uint256","name":"bountyId","type":"uint256"},{"indexed":true,"internalType":"bytes32","name":"deviceId","type":"bytes32"},{"indexed":false,"internalType":"uint64","name":"acceptedAt","type":"uint64"}],"name":"BountyAccepted","type":"event"},{"anonymous":false,"inputs":[{"indexed":true,"internalType":"uint256","name":"bountyId","type":"uint256"},{"indexed":true,"internalType":"address","name":"creator","type":"address"},{"indexed":false,"internalType":"uint256","name":"refundAmount","type":"uint256"}],"name":"BountyExpired","type":"event"},{"anonymous":false,"inputs":[{"indexed":true,"internalType":"uint256","name":"bountyId","type":"uint256"},{"indexed":true,"internalType":"address","name":"creator","type":"address"},{"indexed":false,"internalType":"uint256","name":"reward","type":"uint256"},{"indexed":false,"internalType":"uint16","name":"sensorRequirements","type":"uint16"},{"indexed":false,"internalType":"uint16","name":"minSamples","type":"uint16"},{"indexed":false,"internalType":"uint64","name":"deadlineMs","type":"uint64"}],"name":"BountyPosted","type":"event"},{"anonymous":false,"inputs":[{"indexed":true,"internalType":"uint256","name":"bountyId","type":"uint256"},{"indexed":true,"internalType":"bytes32","name":"deviceId","type":"bytes32"},{"indexed":true,"internalType":"bytes32","name":"recordHash","type":"bytes32"},{"indexed":false,"internalType":"uint16","name":"sampleNumber","type":"uint16"}],"name":"EvidenceSubmitted","type":"event"},{"anonymous":false,"inputs":[{"indexed":true,"internalType":"address","name":"previousOwner","type":"address"},{"indexed":true,"internalType":"address","name":"newOwner","type":"address"}],"name":"OwnershipTransferred","type":"event"},{"anonymous":false,"inputs":[{"indexed":true,"internalType":"uint256","name":"bountyId","type":"uint256"},{"indexed":false,"internalType":"uint256","name":"deviceCount","type":"uint256"},{"indexed":false,"internalType":"uint256","name":"totalSamples","type":"uint256"},{"indexed":false,"internalType":"uint16","name":"confidenceScore","type":"uint16"},{"indexed":false,"internalType":"uint8","name":"consensusInference","type":"uint8"},{"indexed":false,"internalType":"int64","name":"medianLatitude","type":"int64"},{"indexed":false,"internalType":"int64","name":"medianLongitude","type":"int64"},{"indexed":false,"internalType":"int64","name":"earliestTimestampMs","type":"int64"},{"indexed":false,"internalType":"int64","name":"latestTimestampMs","type":"int64"}],"name":"PhysicalOracleReport","type":"event"},{"anonymous":false,"inputs":[{"indexed":true,"internalType":"uint256","name":"bountyId","type":"uint256"},{"indexed":true,"internalType":"bytes32","name":"deviceId","type":"bytes32"},{"indexed":true,"internalType":"address","name":"recipient","type":"address"},{"indexed":false,"internalType":"uint256","name":"amount","type":"uint256"}],"name":"RewardClaimed","type":"event"},{"inputs":[],"name":"COORD_SCALE","outputs":[{"internalType":"int64","name":"","type":"int64"}],"stateMutability":"view","type":"function"},{"inputs":[],"name":"MAX_BOUNTY_DURATION","outputs":[{"internalType":"uint256","name":"","type":"uint256"}],"stateMutability":"view","type":"function"},{"inputs":[],"name":"MIN_BOUNTY_DURATION","outputs":[{"internalType":"uint256","name":"","type":"uint256"}],"stateMutability":"view","type":"function"},{"inputs":[],"name":"REQUIRES_GPS","outputs":[{"internalType":"uint16","name":"","type":"uint16"}],"stateMutability":"view","type":"function"},{"inputs":[],"name":"REQUIRES_HUMIDITY","outputs":[{"internalType":"uint16","name":"","type":"uint16"}],"stateMutability":"view","type":"function"},{"inputs":[],"name":"REQUIRES_LIGHT","outputs":[{"internalType":"uint16","name":"","type":"uint16"}],"stateMutability":"view","type":"function"},{"inputs":[],"name":"REQUIRES_MOTION","outputs":[{"internalType":"uint16","name":"","type":"uint16"}],"stateMutability":"view","type":"function"},{"inputs":[],"name":"REQUIRES_PRESSURE","outputs":[{"internalType":"uint16","name":"","type":"uint16"}],"stateMutability":"view","type":"function"},{"inputs":[],"name":"REQUIRES_TEMP","outputs":[{"internalType":"uint16","name":"","type":"uint16"}],"stateMutability":"view","type":"function"},{"inputs":[],"name":"REQUIRES_VOC","outputs":[{"internalType":"uint16","name":"","type":"uint16"}],"stateMutability":"view","type":"function"},{"inputs":[{"internalType":"uint256","name":"_bountyId","type":"uint256"},{"internalType":"bytes32","name":"_deviceId","type":"bytes32"}],"name":"acceptBounty","outputs":[],"stateMutability":"nonpayable","type":"function"},{"inputs":[{"internalType":"uint256","name":"","type":"uint256"},{"internalType":"bytes32","name":"","type":"bytes32"}],"name":"acceptances","outputs":[{"internalType":"bool","name":"accepted","type":"bool"},{"internalType":"uint64","name":"acceptedAt","type":"uint64"},{"internalType":"uint16","name":"samplesSubmitted","type":"uint16"},{"internalType":"int64","name":"lastSampleTimestampMs","type":"int64"}],"stateMutability":"view","type":"function"},{"inputs":[],"name":"accumulatedFees","outputs":[{"internalType":"uint256","name":"","type":"uint256"}],"stateMutability":"view","type":"function"},{"inputs":[{"internalType":"uint256","name":"_bountyId","type":"uint256"},{"internalType":"bytes32[]","name":"_deviceIds","type":"bytes32[]"},{"internalType":"bytes32[]","name":"_recordHashes","type":"bytes32[]"},{"internalType":"int64[]","name":"_latitudes","type":"int64[]"},{"internalType":"int64[]","name":"_longitudes","type":"int64[]"},{"internalType":"int64[]","name":"_timestampsMs","type":"int64[]"},{"internalType":"uint8[]","name":"_inferences","type":"uint8[]"}],"name":"aggregateSwarmReport","outputs":[{"components":[{"internalType":"uint256","name":"bountyId","type":"uint256"},{"internalType":"uint256","name":"deviceCount","type":"uint256"},{"internalType":"uint256","name":"totalSamples","type":"uint256"},{"internalType":"uint16","name":"confidenceScore","type":"uint16"},{"internalType":"uint8","name":"consensusInference","type":"uint8"},{"internalType":"int64","name":"medianLatitude","type":"int64"},{"internalType":"int64","name":"medianLongitude","type":"int64"},{"internalType":"int64","name":"earliestTimestampMs","type":"int64"},{"internalType":"int64","name":"latestTimestampMs","type":"int64"}],"internalType":"struct BountyMarket.SwarmReport","name":"report","type":"tuple"}],"stateMutability":"nonpayable","type":"function"},{"inputs":[{"internalType":"uint256","name":"","type":"uint256"}],"name":"bounties","outputs":[{"internalType":"uint256","name":"bountyId","type":"uint256"},{"internalType":"address","name":"creator","type":"address"},{"internalType":"uint256","name":"reward","type":"uint256"},{"internalType":"uint16","name":"sensorRequirements","type":"uint16"},{"internalType":"uint16","name":"minSamples","type":"uint16"},{"internalType":"uint32","name":"sampleIntervalS","type":"uint32"},{"internalType":"uint32","name":"durationS","type":"uint32"},{"internalType":"uint64","name":"deadlineMs","type":"uint64"},{"internalType":"int64","name":"zoneLatMin","type":"int64"},{"internalType":"int64","name":"zoneLatMax","type":"int64"},{"internalType":"int64","name":"zoneLonMin","type":"int64"},{"internalType":"int64","name":"zoneLonMax","type":"int64"},{"internalType":"int256","name":"vocThreshold","type":"int256"},{"internalType":"int256","name":"tempThresholdHi","type":"int256"},{"internalType":"int256","name":"tempThresholdLo","type":"int256"},{"internalType":"enum BountyMarket.BountyStatus","name":"status","type":"uint8"},{"internalType":"uint256","name":"createdAt","type":"uint256"}],"stateMutability":"view","type":"function"},{"inputs":[{"internalType":"uint256","name":"_bountyId","type":"uint256"},{"internalType":"bytes32","name":"_deviceId","type":"bytes32"}],"name":"claimReward","outputs":[],"stateMutability":"nonpayable","type":"function"},{"inputs":[],"name":"deviceRegistry","outputs":[{"internalType":"contract DeviceRegistry","name":"","type":"address"}],"stateMutability":"view","type":"function"},{"inputs":[{"internalType":"bytes32","name":"","type":"bytes32"}],"name":"evidenceRecordToBounty","outputs":[{"internalType":"uint256","name":"","type":"uint256"}],"stateMutability":"view","type":"function"},{"inputs":[{"internalType":"uint256","name":"_bountyId","type":"uint256"}],"name":"expireBounty","outputs":[],"stateMutability":"nonpayable","type":"function"},{"inputs":[{"internalType":"uint256","name":"_bountyId","type":"uint256"},{"internalType":"bytes32","name":"_deviceId","type":"bytes32"}],"name":"getAcceptance","outputs":[{"components":[{"internalType":"bool","name":"accepted","type":"bool"},{"internalType":"uint64","name":"acceptedAt","type":"uint64"},{"internalType":"uint16","name":"samplesSubmitted","type":"uint16"},{"internalType":"int64","name":"lastSampleTimestampMs","type":"int64"}],"internalType":"struct BountyMarket.Acceptance","name":"","type":"tuple"}],"stateMutability":"view","type":"function"},{"inputs":[{"internalType":"uint256","name":"_bountyId","type":"uint256"}],"name":"getAcceptedDevices","outputs":[{"internalType":"bytes32[]","name":"","type":"bytes32[]"}],"stateMutability":"view","type":"function"},{"inputs":[{"internalType":"uint256","name":"_bountyId","type":"uint256"}],"name":"getBounty","outputs":[{"components":[{"internalType":"uint256","name":"bountyId","type":"uint256"},{"internalType":"address","name":"creator","type":"address"},{"internalType":"uint256","name":"reward","type":"uint256"},{"internalType":"uint16","name":"sensorRequirements","type":"uint16"},{"internalType":"uint16","name":"minSamples","type":"uint16"},{"internalType":"uint32","name":"sampleIntervalS","type":"uint32"},{"internalType":"uint32","name":"durationS","type":"uint32"},{"internalType":"uint64","name":"deadlineMs","type":"uint64"},{"internalType":"int64","name":"zoneLatMin","type":"int64"},{"internalType":"int64","name":"zoneLatMax","type":"int64"},{"internalType":"int64","name":"zoneLonMin","type":"int64"},{"internalType":"int64","name":"zoneLonMax","type":"int64"},{"internalType":"int256","name":"vocThreshold","type":"int256"},{"internalType":"int256","name":"tempThresholdHi","type":"int256"},{"internalType":"int256","name":"tempThresholdLo","type":"int256"},{"internalType":"enum BountyMarket.BountyStatus","name":"status","type":"uint8"},{"internalType":"uint256","name":"createdAt","type":"uint256"}],"internalType":"struct BountyMarket.BountyDescriptor","name":"","type":"tuple"}],"stateMutability":"view","type":"function"},{"inputs":[{"internalType":"uint256","name":"_bountyId","type":"uint256"},{"internalType":"uint256","name":"_index","type":"uint256"}],"name":"getEvidence","outputs":[{"components":[{"internalType":"bytes32","name":"deviceId","type":"bytes32"},{"internalType":"bytes32","name":"recordHash","type":"bytes32"},{"internalType":"int64","name":"timestampMs","type":"int64"},{"internalType":"int64","name":"latitude","type":"int64"},{"internalType":"int64","name":"longitude","type":"int64"}],"internalType":"struct BountyMarket.Evidence","name":"","type":"tuple"}],"stateMutability":"view","type":"function"},{"inputs":[{"internalType":"uint256","name":"_bountyId","type":"uint256"}],"name":"getEvidenceCount","outputs":[{"internalType":"uint256","name":"count","type":"uint256"}],"stateMutability":"view","type":"function"},{"inputs":[],"name":"nextBountyId","outputs":[{"internalType":"uint256","name":"","type":"uint256"}],"stateMutability":"view","type":"function"},{"inputs":[],"name":"owner","outputs":[{"internalType":"address","name":"","type":"address"}],"stateMutability":"view","type":"function"},{"inputs":[],"name":"platformFeeBps","outputs":[{"internalType":"uint16","name":"","type":"uint16"}],"stateMutability":"view","type":"function"},{"inputs":[],"name":"poACVerifier","outputs":[{"internalType":"contract PoACVerifier","name":"","type":"address"}],"stateMutability":"view","type":"function"},{"inputs":[{"internalType":"uint16","name":"_sensorRequirements","type":"uint16"},{"internalType":"uint16","name":"_minSamples","type":"uint16"},{"internalType":"uint32","name":"_sampleIntervalS","type":"uint32"},{"internalType":"uint32","name":"_durationS","type":"uint32"},{"internalType":"int64","name":"_zoneLatMin","type":"int64"},{"internalType":"int64","name":"_zoneLatMax","type":"int64"},{"internalType":"int64","name":"_zoneLonMin","type":"int64"},{"internalType":"int64","name":"_zoneLonMax","type":"int64"},{"internalType":"int256","name":"_vocThreshold","type":"int256"},{"internalType":"int256","name":"_tempThresholdHi","type":"int256"},{"internalType":"int256","name":"_tempThresholdLo","type":"int256"}],"name":"postBounty","outputs":[{"internalType":"uint256","name":"bountyId","type":"uint256"}],"stateMutability":"payable","type":"function"},{"inputs":[],"name":"renounceOwnership","outputs":[],"stateMutability":"nonpayable","type":"function"},{"inputs":[{"internalType":"uint16","name":"_newFeeBps","type":"uint16"}],"name":"setPlatformFee","outputs":[],"stateMutability":"nonpayable","type":"function"},{"inputs":[{"internalType":"address","name":"gate","type":"address"}],"name":"setTournamentGate","outputs":[],"stateMutability":"nonpayable","type":"function"},{"inputs":[{"internalType":"uint256","name":"_bountyId","type":"uint256"},{"internalType":"bytes32","name":"_deviceId","type":"bytes32"},{"internalType":"bytes32","name":"_recordHash","type":"bytes32"},{"internalType":"int64","name":"_latitude","type":"int64"},{"internalType":"int64","name":"_longitude","type":"int64"},{"internalType":"int64","name":"_timestampMs","type":"int64"}],"name":"submitEvidence","outputs":[],"stateMutability":"nonpayable","type":"function"},{"inputs":[],"name":"tournamentGate","outputs":[{"internalType":"address","name":"","type":"address"}],"stateMutability":"view","type":"function"},{"inputs":[{"internalType":"address","name":"newOwner","type":"address"}],"name":"transferOwnership","outputs":[],"stateMutability":"nonpayable","type":"function"},{"inputs":[],"name":"withdrawFees","outputs":[],"stateMutability":"nonpayable","type":"function"}],"evm":{"bytecode":{"linkReferences":{},"object":"6080346200011657601f62002b3238819003918201601f19168301916001600160401b038311848410176200011b5780849260609460405283398101031262000116576200004d8162000131565b9060406200005e6020830162000131565b9101519061ffff821680920362000116573315620000fd5760008054336001600160a01b0319808316821784556040519690946001600160a01b03949093859391908416907f8be0079c531659141344cd1fd0a4f28419497f9722a3daafe3b4186f6b6457e09080a360018055168360045416176004551690600554161760055561ffff19600254161760025560016007556129eb9081620001478239f35b604051631e4fbdf760e01b815260006004820152602490fd5b600080fd5b634e487b7160e01b600052604160045260246000fd5b51906001600160a01b0382168203620001165756fe61028080604052600436101561001457600080fd5b60003560e01c90816311955a8d146126955750806322dcd13e146126735780632cd5a77a146125c0578063327cea62146125a4578063423aee311461257857806344c5e39b14611bc85780634636f70a14611bac578063476343ee14611b5f57806348591e5514611b43578063496e62f714611b24578063587f5ed714611b065780635cbc742c14611a765780635efb870a14611a4d5780635faedcef146119555780636569dac414611660578063715018a61461160757806385c3dd80146115db5780638da5cb5b146115b2578063925ac9b1146115965780639d2fd78b14611508578063b52947e4146114ed578063bd62ad22146114d0578063c9ae98bd14610f69578063d5f9897f14610f06578063d7b5a84a14610eea578063dc2f874414610dde578063e144064a14610dc2578063e489232d14610b23578063eacd3ab3146106d2578063eb768843146106a9578063ee8c4bbf146103f3578063f1b8a98c1461032e578063f1cf790514610305578063f2fde38b14610275578063f4f47683146101cf5763fd14fad4146101ac57600080fd5b346101ca5760003660031901126101ca576020600754604051908152f35b600080fd5b346101ca576020806003193601126101ca57600435600052600b8152604060002060405190818382549182815201908192600052846000209060005b86828210610261578686610221828803836127e2565b604051928392818401908285525180915260408401929160005b82811061024a57505050500390f35b83518552869550938101939281019260010161023b565b83548552909301926001928301920161020b565b346101ca5760203660031901126101ca576004356001600160a01b03818116918290036101ca576102a4612735565b81156102ec57600054826bffffffffffffffffffffffff60a01b821617600055167f8be0079c531659141344cd1fd0a4f28419497f9722a3daafe3b4186f6b6457e0600080a3005b604051631e4fbdf760e01b815260006004820152602490fd5b346101ca5760003660031901126101ca576004546040516001600160a01b039091168152602090f35b346101ca5760403660031901126101ca576000608060405161034f816127ab565b8281528260208201528260408201528260608201520152600435600052600a60205260a0610383602435604060002061289a565b5060405190610391826127ab565b8054918281526002600183015492602083019384520154906040810160079383850b8252608060608401938560401c870b8552019360801c850b845260405195865251602086015251830b604085015251820b606084015251900b6080820152f35b346101ca5760203660031901126101ca576000610200604051610415816127c6565b8281528260208201528260408201528260608201528260808201528260a08201528260c08201528260e08201528261010082015282610120820152826101408201528261016082015282610180820152826101a0820152826101c0820152826101e0820152015260043580600052600860205260406000209060ff60088301541690600482101561069357811561067b5750610200610220926009604051916104bd836127c6565b80549485845260018060a01b03600183015416602085015260028201546040850152600382015461ffff8116606086015261ffff8160101c16608086015263ffffffff8160201c1660a086015263ffffffff8160401c1660c08601526001600160401b038160601c1660e086015260a01c60070b61010085015260048201548060070b6101208601528060401c60070b61014086015260801c60070b610160850152600582015461018085015260068201546101a085015260078201546101c08501526101e084015201548282015260405192835260018060a01b0360208201511660208401526040810151604084015261ffff606082015116606084015261ffff608082015116608084015263ffffffff60a08201511660a084015263ffffffff60c08201511660c08401526001600160401b0360e08201511660e084015261010081015160070b61010084015261012081015160070b61012084015261014081015160070b61014084015261016081015160070b6101608401526101808101516101808401526101a08101516101a08401526101c08101516101c08401526106716101e08201516101e0850190612728565b0151610200820152f35b6024906040519063728640f360e11b82526004820152fd5b634e487b7160e01b600052602160045260246000fd5b346101ca5760003660031901126101ca576006546040516001600160a01b039091168152602090f35b346101ca576106e0366126b1565b6106e861284e565b8160005260209160088352604060002092600884019081549460ff86166004811015610693578015610b0a5760028114610af157600103610ad857836000526009825260406000208560005282526040600020549260ff841615610aba5761ffff809460481c1684600384015460101c1690818110610a965750506006546001600160a01b039790881680610a36575b5090600280939260ff191617905501549160025416808302908382041483151715610a20576127109004808303928311610a20576107b890600354612880565b600355602460008660055416604051928380926359d902ed60e01b82528960048301525afa8015610a145786916000916108a0575b505116946000808080868a5af161080261281e565b501561088e576005541691823b156101ca576040516307567c7560e01b81526004810186905260006024820181905260016044830152606482018190527f26ef85f0daac61fc17bf2398563cb3e2d7731117f76c2b14f2fdbbb6bad62bac948290608490829084905af161087f575b50604051908152a460018055005b61088890612798565b86610871565b6040516312171d8360e31b8152600490fd5b9150503d806000833e6108b381836127e2565b810182828203126101ca5781516001600160401b03928382116101ca5701906101409283838303126101ca57604051938401848110828211176109fe57604052825189811681036101ca57845261090b8584016128d6565b8585015261091b604084016128d6565b6040850152606083015160608501526109366080840161288d565b608085015260a08301519081116101ca57820181601f820112156101ca5780519061096082612803565b9261096e60405194856127e2565b8284528683830101116101ca578994939291869160005b8281106109e7575050906000918301015260a08301526109a760c082016128ea565b60c08301526109b860e082016128ea565b60e08301526101006109cb8183016128ea565b908301526109dd6101208092016128fb565b90820152876107ed565b8181018401518582018501528c9750889301610985565b634e487b7160e01b600052604160045260246000fd5b6040513d6000823e3d90fd5b634e487b7160e01b600052601160045260246000fd5b803b156101ca576000602491604051928380926305d05f6f60e31b82528c60048301525afa9081610a87575b50610a8057604051639741880760e01b815260048101889052602490fd5b6002610778565b610a9090612798565b89610a62565b606491879160405192636bb8313960e11b8452600484015260248301526044820152fd5b604485876040519163dfcd137d60e01b835260048301526024820152fd5b60405163616b4a8360e01b815260048101859052602490fd5b6040516310670cd160e01b815260048101869052602490fd5b60405163728640f360e11b815260048101869052602490fd5b346101ca57610b31366126b1565b9080600052602060088152604060002060ff6008820154166004811015610693578015610da957600103610d90576103e8804202904282041442151715610a20576003916001600160401b03928391015460601c1610610d9057600554604051635ec8fe6b60e01b815260048101869052908390829060249082906001600160a01b03165afa908115610a1457600091610d5b575b5015610d42578260005260098252604060002084600052825260ff60406000205416610d2457421690610cad604051610bfe81612761565b60018152828101848152610c8261ffff6040840160008152606085019360008552896000526009885260406000208b60005288526040600020955115159060ff68ffffffffffffffff008854925160081b1692169068ffffffffffffffffff1916171785555116839061ffff60481b82549160481b169061ffff60481b1916179055565b51815460589190911b67ffffffffffffffff60581b1667ffffffffffffffff60581b19909116179055565b82600052600b8152604060002091825492600160401b8410156109fe5760018401808255841015610d0e577f439c72668c744083584e3621696c1da1e6e44a0ecf9ebd7e0105655b86044fd0938691600052836000200155604051908152a3005b634e487b7160e01b600052603260045260246000fd5b604483856040519163e548d20960e01b835260048301526024820152fd5b60405163159c717560e11b815260048101859052602490fd5b90508281813d8311610d89575b610d7281836127e2565b810103126101ca57610d839061288d565b85610bc6565b503d610d68565b60405163616b4a8360e01b815260048101849052602490fd5b60405163728640f360e11b815260048101859052602490fd5b346101ca5760003660031901126101ca57602060405160408152f35b346101ca5760203660031901126101ca5760043560005260086020526102206040600020805490610ee260018060a01b0360018301541691600281015460038201546004830154600584015490600685015492600786015494600960ff600889015416970154986040519a8b5260208b015260408a015261ffff80821660608b01528160101c1660808a015263ffffffff808260201c1660a08b01528160401c1660c08a01526001600160401b038160601c1660e08a015260a01c60070b6101008901528060070b6101208901528060401c60070b61014089015260801c60070b6101608801526101808701526101a08601526101c08501526101e0840190612728565b610200820152f35b346101ca5760003660031901126101ca57602060405160028152f35b346101ca57610f14366126b1565b90600052600960205260406000209060005260205260806040600020546040519060ff8116151582526001600160401b038160081c16602083015261ffff8160481c16604083015260581c60070b6060820152f35b346101ca5760c03660031901126101ca576064358060070b81036101ca57610f8f612708565b610f97612718565b91610fa061284e565b600435600052600860205260406000209160ff60088401541660048110156106935780156114b75760010361149e576003830154926001600160401b038460601c166001600160401b0386161161149e576004356000526009602052604060002060243560005260205260406000209384549160ff83161561147d57600554604051631f9b019b60e01b81526024803560048301529091602091839182906001600160a01b03165afa908115610a1457600091611443575b501561142a576024602060018060a01b03600454166040519283809263488dbfad60e01b825260443560048301525afa908115610a14576000916113f0575b50156113d657604435600052600c602052604060002054806113b657508160a01c60070b8560070b129081156113a1575b8115611389575b8115611372575b5061134e5761ffff8260481c1615158061133c575b6112c2575b5050600435600052600a60205260406000209060405192611110846127ab565b602435845260443560208501528560070b604085015260070b606084015260070b60808301528054600160401b8110156109fe576111539160018201815561289a565b9190916112ac57608060026111f0938351815560208401516001820155019160408101516001600160401b0319845416906001600160401b03161783556111c4606082015160070b849081549060401b67ffffffffffffffff60401b169067ffffffffffffffff60401b1916179055565b0151815460809190911b67ffffffffffffffff60801b1667ffffffffffffffff60801b19909116179055565b604435600052600c60205260043560406000205561ffff815460481c1661ffff8114610a205781546affff000000000000000000191660019190910160481b61ffff60481b1617815561ffff9161126b90825460589190911b67ffffffffffffffff60581b1667ffffffffffffffff60581b19909116178255565b5460481c1660405190815260443590602435907f34f15eb843ffba278410dec94d6ed018dbcd7f438b771255faa42192a42e2f9b602060043592a460018055005b634e487b7160e01b600052600060045260246000fd5b63ffffffff9060201c166103e88160070b02918260070b928303610a205760581c60070b918660070b90838203677fffffffffffffff8113677fffffffffffffff19821217610a205760070b1261131957506110f0565b6064935060405192633ae02db960e21b8452600484015260248301526044820152fd5b5063ffffffff8160201c1615156110eb565b60405163bfb806bb60e01b8152600785810b600483015284900b6024820152604490fd5b60049150015460801c60070b8360070b13876110d6565b9050600481015460401c60070b8460070b12906110cf565b9050600481015460070b8560070b13906110c8565b60405163321d419760e11b81526044803560048301526024820192909252fd5b604051632047f23560e21b81526044356004820152602490fd5b90506020813d602011611422575b8161140b602093836127e2565b810103126101ca5761141c9061288d565b88611097565b3d91506113fe565b6040516347b63a5360e01b815260248035600483015290fd5b90506020813d602011611475575b8161145e602093836127e2565b810103126101ca5761146f9061288d565b88611058565b3d9150611451565b604460405163dfcd137d60e01b815260043560048201526024356024820152fd5b602460405163616b4a8360e01b81526004356004820152fd5b602460405163728640f360e11b81526004356004820152fd5b346101ca5760003660031901126101ca576020604051610e108152f35b346101ca5760003660031901126101ca576020604051818152f35b346101ca5760203660031901126101ca576004356001600160a01b03818116918290036101ca57611537612735565b600654908116611551576001600160a01b03191617600655005b60405162461bcd60e51b815260206004820152601e60248201527f426f756e74794d61726b65743a206761746520616c72656164792073657400006044820152606490fd5b346101ca5760003660031901126101ca57602060405160018152f35b346101ca5760003660031901126101ca576000546040516001600160a01b039091168152602090f35b346101ca5760203660031901126101ca57600435600052600c6020526020604060002054604051908152f35b346101ca5760003660031901126101ca57611620612735565b600080546001600160a01b0319811682556001600160a01b03167f8be0079c531659141344cd1fd0a4f28419497f9722a3daafe3b4186f6b6457e08280a3005b6101603660031901126101ca576116756126f7565b61ffff60243516602435036101ca5763ffffffff8060443516604435036101ca578060643516606435036101ca576116ab612708565b6116b3612718565b60c43560070b60c435036101ca5760e43560070b60e435036101ca576116d761284e565b341561194357610e108360643516108015611932575b611916578060070b8260070b12801590611902575b6118f05761ffff60243516156118de5761172f6007549361172285612871565b6007556064351642612880565b6103e890818102918183041490151715610a2057602094846000526008865260406000209085825560018201336bffffffffffffffffffffffff60a01b82541617905534600283015561ffff600383019116948582549160a01b6001600160401b0360a01b169163ffffffff60e01b161763ffff000060243560101b161767ffffffff000000006044358a1b16176bffffffff000000000000000060643560401b16176001600160401b0360601b8560601b161717905561185e600482016001600160401b03198154166001600160401b0395861617815561183660c435829081549060401b67ffffffffffffffff60401b169067ffffffffffffffff60401b1916179055565b805467ffffffffffffffff60801b191667ffffffffffffffff60801b60e43560801b16179055565b61010435600582015561012435600682015561014435600782015560088101600160ff19825416179055600942910155604051923484528584015261ffff602435166040840152166060820152817f36924365dfd16e16e86593c39511c44d2a1c13a28e05c093cfb1e908aebe5c0960803393a360018055604051908152f35b60405163adf316ad60e01b8152600490fd5b604051639d3c586b60e01b8152600490fd5b5060e43560070b60c43560070b1215611702565b6040516313b783af60e21b815260643584166004820152602490fd5b506301e133808360643516116116ed565b604051636bbdb6db60e11b8152600490fd5b346101ca5760203660031901126101ca5760043561197161284e565b80600052600860205260406000209060088201805460ff81166004811015610693578015610da957600103610d90576103e8804202904282041442151715610a20576001600160401b03600386015460601c161015611a345760039060ff191617905560016002830154920160018060a01b0390600080808087868654165af16119f961281e565b501561088e577fbcaf9d6f28ffdbd48d1abf354b5f84d03eda4274bf2995a6b1f0a84630c01b8791602091541693604051908152a360018055005b604051630134589d60e41b815260048101849052602490fd5b346101ca5760003660031901126101ca576005546040516001600160a01b039091168152602090f35b346101ca5760203660031901126101ca5761ffff611a926126f7565b611a9a612735565b166103e88111611ab55761ffff196002541617600255600080f35b60405162461bcd60e51b815260206004820152602360248201527f426f756e74794d61726b65743a206665652063616e6e6f74206578636565642060448201526231302560e81b6064820152608490fd5b346101ca5760003660031901126101ca576020600354604051908152f35b346101ca5760003660031901126101ca5760206040516301e133808152f35b346101ca5760003660031901126101ca57602060405160108152f35b346101ca5760003660031901126101ca57611b78612735565b611b8061284e565b60008080806003548160035560018060a01b038254165af1611ba061281e565b501561088e5760018055005b346101ca5760003660031901126101ca57602060405160088152f35b346101ca5760e03660031901126101ca576024356001600160401b0381116101ca57611bf89036906004016126c7565b6080526044356001600160401b0381116101ca57611c1a9036906004016126c7565b610200526064356001600160401b0381116101ca57611c3d9036906004016126c7565b60e052610240526084356001600160401b0381116101ca57611c639036906004016126c7565b6101605260c0526001600160401b0360a435116101ca57611c893660a4356004016126c7565b90926001600160401b0360c435116101ca57611caa3660c4356004016126c7565b61018052610140526000610100604051611cc38161277c565b8281528260208201528260408201528260608201528260808201528260a08201528260c08201528260e0820152015261020051608051908114908161256c575b8161255f575b81612555575b81612548575b50156124f757608051156124de576004356000526008602052604060002060ff600882015416600481101561069357156114b75760006101a052600061012052677fffffffffffffff61022052677fffffffffffffff196101c052600060a0526000610260526040518061010052806120008101106001600160401b03612000830111176109fe5780612000809296939601604052369037611db860805161290a565b90611dc660405192836127e2565b6080518252601f19611dd960805161290a565b0136602084013760006101e0525b6080516101e05190811015612296576020611e1160018060a01b0360045416926102005185612921565b3560246040518094819363488dbfad60e01b835260048301525afa908115610a145760009161225c575b501561220657611e5c611e576101e05160e05161024051612921565b612931565b600386015460a01c60070b9060070b1215806121dc575b806121af575b80612182575b156121335760019460005b6101205181101561212b57611e9f818561293f565b51611eb06101e05160805188612921565b3514611ec457611ebf90612871565b611e8a565b5091945060005b611ff2575b611ee1611e576101e0518689612921565b6102205160070b9060070b12611fd8575b611f03611e576101e0518689612921565b6101c05160070b9060070b13611fbe575b611f35611f2d611e576101e05160e05161024051612921565b60a051612953565b60a052611f5a611f51611e576101e0516101605160c051612921565b61026051612953565b61026052611f726101e0516101805161014051612921565b3560ff811681036101ca57611fa560ff611f9a611f948285166101005161297b565b51612871565b92166101005161297b565b52611fb26101e051612871565b6101e052939093611de7565b611fcf611e576101e0518689612921565b6101c052611f14565b611fe9611e576101e0518689612921565b61022052611ef2565b6120026101e05160805185612921565b35612010610120518761293f565b5261201d61012051612871565b6101205260018060a01b036005541661203c6101e05160805186612921565b604051631ce6b50f60e21b815290356004820152602081602481855afa600091816120ef575b506120d4575b506120796101e05160805186612921565b3590803b156101ca576040516307567c7560e01b815260048101929092526000602483018190526001604484015260648301819052908290608490829084905af16120c5575b50611ed0565b6120ce90612798565b866120bf565b61ffff6120e591166101a051612880565b6101a05287612068565b9091506020813d602011612123575b8161210b602093836127e2565b810103126101ca5761211c906128fb565b9089612062565b3d91506120fe565b509194611ecb565b60405162461bcd60e51b815260206004820152602160248201527f426f756e74794d61726b65743a207265636f7264206f757473696465207a6f6e6044820152606560f81b6064820152608490fd5b50612199611e576101e0516101605160c051612921565b600486015460801c60070b9060070b1315611e7f565b506121c6611e576101e0516101605160c051612921565b600486015460401c60070b9060070b1215611e79565b506121f3611e576101e05160e05161024051612921565b600486015460070b9060070b1315611e73565b60405162461bcd60e51b815260206004820152602860248201527f426f756e74794d61726b65743a20756e7665726966696564207265636f726420604482015267696e20737761726d60c01b6064820152608490fd5b90506020813d60201161228e575b81612277602093836127e2565b810103126101ca576122889061288d565b87611e3b565b3d915061226a565b60008060005b610100811061249e575061012051600a81111561249857600a905b6103e8908282810204821483151715610a2057801561248f576122dd906101a0516128b6565b915b846127108102046127101485151715610a205761231760039361231c936123106101209861271060805191026128b6565b9302612880565b612880565b0461271081111561248657506127105b60805160070b9161234c6123428460a05161298d565b936102605161298d565b604051936123598561277c565b600435855285516020860152608051604086015261ffff8416606086015260ff831660808601528060070b60a08601528160070b60c08601526102205160070b60e086015260ff6101c05160070b938461010088015261ffff6040519689518852608051602089015216604087015216606085015260070b608084015260070b60a08301526102205160070b60c083015260e08201527f27ac23b194a7076145dc8eae5267a9483caccbbdb3f36aebbb7397eafd8235d461010060043592a26101006040519180518352602081015160208401526040810151604084015261ffff606082015116606084015260ff608082015116608084015260a081015160070b60a084015260c081015160070b60c084015260e081015160070b60e0840152015160070b610100820152f35b61ffff1661232c565b506000916122df565b806122b7565b826124ac826101005161297b565b51116124c1575b6124bc90612871565b61229c565b8092506124d291506101005161297b565b519060ff8116906124b3565b602460405163287ae57960e01b81526004356004820152fd5b60405162461bcd60e51b815260206004820152602360248201527f426f756e74794d61726b65743a206172726179206c656e677468206d69736d616044820152620e8c6d60eb1b6064820152608490fd5b9050610180511485611d15565b8381149150611d0f565b6101605181149150611d09565b60e05181149150611d03565b346101ca5760203660031901126101ca57600435600052600a6020526020604060002054604051908152f35b346101ca5760003660031901126101ca57602060405160048152f35b346101ca576125ce366126b1565b90600060606040516125df81612761565b82815282602082015282604082015201526000526009602052604060002090600052602052608060406000206040519061261882612761565b5460ff8116151591828152602081016001600160401b03808460081c1682526040830191606061ffff94858760481c168552019460581c60070b855260405195865251166020850152511660408301525160070b6060820152f35b346101ca5760003660031901126101ca57602061ffff60025416604051908152f35b346101ca5760003660031901126101ca57806298968060209252f35b60409060031901126101ca576004359060243590565b9181601f840112156101ca578235916001600160401b0383116101ca576020808501948460051b0101116101ca57565b6004359061ffff821682036101ca57565b608435908160070b82036101ca57565b60a435908160070b82036101ca57565b9060048210156106935752565b6000546001600160a01b0316330361274957565b60405163118cdaa760e01b8152336004820152602490fd5b608081019081106001600160401b038211176109fe57604052565b61012081019081106001600160401b038211176109fe57604052565b6001600160401b0381116109fe57604052565b60a081019081106001600160401b038211176109fe57604052565b61022081019081106001600160401b038211176109fe57604052565b90601f801991011681019081106001600160401b038211176109fe57604052565b6001600160401b0381116109fe57601f01601f191660200190565b3d15612849573d9061282f82612803565b9161283d60405193846127e2565b82523d6000602084013e565b606090565b60026001541461285f576002600155565b604051633ee5aeb560e01b8152600490fd5b6000198114610a205760010190565b91908201809211610a2057565b519081151582036101ca57565b8054821015610d0e576000526003602060002091020190600090565b81156128c0570490565b634e487b7160e01b600052601260045260246000fd5b51906001600160401b03821682036101ca57565b519063ffffffff821682036101ca57565b519061ffff821682036101ca57565b6001600160401b0381116109fe5760051b60200190565b9190811015610d0e5760051b0190565b358060070b81036101ca5790565b8051821015610d0e5760209160051b010190565b9060070b9060070b0190677fffffffffffffff198212677fffffffffffffff831317610a2057565b90610100811015610d0e5760051b0190565b60070b9060070b9081156128c057677fffffffffffffff198114600019831416610a2057059056fea2646970667358221220fced3a695214970080adad5a53d146a5814b1324821a12c6dcea8727f8e321f664736f6c63430008140033","opcodes":"PUSH1 0x80 CALLVALUE PUSH3 0x116 JUMPI PUSH1 0x1F PUSH3 0x2B32 CODESIZE DUP2 SWAP1 SUB SWAP2 DUP3 ADD PUSH1 0x1F NOT AND DUP4 ADD SWAP2 PUSH1 0x1 PUSH1 0x1 PUSH1 0x40 SHL SUB DUP4 GT DUP5 DUP5 LT OR PUSH3 0x11B JUMPI DUP1 DUP5 SWAP3 PUSH1 0x60 SWAP5 PUSH1 0x40 MSTORE DUP4 CODECOPY DUP2 ADD SUB SLT PUSH3 0x116 JUMPI PUSH3 0x4D DUP2 PUSH3 0x131 JUMP JUMPDEST SWAP1 PUSH1 0x40 PUSH3 0x5E PUSH1 0x20 DUP4 ADD PUSH3 0x131 JUMP JUMPDEST SWAP2 ADD MLOAD SWAP1 PUSH2 0xFFFF DUP3 AND DUP1 SWAP3 SUB PUSH3 0x116 JUMPI CALLER ISZERO PUSH3 0xFD JUMPI PUSH1 0x0 DUP1 SLOAD CALLER PUSH1 0x1 PUSH1 0x1 PUSH1 0xA0 SHL SUB NOT DUP1 DUP4 AND DUP3 OR DUP5 SSTORE PUSH1 0x40 MLOAD SWAP7 SWAP1 SWAP5 PUSH1 0x1 PUSH1 0x1 PUSH1 0xA0 SHL SUB SWAP5 SWAP1 SWAP4 DUP6 SWAP4 SWAP2 SWAP1 DUP5 AND SWAP1 PUSH32 0x8BE0079C531659141344CD1FD0A4F28419497F9722A3DAAFE3B4186F6B6457E0 SWAP1 DUP1 LOG3 PUSH1 0x1 DUP1 SSTORE AND DUP4 PUSH1 0x4 SLOAD AND OR PUSH1 0x4 SSTORE AND SWAP1 PUSH1 0x5 SLOAD AND OR PUSH1 0x5 SSTORE PUSH2 0xFFFF NOT PUSH1 0x2 SLOAD AND OR PUSH1 0x2 SSTORE PUSH1 0x1 PUSH1 0x7 SSTORE PUSH2 0x29EB SWAP1 DUP2 PUSH3 0x147 DUP3 CODECOPY RETURN JUMPDEST PUSH1 0x40 MLOAD PUSH4 0x1E4FBDF7 PUSH1 0xE0 SHL DUP2 MSTORE PUSH1 0x0 PUSH1 0x4 DUP3 ADD MSTORE PUSH1 0x24 SWAP1 REVERT JUMPDEST PUSH1 0x0 DUP1 REVERT JUMPDEST PUSH4 0x4E487B71 PUSH1 0xE0 SHL PUSH1 0x0 MSTORE PUSH1 0x41 PUSH1 0x4 MSTORE PUSH1 0x24 PUSH1 0x0 REVERT JUMPDEST MLOAD SWAP1 PUSH1 0x1 PUSH1 0x1 PUSH1 0xA0 SHL SUB DUP3 AND DUP3 SUB PUSH3 0x116 JUMPI JUMP INVALID PUSH2 0x280 DUP1 PUSH1 0x40 MSTORE PUSH1 0x4 CALLDATASIZE LT ISZERO PUSH2 0x14 JUMPI PUSH1 0x0 DUP1 REVERT JUMPDEST PUSH1 0x0 CALLDATALOAD PUSH1 0xE0 SHR SWAP1 DUP2 PUSH4 0x11955A8D EQ PUSH2 0x2695 JUMPI POP DUP1 PUSH4 0x22DCD13E EQ PUSH2 0x2673 JUMPI DUP1 PUSH4 0x2CD5A77A EQ PUSH2 0x25C0 JUMPI DUP1 PUSH4 0x327CEA62 EQ PUSH2 0x25A4 JUMPI DUP1 PUSH4 0x423AEE31 EQ PUSH2 0x2578 JUMPI DUP1 PUSH4 0x44C5E39B EQ PUSH2 0x1BC8 JUMPI DUP1 PUSH4 0x4636F70A EQ PUSH2 0x1BAC JUMPI DUP1 PUSH4 0x476343EE EQ PUSH2 0x1B5F JUMPI DUP1 PUSH4 0x48591E55 EQ PUSH2 0x1B43 JUMPI DUP1 PUSH4 0x496E62F7 EQ PUSH2 0x1B24 JUMPI DUP1 PUSH4 0x587F5ED7 EQ PUSH2 0x1B06 JUMPI DUP1 PUSH4 0x5CBC742C EQ PUSH2 0x1A76 JUMPI DUP1 PUSH4 0x5EFB870A EQ PUSH2 0x1A4D JUMPI DUP1 PUSH4 0x5FAEDCEF EQ PUSH2 0x1955 JUMPI DUP1 PUSH4 0x6569DAC4 EQ PUSH2 0x1660 JUMPI DUP1 PUSH4 0x715018A6 EQ PUSH2 0x1607 JUMPI DUP1 PUSH4 0x85C3DD80 EQ PUSH2 0x15DB JUMPI DUP1 PUSH4 0x8DA5CB5B EQ PUSH2 0x15B2 JUMPI DUP1 PUSH4 0x925AC9B1 EQ PUSH2 0x1596 JUMPI DUP1 PUSH4 0x9D2FD78B EQ PUSH2 0x1508 JUMPI DUP1 PUSH4 0xB52947E4 EQ PUSH2 0x14ED JUMPI DUP1 PUSH4 0xBD62AD22 EQ PUSH2 0x14D0 JUMPI DUP1 PUSH4 0xC9AE98BD EQ PUSH2 0xF69 JUMPI DUP1 PUSH4 0xD5F9897F EQ PUSH2 0xF06 JUMPI DUP1 PUSH4 0xD7B5A84A EQ PUSH2 0xEEA JUMPI DUP1 PUSH4 0xDC2F8744 EQ PUSH2 0xDDE JUMPI DUP1 PUSH4 0xE144064A EQ PUSH2 0xDC2 JUMPI DUP1 PUSH4 0xE489232D EQ PUSH2 0xB23 JUMPI DUP1 PUSH4 0xEACD3AB3 EQ PUSH2 0x6D2 JUMPI DUP1 PUSH4 0xEB768843 EQ PUSH2 0x6A9 JUMPI DUP1 PUSH4 0xEE8C4BBF EQ PUSH2 0x3F3 JUMPI DUP1 PUSH4 0xF1B8A98C EQ PUSH2 0x32E JUMPI DUP1 PUSH4 0xF1CF7905 EQ PUSH2 0x305 JUMPI DUP1 PUSH4 0xF2FDE38B EQ PUSH2 0x275 JUMPI DUP1 PUSH4 0xF4F47683 EQ PUSH2 0x1CF JUMPI PUSH4 0xFD14FAD4 EQ PUSH2 0x1AC JUMPI PUSH1 0x0 DUP1 REVERT JUMPDEST CALLVALUE PUSH2 0x1CA JUMPI PUSH1 0x0 CALLDATASIZE PUSH1 0x3 NOT ADD SLT PUSH2 0x1CA JUMPI PUSH1 0x20 PUSH1 0x7 SLOAD PUSH1 0x40 MLOAD SWAP1 DUP2 MSTORE RETURN JUMPDEST PUSH1 0x0 DUP1 REVERT JUMPDEST CALLVALUE PUSH2 0x1CA JUMPI PUSH1 0x20 DUP1 PUSH1 0x3 NOT CALLDATASIZE ADD SLT PUSH2 0x1CA JUMPI PUSH1 0x4 CALLDATALOAD PUSH1 0x0 MSTORE PUSH1 0xB DUP2 MSTORE PUSH1 0x40 PUSH1 0x0 KECCAK256 PUSH1 0x40 MLOAD SWAP1 DUP2 DUP4 DUP3 SLOAD SWAP2 DUP3 DUP2 MSTORE ADD SWAP1 DUP2 SWAP3 PUSH1 0x0 MSTORE DUP5 PUSH1 0x0 KECCAK256 SWAP1 PUSH1 0x0 JUMPDEST DUP7 DUP3 DUP3 LT PUSH2 0x261 JUMPI DUP7 DUP7 PUSH2 0x221 DUP3 DUP9 SUB DUP4 PUSH2 0x27E2 JUMP JUMPDEST PUSH1 0x40 MLOAD SWAP3 DUP4 SWAP3 DUP2 DUP5 ADD SWAP1 DUP3 DUP6 MSTORE MLOAD DUP1 SWAP2 MSTORE PUSH1 0x40 DUP5 ADD SWAP3 SWAP2 PUSH1 0x0 JUMPDEST DUP3 DUP2 LT PUSH2 0x24A JUMPI POP POP POP POP SUB SWAP1 RETURN JUMPDEST DUP4 MLOAD DUP6 MSTORE DUP7 SWAP6 POP SWAP4 DUP2 ADD SWAP4 SWAP3 DUP2 ADD SWAP3 PUSH1 0x1 ADD PUSH2 0x23B JUMP JUMPDEST DUP4 SLOAD DUP6 MSTORE SWAP1 SWAP4 ADD SWAP3 PUSH1 0x1 SWAP3 DUP4 ADD SWAP3 ADD PUSH2 0x20B JUMP JUMPDEST CALLVALUE PUSH2 0x1CA JUMPI PUSH1 0x20 CALLDATASIZE PUSH1 0x3 NOT ADD SLT PUSH2 0x1CA JUMPI PUSH1 0x4 CALLDATALOAD PUSH1 0x1 PUSH1 0x1 PUSH1 0xA0 SHL SUB DUP2 DUP2 AND SWAP2 DUP3 SWAP1 SUB PUSH2 0x1CA JUMPI PUSH2 0x2A4 PUSH2 0x2735 JUMP JUMPDEST DUP2 ISZERO PUSH2 0x2EC JUMPI PUSH1 0x0 SLOAD DUP3 PUSH12 0xFFFFFFFFFFFFFFFFFFFFFFFF PUSH1 0xA0 SHL DUP3 AND OR PUSH1 0x0 SSTORE AND PUSH32 0x8BE0079C531659141344CD1FD0A4F28419497F9722A3DAAFE3B4186F6B6457E0 PUSH1 0x0 DUP1 LOG3 STOP JUMPDEST PUSH1 0x40 MLOAD PUSH4 0x1E4FBDF7 PUSH1 0xE0 SHL DUP2 MSTORE PUSH1 0x0 PUSH1 0x4 DUP3 ADD MSTORE PUSH1 0x24 SWAP1 REVERT JUMPDEST CALLVALUE PUSH2 0x1CA JUMPI PUSH1 0x0 CALLDATASIZE PUSH1 0x3 NOT ADD SLT PUSH2 0x1CA JUMPI PUSH1 0x4 SLOAD PUSH1 0x40 MLOAD PUSH1 0x1 PUSH1 0x1 PUSH1 0xA0 SHL SUB SWAP1 SWAP2 AND DUP2 MSTORE PUSH1 0x20 SWAP1 RETURN JUMPDEST CALLVALUE PUSH2 0x1CA JUMPI PUSH1 0x40 CALLDATASIZE PUSH1 0x3 NOT ADD SLT PUSH2 0x1CA JUMPI PUSH1 0x0 PUSH1 0x80 PUSH1 0x40 MLOAD PUSH2 0x34F DUP2 PUSH2 0x27AB JUMP JUMPDEST DUP3 DUP2 MSTORE DUP3 PUSH1 0x20 DUP3 ADD MSTORE DUP3 PUSH1 0x40 DUP3 ADD MSTORE DUP3 PUSH1 0x60 DUP3 ADD MSTORE ADD MSTORE PUSH1 0x4 CALLDATALOAD PUSH1 0x0 MSTORE PUSH1 0xA PUSH1 0x20 MSTORE PUSH1 0xA0 PUSH2 0x383 PUSH1 0x24 CALLDATALOAD PUSH1 0x40 PUSH1 0x0 KECCAK256 PUSH2 0x289A JUMP JUMPDEST POP PUSH1 0x40 MLOAD SWAP1 PUSH2 0x391 DUP3 PUSH2 0x27AB JUMP JUMPDEST DUP1 SLOAD SWAP2 DUP3 DUP2 MSTORE PUSH1 0x2 PUSH1 0x1 DUP4 ADD SLOAD SWAP3 PUSH1 0x20 DUP4 ADD SWAP4 DUP5 MSTORE ADD SLOAD SWAP1 PUSH1 0x40 DUP2 ADD PUSH1 0x7 SWAP4 DUP4 DUP6 SIGNEXTEND DUP3 MSTORE PUSH1 0x80 PUSH1 0x60 DUP5 ADD SWAP4 DUP6 PUSH1 0x40 SHR DUP8 SIGNEXTEND DUP6 MSTORE ADD SWAP4 PUSH1 0x80 SHR DUP6 SIGNEXTEND DUP5 MSTORE PUSH1 0x40 MLOAD SWAP6 DUP7 MSTORE MLOAD PUSH1 0x20 DUP7 ADD MSTORE MLOAD DUP4 SIGNEXTEND PUSH1 0x40 DUP6 ADD MSTORE MLOAD DUP3 SIGNEXTEND PUSH1 0x60 DUP5 ADD MSTORE MLOAD SWAP1 SIGNEXTEND PUSH1 0x80 DUP3 ADD MSTORE RETURN JUMPDEST CALLVALUE PUSH2 0x1CA JUMPI PUSH1 0x20 CALLDATASIZE PUSH1 0x3 NOT ADD SLT PUSH2 0x1CA JUMPI PUSH1 0x0 PUSH2 0x200 PUSH1 0x40 MLOAD PUSH2 0x415 DUP2 PUSH2 0x27C6 JUMP JUMPDEST DUP3 DUP2 MSTORE DUP3 PUSH1 0x20 DUP3 ADD MSTORE DUP3 PUSH1 0x40 DUP3 ADD MSTORE DUP3 PUSH1 0x60 DUP3 ADD MSTORE DUP3 PUSH1 0x80 DUP3 ADD MSTORE DUP3 PUSH1 0xA0 DUP3 ADD MSTORE DUP3 PUSH1 0xC0 DUP3 ADD MSTORE DUP3 PUSH1 0xE0 DUP3 ADD MSTORE DUP3 PUSH2 0x100 DUP3 ADD MSTORE DUP3 PUSH2 0x120 DUP3 ADD MSTORE DUP3 PUSH2 0x140 DUP3 ADD MSTORE DUP3 PUSH2 0x160 DUP3 ADD MSTORE DUP3 PUSH2 0x180 DUP3 ADD MSTORE DUP3 PUSH2 0x1A0 DUP3 ADD MSTORE DUP3 PUSH2 0x1C0 DUP3 ADD MSTORE DUP3 PUSH2 0x1E0 DUP3 ADD MSTORE ADD MSTORE PUSH1 0x4 CALLDATALOAD DUP1 PUSH1 0x0 MSTORE PUSH1 0x8 PUSH1 0x20 MSTORE PUSH1 0x40 PUSH1 0x0 KECCAK256 SWAP1 PUSH1 0xFF PUSH1 0x8 DUP4 ADD SLOAD AND SWAP1 PUSH1 0x4 DUP3 LT ISZERO PUSH2 0x693 JUMPI DUP2 ISZERO PUSH2 0x67B JUMPI POP PUSH2 0x200 PUSH2 0x220 SWAP3 PUSH1 0x9 PUSH1 0x40 MLOAD SWAP2 PUSH2 0x4BD DUP4 PUSH2 0x27C6 JUMP JUMPDEST DUP1 SLOAD SWAP5 DUP6 DUP5 MSTORE PUSH1 0x1 DUP1 PUSH1 0xA0 SHL SUB PUSH1 0x1 DUP4 ADD SLOAD AND PUSH1 0x20 DUP6 ADD MSTORE PUSH1 0x2 DUP3 ADD SLOAD PUSH1 0x40 DUP6 ADD MSTORE PUSH1 0x3 DUP3 ADD SLOAD PUSH2 0xFFFF DUP2 AND PUSH1 0x60 DUP7 ADD MSTORE PUSH2 0xFFFF DUP2 PUSH1 0x10 SHR AND PUSH1 0x80 DUP7 ADD MSTORE PUSH4 0xFFFFFFFF DUP2 PUSH1 0x20 SHR AND PUSH1 0xA0 DUP7 ADD MSTORE PUSH4 0xFFFFFFFF DUP2 PUSH1 0x40 SHR AND PUSH1 0xC0 DUP7 ADD MSTORE PUSH1 0x1 PUSH1 0x1 PUSH1 0x40 SHL SUB DUP2 PUSH1 0x60 SHR AND PUSH1 0xE0 DUP7 ADD MSTORE PUSH1 0xA0 SHR PUSH1 0x7 SIGNEXTEND PUSH2 0x100 DUP6 ADD MSTORE PUSH1 0x4 DUP3 ADD SLOAD DUP1 PUSH1 0x7 SIGNEXTEND PUSH2 0x120 DUP7 ADD MSTORE DUP1 PUSH1 0x40 SHR PUSH1 0x7 SIGNEXTEND PUSH2 0x140 DUP7 ADD MSTORE PUSH1 0x80 SHR PUSH1 0x7 SIGNEXTEND PUSH2 0x160 DUP6 ADD MSTORE PUSH1 0x5 DUP3 ADD SLOAD PUSH2 0x180 DUP6 ADD MSTORE PUSH1 0x6 DUP3 ADD SLOAD PUSH2 0x1A0 DUP6 ADD MSTORE PUSH1 0x7 DUP3 ADD SLOAD PUSH2 0x1C0 DUP6 ADD MSTORE PUSH2 0x1E0 DUP5 ADD MSTORE ADD SLOAD DUP3 DUP3 ADD MSTORE PUSH1 0x40 MLOAD SWAP3 DUP4 MSTORE PUSH1 0x1 DUP1 PUSH1 0xA0 SHL SUB PUSH1 0x20 DUP3 ADD MLOAD AND PUSH1 0x20 DUP5 ADD MSTORE PUSH1 0x40 DUP2 ADD MLOAD PUSH1 0x40 DUP5 ADD MSTORE PUSH2 0xFFFF PUSH1 0x60 DUP3 ADD MLOAD AND PUSH1 0x60 DUP5 ADD MSTORE PUSH2 0xFFFF PUSH1 0x80 DUP3 ADD MLOAD AND PUSH1 0x80 DUP5 ADD MSTORE PUSH4 0xFFFFFFFF PUSH1 0xA0 DUP3 ADD MLOAD AND PUSH1 0xA0 DUP5 ADD MSTORE PUSH4 0xFFFFFFFF PUSH1 0xC0 DUP3 ADD MLOAD AND PUSH1 0xC0 DUP5 ADD MSTORE PUSH1 0x1 PUSH1 0x1 PUSH1 0x40 SHL SUB PUSH1 0xE0 DUP3 ADD MLOAD AND PUSH1 0xE0 DUP5 ADD MSTORE PUSH2 0x100 DUP2 ADD MLOAD PUSH1 0x7 SIGNEXTEND PUSH2 0x100 DUP5 ADD MSTORE PUSH2 0x120 DUP2 ADD MLOAD PUSH1 0x7 SIGNEXTEND PUSH2 0x120 DUP5 ADD MSTORE PUSH2 0x140 DUP2 ADD MLOAD PUSH1 0x7 SIGNEXTEND PUSH2 0x140 DUP5 ADD MSTORE PUSH2 0x160 DUP2 ADD MLOAD PUSH1 0x7 SIGNEXTEND PUSH2 0x160 DUP5 ADD MSTORE PUSH2 0x180 DUP2 ADD MLOAD PUSH2 0x180 DUP5 ADD MSTORE PUSH2 0x1A0 DUP2 ADD MLOAD PUSH2 0x1A0 DUP5 ADD MSTORE PUSH2 0x1C0 DUP2 ADD MLOAD PUSH2 0x1C0 DUP5 ADD MSTORE PUSH2 0x671 PUSH2 0x1E0 DUP3 ADD MLOAD PUSH2 0x1E0 DUP6 ADD SWAP1 PUSH2 0x2728 JUMP JUMPDEST ADD MLOAD PUSH2 0x200 DUP3 ADD MSTORE RETURN JUMPDEST PUSH1 0x24 SWAP1 PUSH1 0x40 MLOAD SWAP1 PUSH4 0x728640F3 PUSH1 0xE1 SHL DUP3 MSTORE PUSH1 0x4 DUP3 ADD MSTORE REVERT JUMPDEST PUSH4 0x4E487B71 PUSH1 0xE0 SHL PUSH1 0x0 MSTORE PUSH1 0x21 PUSH1 0x4 MSTORE PUSH1 0x24 PUSH1 0x0 REVERT JUMPDEST CALLVALUE PUSH2 0x1CA JUMPI PUSH1 0x0 CALLDATASIZE PUSH1 0x3 NOT ADD SLT PUSH2 0x1CA JUMPI PUSH1 0x6 SLOAD PUSH1 0x40 MLOAD PUSH1 0x1 PUSH1 0x1 PUSH1 0xA0 SHL SUB SWAP1 SWAP2 AND DUP2 MSTORE PUSH1 0x20 SWAP1 RETURN JUMPDEST CALLVALUE PUSH2 0x1CA JUMPI PUSH2 0x6E0 CALLDATASIZE PUSH2 0x26B1 JUMP JUMPDEST PUSH2 0x6E8 PUSH2 0x284E JUMP JUMPDEST DUP2 PUSH1 0x0 MSTORE PUSH1 0x20 SWAP2 PUSH1 0x8 DUP4 MSTORE PUSH1 0x40 PUSH1 0x0 KECCAK256 SWAP3 PUSH1 0x8 DUP5 ADD SWAP1 DUP2 SLOAD SWAP5 PUSH1 0xFF DUP7 AND PUSH1 0x4 DUP2 LT ISZERO PUSH2 0x693 JUMPI DUP1 ISZERO PUSH2 0xB0A JUMPI PUSH1 0x2 DUP2 EQ PUSH2 0xAF1 JUMPI PUSH1 0x1 SUB PUSH2 0xAD8 JUMPI DUP4 PUSH1 0x0 MSTORE PUSH1 0x9 DUP3 MSTORE PUSH1 0x40 PUSH1 0x0 KECCAK256 DUP6 PUSH1 0x0 MSTORE DUP3 MSTORE PUSH1 0x40 PUSH1 0x0 KECCAK256 SLOAD SWAP3 PUSH1 0xFF DUP5 AND ISZERO PUSH2 0xABA JUMPI PUSH2 0xFFFF DUP1 SWAP5 PUSH1 0x48 SHR AND DUP5 PUSH1 0x3 DUP5 ADD SLOAD PUSH1 0x10 SHR AND SWAP1 DUP2 DUP2 LT PUSH2 0xA96 JUMPI POP POP PUSH1 0x6 SLOAD PUSH1 0x1 PUSH1 0x1 PUSH1 0xA0 SHL SUB SWAP8 SWAP1 DUP9 AND DUP1 PUSH2 0xA36 JUMPI JUMPDEST POP SWAP1 PUSH1 0x2 DUP1 SWAP4 SWAP3 PUSH1 0xFF NOT AND OR SWAP1 SSTORE ADD SLOAD SWAP2 PUSH1 0x2 SLOAD AND DUP1 DUP4 MUL SWAP1 DUP4 DUP3 DIV EQ DUP4 ISZERO OR ISZERO PUSH2 0xA20 JUMPI PUSH2 0x2710 SWAP1 DIV DUP1 DUP4 SUB SWAP3 DUP4 GT PUSH2 0xA20 JUMPI PUSH2 0x7B8 SWAP1 PUSH1 0x3 SLOAD PUSH2 0x2880 JUMP JUMPDEST PUSH1 0x3 SSTORE PUSH1 0x24 PUSH1 0x0 DUP7 PUSH1 0x5 SLOAD AND PUSH1 0x40 MLOAD SWAP3 DUP4 DUP1 SWAP3 PUSH4 0x59D902ED PUSH1 0xE0 SHL DUP3 MSTORE DUP10 PUSH1 0x4 DUP4 ADD MSTORE GAS STATICCALL DUP1 ISZERO PUSH2 0xA14 JUMPI DUP7 SWAP2 PUSH1 0x0 SWAP2 PUSH2 0x8A0 JUMPI JUMPDEST POP MLOAD AND SWAP5 PUSH1 0x0 DUP1 DUP1 DUP1 DUP7 DUP11 GAS CALL PUSH2 0x802 PUSH2 0x281E JUMP JUMPDEST POP ISZERO PUSH2 0x88E JUMPI PUSH1 0x5 SLOAD AND SWAP2 DUP3 EXTCODESIZE ISZERO PUSH2 0x1CA JUMPI PUSH1 0x40 MLOAD PUSH4 0x7567C75 PUSH1 0xE0 SHL DUP2 MSTORE PUSH1 0x4 DUP2 ADD DUP7 SWAP1 MSTORE PUSH1 0x0 PUSH1 0x24 DUP3 ADD DUP2 SWAP1 MSTORE PUSH1 0x1 PUSH1 0x44 DUP4 ADD MSTORE PUSH1 0x64 DUP3 ADD DUP2 SWAP1 MSTORE PUSH32 0x26EF85F0DAAC61FC17BF2398563CB3E2D7731117F76C2B14F2FDBBB6BAD62BAC SWAP5 DUP3 SWAP1 PUSH1 0x84 SWAP1 DUP3 SWAP1 DUP5 SWAP1 GAS CALL PUSH2 0x87F JUMPI JUMPDEST POP PUSH1 0x40 MLOAD SWAP1 DUP2 MSTORE LOG4 PUSH1 0x1 DUP1 SSTORE STOP JUMPDEST PUSH2 0x888 SWAP1 PUSH2 0x2798 JUMP JUMPDEST DUP7 PUSH2 0x871 JUMP JUMPDEST PUSH1 0x40 MLOAD PUSH4 0x12171D83 PUSH1 0xE3 SHL DUP2 MSTORE PUSH1 0x4 SWAP1 REVERT JUMPDEST SWAP2 POP POP RETURNDATASIZE DUP1 PUSH1 0x0 DUP4 RETURNDATACOPY PUSH2 0x8B3 DUP2 DUP4 PUSH2 0x27E2 JUMP JUMPDEST DUP2 ADD DUP3 DUP3 DUP3 SUB SLT PUSH2 0x1CA JUMPI DUP2 MLOAD PUSH1 0x1 PUSH1 0x1 PUSH1 0x40 SHL SUB SWAP3 DUP4 DUP3 GT PUSH2 0x1CA JUMPI ADD SWAP1 PUSH2 0x140 SWAP3 DUP4 DUP4 DUP4 SUB SLT PUSH2 0x1CA JUMPI PUSH1 0x40 MLOAD SWAP4 DUP5 ADD DUP5 DUP2 LT DUP3 DUP3 GT OR PUSH2 0x9FE JUMPI PUSH1 0x40 MSTORE DUP3 MLOAD DUP10 DUP2 AND DUP2 SUB PUSH2 0x1CA JUMPI DUP5 MSTORE PUSH2 0x90B DUP6 DUP5 ADD PUSH2 0x28D6 JUMP JUMPDEST DUP6 DUP6 ADD MSTORE PUSH2 0x91B PUSH1 0x40 DUP5 ADD PUSH2 0x28D6 JUMP JUMPDEST PUSH1 0x40 DUP6 ADD MSTORE PUSH1 0x60 DUP4 ADD MLOAD PUSH1 0x60 DUP6 ADD MSTORE PUSH2 0x936 PUSH1 0x80 DUP5 ADD PUSH2 0x288D JUMP JUMPDEST PUSH1 0x80 DUP6 ADD MSTORE PUSH1 0xA0 DUP4 ADD MLOAD SWAP1 DUP2 GT PUSH2 0x1CA JUMPI DUP3 ADD DUP2 PUSH1 0x1F DUP3 ADD SLT ISZERO PUSH2 0x1CA JUMPI DUP1 MLOAD SWAP1 PUSH2 0x960 DUP3 PUSH2 0x2803 JUMP JUMPDEST SWAP3 PUSH2 0x96E PUSH1 0x40 MLOAD SWAP5 DUP6 PUSH2 0x27E2 JUMP JUMPDEST DUP3 DUP5 MSTORE DUP7 DUP4 DUP4 ADD ADD GT PUSH2 0x1CA JUMPI DUP10 SWAP5 SWAP4 SWAP3 SWAP2 DUP7 SWAP2 PUSH1 0x0 JUMPDEST DUP3 DUP2 LT PUSH2 0x9E7 JUMPI POP POP SWAP1 PUSH1 0x0 SWAP2 DUP4 ADD ADD MSTORE PUSH1 0xA0 DUP4 ADD MSTORE PUSH2 0x9A7 PUSH1 0xC0 DUP3 ADD PUSH2 0x28EA JUMP JUMPDEST PUSH1 0xC0 DUP4 ADD MSTORE PUSH2 0x9B8 PUSH1 0xE0 DUP3 ADD PUSH2 0x28EA JUMP JUMPDEST PUSH1 0xE0 DUP4 ADD MSTORE PUSH2 0x100 PUSH2 0x9CB DUP2 DUP4 ADD PUSH2 0x28EA JUMP JUMPDEST SWAP1 DUP4 ADD MSTORE PUSH2 0x9DD PUSH2 0x120 DUP1 SWAP3 ADD PUSH2 0x28FB JUMP JUMPDEST SWAP1 DUP3 ADD MSTORE DUP8 PUSH2 0x7ED JUMP JUMPDEST DUP2 DUP2 ADD DUP5 ADD MLOAD DUP6 DUP3 ADD DUP6 ADD MSTORE DUP13 SWAP8 POP DUP9 SWAP4 ADD PUSH2 0x985 JUMP JUMPDEST PUSH4 0x4E487B71 PUSH1 0xE0 SHL PUSH1 0x0 MSTORE PUSH1 0x41 PUSH1 0x4 MSTORE PUSH1 0x24 PUSH1 0x0 REVERT JUMPDEST PUSH1 0x40 MLOAD RETURNDATASIZE PUSH1 0x0 DUP3 RETURNDATACOPY RETURNDATASIZE SWAP1 REVERT JUMPDEST PUSH4 0x4E487B71 PUSH1 0xE0 SHL PUSH1 0x0 MSTORE PUSH1 0x11 PUSH1 0x4 MSTORE PUSH1 0x24 PUSH1 0x0 REVERT JUMPDEST DUP1 EXTCODESIZE ISZERO PUSH2 0x1CA JUMPI PUSH1 0x0 PUSH1 0x24 SWAP2 PUSH1 0x40 MLOAD SWAP3 DUP4 DUP1 SWAP3 PUSH4 0x5D05F6F PUSH1 0xE3 SHL DUP3 MSTORE DUP13 PUSH1 0x4 DUP4 ADD MSTORE GAS STATICCALL SWAP1 DUP2 PUSH2 0xA87 JUMPI JUMPDEST POP PUSH2 0xA80 JUMPI PUSH1 0x40 MLOAD PUSH4 0x97418807 PUSH1 0xE0 SHL DUP2 MSTORE PUSH1 0x4 DUP2 ADD DUP9 SWAP1 MSTORE PUSH1 0x24 SWAP1 REVERT JUMPDEST PUSH1 0x2 PUSH2 0x778 JUMP JUMPDEST PUSH2 0xA90 SWAP1 PUSH2 0x2798 JUMP JUMPDEST DUP10 PUSH2 0xA62 JUMP JUMPDEST PUSH1 0x64 SWAP2 DUP8 SWAP2 PUSH1 0x40 MLOAD SWAP3 PUSH4 0x6BB83139 PUSH1 0xE1 SHL DUP5 MSTORE PUSH1 0x4 DUP5 ADD MSTORE PUSH1 0x24 DUP4 ADD MSTORE PUSH1 0x44 DUP3 ADD MSTORE REVERT JUMPDEST PUSH1 0x44 DUP6 DUP8 PUSH1 0x40 MLOAD SWAP2 PUSH4 0xDFCD137D PUSH1 0xE0 SHL DUP4 MSTORE PUSH1 0x4 DUP4 ADD MSTORE PUSH1 0x24 DUP3 ADD MSTORE REVERT JUMPDEST PUSH1 0x40 MLOAD PUSH4 0x616B4A83 PUSH1 0xE0 SHL DUP2 MSTORE PUSH1 0x4 DUP2 ADD DUP6 SWAP1 MSTORE PUSH1 0x24 SWAP1 REVERT JUMPDEST PUSH1 0x40 MLOAD PUSH4 0x10670CD1 PUSH1 0xE0 SHL DUP2 MSTORE PUSH1 0x4 DUP2 ADD DUP7 SWAP1 MSTORE PUSH1 0x24 SWAP1 REVERT JUMPDEST PUSH1 0x40 MLOAD PUSH4 0x728640F3 PUSH1 0xE1 SHL DUP2 MSTORE PUSH1 0x4 DUP2 ADD DUP7 SWAP1 MSTORE PUSH1 0x24 SWAP1 REVERT JUMPDEST CALLVALUE PUSH2 0x1CA JUMPI PUSH2 0xB31 CALLDATASIZE PUSH2 0x26B1 JUMP JUMPDEST SWAP1 DUP1 PUSH1 0x0 MSTORE PUSH1 0x20 PUSH1 0x8 DUP2 MSTORE PUSH1 0x40 PUSH1 0x0 KECCAK256 PUSH1 0xFF PUSH1 0x8 DUP3 ADD SLOAD AND PUSH1 0x4 DUP2 LT ISZERO PUSH2 0x693 JUMPI DUP1 ISZERO PUSH2 0xDA9 JUMPI PUSH1 0x1 SUB PUSH2 0xD90 JUMPI PUSH2 0x3E8 DUP1 TIMESTAMP MUL SWAP1 TIMESTAMP DUP3 DIV EQ TIMESTAMP ISZERO OR ISZERO PUSH2 0xA20 JUMPI PUSH1 0x3 SWAP2 PUSH1 0x1 PUSH1 0x1 PUSH1 0x40 SHL SUB SWAP3 DUP4 SWAP2 ADD SLOAD PUSH1 0x60 SHR AND LT PUSH2 0xD90 JUMPI PUSH1 0x5 SLOAD PUSH1 0x40 MLOAD PUSH4 0x5EC8FE6B PUSH1 0xE0 SHL DUP2 MSTORE PUSH1 0x4 DUP2 ADD DUP7 SWAP1 MSTORE SWAP1 DUP4 SWAP1 DUP3 SWAP1 PUSH1 0x24 SWAP1 DUP3 SWAP1 PUSH1 0x1 PUSH1 0x1 PUSH1 0xA0 SHL SUB AND GAS STATICCALL SWAP1 DUP2 ISZERO PUSH2 0xA14 JUMPI PUSH1 0x0 SWAP2 PUSH2 0xD5B JUMPI JUMPDEST POP ISZERO PUSH2 0xD42 JUMPI DUP3 PUSH1 0x0 MSTORE PUSH1 0x9 DUP3 MSTORE PUSH1 0x40 PUSH1 0x0 KECCAK256 DUP5 PUSH1 0x0 MSTORE DUP3 MSTORE PUSH1 0xFF PUSH1 0x40 PUSH1 0x0 KECCAK256 SLOAD AND PUSH2 0xD24 JUMPI TIMESTAMP AND SWAP1 PUSH2 0xCAD PUSH1 0x40 MLOAD PUSH2 0xBFE DUP2 PUSH2 0x2761 JUMP JUMPDEST PUSH1 0x1 DUP2 MSTORE DUP3 DUP2 ADD DUP5 DUP2 MSTORE PUSH2 0xC82 PUSH2 0xFFFF PUSH1 0x40 DUP5 ADD PUSH1 0x0 DUP2 MSTORE PUSH1 0x60 DUP6 ADD SWAP4 PUSH1 0x0 DUP6 MSTORE DUP10 PUSH1 0x0 MSTORE PUSH1 0x9 DUP9 MSTORE PUSH1 0x40 PUSH1 0x0 KECCAK256 DUP12 PUSH1 0x0 MSTORE DUP9 MSTORE PUSH1 0x40 PUSH1 0x0 KECCAK256 SWAP6 MLOAD ISZERO ISZERO SWAP1 PUSH1 0xFF PUSH9 0xFFFFFFFFFFFFFFFF00 DUP9 SLOAD SWAP3 MLOAD PUSH1 0x8 SHL AND SWAP3 AND SWAP1 PUSH9 0xFFFFFFFFFFFFFFFFFF NOT AND OR OR DUP6 SSTORE MLOAD AND DUP4 SWAP1 PUSH2 0xFFFF PUSH1 0x48 SHL DUP3 SLOAD SWAP2 PUSH1 0x48 SHL AND SWAP1 PUSH2 0xFFFF PUSH1 0x48 SHL NOT AND OR SWAP1 SSTORE JUMP JUMPDEST MLOAD DUP2 SLOAD PUSH1 0x58 SWAP2 SWAP1 SWAP2 SHL PUSH8 0xFFFFFFFFFFFFFFFF PUSH1 0x58 SHL AND PUSH8 0xFFFFFFFFFFFFFFFF PUSH1 0x58 SHL NOT SWAP1 SWAP2 AND OR SWAP1 SSTORE JUMP JUMPDEST DUP3 PUSH1 0x0 MSTORE PUSH1 0xB DUP2 MSTORE PUSH1 0x40 PUSH1 0x0 KECCAK256 SWAP2 DUP3 SLOAD SWAP3 PUSH1 0x1 PUSH1 0x40 SHL DUP5 LT ISZERO PUSH2 0x9FE JUMPI PUSH1 0x1 DUP5 ADD DUP1 DUP3 SSTORE DUP5 LT ISZERO PUSH2 0xD0E JUMPI PUSH32 0x439C72668C744083584E3621696C1DA1E6E44A0ECF9EBD7E0105655B86044FD0 SWAP4 DUP7 SWAP2 PUSH1 0x0 MSTORE DUP4 PUSH1 0x0 KECCAK256 ADD SSTORE PUSH1 0x40 MLOAD SWAP1 DUP2 MSTORE LOG3 STOP JUMPDEST PUSH4 0x4E487B71 PUSH1 0xE0 SHL PUSH1 0x0 MSTORE PUSH1 0x32 PUSH1 0x4 MSTORE PUSH1 0x24 PUSH1 0x0 REVERT JUMPDEST PUSH1 0x44 DUP4 DUP6 PUSH1 0x40 MLOAD SWAP2 PUSH4 0xE548D209 PUSH1 0xE0 SHL DUP4 MSTORE PUSH1 0x4 DUP4 ADD MSTORE PUSH1 0x24 DUP3 ADD MSTORE REVERT JUMPDEST PUSH1 0x40 MLOAD PUSH4 0x159C7175 PUSH1 0xE1 SHL DUP2 MSTORE PUSH1 0x4 DUP2 ADD DUP6 SWAP1 MSTORE PUSH1 0x24 SWAP1 REVERT JUMPDEST SWAP1 POP DUP3 DUP2 DUP2 RETURNDATASIZE DUP4 GT PUSH2 0xD89 JUMPI JUMPDEST PUSH2 0xD72 DUP2 DUP4 PUSH2 0x27E2 JUMP JUMPDEST DUP2 ADD SUB SLT PUSH2 0x1CA JUMPI PUSH2 0xD83 SWAP1 PUSH2 0x288D JUMP JUMPDEST DUP6 PUSH2 0xBC6 JUMP JUMPDEST POP RETURNDATASIZE PUSH2 0xD68 JUMP JUMPDEST PUSH1 0x40 MLOAD PUSH4 0x616B4A83 PUSH1 0xE0 SHL DUP2 MSTORE PUSH1 0x4 DUP2 ADD DUP5 SWAP1 MSTORE PUSH1 0x24 SWAP1 REVERT JUMPDEST PUSH1 0x40 MLOAD PUSH4 0x728640F3 PUSH1 0xE1 SHL DUP2 MSTORE PUSH1 0x4 DUP2 ADD DUP6 SWAP1 MSTORE PUSH1 0x24 SWAP1 REVERT JUMPDEST CALLVALUE PUSH2 0x1CA JUMPI PUSH1 0x0 CALLDATASIZE PUSH1 0x3 NOT ADD SLT PUSH2 0x1CA JUMPI PUSH1 0x20 PUSH1 0x40 MLOAD PUSH1 0x40 DUP2 MSTORE RETURN JUMPDEST CALLVALUE PUSH2 0x1CA JUMPI PUSH1 0x20 CALLDATASIZE PUSH1 0x3 NOT ADD SLT PUSH2 0x1CA JUMPI PUSH1 0x4 CALLDATALOAD PUSH1 0x0 MSTORE PUSH1 0x8 PUSH1 0x20 MSTORE PUSH2 0x220 PUSH1 0x40 PUSH1 0x0 KECCAK256 DUP1 SLOAD SWAP1 PUSH2 0xEE2 PUSH1 0x1 DUP1 PUSH1 0xA0 SHL SUB PUSH1 0x1 DUP4 ADD SLOAD AND SWAP2 PUSH1 0x2 DUP2 ADD SLOAD PUSH1 0x3 DUP3 ADD SLOAD PUSH1 0x4 DUP4 ADD SLOAD PUSH1 0x5 DUP5 ADD SLOAD SWAP1 PUSH1 0x6 DUP6 ADD SLOAD SWAP3 PUSH1 0x7 DUP7 ADD SLOAD SWAP5 PUSH1 0x9 PUSH1 0xFF PUSH1 0x8 DUP10 ADD SLOAD AND SWAP8 ADD SLOAD SWAP9 PUSH1 0x40 MLOAD SWAP11 DUP12 MSTORE PUSH1 0x20 DUP12 ADD MSTORE PUSH1 0x40 DUP11 ADD MSTORE PUSH2 0xFFFF DUP1 DUP3 AND PUSH1 0x60 DUP12 ADD MSTORE DUP2 PUSH1 0x10 SHR AND PUSH1 0x80 DUP11 ADD MSTORE PUSH4 0xFFFFFFFF DUP1 DUP3 PUSH1 0x20 SHR AND PUSH1 0xA0 DUP12 ADD MSTORE DUP2 PUSH1 0x40 SHR AND PUSH1 0xC0 DUP11 ADD MSTORE PUSH1 0x1 PUSH1 0x1 PUSH1 0x40 SHL SUB DUP2 PUSH1 0x60 SHR AND PUSH1 0xE0 DUP11 ADD MSTORE PUSH1 0xA0 SHR PUSH1 0x7 SIGNEXTEND PUSH2 0x100 DUP10 ADD MSTORE DUP1 PUSH1 0x7 SIGNEXTEND PUSH2 0x120 DUP10 ADD MSTORE DUP1 PUSH1 0x40 SHR PUSH1 0x7 SIGNEXTEND PUSH2 0x140 DUP10 ADD MSTORE PUSH1 0x80 SHR PUSH1 0x7 SIGNEXTEND PUSH2 0x160 DUP9 ADD MSTORE PUSH2 0x180 DUP8 ADD MSTORE PUSH2 0x1A0 DUP7 ADD MSTORE PUSH2 0x1C0 DUP6 ADD MSTORE PUSH2 0x1E0 DUP5 ADD SWAP1 PUSH2 0x2728 JUMP JUMPDEST PUSH2 0x200 DUP3 ADD MSTORE RETURN JUMPDEST CALLVALUE PUSH2 0x1CA JUMPI PUSH1 0x0 CALLDATASIZE PUSH1 0x3 NOT ADD SLT PUSH2 0x1CA JUMPI PUSH1 0x20 PUSH1 0x40 MLOAD PUSH1 0x2 DUP2 MSTORE RETURN JUMPDEST CALLVALUE PUSH2 0x1CA JUMPI PUSH2 0xF14 CALLDATASIZE PUSH2 0x26B1 JUMP JUMPDEST SWAP1 PUSH1 0x0 MSTORE PUSH1 0x9 PUSH1 0x20 MSTORE PUSH1 0x40 PUSH1 0x0 KECCAK256 SWAP1 PUSH1 0x0 MSTORE PUSH1 0x20 MSTORE PUSH1 0x80 PUSH1 0x40 PUSH1 0x0 KECCAK256 SLOAD PUSH1 0x40 MLOAD SWAP1 PUSH1 0xFF DUP2 AND ISZERO ISZERO DUP3 MSTORE PUSH1 0x1 PUSH1 0x1 PUSH1 0x40 SHL SUB DUP2 PUSH1 0x8 SHR AND PUSH1 0x20 DUP4 ADD MSTORE PUSH2 0xFFFF DUP2 PUSH1 0x48 SHR AND PUSH1 0x40 DUP4 ADD MSTORE PUSH1 0x58 SHR PUSH1 0x7 SIGNEXTEND PUSH1 0x60 DUP3 ADD MSTORE RETURN JUMPDEST CALLVALUE PUSH2 0x1CA JUMPI PUSH1 0xC0 CALLDATASIZE PUSH1 0x3 NOT ADD SLT PUSH2 0x1CA JUMPI PUSH1 0x64 CALLDATALOAD DUP1 PUSH1 0x7 SIGNEXTEND DUP2 SUB PUSH2 0x1CA JUMPI PUSH2 0xF8F PUSH2 0x2708 JUMP JUMPDEST PUSH2 0xF97 PUSH2 0x2718 JUMP JUMPDEST SWAP2 PUSH2 0xFA0 PUSH2 0x284E JUMP JUMPDEST PUSH1 0x4 CALLDATALOAD PUSH1 0x0 MSTORE PUSH1 0x8 PUSH1 0x20 MSTORE PUSH1 0x40 PUSH1 0x0 KECCAK256 SWAP2 PUSH1 0xFF PUSH1 0x8 DUP5 ADD SLOAD AND PUSH1 0x4 DUP2 LT ISZERO PUSH2 0x693 JUMPI DUP1 ISZERO PUSH2 0x14B7 JUMPI PUSH1 0x1 SUB PUSH2 0x149E JUMPI PUSH1 0x3 DUP4 ADD SLOAD SWAP3 PUSH1 0x1 PUSH1 0x1 PUSH1 0x40 SHL SUB DUP5 PUSH1 0x60 SHR AND PUSH1 0x1 PUSH1 0x1 PUSH1 0x40 SHL SUB DUP7 AND GT PUSH2 0x149E JUMPI PUSH1 0x4 CALLDATALOAD PUSH1 0x0 MSTORE PUSH1 0x9 PUSH1 0x20 MSTORE PUSH1 0x40 PUSH1 0x0 KECCAK256 PUSH1 0x24 CALLDATALOAD PUSH1 0x0 MSTORE PUSH1 0x20 MSTORE PUSH1 0x40 PUSH1 0x0 KECCAK256 SWAP4 DUP5 SLOAD SWAP2 PUSH1 0xFF DUP4 AND ISZERO PUSH2 0x147D JUMPI PUSH1 0x5 SLOAD PUSH1 0x40 MLOAD PUSH4 0x1F9B019B PUSH1 0xE0 SHL DUP2 MSTORE PUSH1 0x24 DUP1 CALLDATALOAD PUSH1 0x4 DUP4 ADD MSTORE SWAP1 SWAP2 PUSH1 0x20 SWAP2 DUP4 SWAP2 DUP3 SWAP1 PUSH1 0x1 PUSH1 0x1 PUSH1 0xA0 SHL SUB AND GAS STATICCALL SWAP1 DUP2 ISZERO PUSH2 0xA14 JUMPI PUSH1 0x0 SWAP2 PUSH2 0x1443 JUMPI JUMPDEST POP ISZERO PUSH2 0x142A JUMPI PUSH1 0x24 PUSH1 0x20 PUSH1 0x1 DUP1 PUSH1 0xA0 SHL SUB PUSH1 0x4 SLOAD AND PUSH1 0x40 MLOAD SWAP3 DUP4 DUP1 SWAP3 PUSH4 0x488DBFAD PUSH1 0xE0 SHL DUP3 MSTORE PUSH1 0x44 CALLDATALOAD PUSH1 0x4 DUP4 ADD MSTORE GAS STATICCALL SWAP1 DUP2 ISZERO PUSH2 0xA14 JUMPI PUSH1 0x0 SWAP2 PUSH2 0x13F0 JUMPI JUMPDEST POP ISZERO PUSH2 0x13D6 JUMPI PUSH1 0x44 CALLDATALOAD PUSH1 0x0 MSTORE PUSH1 0xC PUSH1 0x20 MSTORE PUSH1 0x40 PUSH1 0x0 KECCAK256 SLOAD DUP1 PUSH2 0x13B6 JUMPI POP DUP2 PUSH1 0xA0 SHR PUSH1 0x7 SIGNEXTEND DUP6 PUSH1 0x7 SIGNEXTEND SLT SWAP1 DUP2 ISZERO PUSH2 0x13A1 JUMPI JUMPDEST DUP2 ISZERO PUSH2 0x1389 JUMPI JUMPDEST DUP2 ISZERO PUSH2 0x1372 JUMPI JUMPDEST POP PUSH2 0x134E JUMPI PUSH2 0xFFFF DUP3 PUSH1 0x48 SHR AND ISZERO ISZERO DUP1 PUSH2 0x133C JUMPI JUMPDEST PUSH2 0x12C2 JUMPI JUMPDEST POP POP PUSH1 0x4 CALLDATALOAD PUSH1 0x0 MSTORE PUSH1 0xA PUSH1 0x20 MSTORE PUSH1 0x40 PUSH1 0x0 KECCAK256 SWAP1 PUSH1 0x40 MLOAD SWAP3 PUSH2 0x1110 DUP5 PUSH2 0x27AB JUMP JUMPDEST PUSH1 0x24 CALLDATALOAD DUP5 MSTORE PUSH1 0x44 CALLDATALOAD PUSH1 0x20 DUP6 ADD MSTORE DUP6 PUSH1 0x7 SIGNEXTEND PUSH1 0x40 DUP6 ADD MSTORE PUSH1 0x7 SIGNEXTEND PUSH1 0x60 DUP5 ADD MSTORE PUSH1 0x7 SIGNEXTEND PUSH1 0x80 DUP4 ADD MSTORE DUP1 SLOAD PUSH1 0x1 PUSH1 0x40 SHL DUP2 LT ISZERO PUSH2 0x9FE JUMPI PUSH2 0x1153 SWAP2 PUSH1 0x1 DUP3 ADD DUP2 SSTORE PUSH2 0x289A JUMP JUMPDEST SWAP2 SWAP1 SWAP2 PUSH2 0x12AC JUMPI PUSH1 0x80 PUSH1 0x2 PUSH2 0x11F0 SWAP4 DUP4 MLOAD DUP2 SSTORE PUSH1 0x20 DUP5 ADD MLOAD PUSH1 0x1 DUP3 ADD SSTORE ADD SWAP2 PUSH1 0x40 DUP2 ADD MLOAD PUSH1 0x1 PUSH1 0x1 PUSH1 0x40 SHL SUB NOT DUP5 SLOAD AND SWAP1 PUSH1 0x1 PUSH1 0x1 PUSH1 0x40 SHL SUB AND OR DUP4 SSTORE PUSH2 0x11C4 PUSH1 0x60 DUP3 ADD MLOAD PUSH1 0x7 SIGNEXTEND DUP5 SWAP1 DUP2 SLOAD SWAP1 PUSH1 0x40 SHL PUSH8 0xFFFFFFFFFFFFFFFF PUSH1 0x40 SHL AND SWAP1 PUSH8 0xFFFFFFFFFFFFFFFF PUSH1 0x40 SHL NOT AND OR SWAP1 SSTORE JUMP JUMPDEST ADD MLOAD DUP2 SLOAD PUSH1 0x80 SWAP2 SWAP1 SWAP2 SHL PUSH8 0xFFFFFFFFFFFFFFFF PUSH1 0x80 SHL AND PUSH8 0xFFFFFFFFFFFFFFFF PUSH1 0x80 SHL NOT SWAP1 SWAP2 AND OR SWAP1 SSTORE JUMP JUMPDEST PUSH1 0x44 CALLDATALOAD PUSH1 0x0 MSTORE PUSH1 0xC PUSH1 0x20 MSTORE PUSH1 0x4 CALLDATALOAD PUSH1 0x40 PUSH1 0x0 KECCAK256 SSTORE PUSH2 0xFFFF DUP2 SLOAD PUSH1 0x48 SHR AND PUSH2 0xFFFF DUP2 EQ PUSH2 0xA20 JUMPI DUP2 SLOAD PUSH11 0xFFFF000000000000000000 NOT AND PUSH1 0x1 SWAP2 SWAP1 SWAP2 ADD PUSH1 0x48 SHL PUSH2 0xFFFF PUSH1 0x48 SHL AND OR DUP2 SSTORE PUSH2 0xFFFF SWAP2 PUSH2 0x126B SWAP1 DUP3 SLOAD PUSH1 0x58 SWAP2 SWAP1 SWAP2 SHL PUSH8 0xFFFFFFFFFFFFFFFF PUSH1 0x58 SHL AND PUSH8 0xFFFFFFFFFFFFFFFF PUSH1 0x58 SHL NOT SWAP1 SWAP2 AND OR DUP3 SSTORE JUMP JUMPDEST SLOAD PUSH1 0x48 SHR AND PUSH1 0x40 MLOAD SWAP1 DUP2 MSTORE PUSH1 0x44 CALLDATALOAD SWAP1 PUSH1 0x24 CALLDATALOAD SWAP1 PUSH32 0x34F15EB843FFBA278410DEC94D6ED018DBCD7F438B771255FAA42192A42E2F9B PUSH1 0x20 PUSH1 0x4 CALLDATALOAD SWAP3 LOG4 PUSH1 0x1 DUP1 SSTORE STOP JUMPDEST PUSH4 0x4E487B71 PUSH1 0xE0 SHL PUSH1 0x0 MSTORE PUSH1 0x0 PUSH1 0x4 MSTORE PUSH1 0x24 PUSH1 0x0 REVERT JUMPDEST PUSH4 0xFFFFFFFF SWAP1 PUSH1 0x20 SHR AND PUSH2 0x3E8 DUP2 PUSH1 0x7 SIGNEXTEND MUL SWAP2 DUP3 PUSH1 0x7 SIGNEXTEND SWAP3 DUP4 SUB PUSH2 0xA20 JUMPI PUSH1 0x58 SHR PUSH1 0x7 SIGNEXTEND SWAP2 DUP7 PUSH1 0x7 SIGNEXTEND SWAP1 DUP4 DUP3 SUB PUSH8 0x7FFFFFFFFFFFFFFF DUP2 SGT PUSH8 0x7FFFFFFFFFFFFFFF NOT DUP3 SLT OR PUSH2 0xA20 JUMPI PUSH1 0x7 SIGNEXTEND SLT PUSH2 0x1319 JUMPI POP PUSH2 0x10F0 JUMP JUMPDEST PUSH1 0x64 SWAP4 POP PUSH1 0x40 MLOAD SWAP3 PUSH4 0x3AE02DB9 PUSH1 0xE2 SHL DUP5 MSTORE PUSH1 0x4 DUP5 ADD MSTORE PUSH1 0x24 DUP4 ADD MSTORE PUSH1 0x44 DUP3 ADD MSTORE REVERT JUMPDEST POP PUSH4 0xFFFFFFFF DUP2 PUSH1 0x20 SHR AND ISZERO ISZERO PUSH2 0x10EB JUMP JUMPDEST PUSH1 0x40 MLOAD PUSH4 0xBFB806BB PUSH1 0xE0 SHL DUP2 MSTORE PUSH1 0x7 DUP6 DUP2 SIGNEXTEND PUSH1 0x4 DUP4 ADD MSTORE DUP5 SWAP1 SIGNEXTEND PUSH1 0x24 DUP3 ADD MSTORE PUSH1 0x44 SWAP1 REVERT JUMPDEST PUSH1 0x4 SWAP2 POP ADD SLOAD PUSH1 0x80 SHR PUSH1 0x7 SIGNEXTEND DUP4 PUSH1 0x7 SIGNEXTEND SGT DUP8 PUSH2 0x10D6 JUMP JUMPDEST SWAP1 POP PUSH1 0x4 DUP2 ADD SLOAD PUSH1 0x40 SHR PUSH1 0x7 SIGNEXTEND DUP5 PUSH1 0x7 SIGNEXTEND SLT SWAP1 PUSH2 0x10CF JUMP JUMPDEST SWAP1 POP PUSH1 0x4 DUP2 ADD SLOAD PUSH1 0x7 SIGNEXTEND DUP6 PUSH1 0x7 SIGNEXTEND SGT SWAP1 PUSH2 0x10C8 JUMP JUMPDEST PUSH1 0x40 MLOAD PUSH4 0x321D4197 PUSH1 0xE1 SHL DUP2 MSTORE PUSH1 0x44 DUP1 CALLDATALOAD PUSH1 0x4 DUP4 ADD MSTORE PUSH1 0x24 DUP3 ADD SWAP3 SWAP1 SWAP3 MSTORE REVERT JUMPDEST PUSH1 0x40 MLOAD PUSH4 0x2047F235 PUSH1 0xE2 SHL DUP2 MSTORE PUSH1 0x44 CALLDATALOAD PUSH1 0x4 DUP3 ADD MSTORE PUSH1 0x24 SWAP1 REVERT JUMPDEST SWAP1 POP PUSH1 0x20 DUP2 RETURNDATASIZE PUSH1 0x20 GT PUSH2 0x1422 JUMPI JUMPDEST DUP2 PUSH2 0x140B PUSH1 0x20 SWAP4 DUP4 PUSH2 0x27E2 JUMP JUMPDEST DUP2 ADD SUB SLT PUSH2 0x1CA JUMPI PUSH2 0x141C SWAP1 PUSH2 0x288D JUMP JUMPDEST DUP9 PUSH2 0x1097 JUMP JUMPDEST RETURNDATASIZE SWAP2 POP PUSH2 0x13FE JUMP JUMPDEST PUSH1 0x40 MLOAD PUSH4 0x47B63A53 PUSH1 0xE0 SHL DUP2 MSTORE PUSH1 0x24 DUP1 CALLDATALOAD PUSH1 0x4 DUP4 ADD MSTORE SWAP1 REVERT JUMPDEST SWAP1 POP PUSH1 0x20 DUP2 RETURNDATASIZE PUSH1 0x20 GT PUSH2 0x1475 JUMPI JUMPDEST DUP2 PUSH2 0x145E PUSH1 0x20 SWAP4 DUP4 PUSH2 0x27E2 JUMP JUMPDEST DUP2 ADD SUB SLT PUSH2 0x1CA JUMPI PUSH2 0x146F SWAP1 PUSH2 0x288D JUMP JUMPDEST DUP9 PUSH2 0x1058 JUMP JUMPDEST RETURNDATASIZE SWAP2 POP PUSH2 0x1451 JUMP JUMPDEST PUSH1 0x44 PUSH1 0x40 MLOAD PUSH4 0xDFCD137D PUSH1 0xE0 SHL DUP2 MSTORE PUSH1 0x4 CALLDATALOAD PUSH1 0x4 DUP3 ADD MSTORE PUSH1 0x24 CALLDATALOAD PUSH1 0x24 DUP3 ADD MSTORE REVERT JUMPDEST PUSH1 0x24 PUSH1 0x40 MLOAD PUSH4 0x616B4A83 PUSH1 0xE0 SHL DUP2 MSTORE PUSH1 0x4 CALLDATALOAD PUSH1 0x4 DUP3 ADD MSTORE REVERT JUMPDEST PUSH1 0x24 PUSH1 0x40 MLOAD PUSH4 0x728640F3 PUSH1 0xE1 SHL DUP2 MSTORE PUSH1 0x4 CALLDATALOAD PUSH1 0x4 DUP3 ADD MSTORE REVERT JUMPDEST CALLVALUE PUSH2 0x1CA JUMPI PUSH1 0x0 CALLDATASIZE PUSH1 0x3 NOT ADD SLT PUSH2 0x1CA JUMPI PUSH1 0x20 PUSH1 0x40 MLOAD PUSH2 0xE10 DUP2 MSTORE RETURN JUMPDEST CALLVALUE PUSH2 0x1CA JUMPI PUSH1 0x0 CALLDATASIZE PUSH1 0x3 NOT ADD SLT PUSH2 0x1CA JUMPI PUSH1 0x20 PUSH1 0x40 MLOAD DUP2 DUP2 MSTORE RETURN JUMPDEST CALLVALUE PUSH2 0x1CA JUMPI PUSH1 0x20 CALLDATASIZE PUSH1 0x3 NOT ADD SLT PUSH2 0x1CA JUMPI PUSH1 0x4 CALLDATALOAD PUSH1 0x1 PUSH1 0x1 PUSH1 0xA0 SHL SUB DUP2 DUP2 AND SWAP2 DUP3 SWAP1 SUB PUSH2 0x1CA JUMPI PUSH2 0x1537 PUSH2 0x2735 JUMP JUMPDEST PUSH1 0x6 SLOAD SWAP1 DUP2 AND PUSH2 0x1551 JUMPI PUSH1 0x1 PUSH1 0x1 PUSH1 0xA0 SHL SUB NOT AND OR PUSH1 0x6 SSTORE STOP JUMPDEST PUSH1 0x40 MLOAD PUSH3 0x461BCD PUSH1 0xE5 SHL DUP2 MSTORE PUSH1 0x20 PUSH1 0x4 DUP3 ADD MSTORE PUSH1 0x1E PUSH1 0x24 DUP3 ADD MSTORE PUSH32 0x426F756E74794D61726B65743A206761746520616C7265616479207365740000 PUSH1 0x44 DUP3 ADD MSTORE PUSH1 0x64 SWAP1 REVERT JUMPDEST CALLVALUE PUSH2 0x1CA JUMPI PUSH1 0x0 CALLDATASIZE PUSH1 0x3 NOT ADD SLT PUSH2 0x1CA JUMPI PUSH1 0x20 PUSH1 0x40 MLOAD PUSH1 0x1 DUP2 MSTORE RETURN JUMPDEST CALLVALUE PUSH2 0x1CA JUMPI PUSH1 0x0 CALLDATASIZE PUSH1 0x3 NOT ADD SLT PUSH2 0x1CA JUMPI PUSH1 0x0 SLOAD PUSH1 0x40 MLOAD PUSH1 0x1 PUSH1 0x1 PUSH1 0xA0 SHL SUB SWAP1 SWAP2 AND DUP2 MSTORE PUSH1 0x20 SWAP1 RETURN JUMPDEST CALLVALUE PUSH2 0x1CA JUMPI PUSH1 0x20 CALLDATASIZE PUSH1 0x3 NOT ADD SLT PUSH2 0x1CA JUMPI PUSH1 0x4 CALLDATALOAD PUSH1 0x0 MSTORE PUSH1 0xC PUSH1 0x20 MSTORE PUSH1 0x20 PUSH1 0x40 PUSH1 0x0 KECCAK256 SLOAD PUSH1 0x40 MLOAD SWAP1 DUP2 MSTORE RETURN JUMPDEST CALLVALUE PUSH2 0x1CA JUMPI PUSH1 0x0 CALLDATASIZE PUSH1 0x3 NOT ADD SLT PUSH2 0x1CA JUMPI PUSH2 0x1620 PUSH2 0x2735 JUMP JUMPDEST PUSH1 0x0 DUP1 SLOAD PUSH1 0x1 PUSH1 0x1 PUSH1 0xA0 SHL SUB NOT DUP2 AND DUP3 SSTORE PUSH1 0x1 PUSH1 0x1 PUSH1 0xA0 SHL SUB AND PUSH32 0x8BE0079C531659141344CD1FD0A4F28419497F9722A3DAAFE3B4186F6B6457E0 DUP3 DUP1 LOG3 STOP JUMPDEST PUSH2 0x160 CALLDATASIZE PUSH1 0x3 NOT ADD SLT PUSH2 0x1CA JUMPI PUSH2 0x1675 PUSH2 0x26F7 JUMP JUMPDEST PUSH2 0xFFFF PUSH1 0x24 CALLDATALOAD AND PUSH1 0x24 CALLDATALOAD SUB PUSH2 0x1CA JUMPI PUSH4 0xFFFFFFFF DUP1 PUSH1 0x44 CALLDATALOAD AND PUSH1 0x44 CALLDATALOAD SUB PUSH2 0x1CA JUMPI DUP1 PUSH1 0x64 CALLDATALOAD AND PUSH1 0x64 CALLDATALOAD SUB PUSH2 0x1CA JUMPI PUSH2 0x16AB PUSH2 0x2708 JUMP JUMPDEST PUSH2 0x16B3 PUSH2 0x2718 JUMP JUMPDEST PUSH1 0xC4 CALLDATALOAD PUSH1 0x7 SIGNEXTEND PUSH1 0xC4 CALLDATALOAD SUB PUSH2 0x1CA JUMPI PUSH1 0xE4 CALLDATALOAD PUSH1 0x7 SIGNEXTEND PUSH1 0xE4 CALLDATALOAD SUB PUSH2 0x1CA JUMPI PUSH2 0x16D7 PUSH2 0x284E JUMP JUMPDEST CALLVALUE ISZERO PUSH2 0x1943 JUMPI PUSH2 0xE10 DUP4 PUSH1 0x64 CALLDATALOAD AND LT DUP1 ISZERO PUSH2 0x1932 JUMPI JUMPDEST PUSH2 0x1916 JUMPI DUP1 PUSH1 0x7 SIGNEXTEND DUP3 PUSH1 0x7 SIGNEXTEND SLT DUP1 ISZERO SWAP1 PUSH2 0x1902 JUMPI JUMPDEST PUSH2 0x18F0 JUMPI PUSH2 0xFFFF PUSH1 0x24 CALLDATALOAD AND ISZERO PUSH2 0x18DE JUMPI PUSH2 0x172F PUSH1 0x7 SLOAD SWAP4 PUSH2 0x1722 DUP6 PUSH2 0x2871 JUMP JUMPDEST PUSH1 0x7 SSTORE PUSH1 0x64 CALLDATALOAD AND TIMESTAMP PUSH2 0x2880 JUMP JUMPDEST PUSH2 0x3E8 SWAP1 DUP2 DUP2 MUL SWAP2 DUP2 DUP4 DIV EQ SWAP1 ISZERO OR ISZERO PUSH2 0xA20 JUMPI PUSH1 0x20 SWAP5 DUP5 PUSH1 0x0 MSTORE PUSH1 0x8 DUP7 MSTORE PUSH1 0x40 PUSH1 0x0 KECCAK256 SWAP1 DUP6 DUP3 SSTORE PUSH1 0x1 DUP3 ADD CALLER PUSH12 0xFFFFFFFFFFFFFFFFFFFFFFFF PUSH1 0xA0 SHL DUP3 SLOAD AND OR SWAP1 SSTORE CALLVALUE PUSH1 0x2 DUP4 ADD SSTORE PUSH2 0xFFFF PUSH1 0x3 DUP4 ADD SWAP2 AND SWAP5 DUP6 DUP3 SLOAD SWAP2 PUSH1 0xA0 SHL PUSH1 0x1 PUSH1 0x1 PUSH1 0x40 SHL SUB PUSH1 0xA0 SHL AND SWAP2 PUSH4 0xFFFFFFFF PUSH1 0xE0 SHL AND OR PUSH4 0xFFFF0000 PUSH1 0x24 CALLDATALOAD PUSH1 0x10 SHL AND OR PUSH8 0xFFFFFFFF00000000 PUSH1 0x44 CALLDATALOAD DUP11 SHL AND OR PUSH12 0xFFFFFFFF0000000000000000 PUSH1 0x64 CALLDATALOAD PUSH1 0x40 SHL AND OR PUSH1 0x1 PUSH1 0x1 PUSH1 0x40 SHL SUB PUSH1 0x60 SHL DUP6 PUSH1 0x60 SHL AND OR OR SWAP1 SSTORE PUSH2 0x185E PUSH1 0x4 DUP3 ADD PUSH1 0x1 PUSH1 0x1 PUSH1 0x40 SHL SUB NOT DUP2 SLOAD AND PUSH1 0x1 PUSH1 0x1 PUSH1 0x40 SHL SUB SWAP6 DUP7 AND OR DUP2 SSTORE PUSH2 0x1836 PUSH1 0xC4 CALLDATALOAD DUP3 SWAP1 DUP2 SLOAD SWAP1 PUSH1 0x40 SHL PUSH8 0xFFFFFFFFFFFFFFFF PUSH1 0x40 SHL AND SWAP1 PUSH8 0xFFFFFFFFFFFFFFFF PUSH1 0x40 SHL NOT AND OR SWAP1 SSTORE JUMP JUMPDEST DUP1 SLOAD PUSH8 0xFFFFFFFFFFFFFFFF PUSH1 0x80 SHL NOT AND PUSH8 0xFFFFFFFFFFFFFFFF PUSH1 0x80 SHL PUSH1 0xE4 CALLDATALOAD PUSH1 0x80 SHL AND OR SWAP1 SSTORE JUMP JUMPDEST PUSH2 0x104 CALLDATALOAD PUSH1 0x5 DUP3 ADD SSTORE PUSH2 0x124 CALLDATALOAD PUSH1 0x6 DUP3 ADD SSTORE PUSH2 0x144 CALLDATALOAD PUSH1 0x7 DUP3 ADD SSTORE PUSH1 0x8 DUP2 ADD PUSH1 0x1 PUSH1 0xFF NOT DUP3 SLOAD AND OR SWAP1 SSTORE PUSH1 0x9 TIMESTAMP SWAP2 ADD SSTORE PUSH1 0x40 MLOAD SWAP3 CALLVALUE DUP5 MSTORE DUP6 DUP5 ADD MSTORE PUSH2 0xFFFF PUSH1 0x24 CALLDATALOAD AND PUSH1 0x40 DUP5 ADD MSTORE AND PUSH1 0x60 DUP3 ADD MSTORE DUP2 PUSH32 0x36924365DFD16E16E86593C39511C44D2A1C13A28E05C093CFB1E908AEBE5C09 PUSH1 0x80 CALLER SWAP4 LOG3 PUSH1 0x1 DUP1 SSTORE PUSH1 0x40 MLOAD SWAP1 DUP2 MSTORE RETURN JUMPDEST PUSH1 0x40 MLOAD PUSH4 0xADF316AD PUSH1 0xE0 SHL DUP2 MSTORE PUSH1 0x4 SWAP1 REVERT JUMPDEST PUSH1 0x40 MLOAD PUSH4 0x9D3C586B PUSH1 0xE0 SHL DUP2 MSTORE PUSH1 0x4 SWAP1 REVERT JUMPDEST POP PUSH1 0xE4 CALLDATALOAD PUSH1 0x7 SIGNEXTEND PUSH1 0xC4 CALLDATALOAD PUSH1 0x7 SIGNEXTEND SLT ISZERO PUSH2 0x1702 JUMP JUMPDEST PUSH1 0x40 MLOAD PUSH4 0x13B783AF PUSH1 0xE2 SHL DUP2 MSTORE PUSH1 0x64 CALLDATALOAD DUP5 AND PUSH1 0x4 DUP3 ADD MSTORE PUSH1 0x24 SWAP1 REVERT JUMPDEST POP PUSH4 0x1E13380 DUP4 PUSH1 0x64 CALLDATALOAD AND GT PUSH2 0x16ED JUMP JUMPDEST PUSH1 0x40 MLOAD PUSH4 0x6BBDB6DB PUSH1 0xE1 SHL DUP2 MSTORE PUSH1 0x4 SWAP1 REVERT JUMPDEST CALLVALUE PUSH2 0x1CA JUMPI PUSH1 0x20 CALLDATASIZE PUSH1 0x3 NOT ADD SLT PUSH2 0x1CA JUMPI PUSH1 0x4 CALLDATALOAD PUSH2 0x1971 PUSH2 0x284E JUMP JUMPDEST DUP1 PUSH1 0x0 MSTORE PUSH1 0x8 PUSH1 0x20 MSTORE PUSH1 0x40 PUSH1 0x0 KECCAK256 SWAP1 PUSH1 0x8 DUP3 ADD DUP1 SLOAD PUSH1 0xFF DUP2 AND PUSH1 0x4 DUP2 LT ISZERO PUSH2 0x693 JUMPI DUP1 ISZERO PUSH2 0xDA9 JUMPI PUSH1 0x1 SUB PUSH2 0xD90 JUMPI PUSH2 0x3E8 DUP1 TIMESTAMP MUL SWAP1 TIMESTAMP DUP3 DIV EQ TIMESTAMP ISZERO OR ISZERO PUSH2 0xA20 JUMPI PUSH1 0x1 PUSH1 0x1 PUSH1 0x40 SHL SUB PUSH1 0x3 DUP7 ADD SLOAD PUSH1 0x60 SHR AND LT ISZERO PUSH2 0x1A34 JUMPI PUSH1 0x3 SWAP1 PUSH1 0xFF NOT AND OR SWAP1 SSTORE PUSH1 0x1 PUSH1 0x2 DUP4 ADD SLOAD SWAP3 ADD PUSH1 0x1 DUP1 PUSH1 0xA0 SHL SUB SWAP1 PUSH1 0x0 DUP1 DUP1 DUP1 DUP8 DUP7 DUP7 SLOAD AND GAS CALL PUSH2 0x19F9 PUSH2 0x281E JUMP JUMPDEST POP ISZERO PUSH2 0x88E JUMPI PUSH32 0xBCAF9D6F28FFDBD48D1ABF354B5F84D03EDA4274BF2995A6B1F0A84630C01B87 SWAP2 PUSH1 0x20 SWAP2 SLOAD AND SWAP4 PUSH1 0x40 MLOAD SWAP1 DUP2 MSTORE LOG3 PUSH1 0x1 DUP1 SSTORE STOP JUMPDEST PUSH1 0x40 MLOAD PUSH4 0x134589D PUSH1 0xE4 SHL DUP2 MSTORE PUSH1 0x4 DUP2 ADD DUP5 SWAP1 MSTORE PUSH1 0x24 SWAP1 REVERT JUMPDEST CALLVALUE PUSH2 0x1CA JUMPI PUSH1 0x0 CALLDATASIZE PUSH1 0x3 NOT ADD SLT PUSH2 0x1CA JUMPI PUSH1 0x5 SLOAD PUSH1 0x40 MLOAD PUSH1 0x1 PUSH1 0x1 PUSH1 0xA0 SHL SUB SWAP1 SWAP2 AND DUP2 MSTORE PUSH1 0x20 SWAP1 RETURN JUMPDEST CALLVALUE PUSH2 0x1CA JUMPI PUSH1 0x20 CALLDATASIZE PUSH1 0x3 NOT ADD SLT PUSH2 0x1CA JUMPI PUSH2 0xFFFF PUSH2 0x1A92 PUSH2 0x26F7 JUMP JUMPDEST PUSH2 0x1A9A PUSH2 0x2735 JUMP JUMPDEST AND PUSH2 0x3E8 DUP2 GT PUSH2 0x1AB5 JUMPI PUSH2 0xFFFF NOT PUSH1 0x2 SLOAD AND OR PUSH1 0x2 SSTORE PUSH1 0x0 DUP1 RETURN JUMPDEST PUSH1 0x40 MLOAD PUSH3 0x461BCD PUSH1 0xE5 SHL DUP2 MSTORE PUSH1 0x20 PUSH1 0x4 DUP3 ADD MSTORE PUSH1 0x23 PUSH1 0x24 DUP3 ADD MSTORE PUSH32 0x426F756E74794D61726B65743A206665652063616E6E6F742065786365656420 PUSH1 0x44 DUP3 ADD MSTORE PUSH3 0x313025 PUSH1 0xE8 SHL PUSH1 0x64 DUP3 ADD MSTORE PUSH1 0x84 SWAP1 REVERT JUMPDEST CALLVALUE PUSH2 0x1CA JUMPI PUSH1 0x0 CALLDATASIZE PUSH1 0x3 NOT ADD SLT PUSH2 0x1CA JUMPI PUSH1 0x20 PUSH1 0x3 SLOAD PUSH1 0x40 MLOAD SWAP1 DUP2 MSTORE RETURN JUMPDEST CALLVALUE PUSH2 0x1CA JUMPI PUSH1 0x0 CALLDATASIZE PUSH1 0x3 NOT ADD SLT PUSH2 0x1CA JUMPI PUSH1 0x20 PUSH1 0x40 MLOAD PUSH4 0x1E13380 DUP2 MSTORE RETURN JUMPDEST CALLVALUE PUSH2 0x1CA JUMPI PUSH1 0x0 CALLDATASIZE PUSH1 0x3 NOT ADD SLT PUSH2 0x1CA JUMPI PUSH1 0x20 PUSH1 0x40 MLOAD PUSH1 0x10 DUP2 MSTORE RETURN JUMPDEST CALLVALUE PUSH2 0x1CA JUMPI PUSH1 0x0 CALLDATASIZE PUSH1 0x3 NOT ADD SLT PUSH2 0x1CA JUMPI PUSH2 0x1B78 PUSH2 0x2735 JUMP JUMPDEST PUSH2 0x1B80 PUSH2 0x284E JUMP JUMPDEST PUSH1 0x0 DUP1 DUP1 DUP1 PUSH1 0x3 SLOAD DUP2 PUSH1 0x3 SSTORE PUSH1 0x1 DUP1 PUSH1 0xA0 SHL SUB DUP3 SLOAD AND GAS CALL PUSH2 0x1BA0 PUSH2 0x281E JUMP JUMPDEST POP ISZERO PUSH2 0x88E JUMPI PUSH1 0x1 DUP1 SSTORE STOP JUMPDEST CALLVALUE PUSH2 0x1CA JUMPI PUSH1 0x0 CALLDATASIZE PUSH1 0x3 NOT ADD SLT PUSH2 0x1CA JUMPI PUSH1 0x20 PUSH1 0x40 MLOAD PUSH1 0x8 DUP2 MSTORE RETURN JUMPDEST CALLVALUE PUSH2 0x1CA JUMPI PUSH1 0xE0 CALLDATASIZE PUSH1 0x3 NOT ADD SLT PUSH2 0x1CA JUMPI PUSH1 0x24 CALLDATALOAD PUSH1 0x1 PUSH1 0x1 PUSH1 0x40 SHL SUB DUP2 GT PUSH2 0x1CA JUMPI PUSH2 0x1BF8 SWAP1 CALLDATASIZE SWAP1 PUSH1 0x4 ADD PUSH2 0x26C7 JUMP JUMPDEST PUSH1 0x80 MSTORE PUSH1 0x44 CALLDATALOAD PUSH1 0x1 PUSH1 0x1 PUSH1 0x40 SHL SUB DUP2 GT PUSH2 0x1CA JUMPI PUSH2 0x1C1A SWAP1 CALLDATASIZE SWAP1 PUSH1 0x4 ADD PUSH2 0x26C7 JUMP JUMPDEST PUSH2 0x200 MSTORE PUSH1 0x64 CALLDATALOAD PUSH1 0x1 PUSH1 0x1 PUSH1 0x40 SHL SUB DUP2 GT PUSH2 0x1CA JUMPI PUSH2 0x1C3D SWAP1 CALLDATASIZE SWAP1 PUSH1 0x4 ADD PUSH2 0x26C7 JUMP JUMPDEST PUSH1 0xE0 MSTORE PUSH2 0x240 MSTORE PUSH1 0x84 CALLDATALOAD PUSH1 0x1 PUSH1 0x1 PUSH1 0x40 SHL SUB DUP2 GT PUSH2 0x1CA JUMPI PUSH2 0x1C63 SWAP1 CALLDATASIZE SWAP1 PUSH1 0x4 ADD PUSH2 0x26C7 JUMP JUMPDEST PUSH2 0x160 MSTORE PUSH1 0xC0 MSTORE PUSH1 0x1 PUSH1 0x1 PUSH1 0x40 SHL SUB PUSH1 0xA4 CALLDATALOAD GT PUSH2 0x1CA JUMPI PUSH2 0x1C89 CALLDATASIZE PUSH1 0xA4 CALLDATALOAD PUSH1 0x4 ADD PUSH2 0x26C7 JUMP JUMPDEST SWAP1 SWAP3 PUSH1 0x1 PUSH1 0x1 PUSH1 0x40 SHL SUB PUSH1 0xC4 CALLDATALOAD GT PUSH2 0x1CA JUMPI PUSH2 0x1CAA CALLDATASIZE PUSH1 0xC4 CALLDATALOAD PUSH1 0x4 ADD PUSH2 0x26C7 JUMP JUMPDEST PUSH2 0x180 MSTORE PUSH2 0x140 MSTORE PUSH1 0x0 PUSH2 0x100 PUSH1 0x40 MLOAD PUSH2 0x1CC3 DUP2 PUSH2 0x277C JUMP JUMPDEST DUP3 DUP2 MSTORE DUP3 PUSH1 0x20 DUP3 ADD MSTORE DUP3 PUSH1 0x40 DUP3 ADD MSTORE DUP3 PUSH1 0x60 DUP3 ADD MSTORE DUP3 PUSH1 0x80 DUP3 ADD MSTORE DUP3 PUSH1 0xA0 DUP3 ADD MSTORE DUP3 PUSH1 0xC0 DUP3 ADD MSTORE DUP3 PUSH1 0xE0 DUP3 ADD MSTORE ADD MSTORE PUSH2 0x200 MLOAD PUSH1 0x80 MLOAD SWAP1 DUP2 EQ SWAP1 DUP2 PUSH2 0x256C JUMPI JUMPDEST DUP2 PUSH2 0x255F JUMPI JUMPDEST DUP2 PUSH2 0x2555 JUMPI JUMPDEST DUP2 PUSH2 0x2548 JUMPI JUMPDEST POP ISZERO PUSH2 0x24F7 JUMPI PUSH1 0x80 MLOAD ISZERO PUSH2 0x24DE JUMPI PUSH1 0x4 CALLDATALOAD PUSH1 0x0 MSTORE PUSH1 0x8 PUSH1 0x20 MSTORE PUSH1 0x40 PUSH1 0x0 KECCAK256 PUSH1 0xFF PUSH1 0x8 DUP3 ADD SLOAD AND PUSH1 0x4 DUP2 LT ISZERO PUSH2 0x693 JUMPI ISZERO PUSH2 0x14B7 JUMPI PUSH1 0x0 PUSH2 0x1A0 MSTORE PUSH1 0x0 PUSH2 0x120 MSTORE PUSH8 0x7FFFFFFFFFFFFFFF PUSH2 0x220 MSTORE PUSH8 0x7FFFFFFFFFFFFFFF NOT PUSH2 0x1C0 MSTORE PUSH1 0x0 PUSH1 0xA0 MSTORE PUSH1 0x0 PUSH2 0x260 MSTORE PUSH1 0x40 MLOAD DUP1 PUSH2 0x100 MSTORE DUP1 PUSH2 0x2000 DUP2 ADD LT PUSH1 0x1 PUSH1 0x1 PUSH1 0x40 SHL SUB PUSH2 0x2000 DUP4 ADD GT OR PUSH2 0x9FE JUMPI DUP1 PUSH2 0x2000 DUP1 SWAP3 SWAP7 SWAP4 SWAP7 ADD PUSH1 0x40 MSTORE CALLDATASIZE SWAP1 CALLDATACOPY PUSH2 0x1DB8 PUSH1 0x80 MLOAD PUSH2 0x290A JUMP JUMPDEST SWAP1 PUSH2 0x1DC6 PUSH1 0x40 MLOAD SWAP3 DUP4 PUSH2 0x27E2 JUMP JUMPDEST PUSH1 0x80 MLOAD DUP3 MSTORE PUSH1 0x1F NOT PUSH2 0x1DD9 PUSH1 0x80 MLOAD PUSH2 0x290A JUMP JUMPDEST ADD CALLDATASIZE PUSH1 0x20 DUP5 ADD CALLDATACOPY PUSH1 0x0 PUSH2 0x1E0 MSTORE JUMPDEST PUSH1 0x80 MLOAD PUSH2 0x1E0 MLOAD SWAP1 DUP2 LT ISZERO PUSH2 0x2296 JUMPI PUSH1 0x20 PUSH2 0x1E11 PUSH1 0x1 DUP1 PUSH1 0xA0 SHL SUB PUSH1 0x4 SLOAD AND SWAP3 PUSH2 0x200 MLOAD DUP6 PUSH2 0x2921 JUMP JUMPDEST CALLDATALOAD PUSH1 0x24 PUSH1 0x40 MLOAD DUP1 SWAP5 DUP2 SWAP4 PUSH4 0x488DBFAD PUSH1 0xE0 SHL DUP4 MSTORE PUSH1 0x4 DUP4 ADD MSTORE GAS STATICCALL SWAP1 DUP2 ISZERO PUSH2 0xA14 JUMPI PUSH1 0x0 SWAP2 PUSH2 0x225C JUMPI JUMPDEST POP ISZERO PUSH2 0x2206 JUMPI PUSH2 0x1E5C PUSH2 0x1E57 PUSH2 0x1E0 MLOAD PUSH1 0xE0 MLOAD PUSH2 0x240 MLOAD PUSH2 0x2921 JUMP JUMPDEST PUSH2 0x2931 JUMP JUMPDEST PUSH1 0x3 DUP7 ADD SLOAD PUSH1 0xA0 SHR PUSH1 0x7 SIGNEXTEND SWAP1 PUSH1 0x7 SIGNEXTEND SLT ISZERO DUP1 PUSH2 0x21DC JUMPI JUMPDEST DUP1 PUSH2 0x21AF JUMPI JUMPDEST DUP1 PUSH2 0x2182 JUMPI JUMPDEST ISZERO PUSH2 0x2133 JUMPI PUSH1 0x1 SWAP5 PUSH1 0x0 JUMPDEST PUSH2 0x120 MLOAD DUP2 LT ISZERO PUSH2 0x212B JUMPI PUSH2 0x1E9F DUP2 DUP6 PUSH2 0x293F JUMP JUMPDEST MLOAD PUSH2 0x1EB0 PUSH2 0x1E0 MLOAD PUSH1 0x80 MLOAD DUP9 PUSH2 0x2921 JUMP JUMPDEST CALLDATALOAD EQ PUSH2 0x1EC4 JUMPI PUSH2 0x1EBF SWAP1 PUSH2 0x2871 JUMP JUMPDEST PUSH2 0x1E8A JUMP JUMPDEST POP SWAP2 SWAP5 POP PUSH1 0x0 JUMPDEST PUSH2 0x1FF2 JUMPI JUMPDEST PUSH2 0x1EE1 PUSH2 0x1E57 PUSH2 0x1E0 MLOAD DUP7 DUP10 PUSH2 0x2921 JUMP JUMPDEST PUSH2 0x220 MLOAD PUSH1 0x7 SIGNEXTEND SWAP1 PUSH1 0x7 SIGNEXTEND SLT PUSH2 0x1FD8 JUMPI JUMPDEST PUSH2 0x1F03 PUSH2 0x1E57 PUSH2 0x1E0 MLOAD DUP7 DUP10 PUSH2 0x2921 JUMP JUMPDEST PUSH2 0x1C0 MLOAD PUSH1 0x7 SIGNEXTEND SWAP1 PUSH1 0x7 SIGNEXTEND SGT PUSH2 0x1FBE JUMPI JUMPDEST PUSH2 0x1F35 PUSH2 0x1F2D PUSH2 0x1E57 PUSH2 0x1E0 MLOAD PUSH1 0xE0 MLOAD PUSH2 0x240 MLOAD PUSH2 0x2921 JUMP JUMPDEST PUSH1 0xA0 MLOAD PUSH2 0x2953 JUMP JUMPDEST PUSH1 0xA0 MSTORE PUSH2 0x1F5A PUSH2 0x1F51 PUSH2 0x1E57 PUSH2 0x1E0 MLOAD PUSH2 0x160 MLOAD PUSH1 0xC0 MLOAD PUSH2 0x2921 JUMP JUMPDEST PUSH2 0x260 MLOAD PUSH2 0x2953 JUMP JUMPDEST PUSH2 0x260 MSTORE PUSH2 0x1F72 PUSH2 0x1E0 MLOAD PUSH2 0x180 MLOAD PUSH2 0x140 MLOAD PUSH2 0x2921 JUMP JUMPDEST CALLDATALOAD PUSH1 0xFF DUP2 AND DUP2 SUB PUSH2 0x1CA JUMPI PUSH2 0x1FA5 PUSH1 0xFF PUSH2 0x1F9A PUSH2 0x1F94 DUP3 DUP6 AND PUSH2 0x100 MLOAD PUSH2 0x297B JUMP JUMPDEST MLOAD PUSH2 0x2871 JUMP JUMPDEST SWAP3 AND PUSH2 0x100 MLOAD PUSH2 0x297B JUMP JUMPDEST MSTORE PUSH2 0x1FB2 PUSH2 0x1E0 MLOAD PUSH2 0x2871 JUMP JUMPDEST PUSH2 0x1E0 MSTORE SWAP4 SWAP1 SWAP4 PUSH2 0x1DE7 JUMP JUMPDEST PUSH2 0x1FCF PUSH2 0x1E57 PUSH2 0x1E0 MLOAD DUP7 DUP10 PUSH2 0x2921 JUMP JUMPDEST PUSH2 0x1C0 MSTORE PUSH2 0x1F14 JUMP JUMPDEST PUSH2 0x1FE9 PUSH2 0x1E57 PUSH2 0x1E0 MLOAD DUP7 DUP10 PUSH2 0x2921 JUMP JUMPDEST PUSH2 0x220 MSTORE PUSH2 0x1EF2 JUMP JUMPDEST PUSH2 0x2002 PUSH2 0x1E0 MLOAD PUSH1 0x80 MLOAD DUP6 PUSH2 0x2921 JUMP JUMPDEST CALLDATALOAD PUSH2 0x2010 PUSH2 0x120 MLOAD DUP8 PUSH2 0x293F JUMP JUMPDEST MSTORE PUSH2 0x201D PUSH2 0x120 MLOAD PUSH2 0x2871 JUMP JUMPDEST PUSH2 0x120 MSTORE PUSH1 0x1 DUP1 PUSH1 0xA0 SHL SUB PUSH1 0x5 SLOAD AND PUSH2 0x203C PUSH2 0x1E0 MLOAD PUSH1 0x80 MLOAD DUP7 PUSH2 0x2921 JUMP JUMPDEST PUSH1 0x40 MLOAD PUSH4 0x1CE6B50F PUSH1 0xE2 SHL DUP2 MSTORE SWAP1 CALLDATALOAD PUSH1 0x4 DUP3 ADD MSTORE PUSH1 0x20 DUP2 PUSH1 0x24 DUP2 DUP6 GAS STATICCALL PUSH1 0x0 SWAP2 DUP2 PUSH2 0x20EF JUMPI JUMPDEST POP PUSH2 0x20D4 JUMPI JUMPDEST POP PUSH2 0x2079 PUSH2 0x1E0 MLOAD PUSH1 0x80 MLOAD DUP7 PUSH2 0x2921 JUMP JUMPDEST CALLDATALOAD SWAP1 DUP1 EXTCODESIZE ISZERO PUSH2 0x1CA JUMPI PUSH1 0x40 MLOAD PUSH4 0x7567C75 PUSH1 0xE0 SHL DUP2 MSTORE PUSH1 0x4 DUP2 ADD SWAP3 SWAP1 SWAP3 MSTORE PUSH1 0x0 PUSH1 0x24 DUP4 ADD DUP2 SWAP1 MSTORE PUSH1 0x1 PUSH1 0x44 DUP5 ADD MSTORE PUSH1 0x64 DUP4 ADD DUP2 SWAP1 MSTORE SWAP1 DUP3 SWAP1 PUSH1 0x84 SWAP1 DUP3 SWAP1 DUP5 SWAP1 GAS CALL PUSH2 0x20C5 JUMPI JUMPDEST POP PUSH2 0x1ED0 JUMP JUMPDEST PUSH2 0x20CE SWAP1 PUSH2 0x2798 JUMP JUMPDEST DUP7 PUSH2 0x20BF JUMP JUMPDEST PUSH2 0xFFFF PUSH2 0x20E5 SWAP2 AND PUSH2 0x1A0 MLOAD PUSH2 0x2880 JUMP JUMPDEST PUSH2 0x1A0 MSTORE DUP8 PUSH2 0x2068 JUMP JUMPDEST SWAP1 SWAP2 POP PUSH1 0x20 DUP2 RETURNDATASIZE PUSH1 0x20 GT PUSH2 0x2123 JUMPI JUMPDEST DUP2 PUSH2 0x210B PUSH1 0x20 SWAP4 DUP4 PUSH2 0x27E2 JUMP JUMPDEST DUP2 ADD SUB SLT PUSH2 0x1CA JUMPI PUSH2 0x211C SWAP1 PUSH2 0x28FB JUMP JUMPDEST SWAP1 DUP10 PUSH2 0x2062 JUMP JUMPDEST RETURNDATASIZE SWAP2 POP PUSH2 0x20FE JUMP JUMPDEST POP SWAP2 SWAP5 PUSH2 0x1ECB JUMP JUMPDEST PUSH1 0x40 MLOAD PUSH3 0x461BCD PUSH1 0xE5 SHL DUP2 MSTORE PUSH1 0x20 PUSH1 0x4 DUP3 ADD MSTORE PUSH1 0x21 PUSH1 0x24 DUP3 ADD MSTORE PUSH32 0x426F756E74794D61726B65743A207265636F7264206F757473696465207A6F6E PUSH1 0x44 DUP3 ADD MSTORE PUSH1 0x65 PUSH1 0xF8 SHL PUSH1 0x64 DUP3 ADD MSTORE PUSH1 0x84 SWAP1 REVERT JUMPDEST POP PUSH2 0x2199 PUSH2 0x1E57 PUSH2 0x1E0 MLOAD PUSH2 0x160 MLOAD PUSH1 0xC0 MLOAD PUSH2 0x2921 JUMP JUMPDEST PUSH1 0x4 DUP7 ADD SLOAD PUSH1 0x80 SHR PUSH1 0x7 SIGNEXTEND SWAP1 PUSH1 0x7 SIGNEXTEND SGT ISZERO PUSH2 0x1E7F JUMP JUMPDEST POP PUSH2 0x21C6 PUSH2 0x1E57 PUSH2 0x1E0 MLOAD PUSH2 0x160 MLOAD PUSH1 0xC0 MLOAD PUSH2 0x2921 JUMP JUMPDEST PUSH1 0x4 DUP7 ADD SLOAD PUSH1 0x40 SHR PUSH1 0x7 SIGNEXTEND SWAP1 PUSH1 0x7 SIGNEXTEND SLT ISZERO PUSH2 0x1E79 JUMP JUMPDEST POP PUSH2 0x21F3 PUSH2 0x1E57 PUSH2 0x1E0 MLOAD PUSH1 0xE0 MLOAD PUSH2 0x240 MLOAD PUSH2 0x2921 JUMP JUMPDEST PUSH1 0x4 DUP7 ADD SLOAD PUSH1 0x7 SIGNEXTEND SWAP1 PUSH1 0x7 SIGNEXTEND SGT ISZERO PUSH2 0x1E73 JUMP JUMPDEST PUSH1 0x40 MLOAD PUSH3 0x461BCD PUSH1 0xE5 SHL DUP2 MSTORE PUSH1 0x20 PUSH1 0x4 DUP3 ADD MSTORE PUSH1 0x28 PUSH1 0x24 DUP3 ADD MSTORE PUSH32 0x426F756E74794D61726B65743A20756E7665726966696564207265636F726420 PUSH1 0x44 DUP3 ADD MSTORE PUSH8 0x696E20737761726D PUSH1 0xC0 SHL PUSH1 0x64 DUP3 ADD MSTORE PUSH1 0x84 SWAP1 REVERT JUMPDEST SWAP1 POP PUSH1 0x20 DUP2 RETURNDATASIZE PUSH1 0x20 GT PUSH2 0x228E JUMPI JUMPDEST DUP2 PUSH2 0x2277 PUSH1 0x20 SWAP4 DUP4 PUSH2 0x27E2 JUMP JUMPDEST DUP2 ADD SUB SLT PUSH2 0x1CA JUMPI PUSH2 0x2288 SWAP1 PUSH2 0x288D JUMP JUMPDEST DUP8 PUSH2 0x1E3B JUMP JUMPDEST RETURNDATASIZE SWAP2 POP PUSH2 0x226A JUMP JUMPDEST PUSH1 0x0 DUP1 PUSH1 0x0 JUMPDEST PUSH2 0x100 DUP2 LT PUSH2 0x249E JUMPI POP PUSH2 0x120 MLOAD PUSH1 0xA DUP2 GT ISZERO PUSH2 0x2498 JUMPI PUSH1 0xA SWAP1 JUMPDEST PUSH2 0x3E8 SWAP1 DUP3 DUP3 DUP2 MUL DIV DUP3 EQ DUP4 ISZERO OR ISZERO PUSH2 0xA20 JUMPI DUP1 ISZERO PUSH2 0x248F JUMPI PUSH2 0x22DD SWAP1 PUSH2 0x1A0 MLOAD PUSH2 0x28B6 JUMP JUMPDEST SWAP2 JUMPDEST DUP5 PUSH2 0x2710 DUP2 MUL DIV PUSH2 0x2710 EQ DUP6 ISZERO OR ISZERO PUSH2 0xA20 JUMPI PUSH2 0x2317 PUSH1 0x3 SWAP4 PUSH2 0x231C SWAP4 PUSH2 0x2310 PUSH2 0x120 SWAP9 PUSH2 0x2710 PUSH1 0x80 MLOAD SWAP2 MUL PUSH2 0x28B6 JUMP JUMPDEST SWAP4 MUL PUSH2 0x2880 JUMP JUMPDEST PUSH2 0x2880 JUMP JUMPDEST DIV PUSH2 0x2710 DUP2 GT ISZERO PUSH2 0x2486 JUMPI POP PUSH2 0x2710 JUMPDEST PUSH1 0x80 MLOAD PUSH1 0x7 SIGNEXTEND SWAP2 PUSH2 0x234C PUSH2 0x2342 DUP5 PUSH1 0xA0 MLOAD PUSH2 0x298D JUMP JUMPDEST SWAP4 PUSH2 0x260 MLOAD PUSH2 0x298D JUMP JUMPDEST PUSH1 0x40 MLOAD SWAP4 PUSH2 0x2359 DUP6 PUSH2 0x277C JUMP JUMPDEST PUSH1 0x4 CALLDATALOAD DUP6 MSTORE DUP6 MLOAD PUSH1 0x20 DUP7 ADD MSTORE PUSH1 0x80 MLOAD PUSH1 0x40 DUP7 ADD MSTORE PUSH2 0xFFFF DUP5 AND PUSH1 0x60 DUP7 ADD MSTORE PUSH1 0xFF DUP4 AND PUSH1 0x80 DUP7 ADD MSTORE DUP1 PUSH1 0x7 SIGNEXTEND PUSH1 0xA0 DUP7 ADD MSTORE DUP2 PUSH1 0x7 SIGNEXTEND PUSH1 0xC0 DUP7 ADD MSTORE PUSH2 0x220 MLOAD PUSH1 0x7 SIGNEXTEND PUSH1 0xE0 DUP7 ADD MSTORE PUSH1 0xFF PUSH2 0x1C0 MLOAD PUSH1 0x7 SIGNEXTEND SWAP4 DUP5 PUSH2 0x100 DUP9 ADD MSTORE PUSH2 0xFFFF PUSH1 0x40 MLOAD SWAP7 DUP10 MLOAD DUP9 MSTORE PUSH1 0x80 MLOAD PUSH1 0x20 DUP10 ADD MSTORE AND PUSH1 0x40 DUP8 ADD MSTORE AND PUSH1 0x60 DUP6 ADD MSTORE PUSH1 0x7 SIGNEXTEND PUSH1 0x80 DUP5 ADD MSTORE PUSH1 0x7 SIGNEXTEND PUSH1 0xA0 DUP4 ADD MSTORE PUSH2 0x220 MLOAD PUSH1 0x7 SIGNEXTEND PUSH1 0xC0 DUP4 ADD MSTORE PUSH1 0xE0 DUP3 ADD MSTORE PUSH32 0x27AC23B194A7076145DC8EAE5267A9483CACCBBDB3F36AEBBB7397EAFD8235D4 PUSH2 0x100 PUSH1 0x4 CALLDATALOAD SWAP3 LOG2 PUSH2 0x100 PUSH1 0x40 MLOAD SWAP2 DUP1 MLOAD DUP4 MSTORE PUSH1 0x20 DUP2 ADD MLOAD PUSH1 0x20 DUP5 ADD MSTORE PUSH1 0x40 DUP2 ADD MLOAD PUSH1 0x40 DUP5 ADD MSTORE PUSH2 0xFFFF PUSH1 0x60 DUP3 ADD MLOAD AND PUSH1 0x60 DUP5 ADD MSTORE PUSH1 0xFF PUSH1 0x80 DUP3 ADD MLOAD AND PUSH1 0x80 DUP5 ADD MSTORE PUSH1 0xA0 DUP2 ADD MLOAD PUSH1 0x7 SIGNEXTEND PUSH1 0xA0 DUP5 ADD MSTORE PUSH1 0xC0 DUP2 ADD MLOAD PUSH1 0x7 SIGNEXTEND PUSH1 0xC0 DUP5 ADD MSTORE PUSH1 0xE0 DUP2 ADD MLOAD PUSH1 0x7 SIGNEXTEND PUSH1 0xE0 DUP5 ADD MSTORE ADD MLOAD PUSH1 0x7 SIGNEXTEND PUSH2 0x100 DUP3 ADD MSTORE RETURN JUMPDEST PUSH2 0xFFFF AND PUSH2 0x232C JUMP JUMPDEST POP PUSH1 0x0 SWAP2 PUSH2 0x22DF JUMP JUMPDEST DUP1 PUSH2 0x22B7 JUMP JUMPDEST DUP3 PUSH2 0x24AC DUP3 PUSH2 0x100 MLOAD PUSH2 0x297B JUMP JUMPDEST MLOAD GT PUSH2 0x24C1 JUMPI JUMPDEST PUSH2 0x24BC SWAP1 PUSH2 0x2871 JUMP JUMPDEST PUSH2 0x229C JUMP JUMPDEST DUP1 SWAP3 POP PUSH2 0x24D2 SWAP2 POP PUSH2 0x100 MLOAD PUSH2 0x297B JUMP JUMPDEST MLOAD SWAP1 PUSH1 0xFF DUP2 AND SWAP1 PUSH2 0x24B3 JUMP JUMPDEST PUSH1 0x24 PUSH1 0x40 MLOAD PUSH4 0x287AE579 PUSH1 0xE0 SHL DUP2 MSTORE PUSH1 0x4 CALLDATALOAD PUSH1 0x4 DUP3 ADD MSTORE REVERT JUMPDEST PUSH1 0x40 MLOAD PUSH3 0x461BCD PUSH1 0xE5 SHL DUP2 MSTORE PUSH1 0x20 PUSH1 0x4 DUP3 ADD MSTORE PUSH1 0x23 PUSH1 0x24 DUP3 ADD MSTORE PUSH32 0x426F756E74794D61726B65743A206172726179206C656E677468206D69736D61 PUSH1 0x44 DUP3 ADD MSTORE PUSH3 0xE8C6D PUSH1 0xEB SHL PUSH1 0x64 DUP3 ADD MSTORE PUSH1 0x84 SWAP1 REVERT JUMPDEST SWAP1 POP PUSH2 0x180 MLOAD EQ DUP6 PUSH2 0x1D15 JUMP JUMPDEST DUP4 DUP2 EQ SWAP2 POP PUSH2 0x1D0F JUMP JUMPDEST PUSH2 0x160 MLOAD DUP2 EQ SWAP2 POP PUSH2 0x1D09 JUMP JUMPDEST PUSH1 0xE0 MLOAD DUP2 EQ SWAP2 POP PUSH2 0x1D03 JUMP JUMPDEST CALLVALUE PUSH2 0x1CA JUMPI PUSH1 0x20 CALLDATASIZE PUSH1 0x3 NOT ADD SLT PUSH2 0x1CA JUMPI PUSH1 0x4 CALLDATALOAD PUSH1 0x0 MSTORE PUSH1 0xA PUSH1 0x20 MSTORE PUSH1 0x20 PUSH1 0x40 PUSH1 0x0 KECCAK256 SLOAD PUSH1 0x40 MLOAD SWAP1 DUP2 MSTORE RETURN JUMPDEST CALLVALUE PUSH2 0x1CA JUMPI PUSH1 0x0 CALLDATASIZE PUSH1 0x3 NOT ADD SLT PUSH2 0x1CA JUMPI PUSH1 0x20 PUSH1 0x40 MLOAD PUSH1 0x4 DUP2 MSTORE RETURN JUMPDEST CALLVALUE PUSH2 0x1CA JUMPI PUSH2 0x25CE CALLDATASIZE PUSH2 0x26B1 JUMP JUMPDEST SWAP1 PUSH1 0x0 PUSH1 0x60 PUSH1 0x40 MLOAD PUSH2 0x25DF DUP2 PUSH2 0x2761 JUMP JUMPDEST DUP3 DUP2 MSTORE DUP3 PUSH1 0x20 DUP3 ADD MSTORE DUP3 PUSH1 0x40 DUP3 ADD MSTORE ADD MSTORE PUSH1 0x0 MSTORE PUSH1 0x9 PUSH1 0x20 MSTORE PUSH1 0x40 PUSH1 0x0 KECCAK256 SWAP1 PUSH1 0x0 MSTORE PUSH1 0x20 MSTORE PUSH1 0x80 PUSH1 0x40 PUSH1 0x0 KECCAK256 PUSH1 0x40 MLOAD SWAP1 PUSH2 0x2618 DUP3 PUSH2 0x2761 JUMP JUMPDEST SLOAD PUSH1 0xFF DUP2 AND ISZERO ISZERO SWAP2 DUP3 DUP2 MSTORE PUSH1 0x20 DUP2 ADD PUSH1 0x1 PUSH1 0x1 PUSH1 0x40 SHL SUB DUP1 DUP5 PUSH1 0x8 SHR AND DUP3 MSTORE PUSH1 0x40 DUP4 ADD SWAP2 PUSH1 0x60 PUSH2 0xFFFF SWAP5 DUP6 DUP8 PUSH1 0x48 SHR AND DUP6 MSTORE ADD SWAP5 PUSH1 0x58 SHR PUSH1 0x7 SIGNEXTEND DUP6 MSTORE PUSH1 0x40 MLOAD SWAP6 DUP7 MSTORE MLOAD AND PUSH1 0x20 DUP6 ADD MSTORE MLOAD AND PUSH1 0x40 DUP4 ADD MSTORE MLOAD PUSH1 0x7 SIGNEXTEND PUSH1 0x60 DUP3 ADD MSTORE RETURN JUMPDEST CALLVALUE PUSH2 0x1CA JUMPI PUSH1 0x0 CALLDATASIZE PUSH1 0x3 NOT ADD SLT PUSH2 0x1CA JUMPI PUSH1 0x20 PUSH2 0xFFFF PUSH1 0x2 SLOAD AND PUSH1 0x40 MLOAD SWAP1 DUP2 MSTORE RETURN JUMPDEST CALLVALUE PUSH2 0x1CA JUMPI PUSH1 0x0 CALLDATASIZE PUSH1 0x3 NOT ADD SLT PUSH2 0x1CA JUMPI DUP1 PUSH3 0x989680 PUSH1 0x20 SWAP3 MSTORE RETURN JUMPDEST PUSH1 0x40 SWAP1 PUSH1 0x3 NOT ADD SLT PUSH2 0x1CA JUMPI PUSH1 0x4 CALLDATALOAD SWAP1 PUSH1 0x24 CALLDATALOAD SWAP1 JUMP JUMPDEST SWAP2 DUP2 PUSH1 0x1F DUP5 ADD SLT ISZERO PUSH2 0x1CA JUMPI DUP3 CALLDATALOAD SWAP2 PUSH1 0x1 PUSH1 0x1 PUSH1 0x40 SHL SUB DUP4 GT PUSH2 0x1CA JUMPI PUSH1 0x20 DUP1 DUP6 ADD SWAP5 DUP5 PUSH1 0x5 SHL ADD ADD GT PUSH2 0x1CA JUMPI JUMP JUMPDEST PUSH1 0x4 CALLDATALOAD SWAP1 PUSH2 0xFFFF DUP3 AND DUP3 SUB PUSH2 0x1CA JUMPI JUMP JUMPDEST PUSH1 0x84 CALLDATALOAD SWAP1 DUP2 PUSH1 0x7 SIGNEXTEND DUP3 SUB PUSH2 0x1CA JUMPI JUMP JUMPDEST PUSH1 0xA4 CALLDATALOAD SWAP1 DUP2 PUSH1 0x7 SIGNEXTEND DUP3 SUB PUSH2 0x1CA JUMPI JUMP JUMPDEST SWAP1 PUSH1 0x4 DUP3 LT ISZERO PUSH2 0x693 JUMPI MSTORE JUMP JUMPDEST PUSH1 0x0 SLOAD PUSH1 0x1 PUSH1 0x1 PUSH1 0xA0 SHL SUB AND CALLER SUB PUSH2 0x2749 JUMPI JUMP JUMPDEST PUSH1 0x40 MLOAD PUSH4 0x118CDAA7 PUSH1 0xE0 SHL DUP2 MSTORE CALLER PUSH1 0x4 DUP3 ADD MSTORE PUSH1 0x24 SWAP1 REVERT JUMPDEST PUSH1 0x80 DUP2 ADD SWAP1 DUP2 LT PUSH1 0x1 PUSH1 0x1 PUSH1 0x40 SHL SUB DUP3 GT OR PUSH2 0x9FE JUMPI PUSH1 0x40 MSTORE JUMP JUMPDEST PUSH2 0x120 DUP2 ADD SWAP1 DUP2 LT PUSH1 0x1 PUSH1 0x1 PUSH1 0x40 SHL SUB DUP3 GT OR PUSH2 0x9FE JUMPI PUSH1 0x40 MSTORE JUMP JUMPDEST PUSH1 0x1 PUSH1 0x1 PUSH1 0x40 SHL SUB DUP2 GT PUSH2 0x9FE JUMPI PUSH1 0x40 MSTORE JUMP JUMPDEST PUSH1 0xA0 DUP2 ADD SWAP1 DUP2 LT PUSH1 0x1 PUSH1 0x1 PUSH1 0x40 SHL SUB DUP3 GT OR PUSH2 0x9FE JUMPI PUSH1 0x40 MSTORE JUMP JUMPDEST PUSH2 0x220 DUP2 ADD SWAP1 DUP2 LT PUSH1 0x1 PUSH1 0x1 PUSH1 0x40 SHL SUB DUP3 GT OR PUSH2 0x9FE JUMPI PUSH1 0x40 MSTORE JUMP JUMPDEST SWAP1 PUSH1 0x1F DUP1 NOT SWAP2 ADD AND DUP2 ADD SWAP1 DUP2 LT PUSH1 0x1 PUSH1 0x1 PUSH1 0x40 SHL SUB DUP3 GT OR PUSH2 0x9FE JUMPI PUSH1 0x40 MSTORE JUMP JUMPDEST PUSH1 0x1 PUSH1 0x1 PUSH1 0x40 SHL SUB DUP2 GT PUSH2 0x9FE JUMPI PUSH1 0x1F ADD PUSH1 0x1F NOT AND PUSH1 0x20 ADD SWAP1 JUMP JUMPDEST RETURNDATASIZE ISZERO PUSH2 0x2849 JUMPI RETURNDATASIZE SWAP1 PUSH2 0x282F DUP3 PUSH2 0x2803 JUMP JUMPDEST SWAP2 PUSH2 0x283D PUSH1 0x40 MLOAD SWAP4 DUP5 PUSH2 0x27E2 JUMP JUMPDEST DUP3 MSTORE RETURNDATASIZE PUSH1 0x0 PUSH1 0x20 DUP5 ADD RETURNDATACOPY JUMP JUMPDEST PUSH1 0x60 SWAP1 JUMP JUMPDEST PUSH1 0x2 PUSH1 0x1 SLOAD EQ PUSH2 0x285F JUMPI PUSH1 0x2 PUSH1 0x1 SSTORE JUMP JUMPDEST PUSH1 0x40 MLOAD PUSH4 0x3EE5AEB5 PUSH1 0xE0 SHL DUP2 MSTORE PUSH1 0x4 SWAP1 REVERT JUMPDEST PUSH1 0x0 NOT DUP2 EQ PUSH2 0xA20 JUMPI PUSH1 0x1 ADD SWAP1 JUMP JUMPDEST SWAP2 SWAP1 DUP3 ADD DUP1 SWAP3 GT PUSH2 0xA20 JUMPI JUMP JUMPDEST MLOAD SWAP1 DUP2 ISZERO ISZERO DUP3 SUB PUSH2 0x1CA JUMPI JUMP JUMPDEST DUP1 SLOAD DUP3 LT ISZERO PUSH2 0xD0E JUMPI PUSH1 0x0 MSTORE PUSH1 0x3 PUSH1 0x20 PUSH1 0x0 KECCAK256 SWAP2 MUL ADD SWAP1 PUSH1 0x0 SWAP1 JUMP JUMPDEST DUP2 ISZERO PUSH2 0x28C0 JUMPI DIV SWAP1 JUMP JUMPDEST PUSH4 0x4E487B71 PUSH1 0xE0 SHL PUSH1 0x0 MSTORE PUSH1 0x12 PUSH1 0x4 MSTORE PUSH1 0x24 PUSH1 0x0 REVERT JUMPDEST MLOAD SWAP1 PUSH1 0x1 PUSH1 0x1 PUSH1 0x40 SHL SUB DUP3 AND DUP3 SUB PUSH2 0x1CA JUMPI JUMP JUMPDEST MLOAD SWAP1 PUSH4 0xFFFFFFFF DUP3 AND DUP3 SUB PUSH2 0x1CA JUMPI JUMP JUMPDEST MLOAD SWAP1 PUSH2 0xFFFF DUP3 AND DUP3 SUB PUSH2 0x1CA JUMPI JUMP JUMPDEST PUSH1 0x1 PUSH1 0x1 PUSH1 0x40 SHL SUB DUP2 GT PUSH2 0x9FE JUMPI PUSH1 0x5 SHL PUSH1 0x20 ADD SWAP1 JUMP JUMPDEST SWAP2 SWAP1 DUP2 LT ISZERO PUSH2 0xD0E JUMPI PUSH1 0x5 SHL ADD SWAP1 JUMP JUMPDEST CALLDATALOAD DUP1 PUSH1 0x7 SIGNEXTEND DUP2 SUB PUSH2 0x1CA JUMPI SWAP1 JUMP JUMPDEST DUP1 MLOAD DUP3 LT ISZERO PUSH2 0xD0E JUMPI PUSH1 0x20 SWAP2 PUSH1 0x5 SHL ADD ADD SWAP1 JUMP JUMPDEST SWAP1 PUSH1 0x7 SIGNEXTEND SWAP1 PUSH1 0x7 SIGNEXTEND ADD SWAP1 PUSH8 0x7FFFFFFFFFFFFFFF NOT DUP3 SLT PUSH8 0x7FFFFFFFFFFFFFFF DUP4 SGT OR PUSH2 0xA20 JUMPI JUMP JUMPDEST SWAP1 PUSH2 0x100 DUP2 LT ISZERO PUSH2 0xD0E JUMPI PUSH1 0x5 SHL ADD SWAP1 JUMP JUMPDEST PUSH1 0x7 SIGNEXTEND SWAP1 PUSH1 0x7 SIGNEXTEND SWAP1 DUP2 ISZERO PUSH2 0x28C0 JUMPI PUSH8 0x7FFFFFFFFFFFFFFF NOT DUP2 EQ PUSH1 0x0 NOT DUP4 EQ AND PUSH2 0xA20 JUMPI SDIV SWAP1 JUMP INVALID LOG2 PUSH5 0x6970667358 0x22 SLT KECCAK256 0xFC 0xED GASPRICE PUSH10 0x5214970080ADAD5A53D1 CHAINID 0xA5 DUP2 0x4B SGT 0x24 DUP3 BYTE SLT 0xC6 0xDC 0xEA DUP8 0x27 0xF8 0xE3 0x21 0xF6 PUSH5 0x736F6C6343 STOP ADDMOD EQ STOP CALLER "},"methodIdentifiers":{"COORD_SCALE()":"11955a8d","MAX_BOUNTY_DURATION()":"496e62f7","MIN_BOUNTY_DURATION()":"bd62ad22","REQUIRES_GPS()":"e144064a","REQUIRES_HUMIDITY()":"327cea62","REQUIRES_LIGHT()":"b52947e4","REQUIRES_MOTION()":"48591e55","REQUIRES_PRESSURE()":"4636f70a","REQUIRES_TEMP()":"d7b5a84a","REQUIRES_VOC()":"925ac9b1","acceptBounty(uint256,bytes32)":"e489232d","acceptances(uint256,bytes32)":"d5f9897f","accumulatedFees()":"587f5ed7","aggregateSwarmReport(uint256,bytes32[],bytes32[],int64[],int64[],int64[],uint8[])":"44c5e39b","bounties(uint256)":"dc2f8744","claimReward(uint256,bytes32)":"eacd3ab3","deviceRegistry()":"5efb870a","evidenceRecordToBounty(bytes32)":"85c3dd80","expireBounty(uint256)":"5faedcef","getAcceptance(uint256,bytes32)":"2cd5a77a","getAcceptedDevices(uint256)":"f4f47683","getBounty(uint256)":"ee8c4bbf","getEvidence(uint256,uint256)":"f1b8a98c","getEvidenceCount(uint256)":"423aee31","nextBountyId()":"fd14fad4","owner()":"8da5cb5b","platformFeeBps()":"22dcd13e","poACVerifier()":"f1cf7905","postBounty(uint16,uint16,uint32,uint32,int64,int64,int64,int64,int256,int256,int256)":"6569dac4","renounceOwnership()":"715018a6","setPlatformFee(uint16)":"5cbc742c","setTournamentGate(address)":"9d2fd78b","submitEvidence(uint256,bytes32,bytes32,int64,int64,int64)":"c9ae98bd","tournamentGate()":"eb768843","transferOwnership(address)":"f2fde38b","withdrawFees()":"476343ee"}}}}}