{"contracts/FederatedThreatRegistry.sol":{"FederatedThreatRegistry":{"abi":[{"inputs":[{"internalType":"address","name":"bridge_","type":"address"}],"stateMutability":"nonpayable","type":"constructor"},{"inputs":[{"internalType":"bytes32","name":"clusterHash","type":"bytes32"},{"internalType":"address","name":"reporter","type":"address"}],"name":"AlreadyReported","type":"error"},{"inputs":[],"name":"OnlyBridge","type":"error"},{"anonymous":false,"inputs":[{"indexed":true,"internalType":"bytes32","name":"clusterHash","type":"bytes32"},{"indexed":true,"internalType":"address","name":"reporter","type":"address"},{"indexed":false,"internalType":"uint256","name":"reportCount","type":"uint256"}],"name":"ClusterReported","type":"event"},{"anonymous":false,"inputs":[{"indexed":true,"internalType":"bytes32","name":"clusterHash","type":"bytes32"},{"indexed":false,"internalType":"uint256","name":"confirmedBy","type":"uint256"}],"name":"MultiVenueConfirmed","type":"event"},{"inputs":[],"name":"bridge","outputs":[{"internalType":"address","name":"","type":"address"}],"stateMutability":"view","type":"function"},{"inputs":[{"internalType":"bytes32","name":"clusterHash","type":"bytes32"}],"name":"getReportCount","outputs":[{"internalType":"uint256","name":"","type":"uint256"}],"stateMutability":"view","type":"function"},{"inputs":[{"internalType":"bytes32","name":"clusterHash","type":"bytes32"},{"internalType":"address","name":"reporter","type":"address"}],"name":"hasReported","outputs":[{"internalType":"bool","name":"","type":"bool"}],"stateMutability":"view","type":"function"},{"inputs":[{"internalType":"bytes32","name":"clusterHash","type":"bytes32"},{"internalType":"uint256","name":"minBridges","type":"uint256"}],"name":"isMultiVenueConfirmed","outputs":[{"internalType":"bool","name":"","type":"bool"}],"stateMutability":"view","type":"function"},{"inputs":[{"internalType":"bytes32","name":"clusterHash","type":"bytes32"}],"name":"reportCluster","outputs":[],"stateMutability":"nonpayable","type":"function"}],"evm":{"bytecode":{"linkReferences":{},"object":"60a03461006f57601f61034a38819003918201601f19168301916001600160401b038311848410176100745780849260209460405283398101031261006f57516001600160a01b038116810361006f576080526040516102bf908161008b8239608051818181606f015260bc0152f35b600080fd5b634e487b7160e01b600052604160045260246000fdfe608060408181526004918236101561001657600080fd5b600092833560e01c9182631394e4471461023f57508163580317eb146102175781637272bedb146101ea578163c156a94a146100a2575063e78cea921461005c57600080fd5b3461009e578160031936011261009e57517f00000000000000000000000000000000000000000000000000000000000000006001600160a01b03168152602090f35b5080fd5b919050346101e6576020806003193601126101e2578235927f00000000000000000000000000000000000000000000000000000000000000006001600160a01b031633036101d457838552848252828520338652825260ff83862054166101b7578385528482528285203386528252828520600160ff19825416179055838552600182528285209081549060001982146101a457506001018091558251818152847f572bb6fdcced369654885f9e0724b1803e8d64bf42532e0a2612c54b350619b1843393a36002811015610175578480f35b7fc672fcf68dbb8f1d16d72242a1df3b87bff1be1d46d5e71e1bce88db5fda26c69251908152a2388080808480f35b634e487b7160e01b875260119052602486fd5b8251631399fa2f60e21b8152908101849052336024820152604490fd5b82516338da3b1560e01b8152fd5b8380fd5b8280fd5b9050346101e657816003193601126101e65791602092358152600183528160243591205410159051908152f35b9050346101e65760203660031901126101e65760209282913581526001845220549051908152f35b929150346101e257816003193601126101e2576024356001600160a01b038116919082900361028557358452602084815282852091855290815292205460ff1615158152f35b8480fdfea2646970667358221220155046569548cd8c27a1ad01cd480d1ef083da915ec25ce5af9d42b676e8266e64736f6c63430008140033","opcodes":"PUSH1 0xA0 CALLVALUE PUSH2 0x6F JUMPI PUSH1 0x1F PUSH2 0x34A CODESIZE DUP2 SWAP1 SUB SWAP2 DUP3 ADD PUSH1 0x1F NOT AND DUP4 ADD SWAP2 PUSH1 0x1 PUSH1 0x1 PUSH1 0x40 SHL SUB DUP4 GT DUP5 DUP5 LT OR PUSH2 0x74 JUMPI DUP1 DUP5 SWAP3 PUSH1 0x20 SWAP5 PUSH1 0x40 MSTORE DUP4 CODECOPY DUP2 ADD SUB SLT PUSH2 0x6F JUMPI MLOAD PUSH1 0x1 PUSH1 0x1 PUSH1 0xA0 SHL SUB DUP2 AND DUP2 SUB PUSH2 0x6F JUMPI PUSH1 0x80 MSTORE PUSH1 0x40 MLOAD PUSH2 0x2BF SWAP1 DUP2 PUSH2 0x8B DUP3 CODECOPY PUSH1 0x80 MLOAD DUP2 DUP2 DUP2 PUSH1 0x6F ADD MSTORE PUSH1 0xBC ADD MSTORE RETURN JUMPDEST PUSH1 0x0 DUP1 REVERT JUMPDEST PUSH4 0x4E487B71 PUSH1 0xE0 SHL PUSH1 0x0 MSTORE PUSH1 0x41 PUSH1 0x4 MSTORE PUSH1 0x24 PUSH1 0x0 REVERT INVALID PUSH1 0x80 PUSH1 0x40 DUP2 DUP2 MSTORE PUSH1 0x4 SWAP2 DUP3 CALLDATASIZE LT ISZERO PUSH2 0x16 JUMPI PUSH1 0x0 DUP1 REVERT JUMPDEST PUSH1 0x0 SWAP3 DUP4 CALLDATALOAD PUSH1 0xE0 SHR SWAP2 DUP3 PUSH4 0x1394E447 EQ PUSH2 0x23F JUMPI POP DUP2 PUSH4 0x580317EB EQ PUSH2 0x217 JUMPI DUP2 PUSH4 0x7272BEDB EQ PUSH2 0x1EA JUMPI DUP2 PUSH4 0xC156A94A EQ PUSH2 0xA2 JUMPI POP PUSH4 0xE78CEA92 EQ PUSH2 0x5C JUMPI PUSH1 0x0 DUP1 REVERT JUMPDEST CALLVALUE PUSH2 0x9E JUMPI DUP2 PUSH1 0x3 NOT CALLDATASIZE ADD SLT PUSH2 0x9E JUMPI MLOAD PUSH32 0x0 PUSH1 0x1 PUSH1 0x1 PUSH1 0xA0 SHL SUB AND DUP2 MSTORE PUSH1 0x20 SWAP1 RETURN JUMPDEST POP DUP1 REVERT JUMPDEST SWAP2 SWAP1 POP CALLVALUE PUSH2 0x1E6 JUMPI PUSH1 0x20 DUP1 PUSH1 0x3 NOT CALLDATASIZE ADD SLT PUSH2 0x1E2 JUMPI DUP3 CALLDATALOAD SWAP3 PUSH32 0x0 PUSH1 0x1 PUSH1 0x1 PUSH1 0xA0 SHL SUB AND CALLER SUB PUSH2 0x1D4 JUMPI DUP4 DUP6 MSTORE DUP5 DUP3 MSTORE DUP3 DUP6 KECCAK256 CALLER DUP7 MSTORE DUP3 MSTORE PUSH1 0xFF DUP4 DUP7 KECCAK256 SLOAD AND PUSH2 0x1B7 JUMPI DUP4 DUP6 MSTORE DUP5 DUP3 MSTORE DUP3 DUP6 KECCAK256 CALLER DUP7 MSTORE DUP3 MSTORE DUP3 DUP6 KECCAK256 PUSH1 0x1 PUSH1 0xFF NOT DUP3 SLOAD AND OR SWAP1 SSTORE DUP4 DUP6 MSTORE PUSH1 0x1 DUP3 MSTORE DUP3 DUP6 KECCAK256 SWAP1 DUP2 SLOAD SWAP1 PUSH1 0x0 NOT DUP3 EQ PUSH2 0x1A4 JUMPI POP PUSH1 0x1 ADD DUP1 SWAP2 SSTORE DUP3 MLOAD DUP2 DUP2 MSTORE DUP5 PUSH32 0x572BB6FDCCED369654885F9E0724B1803E8D64BF42532E0A2612C54B350619B1 DUP5 CALLER SWAP4 LOG3 PUSH1 0x2 DUP2 LT ISZERO PUSH2 0x175 JUMPI DUP5 DUP1 RETURN JUMPDEST PUSH32 0xC672FCF68DBB8F1D16D72242A1DF3B87BFF1BE1D46D5E71E1BCE88DB5FDA26C6 SWAP3 MLOAD SWAP1 DUP2 MSTORE LOG2 CODESIZE DUP1 DUP1 DUP1 DUP5 DUP1 RETURN JUMPDEST PUSH4 0x4E487B71 PUSH1 0xE0 SHL DUP8 MSTORE PUSH1 0x11 SWAP1 MSTORE PUSH1 0x24 DUP7 REVERT JUMPDEST DUP3 MLOAD PUSH4 0x1399FA2F PUSH1 0xE2 SHL DUP2 MSTORE SWAP1 DUP2 ADD DUP5 SWAP1 MSTORE CALLER PUSH1 0x24 DUP3 ADD MSTORE PUSH1 0x44 SWAP1 REVERT JUMPDEST DUP3 MLOAD PUSH4 0x38DA3B15 PUSH1 0xE0 SHL DUP2 MSTORE REVERT JUMPDEST DUP4 DUP1 REVERT JUMPDEST DUP3 DUP1 REVERT JUMPDEST SWAP1 POP CALLVALUE PUSH2 0x1E6 JUMPI DUP2 PUSH1 0x3 NOT CALLDATASIZE ADD SLT PUSH2 0x1E6 JUMPI SWAP2 PUSH1 0x20 SWAP3 CALLDATALOAD DUP2 MSTORE PUSH1 0x1 DUP4 MSTORE DUP2 PUSH1 0x24 CALLDATALOAD SWAP2 KECCAK256 SLOAD LT ISZERO SWAP1 MLOAD SWAP1 DUP2 MSTORE RETURN JUMPDEST SWAP1 POP CALLVALUE PUSH2 0x1E6 JUMPI PUSH1 0x20 CALLDATASIZE PUSH1 0x3 NOT ADD SLT PUSH2 0x1E6 JUMPI PUSH1 0x20 SWAP3 DUP3 SWAP2 CALLDATALOAD DUP2 MSTORE PUSH1 0x1 DUP5 MSTORE KECCAK256 SLOAD SWAP1 MLOAD SWAP1 DUP2 MSTORE RETURN JUMPDEST SWAP3 SWAP2 POP CALLVALUE PUSH2 0x1E2 JUMPI DUP2 PUSH1 0x3 NOT CALLDATASIZE ADD SLT PUSH2 0x1E2 JUMPI PUSH1 0x24 CALLDATALOAD PUSH1 0x1 PUSH1 0x1 PUSH1 0xA0 SHL SUB DUP2 AND SWAP2 SWAP1 DUP3 SWAP1 SUB PUSH2 0x285 JUMPI CALLDATALOAD DUP5 MSTORE PUSH1 0x20 DUP5 DUP2 MSTORE DUP3 DUP6 KECCAK256 SWAP2 DUP6 MSTORE SWAP1 DUP2 MSTORE SWAP3 KECCAK256 SLOAD PUSH1 0xFF AND ISZERO ISZERO DUP2 MSTORE RETURN JUMPDEST DUP5 DUP1 REVERT INVALID LOG2 PUSH5 0x6970667358 0x22 SLT KECCAK256 ISZERO POP CHAINID JUMP SWAP6 BASEFEE 0xCD DUP13 0x27 LOG1 0xAD ADD 0xCD BASEFEE 0xD 0x1E CREATE DUP4 0xDA SWAP2 0x5E 0xC2 0x5C 0xE5 0xAF SWAP14 TIMESTAMP 0xB6 PUSH23 0xE8266E64736F6C63430008140033000000000000000000 "},"methodIdentifiers":{"bridge()":"e78cea92","getReportCount(bytes32)":"580317eb","hasReported(bytes32,address)":"1394e447","isMultiVenueConfirmed(bytes32,uint256)":"7272bedb","reportCluster(bytes32)":"c156a94a"}}}}}