{"contracts/PHGCredential.sol":{"PHGCredential":{"abi":[{"inputs":[{"internalType":"address","name":"_bridge","type":"address"}],"stateMutability":"nonpayable","type":"constructor"},{"inputs":[{"internalType":"bytes32","name":"deviceId","type":"bytes32"}],"name":"AlreadyMinted","type":"error"},{"inputs":[{"internalType":"uint256","name":"value","type":"uint256"}],"name":"InvalidScore","type":"error"},{"inputs":[{"internalType":"bytes32","name":"nullifierHash","type":"bytes32"}],"name":"NullifierUsed","type":"error"},{"inputs":[],"name":"OnlyBridge","type":"error"},{"anonymous":false,"inputs":[{"indexed":true,"internalType":"bytes32","name":"deviceId","type":"bytes32"},{"indexed":true,"internalType":"uint256","name":"credentialId","type":"uint256"},{"indexed":false,"internalType":"uint256","name":"humanityProbInt","type":"uint256"},{"indexed":false,"internalType":"uint256","name":"blockNumber","type":"uint256"}],"name":"CredentialMinted","type":"event"},{"inputs":[],"name":"bridge","outputs":[{"internalType":"address","name":"","type":"address"}],"stateMutability":"view","type":"function"},{"inputs":[{"internalType":"bytes32","name":"","type":"bytes32"}],"name":"credentialOf","outputs":[{"internalType":"uint256","name":"","type":"uint256"}],"stateMutability":"view","type":"function"},{"inputs":[{"internalType":"uint256","name":"","type":"uint256"}],"name":"credentials","outputs":[{"internalType":"bytes32","name":"nullifierHash","type":"bytes32"},{"internalType":"bytes32","name":"featureCommitment","type":"bytes32"},{"internalType":"uint256","name":"humanityProbInt","type":"uint256"},{"internalType":"uint256","name":"mintedAt","type":"uint256"}],"stateMutability":"view","type":"function"},{"inputs":[{"internalType":"uint256","name":"","type":"uint256"}],"name":"deviceOfId","outputs":[{"internalType":"bytes32","name":"","type":"bytes32"}],"stateMutability":"view","type":"function"},{"inputs":[{"internalType":"bytes32","name":"deviceId","type":"bytes32"}],"name":"getCredential","outputs":[{"components":[{"internalType":"bytes32","name":"nullifierHash","type":"bytes32"},{"internalType":"bytes32","name":"featureCommitment","type":"bytes32"},{"internalType":"uint256","name":"humanityProbInt","type":"uint256"},{"internalType":"uint256","name":"mintedAt","type":"uint256"}],"internalType":"struct PHGCredential.Credential","name":"","type":"tuple"}],"stateMutability":"view","type":"function"},{"inputs":[{"internalType":"bytes32","name":"deviceId","type":"bytes32"}],"name":"hasCredential","outputs":[{"internalType":"bool","name":"","type":"bool"}],"stateMutability":"view","type":"function"},{"inputs":[{"internalType":"uint256","name":"","type":"uint256"}],"name":"locked","outputs":[{"internalType":"bool","name":"","type":"bool"}],"stateMutability":"pure","type":"function"},{"inputs":[{"internalType":"bytes32","name":"deviceId","type":"bytes32"},{"internalType":"bytes32","name":"nullifierHash","type":"bytes32"},{"internalType":"bytes32","name":"featureCommitment","type":"bytes32"},{"internalType":"uint256","name":"humanityProbInt","type":"uint256"}],"name":"mintCredential","outputs":[{"internalType":"uint256","name":"id","type":"uint256"}],"stateMutability":"nonpayable","type":"function"},{"inputs":[{"internalType":"bytes32","name":"","type":"bytes32"}],"name":"usedNullifiers","outputs":[{"internalType":"bool","name":"","type":"bool"}],"stateMutability":"view","type":"function"}],"evm":{"bytecode":{"linkReferences":{},"object":"60a03461007557601f61050238819003918201601f19168301916001600160401b0383118484101761007a5780849260209460405283398101031261007557516001600160a01b038116810361007557608052600160005560405161047190816100918239608051818181609b015261023d0152f35b600080fd5b634e487b7160e01b600052604160045260246000fdfe608060408181526004918236101561001657600080fd5b600092833560e01c918263206137aa146103dc575081632354415d146103b4578163435eeac51461021f57816389f75a90146101f7578163b45a3c0e146101da578163c3732901146101b0578163d1be48831461011c578163e0574e3f146100ce575063e78cea921461008857600080fd5b346100ca57816003193601126100ca57517f00000000000000000000000000000000000000000000000000000000000000006001600160a01b03168152602090f35b5080fd5b905034610118576020366003190112610118576080928291358152600360205220908154916001810154916003600283015492015492815194855260208501528301526060820152f35b8280fd5b9190503461011857602091826003193601126101ac578382916080956060610142610405565b8281528288820152828682015201523581526001845281812054815260038452209061016c610405565b9180549384845260018201548185019081526060600360028501549486880195865201549501948552835195865251908501525190830152516060820152f35b8380fd5b90503461011857602036600319011261011857602092829135815260018452205415159051908152f35b5050346100ca5760203660031901126100ca576020905160018152f35b9050346101185760203660031901126101185760209282913581526002845220549051908152f35b919050346101185760803660031901126101185781356064356024357f00000000000000000000000000000000000000000000000000000000000000006001600160a01b031633036103a457828652602095600187528481205461038e5781815285875260ff8582205416610377576103e8831161036057805495600019871461034d57927fee227cb452cac5bc3a83e8c2192bbae594a8e14dda45141f8950ae5e32ef04529260038988948a989760018a0182558482528252858120600160ff19825416179055878152600182528886822055888152600282528786822055610307610405565b938452818401604435815286808601928784528560608801954287528d83525220945185555160018501555160028401555191015581519081524388820152a351908152f35b634e487b7160e01b825260119052602490fd5b8451632c870e6b60e11b8152808701849052602490fd5b84516312ab05ef60e21b8152808701839052602490fd5b84516226521360e81b8152808701859052602490fd5b505050516338da3b1560e01b8152fd5b9050346101185760203660031901126101185760209282913581526001845220549051908152f35b929150346101ac5760203660031901126101ac5780358452602090815292205460ff1615158152f35b604051906080820182811067ffffffffffffffff82111761042557604052565b634e487b7160e01b600052604160045260246000fdfea2646970667358221220cc17eda81b4f530e2998cf818792a18d0791b4bede78c1122b17c542d8dcf94064736f6c63430008140033","opcodes":"PUSH1 0xA0 CALLVALUE PUSH2 0x75 JUMPI PUSH1 0x1F PUSH2 0x502 CODESIZE DUP2 SWAP1 SUB SWAP2 DUP3 ADD PUSH1 0x1F NOT AND DUP4 ADD SWAP2 PUSH1 0x1 PUSH1 0x1 PUSH1 0x40 SHL SUB DUP4 GT DUP5 DUP5 LT OR PUSH2 0x7A JUMPI DUP1 DUP5 SWAP3 PUSH1 0x20 SWAP5 PUSH1 0x40 MSTORE DUP4 CODECOPY DUP2 ADD SUB SLT PUSH2 0x75 JUMPI MLOAD PUSH1 0x1 PUSH1 0x1 PUSH1 0xA0 SHL SUB DUP2 AND DUP2 SUB PUSH2 0x75 JUMPI PUSH1 0x80 MSTORE PUSH1 0x1 PUSH1 0x0 SSTORE PUSH1 0x40 MLOAD PUSH2 0x471 SWAP1 DUP2 PUSH2 0x91 DUP3 CODECOPY PUSH1 0x80 MLOAD DUP2 DUP2 DUP2 PUSH1 0x9B ADD MSTORE PUSH2 0x23D ADD MSTORE RETURN JUMPDEST PUSH1 0x0 DUP1 REVERT JUMPDEST PUSH4 0x4E487B71 PUSH1 0xE0 SHL PUSH1 0x0 MSTORE PUSH1 0x41 PUSH1 0x4 MSTORE PUSH1 0x24 PUSH1 0x0 REVERT INVALID PUSH1 0x80 PUSH1 0x40 DUP2 DUP2 MSTORE PUSH1 0x4 SWAP2 DUP3 CALLDATASIZE LT ISZERO PUSH2 0x16 JUMPI PUSH1 0x0 DUP1 REVERT JUMPDEST PUSH1 0x0 SWAP3 DUP4 CALLDATALOAD PUSH1 0xE0 SHR SWAP2 DUP3 PUSH4 0x206137AA EQ PUSH2 0x3DC JUMPI POP DUP2 PUSH4 0x2354415D EQ PUSH2 0x3B4 JUMPI DUP2 PUSH4 0x435EEAC5 EQ PUSH2 0x21F JUMPI DUP2 PUSH4 0x89F75A90 EQ PUSH2 0x1F7 JUMPI DUP2 PUSH4 0xB45A3C0E EQ PUSH2 0x1DA JUMPI DUP2 PUSH4 0xC3732901 EQ PUSH2 0x1B0 JUMPI DUP2 PUSH4 0xD1BE4883 EQ PUSH2 0x11C JUMPI DUP2 PUSH4 0xE0574E3F EQ PUSH2 0xCE JUMPI POP PUSH4 0xE78CEA92 EQ PUSH2 0x88 JUMPI PUSH1 0x0 DUP1 REVERT JUMPDEST CALLVALUE PUSH2 0xCA JUMPI DUP2 PUSH1 0x3 NOT CALLDATASIZE ADD SLT PUSH2 0xCA JUMPI MLOAD PUSH32 0x0 PUSH1 0x1 PUSH1 0x1 PUSH1 0xA0 SHL SUB AND DUP2 MSTORE PUSH1 0x20 SWAP1 RETURN JUMPDEST POP DUP1 REVERT JUMPDEST SWAP1 POP CALLVALUE PUSH2 0x118 JUMPI PUSH1 0x20 CALLDATASIZE PUSH1 0x3 NOT ADD SLT PUSH2 0x118 JUMPI PUSH1 0x80 SWAP3 DUP3 SWAP2 CALLDATALOAD DUP2 MSTORE PUSH1 0x3 PUSH1 0x20 MSTORE KECCAK256 SWAP1 DUP2 SLOAD SWAP2 PUSH1 0x1 DUP2 ADD SLOAD SWAP2 PUSH1 0x3 PUSH1 0x2 DUP4 ADD SLOAD SWAP3 ADD SLOAD SWAP3 DUP2 MLOAD SWAP5 DUP6 MSTORE PUSH1 0x20 DUP6 ADD MSTORE DUP4 ADD MSTORE PUSH1 0x60 DUP3 ADD MSTORE RETURN JUMPDEST DUP3 DUP1 REVERT JUMPDEST SWAP2 SWAP1 POP CALLVALUE PUSH2 0x118 JUMPI PUSH1 0x20 SWAP2 DUP3 PUSH1 0x3 NOT CALLDATASIZE ADD SLT PUSH2 0x1AC JUMPI DUP4 DUP3 SWAP2 PUSH1 0x80 SWAP6 PUSH1 0x60 PUSH2 0x142 PUSH2 0x405 JUMP JUMPDEST DUP3 DUP2 MSTORE DUP3 DUP9 DUP3 ADD MSTORE DUP3 DUP7 DUP3 ADD MSTORE ADD MSTORE CALLDATALOAD DUP2 MSTORE PUSH1 0x1 DUP5 MSTORE DUP2 DUP2 KECCAK256 SLOAD DUP2 MSTORE PUSH1 0x3 DUP5 MSTORE KECCAK256 SWAP1 PUSH2 0x16C PUSH2 0x405 JUMP JUMPDEST SWAP2 DUP1 SLOAD SWAP4 DUP5 DUP5 MSTORE PUSH1 0x1 DUP3 ADD SLOAD DUP2 DUP6 ADD SWAP1 DUP2 MSTORE PUSH1 0x60 PUSH1 0x3 PUSH1 0x2 DUP6 ADD SLOAD SWAP5 DUP7 DUP9 ADD SWAP6 DUP7 MSTORE ADD SLOAD SWAP6 ADD SWAP5 DUP6 MSTORE DUP4 MLOAD SWAP6 DUP7 MSTORE MLOAD SWAP1 DUP6 ADD MSTORE MLOAD SWAP1 DUP4 ADD MSTORE MLOAD PUSH1 0x60 DUP3 ADD MSTORE RETURN JUMPDEST DUP4 DUP1 REVERT JUMPDEST SWAP1 POP CALLVALUE PUSH2 0x118 JUMPI PUSH1 0x20 CALLDATASIZE PUSH1 0x3 NOT ADD SLT PUSH2 0x118 JUMPI PUSH1 0x20 SWAP3 DUP3 SWAP2 CALLDATALOAD DUP2 MSTORE PUSH1 0x1 DUP5 MSTORE KECCAK256 SLOAD ISZERO ISZERO SWAP1 MLOAD SWAP1 DUP2 MSTORE RETURN JUMPDEST POP POP CALLVALUE PUSH2 0xCA JUMPI PUSH1 0x20 CALLDATASIZE PUSH1 0x3 NOT ADD SLT PUSH2 0xCA JUMPI PUSH1 0x20 SWAP1 MLOAD PUSH1 0x1 DUP2 MSTORE RETURN JUMPDEST SWAP1 POP CALLVALUE PUSH2 0x118 JUMPI PUSH1 0x20 CALLDATASIZE PUSH1 0x3 NOT ADD SLT PUSH2 0x118 JUMPI PUSH1 0x20 SWAP3 DUP3 SWAP2 CALLDATALOAD DUP2 MSTORE PUSH1 0x2 DUP5 MSTORE KECCAK256 SLOAD SWAP1 MLOAD SWAP1 DUP2 MSTORE RETURN JUMPDEST SWAP2 SWAP1 POP CALLVALUE PUSH2 0x118 JUMPI PUSH1 0x80 CALLDATASIZE PUSH1 0x3 NOT ADD SLT PUSH2 0x118 JUMPI DUP2 CALLDATALOAD PUSH1 0x64 CALLDATALOAD PUSH1 0x24 CALLDATALOAD PUSH32 0x0 PUSH1 0x1 PUSH1 0x1 PUSH1 0xA0 SHL SUB AND CALLER SUB PUSH2 0x3A4 JUMPI DUP3 DUP7 MSTORE PUSH1 0x20 SWAP6 PUSH1 0x1 DUP8 MSTORE DUP5 DUP2 KECCAK256 SLOAD PUSH2 0x38E JUMPI DUP2 DUP2 MSTORE DUP6 DUP8 MSTORE PUSH1 0xFF DUP6 DUP3 KECCAK256 SLOAD AND PUSH2 0x377 JUMPI PUSH2 0x3E8 DUP4 GT PUSH2 0x360 JUMPI DUP1 SLOAD SWAP6 PUSH1 0x0 NOT DUP8 EQ PUSH2 0x34D JUMPI SWAP3 PUSH32 0xEE227CB452CAC5BC3A83E8C2192BBAE594A8E14DDA45141F8950AE5E32EF0452 SWAP3 PUSH1 0x3 DUP10 DUP9 SWAP5 DUP11 SWAP9 SWAP8 PUSH1 0x1 DUP11 ADD DUP3 SSTORE DUP5 DUP3 MSTORE DUP3 MSTORE DUP6 DUP2 KECCAK256 PUSH1 0x1 PUSH1 0xFF NOT DUP3 SLOAD AND OR SWAP1 SSTORE DUP8 DUP2 MSTORE PUSH1 0x1 DUP3 MSTORE DUP9 DUP7 DUP3 KECCAK256 SSTORE DUP9 DUP2 MSTORE PUSH1 0x2 DUP3 MSTORE DUP8 DUP7 DUP3 KECCAK256 SSTORE PUSH2 0x307 PUSH2 0x405 JUMP JUMPDEST SWAP4 DUP5 MSTORE DUP2 DUP5 ADD PUSH1 0x44 CALLDATALOAD DUP2 MSTORE DUP7 DUP1 DUP7 ADD SWAP3 DUP8 DUP5 MSTORE DUP6 PUSH1 0x60 DUP9 ADD SWAP6 TIMESTAMP DUP8 MSTORE DUP14 DUP4 MSTORE MSTORE KECCAK256 SWAP5 MLOAD DUP6 SSTORE MLOAD PUSH1 0x1 DUP6 ADD SSTORE MLOAD PUSH1 0x2 DUP5 ADD SSTORE MLOAD SWAP2 ADD SSTORE DUP2 MLOAD SWAP1 DUP2 MSTORE NUMBER DUP9 DUP3 ADD MSTORE LOG3 MLOAD SWAP1 DUP2 MSTORE RETURN JUMPDEST PUSH4 0x4E487B71 PUSH1 0xE0 SHL DUP3 MSTORE PUSH1 0x11 SWAP1 MSTORE PUSH1 0x24 SWAP1 REVERT JUMPDEST DUP5 MLOAD PUSH4 0x2C870E6B PUSH1 0xE1 SHL DUP2 MSTORE DUP1 DUP8 ADD DUP5 SWAP1 MSTORE PUSH1 0x24 SWAP1 REVERT JUMPDEST DUP5 MLOAD PUSH4 0x12AB05EF PUSH1 0xE2 SHL DUP2 MSTORE DUP1 DUP8 ADD DUP4 SWAP1 MSTORE PUSH1 0x24 SWAP1 REVERT JUMPDEST DUP5 MLOAD PUSH3 0x265213 PUSH1 0xE8 SHL DUP2 MSTORE DUP1 DUP8 ADD DUP6 SWAP1 MSTORE PUSH1 0x24 SWAP1 REVERT JUMPDEST POP POP POP MLOAD PUSH4 0x38DA3B15 PUSH1 0xE0 SHL DUP2 MSTORE REVERT JUMPDEST SWAP1 POP CALLVALUE PUSH2 0x118 JUMPI PUSH1 0x20 CALLDATASIZE PUSH1 0x3 NOT ADD SLT PUSH2 0x118 JUMPI PUSH1 0x20 SWAP3 DUP3 SWAP2 CALLDATALOAD DUP2 MSTORE PUSH1 0x1 DUP5 MSTORE KECCAK256 SLOAD SWAP1 MLOAD SWAP1 DUP2 MSTORE RETURN JUMPDEST SWAP3 SWAP2 POP CALLVALUE PUSH2 0x1AC JUMPI PUSH1 0x20 CALLDATASIZE PUSH1 0x3 NOT ADD SLT PUSH2 0x1AC JUMPI DUP1 CALLDATALOAD DUP5 MSTORE PUSH1 0x20 SWAP1 DUP2 MSTORE SWAP3 KECCAK256 SLOAD PUSH1 0xFF AND ISZERO ISZERO DUP2 MSTORE RETURN JUMPDEST PUSH1 0x40 MLOAD SWAP1 PUSH1 0x80 DUP3 ADD DUP3 DUP2 LT PUSH8 0xFFFFFFFFFFFFFFFF DUP3 GT OR PUSH2 0x425 JUMPI PUSH1 0x40 MSTORE JUMP JUMPDEST PUSH4 0x4E487B71 PUSH1 0xE0 SHL PUSH1 0x0 MSTORE PUSH1 0x41 PUSH1 0x4 MSTORE PUSH1 0x24 PUSH1 0x0 REVERT INVALID LOG2 PUSH5 0x6970667358 0x22 SLT KECCAK256 0xCC OR 0xED 0xA8 SHL 0x4F MSTORE8 0xE 0x29 SWAP9 0xCF DUP2 DUP8 SWAP3 LOG1 DUP14 SMOD SWAP2 0xB4 0xBE 0xDE PUSH25 0xC1122B17C542D8DCF94064736F6C6343000814003300000000 "},"methodIdentifiers":{"bridge()":"e78cea92","credentialOf(bytes32)":"2354415d","credentials(uint256)":"e0574e3f","deviceOfId(uint256)":"89f75a90","getCredential(bytes32)":"d1be4883","hasCredential(bytes32)":"c3732901","locked(uint256)":"b45a3c0e","mintCredential(bytes32,bytes32,bytes32,uint256)":"435eeac5","usedNullifiers(bytes32)":"206137aa"}}}}}