{"contracts/DeviceRegistry.sol":{"DeviceRegistry":{"abi":[{"inputs":[{"internalType":"uint256","name":"_minimumDeposit","type":"uint256"}],"stateMutability":"nonpayable","type":"constructor"},{"inputs":[{"internalType":"bytes32","name":"deviceId","type":"bytes32"},{"internalType":"uint256","name":"availableAt","type":"uint256"}],"name":"CooldownNotElapsed","type":"error"},{"inputs":[{"internalType":"bytes32","name":"deviceId","type":"bytes32"}],"name":"DepositAlreadyWithdrawn","type":"error"},{"inputs":[{"internalType":"bytes32","name":"deviceId","type":"bytes32"}],"name":"DeviceAlreadyRegistered","type":"error"},{"inputs":[{"internalType":"bytes32","name":"deviceId","type":"bytes32"}],"name":"DeviceNotActive","type":"error"},{"inputs":[{"internalType":"bytes32","name":"deviceId","type":"bytes32"}],"name":"DeviceNotFound","type":"error"},{"inputs":[{"internalType":"uint256","name":"provided","type":"uint256"},{"internalType":"uint256","name":"required","type":"uint256"}],"name":"InsufficientDeposit","type":"error"},{"inputs":[{"internalType":"uint256","name":"provided","type":"uint256"},{"internalType":"uint256","name":"expected","type":"uint256"}],"name":"InvalidPubkeyLength","type":"error"},{"inputs":[{"internalType":"uint8","name":"provided","type":"uint8"}],"name":"InvalidPubkeyPrefix","type":"error"},{"inputs":[{"internalType":"address","name":"caller","type":"address"}],"name":"NotAuthorizedUpdater","type":"error"},{"inputs":[{"internalType":"bytes32","name":"deviceId","type":"bytes32"},{"internalType":"address","name":"caller","type":"address"}],"name":"NotDeviceOwner","type":"error"},{"inputs":[{"internalType":"address","name":"owner","type":"address"}],"name":"OwnableInvalidOwner","type":"error"},{"inputs":[{"internalType":"address","name":"account","type":"address"}],"name":"OwnableUnauthorizedAccount","type":"error"},{"inputs":[],"name":"ReentrancyGuardReentrantCall","type":"error"},{"anonymous":false,"inputs":[{"indexed":true,"internalType":"bytes32","name":"deviceId","type":"bytes32"},{"indexed":true,"internalType":"address","name":"owner","type":"address"},{"indexed":false,"internalType":"uint256","name":"amount","type":"uint256"}],"name":"DepositWithdrawn","type":"event"},{"anonymous":false,"inputs":[{"indexed":true,"internalType":"bytes32","name":"deviceId","type":"bytes32"},{"indexed":true,"internalType":"address","name":"owner","type":"address"},{"indexed":false,"internalType":"uint64","name":"deactivatedAt","type":"uint64"}],"name":"DeviceDeactivated","type":"event"},{"anonymous":false,"inputs":[{"indexed":true,"internalType":"bytes32","name":"deviceId","type":"bytes32"},{"indexed":true,"internalType":"address","name":"owner","type":"address"},{"indexed":false,"internalType":"uint256","name":"deposit","type":"uint256"},{"indexed":false,"internalType":"uint64","name":"registeredAt","type":"uint64"}],"name":"DeviceRegistered","type":"event"},{"anonymous":false,"inputs":[{"indexed":true,"internalType":"address","name":"previousOwner","type":"address"},{"indexed":true,"internalType":"address","name":"newOwner","type":"address"}],"name":"OwnershipTransferred","type":"event"},{"anonymous":false,"inputs":[{"indexed":true,"internalType":"bytes32","name":"deviceId","type":"bytes32"},{"indexed":false,"internalType":"uint16","name":"oldScore","type":"uint16"},{"indexed":false,"internalType":"uint16","name":"newScore","type":"uint16"},{"indexed":false,"internalType":"uint32","name":"verifiedPoACCount","type":"uint32"},{"indexed":false,"internalType":"uint32","name":"corroborationCount","type":"uint32"},{"indexed":false,"internalType":"uint32","name":"disputeCount","type":"uint32"}],"name":"ReputationUpdated","type":"event"},{"inputs":[],"name":"DEACTIVATION_COOLDOWN","outputs":[{"internalType":"uint256","name":"","type":"uint256"}],"stateMutability":"view","type":"function"},{"inputs":[],"name":"MAX_REPUTATION","outputs":[{"internalType":"uint16","name":"","type":"uint16"}],"stateMutability":"view","type":"function"},{"inputs":[],"name":"PUBKEY_LENGTH","outputs":[{"internalType":"uint256","name":"","type":"uint256"}],"stateMutability":"view","type":"function"},{"inputs":[{"internalType":"bytes32","name":"_deviceId","type":"bytes32"}],"name":"canClaimBounty","outputs":[{"internalType":"bool","name":"","type":"bool"}],"stateMutability":"view","type":"function"},{"inputs":[{"internalType":"bytes","name":"_pubkey","type":"bytes"}],"name":"computeDeviceId","outputs":[{"internalType":"bytes32","name":"","type":"bytes32"}],"stateMutability":"pure","type":"function"},{"inputs":[{"internalType":"bytes32","name":"_deviceId","type":"bytes32"}],"name":"deactivateDevice","outputs":[],"stateMutability":"nonpayable","type":"function"},{"inputs":[],"name":"deviceCount","outputs":[{"internalType":"uint256","name":"","type":"uint256"}],"stateMutability":"view","type":"function"},{"inputs":[{"internalType":"bytes32","name":"_deviceId","type":"bytes32"}],"name":"getDeviceInfo","outputs":[{"components":[{"internalType":"address","name":"owner","type":"address"},{"internalType":"uint64","name":"registeredAt","type":"uint64"},{"internalType":"uint64","name":"deactivatedAt","type":"uint64"},{"internalType":"uint256","name":"deposit","type":"uint256"},{"internalType":"bool","name":"active","type":"bool"},{"internalType":"bytes","name":"pubkey","type":"bytes"},{"internalType":"uint32","name":"verifiedPoACCount","type":"uint32"},{"internalType":"uint32","name":"corroborationCount","type":"uint32"},{"internalType":"uint32","name":"disputeCount","type":"uint32"},{"internalType":"uint16","name":"reputationScore","type":"uint16"}],"internalType":"struct DeviceRegistry.DeviceInfo","name":"info","type":"tuple"}],"stateMutability":"view","type":"function"},{"inputs":[{"internalType":"bytes32","name":"_deviceId","type":"bytes32"}],"name":"getDevicePubkey","outputs":[{"internalType":"bytes","name":"","type":"bytes"}],"stateMutability":"view","type":"function"},{"inputs":[{"internalType":"bytes32","name":"_deviceId","type":"bytes32"}],"name":"getReputationScore","outputs":[{"internalType":"uint16","name":"score","type":"uint16"}],"stateMutability":"view","type":"function"},{"inputs":[{"internalType":"bytes32","name":"_deviceId","type":"bytes32"}],"name":"isDeviceActive","outputs":[{"internalType":"bool","name":"","type":"bool"}],"stateMutability":"view","type":"function"},{"inputs":[],"name":"minimumDeposit","outputs":[{"internalType":"uint256","name":"","type":"uint256"}],"stateMutability":"view","type":"function"},{"inputs":[],"name":"owner","outputs":[{"internalType":"address","name":"","type":"address"}],"stateMutability":"view","type":"function"},{"inputs":[{"internalType":"bytes","name":"_pubkey","type":"bytes"}],"name":"registerDevice","outputs":[{"internalType":"bytes32","name":"deviceId","type":"bytes32"}],"stateMutability":"payable","type":"function"},{"inputs":[],"name":"renounceOwnership","outputs":[],"stateMutability":"nonpayable","type":"function"},{"inputs":[{"internalType":"address","name":"","type":"address"}],"name":"reputationUpdaters","outputs":[{"internalType":"bool","name":"","type":"bool"}],"stateMutability":"view","type":"function"},{"inputs":[{"internalType":"uint256","name":"_newMinimum","type":"uint256"}],"name":"setMinimumDeposit","outputs":[],"stateMutability":"nonpayable","type":"function"},{"inputs":[{"internalType":"address","name":"_updater","type":"address"},{"internalType":"bool","name":"_authorized","type":"bool"}],"name":"setReputationUpdater","outputs":[],"stateMutability":"nonpayable","type":"function"},{"inputs":[{"internalType":"address","name":"newOwner","type":"address"}],"name":"transferOwnership","outputs":[],"stateMutability":"nonpayable","type":"function"},{"inputs":[{"internalType":"bytes32","name":"_deviceId","type":"bytes32"},{"internalType":"uint32","name":"_addVerified","type":"uint32"},{"internalType":"uint32","name":"_addCorroborations","type":"uint32"},{"internalType":"uint32","name":"_addDisputes","type":"uint32"}],"name":"updateReputation","outputs":[],"stateMutability":"nonpayable","type":"function"},{"inputs":[{"internalType":"bytes32","name":"_deviceId","type":"bytes32"}],"name":"withdrawDeposit","outputs":[],"stateMutability":"nonpayable","type":"function"}],"evm":{"bytecode":{"linkReferences":{},"object":"6080346100ba57601f61123c38819003918201601f19168301916001600160401b038311848410176100bf578084926020946040528339810103126100ba575133156100a15760008054336001600160a01b0319821681178355604051939290916001600160a01b0316907f8be0079c531659141344cd1fd0a4f28419497f9722a3daafe3b4186f6b6457e09080a36001805560025561116690816100d68239f35b604051631e4fbdf760e01b815260006004820152602490fd5b600080fd5b634e487b7160e01b600052604160045260246000fdfe608080604052600436101561001357600080fd5b600090813560e01c90816307567c7514610baf575080630766e84514610aee5780631f9b019b146105ce5780633050a73d14610aaf5780634a5f16e9146107d5578063535bca9a146107b757806359d902ed146105d35780635ec8fe6b146105ce578063636bfbab146105b0578063715018a614610556578063739ad43c1461050b578063804ad249146104975780638da5cb5b146104705780639f14f88414610447578063a4d55d1d1461042b578063a8e06bc314610245578063ac72ab29146101ee578063d213c0f2146101d1578063e78ec42e146101ae578063ec5760d3146101905763f2fde38b1461010857600080fd5b3461018d57602036600319011261018d57610121610dcb565b610129610e6a565b6001600160a01b039081169081156101745782546001600160a01b0319811683178455167f8be0079c531659141344cd1fd0a4f28419497f9722a3daafe3b4186f6b6457e08380a380f35b604051631e4fbdf760e01b815260048101849052602490fd5b80fd5b503461018d578060031936011261018d57602060405162093a808152f35b503461018d57602036600319011261018d576101c8610e6a565b60043560025580f35b503461018d578060031936011261018d5760206040516127108152f35b503461018d57604036600319011261018d57610208610dcb565b602435908115158092036102415761021e610e6a565b60018060a01b031682526004602052604082209060ff8019835416911617905580f35b8280fd5b503461018d57602036600319011261018d57600435610262610e96565b8082526003602052604082209081546001600160401b0392838260a01c1615610412576001600160a01b039182163381036103f35760ff6003830154166103da576002820180549586156103c15760018401541662093a8081018091116103ad5780421061038f57508680878194828095555af13d1561038a573d6102e681610f0c565b906102f46040519283610eeb565b81528660203d92013e5b15610339577f0c4c5d4c3bcc4e68b960f90448e78b3a2eb8ddbd45fdb5fadb203a1c3c56878b91602091541693604051908152a36001805580f35b60405162461bcd60e51b815260206004820152602360248201527f44657669636552656769737472793a20455448207472616e73666572206661696044820152621b195960ea1b6064820152608490fd5b6102fe565b8560449160405191636e0e8a7b60e11b835260048301526024820152fd5b634e487b7160e01b88526011600452602488fd5b60405163a9d21a9d60e01b815260048101879052602490fd5b60405163159c717560e11b815260048101859052602490fd5b604051635a4d198760e01b815260048101859052336024820152604490fd5b60405163e5aab9e560e01b815260048101849052602490fd5b503461018d578060031936011261018d57602060405160418152f35b503461018d57602061046261045b36610de1565b3691610f27565b818151910120604051908152f35b503461018d578060031936011261018d57546040516001600160a01b039091168152602090f35b503461018d57602036600319011261018d57604060043591828152600360205220906001600160401b03825460a01c16156104f3576104ef6104db6004840161108a565b604051918291602083526020830190610e2a565b0390f35b6024906040519063e5aab9e560e01b82526004820152fd5b503461018d57602036600319011261018d57604060043591828152600360205220906001600160401b03825460a01c16156104f357602061ffff600584015460601c16604051908152f35b503461018d578060031936011261018d5761056f610e6a565b80546001600160a01b03198116825581906001600160a01b03167f8be0079c531659141344cd1fd0a4f28419497f9722a3daafe3b4186f6b6457e08280a380f35b503461018d578060031936011261018d576020600254604051908152f35b610d92565b503461018d57602036600319011261018d578060409161012083516105f781610eb9565b8281528260208201528285820152826060820152826080820152606060a08201528260c08201528260e0820152826101008201520152600435815260036020522061ffff60056040519261064a84610eb9565b80546001600160a01b038116855260a01c6001600160401b039081166020860152600182015416604085015260028101546060850152600381015460ff161515608085015261069b6004820161108a565b60a0850152015463ffffffff811660c084015263ffffffff8160201c1660e084015263ffffffff8160401c1661010084015260601c166101208201526001600160401b036020820151161561079e5760405180916020825260018060a01b0381511660208301526001600160401b0360208201511660408301526001600160401b036040820151166060830152606081015160808301526080810151151560a083015260a081015161ffff610120610761610140938460c0880152610160870190610e2a565b9363ffffffff60c08201511660e087015263ffffffff60e08201511661010087015263ffffffff6101008201511682870152015116908301520390f35b602460405163e5aab9e560e01b81526004356004820152fd5b503461018d578060031936011261018d576020600554604051908152f35b506107df36610de1565b6107e7610e96565b60025460418203610a8f578115610a7b57823560f81c60048103610a635750610811368385610f27565b93845160208096012093848252600386526001600160401b039283604084205460a01c16610a4a57803410610a2c575084825260038087526040832080546001600160e01b0319163367ffffffffffffffff60a01b1916174260a01b67ffffffffffffffff60a01b16178155346002820155908101805460ff19166001908117909155949091600483019190858211610a18576108ae8354610f5e565b601f81116109d2575b508490601f831160011461096b57600594939291869183610960575b5050600019600383901b1c191690871b1790555b01805461ffff60601b191661027160631b17905560055490600019821461094c5750820160055560405190348252421684820152827fd12213ea6e64a238716c781b0705a90db6b6253451f8266f8fecc0bdff9e327860403393a38055604051908152f35b634e487b7160e01b81526011600452602490fd5b0135905038806108d3565b8386528986209194939288929091601f198316885b8d8282106109bc5750509683600598106109a2575b505050811b0190556108e7565b0135600019600384901b60f8161c19169055388080610995565b838a01358555988901988c969094019301610980565b838652898620601f840160051c8101918b8510610a0e575b601f0160051c019088905b828110610a035750506108b7565b8781550188906109f5565b90915081906109ea565b634e487b7160e01b85526041600452602485fd5b604490604051906312e1fa3760e11b82523460048301526024820152fd5b60405163054c5de760e51b815260048101879052602490fd5b60249060405190637b60931160e11b82526004820152fd5b634e487b7160e01b84526032600452602484fd5b604051630b40a61b60e21b81526004810183905260416024820152604490fd5b503461018d57602036600319011261018d5760209060ff906040906001600160a01b03610ada610dcb565b168152600484522054166040519015158152f35b503461018d57602036600319011261018d576004358082526003602052604082209081546001600160401b0390818160a01c161561041257600384019081549060ff821615610b9657336001600160a01b03909116036103f357906001929160ff1916905542169201826001600160401b03198254161790556040519182527f19a0c1f77bd7e2409f74ab3d9f512e7655a3b9b413b21828e6864684a1ce5f1f60203393a380f35b60405163159c717560e11b815260048101869052602490fd5b905034610d8e576080366003190112610d8e576004359063ffffffff906024358281168103610d8a57604435918383168303610d86576064358481168103610d82573387526020916004835260ff6040892054161580610d6e575b610d59575085875260038252604087206001600160401b03815460a01c1615610d4057948093819360a096936bffffffff0000000000000000610cb967ffffffff00000000610c9b87610c8660057fc0af51c21917d3ec881a16c91e89b23e795ada618d453130b1986c332a6083ab9f019889549d8e16610f98565b169863ffffffff198c168a17871c8916610f98565b851b169267ffffffffffffffff198a168817841760401c8716610f98565b60401b1680866bffffffffffffffffffffffff198a1617831717610cee61ffff60601b9187808260401c1691871c1689610fc6565b60601b1691866dffffffffffffffffffffffffffff198a161717171793848093556040519661ffff809160601c1688528360601c168288015260408701521c16606084015260401c166080820152a280f35b60405163e5aab9e560e01b815260048101889052602490fd5b6318856b8760e11b8152336004820152602490fd5b5087546001600160a01b0316331415610c0a565b8680fd5b8580fd5b8480fd5b5080fd5b34610dc6576020366003190112610dc6576004356000526003602052602060ff600360406000200154166040519015158152f35b600080fd5b600435906001600160a01b0382168203610dc657565b906020600319830112610dc6576004356001600160401b0392838211610dc65780602383011215610dc6578160040135938411610dc65760248483010111610dc6576024019190565b919082519283825260005b848110610e56575050826000602080949584010152601f8019910116010190565b602081830181015184830182015201610e35565b6000546001600160a01b03163303610e7e57565b60405163118cdaa760e01b8152336004820152602490fd5b600260015414610ea7576002600155565b604051633ee5aeb560e01b8152600490fd5b61014081019081106001600160401b03821117610ed557604052565b634e487b7160e01b600052604160045260246000fd5b90601f801991011681019081106001600160401b03821117610ed557604052565b6001600160401b038111610ed557601f01601f191660200190565b929192610f3382610f0c565b91610f416040519384610eeb565b829481845281830111610dc6578281602093846000960137010152565b90600182811c92168015610f8e575b6020831014610f7857565b634e487b7160e01b600052602260045260246000fd5b91607f1691610f6d565b91909163ffffffff80809416911601918211610fb057565b634e487b7160e01b600052601160045260246000fd5b61271092919063ffffffff90811684811115611084575083925b6401fffffffe8284169360011b169280840460021490151715610fb0571690600a820291808304600a1490151715610fb0578201809211610fb0578181101561107c5780820391808311610fb057828402911482820484141715610fb0576103e88201809211610fb057811561106657048181111561105d575090565b61ffff91501690565b634e487b7160e01b600052601260045260246000fd5b505050600090565b92610fe0565b906040519182600082549261109e84610f5e565b90818452600194858116908160001461110d57506001146110ca575b50506110c892500383610eeb565b565b9093915060005260209081600020936000915b8183106110f55750506110c8935082010138806110ba565b855488840185015294850194879450918301916110dd565b9150506110c894506020925060ff191682840152151560051b82010138806110ba56fea26469706673582212200e0064eea6e5fc2985845b24dc419fe28ea3bd5ae584c98923667dfd4c6cab6d64736f6c63430008140033","opcodes":"PUSH1 0x80 CALLVALUE PUSH2 0xBA JUMPI PUSH1 0x1F PUSH2 0x123C CODESIZE DUP2 SWAP1 SUB SWAP2 DUP3 ADD PUSH1 0x1F NOT AND DUP4 ADD SWAP2 PUSH1 0x1 PUSH1 0x1 PUSH1 0x40 SHL SUB DUP4 GT DUP5 DUP5 LT OR PUSH2 0xBF JUMPI DUP1 DUP5 SWAP3 PUSH1 0x20 SWAP5 PUSH1 0x40 MSTORE DUP4 CODECOPY DUP2 ADD SUB SLT PUSH2 0xBA JUMPI MLOAD CALLER ISZERO PUSH2 0xA1 JUMPI PUSH1 0x0 DUP1 SLOAD CALLER PUSH1 0x1 PUSH1 0x1 PUSH1 0xA0 SHL SUB NOT DUP3 AND DUP2 OR DUP4 SSTORE PUSH1 0x40 MLOAD SWAP4 SWAP3 SWAP1 SWAP2 PUSH1 0x1 PUSH1 0x1 PUSH1 0xA0 SHL SUB AND SWAP1 PUSH32 0x8BE0079C531659141344CD1FD0A4F28419497F9722A3DAAFE3B4186F6B6457E0 SWAP1 DUP1 LOG3 PUSH1 0x1 DUP1 SSTORE PUSH1 0x2 SSTORE PUSH2 0x1166 SWAP1 DUP2 PUSH2 0xD6 DUP3 CODECOPY RETURN JUMPDEST PUSH1 0x40 MLOAD PUSH4 0x1E4FBDF7 PUSH1 0xE0 SHL DUP2 MSTORE PUSH1 0x0 PUSH1 0x4 DUP3 ADD MSTORE PUSH1 0x24 SWAP1 REVERT JUMPDEST PUSH1 0x0 DUP1 REVERT JUMPDEST PUSH4 0x4E487B71 PUSH1 0xE0 SHL PUSH1 0x0 MSTORE PUSH1 0x41 PUSH1 0x4 MSTORE PUSH1 0x24 PUSH1 0x0 REVERT INVALID PUSH1 0x80 DUP1 PUSH1 0x40 MSTORE PUSH1 0x4 CALLDATASIZE LT ISZERO PUSH2 0x13 JUMPI PUSH1 0x0 DUP1 REVERT JUMPDEST PUSH1 0x0 SWAP1 DUP2 CALLDATALOAD PUSH1 0xE0 SHR SWAP1 DUP2 PUSH4 0x7567C75 EQ PUSH2 0xBAF JUMPI POP DUP1 PUSH4 0x766E845 EQ PUSH2 0xAEE JUMPI DUP1 PUSH4 0x1F9B019B EQ PUSH2 0x5CE JUMPI DUP1 PUSH4 0x3050A73D EQ PUSH2 0xAAF JUMPI DUP1 PUSH4 0x4A5F16E9 EQ PUSH2 0x7D5 JUMPI DUP1 PUSH4 0x535BCA9A EQ PUSH2 0x7B7 JUMPI DUP1 PUSH4 0x59D902ED EQ PUSH2 0x5D3 JUMPI DUP1 PUSH4 0x5EC8FE6B EQ PUSH2 0x5CE JUMPI DUP1 PUSH4 0x636BFBAB EQ PUSH2 0x5B0 JUMPI DUP1 PUSH4 0x715018A6 EQ PUSH2 0x556 JUMPI DUP1 PUSH4 0x739AD43C EQ PUSH2 0x50B JUMPI DUP1 PUSH4 0x804AD249 EQ PUSH2 0x497 JUMPI DUP1 PUSH4 0x8DA5CB5B EQ PUSH2 0x470 JUMPI DUP1 PUSH4 0x9F14F884 EQ PUSH2 0x447 JUMPI DUP1 PUSH4 0xA4D55D1D EQ PUSH2 0x42B JUMPI DUP1 PUSH4 0xA8E06BC3 EQ PUSH2 0x245 JUMPI DUP1 PUSH4 0xAC72AB29 EQ PUSH2 0x1EE JUMPI DUP1 PUSH4 0xD213C0F2 EQ PUSH2 0x1D1 JUMPI DUP1 PUSH4 0xE78EC42E EQ PUSH2 0x1AE JUMPI DUP1 PUSH4 0xEC5760D3 EQ PUSH2 0x190 JUMPI PUSH4 0xF2FDE38B EQ PUSH2 0x108 JUMPI PUSH1 0x0 DUP1 REVERT JUMPDEST CALLVALUE PUSH2 0x18D JUMPI PUSH1 0x20 CALLDATASIZE PUSH1 0x3 NOT ADD SLT PUSH2 0x18D JUMPI PUSH2 0x121 PUSH2 0xDCB JUMP JUMPDEST PUSH2 0x129 PUSH2 0xE6A JUMP JUMPDEST PUSH1 0x1 PUSH1 0x1 PUSH1 0xA0 SHL SUB SWAP1 DUP2 AND SWAP1 DUP2 ISZERO PUSH2 0x174 JUMPI DUP3 SLOAD PUSH1 0x1 PUSH1 0x1 PUSH1 0xA0 SHL SUB NOT DUP2 AND DUP4 OR DUP5 SSTORE AND PUSH32 0x8BE0079C531659141344CD1FD0A4F28419497F9722A3DAAFE3B4186F6B6457E0 DUP4 DUP1 LOG3 DUP1 RETURN JUMPDEST PUSH1 0x40 MLOAD PUSH4 0x1E4FBDF7 PUSH1 0xE0 SHL DUP2 MSTORE PUSH1 0x4 DUP2 ADD DUP5 SWAP1 MSTORE PUSH1 0x24 SWAP1 REVERT JUMPDEST DUP1 REVERT JUMPDEST POP CALLVALUE PUSH2 0x18D JUMPI DUP1 PUSH1 0x3 NOT CALLDATASIZE ADD SLT PUSH2 0x18D JUMPI PUSH1 0x20 PUSH1 0x40 MLOAD PUSH3 0x93A80 DUP2 MSTORE RETURN JUMPDEST POP CALLVALUE PUSH2 0x18D JUMPI PUSH1 0x20 CALLDATASIZE PUSH1 0x3 NOT ADD SLT PUSH2 0x18D JUMPI PUSH2 0x1C8 PUSH2 0xE6A JUMP JUMPDEST PUSH1 0x4 CALLDATALOAD PUSH1 0x2 SSTORE DUP1 RETURN JUMPDEST POP CALLVALUE PUSH2 0x18D JUMPI DUP1 PUSH1 0x3 NOT CALLDATASIZE ADD SLT PUSH2 0x18D JUMPI PUSH1 0x20 PUSH1 0x40 MLOAD PUSH2 0x2710 DUP2 MSTORE RETURN JUMPDEST POP CALLVALUE PUSH2 0x18D JUMPI PUSH1 0x40 CALLDATASIZE PUSH1 0x3 NOT ADD SLT PUSH2 0x18D JUMPI PUSH2 0x208 PUSH2 0xDCB JUMP JUMPDEST PUSH1 0x24 CALLDATALOAD SWAP1 DUP2 ISZERO ISZERO DUP1 SWAP3 SUB PUSH2 0x241 JUMPI PUSH2 0x21E PUSH2 0xE6A JUMP JUMPDEST PUSH1 0x1 DUP1 PUSH1 0xA0 SHL SUB AND DUP3 MSTORE PUSH1 0x4 PUSH1 0x20 MSTORE PUSH1 0x40 DUP3 KECCAK256 SWAP1 PUSH1 0xFF DUP1 NOT DUP4 SLOAD AND SWAP2 AND OR SWAP1 SSTORE DUP1 RETURN JUMPDEST DUP3 DUP1 REVERT JUMPDEST POP CALLVALUE PUSH2 0x18D JUMPI PUSH1 0x20 CALLDATASIZE PUSH1 0x3 NOT ADD SLT PUSH2 0x18D JUMPI PUSH1 0x4 CALLDATALOAD PUSH2 0x262 PUSH2 0xE96 JUMP JUMPDEST DUP1 DUP3 MSTORE PUSH1 0x3 PUSH1 0x20 MSTORE PUSH1 0x40 DUP3 KECCAK256 SWAP1 DUP2 SLOAD PUSH1 0x1 PUSH1 0x1 PUSH1 0x40 SHL SUB SWAP3 DUP4 DUP3 PUSH1 0xA0 SHR AND ISZERO PUSH2 0x412 JUMPI PUSH1 0x1 PUSH1 0x1 PUSH1 0xA0 SHL SUB SWAP2 DUP3 AND CALLER DUP2 SUB PUSH2 0x3F3 JUMPI PUSH1 0xFF PUSH1 0x3 DUP4 ADD SLOAD AND PUSH2 0x3DA JUMPI PUSH1 0x2 DUP3 ADD DUP1 SLOAD SWAP6 DUP7 ISZERO PUSH2 0x3C1 JUMPI PUSH1 0x1 DUP5 ADD SLOAD AND PUSH3 0x93A80 DUP2 ADD DUP1 SWAP2 GT PUSH2 0x3AD JUMPI DUP1 TIMESTAMP LT PUSH2 0x38F JUMPI POP DUP7 DUP1 DUP8 DUP2 SWAP5 DUP3 DUP1 SWAP6 SSTORE GAS CALL RETURNDATASIZE ISZERO PUSH2 0x38A JUMPI RETURNDATASIZE PUSH2 0x2E6 DUP2 PUSH2 0xF0C JUMP JUMPDEST SWAP1 PUSH2 0x2F4 PUSH1 0x40 MLOAD SWAP3 DUP4 PUSH2 0xEEB JUMP JUMPDEST DUP2 MSTORE DUP7 PUSH1 0x20 RETURNDATASIZE SWAP3 ADD RETURNDATACOPY JUMPDEST ISZERO PUSH2 0x339 JUMPI PUSH32 0xC4C5D4C3BCC4E68B960F90448E78B3A2EB8DDBD45FDB5FADB203A1C3C56878B SWAP2 PUSH1 0x20 SWAP2 SLOAD AND SWAP4 PUSH1 0x40 MLOAD SWAP1 DUP2 MSTORE LOG3 PUSH1 0x1 DUP1 SSTORE DUP1 RETURN JUMPDEST PUSH1 0x40 MLOAD PUSH3 0x461BCD PUSH1 0xE5 SHL DUP2 MSTORE PUSH1 0x20 PUSH1 0x4 DUP3 ADD MSTORE PUSH1 0x23 PUSH1 0x24 DUP3 ADD MSTORE PUSH32 0x44657669636552656769737472793A20455448207472616E7366657220666169 PUSH1 0x44 DUP3 ADD MSTORE PUSH3 0x1B1959 PUSH1 0xEA SHL PUSH1 0x64 DUP3 ADD MSTORE PUSH1 0x84 SWAP1 REVERT JUMPDEST PUSH2 0x2FE JUMP JUMPDEST DUP6 PUSH1 0x44 SWAP2 PUSH1 0x40 MLOAD SWAP2 PUSH4 0x6E0E8A7B PUSH1 0xE1 SHL DUP4 MSTORE PUSH1 0x4 DUP4 ADD MSTORE PUSH1 0x24 DUP3 ADD MSTORE REVERT JUMPDEST PUSH4 0x4E487B71 PUSH1 0xE0 SHL DUP9 MSTORE PUSH1 0x11 PUSH1 0x4 MSTORE PUSH1 0x24 DUP9 REVERT JUMPDEST PUSH1 0x40 MLOAD PUSH4 0xA9D21A9D PUSH1 0xE0 SHL DUP2 MSTORE PUSH1 0x4 DUP2 ADD DUP8 SWAP1 MSTORE PUSH1 0x24 SWAP1 REVERT JUMPDEST PUSH1 0x40 MLOAD PUSH4 0x159C7175 PUSH1 0xE1 SHL DUP2 MSTORE PUSH1 0x4 DUP2 ADD DUP6 SWAP1 MSTORE PUSH1 0x24 SWAP1 REVERT JUMPDEST PUSH1 0x40 MLOAD PUSH4 0x5A4D1987 PUSH1 0xE0 SHL DUP2 MSTORE PUSH1 0x4 DUP2 ADD DUP6 SWAP1 MSTORE CALLER PUSH1 0x24 DUP3 ADD MSTORE PUSH1 0x44 SWAP1 REVERT JUMPDEST PUSH1 0x40 MLOAD PUSH4 0xE5AAB9E5 PUSH1 0xE0 SHL DUP2 MSTORE PUSH1 0x4 DUP2 ADD DUP5 SWAP1 MSTORE PUSH1 0x24 SWAP1 REVERT JUMPDEST POP CALLVALUE PUSH2 0x18D JUMPI DUP1 PUSH1 0x3 NOT CALLDATASIZE ADD SLT PUSH2 0x18D JUMPI PUSH1 0x20 PUSH1 0x40 MLOAD PUSH1 0x41 DUP2 MSTORE RETURN JUMPDEST POP CALLVALUE PUSH2 0x18D JUMPI PUSH1 0x20 PUSH2 0x462 PUSH2 0x45B CALLDATASIZE PUSH2 0xDE1 JUMP JUMPDEST CALLDATASIZE SWAP2 PUSH2 0xF27 JUMP JUMPDEST DUP2 DUP2 MLOAD SWAP2 ADD KECCAK256 PUSH1 0x40 MLOAD SWAP1 DUP2 MSTORE RETURN JUMPDEST POP CALLVALUE PUSH2 0x18D JUMPI DUP1 PUSH1 0x3 NOT CALLDATASIZE ADD SLT PUSH2 0x18D JUMPI SLOAD PUSH1 0x40 MLOAD PUSH1 0x1 PUSH1 0x1 PUSH1 0xA0 SHL SUB SWAP1 SWAP2 AND DUP2 MSTORE PUSH1 0x20 SWAP1 RETURN JUMPDEST POP CALLVALUE PUSH2 0x18D JUMPI PUSH1 0x20 CALLDATASIZE PUSH1 0x3 NOT ADD SLT PUSH2 0x18D JUMPI PUSH1 0x40 PUSH1 0x4 CALLDATALOAD SWAP2 DUP3 DUP2 MSTORE PUSH1 0x3 PUSH1 0x20 MSTORE KECCAK256 SWAP1 PUSH1 0x1 PUSH1 0x1 PUSH1 0x40 SHL SUB DUP3 SLOAD PUSH1 0xA0 SHR AND ISZERO PUSH2 0x4F3 JUMPI PUSH2 0x4EF PUSH2 0x4DB PUSH1 0x4 DUP5 ADD PUSH2 0x108A JUMP JUMPDEST PUSH1 0x40 MLOAD SWAP2 DUP3 SWAP2 PUSH1 0x20 DUP4 MSTORE PUSH1 0x20 DUP4 ADD SWAP1 PUSH2 0xE2A JUMP JUMPDEST SUB SWAP1 RETURN JUMPDEST PUSH1 0x24 SWAP1 PUSH1 0x40 MLOAD SWAP1 PUSH4 0xE5AAB9E5 PUSH1 0xE0 SHL DUP3 MSTORE PUSH1 0x4 DUP3 ADD MSTORE REVERT JUMPDEST POP CALLVALUE PUSH2 0x18D JUMPI PUSH1 0x20 CALLDATASIZE PUSH1 0x3 NOT ADD SLT PUSH2 0x18D JUMPI PUSH1 0x40 PUSH1 0x4 CALLDATALOAD SWAP2 DUP3 DUP2 MSTORE PUSH1 0x3 PUSH1 0x20 MSTORE KECCAK256 SWAP1 PUSH1 0x1 PUSH1 0x1 PUSH1 0x40 SHL SUB DUP3 SLOAD PUSH1 0xA0 SHR AND ISZERO PUSH2 0x4F3 JUMPI PUSH1 0x20 PUSH2 0xFFFF PUSH1 0x5 DUP5 ADD SLOAD PUSH1 0x60 SHR AND PUSH1 0x40 MLOAD SWAP1 DUP2 MSTORE RETURN JUMPDEST POP CALLVALUE PUSH2 0x18D JUMPI DUP1 PUSH1 0x3 NOT CALLDATASIZE ADD SLT PUSH2 0x18D JUMPI PUSH2 0x56F PUSH2 0xE6A JUMP JUMPDEST DUP1 SLOAD PUSH1 0x1 PUSH1 0x1 PUSH1 0xA0 SHL SUB NOT DUP2 AND DUP3 SSTORE DUP2 SWAP1 PUSH1 0x1 PUSH1 0x1 PUSH1 0xA0 SHL SUB AND PUSH32 0x8BE0079C531659141344CD1FD0A4F28419497F9722A3DAAFE3B4186F6B6457E0 DUP3 DUP1 LOG3 DUP1 RETURN JUMPDEST POP CALLVALUE PUSH2 0x18D JUMPI DUP1 PUSH1 0x3 NOT CALLDATASIZE ADD SLT PUSH2 0x18D JUMPI PUSH1 0x20 PUSH1 0x2 SLOAD PUSH1 0x40 MLOAD SWAP1 DUP2 MSTORE RETURN JUMPDEST PUSH2 0xD92 JUMP JUMPDEST POP CALLVALUE PUSH2 0x18D JUMPI PUSH1 0x20 CALLDATASIZE PUSH1 0x3 NOT ADD SLT PUSH2 0x18D JUMPI DUP1 PUSH1 0x40 SWAP2 PUSH2 0x120 DUP4 MLOAD PUSH2 0x5F7 DUP2 PUSH2 0xEB9 JUMP JUMPDEST DUP3 DUP2 MSTORE DUP3 PUSH1 0x20 DUP3 ADD MSTORE DUP3 DUP6 DUP3 ADD MSTORE DUP3 PUSH1 0x60 DUP3 ADD MSTORE DUP3 PUSH1 0x80 DUP3 ADD MSTORE PUSH1 0x60 PUSH1 0xA0 DUP3 ADD MSTORE DUP3 PUSH1 0xC0 DUP3 ADD MSTORE DUP3 PUSH1 0xE0 DUP3 ADD MSTORE DUP3 PUSH2 0x100 DUP3 ADD MSTORE ADD MSTORE PUSH1 0x4 CALLDATALOAD DUP2 MSTORE PUSH1 0x3 PUSH1 0x20 MSTORE KECCAK256 PUSH2 0xFFFF PUSH1 0x5 PUSH1 0x40 MLOAD SWAP3 PUSH2 0x64A DUP5 PUSH2 0xEB9 JUMP JUMPDEST DUP1 SLOAD PUSH1 0x1 PUSH1 0x1 PUSH1 0xA0 SHL SUB DUP2 AND DUP6 MSTORE PUSH1 0xA0 SHR PUSH1 0x1 PUSH1 0x1 PUSH1 0x40 SHL SUB SWAP1 DUP2 AND PUSH1 0x20 DUP7 ADD MSTORE PUSH1 0x1 DUP3 ADD SLOAD AND PUSH1 0x40 DUP6 ADD MSTORE PUSH1 0x2 DUP2 ADD SLOAD PUSH1 0x60 DUP6 ADD MSTORE PUSH1 0x3 DUP2 ADD SLOAD PUSH1 0xFF AND ISZERO ISZERO PUSH1 0x80 DUP6 ADD MSTORE PUSH2 0x69B PUSH1 0x4 DUP3 ADD PUSH2 0x108A JUMP JUMPDEST PUSH1 0xA0 DUP6 ADD MSTORE ADD SLOAD PUSH4 0xFFFFFFFF DUP2 AND PUSH1 0xC0 DUP5 ADD MSTORE PUSH4 0xFFFFFFFF DUP2 PUSH1 0x20 SHR AND PUSH1 0xE0 DUP5 ADD MSTORE PUSH4 0xFFFFFFFF DUP2 PUSH1 0x40 SHR AND PUSH2 0x100 DUP5 ADD MSTORE PUSH1 0x60 SHR AND PUSH2 0x120 DUP3 ADD MSTORE PUSH1 0x1 PUSH1 0x1 PUSH1 0x40 SHL SUB PUSH1 0x20 DUP3 ADD MLOAD AND ISZERO PUSH2 0x79E JUMPI PUSH1 0x40 MLOAD DUP1 SWAP2 PUSH1 0x20 DUP3 MSTORE PUSH1 0x1 DUP1 PUSH1 0xA0 SHL SUB DUP2 MLOAD AND PUSH1 0x20 DUP4 ADD MSTORE PUSH1 0x1 PUSH1 0x1 PUSH1 0x40 SHL SUB PUSH1 0x20 DUP3 ADD MLOAD AND PUSH1 0x40 DUP4 ADD MSTORE PUSH1 0x1 PUSH1 0x1 PUSH1 0x40 SHL SUB PUSH1 0x40 DUP3 ADD MLOAD AND PUSH1 0x60 DUP4 ADD MSTORE PUSH1 0x60 DUP2 ADD MLOAD PUSH1 0x80 DUP4 ADD MSTORE PUSH1 0x80 DUP2 ADD MLOAD ISZERO ISZERO PUSH1 0xA0 DUP4 ADD MSTORE PUSH1 0xA0 DUP2 ADD MLOAD PUSH2 0xFFFF PUSH2 0x120 PUSH2 0x761 PUSH2 0x140 SWAP4 DUP5 PUSH1 0xC0 DUP9 ADD MSTORE PUSH2 0x160 DUP8 ADD SWAP1 PUSH2 0xE2A JUMP JUMPDEST SWAP4 PUSH4 0xFFFFFFFF PUSH1 0xC0 DUP3 ADD MLOAD AND PUSH1 0xE0 DUP8 ADD MSTORE PUSH4 0xFFFFFFFF PUSH1 0xE0 DUP3 ADD MLOAD AND PUSH2 0x100 DUP8 ADD MSTORE PUSH4 0xFFFFFFFF PUSH2 0x100 DUP3 ADD MLOAD AND DUP3 DUP8 ADD MSTORE ADD MLOAD AND SWAP1 DUP4 ADD MSTORE SUB SWAP1 RETURN JUMPDEST PUSH1 0x24 PUSH1 0x40 MLOAD PUSH4 0xE5AAB9E5 PUSH1 0xE0 SHL DUP2 MSTORE PUSH1 0x4 CALLDATALOAD PUSH1 0x4 DUP3 ADD MSTORE REVERT JUMPDEST POP CALLVALUE PUSH2 0x18D JUMPI DUP1 PUSH1 0x3 NOT CALLDATASIZE ADD SLT PUSH2 0x18D JUMPI PUSH1 0x20 PUSH1 0x5 SLOAD PUSH1 0x40 MLOAD SWAP1 DUP2 MSTORE RETURN JUMPDEST POP PUSH2 0x7DF CALLDATASIZE PUSH2 0xDE1 JUMP JUMPDEST PUSH2 0x7E7 PUSH2 0xE96 JUMP JUMPDEST PUSH1 0x2 SLOAD PUSH1 0x41 DUP3 SUB PUSH2 0xA8F JUMPI DUP2 ISZERO PUSH2 0xA7B JUMPI DUP3 CALLDATALOAD PUSH1 0xF8 SHR PUSH1 0x4 DUP2 SUB PUSH2 0xA63 JUMPI POP PUSH2 0x811 CALLDATASIZE DUP4 DUP6 PUSH2 0xF27 JUMP JUMPDEST SWAP4 DUP5 MLOAD PUSH1 0x20 DUP1 SWAP7 ADD KECCAK256 SWAP4 DUP5 DUP3 MSTORE PUSH1 0x3 DUP7 MSTORE PUSH1 0x1 PUSH1 0x1 PUSH1 0x40 SHL SUB SWAP3 DUP4 PUSH1 0x40 DUP5 KECCAK256 SLOAD PUSH1 0xA0 SHR AND PUSH2 0xA4A JUMPI DUP1 CALLVALUE LT PUSH2 0xA2C JUMPI POP DUP5 DUP3 MSTORE PUSH1 0x3 DUP1 DUP8 MSTORE PUSH1 0x40 DUP4 KECCAK256 DUP1 SLOAD PUSH1 0x1 PUSH1 0x1 PUSH1 0xE0 SHL SUB NOT AND CALLER PUSH8 0xFFFFFFFFFFFFFFFF PUSH1 0xA0 SHL NOT AND OR TIMESTAMP PUSH1 0xA0 SHL PUSH8 0xFFFFFFFFFFFFFFFF PUSH1 0xA0 SHL AND OR DUP2 SSTORE CALLVALUE PUSH1 0x2 DUP3 ADD SSTORE SWAP1 DUP2 ADD DUP1 SLOAD PUSH1 0xFF NOT AND PUSH1 0x1 SWAP1 DUP2 OR SWAP1 SWAP2 SSTORE SWAP5 SWAP1 SWAP2 PUSH1 0x4 DUP4 ADD SWAP2 SWAP1 DUP6 DUP3 GT PUSH2 0xA18 JUMPI PUSH2 0x8AE DUP4 SLOAD PUSH2 0xF5E JUMP JUMPDEST PUSH1 0x1F DUP2 GT PUSH2 0x9D2 JUMPI JUMPDEST POP DUP5 SWAP1 PUSH1 0x1F DUP4 GT PUSH1 0x1 EQ PUSH2 0x96B JUMPI PUSH1 0x5 SWAP5 SWAP4 SWAP3 SWAP2 DUP7 SWAP2 DUP4 PUSH2 0x960 JUMPI JUMPDEST POP POP PUSH1 0x0 NOT PUSH1 0x3 DUP4 SWAP1 SHL SHR NOT AND SWAP1 DUP8 SHL OR SWAP1 SSTORE JUMPDEST ADD DUP1 SLOAD PUSH2 0xFFFF PUSH1 0x60 SHL NOT AND PUSH2 0x271 PUSH1 0x63 SHL OR SWAP1 SSTORE PUSH1 0x5 SLOAD SWAP1 PUSH1 0x0 NOT DUP3 EQ PUSH2 0x94C JUMPI POP DUP3 ADD PUSH1 0x5 SSTORE PUSH1 0x40 MLOAD SWAP1 CALLVALUE DUP3 MSTORE TIMESTAMP AND DUP5 DUP3 ADD MSTORE DUP3 PUSH32 0xD12213EA6E64A238716C781B0705A90DB6B6253451F8266F8FECC0BDFF9E3278 PUSH1 0x40 CALLER SWAP4 LOG3 DUP1 SSTORE PUSH1 0x40 MLOAD SWAP1 DUP2 MSTORE RETURN JUMPDEST PUSH4 0x4E487B71 PUSH1 0xE0 SHL DUP2 MSTORE PUSH1 0x11 PUSH1 0x4 MSTORE PUSH1 0x24 SWAP1 REVERT JUMPDEST ADD CALLDATALOAD SWAP1 POP CODESIZE DUP1 PUSH2 0x8D3 JUMP JUMPDEST DUP4 DUP7 MSTORE DUP10 DUP7 KECCAK256 SWAP2 SWAP5 SWAP4 SWAP3 DUP9 SWAP3 SWAP1 SWAP2 PUSH1 0x1F NOT DUP4 AND DUP9 JUMPDEST DUP14 DUP3 DUP3 LT PUSH2 0x9BC JUMPI POP POP SWAP7 DUP4 PUSH1 0x5 SWAP9 LT PUSH2 0x9A2 JUMPI JUMPDEST POP POP POP DUP2 SHL ADD SWAP1 SSTORE PUSH2 0x8E7 JUMP JUMPDEST ADD CALLDATALOAD PUSH1 0x0 NOT PUSH1 0x3 DUP5 SWAP1 SHL PUSH1 0xF8 AND SHR NOT AND SWAP1 SSTORE CODESIZE DUP1 DUP1 PUSH2 0x995 JUMP JUMPDEST DUP4 DUP11 ADD CALLDATALOAD DUP6 SSTORE SWAP9 DUP10 ADD SWAP9 DUP13 SWAP7 SWAP1 SWAP5 ADD SWAP4 ADD PUSH2 0x980 JUMP JUMPDEST DUP4 DUP7 MSTORE DUP10 DUP7 KECCAK256 PUSH1 0x1F DUP5 ADD PUSH1 0x5 SHR DUP2 ADD SWAP2 DUP12 DUP6 LT PUSH2 0xA0E JUMPI JUMPDEST PUSH1 0x1F ADD PUSH1 0x5 SHR ADD SWAP1 DUP9 SWAP1 JUMPDEST DUP3 DUP2 LT PUSH2 0xA03 JUMPI POP POP PUSH2 0x8B7 JUMP JUMPDEST DUP8 DUP2 SSTORE ADD DUP9 SWAP1 PUSH2 0x9F5 JUMP JUMPDEST SWAP1 SWAP2 POP DUP2 SWAP1 PUSH2 0x9EA JUMP JUMPDEST PUSH4 0x4E487B71 PUSH1 0xE0 SHL DUP6 MSTORE PUSH1 0x41 PUSH1 0x4 MSTORE PUSH1 0x24 DUP6 REVERT JUMPDEST PUSH1 0x44 SWAP1 PUSH1 0x40 MLOAD SWAP1 PUSH4 0x12E1FA37 PUSH1 0xE1 SHL DUP3 MSTORE CALLVALUE PUSH1 0x4 DUP4 ADD MSTORE PUSH1 0x24 DUP3 ADD MSTORE REVERT JUMPDEST PUSH1 0x40 MLOAD PUSH4 0x54C5DE7 PUSH1 0xE5 SHL DUP2 MSTORE PUSH1 0x4 DUP2 ADD DUP8 SWAP1 MSTORE PUSH1 0x24 SWAP1 REVERT JUMPDEST PUSH1 0x24 SWAP1 PUSH1 0x40 MLOAD SWAP1 PUSH4 0x7B609311 PUSH1 0xE1 SHL DUP3 MSTORE PUSH1 0x4 DUP3 ADD MSTORE REVERT JUMPDEST PUSH4 0x4E487B71 PUSH1 0xE0 SHL DUP5 MSTORE PUSH1 0x32 PUSH1 0x4 MSTORE PUSH1 0x24 DUP5 REVERT JUMPDEST PUSH1 0x40 MLOAD PUSH4 0xB40A61B PUSH1 0xE2 SHL DUP2 MSTORE PUSH1 0x4 DUP2 ADD DUP4 SWAP1 MSTORE PUSH1 0x41 PUSH1 0x24 DUP3 ADD MSTORE PUSH1 0x44 SWAP1 REVERT JUMPDEST POP CALLVALUE PUSH2 0x18D JUMPI PUSH1 0x20 CALLDATASIZE PUSH1 0x3 NOT ADD SLT PUSH2 0x18D JUMPI PUSH1 0x20 SWAP1 PUSH1 0xFF SWAP1 PUSH1 0x40 SWAP1 PUSH1 0x1 PUSH1 0x1 PUSH1 0xA0 SHL SUB PUSH2 0xADA PUSH2 0xDCB JUMP JUMPDEST AND DUP2 MSTORE PUSH1 0x4 DUP5 MSTORE KECCAK256 SLOAD AND PUSH1 0x40 MLOAD SWAP1 ISZERO ISZERO DUP2 MSTORE RETURN JUMPDEST POP CALLVALUE PUSH2 0x18D JUMPI PUSH1 0x20 CALLDATASIZE PUSH1 0x3 NOT ADD SLT PUSH2 0x18D JUMPI PUSH1 0x4 CALLDATALOAD DUP1 DUP3 MSTORE PUSH1 0x3 PUSH1 0x20 MSTORE PUSH1 0x40 DUP3 KECCAK256 SWAP1 DUP2 SLOAD PUSH1 0x1 PUSH1 0x1 PUSH1 0x40 SHL SUB SWAP1 DUP2 DUP2 PUSH1 0xA0 SHR AND ISZERO PUSH2 0x412 JUMPI PUSH1 0x3 DUP5 ADD SWAP1 DUP2 SLOAD SWAP1 PUSH1 0xFF DUP3 AND ISZERO PUSH2 0xB96 JUMPI CALLER PUSH1 0x1 PUSH1 0x1 PUSH1 0xA0 SHL SUB SWAP1 SWAP2 AND SUB PUSH2 0x3F3 JUMPI SWAP1 PUSH1 0x1 SWAP3 SWAP2 PUSH1 0xFF NOT AND SWAP1 SSTORE TIMESTAMP AND SWAP3 ADD DUP3 PUSH1 0x1 PUSH1 0x1 PUSH1 0x40 SHL SUB NOT DUP3 SLOAD AND OR SWAP1 SSTORE PUSH1 0x40 MLOAD SWAP2 DUP3 MSTORE PUSH32 0x19A0C1F77BD7E2409F74AB3D9F512E7655A3B9B413B21828E6864684A1CE5F1F PUSH1 0x20 CALLER SWAP4 LOG3 DUP1 RETURN JUMPDEST PUSH1 0x40 MLOAD PUSH4 0x159C7175 PUSH1 0xE1 SHL DUP2 MSTORE PUSH1 0x4 DUP2 ADD DUP7 SWAP1 MSTORE PUSH1 0x24 SWAP1 REVERT JUMPDEST SWAP1 POP CALLVALUE PUSH2 0xD8E JUMPI PUSH1 0x80 CALLDATASIZE PUSH1 0x3 NOT ADD SLT PUSH2 0xD8E JUMPI PUSH1 0x4 CALLDATALOAD SWAP1 PUSH4 0xFFFFFFFF SWAP1 PUSH1 0x24 CALLDATALOAD DUP3 DUP2 AND DUP2 SUB PUSH2 0xD8A JUMPI PUSH1 0x44 CALLDATALOAD SWAP2 DUP4 DUP4 AND DUP4 SUB PUSH2 0xD86 JUMPI PUSH1 0x64 CALLDATALOAD DUP5 DUP2 AND DUP2 SUB PUSH2 0xD82 JUMPI CALLER DUP8 MSTORE PUSH1 0x20 SWAP2 PUSH1 0x4 DUP4 MSTORE PUSH1 0xFF PUSH1 0x40 DUP10 KECCAK256 SLOAD AND ISZERO DUP1 PUSH2 0xD6E JUMPI JUMPDEST PUSH2 0xD59 JUMPI POP DUP6 DUP8 MSTORE PUSH1 0x3 DUP3 MSTORE PUSH1 0x40 DUP8 KECCAK256 PUSH1 0x1 PUSH1 0x1 PUSH1 0x40 SHL SUB DUP2 SLOAD PUSH1 0xA0 SHR AND ISZERO PUSH2 0xD40 JUMPI SWAP5 DUP1 SWAP4 DUP2 SWAP4 PUSH1 0xA0 SWAP7 SWAP4 PUSH12 0xFFFFFFFF0000000000000000 PUSH2 0xCB9 PUSH8 0xFFFFFFFF00000000 PUSH2 0xC9B DUP8 PUSH2 0xC86 PUSH1 0x5 PUSH32 0xC0AF51C21917D3EC881A16C91E89B23E795ADA618D453130B1986C332A6083AB SWAP16 ADD SWAP9 DUP10 SLOAD SWAP14 DUP15 AND PUSH2 0xF98 JUMP JUMPDEST AND SWAP9 PUSH4 0xFFFFFFFF NOT DUP13 AND DUP11 OR DUP8 SHR DUP10 AND PUSH2 0xF98 JUMP JUMPDEST DUP6 SHL AND SWAP3 PUSH8 0xFFFFFFFFFFFFFFFF NOT DUP11 AND DUP9 OR DUP5 OR PUSH1 0x40 SHR DUP8 AND PUSH2 0xF98 JUMP JUMPDEST PUSH1 0x40 SHL AND DUP1 DUP7 PUSH12 0xFFFFFFFFFFFFFFFFFFFFFFFF NOT DUP11 AND OR DUP4 OR OR PUSH2 0xCEE PUSH2 0xFFFF PUSH1 0x60 SHL SWAP2 DUP8 DUP1 DUP3 PUSH1 0x40 SHR AND SWAP2 DUP8 SHR AND DUP10 PUSH2 0xFC6 JUMP JUMPDEST PUSH1 0x60 SHL AND SWAP2 DUP7 PUSH14 0xFFFFFFFFFFFFFFFFFFFFFFFFFFFF NOT DUP11 AND OR OR OR OR SWAP4 DUP5 DUP1 SWAP4 SSTORE PUSH1 0x40 MLOAD SWAP7 PUSH2 0xFFFF DUP1 SWAP2 PUSH1 0x60 SHR AND DUP9 MSTORE DUP4 PUSH1 0x60 SHR AND DUP3 DUP9 ADD MSTORE PUSH1 0x40 DUP8 ADD MSTORE SHR AND PUSH1 0x60 DUP5 ADD MSTORE PUSH1 0x40 SHR AND PUSH1 0x80 DUP3 ADD MSTORE LOG2 DUP1 RETURN JUMPDEST PUSH1 0x40 MLOAD PUSH4 0xE5AAB9E5 PUSH1 0xE0 SHL DUP2 MSTORE PUSH1 0x4 DUP2 ADD DUP9 SWAP1 MSTORE PUSH1 0x24 SWAP1 REVERT JUMPDEST PUSH4 0x18856B87 PUSH1 0xE1 SHL DUP2 MSTORE CALLER PUSH1 0x4 DUP3 ADD MSTORE PUSH1 0x24 SWAP1 REVERT JUMPDEST POP DUP8 SLOAD PUSH1 0x1 PUSH1 0x1 PUSH1 0xA0 SHL SUB AND CALLER EQ ISZERO PUSH2 0xC0A JUMP JUMPDEST DUP7 DUP1 REVERT JUMPDEST DUP6 DUP1 REVERT JUMPDEST DUP5 DUP1 REVERT JUMPDEST POP DUP1 REVERT JUMPDEST CALLVALUE PUSH2 0xDC6 JUMPI PUSH1 0x20 CALLDATASIZE PUSH1 0x3 NOT ADD SLT PUSH2 0xDC6 JUMPI PUSH1 0x4 CALLDATALOAD PUSH1 0x0 MSTORE PUSH1 0x3 PUSH1 0x20 MSTORE PUSH1 0x20 PUSH1 0xFF PUSH1 0x3 PUSH1 0x40 PUSH1 0x0 KECCAK256 ADD SLOAD AND PUSH1 0x40 MLOAD SWAP1 ISZERO ISZERO DUP2 MSTORE RETURN JUMPDEST PUSH1 0x0 DUP1 REVERT JUMPDEST PUSH1 0x4 CALLDATALOAD SWAP1 PUSH1 0x1 PUSH1 0x1 PUSH1 0xA0 SHL SUB DUP3 AND DUP3 SUB PUSH2 0xDC6 JUMPI JUMP JUMPDEST SWAP1 PUSH1 0x20 PUSH1 0x3 NOT DUP4 ADD SLT PUSH2 0xDC6 JUMPI PUSH1 0x4 CALLDATALOAD PUSH1 0x1 PUSH1 0x1 PUSH1 0x40 SHL SUB SWAP3 DUP4 DUP3 GT PUSH2 0xDC6 JUMPI DUP1 PUSH1 0x23 DUP4 ADD SLT ISZERO PUSH2 0xDC6 JUMPI DUP2 PUSH1 0x4 ADD CALLDATALOAD SWAP4 DUP5 GT PUSH2 0xDC6 JUMPI PUSH1 0x24 DUP5 DUP4 ADD ADD GT PUSH2 0xDC6 JUMPI PUSH1 0x24 ADD SWAP2 SWAP1 JUMP JUMPDEST SWAP2 SWAP1 DUP3 MLOAD SWAP3 DUP4 DUP3 MSTORE PUSH1 0x0 JUMPDEST DUP5 DUP2 LT PUSH2 0xE56 JUMPI POP POP DUP3 PUSH1 0x0 PUSH1 0x20 DUP1 SWAP5 SWAP6 DUP5 ADD ADD MSTORE PUSH1 0x1F DUP1 NOT SWAP2 ADD AND ADD ADD SWAP1 JUMP JUMPDEST PUSH1 0x20 DUP2 DUP4 ADD DUP2 ADD MLOAD DUP5 DUP4 ADD DUP3 ADD MSTORE ADD PUSH2 0xE35 JUMP JUMPDEST PUSH1 0x0 SLOAD PUSH1 0x1 PUSH1 0x1 PUSH1 0xA0 SHL SUB AND CALLER SUB PUSH2 0xE7E JUMPI JUMP JUMPDEST PUSH1 0x40 MLOAD PUSH4 0x118CDAA7 PUSH1 0xE0 SHL DUP2 MSTORE CALLER PUSH1 0x4 DUP3 ADD MSTORE PUSH1 0x24 SWAP1 REVERT JUMPDEST PUSH1 0x2 PUSH1 0x1 SLOAD EQ PUSH2 0xEA7 JUMPI PUSH1 0x2 PUSH1 0x1 SSTORE JUMP JUMPDEST PUSH1 0x40 MLOAD PUSH4 0x3EE5AEB5 PUSH1 0xE0 SHL DUP2 MSTORE PUSH1 0x4 SWAP1 REVERT JUMPDEST PUSH2 0x140 DUP2 ADD SWAP1 DUP2 LT PUSH1 0x1 PUSH1 0x1 PUSH1 0x40 SHL SUB DUP3 GT OR PUSH2 0xED5 JUMPI PUSH1 0x40 MSTORE JUMP JUMPDEST PUSH4 0x4E487B71 PUSH1 0xE0 SHL PUSH1 0x0 MSTORE PUSH1 0x41 PUSH1 0x4 MSTORE PUSH1 0x24 PUSH1 0x0 REVERT JUMPDEST SWAP1 PUSH1 0x1F DUP1 NOT SWAP2 ADD AND DUP2 ADD SWAP1 DUP2 LT PUSH1 0x1 PUSH1 0x1 PUSH1 0x40 SHL SUB DUP3 GT OR PUSH2 0xED5 JUMPI PUSH1 0x40 MSTORE JUMP JUMPDEST PUSH1 0x1 PUSH1 0x1 PUSH1 0x40 SHL SUB DUP2 GT PUSH2 0xED5 JUMPI PUSH1 0x1F ADD PUSH1 0x1F NOT AND PUSH1 0x20 ADD SWAP1 JUMP JUMPDEST SWAP3 SWAP2 SWAP3 PUSH2 0xF33 DUP3 PUSH2 0xF0C JUMP JUMPDEST SWAP2 PUSH2 0xF41 PUSH1 0x40 MLOAD SWAP4 DUP5 PUSH2 0xEEB JUMP JUMPDEST DUP3 SWAP5 DUP2 DUP5 MSTORE DUP2 DUP4 ADD GT PUSH2 0xDC6 JUMPI DUP3 DUP2 PUSH1 0x20 SWAP4 DUP5 PUSH1 0x0 SWAP7 ADD CALLDATACOPY ADD ADD MSTORE JUMP JUMPDEST SWAP1 PUSH1 0x1 DUP3 DUP2 SHR SWAP3 AND DUP1 ISZERO PUSH2 0xF8E JUMPI JUMPDEST PUSH1 0x20 DUP4 LT EQ PUSH2 0xF78 JUMPI JUMP JUMPDEST PUSH4 0x4E487B71 PUSH1 0xE0 SHL PUSH1 0x0 MSTORE PUSH1 0x22 PUSH1 0x4 MSTORE PUSH1 0x24 PUSH1 0x0 REVERT JUMPDEST SWAP2 PUSH1 0x7F AND SWAP2 PUSH2 0xF6D JUMP JUMPDEST SWAP2 SWAP1 SWAP2 PUSH4 0xFFFFFFFF DUP1 DUP1 SWAP5 AND SWAP2 AND ADD SWAP2 DUP3 GT PUSH2 0xFB0 JUMPI JUMP JUMPDEST PUSH4 0x4E487B71 PUSH1 0xE0 SHL PUSH1 0x0 MSTORE PUSH1 0x11 PUSH1 0x4 MSTORE PUSH1 0x24 PUSH1 0x0 REVERT JUMPDEST PUSH2 0x2710 SWAP3 SWAP2 SWAP1 PUSH4 0xFFFFFFFF SWAP1 DUP2 AND DUP5 DUP2 GT ISZERO PUSH2 0x1084 JUMPI POP DUP4 SWAP3 JUMPDEST PUSH5 0x1FFFFFFFE DUP3 DUP5 AND SWAP4 PUSH1 0x1 SHL AND SWAP3 DUP1 DUP5 DIV PUSH1 0x2 EQ SWAP1 ISZERO OR ISZERO PUSH2 0xFB0 JUMPI AND SWAP1 PUSH1 0xA DUP3 MUL SWAP2 DUP1 DUP4 DIV PUSH1 0xA EQ SWAP1 ISZERO OR ISZERO PUSH2 0xFB0 JUMPI DUP3 ADD DUP1 SWAP3 GT PUSH2 0xFB0 JUMPI DUP2 DUP2 LT ISZERO PUSH2 0x107C JUMPI DUP1 DUP3 SUB SWAP2 DUP1 DUP4 GT PUSH2 0xFB0 JUMPI DUP3 DUP5 MUL SWAP2 EQ DUP3 DUP3 DIV DUP5 EQ OR ISZERO PUSH2 0xFB0 JUMPI PUSH2 0x3E8 DUP3 ADD DUP1 SWAP3 GT PUSH2 0xFB0 JUMPI DUP2 ISZERO PUSH2 0x1066 JUMPI DIV DUP2 DUP2 GT ISZERO PUSH2 0x105D JUMPI POP SWAP1 JUMP JUMPDEST PUSH2 0xFFFF SWAP2 POP AND SWAP1 JUMP JUMPDEST PUSH4 0x4E487B71 PUSH1 0xE0 SHL PUSH1 0x0 MSTORE PUSH1 0x12 PUSH1 0x4 MSTORE PUSH1 0x24 PUSH1 0x0 REVERT JUMPDEST POP POP POP PUSH1 0x0 SWAP1 JUMP JUMPDEST SWAP3 PUSH2 0xFE0 JUMP JUMPDEST SWAP1 PUSH1 0x40 MLOAD SWAP2 DUP3 PUSH1 0x0 DUP3 SLOAD SWAP3 PUSH2 0x109E DUP5 PUSH2 0xF5E JUMP JUMPDEST SWAP1 DUP2 DUP5 MSTORE PUSH1 0x1 SWAP5 DUP6 DUP2 AND SWAP1 DUP2 PUSH1 0x0 EQ PUSH2 0x110D JUMPI POP PUSH1 0x1 EQ PUSH2 0x10CA JUMPI JUMPDEST POP POP PUSH2 0x10C8 SWAP3 POP SUB DUP4 PUSH2 0xEEB JUMP JUMPDEST JUMP JUMPDEST SWAP1 SWAP4 SWAP2 POP PUSH1 0x0 MSTORE PUSH1 0x20 SWAP1 DUP2 PUSH1 0x0 KECCAK256 SWAP4 PUSH1 0x0 SWAP2 JUMPDEST DUP2 DUP4 LT PUSH2 0x10F5 JUMPI POP POP PUSH2 0x10C8 SWAP4 POP DUP3 ADD ADD CODESIZE DUP1 PUSH2 0x10BA JUMP JUMPDEST DUP6 SLOAD DUP9 DUP5 ADD DUP6 ADD MSTORE SWAP5 DUP6 ADD SWAP5 DUP8 SWAP5 POP SWAP2 DUP4 ADD SWAP2 PUSH2 0x10DD JUMP JUMPDEST SWAP2 POP POP PUSH2 0x10C8 SWAP5 POP PUSH1 0x20 SWAP3 POP PUSH1 0xFF NOT AND DUP3 DUP5 ADD MSTORE ISZERO ISZERO PUSH1 0x5 SHL DUP3 ADD ADD CODESIZE DUP1 PUSH2 0x10BA JUMP INVALID LOG2 PUSH5 0x6970667358 0x22 SLT KECCAK256 0xE STOP PUSH5 0xEEA6E5FC29 DUP6 DUP5 JUMPDEST 0x24 0xDC COINBASE SWAP16 0xE2 DUP15 LOG3 0xBD GAS 0xE5 DUP5 0xC9 DUP10 0x23 PUSH7 0x7DFD4C6CAB6D64 PUSH20 0x6F6C634300081400330000000000000000000000 "},"methodIdentifiers":{"DEACTIVATION_COOLDOWN()":"ec5760d3","MAX_REPUTATION()":"d213c0f2","PUBKEY_LENGTH()":"a4d55d1d","canClaimBounty(bytes32)":"1f9b019b","computeDeviceId(bytes)":"9f14f884","deactivateDevice(bytes32)":"0766e845","deviceCount()":"535bca9a","getDeviceInfo(bytes32)":"59d902ed","getDevicePubkey(bytes32)":"804ad249","getReputationScore(bytes32)":"739ad43c","isDeviceActive(bytes32)":"5ec8fe6b","minimumDeposit()":"636bfbab","owner()":"8da5cb5b","registerDevice(bytes)":"4a5f16e9","renounceOwnership()":"715018a6","reputationUpdaters(address)":"3050a73d","setMinimumDeposit(uint256)":"e78ec42e","setReputationUpdater(address,bool)":"ac72ab29","transferOwnership(address)":"f2fde38b","updateReputation(bytes32,uint32,uint32,uint32)":"07567c75","withdrawDeposit(bytes32)":"a8e06bc3"}}}}}