{"contracts/SkillOracle.sol":{"SkillOracle":{"abi":[{"inputs":[{"internalType":"address","name":"_poACVerifier","type":"address"}],"stateMutability":"nonpayable","type":"constructor"},{"inputs":[{"internalType":"address","name":"owner","type":"address"}],"name":"OwnableInvalidOwner","type":"error"},{"inputs":[{"internalType":"address","name":"account","type":"address"}],"name":"OwnableUnauthorizedAccount","type":"error"},{"inputs":[{"internalType":"bytes32","name":"deviceId","type":"bytes32"},{"internalType":"uint256","name":"currentBlock","type":"uint256"},{"internalType":"uint256","name":"nextAllowedBlock","type":"uint256"}],"name":"RateLimitExceeded","type":"error"},{"inputs":[{"internalType":"bytes32","name":"recordHash","type":"bytes32"}],"name":"RecordAlreadyProcessed","type":"error"},{"inputs":[{"internalType":"bytes32","name":"recordHash","type":"bytes32"}],"name":"RecordNotVerified","type":"error"},{"anonymous":false,"inputs":[{"indexed":true,"internalType":"address","name":"previousOwner","type":"address"},{"indexed":true,"internalType":"address","name":"newOwner","type":"address"}],"name":"OwnershipTransferred","type":"event"},{"anonymous":false,"inputs":[{"indexed":true,"internalType":"bytes32","name":"deviceId","type":"bytes32"},{"indexed":false,"internalType":"uint32","name":"oldRating","type":"uint32"},{"indexed":false,"internalType":"uint32","name":"newRating","type":"uint32"},{"indexed":false,"internalType":"enum SkillOracle.SkillTier","name":"tier","type":"uint8"},{"indexed":false,"internalType":"uint32","name":"gamesPlayed","type":"uint32"}],"name":"SkillRatingUpdated","type":"event"},{"inputs":[],"name":"CHEAT_PENALTY","outputs":[{"internalType":"uint32","name":"","type":"uint32"}],"stateMutability":"view","type":"function"},{"inputs":[],"name":"DEFAULT_MIN_INTERVAL","outputs":[{"internalType":"uint256","name":"","type":"uint256"}],"stateMutability":"view","type":"function"},{"inputs":[],"name":"INFER_CHEAT_MAX","outputs":[{"internalType":"uint8","name":"","type":"uint8"}],"stateMutability":"view","type":"function"},{"inputs":[],"name":"INFER_CHEAT_MIN","outputs":[{"internalType":"uint8","name":"","type":"uint8"}],"stateMutability":"view","type":"function"},{"inputs":[],"name":"INFER_NOMINAL","outputs":[{"internalType":"uint8","name":"","type":"uint8"}],"stateMutability":"view","type":"function"},{"inputs":[],"name":"INFER_SKILLED","outputs":[{"internalType":"uint8","name":"","type":"uint8"}],"stateMutability":"view","type":"function"},{"inputs":[],"name":"INITIAL_RATING","outputs":[{"internalType":"uint32","name":"","type":"uint32"}],"stateMutability":"view","type":"function"},{"inputs":[],"name":"MAX_RATING","outputs":[{"internalType":"uint32","name":"","type":"uint32"}],"stateMutability":"view","type":"function"},{"inputs":[],"name":"NOMINAL_GAIN","outputs":[{"internalType":"uint32","name":"","type":"uint32"}],"stateMutability":"view","type":"function"},{"inputs":[],"name":"SKILLED_GAIN","outputs":[{"internalType":"uint32","name":"","type":"uint32"}],"stateMutability":"view","type":"function"},{"inputs":[{"internalType":"bytes32","name":"_deviceId","type":"bytes32"}],"name":"getSkillProfile","outputs":[{"components":[{"internalType":"uint32","name":"rating","type":"uint32"},{"internalType":"uint32","name":"gamesPlayed","type":"uint32"},{"internalType":"uint32","name":"cleanGames","type":"uint32"},{"internalType":"uint32","name":"cheatFlags","type":"uint32"},{"internalType":"uint64","name":"lastUpdated","type":"uint64"},{"internalType":"bool","name":"initialized","type":"bool"}],"internalType":"struct SkillOracle.SkillProfile","name":"","type":"tuple"}],"stateMutability":"view","type":"function"},{"inputs":[{"internalType":"bytes32","name":"_deviceId","type":"bytes32"}],"name":"getSkillRating","outputs":[{"internalType":"uint32","name":"rating","type":"uint32"},{"internalType":"uint32","name":"gamesPlayed","type":"uint32"},{"internalType":"uint64","name":"lastUpdated","type":"uint64"}],"stateMutability":"view","type":"function"},{"inputs":[{"internalType":"bytes32","name":"_deviceId","type":"bytes32"}],"name":"getSkillTier","outputs":[{"internalType":"enum SkillOracle.SkillTier","name":"","type":"uint8"}],"stateMutability":"view","type":"function"},{"inputs":[],"name":"minUpdateInterval","outputs":[{"internalType":"uint256","name":"","type":"uint256"}],"stateMutability":"view","type":"function"},{"inputs":[],"name":"owner","outputs":[{"internalType":"address","name":"","type":"address"}],"stateMutability":"view","type":"function"},{"inputs":[],"name":"poACVerifier","outputs":[{"internalType":"contract PoACVerifier","name":"","type":"address"}],"stateMutability":"view","type":"function"},{"inputs":[{"internalType":"bytes32","name":"","type":"bytes32"}],"name":"processedRecords","outputs":[{"internalType":"bool","name":"","type":"bool"}],"stateMutability":"view","type":"function"},{"inputs":[],"name":"renounceOwnership","outputs":[],"stateMutability":"nonpayable","type":"function"},{"inputs":[{"internalType":"uint256","name":"_blocks","type":"uint256"}],"name":"setMinUpdateInterval","outputs":[],"stateMutability":"nonpayable","type":"function"},{"inputs":[],"name":"totalProfileCount","outputs":[{"internalType":"uint256","name":"","type":"uint256"}],"stateMutability":"view","type":"function"},{"inputs":[{"internalType":"address","name":"newOwner","type":"address"}],"name":"transferOwnership","outputs":[],"stateMutability":"nonpayable","type":"function"},{"inputs":[{"internalType":"bytes32","name":"_deviceId","type":"bytes32"},{"internalType":"bytes32","name":"_recordHash","type":"bytes32"},{"internalType":"uint8","name":"_inferenceResult","type":"uint8"},{"internalType":"uint8","name":"_confidence","type":"uint8"}],"name":"updateSkillRating","outputs":[],"stateMutability":"nonpayable","type":"function"}],"evm":{"bytecode":{"linkReferences":{},"object":"6080346100cb57601f610c4038819003918201601f19168301916001600160401b038311848410176100d0578084926020946040528339810103126100cb57516001600160a01b0390818116908190036100cb5733156100b25760005460018060a01b0319903382821617600055604051933391167f8be0079c531659141344cd1fd0a4f28419497f9722a3daafe3b4186f6b6457e0600080a360015416176001556001600555610b5990816100e78239f35b604051631e4fbdf760e01b815260006004820152602490fd5b600080fd5b634e487b7160e01b600052604160045260246000fdfe608060408181526004908136101561001657600080fd5b600092833560e01c90816303ba778b146109cd575080630964ff26146109ae5780630ac383251461099257806319fe084714610945578063333602841461092957806349da9bb6146108ec5780634e14a583146108ca578063715018a61461086d5780637532fd721461085157806378ac6906146108365780637c2b86dc146108195780637ca6def4146103935780638da5cb5b1461036b5780638e7a445d1461033e57806394e113ea14610321578063ad4c3e1214610305578063b47ddfe5146102e9578063b6502152146102cd578063cac282c2146101ef578063ef427e77146101d3578063f1cf7905146101a65763f2fde38b1461011657600080fd5b346101a25760203660031901126101a2576001600160a01b0382358181169391929084900361019e57610147610a0c565b831561018857505082546001600160a01b0319811683178455167f8be0079c531659141344cd1fd0a4f28419497f9722a3daafe3b4186f6b6457e08380a380f35b51631e4fbdf760e01b8152908101849052602490fd5b8480fd5b8280fd5b8382346101cf57816003193601126101cf5760015490516001600160a01b039091168152602090f35b5080fd5b8382346101cf57816003193601126101cf576020905160058152f35b5090346101a257602090816003193601126102c95783839160c09560a0845161021781610a38565b82815282878201528286820152826060820152826080820152015235815260028352209082519161024783610a38565b5491829163ffffffff908184169586845282828501928187821c168452828601908288851c168252826060880195818a60601c16875260ff60a060808b019a67ffffffffffffffff809d60801c168c52019b8e1c1615158b5285519b8c525116908a0152511690870152511660608501525116608083015251151560a0820152f35b8380fd5b8382346101cf57816003193601126101cf576020905160228152f35b8382346101cf57816003193601126101cf576020905160018152f35b8382346101cf57816003193601126101cf576020905160218152f35b8382346101cf57816003193601126101cf5760209051610bb88152f35b5090346101a25760203660031901126101a2578160209360ff923581526003855220541690519015158152f35b8382346101cf57816003193601126101cf57905490516001600160a01b039091168152602090f35b50346101a25760803660031901126101a257813591602480356044359360ff92838616809603610815576064359484861680960361081157600154835163488dbfad60e01b81528281018690526020959186908290869082906001600160a01b03165afa908115610807578b916107a4575b501561079257808a526003855285848b20541661078057888a5260068552838a20548015158061076c575b61073d5750895260038452828920600160ff198254161790558789526006845243838a205560028452828920948554818160c01c16156106fc575b5085549663ffffffff97888116996022811015806106f1575b156105e85750505050845463ffffffff60601b6104a5888360601c16610aa5565b60601b16908163ffffffff60601b19821617875560c8888216116000146105ae57505084549186831660c719019187831161059d575050600080516020610b0483398151915296949286949260809761058193169063ffffffff19161784555b8354610bb890818782161161058c575b505084845467ffffffff000000006105308383881c16610aa5565b861b1667ffffffffffffffff8a1b428b1b169077ffffffffffffffff0000000000000000ffffffff000000001983161717809655169061056f82610aba565b918151978852848801528601906109e9565b1c166060820152a280f35b63ffffffff19161784553880610515565b634e487b7160e01b8b526011905289fd5b608097959350610581925090600080516020610b04833981519152989694916fffffffff0000000000000000ffffffff1916178455610505565b92949260210361068c5750600c029187831692830361059d575050600080516020610b04833981519152969492866080979593610581930481811615610684575b816106559161067f93610640895492828416610a8d565b169063ffffffff191617808855841c16610aa5565b85546bffffffff0000000000000000191660409190911b6bffffffff000000000000000016178555565b610505565b506001610629565b93929190600502918883169283036106e05750509261067f6106558880979560809a61058196600080516020610b048339815191529d9b9904818116156106d8575b610640908c610a8d565b5060016106ce565b634e487b7160e01b8c52601190528afd5b506029811115610484565b63ffffffff60ff60c01b0119166103e8600160c01b011786558154600019811461072b5760010182553861046b565b634e487b7160e01b8b5260118352838bfd5b8285858c61075060649560055490610a6a565b925163d0d0f21160e01b81529384015243908301526044820152fd5b5061077960055482610a6a565b4310610430565b8351634b50100d60e01b815291820152fd5b8351632047f23560e21b815291820152fd5b9050853d8711610800575b601f8101601f1916820167ffffffffffffffff8111838210176107ee57879183918852810103126107ea575180151581036107ea5738610405565b8a80fd5b634e487b7160e01b8d5260418552858dfd5b503d6107af565b85513d8d823e3d90fd5b8880fd5b8780fd5b8382346101cf57816003193601126101cf57602090516103e88152f35b8382346101cf57816003193601126101cf5760209051818152f35b8382346101cf57816003193601126101cf576020905160c88152f35b83346108c757806003193601126108c757610886610a0c565b80546001600160a01b03198116825581906001600160a01b03167f8be0079c531659141344cd1fd0a4f28419497f9722a3daafe3b4186f6b6457e08280a380f35b80fd5b5050346101cf5760203660031901126101cf576108e5610a0c565b3560055580f35b5090346101a25760203660031901126101a25761091e63ffffffff836020956109279435815260028752205416610aba565b915180926109e9565bf35b8382346101cf57816003193601126101cf576020905160298152f35b5090346101a25760203660031901126101a2576060928291358152600260205220549067ffffffffffffffff81519263ffffffff80821685528160201c16602085015260801c1690820152f35b8382346101cf57816003193601126101cf5760209051600c8152f35b8382346101cf57816003193601126101cf576020906005549051908152f35b849084346101a257826003193601126101a25760209250548152f35b9060058210156109f65752565b634e487b7160e01b600052602160045260246000fd5b6000546001600160a01b03163303610a2057565b60405163118cdaa760e01b8152336004820152602490fd5b60c0810190811067ffffffffffffffff821117610a5457604052565b634e487b7160e01b600052604160045260246000fd5b91908201809211610a7757565b634e487b7160e01b600052601160045260246000fd5b91909163ffffffff80809416911601918211610a7757565b63ffffffff809116908114610a775760010190565b63ffffffff166109c4811015610afd576107d0811015610af7576105dc811015610af1576103e81115610aec57600090565b600190565b50600290565b50600390565b5060049056fe6c69f62ab6bd266d969493534ebef16abed1a687b638b710d1b1409470306ffca2646970667358221220c1f43e96b940de22a3d7682f622a41502fc886b3387c37eabc60bbd6a151b38464736f6c63430008140033","opcodes":"PUSH1 0x80 CALLVALUE PUSH2 0xCB JUMPI PUSH1 0x1F PUSH2 0xC40 CODESIZE DUP2 SWAP1 SUB SWAP2 DUP3 ADD PUSH1 0x1F NOT AND DUP4 ADD SWAP2 PUSH1 0x1 PUSH1 0x1 PUSH1 0x40 SHL SUB DUP4 GT DUP5 DUP5 LT OR PUSH2 0xD0 JUMPI DUP1 DUP5 SWAP3 PUSH1 0x20 SWAP5 PUSH1 0x40 MSTORE DUP4 CODECOPY DUP2 ADD SUB SLT PUSH2 0xCB JUMPI MLOAD PUSH1 0x1 PUSH1 0x1 PUSH1 0xA0 SHL SUB SWAP1 DUP2 DUP2 AND SWAP1 DUP2 SWAP1 SUB PUSH2 0xCB JUMPI CALLER ISZERO PUSH2 0xB2 JUMPI PUSH1 0x0 SLOAD PUSH1 0x1 DUP1 PUSH1 0xA0 SHL SUB NOT SWAP1 CALLER DUP3 DUP3 AND OR PUSH1 0x0 SSTORE PUSH1 0x40 MLOAD SWAP4 CALLER SWAP2 AND PUSH32 0x8BE0079C531659141344CD1FD0A4F28419497F9722A3DAAFE3B4186F6B6457E0 PUSH1 0x0 DUP1 LOG3 PUSH1 0x1 SLOAD AND OR PUSH1 0x1 SSTORE PUSH1 0x1 PUSH1 0x5 SSTORE PUSH2 0xB59 SWAP1 DUP2 PUSH2 0xE7 DUP3 CODECOPY RETURN JUMPDEST PUSH1 0x40 MLOAD PUSH4 0x1E4FBDF7 PUSH1 0xE0 SHL DUP2 MSTORE PUSH1 0x0 PUSH1 0x4 DUP3 ADD MSTORE PUSH1 0x24 SWAP1 REVERT JUMPDEST PUSH1 0x0 DUP1 REVERT JUMPDEST PUSH4 0x4E487B71 PUSH1 0xE0 SHL PUSH1 0x0 MSTORE PUSH1 0x41 PUSH1 0x4 MSTORE PUSH1 0x24 PUSH1 0x0 REVERT INVALID PUSH1 0x80 PUSH1 0x40 DUP2 DUP2 MSTORE PUSH1 0x4 SWAP1 DUP2 CALLDATASIZE LT ISZERO PUSH2 0x16 JUMPI PUSH1 0x0 DUP1 REVERT JUMPDEST PUSH1 0x0 SWAP3 DUP4 CALLDATALOAD PUSH1 0xE0 SHR SWAP1 DUP2 PUSH4 0x3BA778B EQ PUSH2 0x9CD JUMPI POP DUP1 PUSH4 0x964FF26 EQ PUSH2 0x9AE JUMPI DUP1 PUSH4 0xAC38325 EQ PUSH2 0x992 JUMPI DUP1 PUSH4 0x19FE0847 EQ PUSH2 0x945 JUMPI DUP1 PUSH4 0x33360284 EQ PUSH2 0x929 JUMPI DUP1 PUSH4 0x49DA9BB6 EQ PUSH2 0x8EC JUMPI DUP1 PUSH4 0x4E14A583 EQ PUSH2 0x8CA JUMPI DUP1 PUSH4 0x715018A6 EQ PUSH2 0x86D JUMPI DUP1 PUSH4 0x7532FD72 EQ PUSH2 0x851 JUMPI DUP1 PUSH4 0x78AC6906 EQ PUSH2 0x836 JUMPI DUP1 PUSH4 0x7C2B86DC EQ PUSH2 0x819 JUMPI DUP1 PUSH4 0x7CA6DEF4 EQ PUSH2 0x393 JUMPI DUP1 PUSH4 0x8DA5CB5B EQ PUSH2 0x36B JUMPI DUP1 PUSH4 0x8E7A445D EQ PUSH2 0x33E JUMPI DUP1 PUSH4 0x94E113EA EQ PUSH2 0x321 JUMPI DUP1 PUSH4 0xAD4C3E12 EQ PUSH2 0x305 JUMPI DUP1 PUSH4 0xB47DDFE5 EQ PUSH2 0x2E9 JUMPI DUP1 PUSH4 0xB6502152 EQ PUSH2 0x2CD JUMPI DUP1 PUSH4 0xCAC282C2 EQ PUSH2 0x1EF JUMPI DUP1 PUSH4 0xEF427E77 EQ PUSH2 0x1D3 JUMPI DUP1 PUSH4 0xF1CF7905 EQ PUSH2 0x1A6 JUMPI PUSH4 0xF2FDE38B EQ PUSH2 0x116 JUMPI PUSH1 0x0 DUP1 REVERT JUMPDEST CALLVALUE PUSH2 0x1A2 JUMPI PUSH1 0x20 CALLDATASIZE PUSH1 0x3 NOT ADD SLT PUSH2 0x1A2 JUMPI PUSH1 0x1 PUSH1 0x1 PUSH1 0xA0 SHL SUB DUP3 CALLDATALOAD DUP2 DUP2 AND SWAP4 SWAP2 SWAP3 SWAP1 DUP5 SWAP1 SUB PUSH2 0x19E JUMPI PUSH2 0x147 PUSH2 0xA0C JUMP JUMPDEST DUP4 ISZERO PUSH2 0x188 JUMPI POP POP DUP3 SLOAD PUSH1 0x1 PUSH1 0x1 PUSH1 0xA0 SHL SUB NOT DUP2 AND DUP4 OR DUP5 SSTORE AND PUSH32 0x8BE0079C531659141344CD1FD0A4F28419497F9722A3DAAFE3B4186F6B6457E0 DUP4 DUP1 LOG3 DUP1 RETURN JUMPDEST MLOAD PUSH4 0x1E4FBDF7 PUSH1 0xE0 SHL DUP2 MSTORE SWAP1 DUP2 ADD DUP5 SWAP1 MSTORE PUSH1 0x24 SWAP1 REVERT JUMPDEST DUP5 DUP1 REVERT JUMPDEST DUP3 DUP1 REVERT JUMPDEST DUP4 DUP3 CALLVALUE PUSH2 0x1CF JUMPI DUP2 PUSH1 0x3 NOT CALLDATASIZE ADD SLT PUSH2 0x1CF JUMPI PUSH1 0x1 SLOAD SWAP1 MLOAD PUSH1 0x1 PUSH1 0x1 PUSH1 0xA0 SHL SUB SWAP1 SWAP2 AND DUP2 MSTORE PUSH1 0x20 SWAP1 RETURN JUMPDEST POP DUP1 REVERT JUMPDEST DUP4 DUP3 CALLVALUE PUSH2 0x1CF JUMPI DUP2 PUSH1 0x3 NOT CALLDATASIZE ADD SLT PUSH2 0x1CF JUMPI PUSH1 0x20 SWAP1 MLOAD PUSH1 0x5 DUP2 MSTORE RETURN JUMPDEST POP SWAP1 CALLVALUE PUSH2 0x1A2 JUMPI PUSH1 0x20 SWAP1 DUP2 PUSH1 0x3 NOT CALLDATASIZE ADD SLT PUSH2 0x2C9 JUMPI DUP4 DUP4 SWAP2 PUSH1 0xC0 SWAP6 PUSH1 0xA0 DUP5 MLOAD PUSH2 0x217 DUP2 PUSH2 0xA38 JUMP JUMPDEST DUP3 DUP2 MSTORE DUP3 DUP8 DUP3 ADD MSTORE DUP3 DUP7 DUP3 ADD MSTORE DUP3 PUSH1 0x60 DUP3 ADD MSTORE DUP3 PUSH1 0x80 DUP3 ADD MSTORE ADD MSTORE CALLDATALOAD DUP2 MSTORE PUSH1 0x2 DUP4 MSTORE KECCAK256 SWAP1 DUP3 MLOAD SWAP2 PUSH2 0x247 DUP4 PUSH2 0xA38 JUMP JUMPDEST SLOAD SWAP2 DUP3 SWAP2 PUSH4 0xFFFFFFFF SWAP1 DUP2 DUP5 AND SWAP6 DUP7 DUP5 MSTORE DUP3 DUP3 DUP6 ADD SWAP3 DUP2 DUP8 DUP3 SHR AND DUP5 MSTORE DUP3 DUP7 ADD SWAP1 DUP3 DUP9 DUP6 SHR AND DUP3 MSTORE DUP3 PUSH1 0x60 DUP9 ADD SWAP6 DUP2 DUP11 PUSH1 0x60 SHR AND DUP8 MSTORE PUSH1 0xFF PUSH1 0xA0 PUSH1 0x80 DUP12 ADD SWAP11 PUSH8 0xFFFFFFFFFFFFFFFF DUP1 SWAP14 PUSH1 0x80 SHR AND DUP13 MSTORE ADD SWAP12 DUP15 SHR AND ISZERO ISZERO DUP12 MSTORE DUP6 MLOAD SWAP12 DUP13 MSTORE MLOAD AND SWAP1 DUP11 ADD MSTORE MLOAD AND SWAP1 DUP8 ADD MSTORE MLOAD AND PUSH1 0x60 DUP6 ADD MSTORE MLOAD AND PUSH1 0x80 DUP4 ADD MSTORE MLOAD ISZERO ISZERO PUSH1 0xA0 DUP3 ADD MSTORE RETURN JUMPDEST DUP4 DUP1 REVERT JUMPDEST DUP4 DUP3 CALLVALUE PUSH2 0x1CF JUMPI DUP2 PUSH1 0x3 NOT CALLDATASIZE ADD SLT PUSH2 0x1CF JUMPI PUSH1 0x20 SWAP1 MLOAD PUSH1 0x22 DUP2 MSTORE RETURN JUMPDEST DUP4 DUP3 CALLVALUE PUSH2 0x1CF JUMPI DUP2 PUSH1 0x3 NOT CALLDATASIZE ADD SLT PUSH2 0x1CF JUMPI PUSH1 0x20 SWAP1 MLOAD PUSH1 0x1 DUP2 MSTORE RETURN JUMPDEST DUP4 DUP3 CALLVALUE PUSH2 0x1CF JUMPI DUP2 PUSH1 0x3 NOT CALLDATASIZE ADD SLT PUSH2 0x1CF JUMPI PUSH1 0x20 SWAP1 MLOAD PUSH1 0x21 DUP2 MSTORE RETURN JUMPDEST DUP4 DUP3 CALLVALUE PUSH2 0x1CF JUMPI DUP2 PUSH1 0x3 NOT CALLDATASIZE ADD SLT PUSH2 0x1CF JUMPI PUSH1 0x20 SWAP1 MLOAD PUSH2 0xBB8 DUP2 MSTORE RETURN JUMPDEST POP SWAP1 CALLVALUE PUSH2 0x1A2 JUMPI PUSH1 0x20 CALLDATASIZE PUSH1 0x3 NOT ADD SLT PUSH2 0x1A2 JUMPI DUP2 PUSH1 0x20 SWAP4 PUSH1 0xFF SWAP3 CALLDATALOAD DUP2 MSTORE PUSH1 0x3 DUP6 MSTORE KECCAK256 SLOAD AND SWAP1 MLOAD SWAP1 ISZERO ISZERO DUP2 MSTORE RETURN JUMPDEST DUP4 DUP3 CALLVALUE PUSH2 0x1CF JUMPI DUP2 PUSH1 0x3 NOT CALLDATASIZE ADD SLT PUSH2 0x1CF JUMPI SWAP1 SLOAD SWAP1 MLOAD PUSH1 0x1 PUSH1 0x1 PUSH1 0xA0 SHL SUB SWAP1 SWAP2 AND DUP2 MSTORE PUSH1 0x20 SWAP1 RETURN JUMPDEST POP CALLVALUE PUSH2 0x1A2 JUMPI PUSH1 0x80 CALLDATASIZE PUSH1 0x3 NOT ADD SLT PUSH2 0x1A2 JUMPI DUP2 CALLDATALOAD SWAP2 PUSH1 0x24 DUP1 CALLDATALOAD PUSH1 0x44 CALLDATALOAD SWAP4 PUSH1 0xFF SWAP3 DUP4 DUP7 AND DUP1 SWAP7 SUB PUSH2 0x815 JUMPI PUSH1 0x64 CALLDATALOAD SWAP5 DUP5 DUP7 AND DUP1 SWAP7 SUB PUSH2 0x811 JUMPI PUSH1 0x1 SLOAD DUP4 MLOAD PUSH4 0x488DBFAD PUSH1 0xE0 SHL DUP2 MSTORE DUP3 DUP2 ADD DUP7 SWAP1 MSTORE PUSH1 0x20 SWAP6 SWAP2 DUP7 SWAP1 DUP3 SWAP1 DUP7 SWAP1 DUP3 SWAP1 PUSH1 0x1 PUSH1 0x1 PUSH1 0xA0 SHL SUB AND GAS STATICCALL SWAP1 DUP2 ISZERO PUSH2 0x807 JUMPI DUP12 SWAP2 PUSH2 0x7A4 JUMPI JUMPDEST POP ISZERO PUSH2 0x792 JUMPI DUP1 DUP11 MSTORE PUSH1 0x3 DUP6 MSTORE DUP6 DUP5 DUP12 KECCAK256 SLOAD AND PUSH2 0x780 JUMPI DUP9 DUP11 MSTORE PUSH1 0x6 DUP6 MSTORE DUP4 DUP11 KECCAK256 SLOAD DUP1 ISZERO ISZERO DUP1 PUSH2 0x76C JUMPI JUMPDEST PUSH2 0x73D JUMPI POP DUP10 MSTORE PUSH1 0x3 DUP5 MSTORE DUP3 DUP10 KECCAK256 PUSH1 0x1 PUSH1 0xFF NOT DUP3 SLOAD AND OR SWAP1 SSTORE DUP8 DUP10 MSTORE PUSH1 0x6 DUP5 MSTORE NUMBER DUP4 DUP11 KECCAK256 SSTORE PUSH1 0x2 DUP5 MSTORE DUP3 DUP10 KECCAK256 SWAP5 DUP6 SLOAD DUP2 DUP2 PUSH1 0xC0 SHR AND ISZERO PUSH2 0x6FC JUMPI JUMPDEST POP DUP6 SLOAD SWAP7 PUSH4 0xFFFFFFFF SWAP8 DUP9 DUP2 AND SWAP10 PUSH1 0x22 DUP2 LT ISZERO DUP1 PUSH2 0x6F1 JUMPI JUMPDEST ISZERO PUSH2 0x5E8 JUMPI POP POP POP POP DUP5 SLOAD PUSH4 0xFFFFFFFF PUSH1 0x60 SHL PUSH2 0x4A5 DUP9 DUP4 PUSH1 0x60 SHR AND PUSH2 0xAA5 JUMP JUMPDEST PUSH1 0x60 SHL AND SWAP1 DUP2 PUSH4 0xFFFFFFFF PUSH1 0x60 SHL NOT DUP3 AND OR DUP8 SSTORE PUSH1 0xC8 DUP9 DUP3 AND GT PUSH1 0x0 EQ PUSH2 0x5AE JUMPI POP POP DUP5 SLOAD SWAP2 DUP7 DUP4 AND PUSH1 0xC7 NOT ADD SWAP2 DUP8 DUP4 GT PUSH2 0x59D JUMPI POP POP PUSH1 0x0 DUP1 MLOAD PUSH1 0x20 PUSH2 0xB04 DUP4 CODECOPY DUP2 MLOAD SWAP2 MSTORE SWAP7 SWAP5 SWAP3 DUP7 SWAP5 SWAP3 PUSH1 0x80 SWAP8 PUSH2 0x581 SWAP4 AND SWAP1 PUSH4 0xFFFFFFFF NOT AND OR DUP5 SSTORE JUMPDEST DUP4 SLOAD PUSH2 0xBB8 SWAP1 DUP2 DUP8 DUP3 AND GT PUSH2 0x58C JUMPI JUMPDEST POP POP DUP5 DUP5 SLOAD PUSH8 0xFFFFFFFF00000000 PUSH2 0x530 DUP4 DUP4 DUP9 SHR AND PUSH2 0xAA5 JUMP JUMPDEST DUP7 SHL AND PUSH8 0xFFFFFFFFFFFFFFFF DUP11 SHL TIMESTAMP DUP12 SHL AND SWAP1 PUSH24 0xFFFFFFFFFFFFFFFF0000000000000000FFFFFFFF00000000 NOT DUP4 AND OR OR DUP1 SWAP7 SSTORE AND SWAP1 PUSH2 0x56F DUP3 PUSH2 0xABA JUMP JUMPDEST SWAP2 DUP2 MLOAD SWAP8 DUP9 MSTORE DUP5 DUP9 ADD MSTORE DUP7 ADD SWAP1 PUSH2 0x9E9 JUMP JUMPDEST SHR AND PUSH1 0x60 DUP3 ADD MSTORE LOG2 DUP1 RETURN JUMPDEST PUSH4 0xFFFFFFFF NOT AND OR DUP5 SSTORE CODESIZE DUP1 PUSH2 0x515 JUMP JUMPDEST PUSH4 0x4E487B71 PUSH1 0xE0 SHL DUP12 MSTORE PUSH1 0x11 SWAP1 MSTORE DUP10 REVERT JUMPDEST PUSH1 0x80 SWAP8 SWAP6 SWAP4 POP PUSH2 0x581 SWAP3 POP SWAP1 PUSH1 0x0 DUP1 MLOAD PUSH1 0x20 PUSH2 0xB04 DUP4 CODECOPY DUP2 MLOAD SWAP2 MSTORE SWAP9 SWAP7 SWAP5 SWAP2 PUSH16 0xFFFFFFFF0000000000000000FFFFFFFF NOT AND OR DUP5 SSTORE PUSH2 0x505 JUMP JUMPDEST SWAP3 SWAP5 SWAP3 PUSH1 0x21 SUB PUSH2 0x68C JUMPI POP PUSH1 0xC MUL SWAP2 DUP8 DUP4 AND SWAP3 DUP4 SUB PUSH2 0x59D JUMPI POP POP PUSH1 0x0 DUP1 MLOAD PUSH1 0x20 PUSH2 0xB04 DUP4 CODECOPY DUP2 MLOAD SWAP2 MSTORE SWAP7 SWAP5 SWAP3 DUP7 PUSH1 0x80 SWAP8 SWAP6 SWAP4 PUSH2 0x581 SWAP4 DIV DUP2 DUP2 AND ISZERO PUSH2 0x684 JUMPI JUMPDEST DUP2 PUSH2 0x655 SWAP2 PUSH2 0x67F SWAP4 PUSH2 0x640 DUP10 SLOAD SWAP3 DUP3 DUP5 AND PUSH2 0xA8D JUMP JUMPDEST AND SWAP1 PUSH4 0xFFFFFFFF NOT AND OR DUP1 DUP9 SSTORE DUP5 SHR AND PUSH2 0xAA5 JUMP JUMPDEST DUP6 SLOAD PUSH12 0xFFFFFFFF0000000000000000 NOT AND PUSH1 0x40 SWAP2 SWAP1 SWAP2 SHL PUSH12 0xFFFFFFFF0000000000000000 AND OR DUP6 SSTORE JUMP JUMPDEST PUSH2 0x505 JUMP JUMPDEST POP PUSH1 0x1 PUSH2 0x629 JUMP JUMPDEST SWAP4 SWAP3 SWAP2 SWAP1 PUSH1 0x5 MUL SWAP2 DUP9 DUP4 AND SWAP3 DUP4 SUB PUSH2 0x6E0 JUMPI POP POP SWAP3 PUSH2 0x67F PUSH2 0x655 DUP9 DUP1 SWAP8 SWAP6 PUSH1 0x80 SWAP11 PUSH2 0x581 SWAP7 PUSH1 0x0 DUP1 MLOAD PUSH1 0x20 PUSH2 0xB04 DUP4 CODECOPY DUP2 MLOAD SWAP2 MSTORE SWAP14 SWAP12 SWAP10 DIV DUP2 DUP2 AND ISZERO PUSH2 0x6D8 JUMPI JUMPDEST PUSH2 0x640 SWAP1 DUP13 PUSH2 0xA8D JUMP JUMPDEST POP PUSH1 0x1 PUSH2 0x6CE JUMP JUMPDEST PUSH4 0x4E487B71 PUSH1 0xE0 SHL DUP13 MSTORE PUSH1 0x11 SWAP1 MSTORE DUP11 REVERT JUMPDEST POP PUSH1 0x29 DUP2 GT ISZERO PUSH2 0x484 JUMP JUMPDEST PUSH4 0xFFFFFFFF PUSH1 0xFF PUSH1 0xC0 SHL ADD NOT AND PUSH2 0x3E8 PUSH1 0x1 PUSH1 0xC0 SHL ADD OR DUP7 SSTORE DUP2 SLOAD PUSH1 0x0 NOT DUP2 EQ PUSH2 0x72B JUMPI PUSH1 0x1 ADD DUP3 SSTORE CODESIZE PUSH2 0x46B JUMP JUMPDEST PUSH4 0x4E487B71 PUSH1 0xE0 SHL DUP12 MSTORE PUSH1 0x11 DUP4 MSTORE DUP4 DUP12 REVERT JUMPDEST DUP3 DUP6 DUP6 DUP13 PUSH2 0x750 PUSH1 0x64 SWAP6 PUSH1 0x5 SLOAD SWAP1 PUSH2 0xA6A JUMP JUMPDEST SWAP3 MLOAD PUSH4 0xD0D0F211 PUSH1 0xE0 SHL DUP2 MSTORE SWAP4 DUP5 ADD MSTORE NUMBER SWAP1 DUP4 ADD MSTORE PUSH1 0x44 DUP3 ADD MSTORE REVERT JUMPDEST POP PUSH2 0x779 PUSH1 0x5 SLOAD DUP3 PUSH2 0xA6A JUMP JUMPDEST NUMBER LT PUSH2 0x430 JUMP JUMPDEST DUP4 MLOAD PUSH4 0x4B50100D PUSH1 0xE0 SHL DUP2 MSTORE SWAP2 DUP3 ADD MSTORE REVERT JUMPDEST DUP4 MLOAD PUSH4 0x2047F235 PUSH1 0xE2 SHL DUP2 MSTORE SWAP2 DUP3 ADD MSTORE REVERT JUMPDEST SWAP1 POP DUP6 RETURNDATASIZE DUP8 GT PUSH2 0x800 JUMPI JUMPDEST PUSH1 0x1F DUP2 ADD PUSH1 0x1F NOT AND DUP3 ADD PUSH8 0xFFFFFFFFFFFFFFFF DUP2 GT DUP4 DUP3 LT OR PUSH2 0x7EE JUMPI DUP8 SWAP2 DUP4 SWAP2 DUP9 MSTORE DUP2 ADD SUB SLT PUSH2 0x7EA JUMPI MLOAD DUP1 ISZERO ISZERO DUP2 SUB PUSH2 0x7EA JUMPI CODESIZE PUSH2 0x405 JUMP JUMPDEST DUP11 DUP1 REVERT JUMPDEST PUSH4 0x4E487B71 PUSH1 0xE0 SHL DUP14 MSTORE PUSH1 0x41 DUP6 MSTORE DUP6 DUP14 REVERT JUMPDEST POP RETURNDATASIZE PUSH2 0x7AF JUMP JUMPDEST DUP6 MLOAD RETURNDATASIZE DUP14 DUP3 RETURNDATACOPY RETURNDATASIZE SWAP1 REVERT JUMPDEST DUP9 DUP1 REVERT JUMPDEST DUP8 DUP1 REVERT JUMPDEST DUP4 DUP3 CALLVALUE PUSH2 0x1CF JUMPI DUP2 PUSH1 0x3 NOT CALLDATASIZE ADD SLT PUSH2 0x1CF JUMPI PUSH1 0x20 SWAP1 MLOAD PUSH2 0x3E8 DUP2 MSTORE RETURN JUMPDEST DUP4 DUP3 CALLVALUE PUSH2 0x1CF JUMPI DUP2 PUSH1 0x3 NOT CALLDATASIZE ADD SLT PUSH2 0x1CF JUMPI PUSH1 0x20 SWAP1 MLOAD DUP2 DUP2 MSTORE RETURN JUMPDEST DUP4 DUP3 CALLVALUE PUSH2 0x1CF JUMPI DUP2 PUSH1 0x3 NOT CALLDATASIZE ADD SLT PUSH2 0x1CF JUMPI PUSH1 0x20 SWAP1 MLOAD PUSH1 0xC8 DUP2 MSTORE RETURN JUMPDEST DUP4 CALLVALUE PUSH2 0x8C7 JUMPI DUP1 PUSH1 0x3 NOT CALLDATASIZE ADD SLT PUSH2 0x8C7 JUMPI PUSH2 0x886 PUSH2 0xA0C JUMP JUMPDEST DUP1 SLOAD PUSH1 0x1 PUSH1 0x1 PUSH1 0xA0 SHL SUB NOT DUP2 AND DUP3 SSTORE DUP2 SWAP1 PUSH1 0x1 PUSH1 0x1 PUSH1 0xA0 SHL SUB AND PUSH32 0x8BE0079C531659141344CD1FD0A4F28419497F9722A3DAAFE3B4186F6B6457E0 DUP3 DUP1 LOG3 DUP1 RETURN JUMPDEST DUP1 REVERT JUMPDEST POP POP CALLVALUE PUSH2 0x1CF JUMPI PUSH1 0x20 CALLDATASIZE PUSH1 0x3 NOT ADD SLT PUSH2 0x1CF JUMPI PUSH2 0x8E5 PUSH2 0xA0C JUMP JUMPDEST CALLDATALOAD PUSH1 0x5 SSTORE DUP1 RETURN JUMPDEST POP SWAP1 CALLVALUE PUSH2 0x1A2 JUMPI PUSH1 0x20 CALLDATASIZE PUSH1 0x3 NOT ADD SLT PUSH2 0x1A2 JUMPI PUSH2 0x91E PUSH4 0xFFFFFFFF DUP4 PUSH1 0x20 SWAP6 PUSH2 0x927 SWAP5 CALLDATALOAD DUP2 MSTORE PUSH1 0x2 DUP8 MSTORE KECCAK256 SLOAD AND PUSH2 0xABA JUMP JUMPDEST SWAP2 MLOAD DUP1 SWAP3 PUSH2 0x9E9 JUMP JUMPDEST RETURN JUMPDEST DUP4 DUP3 CALLVALUE PUSH2 0x1CF JUMPI DUP2 PUSH1 0x3 NOT CALLDATASIZE ADD SLT PUSH2 0x1CF JUMPI PUSH1 0x20 SWAP1 MLOAD PUSH1 0x29 DUP2 MSTORE RETURN JUMPDEST POP SWAP1 CALLVALUE PUSH2 0x1A2 JUMPI PUSH1 0x20 CALLDATASIZE PUSH1 0x3 NOT ADD SLT PUSH2 0x1A2 JUMPI PUSH1 0x60 SWAP3 DUP3 SWAP2 CALLDATALOAD DUP2 MSTORE PUSH1 0x2 PUSH1 0x20 MSTORE KECCAK256 SLOAD SWAP1 PUSH8 0xFFFFFFFFFFFFFFFF DUP2 MLOAD SWAP3 PUSH4 0xFFFFFFFF DUP1 DUP3 AND DUP6 MSTORE DUP2 PUSH1 0x20 SHR AND PUSH1 0x20 DUP6 ADD MSTORE PUSH1 0x80 SHR AND SWAP1 DUP3 ADD MSTORE RETURN JUMPDEST DUP4 DUP3 CALLVALUE PUSH2 0x1CF JUMPI DUP2 PUSH1 0x3 NOT CALLDATASIZE ADD SLT PUSH2 0x1CF JUMPI PUSH1 0x20 SWAP1 MLOAD PUSH1 0xC DUP2 MSTORE RETURN JUMPDEST DUP4 DUP3 CALLVALUE PUSH2 0x1CF JUMPI DUP2 PUSH1 0x3 NOT CALLDATASIZE ADD SLT PUSH2 0x1CF JUMPI PUSH1 0x20 SWAP1 PUSH1 0x5 SLOAD SWAP1 MLOAD SWAP1 DUP2 MSTORE RETURN JUMPDEST DUP5 SWAP1 DUP5 CALLVALUE PUSH2 0x1A2 JUMPI DUP3 PUSH1 0x3 NOT CALLDATASIZE ADD SLT PUSH2 0x1A2 JUMPI PUSH1 0x20 SWAP3 POP SLOAD DUP2 MSTORE RETURN JUMPDEST SWAP1 PUSH1 0x5 DUP3 LT ISZERO PUSH2 0x9F6 JUMPI MSTORE JUMP JUMPDEST PUSH4 0x4E487B71 PUSH1 0xE0 SHL PUSH1 0x0 MSTORE PUSH1 0x21 PUSH1 0x4 MSTORE PUSH1 0x24 PUSH1 0x0 REVERT JUMPDEST PUSH1 0x0 SLOAD PUSH1 0x1 PUSH1 0x1 PUSH1 0xA0 SHL SUB AND CALLER SUB PUSH2 0xA20 JUMPI JUMP JUMPDEST PUSH1 0x40 MLOAD PUSH4 0x118CDAA7 PUSH1 0xE0 SHL DUP2 MSTORE CALLER PUSH1 0x4 DUP3 ADD MSTORE PUSH1 0x24 SWAP1 REVERT JUMPDEST PUSH1 0xC0 DUP2 ADD SWAP1 DUP2 LT PUSH8 0xFFFFFFFFFFFFFFFF DUP3 GT OR PUSH2 0xA54 JUMPI PUSH1 0x40 MSTORE JUMP JUMPDEST PUSH4 0x4E487B71 PUSH1 0xE0 SHL PUSH1 0x0 MSTORE PUSH1 0x41 PUSH1 0x4 MSTORE PUSH1 0x24 PUSH1 0x0 REVERT JUMPDEST SWAP2 SWAP1 DUP3 ADD DUP1 SWAP3 GT PUSH2 0xA77 JUMPI JUMP JUMPDEST PUSH4 0x4E487B71 PUSH1 0xE0 SHL PUSH1 0x0 MSTORE PUSH1 0x11 PUSH1 0x4 MSTORE PUSH1 0x24 PUSH1 0x0 REVERT JUMPDEST SWAP2 SWAP1 SWAP2 PUSH4 0xFFFFFFFF DUP1 DUP1 SWAP5 AND SWAP2 AND ADD SWAP2 DUP3 GT PUSH2 0xA77 JUMPI JUMP JUMPDEST PUSH4 0xFFFFFFFF DUP1 SWAP2 AND SWAP1 DUP2 EQ PUSH2 0xA77 JUMPI PUSH1 0x1 ADD SWAP1 JUMP JUMPDEST PUSH4 0xFFFFFFFF AND PUSH2 0x9C4 DUP2 LT ISZERO PUSH2 0xAFD JUMPI PUSH2 0x7D0 DUP2 LT ISZERO PUSH2 0xAF7 JUMPI PUSH2 0x5DC DUP2 LT ISZERO PUSH2 0xAF1 JUMPI PUSH2 0x3E8 GT ISZERO PUSH2 0xAEC JUMPI PUSH1 0x0 SWAP1 JUMP JUMPDEST PUSH1 0x1 SWAP1 JUMP JUMPDEST POP PUSH1 0x2 SWAP1 JUMP JUMPDEST POP PUSH1 0x3 SWAP1 JUMP JUMPDEST POP PUSH1 0x4 SWAP1 JUMP INVALID PUSH13 0x69F62AB6BD266D969493534EBE CALL PUSH11 0xBED1A687B638B710D1B140 SWAP5 PUSH17 0x306FFCA2646970667358221220C1F43E96 0xB9 BLOCKHASH 0xDE 0x22 LOG3 0xD7 PUSH9 0x2F622A41502FC886B3 CODESIZE PUSH29 0x37EABC60BBD6A151B38464736F6C634300081400330000000000000000 "},"methodIdentifiers":{"CHEAT_PENALTY()":"7532fd72","DEFAULT_MIN_INTERVAL()":"b47ddfe5","INFER_CHEAT_MAX()":"33360284","INFER_CHEAT_MIN()":"b6502152","INFER_NOMINAL()":"78ac6906","INFER_SKILLED()":"ad4c3e12","INITIAL_RATING()":"7c2b86dc","MAX_RATING()":"94e113ea","NOMINAL_GAIN()":"ef427e77","SKILLED_GAIN()":"0ac38325","getSkillProfile(bytes32)":"cac282c2","getSkillRating(bytes32)":"19fe0847","getSkillTier(bytes32)":"49da9bb6","minUpdateInterval()":"0964ff26","owner()":"8da5cb5b","poACVerifier()":"f1cf7905","processedRecords(bytes32)":"8e7a445d","renounceOwnership()":"715018a6","setMinUpdateInterval(uint256)":"4e14a583","totalProfileCount()":"03ba778b","transferOwnership(address)":"f2fde38b","updateSkillRating(bytes32,bytes32,uint8,uint8)":"7ca6def4"}}}}}