{"contracts/PoACVerifier.sol":{"PoACVerifier":{"abi":[{"inputs":[{"internalType":"address","name":"_deviceRegistry","type":"address"},{"internalType":"uint256","name":"_maxTimestampSkew","type":"uint256"}],"stateMutability":"nonpayable","type":"constructor"},{"inputs":[],"name":"ArrayLengthMismatch","type":"error"},{"inputs":[{"internalType":"bytes32","name":"deviceId","type":"bytes32"},{"internalType":"bytes32","name":"submitted","type":"bytes32"},{"internalType":"bytes32","name":"expected","type":"bytes32"}],"name":"ChainLinkageBroken","type":"error"},{"inputs":[{"internalType":"bytes32","name":"deviceId","type":"bytes32"},{"internalType":"uint32","name":"submitted","type":"uint32"},{"internalType":"uint32","name":"lastKnown","type":"uint32"}],"name":"CounterNotMonotonic","type":"error"},{"inputs":[{"internalType":"bytes32","name":"deviceId","type":"bytes32"}],"name":"DeviceNotActive","type":"error"},{"inputs":[{"internalType":"bytes32","name":"deviceId","type":"bytes32"}],"name":"DeviceNotRegistered","type":"error"},{"inputs":[],"name":"EmptyBatch","type":"error"},{"inputs":[{"internalType":"uint256","name":"provided","type":"uint256"}],"name":"InvalidBodyLength","type":"error"},{"inputs":[{"internalType":"uint8","name":"provided","type":"uint8"}],"name":"InvalidSchemaVersion","type":"error"},{"inputs":[{"internalType":"bytes32","name":"deviceId","type":"bytes32"},{"internalType":"bytes32","name":"recordHash","type":"bytes32"}],"name":"InvalidSignature","type":"error"},{"inputs":[{"internalType":"uint256","name":"provided","type":"uint256"}],"name":"InvalidSignatureLength","type":"error"},{"inputs":[{"internalType":"address","name":"owner","type":"address"}],"name":"OwnableInvalidOwner","type":"error"},{"inputs":[{"internalType":"address","name":"account","type":"address"}],"name":"OwnableUnauthorizedAccount","type":"error"},{"inputs":[{"internalType":"bytes32","name":"recordHash","type":"bytes32"}],"name":"RecordAlreadySubmitted","type":"error"},{"inputs":[{"internalType":"bytes32","name":"recordHash","type":"bytes32"}],"name":"RecordAlreadyVerified","type":"error"},{"inputs":[],"name":"ReentrancyGuardReentrantCall","type":"error"},{"inputs":[{"internalType":"bytes32","name":"deviceId","type":"bytes32"},{"internalType":"int64","name":"recordTs","type":"int64"},{"internalType":"uint256","name":"blockTs","type":"uint256"},{"internalType":"uint256","name":"maxSkew","type":"uint256"}],"name":"TimestampOutOfRange","type":"error"},{"anonymous":false,"inputs":[{"indexed":false,"internalType":"uint256","name":"submitted","type":"uint256"},{"indexed":false,"internalType":"uint256","name":"verified","type":"uint256"},{"indexed":false,"internalType":"uint256","name":"rejected","type":"uint256"}],"name":"BatchVerified","type":"event"},{"anonymous":false,"inputs":[{"indexed":true,"internalType":"address","name":"previousOwner","type":"address"},{"indexed":true,"internalType":"address","name":"newOwner","type":"address"}],"name":"OwnershipTransferred","type":"event"},{"anonymous":false,"inputs":[{"indexed":true,"internalType":"bytes32","name":"deviceId","type":"bytes32"},{"indexed":true,"internalType":"bytes32","name":"recordHash","type":"bytes32"},{"indexed":false,"internalType":"uint32","name":"monotonicCtr","type":"uint32"},{"indexed":false,"internalType":"int64","name":"timestampMs","type":"int64"},{"indexed":false,"internalType":"uint8","name":"actionCode","type":"uint8"},{"indexed":false,"internalType":"uint8","name":"inferenceResult","type":"uint8"},{"indexed":false,"internalType":"uint32","name":"bountyId","type":"uint32"}],"name":"PoACVerified","type":"event"},{"inputs":[],"name":"P256_PRECOMPILE","outputs":[{"internalType":"address","name":"","type":"address"}],"stateMutability":"view","type":"function"},{"inputs":[],"name":"POAC_BODY_SIZE","outputs":[{"internalType":"uint256","name":"","type":"uint256"}],"stateMutability":"view","type":"function"},{"inputs":[],"name":"POAC_SIG_SIZE","outputs":[{"internalType":"uint256","name":"","type":"uint256"}],"stateMutability":"view","type":"function"},{"inputs":[],"name":"deviceRegistry","outputs":[{"internalType":"contract DeviceRegistry","name":"","type":"address"}],"stateMutability":"view","type":"function"},{"inputs":[{"internalType":"bytes32","name":"_deviceId","type":"bytes32"}],"name":"getChainHead","outputs":[{"internalType":"bytes32","name":"lastRecordHash","type":"bytes32"},{"internalType":"uint32","name":"lastCounter","type":"uint32"},{"internalType":"bool","name":"initialized","type":"bool"}],"stateMutability":"view","type":"function"},{"inputs":[{"internalType":"bytes32","name":"_recordHash","type":"bytes32"}],"name":"getRecordSchema","outputs":[{"internalType":"uint8","name":"schemaVersion","type":"uint8"},{"internalType":"bool","name":"isSet","type":"bool"}],"stateMutability":"view","type":"function"},{"inputs":[{"internalType":"bytes32","name":"_deviceId","type":"bytes32"}],"name":"getVerifiedCount","outputs":[{"internalType":"uint32","name":"count","type":"uint32"}],"stateMutability":"view","type":"function"},{"inputs":[{"internalType":"bytes32","name":"_recordHash","type":"bytes32"}],"name":"isRecordVerified","outputs":[{"internalType":"bool","name":"","type":"bool"}],"stateMutability":"view","type":"function"},{"inputs":[],"name":"maxTimestampSkew","outputs":[{"internalType":"uint256","name":"","type":"uint256"}],"stateMutability":"view","type":"function"},{"inputs":[],"name":"owner","outputs":[{"internalType":"address","name":"","type":"address"}],"stateMutability":"view","type":"function"},{"inputs":[{"internalType":"bytes32","name":"","type":"bytes32"}],"name":"recordHasSchema","outputs":[{"internalType":"bool","name":"","type":"bool"}],"stateMutability":"view","type":"function"},{"inputs":[{"internalType":"bytes32","name":"","type":"bytes32"}],"name":"recordInferences","outputs":[{"internalType":"uint8","name":"","type":"uint8"}],"stateMutability":"view","type":"function"},{"inputs":[{"internalType":"bytes32","name":"","type":"bytes32"}],"name":"recordSchemas","outputs":[{"internalType":"uint8","name":"","type":"uint8"}],"stateMutability":"view","type":"function"},{"inputs":[],"name":"renounceOwnership","outputs":[],"stateMutability":"nonpayable","type":"function"},{"inputs":[{"internalType":"uint256","name":"_newSkew","type":"uint256"}],"name":"setMaxTimestampSkew","outputs":[],"stateMutability":"nonpayable","type":"function"},{"inputs":[{"internalType":"bytes32","name":"","type":"bytes32"}],"name":"submittedHashes","outputs":[{"internalType":"bool","name":"","type":"bool"}],"stateMutability":"view","type":"function"},{"inputs":[],"name":"totalVerifiedCount","outputs":[{"internalType":"uint256","name":"","type":"uint256"}],"stateMutability":"view","type":"function"},{"inputs":[{"internalType":"address","name":"newOwner","type":"address"}],"name":"transferOwnership","outputs":[],"stateMutability":"nonpayable","type":"function"},{"inputs":[{"internalType":"bytes32","name":"","type":"bytes32"}],"name":"verifiedRecords","outputs":[{"internalType":"bool","name":"","type":"bool"}],"stateMutability":"view","type":"function"},{"inputs":[{"internalType":"bytes32","name":"_deviceId","type":"bytes32"},{"internalType":"bytes","name":"_rawBody","type":"bytes"},{"internalType":"bytes","name":"_signature","type":"bytes"}],"name":"verifyPoAC","outputs":[{"internalType":"bytes32","name":"recordHash","type":"bytes32"}],"stateMutability":"nonpayable","type":"function"},{"inputs":[{"internalType":"bytes32[]","name":"_deviceIds","type":"bytes32[]"},{"internalType":"bytes[]","name":"_rawBodies","type":"bytes[]"},{"internalType":"bytes[]","name":"_signatures","type":"bytes[]"}],"name":"verifyPoACBatch","outputs":[{"internalType":"bytes32[]","name":"recordHashes","type":"bytes32[]"}],"stateMutability":"nonpayable","type":"function"},{"inputs":[{"internalType":"bytes32","name":"_deviceId","type":"bytes32"},{"internalType":"bytes","name":"_rawBody","type":"bytes"},{"internalType":"bytes","name":"_signature","type":"bytes"}],"name":"verifyPoACExternal","outputs":[{"internalType":"bytes32","name":"","type":"bytes32"}],"stateMutability":"nonpayable","type":"function"},{"inputs":[{"internalType":"bytes32","name":"_deviceId","type":"bytes32"},{"internalType":"bytes","name":"_rawBody","type":"bytes"},{"internalType":"bytes","name":"_signature","type":"bytes"},{"internalType":"uint8","name":"_schemaVersion","type":"uint8"}],"name":"verifyPoACWithSchema","outputs":[{"internalType":"bytes32","name":"recordHash","type":"bytes32"}],"stateMutability":"nonpayable","type":"function"}],"evm":{"bytecode":{"linkReferences":{},"object":"6080346100d257601f6118b038819003918201601f19168301916001600160401b038311848410176100d75780849260409485528339810103126100d25780516001600160a01b0391828216918290036100d257602001519033156100b95760005460018060a01b0319903382821617600055604051943391167f8be0079c531659141344cd1fd0a4f28419497f9722a3daafe3b4186f6b6457e0600080a36001805560035416176003556002556117c290816100ee8239f35b604051631e4fbdf760e01b815260006004820152602490fd5b600080fd5b634e487b7160e01b600052604160045260246000fdfe6080604052600436101561001257600080fd5b60003560e01c806301b8dee6146101825780630beb4da71461017d578063122ec0e01461017857806322b338d7146101735780632ae732471461016e578063488dbfad146101695780634d0af428146101695780635efb870a14610164578063668a8d3c1461015f578063715018a61461015a578063803a28f6146101555780638196276f146101505780638da5cb5b1461014b578063915fe23c1461014657806395b3222514610141578063a542b44f1461013c578063b1f5993b14610137578063cd68a83114610132578063d25cd6661461012d578063d50ee3b514610128578063e9b6c01914610123578063f2fde38b1461011e5763fb108fd91461011957600080fd5b610a5d565b6109d1565b610975565b610957565b61093b565b61090c565b6108ef565b6108be565b610603565b610577565b61054e565b6104e6565b610420565b6103c2565b610391565b610368565b610337565b6102f6565b6102da565b6102a3565b610231565b610197565b600091031261019257565b600080fd5b34610192576000366003190112610192576020600254604051908152f35b9181601f84011215610192578235916001600160401b038311610192576020838186019501011161019257565b90606060031983011261019257600435916001600160401b03916024358381116101925782610213916004016101b5565b939093926044359182116101925761022d916004016101b5565b9091565b346101925761023f366101e2565b9193929330330361025e5760209461025694610d90565b604051908152f35b60405162461bcd60e51b815260206004820152601b60248201527f506f414356657269666965723a20696e7465726e616c206f6e6c7900000000006044820152606490fd5b34610192576020366003190112610192576004356000526004602052602063ffffffff600160406000200154821c16604051908152f35b3461019257600036600319011261019257602060405160a48152f35b34610192576020366003190112610192576004356000526009602052604060ff816000205416600a60205260ff826000205416825191825215156020820152f35b34610192576020366003190112610192576004356000526005602052602060ff604060002054166040519015158152f35b34610192576000366003190112610192576003546040516001600160a01b039091168152602090f35b3461019257602036600319011261019257600435600052600a602052602060ff604060002054166040519015158152f35b346101925760008060031936011261041d576103dc610a8c565b80546001600160a01b03198116825581906001600160a01b03167f8be0079c531659141344cd1fd0a4f28419497f9722a3daafe3b4186f6b6457e08280a380f35b80fd5b346101925761042e366101e2565b9361043a939193610ad2565b60a483036104cd57602060006040518585823780868101838152039060025afa156104c8576000805160066020526040909120610479905b5460ff1690565b6104aa576104a661048d8787878787610d90565b61049660018055565b6040519081529081906020820190565b0390f35b6040516332888c0560e21b81526004810191909152602490fd5b0390fd5b610ac6565b6040516308575bc960e41b815260048101849052602490fd5b34610192576080366003190112610192576001600160401b03602435818111610192576105179036906004016101b5565b91604435908111610192576105309036906004016101b5565b6064359160ff83168303610192576104a69461049694600435610cb6565b34610192576000366003190112610192576000546040516001600160a01b039091168152602090f35b3461019257602036600319011261019257610590610a8c565b600435600255005b9181601f84011215610192578235916001600160401b038311610192576020808501948460051b01011161019257565b6020908160408183019282815285518094520193019160005b8281106105ef575050505090565b8351855293810193928101926001016105e1565b346101925760603660031901126101925760046001600160401b038135818111610192576106349036908401610598565b9290916024358181116101925761064e9036908401610598565b939091604435908111610192576106689036908501610598565b9190610672610ad2565b86156108ad578587148015906108a3575b61089257949293919061069587610b7b565b95600094859686955b8a87106106fa57604080518c8152602081018b90529081018990526104a6908b907f6cedc2bc02d0738da2fff66f7bc5753bdbb34f5aaf4f9c2a71c4d52b661aed0790606090a16106ee60018055565b604051918291826105c8565b90919293949596878a60a4610710838888610bed565b90500361087f5750610723908585610bed565b60409291600084518061073a816020968796610ab8565b039060025afa156104c857888c91888f8d968a8a928e60005161076a610472826000526006602052604060002090565b610863578b6107d795946107af828b9c9d9e9f95966107be976107aa61079d6107b6986000526006602052604060002090565b805460ff19166001179055565b610c47565b3597610bed565b999096610bed565b9151630beb4da760e01b815297889586958d8701610c87565b03816000305af1918291600093610834575b505061081a575061080f9160006108038b61080994610c33565b52610bc3565b97610bc3565b95949392919061069e565b99899a61080361080f949b61082e94610c33565b98610bc3565b610854929350803d1061085c575b61084c8183610b23565b810190610c57565b9038806107e9565b503d610842565b50505050505050505090600061080361080f9461080994610c33565b9160006108036108099361080f95610c33565b60405163512509d360e11b81528590fd5b5082871415610683565b60405163c2e5347d60e01b81528590fd5b34610192576020366003190112610192576004356000526006602052602060ff604060002054166040519015158152f35b346101925760003660031901126101925760206040516101008152f35b34610192576020366003190112610192576004356000526008602052602060ff60406000205416604051908152f35b3461019257600036600319011261019257602060405160408152f35b34610192576000366003190112610192576020600754604051908152f35b346101925760203660031901126101925760043560005260046020526060604060002060ff6001825492015460405192835263ffffffff8116602084015260401c1615156040820152f35b6001600160a01b0381160361019257565b34610192576020366003190112610192576004356109ee816109c0565b6109f6610a8c565b6001600160a01b039081168015610a4457600080546001600160a01b03198116831782559092167f8be0079c531659141344cd1fd0a4f28419497f9722a3daafe3b4186f6b6457e08380a380f35b604051631e4fbdf760e01b815260006004820152602490fd5b34610192576020366003190112610192576004356000526009602052602060ff60406000205416604051908152f35b6000546001600160a01b03163303610aa057565b60405163118cdaa760e01b8152336004820152602490fd5b908092918237016000815290565b6040513d6000823e3d90fd5b600260015414610ae3576002600155565b604051633ee5aeb560e01b8152600490fd5b634e487b7160e01b600052604160045260246000fd5b6001600160401b038111610b1e57604052565b610af5565b90601f801991011681019081106001600160401b03821117610b1e57604052565b6040519061014082018281106001600160401b03821117610b1e57604052565b6001600160401b038111610b1e5760051b60200190565b90610b8582610b64565b610b926040519182610b23565b8281528092610ba3601f1991610b64565b0190602036910137565b634e487b7160e01b600052601160045260246000fd5b6000198114610bd25760010190565b610bad565b634e487b7160e01b600052603260045260246000fd5b9190811015610c2e5760051b81013590601e19813603018212156101925701908135916001600160401b038311610192576020018236038113610192579190565b610bd7565b8051821015610c2e5760209160051b010190565b9190811015610c2e5760051b0190565b90816020910312610192575190565b908060209392818452848401376000828201840152601f01601f1916010190565b9391610cb39593610ca5928652606060208701526060860191610c66565b926040818503910152610c66565b90565b610cbe610ad2565b60ff861615610d605760a483036104cd576020600060405180610ce2818888610ab8565b039060025afa156104c8576000805160066020526040909120610d0490610472565b6104aa575091610d199391610d3d9593610d90565b91610d2e836000526009602052604060002090565b9060ff1660ff19825416179055565b610d5461079d82600052600a602052604060002090565b90610d5e60018055565b565b604051633deba3d960e21b815260ff87166004820152602490fd5b63ffffffff809116908114610bd25760010190565b9294939060a483036104cd5760409182810361114957610daf8561131e565b60208351948580610dc4600098899488610ab8565b039060025afa156104c857835196610de9610472896000526005602052604060002090565b61113157610e029291610dfd91898861141b565b6115a4565b90610e17846000526004602052604060002090565b60018101805480841c60ff16949290858061111a575b6110c9575088906080840195610e4d610e47885160070b90565b8a6114f8565b84519081611080575b505055610ee46060830191610e88610e72845163ffffffff1690565b825463ffffffff191663ffffffff909116178255565b610ec7610ea5610ea0835463ffffffff9060201c1690565b610d7b565b825467ffffffff00000000191660209190911b67ffffffff0000000016178255565b805468ff0000000000000000191668010000000000000000179055565b6020820194610f0b610ef7875160ff1690565b610d2e8b6000526008602052604060002090565b610f2261079d8a6000526006602052604060002090565b610f3961079d8a6000526005602052604060002090565b610f4c610f47600754610bc3565b600755565b600354610f69906001600160a01b03165b6001600160a01b031690565b803b1561107c5792610ffb610ff361105e94848895610fdf8f9d9c9a998d7fcfaf1c01b5ed0efe033edf39991653ab530ccf7137a5f17be336449eadb644ce9d9b519485809481936307567c7560e01b835260048301606060009193929360808101948152600160208201528260408201520152565b03925af1611063575b505163ffffffff1690565b945160070b90565b9461102560a06110196110118686015160ff1690565b935160ff1690565b93015163ffffffff1690565b925163ffffffff958616815260079690960b602087015260ff9081166040870152166060850152919091166080830152819060a0820190565b0390a3565b8061107061107692610b0b565b80610187565b38610fe8565b5080fd5b91925090806110be575b6110975790818a92610e56565b815485516304b3e53960e31b8152600481018a905260248101929092526044820152606490fd5b50815481141561108a565b63ffffffff906104c489876110e5606089015163ffffffff1690565b905194859463dce74d9160e01b86521691600485019160409194936060840195845263ffffffff809216602085015216910152565b50606084015163ffffffff82811691161115610e2d565b835163384c4ec960e01b815260048101899052602490fd5b825163058676ad60e31b81526004810191909152602490fd5b5190811515820361019257565b9081602091031261019257610cb390611162565b5190610d5e826109c0565b51906001600160401b038216820361019257565b6001600160401b038111610b1e57601f01601f191660200190565b919080601f84011215610192578251906111d6826111a2565b916111e46040519384610b23565b8083526020918282870101116101925760005b81811061120c57508260009394955001015290565b85810183015184820184015282016111f7565b519063ffffffff8216820361019257565b519061ffff8216820361019257565b6020818303126101925780516001600160401b03918282116101925701906101408284031261019257611270610b44565b9261127a83611183565b84526112886020840161118e565b60208501526112996040840161118e565b6040850152606083015160608501526112b460808401611162565b608085015260a0830151918211610192576112d09183016111bd565b60a08301526112e160c0820161121f565b60c08301526112f260e0820161121f565b60e083015261010061130581830161121f565b90830152611317610120809201611230565b9082015290565b600354611333906001600160a01b0316610f5d565b604051635ec8fe6b60e01b815260048101839052602081602481855afa9081156104c8576000916113ed575b5015611369575050565b6040516359d902ed60e01b81526004810183905290600090829060249082905afa90816113ca575b506113b05760405163072b382f60e21b81526004810191909152602490fd5b60405163159c717560e11b81526004810191909152602490fd5b6113e6903d806000833e6113de8183610b23565b81019061123f565b5082611391565b61140e915060203d8111611414575b6114068183610b23565b81019061116f565b3861135f565b503d6113fc565b60035460405163804ad24960e01b8152600481018390529294919360009390918490829060249082906001600160a01b03165afa9384156104c857809461149c575b50509161146e916114729386611690565b1590565b61147a575050565b604051636366097760e11b815260048101919091526024810191909152604490fd5b909193503d8082843e6114af8184610b23565b82019160208184031261107c578051916001600160401b03831161041d5750611472949261146e94926114e292016111bd565b9381935061145d565b91908201809211610bd257565b906103e8804202428104821442151715610bd2576000600784900b811361159e57506001600160401b038316905b60025492808402908482041484151715610bd25761154481836114eb565b831192831561158a575b50505061155a57505050565b60405163587b5a6d60e01b8152600481019390935260079190910b60248301524260448301526064820152608490fd5b6115959293506114eb565b1038808061154e565b90611526565b9060405160c081018181106001600160401b03821117610b1e5760405260a08082948035845263ffffffff60808201358060001a60208701528060011a604087015260c01c166060850152608881013560c01c6080850152013560e01c910152565b1561160d57565b60405162461bcd60e51b815260206004820152602560248201527f506f414356657269666965723a207075626b6579206d75737420626520363520604482015264627974657360d81b6064820152608490fd5b3d1561168b573d90611671826111a2565b9161167f6040519384610b23565b82523d6000602084013e565b606090565b909160400361173657826116ff600094936116af604187965114611606565b6116f1604160218501519401516040519485936020850197602082013591359089939160a0959391855260208501526040840152606083015260808201520190565b03601f198101835282610b23565b51906101005afa61170e611660565b9015801561172b575b611725576020015160011490565b50600090565b506020815110611717565b60405162461bcd60e51b815260206004820152602860248201527f506f414356657269666965723a207369676e6174757265206d75737420626520604482015267363420627974657360c01b6064820152608490fdfea26469706673582212205bc466ae3512ee8a56b0acf2f6f3863dde46af1d2599dbdd9b5fb5cfb51f56f564736f6c63430008140033","opcodes":"PUSH1 0x80 CALLVALUE PUSH2 0xD2 JUMPI PUSH1 0x1F PUSH2 0x18B0 CODESIZE DUP2 SWAP1 SUB SWAP2 DUP3 ADD PUSH1 0x1F NOT AND DUP4 ADD SWAP2 PUSH1 0x1 PUSH1 0x1 PUSH1 0x40 SHL SUB DUP4 GT DUP5 DUP5 LT OR PUSH2 0xD7 JUMPI DUP1 DUP5 SWAP3 PUSH1 0x40 SWAP5 DUP6 MSTORE DUP4 CODECOPY DUP2 ADD SUB SLT PUSH2 0xD2 JUMPI DUP1 MLOAD PUSH1 0x1 PUSH1 0x1 PUSH1 0xA0 SHL SUB SWAP2 DUP3 DUP3 AND SWAP2 DUP3 SWAP1 SUB PUSH2 0xD2 JUMPI PUSH1 0x20 ADD MLOAD SWAP1 CALLER ISZERO PUSH2 0xB9 JUMPI PUSH1 0x0 SLOAD PUSH1 0x1 DUP1 PUSH1 0xA0 SHL SUB NOT SWAP1 CALLER DUP3 DUP3 AND OR PUSH1 0x0 SSTORE PUSH1 0x40 MLOAD SWAP5 CALLER SWAP2 AND PUSH32 0x8BE0079C531659141344CD1FD0A4F28419497F9722A3DAAFE3B4186F6B6457E0 PUSH1 0x0 DUP1 LOG3 PUSH1 0x1 DUP1 SSTORE PUSH1 0x3 SLOAD AND OR PUSH1 0x3 SSTORE PUSH1 0x2 SSTORE PUSH2 0x17C2 SWAP1 DUP2 PUSH2 0xEE DUP3 CODECOPY RETURN JUMPDEST PUSH1 0x40 MLOAD PUSH4 0x1E4FBDF7 PUSH1 0xE0 SHL DUP2 MSTORE PUSH1 0x0 PUSH1 0x4 DUP3 ADD MSTORE PUSH1 0x24 SWAP1 REVERT JUMPDEST PUSH1 0x0 DUP1 REVERT JUMPDEST PUSH4 0x4E487B71 PUSH1 0xE0 SHL PUSH1 0x0 MSTORE PUSH1 0x41 PUSH1 0x4 MSTORE PUSH1 0x24 PUSH1 0x0 REVERT INVALID PUSH1 0x80 PUSH1 0x40 MSTORE PUSH1 0x4 CALLDATASIZE LT ISZERO PUSH2 0x12 JUMPI PUSH1 0x0 DUP1 REVERT JUMPDEST PUSH1 0x0 CALLDATALOAD PUSH1 0xE0 SHR DUP1 PUSH4 0x1B8DEE6 EQ PUSH2 0x182 JUMPI DUP1 PUSH4 0xBEB4DA7 EQ PUSH2 0x17D JUMPI DUP1 PUSH4 0x122EC0E0 EQ PUSH2 0x178 JUMPI DUP1 PUSH4 0x22B338D7 EQ PUSH2 0x173 JUMPI DUP1 PUSH4 0x2AE73247 EQ PUSH2 0x16E JUMPI DUP1 PUSH4 0x488DBFAD EQ PUSH2 0x169 JUMPI DUP1 PUSH4 0x4D0AF428 EQ PUSH2 0x169 JUMPI DUP1 PUSH4 0x5EFB870A EQ PUSH2 0x164 JUMPI DUP1 PUSH4 0x668A8D3C EQ PUSH2 0x15F JUMPI DUP1 PUSH4 0x715018A6 EQ PUSH2 0x15A JUMPI DUP1 PUSH4 0x803A28F6 EQ PUSH2 0x155 JUMPI DUP1 PUSH4 0x8196276F EQ PUSH2 0x150 JUMPI DUP1 PUSH4 0x8DA5CB5B EQ PUSH2 0x14B JUMPI DUP1 PUSH4 0x915FE23C EQ PUSH2 0x146 JUMPI DUP1 PUSH4 0x95B32225 EQ PUSH2 0x141 JUMPI DUP1 PUSH4 0xA542B44F EQ PUSH2 0x13C JUMPI DUP1 PUSH4 0xB1F5993B EQ PUSH2 0x137 JUMPI DUP1 PUSH4 0xCD68A831 EQ PUSH2 0x132 JUMPI DUP1 PUSH4 0xD25CD666 EQ PUSH2 0x12D JUMPI DUP1 PUSH4 0xD50EE3B5 EQ PUSH2 0x128 JUMPI DUP1 PUSH4 0xE9B6C019 EQ PUSH2 0x123 JUMPI DUP1 PUSH4 0xF2FDE38B EQ PUSH2 0x11E JUMPI PUSH4 0xFB108FD9 EQ PUSH2 0x119 JUMPI PUSH1 0x0 DUP1 REVERT JUMPDEST PUSH2 0xA5D JUMP JUMPDEST PUSH2 0x9D1 JUMP JUMPDEST PUSH2 0x975 JUMP JUMPDEST PUSH2 0x957 JUMP JUMPDEST PUSH2 0x93B JUMP JUMPDEST PUSH2 0x90C JUMP JUMPDEST PUSH2 0x8EF JUMP JUMPDEST PUSH2 0x8BE JUMP JUMPDEST PUSH2 0x603 JUMP JUMPDEST PUSH2 0x577 JUMP JUMPDEST PUSH2 0x54E JUMP JUMPDEST PUSH2 0x4E6 JUMP JUMPDEST PUSH2 0x420 JUMP JUMPDEST PUSH2 0x3C2 JUMP JUMPDEST PUSH2 0x391 JUMP JUMPDEST PUSH2 0x368 JUMP JUMPDEST PUSH2 0x337 JUMP JUMPDEST PUSH2 0x2F6 JUMP JUMPDEST PUSH2 0x2DA JUMP JUMPDEST PUSH2 0x2A3 JUMP JUMPDEST PUSH2 0x231 JUMP JUMPDEST PUSH2 0x197 JUMP JUMPDEST PUSH1 0x0 SWAP2 SUB SLT PUSH2 0x192 JUMPI JUMP JUMPDEST PUSH1 0x0 DUP1 REVERT JUMPDEST CALLVALUE PUSH2 0x192 JUMPI PUSH1 0x0 CALLDATASIZE PUSH1 0x3 NOT ADD SLT PUSH2 0x192 JUMPI PUSH1 0x20 PUSH1 0x2 SLOAD PUSH1 0x40 MLOAD SWAP1 DUP2 MSTORE RETURN JUMPDEST SWAP2 DUP2 PUSH1 0x1F DUP5 ADD SLT ISZERO PUSH2 0x192 JUMPI DUP3 CALLDATALOAD SWAP2 PUSH1 0x1 PUSH1 0x1 PUSH1 0x40 SHL SUB DUP4 GT PUSH2 0x192 JUMPI PUSH1 0x20 DUP4 DUP2 DUP7 ADD SWAP6 ADD ADD GT PUSH2 0x192 JUMPI JUMP JUMPDEST SWAP1 PUSH1 0x60 PUSH1 0x3 NOT DUP4 ADD SLT PUSH2 0x192 JUMPI PUSH1 0x4 CALLDATALOAD SWAP2 PUSH1 0x1 PUSH1 0x1 PUSH1 0x40 SHL SUB SWAP2 PUSH1 0x24 CALLDATALOAD DUP4 DUP2 GT PUSH2 0x192 JUMPI DUP3 PUSH2 0x213 SWAP2 PUSH1 0x4 ADD PUSH2 0x1B5 JUMP JUMPDEST SWAP4 SWAP1 SWAP4 SWAP3 PUSH1 0x44 CALLDATALOAD SWAP2 DUP3 GT PUSH2 0x192 JUMPI PUSH2 0x22D SWAP2 PUSH1 0x4 ADD PUSH2 0x1B5 JUMP JUMPDEST SWAP1 SWAP2 JUMP JUMPDEST CALLVALUE PUSH2 0x192 JUMPI PUSH2 0x23F CALLDATASIZE PUSH2 0x1E2 JUMP JUMPDEST SWAP2 SWAP4 SWAP3 SWAP4 ADDRESS CALLER SUB PUSH2 0x25E JUMPI PUSH1 0x20 SWAP5 PUSH2 0x256 SWAP5 PUSH2 0xD90 JUMP JUMPDEST PUSH1 0x40 MLOAD SWAP1 DUP2 MSTORE RETURN JUMPDEST PUSH1 0x40 MLOAD PUSH3 0x461BCD PUSH1 0xE5 SHL DUP2 MSTORE PUSH1 0x20 PUSH1 0x4 DUP3 ADD MSTORE PUSH1 0x1B PUSH1 0x24 DUP3 ADD MSTORE PUSH32 0x506F414356657269666965723A20696E7465726E616C206F6E6C790000000000 PUSH1 0x44 DUP3 ADD MSTORE PUSH1 0x64 SWAP1 REVERT JUMPDEST CALLVALUE PUSH2 0x192 JUMPI PUSH1 0x20 CALLDATASIZE PUSH1 0x3 NOT ADD SLT PUSH2 0x192 JUMPI PUSH1 0x4 CALLDATALOAD PUSH1 0x0 MSTORE PUSH1 0x4 PUSH1 0x20 MSTORE PUSH1 0x20 PUSH4 0xFFFFFFFF PUSH1 0x1 PUSH1 0x40 PUSH1 0x0 KECCAK256 ADD SLOAD DUP3 SHR AND PUSH1 0x40 MLOAD SWAP1 DUP2 MSTORE RETURN JUMPDEST CALLVALUE PUSH2 0x192 JUMPI PUSH1 0x0 CALLDATASIZE PUSH1 0x3 NOT ADD SLT PUSH2 0x192 JUMPI PUSH1 0x20 PUSH1 0x40 MLOAD PUSH1 0xA4 DUP2 MSTORE RETURN JUMPDEST CALLVALUE PUSH2 0x192 JUMPI PUSH1 0x20 CALLDATASIZE PUSH1 0x3 NOT ADD SLT PUSH2 0x192 JUMPI PUSH1 0x4 CALLDATALOAD PUSH1 0x0 MSTORE PUSH1 0x9 PUSH1 0x20 MSTORE PUSH1 0x40 PUSH1 0xFF DUP2 PUSH1 0x0 KECCAK256 SLOAD AND PUSH1 0xA PUSH1 0x20 MSTORE PUSH1 0xFF DUP3 PUSH1 0x0 KECCAK256 SLOAD AND DUP3 MLOAD SWAP2 DUP3 MSTORE ISZERO ISZERO PUSH1 0x20 DUP3 ADD MSTORE RETURN JUMPDEST CALLVALUE PUSH2 0x192 JUMPI PUSH1 0x20 CALLDATASIZE PUSH1 0x3 NOT ADD SLT PUSH2 0x192 JUMPI PUSH1 0x4 CALLDATALOAD PUSH1 0x0 MSTORE PUSH1 0x5 PUSH1 0x20 MSTORE PUSH1 0x20 PUSH1 0xFF PUSH1 0x40 PUSH1 0x0 KECCAK256 SLOAD AND PUSH1 0x40 MLOAD SWAP1 ISZERO ISZERO DUP2 MSTORE RETURN JUMPDEST CALLVALUE PUSH2 0x192 JUMPI PUSH1 0x0 CALLDATASIZE PUSH1 0x3 NOT ADD SLT PUSH2 0x192 JUMPI PUSH1 0x3 SLOAD PUSH1 0x40 MLOAD PUSH1 0x1 PUSH1 0x1 PUSH1 0xA0 SHL SUB SWAP1 SWAP2 AND DUP2 MSTORE PUSH1 0x20 SWAP1 RETURN JUMPDEST CALLVALUE PUSH2 0x192 JUMPI PUSH1 0x20 CALLDATASIZE PUSH1 0x3 NOT ADD SLT PUSH2 0x192 JUMPI PUSH1 0x4 CALLDATALOAD PUSH1 0x0 MSTORE PUSH1 0xA PUSH1 0x20 MSTORE PUSH1 0x20 PUSH1 0xFF PUSH1 0x40 PUSH1 0x0 KECCAK256 SLOAD AND PUSH1 0x40 MLOAD SWAP1 ISZERO ISZERO DUP2 MSTORE RETURN JUMPDEST CALLVALUE PUSH2 0x192 JUMPI PUSH1 0x0 DUP1 PUSH1 0x3 NOT CALLDATASIZE ADD SLT PUSH2 0x41D JUMPI PUSH2 0x3DC PUSH2 0xA8C JUMP JUMPDEST DUP1 SLOAD PUSH1 0x1 PUSH1 0x1 PUSH1 0xA0 SHL SUB NOT DUP2 AND DUP3 SSTORE DUP2 SWAP1 PUSH1 0x1 PUSH1 0x1 PUSH1 0xA0 SHL SUB AND PUSH32 0x8BE0079C531659141344CD1FD0A4F28419497F9722A3DAAFE3B4186F6B6457E0 DUP3 DUP1 LOG3 DUP1 RETURN JUMPDEST DUP1 REVERT JUMPDEST CALLVALUE PUSH2 0x192 JUMPI PUSH2 0x42E CALLDATASIZE PUSH2 0x1E2 JUMP JUMPDEST SWAP4 PUSH2 0x43A SWAP4 SWAP2 SWAP4 PUSH2 0xAD2 JUMP JUMPDEST PUSH1 0xA4 DUP4 SUB PUSH2 0x4CD JUMPI PUSH1 0x20 PUSH1 0x0 PUSH1 0x40 MLOAD DUP6 DUP6 DUP3 CALLDATACOPY DUP1 DUP7 DUP2 ADD DUP4 DUP2 MSTORE SUB SWAP1 PUSH1 0x2 GAS STATICCALL ISZERO PUSH2 0x4C8 JUMPI PUSH1 0x0 DUP1 MLOAD PUSH1 0x6 PUSH1 0x20 MSTORE PUSH1 0x40 SWAP1 SWAP2 KECCAK256 PUSH2 0x479 SWAP1 JUMPDEST SLOAD PUSH1 0xFF AND SWAP1 JUMP JUMPDEST PUSH2 0x4AA JUMPI PUSH2 0x4A6 PUSH2 0x48D DUP8 DUP8 DUP8 DUP8 DUP8 PUSH2 0xD90 JUMP JUMPDEST PUSH2 0x496 PUSH1 0x1 DUP1 SSTORE JUMP JUMPDEST PUSH1 0x40 MLOAD SWAP1 DUP2 MSTORE SWAP1 DUP2 SWAP1 PUSH1 0x20 DUP3 ADD SWAP1 JUMP JUMPDEST SUB SWAP1 RETURN JUMPDEST PUSH1 0x40 MLOAD PUSH4 0x32888C05 PUSH1 0xE2 SHL DUP2 MSTORE PUSH1 0x4 DUP2 ADD SWAP2 SWAP1 SWAP2 MSTORE PUSH1 0x24 SWAP1 REVERT JUMPDEST SUB SWAP1 REVERT JUMPDEST PUSH2 0xAC6 JUMP JUMPDEST PUSH1 0x40 MLOAD PUSH4 0x8575BC9 PUSH1 0xE4 SHL DUP2 MSTORE PUSH1 0x4 DUP2 ADD DUP5 SWAP1 MSTORE PUSH1 0x24 SWAP1 REVERT JUMPDEST CALLVALUE PUSH2 0x192 JUMPI PUSH1 0x80 CALLDATASIZE PUSH1 0x3 NOT ADD SLT PUSH2 0x192 JUMPI PUSH1 0x1 PUSH1 0x1 PUSH1 0x40 SHL SUB PUSH1 0x24 CALLDATALOAD DUP2 DUP2 GT PUSH2 0x192 JUMPI PUSH2 0x517 SWAP1 CALLDATASIZE SWAP1 PUSH1 0x4 ADD PUSH2 0x1B5 JUMP JUMPDEST SWAP2 PUSH1 0x44 CALLDATALOAD SWAP1 DUP2 GT PUSH2 0x192 JUMPI PUSH2 0x530 SWAP1 CALLDATASIZE SWAP1 PUSH1 0x4 ADD PUSH2 0x1B5 JUMP JUMPDEST PUSH1 0x64 CALLDATALOAD SWAP2 PUSH1 0xFF DUP4 AND DUP4 SUB PUSH2 0x192 JUMPI PUSH2 0x4A6 SWAP5 PUSH2 0x496 SWAP5 PUSH1 0x4 CALLDATALOAD PUSH2 0xCB6 JUMP JUMPDEST CALLVALUE PUSH2 0x192 JUMPI PUSH1 0x0 CALLDATASIZE PUSH1 0x3 NOT ADD SLT PUSH2 0x192 JUMPI PUSH1 0x0 SLOAD PUSH1 0x40 MLOAD PUSH1 0x1 PUSH1 0x1 PUSH1 0xA0 SHL SUB SWAP1 SWAP2 AND DUP2 MSTORE PUSH1 0x20 SWAP1 RETURN JUMPDEST CALLVALUE PUSH2 0x192 JUMPI PUSH1 0x20 CALLDATASIZE PUSH1 0x3 NOT ADD SLT PUSH2 0x192 JUMPI PUSH2 0x590 PUSH2 0xA8C JUMP JUMPDEST PUSH1 0x4 CALLDATALOAD PUSH1 0x2 SSTORE STOP JUMPDEST SWAP2 DUP2 PUSH1 0x1F DUP5 ADD SLT ISZERO PUSH2 0x192 JUMPI DUP3 CALLDATALOAD SWAP2 PUSH1 0x1 PUSH1 0x1 PUSH1 0x40 SHL SUB DUP4 GT PUSH2 0x192 JUMPI PUSH1 0x20 DUP1 DUP6 ADD SWAP5 DUP5 PUSH1 0x5 SHL ADD ADD GT PUSH2 0x192 JUMPI JUMP JUMPDEST PUSH1 0x20 SWAP1 DUP2 PUSH1 0x40 DUP2 DUP4 ADD SWAP3 DUP3 DUP2 MSTORE DUP6 MLOAD DUP1 SWAP5 MSTORE ADD SWAP4 ADD SWAP2 PUSH1 0x0 JUMPDEST DUP3 DUP2 LT PUSH2 0x5EF JUMPI POP POP POP POP SWAP1 JUMP JUMPDEST DUP4 MLOAD DUP6 MSTORE SWAP4 DUP2 ADD SWAP4 SWAP3 DUP2 ADD SWAP3 PUSH1 0x1 ADD PUSH2 0x5E1 JUMP JUMPDEST CALLVALUE PUSH2 0x192 JUMPI PUSH1 0x60 CALLDATASIZE PUSH1 0x3 NOT ADD SLT PUSH2 0x192 JUMPI PUSH1 0x4 PUSH1 0x1 PUSH1 0x1 PUSH1 0x40 SHL SUB DUP2 CALLDATALOAD DUP2 DUP2 GT PUSH2 0x192 JUMPI PUSH2 0x634 SWAP1 CALLDATASIZE SWAP1 DUP5 ADD PUSH2 0x598 JUMP JUMPDEST SWAP3 SWAP1 SWAP2 PUSH1 0x24 CALLDATALOAD DUP2 DUP2 GT PUSH2 0x192 JUMPI PUSH2 0x64E SWAP1 CALLDATASIZE SWAP1 DUP5 ADD PUSH2 0x598 JUMP JUMPDEST SWAP4 SWAP1 SWAP2 PUSH1 0x44 CALLDATALOAD SWAP1 DUP2 GT PUSH2 0x192 JUMPI PUSH2 0x668 SWAP1 CALLDATASIZE SWAP1 DUP6 ADD PUSH2 0x598 JUMP JUMPDEST SWAP2 SWAP1 PUSH2 0x672 PUSH2 0xAD2 JUMP JUMPDEST DUP7 ISZERO PUSH2 0x8AD JUMPI DUP6 DUP8 EQ DUP1 ISZERO SWAP1 PUSH2 0x8A3 JUMPI JUMPDEST PUSH2 0x892 JUMPI SWAP5 SWAP3 SWAP4 SWAP2 SWAP1 PUSH2 0x695 DUP8 PUSH2 0xB7B JUMP JUMPDEST SWAP6 PUSH1 0x0 SWAP5 DUP6 SWAP7 DUP7 SWAP6 JUMPDEST DUP11 DUP8 LT PUSH2 0x6FA JUMPI PUSH1 0x40 DUP1 MLOAD DUP13 DUP2 MSTORE PUSH1 0x20 DUP2 ADD DUP12 SWAP1 MSTORE SWAP1 DUP2 ADD DUP10 SWAP1 MSTORE PUSH2 0x4A6 SWAP1 DUP12 SWAP1 PUSH32 0x6CEDC2BC02D0738DA2FFF66F7BC5753BDBB34F5AAF4F9C2A71C4D52B661AED07 SWAP1 PUSH1 0x60 SWAP1 LOG1 PUSH2 0x6EE PUSH1 0x1 DUP1 SSTORE JUMP JUMPDEST PUSH1 0x40 MLOAD SWAP2 DUP3 SWAP2 DUP3 PUSH2 0x5C8 JUMP JUMPDEST SWAP1 SWAP2 SWAP3 SWAP4 SWAP5 SWAP6 SWAP7 DUP8 DUP11 PUSH1 0xA4 PUSH2 0x710 DUP4 DUP9 DUP9 PUSH2 0xBED JUMP JUMPDEST SWAP1 POP SUB PUSH2 0x87F JUMPI POP PUSH2 0x723 SWAP1 DUP6 DUP6 PUSH2 0xBED JUMP JUMPDEST PUSH1 0x40 SWAP3 SWAP2 PUSH1 0x0 DUP5 MLOAD DUP1 PUSH2 0x73A DUP2 PUSH1 0x20 SWAP7 DUP8 SWAP7 PUSH2 0xAB8 JUMP JUMPDEST SUB SWAP1 PUSH1 0x2 GAS STATICCALL ISZERO PUSH2 0x4C8 JUMPI DUP9 DUP13 SWAP2 DUP9 DUP16 DUP14 SWAP7 DUP11 DUP11 SWAP3 DUP15 PUSH1 0x0 MLOAD PUSH2 0x76A PUSH2 0x472 DUP3 PUSH1 0x0 MSTORE PUSH1 0x6 PUSH1 0x20 MSTORE PUSH1 0x40 PUSH1 0x0 KECCAK256 SWAP1 JUMP JUMPDEST PUSH2 0x863 JUMPI DUP12 PUSH2 0x7D7 SWAP6 SWAP5 PUSH2 0x7AF DUP3 DUP12 SWAP13 SWAP14 SWAP15 SWAP16 SWAP6 SWAP7 PUSH2 0x7BE SWAP8 PUSH2 0x7AA PUSH2 0x79D PUSH2 0x7B6 SWAP9 PUSH1 0x0 MSTORE PUSH1 0x6 PUSH1 0x20 MSTORE PUSH1 0x40 PUSH1 0x0 KECCAK256 SWAP1 JUMP JUMPDEST DUP1 SLOAD PUSH1 0xFF NOT AND PUSH1 0x1 OR SWAP1 SSTORE JUMP JUMPDEST PUSH2 0xC47 JUMP JUMPDEST CALLDATALOAD SWAP8 PUSH2 0xBED JUMP JUMPDEST SWAP10 SWAP1 SWAP7 PUSH2 0xBED JUMP JUMPDEST SWAP2 MLOAD PUSH4 0xBEB4DA7 PUSH1 0xE0 SHL DUP2 MSTORE SWAP8 DUP9 SWAP6 DUP7 SWAP6 DUP14 DUP8 ADD PUSH2 0xC87 JUMP JUMPDEST SUB DUP2 PUSH1 0x0 ADDRESS GAS CALL SWAP2 DUP3 SWAP2 PUSH1 0x0 SWAP4 PUSH2 0x834 JUMPI JUMPDEST POP POP PUSH2 0x81A JUMPI POP PUSH2 0x80F SWAP2 PUSH1 0x0 PUSH2 0x803 DUP12 PUSH2 0x809 SWAP5 PUSH2 0xC33 JUMP JUMPDEST MSTORE PUSH2 0xBC3 JUMP JUMPDEST SWAP8 PUSH2 0xBC3 JUMP JUMPDEST SWAP6 SWAP5 SWAP4 SWAP3 SWAP2 SWAP1 PUSH2 0x69E JUMP JUMPDEST SWAP10 DUP10 SWAP11 PUSH2 0x803 PUSH2 0x80F SWAP5 SWAP12 PUSH2 0x82E SWAP5 PUSH2 0xC33 JUMP JUMPDEST SWAP9 PUSH2 0xBC3 JUMP JUMPDEST PUSH2 0x854 SWAP3 SWAP4 POP DUP1 RETURNDATASIZE LT PUSH2 0x85C JUMPI JUMPDEST PUSH2 0x84C DUP2 DUP4 PUSH2 0xB23 JUMP JUMPDEST DUP2 ADD SWAP1 PUSH2 0xC57 JUMP JUMPDEST SWAP1 CODESIZE DUP1 PUSH2 0x7E9 JUMP JUMPDEST POP RETURNDATASIZE PUSH2 0x842 JUMP JUMPDEST POP POP POP POP POP POP POP POP POP SWAP1 PUSH1 0x0 PUSH2 0x803 PUSH2 0x80F SWAP5 PUSH2 0x809 SWAP5 PUSH2 0xC33 JUMP JUMPDEST SWAP2 PUSH1 0x0 PUSH2 0x803 PUSH2 0x809 SWAP4 PUSH2 0x80F SWAP6 PUSH2 0xC33 JUMP JUMPDEST PUSH1 0x40 MLOAD PUSH4 0x512509D3 PUSH1 0xE1 SHL DUP2 MSTORE DUP6 SWAP1 REVERT JUMPDEST POP DUP3 DUP8 EQ ISZERO PUSH2 0x683 JUMP JUMPDEST PUSH1 0x40 MLOAD PUSH4 0xC2E5347D PUSH1 0xE0 SHL DUP2 MSTORE DUP6 SWAP1 REVERT JUMPDEST CALLVALUE PUSH2 0x192 JUMPI PUSH1 0x20 CALLDATASIZE PUSH1 0x3 NOT ADD SLT PUSH2 0x192 JUMPI PUSH1 0x4 CALLDATALOAD PUSH1 0x0 MSTORE PUSH1 0x6 PUSH1 0x20 MSTORE PUSH1 0x20 PUSH1 0xFF PUSH1 0x40 PUSH1 0x0 KECCAK256 SLOAD AND PUSH1 0x40 MLOAD SWAP1 ISZERO ISZERO DUP2 MSTORE RETURN JUMPDEST CALLVALUE PUSH2 0x192 JUMPI PUSH1 0x0 CALLDATASIZE PUSH1 0x3 NOT ADD SLT PUSH2 0x192 JUMPI PUSH1 0x20 PUSH1 0x40 MLOAD PUSH2 0x100 DUP2 MSTORE RETURN JUMPDEST CALLVALUE PUSH2 0x192 JUMPI PUSH1 0x20 CALLDATASIZE PUSH1 0x3 NOT ADD SLT PUSH2 0x192 JUMPI PUSH1 0x4 CALLDATALOAD PUSH1 0x0 MSTORE PUSH1 0x8 PUSH1 0x20 MSTORE PUSH1 0x20 PUSH1 0xFF PUSH1 0x40 PUSH1 0x0 KECCAK256 SLOAD AND PUSH1 0x40 MLOAD SWAP1 DUP2 MSTORE RETURN JUMPDEST CALLVALUE PUSH2 0x192 JUMPI PUSH1 0x0 CALLDATASIZE PUSH1 0x3 NOT ADD SLT PUSH2 0x192 JUMPI PUSH1 0x20 PUSH1 0x40 MLOAD PUSH1 0x40 DUP2 MSTORE RETURN JUMPDEST CALLVALUE PUSH2 0x192 JUMPI PUSH1 0x0 CALLDATASIZE PUSH1 0x3 NOT ADD SLT PUSH2 0x192 JUMPI PUSH1 0x20 PUSH1 0x7 SLOAD PUSH1 0x40 MLOAD SWAP1 DUP2 MSTORE RETURN JUMPDEST CALLVALUE PUSH2 0x192 JUMPI PUSH1 0x20 CALLDATASIZE PUSH1 0x3 NOT ADD SLT PUSH2 0x192 JUMPI PUSH1 0x4 CALLDATALOAD PUSH1 0x0 MSTORE PUSH1 0x4 PUSH1 0x20 MSTORE PUSH1 0x60 PUSH1 0x40 PUSH1 0x0 KECCAK256 PUSH1 0xFF PUSH1 0x1 DUP3 SLOAD SWAP3 ADD SLOAD PUSH1 0x40 MLOAD SWAP3 DUP4 MSTORE PUSH4 0xFFFFFFFF DUP2 AND PUSH1 0x20 DUP5 ADD MSTORE PUSH1 0x40 SHR AND ISZERO ISZERO PUSH1 0x40 DUP3 ADD MSTORE RETURN JUMPDEST PUSH1 0x1 PUSH1 0x1 PUSH1 0xA0 SHL SUB DUP2 AND SUB PUSH2 0x192 JUMPI JUMP JUMPDEST CALLVALUE PUSH2 0x192 JUMPI PUSH1 0x20 CALLDATASIZE PUSH1 0x3 NOT ADD SLT PUSH2 0x192 JUMPI PUSH1 0x4 CALLDATALOAD PUSH2 0x9EE DUP2 PUSH2 0x9C0 JUMP JUMPDEST PUSH2 0x9F6 PUSH2 0xA8C JUMP JUMPDEST PUSH1 0x1 PUSH1 0x1 PUSH1 0xA0 SHL SUB SWAP1 DUP2 AND DUP1 ISZERO PUSH2 0xA44 JUMPI PUSH1 0x0 DUP1 SLOAD PUSH1 0x1 PUSH1 0x1 PUSH1 0xA0 SHL SUB NOT DUP2 AND DUP4 OR DUP3 SSTORE SWAP1 SWAP3 AND PUSH32 0x8BE0079C531659141344CD1FD0A4F28419497F9722A3DAAFE3B4186F6B6457E0 DUP4 DUP1 LOG3 DUP1 RETURN JUMPDEST PUSH1 0x40 MLOAD PUSH4 0x1E4FBDF7 PUSH1 0xE0 SHL DUP2 MSTORE PUSH1 0x0 PUSH1 0x4 DUP3 ADD MSTORE PUSH1 0x24 SWAP1 REVERT JUMPDEST CALLVALUE PUSH2 0x192 JUMPI PUSH1 0x20 CALLDATASIZE PUSH1 0x3 NOT ADD SLT PUSH2 0x192 JUMPI PUSH1 0x4 CALLDATALOAD PUSH1 0x0 MSTORE PUSH1 0x9 PUSH1 0x20 MSTORE PUSH1 0x20 PUSH1 0xFF PUSH1 0x40 PUSH1 0x0 KECCAK256 SLOAD AND PUSH1 0x40 MLOAD SWAP1 DUP2 MSTORE RETURN JUMPDEST PUSH1 0x0 SLOAD PUSH1 0x1 PUSH1 0x1 PUSH1 0xA0 SHL SUB AND CALLER SUB PUSH2 0xAA0 JUMPI JUMP JUMPDEST PUSH1 0x40 MLOAD PUSH4 0x118CDAA7 PUSH1 0xE0 SHL DUP2 MSTORE CALLER PUSH1 0x4 DUP3 ADD MSTORE PUSH1 0x24 SWAP1 REVERT JUMPDEST SWAP1 DUP1 SWAP3 SWAP2 DUP3 CALLDATACOPY ADD PUSH1 0x0 DUP2 MSTORE SWAP1 JUMP JUMPDEST PUSH1 0x40 MLOAD RETURNDATASIZE PUSH1 0x0 DUP3 RETURNDATACOPY RETURNDATASIZE SWAP1 REVERT JUMPDEST PUSH1 0x2 PUSH1 0x1 SLOAD EQ PUSH2 0xAE3 JUMPI PUSH1 0x2 PUSH1 0x1 SSTORE JUMP JUMPDEST PUSH1 0x40 MLOAD PUSH4 0x3EE5AEB5 PUSH1 0xE0 SHL DUP2 MSTORE PUSH1 0x4 SWAP1 REVERT JUMPDEST PUSH4 0x4E487B71 PUSH1 0xE0 SHL PUSH1 0x0 MSTORE PUSH1 0x41 PUSH1 0x4 MSTORE PUSH1 0x24 PUSH1 0x0 REVERT JUMPDEST PUSH1 0x1 PUSH1 0x1 PUSH1 0x40 SHL SUB DUP2 GT PUSH2 0xB1E JUMPI PUSH1 0x40 MSTORE JUMP JUMPDEST PUSH2 0xAF5 JUMP JUMPDEST SWAP1 PUSH1 0x1F DUP1 NOT SWAP2 ADD AND DUP2 ADD SWAP1 DUP2 LT PUSH1 0x1 PUSH1 0x1 PUSH1 0x40 SHL SUB DUP3 GT OR PUSH2 0xB1E JUMPI PUSH1 0x40 MSTORE JUMP JUMPDEST PUSH1 0x40 MLOAD SWAP1 PUSH2 0x140 DUP3 ADD DUP3 DUP2 LT PUSH1 0x1 PUSH1 0x1 PUSH1 0x40 SHL SUB DUP3 GT OR PUSH2 0xB1E JUMPI PUSH1 0x40 MSTORE JUMP JUMPDEST PUSH1 0x1 PUSH1 0x1 PUSH1 0x40 SHL SUB DUP2 GT PUSH2 0xB1E JUMPI PUSH1 0x5 SHL PUSH1 0x20 ADD SWAP1 JUMP JUMPDEST SWAP1 PUSH2 0xB85 DUP3 PUSH2 0xB64 JUMP JUMPDEST PUSH2 0xB92 PUSH1 0x40 MLOAD SWAP2 DUP3 PUSH2 0xB23 JUMP JUMPDEST DUP3 DUP2 MSTORE DUP1 SWAP3 PUSH2 0xBA3 PUSH1 0x1F NOT SWAP2 PUSH2 0xB64 JUMP JUMPDEST ADD SWAP1 PUSH1 0x20 CALLDATASIZE SWAP2 ADD CALLDATACOPY JUMP JUMPDEST PUSH4 0x4E487B71 PUSH1 0xE0 SHL PUSH1 0x0 MSTORE PUSH1 0x11 PUSH1 0x4 MSTORE PUSH1 0x24 PUSH1 0x0 REVERT JUMPDEST PUSH1 0x0 NOT DUP2 EQ PUSH2 0xBD2 JUMPI PUSH1 0x1 ADD SWAP1 JUMP JUMPDEST PUSH2 0xBAD JUMP JUMPDEST PUSH4 0x4E487B71 PUSH1 0xE0 SHL PUSH1 0x0 MSTORE PUSH1 0x32 PUSH1 0x4 MSTORE PUSH1 0x24 PUSH1 0x0 REVERT JUMPDEST SWAP2 SWAP1 DUP2 LT ISZERO PUSH2 0xC2E JUMPI PUSH1 0x5 SHL DUP2 ADD CALLDATALOAD SWAP1 PUSH1 0x1E NOT DUP2 CALLDATASIZE SUB ADD DUP3 SLT ISZERO PUSH2 0x192 JUMPI ADD SWAP1 DUP2 CALLDATALOAD SWAP2 PUSH1 0x1 PUSH1 0x1 PUSH1 0x40 SHL SUB DUP4 GT PUSH2 0x192 JUMPI PUSH1 0x20 ADD DUP3 CALLDATASIZE SUB DUP2 SGT PUSH2 0x192 JUMPI SWAP2 SWAP1 JUMP JUMPDEST PUSH2 0xBD7 JUMP JUMPDEST DUP1 MLOAD DUP3 LT ISZERO PUSH2 0xC2E JUMPI PUSH1 0x20 SWAP2 PUSH1 0x5 SHL ADD ADD SWAP1 JUMP JUMPDEST SWAP2 SWAP1 DUP2 LT ISZERO PUSH2 0xC2E JUMPI PUSH1 0x5 SHL ADD SWAP1 JUMP JUMPDEST SWAP1 DUP2 PUSH1 0x20 SWAP2 SUB SLT PUSH2 0x192 JUMPI MLOAD SWAP1 JUMP JUMPDEST SWAP1 DUP1 PUSH1 0x20 SWAP4 SWAP3 DUP2 DUP5 MSTORE DUP5 DUP5 ADD CALLDATACOPY PUSH1 0x0 DUP3 DUP3 ADD DUP5 ADD MSTORE PUSH1 0x1F ADD PUSH1 0x1F NOT AND ADD ADD SWAP1 JUMP JUMPDEST SWAP4 SWAP2 PUSH2 0xCB3 SWAP6 SWAP4 PUSH2 0xCA5 SWAP3 DUP7 MSTORE PUSH1 0x60 PUSH1 0x20 DUP8 ADD MSTORE PUSH1 0x60 DUP7 ADD SWAP2 PUSH2 0xC66 JUMP JUMPDEST SWAP3 PUSH1 0x40 DUP2 DUP6 SUB SWAP2 ADD MSTORE PUSH2 0xC66 JUMP JUMPDEST SWAP1 JUMP JUMPDEST PUSH2 0xCBE PUSH2 0xAD2 JUMP JUMPDEST PUSH1 0xFF DUP7 AND ISZERO PUSH2 0xD60 JUMPI PUSH1 0xA4 DUP4 SUB PUSH2 0x4CD JUMPI PUSH1 0x20 PUSH1 0x0 PUSH1 0x40 MLOAD DUP1 PUSH2 0xCE2 DUP2 DUP9 DUP9 PUSH2 0xAB8 JUMP JUMPDEST SUB SWAP1 PUSH1 0x2 GAS STATICCALL ISZERO PUSH2 0x4C8 JUMPI PUSH1 0x0 DUP1 MLOAD PUSH1 0x6 PUSH1 0x20 MSTORE PUSH1 0x40 SWAP1 SWAP2 KECCAK256 PUSH2 0xD04 SWAP1 PUSH2 0x472 JUMP JUMPDEST PUSH2 0x4AA JUMPI POP SWAP2 PUSH2 0xD19 SWAP4 SWAP2 PUSH2 0xD3D SWAP6 SWAP4 PUSH2 0xD90 JUMP JUMPDEST SWAP2 PUSH2 0xD2E DUP4 PUSH1 0x0 MSTORE PUSH1 0x9 PUSH1 0x20 MSTORE PUSH1 0x40 PUSH1 0x0 KECCAK256 SWAP1 JUMP JUMPDEST SWAP1 PUSH1 0xFF AND PUSH1 0xFF NOT DUP3 SLOAD AND OR SWAP1 SSTORE JUMP JUMPDEST PUSH2 0xD54 PUSH2 0x79D DUP3 PUSH1 0x0 MSTORE PUSH1 0xA PUSH1 0x20 MSTORE PUSH1 0x40 PUSH1 0x0 KECCAK256 SWAP1 JUMP JUMPDEST SWAP1 PUSH2 0xD5E PUSH1 0x1 DUP1 SSTORE JUMP JUMPDEST JUMP JUMPDEST PUSH1 0x40 MLOAD PUSH4 0x3DEBA3D9 PUSH1 0xE2 SHL DUP2 MSTORE PUSH1 0xFF DUP8 AND PUSH1 0x4 DUP3 ADD MSTORE PUSH1 0x24 SWAP1 REVERT JUMPDEST PUSH4 0xFFFFFFFF DUP1 SWAP2 AND SWAP1 DUP2 EQ PUSH2 0xBD2 JUMPI PUSH1 0x1 ADD SWAP1 JUMP JUMPDEST SWAP3 SWAP5 SWAP4 SWAP1 PUSH1 0xA4 DUP4 SUB PUSH2 0x4CD JUMPI PUSH1 0x40 SWAP2 DUP3 DUP2 SUB PUSH2 0x1149 JUMPI PUSH2 0xDAF DUP6 PUSH2 0x131E JUMP JUMPDEST PUSH1 0x20 DUP4 MLOAD SWAP5 DUP6 DUP1 PUSH2 0xDC4 PUSH1 0x0 SWAP9 DUP10 SWAP5 DUP9 PUSH2 0xAB8 JUMP JUMPDEST SUB SWAP1 PUSH1 0x2 GAS STATICCALL ISZERO PUSH2 0x4C8 JUMPI DUP4 MLOAD SWAP7 PUSH2 0xDE9 PUSH2 0x472 DUP10 PUSH1 0x0 MSTORE PUSH1 0x5 PUSH1 0x20 MSTORE PUSH1 0x40 PUSH1 0x0 KECCAK256 SWAP1 JUMP JUMPDEST PUSH2 0x1131 JUMPI PUSH2 0xE02 SWAP3 SWAP2 PUSH2 0xDFD SWAP2 DUP10 DUP9 PUSH2 0x141B JUMP JUMPDEST PUSH2 0x15A4 JUMP JUMPDEST SWAP1 PUSH2 0xE17 DUP5 PUSH1 0x0 MSTORE PUSH1 0x4 PUSH1 0x20 MSTORE PUSH1 0x40 PUSH1 0x0 KECCAK256 SWAP1 JUMP JUMPDEST PUSH1 0x1 DUP2 ADD DUP1 SLOAD DUP1 DUP5 SHR PUSH1 0xFF AND SWAP5 SWAP3 SWAP1 DUP6 DUP1 PUSH2 0x111A JUMPI JUMPDEST PUSH2 0x10C9 JUMPI POP DUP9 SWAP1 PUSH1 0x80 DUP5 ADD SWAP6 PUSH2 0xE4D PUSH2 0xE47 DUP9 MLOAD PUSH1 0x7 SIGNEXTEND SWAP1 JUMP JUMPDEST DUP11 PUSH2 0x14F8 JUMP JUMPDEST DUP5 MLOAD SWAP1 DUP2 PUSH2 0x1080 JUMPI JUMPDEST POP POP SSTORE PUSH2 0xEE4 PUSH1 0x60 DUP4 ADD SWAP2 PUSH2 0xE88 PUSH2 0xE72 DUP5 MLOAD PUSH4 0xFFFFFFFF AND SWAP1 JUMP JUMPDEST DUP3 SLOAD PUSH4 0xFFFFFFFF NOT AND PUSH4 0xFFFFFFFF SWAP1 SWAP2 AND OR DUP3 SSTORE JUMP JUMPDEST PUSH2 0xEC7 PUSH2 0xEA5 PUSH2 0xEA0 DUP4 SLOAD PUSH4 0xFFFFFFFF SWAP1 PUSH1 0x20 SHR AND SWAP1 JUMP JUMPDEST PUSH2 0xD7B JUMP JUMPDEST DUP3 SLOAD PUSH8 0xFFFFFFFF00000000 NOT AND PUSH1 0x20 SWAP2 SWAP1 SWAP2 SHL PUSH8 0xFFFFFFFF00000000 AND OR DUP3 SSTORE JUMP JUMPDEST DUP1 SLOAD PUSH9 0xFF0000000000000000 NOT AND PUSH9 0x10000000000000000 OR SWAP1 SSTORE JUMP JUMPDEST PUSH1 0x20 DUP3 ADD SWAP5 PUSH2 0xF0B PUSH2 0xEF7 DUP8 MLOAD PUSH1 0xFF AND SWAP1 JUMP JUMPDEST PUSH2 0xD2E DUP12 PUSH1 0x0 MSTORE PUSH1 0x8 PUSH1 0x20 MSTORE PUSH1 0x40 PUSH1 0x0 KECCAK256 SWAP1 JUMP JUMPDEST PUSH2 0xF22 PUSH2 0x79D DUP11 PUSH1 0x0 MSTORE PUSH1 0x6 PUSH1 0x20 MSTORE PUSH1 0x40 PUSH1 0x0 KECCAK256 SWAP1 JUMP JUMPDEST PUSH2 0xF39 PUSH2 0x79D DUP11 PUSH1 0x0 MSTORE PUSH1 0x5 PUSH1 0x20 MSTORE PUSH1 0x40 PUSH1 0x0 KECCAK256 SWAP1 JUMP JUMPDEST PUSH2 0xF4C PUSH2 0xF47 PUSH1 0x7 SLOAD PUSH2 0xBC3 JUMP JUMPDEST PUSH1 0x7 SSTORE JUMP JUMPDEST PUSH1 0x3 SLOAD PUSH2 0xF69 SWAP1 PUSH1 0x1 PUSH1 0x1 PUSH1 0xA0 SHL SUB AND JUMPDEST PUSH1 0x1 PUSH1 0x1 PUSH1 0xA0 SHL SUB AND SWAP1 JUMP JUMPDEST DUP1 EXTCODESIZE ISZERO PUSH2 0x107C JUMPI SWAP3 PUSH2 0xFFB PUSH2 0xFF3 PUSH2 0x105E SWAP5 DUP5 DUP9 SWAP6 PUSH2 0xFDF DUP16 SWAP14 SWAP13 SWAP11 SWAP10 DUP14 PUSH32 0xCFAF1C01B5ED0EFE033EDF39991653AB530CCF7137A5F17BE336449EADB644CE SWAP14 SWAP12 MLOAD SWAP5 DUP6 DUP1 SWAP5 DUP2 SWAP4 PUSH4 0x7567C75 PUSH1 0xE0 SHL DUP4 MSTORE PUSH1 0x4 DUP4 ADD PUSH1 0x60 PUSH1 0x0 SWAP2 SWAP4 SWAP3 SWAP4 PUSH1 0x80 DUP2 ADD SWAP5 DUP2 MSTORE PUSH1 0x1 PUSH1 0x20 DUP3 ADD MSTORE DUP3 PUSH1 0x40 DUP3 ADD MSTORE ADD MSTORE JUMP JUMPDEST SUB SWAP3 GAS CALL PUSH2 0x1063 JUMPI JUMPDEST POP MLOAD PUSH4 0xFFFFFFFF AND SWAP1 JUMP JUMPDEST SWAP5 MLOAD PUSH1 0x7 SIGNEXTEND SWAP1 JUMP JUMPDEST SWAP5 PUSH2 0x1025 PUSH1 0xA0 PUSH2 0x1019 PUSH2 0x1011 DUP7 DUP7 ADD MLOAD PUSH1 0xFF AND SWAP1 JUMP JUMPDEST SWAP4 MLOAD PUSH1 0xFF AND SWAP1 JUMP JUMPDEST SWAP4 ADD MLOAD PUSH4 0xFFFFFFFF AND SWAP1 JUMP JUMPDEST SWAP3 MLOAD PUSH4 0xFFFFFFFF SWAP6 DUP7 AND DUP2 MSTORE PUSH1 0x7 SWAP7 SWAP1 SWAP7 SIGNEXTEND PUSH1 0x20 DUP8 ADD MSTORE PUSH1 0xFF SWAP1 DUP2 AND PUSH1 0x40 DUP8 ADD MSTORE AND PUSH1 0x60 DUP6 ADD MSTORE SWAP2 SWAP1 SWAP2 AND PUSH1 0x80 DUP4 ADD MSTORE DUP2 SWAP1 PUSH1 0xA0 DUP3 ADD SWAP1 JUMP JUMPDEST SUB SWAP1 LOG3 JUMP JUMPDEST DUP1 PUSH2 0x1070 PUSH2 0x1076 SWAP3 PUSH2 0xB0B JUMP JUMPDEST DUP1 PUSH2 0x187 JUMP JUMPDEST CODESIZE PUSH2 0xFE8 JUMP JUMPDEST POP DUP1 REVERT JUMPDEST SWAP2 SWAP3 POP SWAP1 DUP1 PUSH2 0x10BE JUMPI JUMPDEST PUSH2 0x1097 JUMPI SWAP1 DUP2 DUP11 SWAP3 PUSH2 0xE56 JUMP JUMPDEST DUP2 SLOAD DUP6 MLOAD PUSH4 0x4B3E539 PUSH1 0xE3 SHL DUP2 MSTORE PUSH1 0x4 DUP2 ADD DUP11 SWAP1 MSTORE PUSH1 0x24 DUP2 ADD SWAP3 SWAP1 SWAP3 MSTORE PUSH1 0x44 DUP3 ADD MSTORE PUSH1 0x64 SWAP1 REVERT JUMPDEST POP DUP2 SLOAD DUP2 EQ ISZERO PUSH2 0x108A JUMP JUMPDEST PUSH4 0xFFFFFFFF SWAP1 PUSH2 0x4C4 DUP10 DUP8 PUSH2 0x10E5 PUSH1 0x60 DUP10 ADD MLOAD PUSH4 0xFFFFFFFF AND SWAP1 JUMP JUMPDEST SWAP1 MLOAD SWAP5 DUP6 SWAP5 PUSH4 0xDCE74D91 PUSH1 0xE0 SHL DUP7 MSTORE AND SWAP2 PUSH1 0x4 DUP6 ADD SWAP2 PUSH1 0x40 SWAP2 SWAP5 SWAP4 PUSH1 0x60 DUP5 ADD SWAP6 DUP5 MSTORE PUSH4 0xFFFFFFFF DUP1 SWAP3 AND PUSH1 0x20 DUP6 ADD MSTORE AND SWAP2 ADD MSTORE JUMP JUMPDEST POP PUSH1 0x60 DUP5 ADD MLOAD PUSH4 0xFFFFFFFF DUP3 DUP2 AND SWAP2 AND GT ISZERO PUSH2 0xE2D JUMP JUMPDEST DUP4 MLOAD PUSH4 0x384C4EC9 PUSH1 0xE0 SHL DUP2 MSTORE PUSH1 0x4 DUP2 ADD DUP10 SWAP1 MSTORE PUSH1 0x24 SWAP1 REVERT JUMPDEST DUP3 MLOAD PUSH4 0x58676AD PUSH1 0xE3 SHL DUP2 MSTORE PUSH1 0x4 DUP2 ADD SWAP2 SWAP1 SWAP2 MSTORE PUSH1 0x24 SWAP1 REVERT JUMPDEST MLOAD SWAP1 DUP2 ISZERO ISZERO DUP3 SUB PUSH2 0x192 JUMPI JUMP JUMPDEST SWAP1 DUP2 PUSH1 0x20 SWAP2 SUB SLT PUSH2 0x192 JUMPI PUSH2 0xCB3 SWAP1 PUSH2 0x1162 JUMP JUMPDEST MLOAD SWAP1 PUSH2 0xD5E DUP3 PUSH2 0x9C0 JUMP JUMPDEST MLOAD SWAP1 PUSH1 0x1 PUSH1 0x1 PUSH1 0x40 SHL SUB DUP3 AND DUP3 SUB PUSH2 0x192 JUMPI JUMP JUMPDEST PUSH1 0x1 PUSH1 0x1 PUSH1 0x40 SHL SUB DUP2 GT PUSH2 0xB1E JUMPI PUSH1 0x1F ADD PUSH1 0x1F NOT AND PUSH1 0x20 ADD SWAP1 JUMP JUMPDEST SWAP2 SWAP1 DUP1 PUSH1 0x1F DUP5 ADD SLT ISZERO PUSH2 0x192 JUMPI DUP3 MLOAD SWAP1 PUSH2 0x11D6 DUP3 PUSH2 0x11A2 JUMP JUMPDEST SWAP2 PUSH2 0x11E4 PUSH1 0x40 MLOAD SWAP4 DUP5 PUSH2 0xB23 JUMP JUMPDEST DUP1 DUP4 MSTORE PUSH1 0x20 SWAP2 DUP3 DUP3 DUP8 ADD ADD GT PUSH2 0x192 JUMPI PUSH1 0x0 JUMPDEST DUP2 DUP2 LT PUSH2 0x120C JUMPI POP DUP3 PUSH1 0x0 SWAP4 SWAP5 SWAP6 POP ADD ADD MSTORE SWAP1 JUMP JUMPDEST DUP6 DUP2 ADD DUP4 ADD MLOAD DUP5 DUP3 ADD DUP5 ADD MSTORE DUP3 ADD PUSH2 0x11F7 JUMP JUMPDEST MLOAD SWAP1 PUSH4 0xFFFFFFFF DUP3 AND DUP3 SUB PUSH2 0x192 JUMPI JUMP JUMPDEST MLOAD SWAP1 PUSH2 0xFFFF DUP3 AND DUP3 SUB PUSH2 0x192 JUMPI JUMP JUMPDEST PUSH1 0x20 DUP2 DUP4 SUB SLT PUSH2 0x192 JUMPI DUP1 MLOAD PUSH1 0x1 PUSH1 0x1 PUSH1 0x40 SHL SUB SWAP2 DUP3 DUP3 GT PUSH2 0x192 JUMPI ADD SWAP1 PUSH2 0x140 DUP3 DUP5 SUB SLT PUSH2 0x192 JUMPI PUSH2 0x1270 PUSH2 0xB44 JUMP JUMPDEST SWAP3 PUSH2 0x127A DUP4 PUSH2 0x1183 JUMP JUMPDEST DUP5 MSTORE PUSH2 0x1288 PUSH1 0x20 DUP5 ADD PUSH2 0x118E JUMP JUMPDEST PUSH1 0x20 DUP6 ADD MSTORE PUSH2 0x1299 PUSH1 0x40 DUP5 ADD PUSH2 0x118E JUMP JUMPDEST PUSH1 0x40 DUP6 ADD MSTORE PUSH1 0x60 DUP4 ADD MLOAD PUSH1 0x60 DUP6 ADD MSTORE PUSH2 0x12B4 PUSH1 0x80 DUP5 ADD PUSH2 0x1162 JUMP JUMPDEST PUSH1 0x80 DUP6 ADD MSTORE PUSH1 0xA0 DUP4 ADD MLOAD SWAP2 DUP3 GT PUSH2 0x192 JUMPI PUSH2 0x12D0 SWAP2 DUP4 ADD PUSH2 0x11BD JUMP JUMPDEST PUSH1 0xA0 DUP4 ADD MSTORE PUSH2 0x12E1 PUSH1 0xC0 DUP3 ADD PUSH2 0x121F JUMP JUMPDEST PUSH1 0xC0 DUP4 ADD MSTORE PUSH2 0x12F2 PUSH1 0xE0 DUP3 ADD PUSH2 0x121F JUMP JUMPDEST PUSH1 0xE0 DUP4 ADD MSTORE PUSH2 0x100 PUSH2 0x1305 DUP2 DUP4 ADD PUSH2 0x121F JUMP JUMPDEST SWAP1 DUP4 ADD MSTORE PUSH2 0x1317 PUSH2 0x120 DUP1 SWAP3 ADD PUSH2 0x1230 JUMP JUMPDEST SWAP1 DUP3 ADD MSTORE SWAP1 JUMP JUMPDEST PUSH1 0x3 SLOAD PUSH2 0x1333 SWAP1 PUSH1 0x1 PUSH1 0x1 PUSH1 0xA0 SHL SUB AND PUSH2 0xF5D JUMP JUMPDEST PUSH1 0x40 MLOAD PUSH4 0x5EC8FE6B PUSH1 0xE0 SHL DUP2 MSTORE PUSH1 0x4 DUP2 ADD DUP4 SWAP1 MSTORE PUSH1 0x20 DUP2 PUSH1 0x24 DUP2 DUP6 GAS STATICCALL SWAP1 DUP2 ISZERO PUSH2 0x4C8 JUMPI PUSH1 0x0 SWAP2 PUSH2 0x13ED JUMPI JUMPDEST POP ISZERO PUSH2 0x1369 JUMPI POP POP JUMP JUMPDEST PUSH1 0x40 MLOAD PUSH4 0x59D902ED PUSH1 0xE0 SHL DUP2 MSTORE PUSH1 0x4 DUP2 ADD DUP4 SWAP1 MSTORE SWAP1 PUSH1 0x0 SWAP1 DUP3 SWAP1 PUSH1 0x24 SWAP1 DUP3 SWAP1 GAS STATICCALL SWAP1 DUP2 PUSH2 0x13CA JUMPI JUMPDEST POP PUSH2 0x13B0 JUMPI PUSH1 0x40 MLOAD PUSH4 0x72B382F PUSH1 0xE2 SHL DUP2 MSTORE PUSH1 0x4 DUP2 ADD SWAP2 SWAP1 SWAP2 MSTORE PUSH1 0x24 SWAP1 REVERT JUMPDEST PUSH1 0x40 MLOAD PUSH4 0x159C7175 PUSH1 0xE1 SHL DUP2 MSTORE PUSH1 0x4 DUP2 ADD SWAP2 SWAP1 SWAP2 MSTORE PUSH1 0x24 SWAP1 REVERT JUMPDEST PUSH2 0x13E6 SWAP1 RETURNDATASIZE DUP1 PUSH1 0x0 DUP4 RETURNDATACOPY PUSH2 0x13DE DUP2 DUP4 PUSH2 0xB23 JUMP JUMPDEST DUP2 ADD SWAP1 PUSH2 0x123F JUMP JUMPDEST POP DUP3 PUSH2 0x1391 JUMP JUMPDEST PUSH2 0x140E SWAP2 POP PUSH1 0x20 RETURNDATASIZE DUP2 GT PUSH2 0x1414 JUMPI JUMPDEST PUSH2 0x1406 DUP2 DUP4 PUSH2 0xB23 JUMP JUMPDEST DUP2 ADD SWAP1 PUSH2 0x116F JUMP JUMPDEST CODESIZE PUSH2 0x135F JUMP JUMPDEST POP RETURNDATASIZE PUSH2 0x13FC JUMP JUMPDEST PUSH1 0x3 SLOAD PUSH1 0x40 MLOAD PUSH4 0x804AD249 PUSH1 0xE0 SHL DUP2 MSTORE PUSH1 0x4 DUP2 ADD DUP4 SWAP1 MSTORE SWAP3 SWAP5 SWAP2 SWAP4 PUSH1 0x0 SWAP4 SWAP1 SWAP2 DUP5 SWAP1 DUP3 SWAP1 PUSH1 0x24 SWAP1 DUP3 SWAP1 PUSH1 0x1 PUSH1 0x1 PUSH1 0xA0 SHL SUB AND GAS STATICCALL SWAP4 DUP5 ISZERO PUSH2 0x4C8 JUMPI DUP1 SWAP5 PUSH2 0x149C JUMPI JUMPDEST POP POP SWAP2 PUSH2 0x146E SWAP2 PUSH2 0x1472 SWAP4 DUP7 PUSH2 0x1690 JUMP JUMPDEST ISZERO SWAP1 JUMP JUMPDEST PUSH2 0x147A JUMPI POP POP JUMP JUMPDEST PUSH1 0x40 MLOAD PUSH4 0x63660977 PUSH1 0xE1 SHL DUP2 MSTORE PUSH1 0x4 DUP2 ADD SWAP2 SWAP1 SWAP2 MSTORE PUSH1 0x24 DUP2 ADD SWAP2 SWAP1 SWAP2 MSTORE PUSH1 0x44 SWAP1 REVERT JUMPDEST SWAP1 SWAP2 SWAP4 POP RETURNDATASIZE DUP1 DUP3 DUP5 RETURNDATACOPY PUSH2 0x14AF DUP2 DUP5 PUSH2 0xB23 JUMP JUMPDEST DUP3 ADD SWAP2 PUSH1 0x20 DUP2 DUP5 SUB SLT PUSH2 0x107C JUMPI DUP1 MLOAD SWAP2 PUSH1 0x1 PUSH1 0x1 PUSH1 0x40 SHL SUB DUP4 GT PUSH2 0x41D JUMPI POP PUSH2 0x1472 SWAP5 SWAP3 PUSH2 0x146E SWAP5 SWAP3 PUSH2 0x14E2 SWAP3 ADD PUSH2 0x11BD JUMP JUMPDEST SWAP4 DUP2 SWAP4 POP PUSH2 0x145D JUMP JUMPDEST SWAP2 SWAP1 DUP3 ADD DUP1 SWAP3 GT PUSH2 0xBD2 JUMPI JUMP JUMPDEST SWAP1 PUSH2 0x3E8 DUP1 TIMESTAMP MUL TIMESTAMP DUP2 DIV DUP3 EQ TIMESTAMP ISZERO OR ISZERO PUSH2 0xBD2 JUMPI PUSH1 0x0 PUSH1 0x7 DUP5 SWAP1 SIGNEXTEND DUP2 SGT PUSH2 0x159E JUMPI POP PUSH1 0x1 PUSH1 0x1 PUSH1 0x40 SHL SUB DUP4 AND SWAP1 JUMPDEST PUSH1 0x2 SLOAD SWAP3 DUP1 DUP5 MUL SWAP1 DUP5 DUP3 DIV EQ DUP5 ISZERO OR ISZERO PUSH2 0xBD2 JUMPI PUSH2 0x1544 DUP2 DUP4 PUSH2 0x14EB JUMP JUMPDEST DUP4 GT SWAP3 DUP4 ISZERO PUSH2 0x158A JUMPI JUMPDEST POP POP POP PUSH2 0x155A JUMPI POP POP POP JUMP JUMPDEST PUSH1 0x40 MLOAD PUSH4 0x587B5A6D PUSH1 0xE0 SHL DUP2 MSTORE PUSH1 0x4 DUP2 ADD SWAP4 SWAP1 SWAP4 MSTORE PUSH1 0x7 SWAP2 SWAP1 SWAP2 SIGNEXTEND PUSH1 0x24 DUP4 ADD MSTORE TIMESTAMP PUSH1 0x44 DUP4 ADD MSTORE PUSH1 0x64 DUP3 ADD MSTORE PUSH1 0x84 SWAP1 REVERT JUMPDEST PUSH2 0x1595 SWAP3 SWAP4 POP PUSH2 0x14EB JUMP JUMPDEST LT CODESIZE DUP1 DUP1 PUSH2 0x154E JUMP JUMPDEST SWAP1 PUSH2 0x1526 JUMP JUMPDEST SWAP1 PUSH1 0x40 MLOAD PUSH1 0xC0 DUP2 ADD DUP2 DUP2 LT PUSH1 0x1 PUSH1 0x1 PUSH1 0x40 SHL SUB DUP3 GT OR PUSH2 0xB1E JUMPI PUSH1 0x40 MSTORE PUSH1 0xA0 DUP1 DUP3 SWAP5 DUP1 CALLDATALOAD DUP5 MSTORE PUSH4 0xFFFFFFFF PUSH1 0x80 DUP3 ADD CALLDATALOAD DUP1 PUSH1 0x0 BYTE PUSH1 0x20 DUP8 ADD MSTORE DUP1 PUSH1 0x1 BYTE PUSH1 0x40 DUP8 ADD MSTORE PUSH1 0xC0 SHR AND PUSH1 0x60 DUP6 ADD MSTORE PUSH1 0x88 DUP2 ADD CALLDATALOAD PUSH1 0xC0 SHR PUSH1 0x80 DUP6 ADD MSTORE ADD CALLDATALOAD PUSH1 0xE0 SHR SWAP2 ADD MSTORE JUMP JUMPDEST ISZERO PUSH2 0x160D JUMPI JUMP JUMPDEST PUSH1 0x40 MLOAD PUSH3 0x461BCD PUSH1 0xE5 SHL DUP2 MSTORE PUSH1 0x20 PUSH1 0x4 DUP3 ADD MSTORE PUSH1 0x25 PUSH1 0x24 DUP3 ADD MSTORE PUSH32 0x506F414356657269666965723A207075626B6579206D75737420626520363520 PUSH1 0x44 DUP3 ADD MSTORE PUSH5 0x6279746573 PUSH1 0xD8 SHL PUSH1 0x64 DUP3 ADD MSTORE PUSH1 0x84 SWAP1 REVERT JUMPDEST RETURNDATASIZE ISZERO PUSH2 0x168B JUMPI RETURNDATASIZE SWAP1 PUSH2 0x1671 DUP3 PUSH2 0x11A2 JUMP JUMPDEST SWAP2 PUSH2 0x167F PUSH1 0x40 MLOAD SWAP4 DUP5 PUSH2 0xB23 JUMP JUMPDEST DUP3 MSTORE RETURNDATASIZE PUSH1 0x0 PUSH1 0x20 DUP5 ADD RETURNDATACOPY JUMP JUMPDEST PUSH1 0x60 SWAP1 JUMP JUMPDEST SWAP1 SWAP2 PUSH1 0x40 SUB PUSH2 0x1736 JUMPI DUP3 PUSH2 0x16FF PUSH1 0x0 SWAP5 SWAP4 PUSH2 0x16AF PUSH1 0x41 DUP8 SWAP7 MLOAD EQ PUSH2 0x1606 JUMP JUMPDEST PUSH2 0x16F1 PUSH1 0x41 PUSH1 0x21 DUP6 ADD MLOAD SWAP5 ADD MLOAD PUSH1 0x40 MLOAD SWAP5 DUP6 SWAP4 PUSH1 0x20 DUP6 ADD SWAP8 PUSH1 0x20 DUP3 ADD CALLDATALOAD SWAP2 CALLDATALOAD SWAP1 DUP10 SWAP4 SWAP2 PUSH1 0xA0 SWAP6 SWAP4 SWAP2 DUP6 MSTORE PUSH1 0x20 DUP6 ADD MSTORE PUSH1 0x40 DUP5 ADD MSTORE PUSH1 0x60 DUP4 ADD MSTORE PUSH1 0x80 DUP3 ADD MSTORE ADD SWAP1 JUMP JUMPDEST SUB PUSH1 0x1F NOT DUP2 ADD DUP4 MSTORE DUP3 PUSH2 0xB23 JUMP JUMPDEST MLOAD SWAP1 PUSH2 0x100 GAS STATICCALL PUSH2 0x170E PUSH2 0x1660 JUMP JUMPDEST SWAP1 ISZERO DUP1 ISZERO PUSH2 0x172B JUMPI JUMPDEST PUSH2 0x1725 JUMPI PUSH1 0x20 ADD MLOAD PUSH1 0x1 EQ SWAP1 JUMP JUMPDEST POP PUSH1 0x0 SWAP1 JUMP JUMPDEST POP PUSH1 0x20 DUP2 MLOAD LT PUSH2 0x1717 JUMP JUMPDEST PUSH1 0x40 MLOAD PUSH3 0x461BCD PUSH1 0xE5 SHL DUP2 MSTORE PUSH1 0x20 PUSH1 0x4 DUP3 ADD MSTORE PUSH1 0x28 PUSH1 0x24 DUP3 ADD MSTORE PUSH32 0x506F414356657269666965723A207369676E6174757265206D75737420626520 PUSH1 0x44 DUP3 ADD MSTORE PUSH8 0x3634206279746573 PUSH1 0xC0 SHL PUSH1 0x64 DUP3 ADD MSTORE PUSH1 0x84 SWAP1 REVERT INVALID LOG2 PUSH5 0x6970667358 0x22 SLT KECCAK256 JUMPDEST 0xC4 PUSH7 0xAE3512EE8A56B0 0xAC CALLCODE 0xF6 RETURN DUP7 RETURNDATASIZE 0xDE CHAINID 0xAF SAR 0x25 SWAP10 0xDB 0xDD SWAP12 PUSH0 0xB5 0xCF 0xB5 0x1F JUMP CREATE2 PUSH5 0x736F6C6343 STOP ADDMOD EQ STOP CALLER "},"methodIdentifiers":{"P256_PRECOMPILE()":"b1f5993b","POAC_BODY_SIZE()":"22b338d7","POAC_SIG_SIZE()":"d25cd666","deviceRegistry()":"5efb870a","getChainHead(bytes32)":"e9b6c019","getRecordSchema(bytes32)":"2ae73247","getVerifiedCount(bytes32)":"122ec0e0","isRecordVerified(bytes32)":"488dbfad","maxTimestampSkew()":"01b8dee6","owner()":"8da5cb5b","recordHasSchema(bytes32)":"668a8d3c","recordInferences(bytes32)":"cd68a831","recordSchemas(bytes32)":"fb108fd9","renounceOwnership()":"715018a6","setMaxTimestampSkew(uint256)":"915fe23c","submittedHashes(bytes32)":"a542b44f","totalVerifiedCount()":"d50ee3b5","transferOwnership(address)":"f2fde38b","verifiedRecords(bytes32)":"4d0af428","verifyPoAC(bytes32,bytes,bytes)":"803a28f6","verifyPoACBatch(bytes32[],bytes[],bytes[])":"95b32225","verifyPoACExternal(bytes32,bytes,bytes)":"0beb4da7","verifyPoACWithSchema(bytes32,bytes,bytes,uint8)":"8196276f"}}}}}