{"contracts/TeamProofAggregator.sol":{"TeamProofAggregator":{"abi":[{"inputs":[{"internalType":"address","name":"_poACVerifier","type":"address"}],"stateMutability":"nonpayable","type":"constructor"},{"inputs":[{"internalType":"bytes32","name":"recordHash","type":"bytes32"},{"internalType":"uint8","name":"inferenceResult","type":"uint8"}],"name":"CheatFlagDetected","type":"error"},{"inputs":[{"internalType":"bytes32","name":"computed","type":"bytes32"},{"internalType":"bytes32","name":"submitted","type":"bytes32"}],"name":"InvalidMerkleRoot","type":"error"},{"inputs":[{"internalType":"uint256","name":"size","type":"uint256"}],"name":"InvalidTeamSize","type":"error"},{"inputs":[{"internalType":"uint256","name":"expected","type":"uint256"},{"internalType":"uint256","name":"provided","type":"uint256"}],"name":"MemberCountMismatch","type":"error"},{"inputs":[{"internalType":"address","name":"owner","type":"address"}],"name":"OwnableInvalidOwner","type":"error"},{"inputs":[{"internalType":"address","name":"account","type":"address"}],"name":"OwnableUnauthorizedAccount","type":"error"},{"inputs":[{"internalType":"bytes32","name":"recordHash","type":"bytes32"}],"name":"RecordNotVerified","type":"error"},{"inputs":[{"internalType":"bytes32","name":"teamId","type":"bytes32"}],"name":"TeamAlreadyExists","type":"error"},{"inputs":[{"internalType":"bytes32","name":"teamId","type":"bytes32"}],"name":"TeamNotActive","type":"error"},{"inputs":[{"internalType":"bytes32","name":"teamId","type":"bytes32"}],"name":"TeamNotFound","type":"error"},{"anonymous":false,"inputs":[{"indexed":true,"internalType":"address","name":"previousOwner","type":"address"},{"indexed":true,"internalType":"address","name":"newOwner","type":"address"}],"name":"OwnershipTransferred","type":"event"},{"anonymous":false,"inputs":[{"indexed":true,"internalType":"bytes32","name":"teamId","type":"bytes32"},{"indexed":true,"internalType":"address","name":"captain","type":"address"},{"indexed":false,"internalType":"uint8","name":"memberCount","type":"uint8"}],"name":"TeamCreated","type":"event"},{"anonymous":false,"inputs":[{"indexed":true,"internalType":"bytes32","name":"teamId","type":"bytes32"},{"indexed":true,"internalType":"uint256","name":"proofId","type":"uint256"},{"indexed":false,"internalType":"bytes32","name":"merkleRoot","type":"bytes32"},{"indexed":false,"internalType":"uint8","name":"memberCount","type":"uint8"},{"indexed":false,"internalType":"bool","name":"allClean","type":"bool"}],"name":"TeamProofSubmitted","type":"event"},{"inputs":[],"name":"CHEAT_INFERENCE_MAX","outputs":[{"internalType":"uint8","name":"","type":"uint8"}],"stateMutability":"view","type":"function"},{"inputs":[],"name":"CHEAT_INFERENCE_MIN","outputs":[{"internalType":"uint8","name":"","type":"uint8"}],"stateMutability":"view","type":"function"},{"inputs":[],"name":"MAX_TEAM_SIZE","outputs":[{"internalType":"uint8","name":"","type":"uint8"}],"stateMutability":"view","type":"function"},{"inputs":[],"name":"MIN_TEAM_SIZE","outputs":[{"internalType":"uint8","name":"","type":"uint8"}],"stateMutability":"view","type":"function"},{"inputs":[{"internalType":"bytes32[]","name":"_leaves","type":"bytes32[]"}],"name":"computeMerkleRoot","outputs":[{"internalType":"bytes32","name":"","type":"bytes32"}],"stateMutability":"pure","type":"function"},{"inputs":[{"internalType":"bytes32","name":"_teamId","type":"bytes32"},{"internalType":"bytes32[]","name":"_deviceIds","type":"bytes32[]"}],"name":"createTeam","outputs":[],"stateMutability":"nonpayable","type":"function"},{"inputs":[{"internalType":"bytes32","name":"_teamId","type":"bytes32"}],"name":"getTeam","outputs":[{"internalType":"bytes32[]","name":"memberDeviceIds","type":"bytes32[]"},{"internalType":"address","name":"captain","type":"address"},{"internalType":"uint64","name":"createdAt","type":"uint64"},{"internalType":"bool","name":"active","type":"bool"}],"stateMutability":"view","type":"function"},{"inputs":[{"internalType":"uint256","name":"_proofId","type":"uint256"}],"name":"getTeamProof","outputs":[{"components":[{"internalType":"bytes32","name":"teamId","type":"bytes32"},{"internalType":"bytes32","name":"merkleRoot","type":"bytes32"},{"internalType":"bytes32[]","name":"recordHashes","type":"bytes32[]"},{"internalType":"uint8","name":"memberCount","type":"uint8"},{"internalType":"bool","name":"allClean","type":"bool"},{"internalType":"uint64","name":"submittedAt","type":"uint64"},{"internalType":"address","name":"submitter","type":"address"}],"internalType":"struct TeamProofAggregator.TeamProof","name":"","type":"tuple"}],"stateMutability":"view","type":"function"},{"inputs":[{"internalType":"bytes32","name":"_teamId","type":"bytes32"}],"name":"getTeamProofCount","outputs":[{"internalType":"uint256","name":"","type":"uint256"}],"stateMutability":"view","type":"function"},{"inputs":[{"internalType":"bytes32","name":"_teamId","type":"bytes32"}],"name":"getTeamProofIds","outputs":[{"internalType":"uint256[]","name":"","type":"uint256[]"}],"stateMutability":"view","type":"function"},{"inputs":[],"name":"owner","outputs":[{"internalType":"address","name":"","type":"address"}],"stateMutability":"view","type":"function"},{"inputs":[],"name":"poACVerifier","outputs":[{"internalType":"contract PoACVerifier","name":"","type":"address"}],"stateMutability":"view","type":"function"},{"inputs":[],"name":"proofCount","outputs":[{"internalType":"uint256","name":"","type":"uint256"}],"stateMutability":"view","type":"function"},{"inputs":[],"name":"renounceOwnership","outputs":[],"stateMutability":"nonpayable","type":"function"},{"inputs":[{"internalType":"bytes32","name":"_teamId","type":"bytes32"},{"internalType":"bytes32[]","name":"_recordHashes","type":"bytes32[]"},{"internalType":"bytes32","name":"_merkleRoot","type":"bytes32"}],"name":"submitTeamProof","outputs":[{"internalType":"uint256","name":"proofId","type":"uint256"}],"stateMutability":"nonpayable","type":"function"},{"inputs":[{"internalType":"bytes32","name":"","type":"bytes32"}],"name":"teamExists","outputs":[{"internalType":"bool","name":"","type":"bool"}],"stateMutability":"view","type":"function"},{"inputs":[{"internalType":"address","name":"newOwner","type":"address"}],"name":"transferOwnership","outputs":[],"stateMutability":"nonpayable","type":"function"}],"evm":{"bytecode":{"linkReferences":{},"object":"6080346100c657601f610f5638819003918201601f19168301916001600160401b038311848410176100cb578084926020946040528339810103126100c657516001600160a01b0390818116908190036100c65733156100ad5760005460018060a01b0319903382821617600055604051933391167f8be0079c531659141344cd1fd0a4f28419497f9722a3daafe3b4186f6b6457e0600080a36001541617600155610e7490816100e28239f35b604051631e4fbdf760e01b815260006004820152602490fd5b600080fd5b634e487b7160e01b600052604160045260246000fdfe60406080815260048036101561001457600080fd5b600091823560e01c80632b8b906c14610a445780633bd561751461090357806344ea6c69146108d65780634bb34a7d1461083857806350072dd7146104bb578063638371ee1461041d578063715018a6146103c05780638ad6fcfb146103a45780638da5cb5b1461037c578063addecc061461035e578063c0d3f38514610336578063c37a636b1461031a578063c3a39536146101d0578063d4b9c129146101b4578063de62201a14610198578063f1cf79051461016b5763f2fde38b146100db57600080fd5b34610167576020366003190112610167576001600160a01b038235818116939192908490036101635761010c610abf565b831561014d57505082546001600160a01b0319811683178455167f8be0079c531659141344cd1fd0a4f28419497f9722a3daafe3b4186f6b6457e08380a380f35b51631e4fbdf760e01b8152908101849052602490fd5b8480fd5b8280fd5b83823461019457816003193601126101945760015490516001600160a01b039091168152602090f35b5080fd5b83823461019457816003193601126101945760209051602a8152f35b8382346101945781600319360112610194576020905160068152f35b503461016757806003193601126101675781359060243567ffffffffffffffff8111610163576102039036908501610a89565b93838652600360205260ff8387205416610303576002851080156102f9575b6102e2575082855260026020528185206001810180546001600160e81b0319163368ffffffffffffffffff60a01b1916174260a01b67ffffffffffffffff60a01b1617600160e01b179055855b8581106102bf5750505060ff9082855260036020528085206001831982541617905551921682527fd51f1ea8e0b03f99b94c0bdb936c2fc4683c160bf64b58e5fbc3ccbe4c20f9ca60203393a380f35b806102d86102d16102dd938987610b10565b3584610b4e565b610aeb565b61026f565b825163ef2e255d60e01b8152908101859052602490fd5b5060068511610222565b825163f7bd25cb60e01b8152908101849052602490fd5b8382346101945781600319360112610194576020905160288152f35b5090346101675760203660031901126101675760209282913581526006845220549051908152f35b50903461016757826003193601126101675760209250549051908152f35b838234610194578160031936011261019457905490516001600160a01b039091168152602090f35b8382346101945781600319360112610194576020905160028152f35b833461041a578060031936011261041a576103d9610abf565b80546001600160a01b03198116825581906001600160a01b03167f8be0079c531659141344cd1fd0a4f28419497f9722a3daafe3b4186f6b6457e08280a380f35b80fd5b50913461041a57602091826003193601126101945792919235815260068352818120908251808584549182815201908194845286842090845b8181106104a7575050508161046c910382610ba6565b83519485948186019282875251809352850193925b82811061049057505050500390f35b835185528695509381019392810192600101610481565b825484529288019260019283019201610456565b50346101675760603660031901126101675781356024803567ffffffffffffffff8111610834576104ef9036908601610a89565b909460449687359385825260209860038a5260ff908189852054161561081e5787845260028b5288842082600182015460e01c161561080857548087036107ef57506001546001600160a01b0316845b878c8183106106ac579091506105559250610bf4565b8781036106935750509783549861056b8a610aeb565b855589845260058b528884208881556001810188905560038101805462010000600160f01b031961ffff199190911693891693841761010017164260101b69ffffffffffffffff000016173360501b600160501b600160f01b03161790559095600290910190845b81811061067557505050508582526006895286822091825493600160401b85101561066557505050927f6faf02f204baeaaf295439e5483b112c706763054453bed74b5d8647e82ca55b928761064d610636858399986001606098018155610b36565b819391549060031b91821b91600019901b19161790565b9055865191825288820152600186820152a351908152f35b634e487b7160e01b825260419052fd5b806102d861068761068e938588610b10565b3585610b4e565b6105d3565b878487928c51936327c4ed9760e21b8552840152820152fd5b6106b7918391610b10565b358d8c519063488dbfad60e01b8252828a830152818881875afa908115610799578f89926107b8575b5050156107a3578b5163cd68a83160e01b81528881018290528e818881875afa90811561079957908f9187928a9261075b575b50501690602882101580610750575b61073657505061073190610aeb565b61053f565b8491878a928f519363379a771360e21b8552840152820152fd5b50602a821115610722565b8193508092503d8311610792575b6107738183610ba6565b8101031261078e5751858116810361078e5785908f80610713565b8780fd5b503d610769565b8d513d8a823e3d90fd5b8786918d5191632047f23560e21b8352820152fd5b90809250813d83116107e8575b6107cf8183610ba6565b8101031261078e5751801515810361078e57388f6106e0565b503d6107c5565b868487928c5193634c1eb76960e11b8552840152820152fd5b895163b79eacfb60e01b81528087018a90528490fd5b8851630760a05360e31b81528086018990528390fd5b8580fd5b50919034610194576020908160031936011261016757919091358152600282528281209260019261086c8486015495610ded565b92825194608086016080875285518091528360a088019601925b8181106108c3576001600160a01b0389168589015260a089901c67ffffffffffffffff168689015260e089901c60ff161515606089015287870388f35b8351875295840195928401928201610886565b509034610167576020366003190112610167578160209360ff923581526003855220541690519015158152f35b50913461041a5760209182600319360112610194578160c0859493955161092981610b8a565b82815282858201526060868201528260608201528260808201528260a082015201523583526005815281832082519261096184610b8a565b815484526001918281015494848101958652600361098160028401610ded565b92848301938452015493606082019760ff86168952608083019160ff8760081c161515835260a084019367ffffffffffffffff95868960101c16865260c082019760018060a01b03809a60501c16895280519b8b8d528c8c6101008201955191015251908c0152519860e060608c01528951809252806101208c019a01935b828110610a3157505050505060ff87985116608088015251151560a0870152511660c0850152511660e08301520390f35b84518b5299810199938101938301610a00565b50823461041a57602036600319011261041a5782359067ffffffffffffffff821161041a5750610a7c602093610a8292369101610a89565b90610bf4565b9051908152f35b9181601f84011215610aba5782359167ffffffffffffffff8311610aba576020808501948460051b010111610aba57565b600080fd5b6000546001600160a01b03163303610ad357565b60405163118cdaa760e01b8152336004820152602490fd5b6000198114610afa5760010190565b634e487b7160e01b600052601160045260246000fd5b9190811015610b205760051b0190565b634e487b7160e01b600052603260045260246000fd5b8054821015610b205760005260206000200190600090565b805490600160401b821015610b745781610636916001610b7094018155610b36565b9055565b634e487b7160e01b600052604160045260246000fd5b60e0810190811067ffffffffffffffff821117610b7457604052565b90601f8019910116810190811067ffffffffffffffff821117610b7457604052565b67ffffffffffffffff8111610b745760051b60200190565b8051821015610b205760209160051b010190565b9080600191828114610de157610c0981610bc8565b92604092610c1984519586610ba6565b828552610c2583610bc8565b9560209384870197601f190136893760005b818110610dc25750505081805b610d1a575b505b818111610c6057505050505115610b20575190565b818101808211610afa57821c9060005b828110610c7e575050610c4b565b80841b9080820460021481151715610afa5784820191828111610afa5783831015610d0057610cb0610cb8918a610be0565b519289610be0565b519187519287840191825288840152878352606083019280841067ffffffffffffffff851117610b7457610cfb938952519020610cf5828a610be0565b52610aeb565b610c70565b610cfb9250610d0f9089610be0565b51610cf5828a610be0565b8551811015610dbd578281610d30829389610be0565b5181935b610d4d575b610cf5610d4793948a610be0565b90610c44565b915091801585811580610d9c575b15610d915750600019820191808311610afa57610d83610d7b848c610be0565b51918b610be0565b52610afa5791849182610d34565b929050929092610d39565b50506000198201828111610afa5783610db688928c610be0565b5111610d5b565b610c49565b80610dd1610ddc928486610b10565b35610cf5828b610be0565b610c37565b91505015610b20573590565b9060405191828154918282526020928383019160005283600020936000905b828210610e2457505050610e2292500383610ba6565b565b855484526001958601958895509381019390910190610e0c56fea2646970667358221220a825e2ad124dd8092c549ea907c334599bc02e5634bf56287b413049af43926564736f6c63430008140033","opcodes":"PUSH1 0x80 CALLVALUE PUSH2 0xC6 JUMPI PUSH1 0x1F PUSH2 0xF56 CODESIZE DUP2 SWAP1 SUB SWAP2 DUP3 ADD PUSH1 0x1F NOT AND DUP4 ADD SWAP2 PUSH1 0x1 PUSH1 0x1 PUSH1 0x40 SHL SUB DUP4 GT DUP5 DUP5 LT OR PUSH2 0xCB JUMPI DUP1 DUP5 SWAP3 PUSH1 0x20 SWAP5 PUSH1 0x40 MSTORE DUP4 CODECOPY DUP2 ADD SUB SLT PUSH2 0xC6 JUMPI MLOAD PUSH1 0x1 PUSH1 0x1 PUSH1 0xA0 SHL SUB SWAP1 DUP2 DUP2 AND SWAP1 DUP2 SWAP1 SUB PUSH2 0xC6 JUMPI CALLER ISZERO PUSH2 0xAD JUMPI PUSH1 0x0 SLOAD PUSH1 0x1 DUP1 PUSH1 0xA0 SHL SUB NOT SWAP1 CALLER DUP3 DUP3 AND OR PUSH1 0x0 SSTORE PUSH1 0x40 MLOAD SWAP4 CALLER SWAP2 AND PUSH32 0x8BE0079C531659141344CD1FD0A4F28419497F9722A3DAAFE3B4186F6B6457E0 PUSH1 0x0 DUP1 LOG3 PUSH1 0x1 SLOAD AND OR PUSH1 0x1 SSTORE PUSH2 0xE74 SWAP1 DUP2 PUSH2 0xE2 DUP3 CODECOPY RETURN JUMPDEST PUSH1 0x40 MLOAD PUSH4 0x1E4FBDF7 PUSH1 0xE0 SHL DUP2 MSTORE PUSH1 0x0 PUSH1 0x4 DUP3 ADD MSTORE PUSH1 0x24 SWAP1 REVERT JUMPDEST PUSH1 0x0 DUP1 REVERT JUMPDEST PUSH4 0x4E487B71 PUSH1 0xE0 SHL PUSH1 0x0 MSTORE PUSH1 0x41 PUSH1 0x4 MSTORE PUSH1 0x24 PUSH1 0x0 REVERT INVALID PUSH1 0x40 PUSH1 0x80 DUP2 MSTORE PUSH1 0x4 DUP1 CALLDATASIZE LT ISZERO PUSH2 0x14 JUMPI PUSH1 0x0 DUP1 REVERT JUMPDEST PUSH1 0x0 SWAP2 DUP3 CALLDATALOAD PUSH1 0xE0 SHR DUP1 PUSH4 0x2B8B906C EQ PUSH2 0xA44 JUMPI DUP1 PUSH4 0x3BD56175 EQ PUSH2 0x903 JUMPI DUP1 PUSH4 0x44EA6C69 EQ PUSH2 0x8D6 JUMPI DUP1 PUSH4 0x4BB34A7D EQ PUSH2 0x838 JUMPI DUP1 PUSH4 0x50072DD7 EQ PUSH2 0x4BB JUMPI DUP1 PUSH4 0x638371EE EQ PUSH2 0x41D JUMPI DUP1 PUSH4 0x715018A6 EQ PUSH2 0x3C0 JUMPI DUP1 PUSH4 0x8AD6FCFB EQ PUSH2 0x3A4 JUMPI DUP1 PUSH4 0x8DA5CB5B EQ PUSH2 0x37C JUMPI DUP1 PUSH4 0xADDECC06 EQ PUSH2 0x35E JUMPI DUP1 PUSH4 0xC0D3F385 EQ PUSH2 0x336 JUMPI DUP1 PUSH4 0xC37A636B EQ PUSH2 0x31A JUMPI DUP1 PUSH4 0xC3A39536 EQ PUSH2 0x1D0 JUMPI DUP1 PUSH4 0xD4B9C129 EQ PUSH2 0x1B4 JUMPI DUP1 PUSH4 0xDE62201A EQ PUSH2 0x198 JUMPI DUP1 PUSH4 0xF1CF7905 EQ PUSH2 0x16B JUMPI PUSH4 0xF2FDE38B EQ PUSH2 0xDB JUMPI PUSH1 0x0 DUP1 REVERT JUMPDEST CALLVALUE PUSH2 0x167 JUMPI PUSH1 0x20 CALLDATASIZE PUSH1 0x3 NOT ADD SLT PUSH2 0x167 JUMPI PUSH1 0x1 PUSH1 0x1 PUSH1 0xA0 SHL SUB DUP3 CALLDATALOAD DUP2 DUP2 AND SWAP4 SWAP2 SWAP3 SWAP1 DUP5 SWAP1 SUB PUSH2 0x163 JUMPI PUSH2 0x10C PUSH2 0xABF JUMP JUMPDEST DUP4 ISZERO PUSH2 0x14D JUMPI POP POP DUP3 SLOAD PUSH1 0x1 PUSH1 0x1 PUSH1 0xA0 SHL SUB NOT DUP2 AND DUP4 OR DUP5 SSTORE AND PUSH32 0x8BE0079C531659141344CD1FD0A4F28419497F9722A3DAAFE3B4186F6B6457E0 DUP4 DUP1 LOG3 DUP1 RETURN JUMPDEST MLOAD PUSH4 0x1E4FBDF7 PUSH1 0xE0 SHL DUP2 MSTORE SWAP1 DUP2 ADD DUP5 SWAP1 MSTORE PUSH1 0x24 SWAP1 REVERT JUMPDEST DUP5 DUP1 REVERT JUMPDEST DUP3 DUP1 REVERT JUMPDEST DUP4 DUP3 CALLVALUE PUSH2 0x194 JUMPI DUP2 PUSH1 0x3 NOT CALLDATASIZE ADD SLT PUSH2 0x194 JUMPI PUSH1 0x1 SLOAD SWAP1 MLOAD PUSH1 0x1 PUSH1 0x1 PUSH1 0xA0 SHL SUB SWAP1 SWAP2 AND DUP2 MSTORE PUSH1 0x20 SWAP1 RETURN JUMPDEST POP DUP1 REVERT JUMPDEST DUP4 DUP3 CALLVALUE PUSH2 0x194 JUMPI DUP2 PUSH1 0x3 NOT CALLDATASIZE ADD SLT PUSH2 0x194 JUMPI PUSH1 0x20 SWAP1 MLOAD PUSH1 0x2A DUP2 MSTORE RETURN JUMPDEST DUP4 DUP3 CALLVALUE PUSH2 0x194 JUMPI DUP2 PUSH1 0x3 NOT CALLDATASIZE ADD SLT PUSH2 0x194 JUMPI PUSH1 0x20 SWAP1 MLOAD PUSH1 0x6 DUP2 MSTORE RETURN JUMPDEST POP CALLVALUE PUSH2 0x167 JUMPI DUP1 PUSH1 0x3 NOT CALLDATASIZE ADD SLT PUSH2 0x167 JUMPI DUP2 CALLDATALOAD SWAP1 PUSH1 0x24 CALLDATALOAD PUSH8 0xFFFFFFFFFFFFFFFF DUP2 GT PUSH2 0x163 JUMPI PUSH2 0x203 SWAP1 CALLDATASIZE SWAP1 DUP6 ADD PUSH2 0xA89 JUMP JUMPDEST SWAP4 DUP4 DUP7 MSTORE PUSH1 0x3 PUSH1 0x20 MSTORE PUSH1 0xFF DUP4 DUP8 KECCAK256 SLOAD AND PUSH2 0x303 JUMPI PUSH1 0x2 DUP6 LT DUP1 ISZERO PUSH2 0x2F9 JUMPI JUMPDEST PUSH2 0x2E2 JUMPI POP DUP3 DUP6 MSTORE PUSH1 0x2 PUSH1 0x20 MSTORE DUP2 DUP6 KECCAK256 PUSH1 0x1 DUP2 ADD DUP1 SLOAD PUSH1 0x1 PUSH1 0x1 PUSH1 0xE8 SHL SUB NOT AND CALLER PUSH9 0xFFFFFFFFFFFFFFFFFF PUSH1 0xA0 SHL NOT AND OR TIMESTAMP PUSH1 0xA0 SHL PUSH8 0xFFFFFFFFFFFFFFFF PUSH1 0xA0 SHL AND OR PUSH1 0x1 PUSH1 0xE0 SHL OR SWAP1 SSTORE DUP6 JUMPDEST DUP6 DUP2 LT PUSH2 0x2BF JUMPI POP POP POP PUSH1 0xFF SWAP1 DUP3 DUP6 MSTORE PUSH1 0x3 PUSH1 0x20 MSTORE DUP1 DUP6 KECCAK256 PUSH1 0x1 DUP4 NOT DUP3 SLOAD AND OR SWAP1 SSTORE MLOAD SWAP3 AND DUP3 MSTORE PUSH32 0xD51F1EA8E0B03F99B94C0BDB936C2FC4683C160BF64B58E5FBC3CCBE4C20F9CA PUSH1 0x20 CALLER SWAP4 LOG3 DUP1 RETURN JUMPDEST DUP1 PUSH2 0x2D8 PUSH2 0x2D1 PUSH2 0x2DD SWAP4 DUP10 DUP8 PUSH2 0xB10 JUMP JUMPDEST CALLDATALOAD DUP5 PUSH2 0xB4E JUMP JUMPDEST PUSH2 0xAEB JUMP JUMPDEST PUSH2 0x26F JUMP JUMPDEST DUP3 MLOAD PUSH4 0xEF2E255D PUSH1 0xE0 SHL DUP2 MSTORE SWAP1 DUP2 ADD DUP6 SWAP1 MSTORE PUSH1 0x24 SWAP1 REVERT JUMPDEST POP PUSH1 0x6 DUP6 GT PUSH2 0x222 JUMP JUMPDEST DUP3 MLOAD PUSH4 0xF7BD25CB PUSH1 0xE0 SHL DUP2 MSTORE SWAP1 DUP2 ADD DUP5 SWAP1 MSTORE PUSH1 0x24 SWAP1 REVERT JUMPDEST DUP4 DUP3 CALLVALUE PUSH2 0x194 JUMPI DUP2 PUSH1 0x3 NOT CALLDATASIZE ADD SLT PUSH2 0x194 JUMPI PUSH1 0x20 SWAP1 MLOAD PUSH1 0x28 DUP2 MSTORE RETURN JUMPDEST POP SWAP1 CALLVALUE PUSH2 0x167 JUMPI PUSH1 0x20 CALLDATASIZE PUSH1 0x3 NOT ADD SLT PUSH2 0x167 JUMPI PUSH1 0x20 SWAP3 DUP3 SWAP2 CALLDATALOAD DUP2 MSTORE PUSH1 0x6 DUP5 MSTORE KECCAK256 SLOAD SWAP1 MLOAD SWAP1 DUP2 MSTORE RETURN JUMPDEST POP SWAP1 CALLVALUE PUSH2 0x167 JUMPI DUP3 PUSH1 0x3 NOT CALLDATASIZE ADD SLT PUSH2 0x167 JUMPI PUSH1 0x20 SWAP3 POP SLOAD SWAP1 MLOAD SWAP1 DUP2 MSTORE RETURN JUMPDEST DUP4 DUP3 CALLVALUE PUSH2 0x194 JUMPI DUP2 PUSH1 0x3 NOT CALLDATASIZE ADD SLT PUSH2 0x194 JUMPI SWAP1 SLOAD SWAP1 MLOAD PUSH1 0x1 PUSH1 0x1 PUSH1 0xA0 SHL SUB SWAP1 SWAP2 AND DUP2 MSTORE PUSH1 0x20 SWAP1 RETURN JUMPDEST DUP4 DUP3 CALLVALUE PUSH2 0x194 JUMPI DUP2 PUSH1 0x3 NOT CALLDATASIZE ADD SLT PUSH2 0x194 JUMPI PUSH1 0x20 SWAP1 MLOAD PUSH1 0x2 DUP2 MSTORE RETURN JUMPDEST DUP4 CALLVALUE PUSH2 0x41A JUMPI DUP1 PUSH1 0x3 NOT CALLDATASIZE ADD SLT PUSH2 0x41A JUMPI PUSH2 0x3D9 PUSH2 0xABF JUMP JUMPDEST DUP1 SLOAD PUSH1 0x1 PUSH1 0x1 PUSH1 0xA0 SHL SUB NOT DUP2 AND DUP3 SSTORE DUP2 SWAP1 PUSH1 0x1 PUSH1 0x1 PUSH1 0xA0 SHL SUB AND PUSH32 0x8BE0079C531659141344CD1FD0A4F28419497F9722A3DAAFE3B4186F6B6457E0 DUP3 DUP1 LOG3 DUP1 RETURN JUMPDEST DUP1 REVERT JUMPDEST POP SWAP2 CALLVALUE PUSH2 0x41A JUMPI PUSH1 0x20 SWAP2 DUP3 PUSH1 0x3 NOT CALLDATASIZE ADD SLT PUSH2 0x194 JUMPI SWAP3 SWAP2 SWAP3 CALLDATALOAD DUP2 MSTORE PUSH1 0x6 DUP4 MSTORE DUP2 DUP2 KECCAK256 SWAP1 DUP3 MLOAD DUP1 DUP6 DUP5 SLOAD SWAP2 DUP3 DUP2 MSTORE ADD SWAP1 DUP2 SWAP5 DUP5 MSTORE DUP7 DUP5 KECCAK256 SWAP1 DUP5 JUMPDEST DUP2 DUP2 LT PUSH2 0x4A7 JUMPI POP POP POP DUP2 PUSH2 0x46C SWAP2 SUB DUP3 PUSH2 0xBA6 JUMP JUMPDEST DUP4 MLOAD SWAP5 DUP6 SWAP5 DUP2 DUP7 ADD SWAP3 DUP3 DUP8 MSTORE MLOAD DUP1 SWAP4 MSTORE DUP6 ADD SWAP4 SWAP3 JUMPDEST DUP3 DUP2 LT PUSH2 0x490 JUMPI POP POP POP POP SUB SWAP1 RETURN JUMPDEST DUP4 MLOAD DUP6 MSTORE DUP7 SWAP6 POP SWAP4 DUP2 ADD SWAP4 SWAP3 DUP2 ADD SWAP3 PUSH1 0x1 ADD PUSH2 0x481 JUMP JUMPDEST DUP3 SLOAD DUP5 MSTORE SWAP3 DUP9 ADD SWAP3 PUSH1 0x1 SWAP3 DUP4 ADD SWAP3 ADD PUSH2 0x456 JUMP JUMPDEST POP CALLVALUE PUSH2 0x167 JUMPI PUSH1 0x60 CALLDATASIZE PUSH1 0x3 NOT ADD SLT PUSH2 0x167 JUMPI DUP2 CALLDATALOAD PUSH1 0x24 DUP1 CALLDATALOAD PUSH8 0xFFFFFFFFFFFFFFFF DUP2 GT PUSH2 0x834 JUMPI PUSH2 0x4EF SWAP1 CALLDATASIZE SWAP1 DUP7 ADD PUSH2 0xA89 JUMP JUMPDEST SWAP1 SWAP5 PUSH1 0x44 SWAP7 DUP8 CALLDATALOAD SWAP4 DUP6 DUP3 MSTORE PUSH1 0x20 SWAP9 PUSH1 0x3 DUP11 MSTORE PUSH1 0xFF SWAP1 DUP2 DUP10 DUP6 KECCAK256 SLOAD AND ISZERO PUSH2 0x81E JUMPI DUP8 DUP5 MSTORE PUSH1 0x2 DUP12 MSTORE DUP9 DUP5 KECCAK256 DUP3 PUSH1 0x1 DUP3 ADD SLOAD PUSH1 0xE0 SHR AND ISZERO PUSH2 0x808 JUMPI SLOAD DUP1 DUP8 SUB PUSH2 0x7EF JUMPI POP PUSH1 0x1 SLOAD PUSH1 0x1 PUSH1 0x1 PUSH1 0xA0 SHL SUB AND DUP5 JUMPDEST DUP8 DUP13 DUP2 DUP4 LT PUSH2 0x6AC JUMPI SWAP1 SWAP2 POP PUSH2 0x555 SWAP3 POP PUSH2 0xBF4 JUMP JUMPDEST DUP8 DUP2 SUB PUSH2 0x693 JUMPI POP POP SWAP8 DUP4 SLOAD SWAP9 PUSH2 0x56B DUP11 PUSH2 0xAEB JUMP JUMPDEST DUP6 SSTORE DUP10 DUP5 MSTORE PUSH1 0x5 DUP12 MSTORE DUP9 DUP5 KECCAK256 DUP9 DUP2 SSTORE PUSH1 0x1 DUP2 ADD DUP9 SWAP1 SSTORE PUSH1 0x3 DUP2 ADD DUP1 SLOAD PUSH3 0x10000 PUSH1 0x1 PUSH1 0xF0 SHL SUB NOT PUSH2 0xFFFF NOT SWAP2 SWAP1 SWAP2 AND SWAP4 DUP10 AND SWAP4 DUP5 OR PUSH2 0x100 OR AND TIMESTAMP PUSH1 0x10 SHL PUSH10 0xFFFFFFFFFFFFFFFF0000 AND OR CALLER PUSH1 0x50 SHL PUSH1 0x1 PUSH1 0x50 SHL PUSH1 0x1 PUSH1 0xF0 SHL SUB AND OR SWAP1 SSTORE SWAP1 SWAP6 PUSH1 0x2 SWAP1 SWAP2 ADD SWAP1 DUP5 JUMPDEST DUP2 DUP2 LT PUSH2 0x675 JUMPI POP POP POP POP DUP6 DUP3 MSTORE PUSH1 0x6 DUP10 MSTORE DUP7 DUP3 KECCAK256 SWAP2 DUP3 SLOAD SWAP4 PUSH1 0x1 PUSH1 0x40 SHL DUP6 LT ISZERO PUSH2 0x665 JUMPI POP POP POP SWAP3 PUSH32 0x6FAF02F204BAEAAF295439E5483B112C706763054453BED74B5D8647E82CA55B SWAP3 DUP8 PUSH2 0x64D PUSH2 0x636 DUP6 DUP4 SWAP10 SWAP9 PUSH1 0x1 PUSH1 0x60 SWAP9 ADD DUP2 SSTORE PUSH2 0xB36 JUMP JUMPDEST DUP2 SWAP4 SWAP2 SLOAD SWAP1 PUSH1 0x3 SHL SWAP2 DUP3 SHL SWAP2 PUSH1 0x0 NOT SWAP1 SHL NOT AND OR SWAP1 JUMP JUMPDEST SWAP1 SSTORE DUP7 MLOAD SWAP2 DUP3 MSTORE DUP9 DUP3 ADD MSTORE PUSH1 0x1 DUP7 DUP3 ADD MSTORE LOG3 MLOAD SWAP1 DUP2 MSTORE RETURN JUMPDEST PUSH4 0x4E487B71 PUSH1 0xE0 SHL DUP3 MSTORE PUSH1 0x41 SWAP1 MSTORE REVERT JUMPDEST DUP1 PUSH2 0x2D8 PUSH2 0x687 PUSH2 0x68E SWAP4 DUP6 DUP9 PUSH2 0xB10 JUMP JUMPDEST CALLDATALOAD DUP6 PUSH2 0xB4E JUMP JUMPDEST PUSH2 0x5D3 JUMP JUMPDEST DUP8 DUP5 DUP8 SWAP3 DUP13 MLOAD SWAP4 PUSH4 0x27C4ED97 PUSH1 0xE2 SHL DUP6 MSTORE DUP5 ADD MSTORE DUP3 ADD MSTORE REVERT JUMPDEST PUSH2 0x6B7 SWAP2 DUP4 SWAP2 PUSH2 0xB10 JUMP JUMPDEST CALLDATALOAD DUP14 DUP13 MLOAD SWAP1 PUSH4 0x488DBFAD PUSH1 0xE0 SHL DUP3 MSTORE DUP3 DUP11 DUP4 ADD MSTORE DUP2 DUP9 DUP2 DUP8 GAS STATICCALL SWAP1 DUP2 ISZERO PUSH2 0x799 JUMPI DUP16 DUP10 SWAP3 PUSH2 0x7B8 JUMPI JUMPDEST POP POP ISZERO PUSH2 0x7A3 JUMPI DUP12 MLOAD PUSH4 0xCD68A831 PUSH1 0xE0 SHL DUP2 MSTORE DUP9 DUP2 ADD DUP3 SWAP1 MSTORE DUP15 DUP2 DUP9 DUP2 DUP8 GAS STATICCALL SWAP1 DUP2 ISZERO PUSH2 0x799 JUMPI SWAP1 DUP16 SWAP2 DUP8 SWAP3 DUP11 SWAP3 PUSH2 0x75B JUMPI JUMPDEST POP POP AND SWAP1 PUSH1 0x28 DUP3 LT ISZERO DUP1 PUSH2 0x750 JUMPI JUMPDEST PUSH2 0x736 JUMPI POP POP PUSH2 0x731 SWAP1 PUSH2 0xAEB JUMP JUMPDEST PUSH2 0x53F JUMP JUMPDEST DUP5 SWAP2 DUP8 DUP11 SWAP3 DUP16 MLOAD SWAP4 PUSH4 0x379A7713 PUSH1 0xE2 SHL DUP6 MSTORE DUP5 ADD MSTORE DUP3 ADD MSTORE REVERT JUMPDEST POP PUSH1 0x2A DUP3 GT ISZERO PUSH2 0x722 JUMP JUMPDEST DUP2 SWAP4 POP DUP1 SWAP3 POP RETURNDATASIZE DUP4 GT PUSH2 0x792 JUMPI JUMPDEST PUSH2 0x773 DUP2 DUP4 PUSH2 0xBA6 JUMP JUMPDEST DUP2 ADD SUB SLT PUSH2 0x78E JUMPI MLOAD DUP6 DUP2 AND DUP2 SUB PUSH2 0x78E JUMPI DUP6 SWAP1 DUP16 DUP1 PUSH2 0x713 JUMP JUMPDEST DUP8 DUP1 REVERT JUMPDEST POP RETURNDATASIZE PUSH2 0x769 JUMP JUMPDEST DUP14 MLOAD RETURNDATASIZE DUP11 DUP3 RETURNDATACOPY RETURNDATASIZE SWAP1 REVERT JUMPDEST DUP8 DUP7 SWAP2 DUP14 MLOAD SWAP2 PUSH4 0x2047F235 PUSH1 0xE2 SHL DUP4 MSTORE DUP3 ADD MSTORE REVERT JUMPDEST SWAP1 DUP1 SWAP3 POP DUP2 RETURNDATASIZE DUP4 GT PUSH2 0x7E8 JUMPI JUMPDEST PUSH2 0x7CF DUP2 DUP4 PUSH2 0xBA6 JUMP JUMPDEST DUP2 ADD SUB SLT PUSH2 0x78E JUMPI MLOAD DUP1 ISZERO ISZERO DUP2 SUB PUSH2 0x78E JUMPI CODESIZE DUP16 PUSH2 0x6E0 JUMP JUMPDEST POP RETURNDATASIZE PUSH2 0x7C5 JUMP JUMPDEST DUP7 DUP5 DUP8 SWAP3 DUP13 MLOAD SWAP4 PUSH4 0x4C1EB769 PUSH1 0xE1 SHL DUP6 MSTORE DUP5 ADD MSTORE DUP3 ADD MSTORE REVERT JUMPDEST DUP10 MLOAD PUSH4 0xB79EACFB PUSH1 0xE0 SHL DUP2 MSTORE DUP1 DUP8 ADD DUP11 SWAP1 MSTORE DUP5 SWAP1 REVERT JUMPDEST DUP9 MLOAD PUSH4 0x760A053 PUSH1 0xE3 SHL DUP2 MSTORE DUP1 DUP7 ADD DUP10 SWAP1 MSTORE DUP4 SWAP1 REVERT JUMPDEST DUP6 DUP1 REVERT JUMPDEST POP SWAP2 SWAP1 CALLVALUE PUSH2 0x194 JUMPI PUSH1 0x20 SWAP1 DUP2 PUSH1 0x3 NOT CALLDATASIZE ADD SLT PUSH2 0x167 JUMPI SWAP2 SWAP1 SWAP2 CALLDATALOAD DUP2 MSTORE PUSH1 0x2 DUP3 MSTORE DUP3 DUP2 KECCAK256 SWAP3 PUSH1 0x1 SWAP3 PUSH2 0x86C DUP5 DUP7 ADD SLOAD SWAP6 PUSH2 0xDED JUMP JUMPDEST SWAP3 DUP3 MLOAD SWAP5 PUSH1 0x80 DUP7 ADD PUSH1 0x80 DUP8 MSTORE DUP6 MLOAD DUP1 SWAP2 MSTORE DUP4 PUSH1 0xA0 DUP9 ADD SWAP7 ADD SWAP3 JUMPDEST DUP2 DUP2 LT PUSH2 0x8C3 JUMPI PUSH1 0x1 PUSH1 0x1 PUSH1 0xA0 SHL SUB DUP10 AND DUP6 DUP10 ADD MSTORE PUSH1 0xA0 DUP10 SWAP1 SHR PUSH8 0xFFFFFFFFFFFFFFFF AND DUP7 DUP10 ADD MSTORE PUSH1 0xE0 DUP10 SWAP1 SHR PUSH1 0xFF AND ISZERO ISZERO PUSH1 0x60 DUP10 ADD MSTORE DUP8 DUP8 SUB DUP9 RETURN JUMPDEST DUP4 MLOAD DUP8 MSTORE SWAP6 DUP5 ADD SWAP6 SWAP3 DUP5 ADD SWAP3 DUP3 ADD PUSH2 0x886 JUMP JUMPDEST POP SWAP1 CALLVALUE PUSH2 0x167 JUMPI PUSH1 0x20 CALLDATASIZE PUSH1 0x3 NOT ADD SLT PUSH2 0x167 JUMPI DUP2 PUSH1 0x20 SWAP4 PUSH1 0xFF SWAP3 CALLDATALOAD DUP2 MSTORE PUSH1 0x3 DUP6 MSTORE KECCAK256 SLOAD AND SWAP1 MLOAD SWAP1 ISZERO ISZERO DUP2 MSTORE RETURN JUMPDEST POP SWAP2 CALLVALUE PUSH2 0x41A JUMPI PUSH1 0x20 SWAP2 DUP3 PUSH1 0x3 NOT CALLDATASIZE ADD SLT PUSH2 0x194 JUMPI DUP2 PUSH1 0xC0 DUP6 SWAP5 SWAP4 SWAP6 MLOAD PUSH2 0x929 DUP2 PUSH2 0xB8A JUMP JUMPDEST DUP3 DUP2 MSTORE DUP3 DUP6 DUP3 ADD MSTORE PUSH1 0x60 DUP7 DUP3 ADD MSTORE DUP3 PUSH1 0x60 DUP3 ADD MSTORE DUP3 PUSH1 0x80 DUP3 ADD MSTORE DUP3 PUSH1 0xA0 DUP3 ADD MSTORE ADD MSTORE CALLDATALOAD DUP4 MSTORE PUSH1 0x5 DUP2 MSTORE DUP2 DUP4 KECCAK256 DUP3 MLOAD SWAP3 PUSH2 0x961 DUP5 PUSH2 0xB8A JUMP JUMPDEST DUP2 SLOAD DUP5 MSTORE PUSH1 0x1 SWAP2 DUP3 DUP2 ADD SLOAD SWAP5 DUP5 DUP2 ADD SWAP6 DUP7 MSTORE PUSH1 0x3 PUSH2 0x981 PUSH1 0x2 DUP5 ADD PUSH2 0xDED JUMP JUMPDEST SWAP3 DUP5 DUP4 ADD SWAP4 DUP5 MSTORE ADD SLOAD SWAP4 PUSH1 0x60 DUP3 ADD SWAP8 PUSH1 0xFF DUP7 AND DUP10 MSTORE PUSH1 0x80 DUP4 ADD SWAP2 PUSH1 0xFF DUP8 PUSH1 0x8 SHR AND ISZERO ISZERO DUP4 MSTORE PUSH1 0xA0 DUP5 ADD SWAP4 PUSH8 0xFFFFFFFFFFFFFFFF SWAP6 DUP7 DUP10 PUSH1 0x10 SHR AND DUP7 MSTORE PUSH1 0xC0 DUP3 ADD SWAP8 PUSH1 0x1 DUP1 PUSH1 0xA0 SHL SUB DUP1 SWAP11 PUSH1 0x50 SHR AND DUP10 MSTORE DUP1 MLOAD SWAP12 DUP12 DUP14 MSTORE DUP13 DUP13 PUSH2 0x100 DUP3 ADD SWAP6 MLOAD SWAP2 ADD MSTORE MLOAD SWAP1 DUP13 ADD MSTORE MLOAD SWAP9 PUSH1 0xE0 PUSH1 0x60 DUP13 ADD MSTORE DUP10 MLOAD DUP1 SWAP3 MSTORE DUP1 PUSH2 0x120 DUP13 ADD SWAP11 ADD SWAP4 JUMPDEST DUP3 DUP2 LT PUSH2 0xA31 JUMPI POP POP POP POP POP PUSH1 0xFF DUP8 SWAP9 MLOAD AND PUSH1 0x80 DUP9 ADD MSTORE MLOAD ISZERO ISZERO PUSH1 0xA0 DUP8 ADD MSTORE MLOAD AND PUSH1 0xC0 DUP6 ADD MSTORE MLOAD AND PUSH1 0xE0 DUP4 ADD MSTORE SUB SWAP1 RETURN JUMPDEST DUP5 MLOAD DUP12 MSTORE SWAP10 DUP2 ADD SWAP10 SWAP4 DUP2 ADD SWAP4 DUP4 ADD PUSH2 0xA00 JUMP JUMPDEST POP DUP3 CALLVALUE PUSH2 0x41A JUMPI PUSH1 0x20 CALLDATASIZE PUSH1 0x3 NOT ADD SLT PUSH2 0x41A JUMPI DUP3 CALLDATALOAD SWAP1 PUSH8 0xFFFFFFFFFFFFFFFF DUP3 GT PUSH2 0x41A JUMPI POP PUSH2 0xA7C PUSH1 0x20 SWAP4 PUSH2 0xA82 SWAP3 CALLDATASIZE SWAP2 ADD PUSH2 0xA89 JUMP JUMPDEST SWAP1 PUSH2 0xBF4 JUMP JUMPDEST SWAP1 MLOAD SWAP1 DUP2 MSTORE RETURN JUMPDEST SWAP2 DUP2 PUSH1 0x1F DUP5 ADD SLT ISZERO PUSH2 0xABA JUMPI DUP3 CALLDATALOAD SWAP2 PUSH8 0xFFFFFFFFFFFFFFFF DUP4 GT PUSH2 0xABA JUMPI PUSH1 0x20 DUP1 DUP6 ADD SWAP5 DUP5 PUSH1 0x5 SHL ADD ADD GT PUSH2 0xABA JUMPI JUMP JUMPDEST PUSH1 0x0 DUP1 REVERT JUMPDEST PUSH1 0x0 SLOAD PUSH1 0x1 PUSH1 0x1 PUSH1 0xA0 SHL SUB AND CALLER SUB PUSH2 0xAD3 JUMPI JUMP JUMPDEST PUSH1 0x40 MLOAD PUSH4 0x118CDAA7 PUSH1 0xE0 SHL DUP2 MSTORE CALLER PUSH1 0x4 DUP3 ADD MSTORE PUSH1 0x24 SWAP1 REVERT JUMPDEST PUSH1 0x0 NOT DUP2 EQ PUSH2 0xAFA JUMPI PUSH1 0x1 ADD SWAP1 JUMP JUMPDEST PUSH4 0x4E487B71 PUSH1 0xE0 SHL PUSH1 0x0 MSTORE PUSH1 0x11 PUSH1 0x4 MSTORE PUSH1 0x24 PUSH1 0x0 REVERT JUMPDEST SWAP2 SWAP1 DUP2 LT ISZERO PUSH2 0xB20 JUMPI PUSH1 0x5 SHL ADD SWAP1 JUMP JUMPDEST PUSH4 0x4E487B71 PUSH1 0xE0 SHL PUSH1 0x0 MSTORE PUSH1 0x32 PUSH1 0x4 MSTORE PUSH1 0x24 PUSH1 0x0 REVERT JUMPDEST DUP1 SLOAD DUP3 LT ISZERO PUSH2 0xB20 JUMPI PUSH1 0x0 MSTORE PUSH1 0x20 PUSH1 0x0 KECCAK256 ADD SWAP1 PUSH1 0x0 SWAP1 JUMP JUMPDEST DUP1 SLOAD SWAP1 PUSH1 0x1 PUSH1 0x40 SHL DUP3 LT ISZERO PUSH2 0xB74 JUMPI DUP2 PUSH2 0x636 SWAP2 PUSH1 0x1 PUSH2 0xB70 SWAP5 ADD DUP2 SSTORE PUSH2 0xB36 JUMP JUMPDEST SWAP1 SSTORE JUMP JUMPDEST PUSH4 0x4E487B71 PUSH1 0xE0 SHL PUSH1 0x0 MSTORE PUSH1 0x41 PUSH1 0x4 MSTORE PUSH1 0x24 PUSH1 0x0 REVERT JUMPDEST PUSH1 0xE0 DUP2 ADD SWAP1 DUP2 LT PUSH8 0xFFFFFFFFFFFFFFFF DUP3 GT OR PUSH2 0xB74 JUMPI PUSH1 0x40 MSTORE JUMP JUMPDEST SWAP1 PUSH1 0x1F DUP1 NOT SWAP2 ADD AND DUP2 ADD SWAP1 DUP2 LT PUSH8 0xFFFFFFFFFFFFFFFF DUP3 GT OR PUSH2 0xB74 JUMPI PUSH1 0x40 MSTORE JUMP JUMPDEST PUSH8 0xFFFFFFFFFFFFFFFF DUP2 GT PUSH2 0xB74 JUMPI PUSH1 0x5 SHL PUSH1 0x20 ADD SWAP1 JUMP JUMPDEST DUP1 MLOAD DUP3 LT ISZERO PUSH2 0xB20 JUMPI PUSH1 0x20 SWAP2 PUSH1 0x5 SHL ADD ADD SWAP1 JUMP JUMPDEST SWAP1 DUP1 PUSH1 0x1 SWAP2 DUP3 DUP2 EQ PUSH2 0xDE1 JUMPI PUSH2 0xC09 DUP2 PUSH2 0xBC8 JUMP JUMPDEST SWAP3 PUSH1 0x40 SWAP3 PUSH2 0xC19 DUP5 MLOAD SWAP6 DUP7 PUSH2 0xBA6 JUMP JUMPDEST DUP3 DUP6 MSTORE PUSH2 0xC25 DUP4 PUSH2 0xBC8 JUMP JUMPDEST SWAP6 PUSH1 0x20 SWAP4 DUP5 DUP8 ADD SWAP8 PUSH1 0x1F NOT ADD CALLDATASIZE DUP10 CALLDATACOPY PUSH1 0x0 JUMPDEST DUP2 DUP2 LT PUSH2 0xDC2 JUMPI POP POP POP DUP2 DUP1 JUMPDEST PUSH2 0xD1A JUMPI JUMPDEST POP JUMPDEST DUP2 DUP2 GT PUSH2 0xC60 JUMPI POP POP POP POP MLOAD ISZERO PUSH2 0xB20 JUMPI MLOAD SWAP1 JUMP JUMPDEST DUP2 DUP2 ADD DUP1 DUP3 GT PUSH2 0xAFA JUMPI DUP3 SHR SWAP1 PUSH1 0x0 JUMPDEST DUP3 DUP2 LT PUSH2 0xC7E JUMPI POP POP PUSH2 0xC4B JUMP JUMPDEST DUP1 DUP5 SHL SWAP1 DUP1 DUP3 DIV PUSH1 0x2 EQ DUP2 ISZERO OR ISZERO PUSH2 0xAFA JUMPI DUP5 DUP3 ADD SWAP2 DUP3 DUP2 GT PUSH2 0xAFA JUMPI DUP4 DUP4 LT ISZERO PUSH2 0xD00 JUMPI PUSH2 0xCB0 PUSH2 0xCB8 SWAP2 DUP11 PUSH2 0xBE0 JUMP JUMPDEST MLOAD SWAP3 DUP10 PUSH2 0xBE0 JUMP JUMPDEST MLOAD SWAP2 DUP8 MLOAD SWAP3 DUP8 DUP5 ADD SWAP2 DUP3 MSTORE DUP9 DUP5 ADD MSTORE DUP8 DUP4 MSTORE PUSH1 0x60 DUP4 ADD SWAP3 DUP1 DUP5 LT PUSH8 0xFFFFFFFFFFFFFFFF DUP6 GT OR PUSH2 0xB74 JUMPI PUSH2 0xCFB SWAP4 DUP10 MSTORE MLOAD SWAP1 KECCAK256 PUSH2 0xCF5 DUP3 DUP11 PUSH2 0xBE0 JUMP JUMPDEST MSTORE PUSH2 0xAEB JUMP JUMPDEST PUSH2 0xC70 JUMP JUMPDEST PUSH2 0xCFB SWAP3 POP PUSH2 0xD0F SWAP1 DUP10 PUSH2 0xBE0 JUMP JUMPDEST MLOAD PUSH2 0xCF5 DUP3 DUP11 PUSH2 0xBE0 JUMP JUMPDEST DUP6 MLOAD DUP2 LT ISZERO PUSH2 0xDBD JUMPI DUP3 DUP2 PUSH2 0xD30 DUP3 SWAP4 DUP10 PUSH2 0xBE0 JUMP JUMPDEST MLOAD DUP2 SWAP4 JUMPDEST PUSH2 0xD4D JUMPI JUMPDEST PUSH2 0xCF5 PUSH2 0xD47 SWAP4 SWAP5 DUP11 PUSH2 0xBE0 JUMP JUMPDEST SWAP1 PUSH2 0xC44 JUMP JUMPDEST SWAP2 POP SWAP2 DUP1 ISZERO DUP6 DUP2 ISZERO DUP1 PUSH2 0xD9C JUMPI JUMPDEST ISZERO PUSH2 0xD91 JUMPI POP PUSH1 0x0 NOT DUP3 ADD SWAP2 DUP1 DUP4 GT PUSH2 0xAFA JUMPI PUSH2 0xD83 PUSH2 0xD7B DUP5 DUP13 PUSH2 0xBE0 JUMP JUMPDEST MLOAD SWAP2 DUP12 PUSH2 0xBE0 JUMP JUMPDEST MSTORE PUSH2 0xAFA JUMPI SWAP2 DUP5 SWAP2 DUP3 PUSH2 0xD34 JUMP JUMPDEST SWAP3 SWAP1 POP SWAP3 SWAP1 SWAP3 PUSH2 0xD39 JUMP JUMPDEST POP POP PUSH1 0x0 NOT DUP3 ADD DUP3 DUP2 GT PUSH2 0xAFA JUMPI DUP4 PUSH2 0xDB6 DUP9 SWAP3 DUP13 PUSH2 0xBE0 JUMP JUMPDEST MLOAD GT PUSH2 0xD5B JUMP JUMPDEST PUSH2 0xC49 JUMP JUMPDEST DUP1 PUSH2 0xDD1 PUSH2 0xDDC SWAP3 DUP5 DUP7 PUSH2 0xB10 JUMP JUMPDEST CALLDATALOAD PUSH2 0xCF5 DUP3 DUP12 PUSH2 0xBE0 JUMP JUMPDEST PUSH2 0xC37 JUMP JUMPDEST SWAP2 POP POP ISZERO PUSH2 0xB20 JUMPI CALLDATALOAD SWAP1 JUMP JUMPDEST SWAP1 PUSH1 0x40 MLOAD SWAP2 DUP3 DUP2 SLOAD SWAP2 DUP3 DUP3 MSTORE PUSH1 0x20 SWAP3 DUP4 DUP4 ADD SWAP2 PUSH1 0x0 MSTORE DUP4 PUSH1 0x0 KECCAK256 SWAP4 PUSH1 0x0 SWAP1 JUMPDEST DUP3 DUP3 LT PUSH2 0xE24 JUMPI POP POP POP PUSH2 0xE22 SWAP3 POP SUB DUP4 PUSH2 0xBA6 JUMP JUMPDEST JUMP JUMPDEST DUP6 SLOAD DUP5 MSTORE PUSH1 0x1 SWAP6 DUP7 ADD SWAP6 DUP9 SWAP6 POP SWAP4 DUP2 ADD SWAP4 SWAP1 SWAP2 ADD SWAP1 PUSH2 0xE0C JUMP INVALID LOG2 PUSH5 0x6970667358 0x22 SLT KECCAK256 0xA8 0x25 0xE2 0xAD SLT 0x4D 0xD8 MULMOD 0x2C SLOAD SWAP15 0xA9 SMOD 0xC3 CALLVALUE MSIZE SWAP12 0xC0 0x2E JUMP CALLVALUE 0xBF JUMP 0x28 PUSH28 0x413049AF43926564736F6C6343000814003300000000000000000000 "},"methodIdentifiers":{"CHEAT_INFERENCE_MAX()":"de62201a","CHEAT_INFERENCE_MIN()":"c37a636b","MAX_TEAM_SIZE()":"d4b9c129","MIN_TEAM_SIZE()":"8ad6fcfb","computeMerkleRoot(bytes32[])":"2b8b906c","createTeam(bytes32,bytes32[])":"c3a39536","getTeam(bytes32)":"4bb34a7d","getTeamProof(uint256)":"3bd56175","getTeamProofCount(bytes32)":"c0d3f385","getTeamProofIds(bytes32)":"638371ee","owner()":"8da5cb5b","poACVerifier()":"f1cf7905","proofCount()":"addecc06","renounceOwnership()":"715018a6","submitTeamProof(bytes32,bytes32[],bytes32)":"50072dd7","teamExists(bytes32)":"44ea6c69","transferOwnership(address)":"f2fde38b"}}}}}