{"contracts/ProgressAttestation.sol":{"ProgressAttestation":{"abi":[{"inputs":[{"internalType":"address","name":"_poACVerifier","type":"address"}],"stateMutability":"nonpayable","type":"constructor"},{"inputs":[{"internalType":"bytes32","name":"recordHash","type":"bytes32"}],"name":"BaselineNotVerified","type":"error"},{"inputs":[{"internalType":"bytes32","name":"recordHash","type":"bytes32"}],"name":"CurrentNotVerified","type":"error"},{"inputs":[{"internalType":"uint8","name":"baselineSchema","type":"uint8"},{"internalType":"uint8","name":"currentSchema","type":"uint8"}],"name":"IncompatibleSchema","type":"error"},{"inputs":[{"internalType":"address","name":"owner","type":"address"}],"name":"OwnableInvalidOwner","type":"error"},{"inputs":[{"internalType":"address","name":"account","type":"address"}],"name":"OwnableUnauthorizedAccount","type":"error"},{"inputs":[{"internalType":"bytes32","name":"baselineHash","type":"bytes32"},{"internalType":"bytes32","name":"currentHash","type":"bytes32"}],"name":"PairAlreadyAttested","type":"error"},{"inputs":[],"name":"SameRecord","type":"error"},{"inputs":[],"name":"ZeroImprovement","type":"error"},{"anonymous":false,"inputs":[{"indexed":true,"internalType":"address","name":"previousOwner","type":"address"},{"indexed":true,"internalType":"address","name":"newOwner","type":"address"}],"name":"OwnershipTransferred","type":"event"},{"anonymous":false,"inputs":[{"indexed":true,"internalType":"bytes32","name":"deviceId","type":"bytes32"},{"indexed":true,"internalType":"uint256","name":"attestationId","type":"uint256"},{"indexed":false,"internalType":"enum ProgressAttestation.MetricType","name":"metricType","type":"uint8"},{"indexed":false,"internalType":"uint32","name":"improvementBps","type":"uint32"},{"indexed":false,"internalType":"address","name":"attestor","type":"address"}],"name":"ProgressAttested","type":"event"},{"inputs":[{"internalType":"bytes32","name":"_deviceId","type":"bytes32"},{"internalType":"bytes32","name":"_baselineHash","type":"bytes32"},{"internalType":"bytes32","name":"_currentHash","type":"bytes32"},{"internalType":"enum ProgressAttestation.MetricType","name":"_metricType","type":"uint8"},{"internalType":"uint32","name":"_improvementBps","type":"uint32"}],"name":"attestProgress","outputs":[{"internalType":"uint256","name":"attestationId","type":"uint256"}],"stateMutability":"nonpayable","type":"function"},{"inputs":[],"name":"attestationCount","outputs":[{"internalType":"uint256","name":"","type":"uint256"}],"stateMutability":"view","type":"function"},{"inputs":[{"internalType":"uint256","name":"_id","type":"uint256"}],"name":"getAttestation","outputs":[{"components":[{"internalType":"bytes32","name":"deviceId","type":"bytes32"},{"internalType":"bytes32","name":"baselineRecordHash","type":"bytes32"},{"internalType":"bytes32","name":"currentRecordHash","type":"bytes32"},{"internalType":"enum ProgressAttestation.MetricType","name":"metricType","type":"uint8"},{"internalType":"uint32","name":"improvementBps","type":"uint32"},{"internalType":"uint64","name":"attestedAt","type":"uint64"},{"internalType":"address","name":"attestor","type":"address"}],"internalType":"struct ProgressAttestation.ProgressRecord","name":"","type":"tuple"}],"stateMutability":"view","type":"function"},{"inputs":[{"internalType":"bytes32","name":"_deviceId","type":"bytes32"}],"name":"getDeviceAttestationCount","outputs":[{"internalType":"uint256","name":"","type":"uint256"}],"stateMutability":"view","type":"function"},{"inputs":[{"internalType":"bytes32","name":"_deviceId","type":"bytes32"}],"name":"getDeviceAttestationIds","outputs":[{"internalType":"uint256[]","name":"","type":"uint256[]"}],"stateMutability":"view","type":"function"},{"inputs":[{"internalType":"bytes32","name":"_deviceId","type":"bytes32"}],"name":"getProgressHistory","outputs":[{"components":[{"internalType":"bytes32","name":"deviceId","type":"bytes32"},{"internalType":"bytes32","name":"baselineRecordHash","type":"bytes32"},{"internalType":"bytes32","name":"currentRecordHash","type":"bytes32"},{"internalType":"enum ProgressAttestation.MetricType","name":"metricType","type":"uint8"},{"internalType":"uint32","name":"improvementBps","type":"uint32"},{"internalType":"uint64","name":"attestedAt","type":"uint64"},{"internalType":"address","name":"attestor","type":"address"}],"internalType":"struct ProgressAttestation.ProgressRecord[]","name":"","type":"tuple[]"}],"stateMutability":"view","type":"function"},{"inputs":[],"name":"owner","outputs":[{"internalType":"address","name":"","type":"address"}],"stateMutability":"view","type":"function"},{"inputs":[],"name":"poACVerifier","outputs":[{"internalType":"contract PoACVerifier","name":"","type":"address"}],"stateMutability":"view","type":"function"},{"inputs":[],"name":"renounceOwnership","outputs":[],"stateMutability":"nonpayable","type":"function"},{"inputs":[{"internalType":"address","name":"newOwner","type":"address"}],"name":"transferOwnership","outputs":[],"stateMutability":"nonpayable","type":"function"}],"evm":{"bytecode":{"linkReferences":{},"object":"6080346100c657601f610c8738819003918201601f19168301916001600160401b038311848410176100cb578084926020946040528339810103126100c657516001600160a01b0390818116908190036100c65733156100ad5760005460018060a01b0319903382821617600055604051933391167f8be0079c531659141344cd1fd0a4f28419497f9722a3daafe3b4186f6b6457e0600080a36001541617600155610ba590816100e28239f35b604051631e4fbdf760e01b815260006004820152602490fd5b600080fd5b634e487b7160e01b600052604160045260246000fdfe60406080815260048036101561001457600080fd5b60009160e08335811c90816329be4db2146108cb57816357da24a11461074657508063715018a6146106ec57806375f477141461064f5780638da5cb5b14610627578063a15b932114610608578063a8fa2fd714610175578063b5a772651461014e578063f1cf7905146101215763f2fde38b1461009157600080fd5b3461011d57602036600319011261011d576001600160a01b03823581811693919290849003610119576100c26109f2565b831561010357505082546001600160a01b0319811683178455167f8be0079c531659141344cd1fd0a4f28419497f9722a3daafe3b4186f6b6457e08380a380f35b51631e4fbdf760e01b8152908101849052602490fd5b8480fd5b8280fd5b83823461014a578160031936011261014a5760015490516001600160a01b039091168152602090f35b5080fd5b50903461011d57602036600319011261011d57602092818392358252845220549051908152f35b5082903461014a5760a036600319011261014a57823560249283359360443595606435926005841015610605576084359263ffffffff841680940361014a578888146105f55783156105e557600154875163488dbfad60e01b8082528582018b905260209b6001600160a01b0393909290841691908d818781865afa90811561050e5787916105ac575b5015610596578a5190815282878201528c818681855afa90811561058c578691610553575b501561053d57895190632ae7324760e01b8083528c888401528b838781855afa90811561050e578c9088948993610518575b50878251809581938252888d8301525afa801561050e57879288916104db575b50816104d3575b50806104c3575b6104a35750508851908b8201918b8352818b8201528a8152606081019067ffffffffffffffff9381831085841117610491579060058f9392838f528251902093848a525260ff8d892054166104745750508c8b94938b938b9389526005835286892060ff1981541660011790556002549e8f9761030089610aac565b60025580519661030f88610a1e565b8752848701918252808701928352606087019561032c9087610ad1565b60808701948d865260a08801944216855260c0880199338b528c52600390528a2095518655516001860155516002850155600384019251916005831015610462579083929160ff6cffffffffffffffff000000000064ffffffff008d989754935160081b16935160281b169316906cffffffffffffffffffffffffff19161717179055019151166bffffffffffffffffffffffff60a01b825416179055858252828952868220918254936801000000000000000085101561045257505050927fbb4732bb818670393a68bee1a69f5a8c3dd2d09f05bd7a171a1e66c3012dea8792610421838997966001606096018155610add565b81549060031b9088821b91600019901b19161790556104428751809361096d565b888201523386820152a351908152f35b634e487b7160e01b825260419052fd5b634e487b7160e01b895260218a528789fd5b637211b43360e11b8252606481018e905260840183905260449150fd5b634e487b7160e01b8852604189528688fd5b8a5163e1f9fe7f60e01b815260ff92831681890152911681850152604490fd5b5060ff811660ff83161415610284565b90508e61027d565b90506104fe9192508c8d3d10610507575b6104f68183610a50565b810190610a84565b9190918f610276565b503d6104ec565b8c513d89823e3d90fd5b909250816105339295503d8611610507576104f68183610a50565b9390939138610256565b8951630d32f7ff60e31b81528087018390528490fd5b90508c81813d8311610585575b61056a8183610a50565b810103126105815761057b90610a72565b8d610224565b8580fd5b503d610560565b8b513d88823e3d90fd5b8a5163021d5f6760e11b81528088018d90528590fd5b90508d81813d83116105de575b6105c38183610a50565b810103126105da576105d490610a72565b8e6101ff565b8680fd5b503d6105b9565b865163fe52dc3560e01b81528390fd5b865163029bd85960e61b81528390fd5b80fd5b83823461014a578160031936011261014a576020906002549051908152f35b83823461014a578160031936011261014a57905490516001600160a01b039091168152602090f35b509134610605576020918260031936011261014a57809392933582528352818120908251808584549182815201908194845286842090845b8181106106d8575050508161069d910382610a50565b83519485948186019282875251809352850193925b8281106106c157505050500390f35b8351855286955093810193928101926001016106b2565b825484529288019260019283019201610687565b83346106055780600319360112610605576107056109f2565b80546001600160a01b03198116825581906001600160a01b03167f8be0079c531659141344cd1fd0a4f28419497f9722a3daafe3b4186f6b6457e08280a380f35b9390503461060557602090816003193601126106055790939291823582528285528082209283549061077782610b43565b9461078484519687610a50565b828652601f1961079384610b43565b01855b8181106108aa575050845b8381106107f857505050508051948594818087019381885286518095528701950193905b8382106107d25786860387f35b9184965082866107e86001949698849851610990565b01960192018695949293916107c5565b8061080c61089f92849b9897999a9b610add565b9054600391821b1c875280885288872067ffffffffffffffff8a519261083184610a1e565b8254845260018301548b85015260028301548c85015282015461085a60ff821660608601610ad1565b600881901c63ffffffff16608085015260281c1660a08301528501546001600160a01b031660c082015261088e828b610b5b565b52610899818a610b5b565b50610aac565b9796959394976107a1565b988096959798996108b9610b0b565b82828c01015201989796949598610796565b9390503461060557602036600319011261060557908061096b926108ed610b0b565b508435815260036020522081519361090485610a1e565b815485526001820154602086015260028201548386015267ffffffffffffffff600383015461093960ff821660608901610ad1565b600881901c63ffffffff16608088015260281c1660a086015201546001600160a01b031660c084015251918290610990565bf35b90600582101561097a5752565b634e487b7160e01b600052602160045260246000fd5b60c0908051835260208101516020840152604081015160408401526109bd6060820151606085019061096d565b60808181015163ffffffff169084015260a08082015167ffffffffffffffff16908401528101516001600160a01b0316910152565b6000546001600160a01b03163303610a0657565b60405163118cdaa760e01b8152336004820152602490fd5b60e0810190811067ffffffffffffffff821117610a3a57604052565b634e487b7160e01b600052604160045260246000fd5b90601f8019910116810190811067ffffffffffffffff821117610a3a57604052565b51908115158203610a7f57565b600080fd5b9190826040910312610a7f57815160ff81168103610a7f576020610aa9919301610a72565b90565b6000198114610abb5760010190565b634e487b7160e01b600052601160045260246000fd5b600582101561097a5752565b8054821015610af55760005260206000200190600090565b634e487b7160e01b600052603260045260246000fd5b60405190610b1882610a1e565b8160c06000918281528260208201528260408201528260608201528260808201528260a08201520152565b67ffffffffffffffff8111610a3a5760051b60200190565b8051821015610af55760209160051b01019056fea2646970667358221220a17153a5a2f272c5300d829fb230ee32383bc2093337f706f00b0aa866e5b7a664736f6c63430008140033","opcodes":"PUSH1 0x80 CALLVALUE PUSH2 0xC6 JUMPI PUSH1 0x1F PUSH2 0xC87 CODESIZE DUP2 SWAP1 SUB SWAP2 DUP3 ADD PUSH1 0x1F NOT AND DUP4 ADD SWAP2 PUSH1 0x1 PUSH1 0x1 PUSH1 0x40 SHL SUB DUP4 GT DUP5 DUP5 LT OR PUSH2 0xCB JUMPI DUP1 DUP5 SWAP3 PUSH1 0x20 SWAP5 PUSH1 0x40 MSTORE DUP4 CODECOPY DUP2 ADD SUB SLT PUSH2 0xC6 JUMPI MLOAD PUSH1 0x1 PUSH1 0x1 PUSH1 0xA0 SHL SUB SWAP1 DUP2 DUP2 AND SWAP1 DUP2 SWAP1 SUB PUSH2 0xC6 JUMPI CALLER ISZERO PUSH2 0xAD JUMPI PUSH1 0x0 SLOAD PUSH1 0x1 DUP1 PUSH1 0xA0 SHL SUB NOT SWAP1 CALLER DUP3 DUP3 AND OR PUSH1 0x0 SSTORE PUSH1 0x40 MLOAD SWAP4 CALLER SWAP2 AND PUSH32 0x8BE0079C531659141344CD1FD0A4F28419497F9722A3DAAFE3B4186F6B6457E0 PUSH1 0x0 DUP1 LOG3 PUSH1 0x1 SLOAD AND OR PUSH1 0x1 SSTORE PUSH2 0xBA5 SWAP1 DUP2 PUSH2 0xE2 DUP3 CODECOPY RETURN JUMPDEST PUSH1 0x40 MLOAD PUSH4 0x1E4FBDF7 PUSH1 0xE0 SHL DUP2 MSTORE PUSH1 0x0 PUSH1 0x4 DUP3 ADD MSTORE PUSH1 0x24 SWAP1 REVERT JUMPDEST PUSH1 0x0 DUP1 REVERT JUMPDEST PUSH4 0x4E487B71 PUSH1 0xE0 SHL PUSH1 0x0 MSTORE PUSH1 0x41 PUSH1 0x4 MSTORE PUSH1 0x24 PUSH1 0x0 REVERT INVALID PUSH1 0x40 PUSH1 0x80 DUP2 MSTORE PUSH1 0x4 DUP1 CALLDATASIZE LT ISZERO PUSH2 0x14 JUMPI PUSH1 0x0 DUP1 REVERT JUMPDEST PUSH1 0x0 SWAP2 PUSH1 0xE0 DUP4 CALLDATALOAD DUP2 SHR SWAP1 DUP2 PUSH4 0x29BE4DB2 EQ PUSH2 0x8CB JUMPI DUP2 PUSH4 0x57DA24A1 EQ PUSH2 0x746 JUMPI POP DUP1 PUSH4 0x715018A6 EQ PUSH2 0x6EC JUMPI DUP1 PUSH4 0x75F47714 EQ PUSH2 0x64F JUMPI DUP1 PUSH4 0x8DA5CB5B EQ PUSH2 0x627 JUMPI DUP1 PUSH4 0xA15B9321 EQ PUSH2 0x608 JUMPI DUP1 PUSH4 0xA8FA2FD7 EQ PUSH2 0x175 JUMPI DUP1 PUSH4 0xB5A77265 EQ PUSH2 0x14E JUMPI DUP1 PUSH4 0xF1CF7905 EQ PUSH2 0x121 JUMPI PUSH4 0xF2FDE38B EQ PUSH2 0x91 JUMPI PUSH1 0x0 DUP1 REVERT JUMPDEST CALLVALUE PUSH2 0x11D JUMPI PUSH1 0x20 CALLDATASIZE PUSH1 0x3 NOT ADD SLT PUSH2 0x11D JUMPI PUSH1 0x1 PUSH1 0x1 PUSH1 0xA0 SHL SUB DUP3 CALLDATALOAD DUP2 DUP2 AND SWAP4 SWAP2 SWAP3 SWAP1 DUP5 SWAP1 SUB PUSH2 0x119 JUMPI PUSH2 0xC2 PUSH2 0x9F2 JUMP JUMPDEST DUP4 ISZERO PUSH2 0x103 JUMPI POP POP DUP3 SLOAD PUSH1 0x1 PUSH1 0x1 PUSH1 0xA0 SHL SUB NOT DUP2 AND DUP4 OR DUP5 SSTORE AND PUSH32 0x8BE0079C531659141344CD1FD0A4F28419497F9722A3DAAFE3B4186F6B6457E0 DUP4 DUP1 LOG3 DUP1 RETURN JUMPDEST MLOAD PUSH4 0x1E4FBDF7 PUSH1 0xE0 SHL DUP2 MSTORE SWAP1 DUP2 ADD DUP5 SWAP1 MSTORE PUSH1 0x24 SWAP1 REVERT JUMPDEST DUP5 DUP1 REVERT JUMPDEST DUP3 DUP1 REVERT JUMPDEST DUP4 DUP3 CALLVALUE PUSH2 0x14A JUMPI DUP2 PUSH1 0x3 NOT CALLDATASIZE ADD SLT PUSH2 0x14A JUMPI PUSH1 0x1 SLOAD SWAP1 MLOAD PUSH1 0x1 PUSH1 0x1 PUSH1 0xA0 SHL SUB SWAP1 SWAP2 AND DUP2 MSTORE PUSH1 0x20 SWAP1 RETURN JUMPDEST POP DUP1 REVERT JUMPDEST POP SWAP1 CALLVALUE PUSH2 0x11D JUMPI PUSH1 0x20 CALLDATASIZE PUSH1 0x3 NOT ADD SLT PUSH2 0x11D JUMPI PUSH1 0x20 SWAP3 DUP2 DUP4 SWAP3 CALLDATALOAD DUP3 MSTORE DUP5 MSTORE KECCAK256 SLOAD SWAP1 MLOAD SWAP1 DUP2 MSTORE RETURN JUMPDEST POP DUP3 SWAP1 CALLVALUE PUSH2 0x14A JUMPI PUSH1 0xA0 CALLDATASIZE PUSH1 0x3 NOT ADD SLT PUSH2 0x14A JUMPI DUP3 CALLDATALOAD PUSH1 0x24 SWAP3 DUP4 CALLDATALOAD SWAP4 PUSH1 0x44 CALLDATALOAD SWAP6 PUSH1 0x64 CALLDATALOAD SWAP3 PUSH1 0x5 DUP5 LT ISZERO PUSH2 0x605 JUMPI PUSH1 0x84 CALLDATALOAD SWAP3 PUSH4 0xFFFFFFFF DUP5 AND DUP1 SWAP5 SUB PUSH2 0x14A JUMPI DUP9 DUP9 EQ PUSH2 0x5F5 JUMPI DUP4 ISZERO PUSH2 0x5E5 JUMPI PUSH1 0x1 SLOAD DUP8 MLOAD PUSH4 0x488DBFAD PUSH1 0xE0 SHL DUP1 DUP3 MSTORE DUP6 DUP3 ADD DUP12 SWAP1 MSTORE PUSH1 0x20 SWAP12 PUSH1 0x1 PUSH1 0x1 PUSH1 0xA0 SHL SUB SWAP4 SWAP1 SWAP3 SWAP1 DUP5 AND SWAP2 SWAP1 DUP14 DUP2 DUP8 DUP2 DUP7 GAS STATICCALL SWAP1 DUP2 ISZERO PUSH2 0x50E JUMPI DUP8 SWAP2 PUSH2 0x5AC JUMPI JUMPDEST POP ISZERO PUSH2 0x596 JUMPI DUP11 MLOAD SWAP1 DUP2 MSTORE DUP3 DUP8 DUP3 ADD MSTORE DUP13 DUP2 DUP7 DUP2 DUP6 GAS STATICCALL SWAP1 DUP2 ISZERO PUSH2 0x58C JUMPI DUP7 SWAP2 PUSH2 0x553 JUMPI JUMPDEST POP ISZERO PUSH2 0x53D JUMPI DUP10 MLOAD SWAP1 PUSH4 0x2AE73247 PUSH1 0xE0 SHL DUP1 DUP4 MSTORE DUP13 DUP9 DUP5 ADD MSTORE DUP12 DUP4 DUP8 DUP2 DUP6 GAS STATICCALL SWAP1 DUP2 ISZERO PUSH2 0x50E JUMPI DUP13 SWAP1 DUP9 SWAP5 DUP10 SWAP4 PUSH2 0x518 JUMPI JUMPDEST POP DUP8 DUP3 MLOAD DUP1 SWAP6 DUP2 SWAP4 DUP3 MSTORE DUP9 DUP14 DUP4 ADD MSTORE GAS STATICCALL DUP1 ISZERO PUSH2 0x50E JUMPI DUP8 SWAP3 DUP9 SWAP2 PUSH2 0x4DB JUMPI JUMPDEST POP DUP2 PUSH2 0x4D3 JUMPI JUMPDEST POP DUP1 PUSH2 0x4C3 JUMPI JUMPDEST PUSH2 0x4A3 JUMPI POP POP DUP9 MLOAD SWAP1 DUP12 DUP3 ADD SWAP2 DUP12 DUP4 MSTORE DUP2 DUP12 DUP3 ADD MSTORE DUP11 DUP2 MSTORE PUSH1 0x60 DUP2 ADD SWAP1 PUSH8 0xFFFFFFFFFFFFFFFF SWAP4 DUP2 DUP4 LT DUP6 DUP5 GT OR PUSH2 0x491 JUMPI SWAP1 PUSH1 0x5 DUP16 SWAP4 SWAP3 DUP4 DUP16 MSTORE DUP3 MLOAD SWAP1 KECCAK256 SWAP4 DUP5 DUP11 MSTORE MSTORE PUSH1 0xFF DUP14 DUP10 KECCAK256 SLOAD AND PUSH2 0x474 JUMPI POP POP DUP13 DUP12 SWAP5 SWAP4 DUP12 SWAP4 DUP12 SWAP4 DUP10 MSTORE PUSH1 0x5 DUP4 MSTORE DUP7 DUP10 KECCAK256 PUSH1 0xFF NOT DUP2 SLOAD AND PUSH1 0x1 OR SWAP1 SSTORE PUSH1 0x2 SLOAD SWAP15 DUP16 SWAP8 PUSH2 0x300 DUP10 PUSH2 0xAAC JUMP JUMPDEST PUSH1 0x2 SSTORE DUP1 MLOAD SWAP7 PUSH2 0x30F DUP9 PUSH2 0xA1E JUMP JUMPDEST DUP8 MSTORE DUP5 DUP8 ADD SWAP2 DUP3 MSTORE DUP1 DUP8 ADD SWAP3 DUP4 MSTORE PUSH1 0x60 DUP8 ADD SWAP6 PUSH2 0x32C SWAP1 DUP8 PUSH2 0xAD1 JUMP JUMPDEST PUSH1 0x80 DUP8 ADD SWAP5 DUP14 DUP7 MSTORE PUSH1 0xA0 DUP9 ADD SWAP5 TIMESTAMP AND DUP6 MSTORE PUSH1 0xC0 DUP9 ADD SWAP10 CALLER DUP12 MSTORE DUP13 MSTORE PUSH1 0x3 SWAP1 MSTORE DUP11 KECCAK256 SWAP6 MLOAD DUP7 SSTORE MLOAD PUSH1 0x1 DUP7 ADD SSTORE MLOAD PUSH1 0x2 DUP6 ADD SSTORE PUSH1 0x3 DUP5 ADD SWAP3 MLOAD SWAP2 PUSH1 0x5 DUP4 LT ISZERO PUSH2 0x462 JUMPI SWAP1 DUP4 SWAP3 SWAP2 PUSH1 0xFF PUSH13 0xFFFFFFFFFFFFFFFF0000000000 PUSH5 0xFFFFFFFF00 DUP14 SWAP9 SWAP8 SLOAD SWAP4 MLOAD PUSH1 0x8 SHL AND SWAP4 MLOAD PUSH1 0x28 SHL AND SWAP4 AND SWAP1 PUSH13 0xFFFFFFFFFFFFFFFFFFFFFFFFFF NOT AND OR OR OR SWAP1 SSTORE ADD SWAP2 MLOAD AND PUSH12 0xFFFFFFFFFFFFFFFFFFFFFFFF PUSH1 0xA0 SHL DUP3 SLOAD AND OR SWAP1 SSTORE DUP6 DUP3 MSTORE DUP3 DUP10 MSTORE DUP7 DUP3 KECCAK256 SWAP2 DUP3 SLOAD SWAP4 PUSH9 0x10000000000000000 DUP6 LT ISZERO PUSH2 0x452 JUMPI POP POP POP SWAP3 PUSH32 0xBB4732BB818670393A68BEE1A69F5A8C3DD2D09F05BD7A171A1E66C3012DEA87 SWAP3 PUSH2 0x421 DUP4 DUP10 SWAP8 SWAP7 PUSH1 0x1 PUSH1 0x60 SWAP7 ADD DUP2 SSTORE PUSH2 0xADD JUMP JUMPDEST DUP2 SLOAD SWAP1 PUSH1 0x3 SHL SWAP1 DUP9 DUP3 SHL SWAP2 PUSH1 0x0 NOT SWAP1 SHL NOT AND OR SWAP1 SSTORE PUSH2 0x442 DUP8 MLOAD DUP1 SWAP4 PUSH2 0x96D JUMP JUMPDEST DUP9 DUP3 ADD MSTORE CALLER DUP7 DUP3 ADD MSTORE LOG3 MLOAD SWAP1 DUP2 MSTORE RETURN JUMPDEST PUSH4 0x4E487B71 PUSH1 0xE0 SHL DUP3 MSTORE PUSH1 0x41 SWAP1 MSTORE REVERT JUMPDEST PUSH4 0x4E487B71 PUSH1 0xE0 SHL DUP10 MSTORE PUSH1 0x21 DUP11 MSTORE DUP8 DUP10 REVERT JUMPDEST PUSH4 0x7211B433 PUSH1 0xE1 SHL DUP3 MSTORE PUSH1 0x64 DUP2 ADD DUP15 SWAP1 MSTORE PUSH1 0x84 ADD DUP4 SWAP1 MSTORE PUSH1 0x44 SWAP2 POP REVERT JUMPDEST PUSH4 0x4E487B71 PUSH1 0xE0 SHL DUP9 MSTORE PUSH1 0x41 DUP10 MSTORE DUP7 DUP9 REVERT JUMPDEST DUP11 MLOAD PUSH4 0xE1F9FE7F PUSH1 0xE0 SHL DUP2 MSTORE PUSH1 0xFF SWAP3 DUP4 AND DUP2 DUP10 ADD MSTORE SWAP2 AND DUP2 DUP6 ADD MSTORE PUSH1 0x44 SWAP1 REVERT JUMPDEST POP PUSH1 0xFF DUP2 AND PUSH1 0xFF DUP4 AND EQ ISZERO PUSH2 0x284 JUMP JUMPDEST SWAP1 POP DUP15 PUSH2 0x27D JUMP JUMPDEST SWAP1 POP PUSH2 0x4FE SWAP2 SWAP3 POP DUP13 DUP14 RETURNDATASIZE LT PUSH2 0x507 JUMPI JUMPDEST PUSH2 0x4F6 DUP2 DUP4 PUSH2 0xA50 JUMP JUMPDEST DUP2 ADD SWAP1 PUSH2 0xA84 JUMP JUMPDEST SWAP2 SWAP1 SWAP2 DUP16 PUSH2 0x276 JUMP JUMPDEST POP RETURNDATASIZE PUSH2 0x4EC JUMP JUMPDEST DUP13 MLOAD RETURNDATASIZE DUP10 DUP3 RETURNDATACOPY RETURNDATASIZE SWAP1 REVERT JUMPDEST SWAP1 SWAP3 POP DUP2 PUSH2 0x533 SWAP3 SWAP6 POP RETURNDATASIZE DUP7 GT PUSH2 0x507 JUMPI PUSH2 0x4F6 DUP2 DUP4 PUSH2 0xA50 JUMP JUMPDEST SWAP4 SWAP1 SWAP4 SWAP2 CODESIZE PUSH2 0x256 JUMP JUMPDEST DUP10 MLOAD PUSH4 0xD32F7FF PUSH1 0xE3 SHL DUP2 MSTORE DUP1 DUP8 ADD DUP4 SWAP1 MSTORE DUP5 SWAP1 REVERT JUMPDEST SWAP1 POP DUP13 DUP2 DUP2 RETURNDATASIZE DUP4 GT PUSH2 0x585 JUMPI JUMPDEST PUSH2 0x56A DUP2 DUP4 PUSH2 0xA50 JUMP JUMPDEST DUP2 ADD SUB SLT PUSH2 0x581 JUMPI PUSH2 0x57B SWAP1 PUSH2 0xA72 JUMP JUMPDEST DUP14 PUSH2 0x224 JUMP JUMPDEST DUP6 DUP1 REVERT JUMPDEST POP RETURNDATASIZE PUSH2 0x560 JUMP JUMPDEST DUP12 MLOAD RETURNDATASIZE DUP9 DUP3 RETURNDATACOPY RETURNDATASIZE SWAP1 REVERT JUMPDEST DUP11 MLOAD PUSH4 0x21D5F67 PUSH1 0xE1 SHL DUP2 MSTORE DUP1 DUP9 ADD DUP14 SWAP1 MSTORE DUP6 SWAP1 REVERT JUMPDEST SWAP1 POP DUP14 DUP2 DUP2 RETURNDATASIZE DUP4 GT PUSH2 0x5DE JUMPI JUMPDEST PUSH2 0x5C3 DUP2 DUP4 PUSH2 0xA50 JUMP JUMPDEST DUP2 ADD SUB SLT PUSH2 0x5DA JUMPI PUSH2 0x5D4 SWAP1 PUSH2 0xA72 JUMP JUMPDEST DUP15 PUSH2 0x1FF JUMP JUMPDEST DUP7 DUP1 REVERT JUMPDEST POP RETURNDATASIZE PUSH2 0x5B9 JUMP JUMPDEST DUP7 MLOAD PUSH4 0xFE52DC35 PUSH1 0xE0 SHL DUP2 MSTORE DUP4 SWAP1 REVERT JUMPDEST DUP7 MLOAD PUSH4 0x29BD859 PUSH1 0xE6 SHL DUP2 MSTORE DUP4 SWAP1 REVERT JUMPDEST DUP1 REVERT JUMPDEST DUP4 DUP3 CALLVALUE PUSH2 0x14A JUMPI DUP2 PUSH1 0x3 NOT CALLDATASIZE ADD SLT PUSH2 0x14A JUMPI PUSH1 0x20 SWAP1 PUSH1 0x2 SLOAD SWAP1 MLOAD SWAP1 DUP2 MSTORE RETURN JUMPDEST DUP4 DUP3 CALLVALUE PUSH2 0x14A JUMPI DUP2 PUSH1 0x3 NOT CALLDATASIZE ADD SLT PUSH2 0x14A JUMPI SWAP1 SLOAD SWAP1 MLOAD PUSH1 0x1 PUSH1 0x1 PUSH1 0xA0 SHL SUB SWAP1 SWAP2 AND DUP2 MSTORE PUSH1 0x20 SWAP1 RETURN JUMPDEST POP SWAP2 CALLVALUE PUSH2 0x605 JUMPI PUSH1 0x20 SWAP2 DUP3 PUSH1 0x3 NOT CALLDATASIZE ADD SLT PUSH2 0x14A JUMPI DUP1 SWAP4 SWAP3 SWAP4 CALLDATALOAD DUP3 MSTORE DUP4 MSTORE DUP2 DUP2 KECCAK256 SWAP1 DUP3 MLOAD DUP1 DUP6 DUP5 SLOAD SWAP2 DUP3 DUP2 MSTORE ADD SWAP1 DUP2 SWAP5 DUP5 MSTORE DUP7 DUP5 KECCAK256 SWAP1 DUP5 JUMPDEST DUP2 DUP2 LT PUSH2 0x6D8 JUMPI POP POP POP DUP2 PUSH2 0x69D SWAP2 SUB DUP3 PUSH2 0xA50 JUMP JUMPDEST DUP4 MLOAD SWAP5 DUP6 SWAP5 DUP2 DUP7 ADD SWAP3 DUP3 DUP8 MSTORE MLOAD DUP1 SWAP4 MSTORE DUP6 ADD SWAP4 SWAP3 JUMPDEST DUP3 DUP2 LT PUSH2 0x6C1 JUMPI POP POP POP POP SUB SWAP1 RETURN JUMPDEST DUP4 MLOAD DUP6 MSTORE DUP7 SWAP6 POP SWAP4 DUP2 ADD SWAP4 SWAP3 DUP2 ADD SWAP3 PUSH1 0x1 ADD PUSH2 0x6B2 JUMP JUMPDEST DUP3 SLOAD DUP5 MSTORE SWAP3 DUP9 ADD SWAP3 PUSH1 0x1 SWAP3 DUP4 ADD SWAP3 ADD PUSH2 0x687 JUMP JUMPDEST DUP4 CALLVALUE PUSH2 0x605 JUMPI DUP1 PUSH1 0x3 NOT CALLDATASIZE ADD SLT PUSH2 0x605 JUMPI PUSH2 0x705 PUSH2 0x9F2 JUMP JUMPDEST DUP1 SLOAD PUSH1 0x1 PUSH1 0x1 PUSH1 0xA0 SHL SUB NOT DUP2 AND DUP3 SSTORE DUP2 SWAP1 PUSH1 0x1 PUSH1 0x1 PUSH1 0xA0 SHL SUB AND PUSH32 0x8BE0079C531659141344CD1FD0A4F28419497F9722A3DAAFE3B4186F6B6457E0 DUP3 DUP1 LOG3 DUP1 RETURN JUMPDEST SWAP4 SWAP1 POP CALLVALUE PUSH2 0x605 JUMPI PUSH1 0x20 SWAP1 DUP2 PUSH1 0x3 NOT CALLDATASIZE ADD SLT PUSH2 0x605 JUMPI SWAP1 SWAP4 SWAP3 SWAP2 DUP3 CALLDATALOAD DUP3 MSTORE DUP3 DUP6 MSTORE DUP1 DUP3 KECCAK256 SWAP3 DUP4 SLOAD SWAP1 PUSH2 0x777 DUP3 PUSH2 0xB43 JUMP JUMPDEST SWAP5 PUSH2 0x784 DUP5 MLOAD SWAP7 DUP8 PUSH2 0xA50 JUMP JUMPDEST DUP3 DUP7 MSTORE PUSH1 0x1F NOT PUSH2 0x793 DUP5 PUSH2 0xB43 JUMP JUMPDEST ADD DUP6 JUMPDEST DUP2 DUP2 LT PUSH2 0x8AA JUMPI POP POP DUP5 JUMPDEST DUP4 DUP2 LT PUSH2 0x7F8 JUMPI POP POP POP POP DUP1 MLOAD SWAP5 DUP6 SWAP5 DUP2 DUP1 DUP8 ADD SWAP4 DUP2 DUP9 MSTORE DUP7 MLOAD DUP1 SWAP6 MSTORE DUP8 ADD SWAP6 ADD SWAP4 SWAP1 JUMPDEST DUP4 DUP3 LT PUSH2 0x7D2 JUMPI DUP7 DUP7 SUB DUP8 RETURN JUMPDEST SWAP2 DUP5 SWAP7 POP DUP3 DUP7 PUSH2 0x7E8 PUSH1 0x1 SWAP5 SWAP7 SWAP9 DUP5 SWAP9 MLOAD PUSH2 0x990 JUMP JUMPDEST ADD SWAP7 ADD SWAP3 ADD DUP7 SWAP6 SWAP5 SWAP3 SWAP4 SWAP2 PUSH2 0x7C5 JUMP JUMPDEST DUP1 PUSH2 0x80C PUSH2 0x89F SWAP3 DUP5 SWAP12 SWAP9 SWAP8 SWAP10 SWAP11 SWAP12 PUSH2 0xADD JUMP JUMPDEST SWAP1 SLOAD PUSH1 0x3 SWAP2 DUP3 SHL SHR DUP8 MSTORE DUP1 DUP9 MSTORE DUP9 DUP8 KECCAK256 PUSH8 0xFFFFFFFFFFFFFFFF DUP11 MLOAD SWAP3 PUSH2 0x831 DUP5 PUSH2 0xA1E JUMP JUMPDEST DUP3 SLOAD DUP5 MSTORE PUSH1 0x1 DUP4 ADD SLOAD DUP12 DUP6 ADD MSTORE PUSH1 0x2 DUP4 ADD SLOAD DUP13 DUP6 ADD MSTORE DUP3 ADD SLOAD PUSH2 0x85A PUSH1 0xFF DUP3 AND PUSH1 0x60 DUP7 ADD PUSH2 0xAD1 JUMP JUMPDEST PUSH1 0x8 DUP2 SWAP1 SHR PUSH4 0xFFFFFFFF AND PUSH1 0x80 DUP6 ADD MSTORE PUSH1 0x28 SHR AND PUSH1 0xA0 DUP4 ADD MSTORE DUP6 ADD SLOAD PUSH1 0x1 PUSH1 0x1 PUSH1 0xA0 SHL SUB AND PUSH1 0xC0 DUP3 ADD MSTORE PUSH2 0x88E DUP3 DUP12 PUSH2 0xB5B JUMP JUMPDEST MSTORE PUSH2 0x899 DUP2 DUP11 PUSH2 0xB5B JUMP JUMPDEST POP PUSH2 0xAAC JUMP JUMPDEST SWAP8 SWAP7 SWAP6 SWAP4 SWAP5 SWAP8 PUSH2 0x7A1 JUMP JUMPDEST SWAP9 DUP1 SWAP7 SWAP6 SWAP8 SWAP9 SWAP10 PUSH2 0x8B9 PUSH2 0xB0B JUMP JUMPDEST DUP3 DUP3 DUP13 ADD ADD MSTORE ADD SWAP9 SWAP8 SWAP7 SWAP5 SWAP6 SWAP9 PUSH2 0x796 JUMP JUMPDEST SWAP4 SWAP1 POP CALLVALUE PUSH2 0x605 JUMPI PUSH1 0x20 CALLDATASIZE PUSH1 0x3 NOT ADD SLT PUSH2 0x605 JUMPI SWAP1 DUP1 PUSH2 0x96B SWAP3 PUSH2 0x8ED PUSH2 0xB0B JUMP JUMPDEST POP DUP5 CALLDATALOAD DUP2 MSTORE PUSH1 0x3 PUSH1 0x20 MSTORE KECCAK256 DUP2 MLOAD SWAP4 PUSH2 0x904 DUP6 PUSH2 0xA1E JUMP JUMPDEST DUP2 SLOAD DUP6 MSTORE PUSH1 0x1 DUP3 ADD SLOAD PUSH1 0x20 DUP7 ADD MSTORE PUSH1 0x2 DUP3 ADD SLOAD DUP4 DUP7 ADD MSTORE PUSH8 0xFFFFFFFFFFFFFFFF PUSH1 0x3 DUP4 ADD SLOAD PUSH2 0x939 PUSH1 0xFF DUP3 AND PUSH1 0x60 DUP10 ADD PUSH2 0xAD1 JUMP JUMPDEST PUSH1 0x8 DUP2 SWAP1 SHR PUSH4 0xFFFFFFFF AND PUSH1 0x80 DUP9 ADD MSTORE PUSH1 0x28 SHR AND PUSH1 0xA0 DUP7 ADD MSTORE ADD SLOAD PUSH1 0x1 PUSH1 0x1 PUSH1 0xA0 SHL SUB AND PUSH1 0xC0 DUP5 ADD MSTORE MLOAD SWAP2 DUP3 SWAP1 PUSH2 0x990 JUMP JUMPDEST RETURN JUMPDEST SWAP1 PUSH1 0x5 DUP3 LT ISZERO PUSH2 0x97A JUMPI MSTORE JUMP JUMPDEST PUSH4 0x4E487B71 PUSH1 0xE0 SHL PUSH1 0x0 MSTORE PUSH1 0x21 PUSH1 0x4 MSTORE PUSH1 0x24 PUSH1 0x0 REVERT JUMPDEST PUSH1 0xC0 SWAP1 DUP1 MLOAD DUP4 MSTORE PUSH1 0x20 DUP2 ADD MLOAD PUSH1 0x20 DUP5 ADD MSTORE PUSH1 0x40 DUP2 ADD MLOAD PUSH1 0x40 DUP5 ADD MSTORE PUSH2 0x9BD PUSH1 0x60 DUP3 ADD MLOAD PUSH1 0x60 DUP6 ADD SWAP1 PUSH2 0x96D JUMP JUMPDEST PUSH1 0x80 DUP2 DUP2 ADD MLOAD PUSH4 0xFFFFFFFF AND SWAP1 DUP5 ADD MSTORE PUSH1 0xA0 DUP1 DUP3 ADD MLOAD PUSH8 0xFFFFFFFFFFFFFFFF AND SWAP1 DUP5 ADD MSTORE DUP2 ADD MLOAD PUSH1 0x1 PUSH1 0x1 PUSH1 0xA0 SHL SUB AND SWAP2 ADD MSTORE JUMP JUMPDEST PUSH1 0x0 SLOAD PUSH1 0x1 PUSH1 0x1 PUSH1 0xA0 SHL SUB AND CALLER SUB PUSH2 0xA06 JUMPI JUMP JUMPDEST PUSH1 0x40 MLOAD PUSH4 0x118CDAA7 PUSH1 0xE0 SHL DUP2 MSTORE CALLER PUSH1 0x4 DUP3 ADD MSTORE PUSH1 0x24 SWAP1 REVERT JUMPDEST PUSH1 0xE0 DUP2 ADD SWAP1 DUP2 LT PUSH8 0xFFFFFFFFFFFFFFFF DUP3 GT OR PUSH2 0xA3A JUMPI PUSH1 0x40 MSTORE JUMP JUMPDEST PUSH4 0x4E487B71 PUSH1 0xE0 SHL PUSH1 0x0 MSTORE PUSH1 0x41 PUSH1 0x4 MSTORE PUSH1 0x24 PUSH1 0x0 REVERT JUMPDEST SWAP1 PUSH1 0x1F DUP1 NOT SWAP2 ADD AND DUP2 ADD SWAP1 DUP2 LT PUSH8 0xFFFFFFFFFFFFFFFF DUP3 GT OR PUSH2 0xA3A JUMPI PUSH1 0x40 MSTORE JUMP JUMPDEST MLOAD SWAP1 DUP2 ISZERO ISZERO DUP3 SUB PUSH2 0xA7F JUMPI JUMP JUMPDEST PUSH1 0x0 DUP1 REVERT JUMPDEST SWAP2 SWAP1 DUP3 PUSH1 0x40 SWAP2 SUB SLT PUSH2 0xA7F JUMPI DUP2 MLOAD PUSH1 0xFF DUP2 AND DUP2 SUB PUSH2 0xA7F JUMPI PUSH1 0x20 PUSH2 0xAA9 SWAP2 SWAP4 ADD PUSH2 0xA72 JUMP JUMPDEST SWAP1 JUMP JUMPDEST PUSH1 0x0 NOT DUP2 EQ PUSH2 0xABB JUMPI PUSH1 0x1 ADD SWAP1 JUMP JUMPDEST PUSH4 0x4E487B71 PUSH1 0xE0 SHL PUSH1 0x0 MSTORE PUSH1 0x11 PUSH1 0x4 MSTORE PUSH1 0x24 PUSH1 0x0 REVERT JUMPDEST PUSH1 0x5 DUP3 LT ISZERO PUSH2 0x97A JUMPI MSTORE JUMP JUMPDEST DUP1 SLOAD DUP3 LT ISZERO PUSH2 0xAF5 JUMPI PUSH1 0x0 MSTORE PUSH1 0x20 PUSH1 0x0 KECCAK256 ADD SWAP1 PUSH1 0x0 SWAP1 JUMP JUMPDEST PUSH4 0x4E487B71 PUSH1 0xE0 SHL PUSH1 0x0 MSTORE PUSH1 0x32 PUSH1 0x4 MSTORE PUSH1 0x24 PUSH1 0x0 REVERT JUMPDEST PUSH1 0x40 MLOAD SWAP1 PUSH2 0xB18 DUP3 PUSH2 0xA1E JUMP JUMPDEST DUP2 PUSH1 0xC0 PUSH1 0x0 SWAP2 DUP3 DUP2 MSTORE DUP3 PUSH1 0x20 DUP3 ADD MSTORE DUP3 PUSH1 0x40 DUP3 ADD MSTORE DUP3 PUSH1 0x60 DUP3 ADD MSTORE DUP3 PUSH1 0x80 DUP3 ADD MSTORE DUP3 PUSH1 0xA0 DUP3 ADD MSTORE ADD MSTORE JUMP JUMPDEST PUSH8 0xFFFFFFFFFFFFFFFF DUP2 GT PUSH2 0xA3A JUMPI PUSH1 0x5 SHL PUSH1 0x20 ADD SWAP1 JUMP JUMPDEST DUP1 MLOAD DUP3 LT ISZERO PUSH2 0xAF5 JUMPI PUSH1 0x20 SWAP2 PUSH1 0x5 SHL ADD ADD SWAP1 JUMP INVALID LOG2 PUSH5 0x6970667358 0x22 SLT KECCAK256 LOG1 PUSH18 0x53A5A2F272C5300D829FB230EE32383BC209 CALLER CALLDATACOPY 0xF7 MOD CREATE SIGNEXTEND EXP 0xA8 PUSH7 0xE5B7A664736F6C PUSH4 0x43000814 STOP CALLER "},"methodIdentifiers":{"attestProgress(bytes32,bytes32,bytes32,uint8,uint32)":"a8fa2fd7","attestationCount()":"a15b9321","getAttestation(uint256)":"29be4db2","getDeviceAttestationCount(bytes32)":"b5a77265","getDeviceAttestationIds(bytes32)":"75f47714","getProgressHistory(bytes32)":"57da24a1","owner()":"8da5cb5b","poACVerifier()":"f1cf7905","renounceOwnership()":"715018a6","transferOwnership(address)":"f2fde38b"}}}}}