{"contracts/PHGRegistry.sol":{"PHGRegistry":{"abi":[{"inputs":[{"internalType":"address","name":"_bridge","type":"address"}],"stateMutability":"nonpayable","type":"constructor"},{"inputs":[],"name":"IdentityRegistryAlreadySet","type":"error"},{"inputs":[],"name":"NotIdentityRegistry","type":"error"},{"inputs":[],"name":"OnlyBridge","type":"error"},{"anonymous":false,"inputs":[{"indexed":true,"internalType":"bytes32","name":"deviceId","type":"bytes32"},{"indexed":false,"internalType":"uint256","name":"cumulativeScore","type":"uint256"},{"indexed":false,"internalType":"uint32","name":"recordCount","type":"uint32"},{"indexed":false,"internalType":"bytes32","name":"biometricHash","type":"bytes32"},{"indexed":false,"internalType":"bytes32","name":"prevCheckpointHash","type":"bytes32"},{"indexed":false,"internalType":"uint256","name":"blockNumber","type":"uint256"}],"name":"PHGCheckpointCommitted","type":"event"},{"inputs":[],"name":"bridge","outputs":[{"internalType":"address","name":"","type":"address"}],"stateMutability":"view","type":"function"},{"inputs":[{"internalType":"bytes32","name":"","type":"bytes32"}],"name":"checkpointHead","outputs":[{"internalType":"bytes32","name":"","type":"bytes32"}],"stateMutability":"view","type":"function"},{"inputs":[{"internalType":"bytes32","name":"deviceId","type":"bytes32"},{"internalType":"uint256","name":"scoreDelta","type":"uint256"},{"internalType":"uint32","name":"count","type":"uint32"},{"internalType":"bytes32","name":"biometricHash","type":"bytes32"}],"name":"commitCheckpoint","outputs":[],"stateMutability":"nonpayable","type":"function"},{"inputs":[{"internalType":"bytes32","name":"","type":"bytes32"}],"name":"cumulativeScore","outputs":[{"internalType":"uint256","name":"","type":"uint256"}],"stateMutability":"view","type":"function"},{"inputs":[{"internalType":"bytes32","name":"deviceId","type":"bytes32"}],"name":"getDeviceState","outputs":[{"internalType":"uint256","name":"score","type":"uint256"},{"internalType":"uint32","name":"count","type":"uint32"},{"internalType":"bytes32","name":"head","type":"bytes32"}],"stateMutability":"view","type":"function"},{"inputs":[{"internalType":"bytes32","name":"deviceId","type":"bytes32"},{"internalType":"uint256","name":"windowSize","type":"uint256"}],"name":"getRecentVelocity","outputs":[{"internalType":"uint256","name":"velocity","type":"uint256"}],"stateMutability":"view","type":"function"},{"inputs":[],"name":"identityRegistry","outputs":[{"internalType":"address","name":"","type":"address"}],"stateMutability":"view","type":"function"},{"inputs":[{"internalType":"bytes32","name":"fromId","type":"bytes32"},{"internalType":"bytes32","name":"toId","type":"bytes32"}],"name":"inheritScore","outputs":[],"stateMutability":"nonpayable","type":"function"},{"inputs":[{"internalType":"bytes32","name":"deviceId","type":"bytes32"},{"internalType":"uint256","name":"minScore","type":"uint256"}],"name":"isEligible","outputs":[{"internalType":"bool","name":"","type":"bool"}],"stateMutability":"view","type":"function"},{"inputs":[{"internalType":"bytes32","name":"","type":"bytes32"}],"name":"prevCheckpointAt","outputs":[{"internalType":"bytes32","name":"","type":"bytes32"}],"stateMutability":"view","type":"function"},{"inputs":[{"internalType":"bytes32","name":"","type":"bytes32"}],"name":"recordCount","outputs":[{"internalType":"uint32","name":"","type":"uint32"}],"stateMutability":"view","type":"function"},{"inputs":[{"internalType":"bytes32","name":"","type":"bytes32"}],"name":"scoreDeltaAt","outputs":[{"internalType":"uint256","name":"","type":"uint256"}],"stateMutability":"view","type":"function"},{"inputs":[{"internalType":"address","name":"reg","type":"address"}],"name":"setIdentityRegistry","outputs":[],"stateMutability":"nonpayable","type":"function"}],"evm":{"bytecode":{"linkReferences":{},"object":"60a0346100ba57601f61079538819003918201601f19168301916001600160401b038311848410176100bf578084926020946040528339810103126100ba57516001600160a01b0381168082036100ba5715610076576080526040516106bf90816100d6823960805181818160e2015261026e0152f35b606460405162461bcd60e51b815260206004820152602060248201527f50484752656769737472793a207a65726f2062726964676520616464726573736044820152fd5b600080fd5b634e487b7160e01b600052604160045260246000fdfe60806040908082526004918236101561001757600080fd5b600091823560e01c908163018cc9301461060957508063134e18f4146105e25780632094950a1461053f5780634af6136a146104f3578063508a764d146104cb5780636b28c1171461049d57806373e07669146103c2578063871347b11461039a578063b69a7a4614610373578063cbf3f861146102c3578063d2570b941461029d578063e78cea921461025a5763edfd629e146100b457600080fd5b346102565760803660031901126102565782359060243560443563ffffffff808216820361025257606435907f00000000000000000000000000000000000000000000000000000000000000006001600160a01b03163303610242578587526020906002825285882054936001835286892061013187825461064e565b905587895260038352868920908261014d835492828416610671565b169063ffffffff1916179055868852600182528588205495600383528089205495815196848801988a8a528389015263ffffffff60e01b9060e01b1660608801528460648801526064875260a087019787891067ffffffffffffffff8a111761022f5788835287519020898b5260028552828b208190558a528a8452818a205560058352808920859055878952600183528089205460039093528820549186521660c084015260e083015261010082015243610120909101527f9711acd4ea78bff7ddbbb9c8116ef494af1e0504dd72111c56ef89cdbfd4f5e99060a090a280f35b634e487b7160e01b8b5260418c5260248bfd5b84516338da3b1560e01b81528890fd5b8580fd5b5080fd5b5034610256578160031936011261025657517f00000000000000000000000000000000000000000000000000000000000000006001600160a01b03168152602090f35b503461025657602091816102b036610633565b9290815260018552205410159051908152f35b5082903461036f57602036600319011261036f576001600160a01b0382358181169391929084900361036b57845492831661035e5783156103105750506001600160a01b03191617815580f35b906020608492519162461bcd60e51b8352820152602260248201527f50484752656769737472793a207a65726f207265676973747279206164647265604482015261737360f01b6064820152fd5b516345214f6360e11b8152fd5b8480fd5b8280fd5b50823461036f57602036600319011261036f57602092818392358252845220549051908152f35b50823461036f57602036600319011261036f5760209282913581526002845220549051908152f35b50346102565780600319360112610256578154833590602435906001600160a01b0316330361048d578394508184526002602060018152848620546003825263ffffffff9081878920541690600184528888812055600384528789209063ffffffff1991828154169055868a5260018552610441898b2091825461064e565b9055858952600384528789209261045c845493828516610671565b169116179055828652528284205415610479575b50825281205580f35b818452828420549084528284205538610470565b8251630e99e05560e31b81528590fd5b50823461036f57602036600319011261036f578160209363ffffffff92358152600385522054169051908152f35b50823461036f57602036600319011261036f5760209282913581526005845220549051908152f35b50823461036f57602036600319011261036f57916060923581526001602052818120549160036020528063ffffffff818420541692600260205220549181519384526020840152820152f35b5091346102565761054f36610633565b9390839084526020906002825282852054908596600881106000146105d7579691905b811515806105ce575b156105c557818752858452848720546105939161064e565b90865260058352838620549160001981146105b2576001019190610572565b634e487b7160e01b875260118652602487fd5b83908551908152f35b5087831061057b565b506008969190610572565b5034610256578160031936011261025657905490516001600160a01b039091168152602090f35b929390503461062f57602036600319011261062f57926020933581526001845220548152f35b8380fd5b6040906003190112610649576004359060243590565b600080fd5b9190820180921161065b57565b634e487b7160e01b600052601160045260246000fd5b91909163ffffffff8080941691160191821161065b5756fea2646970667358221220065359700c363195a84a8bc26325192ac8ce525ab090237ce43f8631953f696664736f6c63430008140033","opcodes":"PUSH1 0xA0 CALLVALUE PUSH2 0xBA JUMPI PUSH1 0x1F PUSH2 0x795 CODESIZE DUP2 SWAP1 SUB SWAP2 DUP3 ADD PUSH1 0x1F NOT AND DUP4 ADD SWAP2 PUSH1 0x1 PUSH1 0x1 PUSH1 0x40 SHL SUB DUP4 GT DUP5 DUP5 LT OR PUSH2 0xBF JUMPI DUP1 DUP5 SWAP3 PUSH1 0x20 SWAP5 PUSH1 0x40 MSTORE DUP4 CODECOPY DUP2 ADD SUB SLT PUSH2 0xBA JUMPI MLOAD PUSH1 0x1 PUSH1 0x1 PUSH1 0xA0 SHL SUB DUP2 AND DUP1 DUP3 SUB PUSH2 0xBA JUMPI ISZERO PUSH2 0x76 JUMPI PUSH1 0x80 MSTORE PUSH1 0x40 MLOAD PUSH2 0x6BF SWAP1 DUP2 PUSH2 0xD6 DUP3 CODECOPY PUSH1 0x80 MLOAD DUP2 DUP2 DUP2 PUSH1 0xE2 ADD MSTORE PUSH2 0x26E ADD MSTORE RETURN JUMPDEST PUSH1 0x64 PUSH1 0x40 MLOAD PUSH3 0x461BCD PUSH1 0xE5 SHL DUP2 MSTORE PUSH1 0x20 PUSH1 0x4 DUP3 ADD MSTORE PUSH1 0x20 PUSH1 0x24 DUP3 ADD MSTORE PUSH32 0x50484752656769737472793A207A65726F206272696467652061646472657373 PUSH1 0x44 DUP3 ADD MSTORE REVERT JUMPDEST PUSH1 0x0 DUP1 REVERT JUMPDEST PUSH4 0x4E487B71 PUSH1 0xE0 SHL PUSH1 0x0 MSTORE PUSH1 0x41 PUSH1 0x4 MSTORE PUSH1 0x24 PUSH1 0x0 REVERT INVALID PUSH1 0x80 PUSH1 0x40 SWAP1 DUP1 DUP3 MSTORE PUSH1 0x4 SWAP2 DUP3 CALLDATASIZE LT ISZERO PUSH2 0x17 JUMPI PUSH1 0x0 DUP1 REVERT JUMPDEST PUSH1 0x0 SWAP2 DUP3 CALLDATALOAD PUSH1 0xE0 SHR SWAP1 DUP2 PUSH4 0x18CC930 EQ PUSH2 0x609 JUMPI POP DUP1 PUSH4 0x134E18F4 EQ PUSH2 0x5E2 JUMPI DUP1 PUSH4 0x2094950A EQ PUSH2 0x53F JUMPI DUP1 PUSH4 0x4AF6136A EQ PUSH2 0x4F3 JUMPI DUP1 PUSH4 0x508A764D EQ PUSH2 0x4CB JUMPI DUP1 PUSH4 0x6B28C117 EQ PUSH2 0x49D JUMPI DUP1 PUSH4 0x73E07669 EQ PUSH2 0x3C2 JUMPI DUP1 PUSH4 0x871347B1 EQ PUSH2 0x39A JUMPI DUP1 PUSH4 0xB69A7A46 EQ PUSH2 0x373 JUMPI DUP1 PUSH4 0xCBF3F861 EQ PUSH2 0x2C3 JUMPI DUP1 PUSH4 0xD2570B94 EQ PUSH2 0x29D JUMPI DUP1 PUSH4 0xE78CEA92 EQ PUSH2 0x25A JUMPI PUSH4 0xEDFD629E EQ PUSH2 0xB4 JUMPI PUSH1 0x0 DUP1 REVERT JUMPDEST CALLVALUE PUSH2 0x256 JUMPI PUSH1 0x80 CALLDATASIZE PUSH1 0x3 NOT ADD SLT PUSH2 0x256 JUMPI DUP3 CALLDATALOAD SWAP1 PUSH1 0x24 CALLDATALOAD PUSH1 0x44 CALLDATALOAD PUSH4 0xFFFFFFFF DUP1 DUP3 AND DUP3 SUB PUSH2 0x252 JUMPI PUSH1 0x64 CALLDATALOAD SWAP1 PUSH32 0x0 PUSH1 0x1 PUSH1 0x1 PUSH1 0xA0 SHL SUB AND CALLER SUB PUSH2 0x242 JUMPI DUP6 DUP8 MSTORE PUSH1 0x20 SWAP1 PUSH1 0x2 DUP3 MSTORE DUP6 DUP9 KECCAK256 SLOAD SWAP4 PUSH1 0x1 DUP4 MSTORE DUP7 DUP10 KECCAK256 PUSH2 0x131 DUP8 DUP3 SLOAD PUSH2 0x64E JUMP JUMPDEST SWAP1 SSTORE DUP8 DUP10 MSTORE PUSH1 0x3 DUP4 MSTORE DUP7 DUP10 KECCAK256 SWAP1 DUP3 PUSH2 0x14D DUP4 SLOAD SWAP3 DUP3 DUP5 AND PUSH2 0x671 JUMP JUMPDEST AND SWAP1 PUSH4 0xFFFFFFFF NOT AND OR SWAP1 SSTORE DUP7 DUP9 MSTORE PUSH1 0x1 DUP3 MSTORE DUP6 DUP9 KECCAK256 SLOAD SWAP6 PUSH1 0x3 DUP4 MSTORE DUP1 DUP10 KECCAK256 SLOAD SWAP6 DUP2 MLOAD SWAP7 DUP5 DUP9 ADD SWAP9 DUP11 DUP11 MSTORE DUP4 DUP10 ADD MSTORE PUSH4 0xFFFFFFFF PUSH1 0xE0 SHL SWAP1 PUSH1 0xE0 SHL AND PUSH1 0x60 DUP9 ADD MSTORE DUP5 PUSH1 0x64 DUP9 ADD MSTORE PUSH1 0x64 DUP8 MSTORE PUSH1 0xA0 DUP8 ADD SWAP8 DUP8 DUP10 LT PUSH8 0xFFFFFFFFFFFFFFFF DUP11 GT OR PUSH2 0x22F JUMPI DUP9 DUP4 MSTORE DUP8 MLOAD SWAP1 KECCAK256 DUP10 DUP12 MSTORE PUSH1 0x2 DUP6 MSTORE DUP3 DUP12 KECCAK256 DUP2 SWAP1 SSTORE DUP11 MSTORE DUP11 DUP5 MSTORE DUP2 DUP11 KECCAK256 SSTORE PUSH1 0x5 DUP4 MSTORE DUP1 DUP10 KECCAK256 DUP6 SWAP1 SSTORE DUP8 DUP10 MSTORE PUSH1 0x1 DUP4 MSTORE DUP1 DUP10 KECCAK256 SLOAD PUSH1 0x3 SWAP1 SWAP4 MSTORE DUP9 KECCAK256 SLOAD SWAP2 DUP7 MSTORE AND PUSH1 0xC0 DUP5 ADD MSTORE PUSH1 0xE0 DUP4 ADD MSTORE PUSH2 0x100 DUP3 ADD MSTORE NUMBER PUSH2 0x120 SWAP1 SWAP2 ADD MSTORE PUSH32 0x9711ACD4EA78BFF7DDBBB9C8116EF494AF1E0504DD72111C56EF89CDBFD4F5E9 SWAP1 PUSH1 0xA0 SWAP1 LOG2 DUP1 RETURN JUMPDEST PUSH4 0x4E487B71 PUSH1 0xE0 SHL DUP12 MSTORE PUSH1 0x41 DUP13 MSTORE PUSH1 0x24 DUP12 REVERT JUMPDEST DUP5 MLOAD PUSH4 0x38DA3B15 PUSH1 0xE0 SHL DUP2 MSTORE DUP9 SWAP1 REVERT JUMPDEST DUP6 DUP1 REVERT JUMPDEST POP DUP1 REVERT JUMPDEST POP CALLVALUE PUSH2 0x256 JUMPI DUP2 PUSH1 0x3 NOT CALLDATASIZE ADD SLT PUSH2 0x256 JUMPI MLOAD PUSH32 0x0 PUSH1 0x1 PUSH1 0x1 PUSH1 0xA0 SHL SUB AND DUP2 MSTORE PUSH1 0x20 SWAP1 RETURN JUMPDEST POP CALLVALUE PUSH2 0x256 JUMPI PUSH1 0x20 SWAP2 DUP2 PUSH2 0x2B0 CALLDATASIZE PUSH2 0x633 JUMP JUMPDEST SWAP3 SWAP1 DUP2 MSTORE PUSH1 0x1 DUP6 MSTORE KECCAK256 SLOAD LT ISZERO SWAP1 MLOAD SWAP1 DUP2 MSTORE RETURN JUMPDEST POP DUP3 SWAP1 CALLVALUE PUSH2 0x36F JUMPI PUSH1 0x20 CALLDATASIZE PUSH1 0x3 NOT ADD SLT PUSH2 0x36F JUMPI PUSH1 0x1 PUSH1 0x1 PUSH1 0xA0 SHL SUB DUP3 CALLDATALOAD DUP2 DUP2 AND SWAP4 SWAP2 SWAP3 SWAP1 DUP5 SWAP1 SUB PUSH2 0x36B JUMPI DUP5 SLOAD SWAP3 DUP4 AND PUSH2 0x35E JUMPI DUP4 ISZERO PUSH2 0x310 JUMPI POP POP PUSH1 0x1 PUSH1 0x1 PUSH1 0xA0 SHL SUB NOT AND OR DUP2 SSTORE DUP1 RETURN JUMPDEST SWAP1 PUSH1 0x20 PUSH1 0x84 SWAP3 MLOAD SWAP2 PUSH3 0x461BCD PUSH1 0xE5 SHL DUP4 MSTORE DUP3 ADD MSTORE PUSH1 0x22 PUSH1 0x24 DUP3 ADD MSTORE PUSH32 0x50484752656769737472793A207A65726F207265676973747279206164647265 PUSH1 0x44 DUP3 ADD MSTORE PUSH2 0x7373 PUSH1 0xF0 SHL PUSH1 0x64 DUP3 ADD MSTORE REVERT JUMPDEST MLOAD PUSH4 0x45214F63 PUSH1 0xE1 SHL DUP2 MSTORE REVERT JUMPDEST DUP5 DUP1 REVERT JUMPDEST DUP3 DUP1 REVERT JUMPDEST POP DUP3 CALLVALUE PUSH2 0x36F JUMPI PUSH1 0x20 CALLDATASIZE PUSH1 0x3 NOT ADD SLT PUSH2 0x36F JUMPI PUSH1 0x20 SWAP3 DUP2 DUP4 SWAP3 CALLDATALOAD DUP3 MSTORE DUP5 MSTORE KECCAK256 SLOAD SWAP1 MLOAD SWAP1 DUP2 MSTORE RETURN JUMPDEST POP DUP3 CALLVALUE PUSH2 0x36F JUMPI PUSH1 0x20 CALLDATASIZE PUSH1 0x3 NOT ADD SLT PUSH2 0x36F JUMPI PUSH1 0x20 SWAP3 DUP3 SWAP2 CALLDATALOAD DUP2 MSTORE PUSH1 0x2 DUP5 MSTORE KECCAK256 SLOAD SWAP1 MLOAD SWAP1 DUP2 MSTORE RETURN JUMPDEST POP CALLVALUE PUSH2 0x256 JUMPI DUP1 PUSH1 0x3 NOT CALLDATASIZE ADD SLT PUSH2 0x256 JUMPI DUP2 SLOAD DUP4 CALLDATALOAD SWAP1 PUSH1 0x24 CALLDATALOAD SWAP1 PUSH1 0x1 PUSH1 0x1 PUSH1 0xA0 SHL SUB AND CALLER SUB PUSH2 0x48D JUMPI DUP4 SWAP5 POP DUP2 DUP5 MSTORE PUSH1 0x2 PUSH1 0x20 PUSH1 0x1 DUP2 MSTORE DUP5 DUP7 KECCAK256 SLOAD PUSH1 0x3 DUP3 MSTORE PUSH4 0xFFFFFFFF SWAP1 DUP2 DUP8 DUP10 KECCAK256 SLOAD AND SWAP1 PUSH1 0x1 DUP5 MSTORE DUP9 DUP9 DUP2 KECCAK256 SSTORE PUSH1 0x3 DUP5 MSTORE DUP8 DUP10 KECCAK256 SWAP1 PUSH4 0xFFFFFFFF NOT SWAP2 DUP3 DUP2 SLOAD AND SWAP1 SSTORE DUP7 DUP11 MSTORE PUSH1 0x1 DUP6 MSTORE PUSH2 0x441 DUP10 DUP12 KECCAK256 SWAP2 DUP3 SLOAD PUSH2 0x64E JUMP JUMPDEST SWAP1 SSTORE DUP6 DUP10 MSTORE PUSH1 0x3 DUP5 MSTORE DUP8 DUP10 KECCAK256 SWAP3 PUSH2 0x45C DUP5 SLOAD SWAP4 DUP3 DUP6 AND PUSH2 0x671 JUMP JUMPDEST AND SWAP2 AND OR SWAP1 SSTORE DUP3 DUP7 MSTORE MSTORE DUP3 DUP5 KECCAK256 SLOAD ISZERO PUSH2 0x479 JUMPI JUMPDEST POP DUP3 MSTORE DUP2 KECCAK256 SSTORE DUP1 RETURN JUMPDEST DUP2 DUP5 MSTORE DUP3 DUP5 KECCAK256 SLOAD SWAP1 DUP5 MSTORE DUP3 DUP5 KECCAK256 SSTORE CODESIZE PUSH2 0x470 JUMP JUMPDEST DUP3 MLOAD PUSH4 0xE99E055 PUSH1 0xE3 SHL DUP2 MSTORE DUP6 SWAP1 REVERT JUMPDEST POP DUP3 CALLVALUE PUSH2 0x36F JUMPI PUSH1 0x20 CALLDATASIZE PUSH1 0x3 NOT ADD SLT PUSH2 0x36F JUMPI DUP2 PUSH1 0x20 SWAP4 PUSH4 0xFFFFFFFF SWAP3 CALLDATALOAD DUP2 MSTORE PUSH1 0x3 DUP6 MSTORE KECCAK256 SLOAD AND SWAP1 MLOAD SWAP1 DUP2 MSTORE RETURN JUMPDEST POP DUP3 CALLVALUE PUSH2 0x36F JUMPI PUSH1 0x20 CALLDATASIZE PUSH1 0x3 NOT ADD SLT PUSH2 0x36F JUMPI PUSH1 0x20 SWAP3 DUP3 SWAP2 CALLDATALOAD DUP2 MSTORE PUSH1 0x5 DUP5 MSTORE KECCAK256 SLOAD SWAP1 MLOAD SWAP1 DUP2 MSTORE RETURN JUMPDEST POP DUP3 CALLVALUE PUSH2 0x36F JUMPI PUSH1 0x20 CALLDATASIZE PUSH1 0x3 NOT ADD SLT PUSH2 0x36F JUMPI SWAP2 PUSH1 0x60 SWAP3 CALLDATALOAD DUP2 MSTORE PUSH1 0x1 PUSH1 0x20 MSTORE DUP2 DUP2 KECCAK256 SLOAD SWAP2 PUSH1 0x3 PUSH1 0x20 MSTORE DUP1 PUSH4 0xFFFFFFFF DUP2 DUP5 KECCAK256 SLOAD AND SWAP3 PUSH1 0x2 PUSH1 0x20 MSTORE KECCAK256 SLOAD SWAP2 DUP2 MLOAD SWAP4 DUP5 MSTORE PUSH1 0x20 DUP5 ADD MSTORE DUP3 ADD MSTORE RETURN JUMPDEST POP SWAP2 CALLVALUE PUSH2 0x256 JUMPI PUSH2 0x54F CALLDATASIZE PUSH2 0x633 JUMP JUMPDEST SWAP4 SWAP1 DUP4 SWAP1 DUP5 MSTORE PUSH1 0x20 SWAP1 PUSH1 0x2 DUP3 MSTORE DUP3 DUP6 KECCAK256 SLOAD SWAP1 DUP6 SWAP7 PUSH1 0x8 DUP2 LT PUSH1 0x0 EQ PUSH2 0x5D7 JUMPI SWAP7 SWAP2 SWAP1 JUMPDEST DUP2 ISZERO ISZERO DUP1 PUSH2 0x5CE JUMPI JUMPDEST ISZERO PUSH2 0x5C5 JUMPI DUP2 DUP8 MSTORE DUP6 DUP5 MSTORE DUP5 DUP8 KECCAK256 SLOAD PUSH2 0x593 SWAP2 PUSH2 0x64E JUMP JUMPDEST SWAP1 DUP7 MSTORE PUSH1 0x5 DUP4 MSTORE DUP4 DUP7 KECCAK256 SLOAD SWAP2 PUSH1 0x0 NOT DUP2 EQ PUSH2 0x5B2 JUMPI PUSH1 0x1 ADD SWAP2 SWAP1 PUSH2 0x572 JUMP JUMPDEST PUSH4 0x4E487B71 PUSH1 0xE0 SHL DUP8 MSTORE PUSH1 0x11 DUP7 MSTORE PUSH1 0x24 DUP8 REVERT JUMPDEST DUP4 SWAP1 DUP6 MLOAD SWAP1 DUP2 MSTORE RETURN JUMPDEST POP DUP8 DUP4 LT PUSH2 0x57B JUMP JUMPDEST POP PUSH1 0x8 SWAP7 SWAP2 SWAP1 PUSH2 0x572 JUMP JUMPDEST POP CALLVALUE PUSH2 0x256 JUMPI DUP2 PUSH1 0x3 NOT CALLDATASIZE ADD SLT PUSH2 0x256 JUMPI SWAP1 SLOAD SWAP1 MLOAD PUSH1 0x1 PUSH1 0x1 PUSH1 0xA0 SHL SUB SWAP1 SWAP2 AND DUP2 MSTORE PUSH1 0x20 SWAP1 RETURN JUMPDEST SWAP3 SWAP4 SWAP1 POP CALLVALUE PUSH2 0x62F JUMPI PUSH1 0x20 CALLDATASIZE PUSH1 0x3 NOT ADD SLT PUSH2 0x62F JUMPI SWAP3 PUSH1 0x20 SWAP4 CALLDATALOAD DUP2 MSTORE PUSH1 0x1 DUP5 MSTORE KECCAK256 SLOAD DUP2 MSTORE RETURN JUMPDEST DUP4 DUP1 REVERT JUMPDEST PUSH1 0x40 SWAP1 PUSH1 0x3 NOT ADD SLT PUSH2 0x649 JUMPI PUSH1 0x4 CALLDATALOAD SWAP1 PUSH1 0x24 CALLDATALOAD SWAP1 JUMP JUMPDEST PUSH1 0x0 DUP1 REVERT JUMPDEST SWAP2 SWAP1 DUP3 ADD DUP1 SWAP3 GT PUSH2 0x65B JUMPI JUMP JUMPDEST PUSH4 0x4E487B71 PUSH1 0xE0 SHL PUSH1 0x0 MSTORE PUSH1 0x11 PUSH1 0x4 MSTORE PUSH1 0x24 PUSH1 0x0 REVERT JUMPDEST SWAP2 SWAP1 SWAP2 PUSH4 0xFFFFFFFF DUP1 DUP1 SWAP5 AND SWAP2 AND ADD SWAP2 DUP3 GT PUSH2 0x65B JUMPI JUMP INVALID LOG2 PUSH5 0x6970667358 0x22 SLT KECCAK256 MOD MSTORE8 MSIZE PUSH17 0xC363195A84A8BC26325192AC8CE525AB0 SWAP1 0x23 PUSH29 0xE43F8631953F696664736F6C6343000814003300000000000000000000 "},"methodIdentifiers":{"bridge()":"e78cea92","checkpointHead(bytes32)":"871347b1","commitCheckpoint(bytes32,uint256,uint32,bytes32)":"edfd629e","cumulativeScore(bytes32)":"018cc930","getDeviceState(bytes32)":"4af6136a","getRecentVelocity(bytes32,uint256)":"2094950a","identityRegistry()":"134e18f4","inheritScore(bytes32,bytes32)":"73e07669","isEligible(bytes32,uint256)":"d2570b94","prevCheckpointAt(bytes32)":"508a764d","recordCount(bytes32)":"6b28c117","scoreDeltaAt(bytes32)":"b69a7a46","setIdentityRegistry(address)":"cbf3f861"}}}}}