{"contracts/TournamentGateV2.sol":{"TournamentGateV2":{"abi":[{"inputs":[{"internalType":"address","name":"_phgRegistry","type":"address"},{"internalType":"uint256","name":"_minCumulative","type":"uint256"},{"internalType":"uint256","name":"_minVelocity","type":"uint256"},{"internalType":"uint256","name":"_velocityWindow","type":"uint256"}],"stateMutability":"nonpayable","type":"constructor"},{"inputs":[{"internalType":"bytes32","name":"deviceId","type":"bytes32"},{"internalType":"uint256","name":"have","type":"uint256"},{"internalType":"uint256","name":"need","type":"uint256"}],"name":"InsufficientHumanityScore","type":"error"},{"inputs":[{"internalType":"bytes32","name":"deviceId","type":"bytes32"},{"internalType":"uint256","name":"have","type":"uint256"},{"internalType":"uint256","name":"need","type":"uint256"}],"name":"InsufficientRecentVelocity","type":"error"},{"inputs":[{"internalType":"bytes32","name":"deviceId","type":"bytes32"}],"name":"assertEligible","outputs":[],"stateMutability":"view","type":"function"},{"inputs":[],"name":"minCumulative","outputs":[{"internalType":"uint256","name":"","type":"uint256"}],"stateMutability":"view","type":"function"},{"inputs":[],"name":"minVelocity","outputs":[{"internalType":"uint256","name":"","type":"uint256"}],"stateMutability":"view","type":"function"},{"inputs":[],"name":"phgRegistry","outputs":[{"internalType":"contract PHGRegistry","name":"","type":"address"}],"stateMutability":"view","type":"function"},{"inputs":[],"name":"velocityWindow","outputs":[{"internalType":"uint256","name":"","type":"uint256"}],"stateMutability":"view","type":"function"}],"evm":{"bytecode":{"linkReferences":{},"object":"6101003461015257601f61051138819003918201601f19168301916001600160401b03831184841017610157578084926080946040528339810103126101525780516001600160a01b03811691908290036101525760208101516060604083015192015192801561010d5783156100c85760805260a05260c05260e0526040516103a3908161016e823960805181818160ff01526102cc015260a05181818160720152610141015260c05181818160b001526101bd015260e05181818161018501526103120152f35b60405162461bcd60e51b815260206004820152601d60248201527f546f75726e616d656e744761746556323a207a65726f2077696e646f770000006044820152606490fd5b60405162461bcd60e51b815260206004820152601f60248201527f546f75726e616d656e744761746556323a207a65726f207265676973747279006044820152606490fd5b600080fd5b634e487b7160e01b600052604160045260246000fdfe608060408181526004918236101561001657600080fd5b600092833560e01c9182632075e01e146102fb57508163245cc4e7146102b75781632e82fb78146100d3575080639a52659d146100995763ad239f871461005c57600080fd5b34610095578160031936011261009557602090517f00000000000000000000000000000000000000000000000000000000000000008152f35b5080fd5b5034610095578160031936011261009557602090517f00000000000000000000000000000000000000000000000000000000000000008152f35b9050346102b357602091826003193601126102af5780516218cc9360e41b8152823581840181905293907f00000000000000000000000000000000000000000000000000000000000000006001600160a01b0316908281602481855afa9081156102a5578791610274575b507f0000000000000000000000000000000000000000000000000000000000000000908181106102495750508160449184519283809263104a4a8560e11b825289898301527f000000000000000000000000000000000000000000000000000000000000000060248301525afa91821561023f57869261020d575b50507f0000000000000000000000000000000000000000000000000000000000000000918282106101e8578580f35b51633af3ce1960e11b8152928301938452602084015260408301529081906060010390fd5b90809250813d8311610238575b6102248183610335565b81010312610234575138806101b9565b8480fd5b503d61021a565b83513d88823e3d90fd5b9351631750e4e960e21b81529485019586526020860193909352505060408301529081906060010390fd5b90508281813d831161029e575b61028b8183610335565b8101031261029a57513861013e565b8680fd5b503d610281565b84513d89823e3d90fd5b8380fd5b8280fd5b505034610095578160031936011261009557517f00000000000000000000000000000000000000000000000000000000000000006001600160a01b03168152602090f35b8490346100955781600319360112610095576020907f00000000000000000000000000000000000000000000000000000000000000008152f35b90601f8019910116810190811067ffffffffffffffff82111761035757604052565b634e487b7160e01b600052604160045260246000fdfea26469706673582212203961b3544d91ef5a97d0f3308eb2b7029ea7f8ad569f9481cb6ea6c0e441577764736f6c63430008140033","opcodes":"PUSH2 0x100 CALLVALUE PUSH2 0x152 JUMPI PUSH1 0x1F PUSH2 0x511 CODESIZE DUP2 SWAP1 SUB SWAP2 DUP3 ADD PUSH1 0x1F NOT AND DUP4 ADD SWAP2 PUSH1 0x1 PUSH1 0x1 PUSH1 0x40 SHL SUB DUP4 GT DUP5 DUP5 LT OR PUSH2 0x157 JUMPI DUP1 DUP5 SWAP3 PUSH1 0x80 SWAP5 PUSH1 0x40 MSTORE DUP4 CODECOPY DUP2 ADD SUB SLT PUSH2 0x152 JUMPI DUP1 MLOAD PUSH1 0x1 PUSH1 0x1 PUSH1 0xA0 SHL SUB DUP2 AND SWAP2 SWAP1 DUP3 SWAP1 SUB PUSH2 0x152 JUMPI PUSH1 0x20 DUP2 ADD MLOAD PUSH1 0x60 PUSH1 0x40 DUP4 ADD MLOAD SWAP3 ADD MLOAD SWAP3 DUP1 ISZERO PUSH2 0x10D JUMPI DUP4 ISZERO PUSH2 0xC8 JUMPI PUSH1 0x80 MSTORE PUSH1 0xA0 MSTORE PUSH1 0xC0 MSTORE PUSH1 0xE0 MSTORE PUSH1 0x40 MLOAD PUSH2 0x3A3 SWAP1 DUP2 PUSH2 0x16E DUP3 CODECOPY PUSH1 0x80 MLOAD DUP2 DUP2 DUP2 PUSH1 0xFF ADD MSTORE PUSH2 0x2CC ADD MSTORE PUSH1 0xA0 MLOAD DUP2 DUP2 DUP2 PUSH1 0x72 ADD MSTORE PUSH2 0x141 ADD MSTORE PUSH1 0xC0 MLOAD DUP2 DUP2 DUP2 PUSH1 0xB0 ADD MSTORE PUSH2 0x1BD ADD MSTORE PUSH1 0xE0 MLOAD DUP2 DUP2 DUP2 PUSH2 0x185 ADD MSTORE PUSH2 0x312 ADD MSTORE RETURN JUMPDEST PUSH1 0x40 MLOAD PUSH3 0x461BCD PUSH1 0xE5 SHL DUP2 MSTORE PUSH1 0x20 PUSH1 0x4 DUP3 ADD MSTORE PUSH1 0x1D PUSH1 0x24 DUP3 ADD MSTORE PUSH32 0x546F75726E616D656E744761746556323A207A65726F2077696E646F77000000 PUSH1 0x44 DUP3 ADD MSTORE PUSH1 0x64 SWAP1 REVERT JUMPDEST PUSH1 0x40 MLOAD PUSH3 0x461BCD PUSH1 0xE5 SHL DUP2 MSTORE PUSH1 0x20 PUSH1 0x4 DUP3 ADD MSTORE PUSH1 0x1F PUSH1 0x24 DUP3 ADD MSTORE PUSH32 0x546F75726E616D656E744761746556323A207A65726F20726567697374727900 PUSH1 0x44 DUP3 ADD MSTORE PUSH1 0x64 SWAP1 REVERT JUMPDEST PUSH1 0x0 DUP1 REVERT JUMPDEST PUSH4 0x4E487B71 PUSH1 0xE0 SHL PUSH1 0x0 MSTORE PUSH1 0x41 PUSH1 0x4 MSTORE PUSH1 0x24 PUSH1 0x0 REVERT INVALID PUSH1 0x80 PUSH1 0x40 DUP2 DUP2 MSTORE PUSH1 0x4 SWAP2 DUP3 CALLDATASIZE LT ISZERO PUSH2 0x16 JUMPI PUSH1 0x0 DUP1 REVERT JUMPDEST PUSH1 0x0 SWAP3 DUP4 CALLDATALOAD PUSH1 0xE0 SHR SWAP2 DUP3 PUSH4 0x2075E01E EQ PUSH2 0x2FB JUMPI POP DUP2 PUSH4 0x245CC4E7 EQ PUSH2 0x2B7 JUMPI DUP2 PUSH4 0x2E82FB78 EQ PUSH2 0xD3 JUMPI POP DUP1 PUSH4 0x9A52659D EQ PUSH2 0x99 JUMPI PUSH4 0xAD239F87 EQ PUSH2 0x5C JUMPI PUSH1 0x0 DUP1 REVERT JUMPDEST CALLVALUE PUSH2 0x95 JUMPI DUP2 PUSH1 0x3 NOT CALLDATASIZE ADD SLT PUSH2 0x95 JUMPI PUSH1 0x20 SWAP1 MLOAD PUSH32 0x0 DUP2 MSTORE RETURN JUMPDEST POP DUP1 REVERT JUMPDEST POP CALLVALUE PUSH2 0x95 JUMPI DUP2 PUSH1 0x3 NOT CALLDATASIZE ADD SLT PUSH2 0x95 JUMPI PUSH1 0x20 SWAP1 MLOAD PUSH32 0x0 DUP2 MSTORE RETURN JUMPDEST SWAP1 POP CALLVALUE PUSH2 0x2B3 JUMPI PUSH1 0x20 SWAP2 DUP3 PUSH1 0x3 NOT CALLDATASIZE ADD SLT PUSH2 0x2AF JUMPI DUP1 MLOAD PUSH3 0x18CC93 PUSH1 0xE4 SHL DUP2 MSTORE DUP3 CALLDATALOAD DUP2 DUP5 ADD DUP2 SWAP1 MSTORE SWAP4 SWAP1 PUSH32 0x0 PUSH1 0x1 PUSH1 0x1 PUSH1 0xA0 SHL SUB AND SWAP1 DUP3 DUP2 PUSH1 0x24 DUP2 DUP6 GAS STATICCALL SWAP1 DUP2 ISZERO PUSH2 0x2A5 JUMPI DUP8 SWAP2 PUSH2 0x274 JUMPI JUMPDEST POP PUSH32 0x0 SWAP1 DUP2 DUP2 LT PUSH2 0x249 JUMPI POP POP DUP2 PUSH1 0x44 SWAP2 DUP5 MLOAD SWAP3 DUP4 DUP1 SWAP3 PUSH4 0x104A4A85 PUSH1 0xE1 SHL DUP3 MSTORE DUP10 DUP10 DUP4 ADD MSTORE PUSH32 0x0 PUSH1 0x24 DUP4 ADD MSTORE GAS STATICCALL SWAP2 DUP3 ISZERO PUSH2 0x23F JUMPI DUP7 SWAP3 PUSH2 0x20D JUMPI JUMPDEST POP POP PUSH32 0x0 SWAP2 DUP3 DUP3 LT PUSH2 0x1E8 JUMPI DUP6 DUP1 RETURN JUMPDEST MLOAD PUSH4 0x3AF3CE19 PUSH1 0xE1 SHL DUP2 MSTORE SWAP3 DUP4 ADD SWAP4 DUP5 MSTORE PUSH1 0x20 DUP5 ADD MSTORE PUSH1 0x40 DUP4 ADD MSTORE SWAP1 DUP2 SWAP1 PUSH1 0x60 ADD SUB SWAP1 REVERT JUMPDEST SWAP1 DUP1 SWAP3 POP DUP2 RETURNDATASIZE DUP4 GT PUSH2 0x238 JUMPI JUMPDEST PUSH2 0x224 DUP2 DUP4 PUSH2 0x335 JUMP JUMPDEST DUP2 ADD SUB SLT PUSH2 0x234 JUMPI MLOAD CODESIZE DUP1 PUSH2 0x1B9 JUMP JUMPDEST DUP5 DUP1 REVERT JUMPDEST POP RETURNDATASIZE PUSH2 0x21A JUMP JUMPDEST DUP4 MLOAD RETURNDATASIZE DUP9 DUP3 RETURNDATACOPY RETURNDATASIZE SWAP1 REVERT JUMPDEST SWAP4 MLOAD PUSH4 0x1750E4E9 PUSH1 0xE2 SHL DUP2 MSTORE SWAP5 DUP6 ADD SWAP6 DUP7 MSTORE PUSH1 0x20 DUP7 ADD SWAP4 SWAP1 SWAP4 MSTORE POP POP PUSH1 0x40 DUP4 ADD MSTORE SWAP1 DUP2 SWAP1 PUSH1 0x60 ADD SUB SWAP1 REVERT JUMPDEST SWAP1 POP DUP3 DUP2 DUP2 RETURNDATASIZE DUP4 GT PUSH2 0x29E JUMPI JUMPDEST PUSH2 0x28B DUP2 DUP4 PUSH2 0x335 JUMP JUMPDEST DUP2 ADD SUB SLT PUSH2 0x29A JUMPI MLOAD CODESIZE PUSH2 0x13E JUMP JUMPDEST DUP7 DUP1 REVERT JUMPDEST POP RETURNDATASIZE PUSH2 0x281 JUMP JUMPDEST DUP5 MLOAD RETURNDATASIZE DUP10 DUP3 RETURNDATACOPY RETURNDATASIZE SWAP1 REVERT JUMPDEST DUP4 DUP1 REVERT JUMPDEST DUP3 DUP1 REVERT JUMPDEST POP POP CALLVALUE PUSH2 0x95 JUMPI DUP2 PUSH1 0x3 NOT CALLDATASIZE ADD SLT PUSH2 0x95 JUMPI MLOAD PUSH32 0x0 PUSH1 0x1 PUSH1 0x1 PUSH1 0xA0 SHL SUB AND DUP2 MSTORE PUSH1 0x20 SWAP1 RETURN JUMPDEST DUP5 SWAP1 CALLVALUE PUSH2 0x95 JUMPI DUP2 PUSH1 0x3 NOT CALLDATASIZE ADD SLT PUSH2 0x95 JUMPI PUSH1 0x20 SWAP1 PUSH32 0x0 DUP2 MSTORE RETURN JUMPDEST SWAP1 PUSH1 0x1F DUP1 NOT SWAP2 ADD AND DUP2 ADD SWAP1 DUP2 LT PUSH8 0xFFFFFFFFFFFFFFFF DUP3 GT OR PUSH2 0x357 JUMPI PUSH1 0x40 MSTORE JUMP JUMPDEST PUSH4 0x4E487B71 PUSH1 0xE0 SHL PUSH1 0x0 MSTORE PUSH1 0x41 PUSH1 0x4 MSTORE PUSH1 0x24 PUSH1 0x0 REVERT INVALID LOG2 PUSH5 0x6970667358 0x22 SLT KECCAK256 CODECOPY PUSH2 0xB354 0x4D SWAP2 0xEF GAS SWAP8 0xD0 RETURN ADDRESS DUP15 0xB2 0xB7 MUL SWAP15 0xA7 0xF8 0xAD JUMP SWAP16 SWAP5 DUP2 0xCB PUSH15 0xA6C0E441577764736F6C6343000814 STOP CALLER "},"methodIdentifiers":{"assertEligible(bytes32)":"2e82fb78","minCumulative()":"ad239f87","minVelocity()":"9a52659d","phgRegistry()":"245cc4e7","velocityWindow()":"2075e01e"}}}}}