{"contracts/TeamProofAggregatorZKTestable.sol":{"TeamProofAggregatorZKTestable":{"abi":[{"inputs":[{"internalType":"address","name":"_poACVerifier","type":"address"}],"stateMutability":"nonpayable","type":"constructor"},{"inputs":[{"internalType":"bytes32","name":"recordHash","type":"bytes32"},{"internalType":"uint8","name":"inferenceResult","type":"uint8"}],"name":"CheatFlagDetected","type":"error"},{"inputs":[{"internalType":"bytes32","name":"computed","type":"bytes32"},{"internalType":"bytes32","name":"submitted","type":"bytes32"}],"name":"InvalidMerkleRoot","type":"error"},{"inputs":[{"internalType":"uint256","name":"size","type":"uint256"}],"name":"InvalidTeamSize","type":"error"},{"inputs":[],"name":"InvalidZKProof","type":"error"},{"inputs":[{"internalType":"uint256","name":"expected","type":"uint256"},{"internalType":"uint256","name":"provided","type":"uint256"}],"name":"MemberCountMismatch","type":"error"},{"inputs":[{"internalType":"bytes32","name":"nullifier","type":"bytes32"}],"name":"NullifierAlreadyUsed","type":"error"},{"inputs":[{"internalType":"address","name":"owner","type":"address"}],"name":"OwnableInvalidOwner","type":"error"},{"inputs":[{"internalType":"address","name":"account","type":"address"}],"name":"OwnableUnauthorizedAccount","type":"error"},{"inputs":[{"internalType":"bytes32","name":"recordHash","type":"bytes32"}],"name":"RecordNotVerified","type":"error"},{"inputs":[{"internalType":"bytes32","name":"teamId","type":"bytes32"}],"name":"TeamAlreadyExists","type":"error"},{"inputs":[{"internalType":"bytes32","name":"teamId","type":"bytes32"}],"name":"TeamNotActive","type":"error"},{"inputs":[{"internalType":"bytes32","name":"teamId","type":"bytes32"}],"name":"TeamNotFound","type":"error"},{"anonymous":false,"inputs":[{"indexed":true,"internalType":"address","name":"previousOwner","type":"address"},{"indexed":true,"internalType":"address","name":"newOwner","type":"address"}],"name":"OwnershipTransferred","type":"event"},{"anonymous":false,"inputs":[{"indexed":true,"internalType":"bytes32","name":"teamId","type":"bytes32"},{"indexed":true,"internalType":"address","name":"captain","type":"address"},{"indexed":false,"internalType":"uint8","name":"memberCount","type":"uint8"}],"name":"TeamCreated","type":"event"},{"anonymous":false,"inputs":[{"indexed":true,"internalType":"bytes32","name":"teamId","type":"bytes32"},{"indexed":true,"internalType":"uint256","name":"proofId","type":"uint256"},{"indexed":false,"internalType":"bytes32","name":"merkleRoot","type":"bytes32"},{"indexed":false,"internalType":"uint8","name":"memberCount","type":"uint8"},{"indexed":false,"internalType":"bool","name":"allClean","type":"bool"}],"name":"TeamProofSubmitted","type":"event"},{"anonymous":false,"inputs":[{"indexed":true,"internalType":"address","name":"verifier","type":"address"}],"name":"TeamProofVerifierSet","type":"event"},{"anonymous":false,"inputs":[{"indexed":true,"internalType":"bytes32","name":"teamId","type":"bytes32"},{"indexed":true,"internalType":"bytes32","name":"merkleRoot","type":"bytes32"},{"indexed":false,"internalType":"bytes32","name":"nullifierHash","type":"bytes32"},{"indexed":false,"internalType":"uint256","name":"memberCount","type":"uint256"}],"name":"ZKTeamProofSubmitted","type":"event"},{"inputs":[],"name":"CHEAT_INFERENCE_MAX","outputs":[{"internalType":"uint8","name":"","type":"uint8"}],"stateMutability":"view","type":"function"},{"inputs":[],"name":"CHEAT_INFERENCE_MIN","outputs":[{"internalType":"uint8","name":"","type":"uint8"}],"stateMutability":"view","type":"function"},{"inputs":[],"name":"MAX_TEAM_SIZE","outputs":[{"internalType":"uint8","name":"","type":"uint8"}],"stateMutability":"view","type":"function"},{"inputs":[],"name":"MIN_TEAM_SIZE","outputs":[{"internalType":"uint8","name":"","type":"uint8"}],"stateMutability":"view","type":"function"},{"inputs":[],"name":"MOCK_PROOF_SIZE","outputs":[{"internalType":"uint256","name":"","type":"uint256"}],"stateMutability":"view","type":"function"},{"inputs":[],"name":"ZK_VERSION","outputs":[{"internalType":"bytes32","name":"","type":"bytes32"}],"stateMutability":"view","type":"function"},{"inputs":[{"internalType":"bytes32[]","name":"_leaves","type":"bytes32[]"}],"name":"computeMerkleRoot","outputs":[{"internalType":"bytes32","name":"","type":"bytes32"}],"stateMutability":"pure","type":"function"},{"inputs":[{"internalType":"bytes32","name":"_teamId","type":"bytes32"},{"internalType":"bytes32[]","name":"_deviceIds","type":"bytes32[]"}],"name":"createTeam","outputs":[],"stateMutability":"nonpayable","type":"function"},{"inputs":[{"internalType":"bytes32","name":"_teamId","type":"bytes32"}],"name":"getTeam","outputs":[{"internalType":"bytes32[]","name":"memberDeviceIds","type":"bytes32[]"},{"internalType":"address","name":"captain","type":"address"},{"internalType":"uint64","name":"createdAt","type":"uint64"},{"internalType":"bool","name":"active","type":"bool"}],"stateMutability":"view","type":"function"},{"inputs":[{"internalType":"uint256","name":"_proofId","type":"uint256"}],"name":"getTeamProof","outputs":[{"components":[{"internalType":"bytes32","name":"teamId","type":"bytes32"},{"internalType":"bytes32","name":"merkleRoot","type":"bytes32"},{"internalType":"bytes32[]","name":"recordHashes","type":"bytes32[]"},{"internalType":"uint8","name":"memberCount","type":"uint8"},{"internalType":"bool","name":"allClean","type":"bool"},{"internalType":"uint64","name":"submittedAt","type":"uint64"},{"internalType":"address","name":"submitter","type":"address"}],"internalType":"struct TeamProofAggregator.TeamProof","name":"","type":"tuple"}],"stateMutability":"view","type":"function"},{"inputs":[{"internalType":"bytes32","name":"_teamId","type":"bytes32"}],"name":"getTeamProofCount","outputs":[{"internalType":"uint256","name":"","type":"uint256"}],"stateMutability":"view","type":"function"},{"inputs":[{"internalType":"bytes32","name":"_teamId","type":"bytes32"}],"name":"getTeamProofIds","outputs":[{"internalType":"uint256[]","name":"","type":"uint256[]"}],"stateMutability":"view","type":"function"},{"inputs":[],"name":"mockZKResult","outputs":[{"internalType":"bool","name":"","type":"bool"}],"stateMutability":"view","type":"function"},{"inputs":[],"name":"owner","outputs":[{"internalType":"address","name":"","type":"address"}],"stateMutability":"view","type":"function"},{"inputs":[],"name":"poACVerifier","outputs":[{"internalType":"contract PoACVerifier","name":"","type":"address"}],"stateMutability":"view","type":"function"},{"inputs":[],"name":"proofCount","outputs":[{"internalType":"uint256","name":"","type":"uint256"}],"stateMutability":"view","type":"function"},{"inputs":[],"name":"renounceOwnership","outputs":[],"stateMutability":"nonpayable","type":"function"},{"inputs":[{"internalType":"bool","name":"result","type":"bool"}],"name":"setMockZKResult","outputs":[],"stateMutability":"nonpayable","type":"function"},{"inputs":[{"internalType":"address","name":"_verifier","type":"address"}],"name":"setTeamProofVerifier","outputs":[],"stateMutability":"nonpayable","type":"function"},{"inputs":[{"internalType":"bytes32","name":"_teamId","type":"bytes32"},{"internalType":"bytes32[]","name":"_recordHashes","type":"bytes32[]"},{"internalType":"bytes32","name":"_merkleRoot","type":"bytes32"}],"name":"submitTeamProof","outputs":[{"internalType":"uint256","name":"proofId","type":"uint256"}],"stateMutability":"nonpayable","type":"function"},{"inputs":[{"internalType":"bytes32","name":"_teamId","type":"bytes32"},{"internalType":"bytes32[]","name":"_recordHashes","type":"bytes32[]"},{"internalType":"bytes32","name":"_merkleRoot","type":"bytes32"},{"internalType":"bytes32","name":"_nullifierHash","type":"bytes32"},{"internalType":"bytes","name":"_zkProof","type":"bytes"},{"internalType":"uint256","name":"_poseidonMerkleRoot","type":"uint256"},{"internalType":"uint256","name":"_epoch","type":"uint256"}],"name":"submitTeamProofZK","outputs":[{"internalType":"uint256","name":"proofId","type":"uint256"}],"stateMutability":"nonpayable","type":"function"},{"inputs":[{"internalType":"bytes32","name":"_teamId","type":"bytes32"},{"internalType":"bytes32[]","name":"_recordHashes","type":"bytes32[]"},{"internalType":"bytes32","name":"_merkleRoot","type":"bytes32"},{"internalType":"bytes32","name":"_nullifierHash","type":"bytes32"},{"internalType":"bytes","name":"_zkProof","type":"bytes"}],"name":"submitTeamProofZK","outputs":[{"internalType":"uint256","name":"proofId","type":"uint256"}],"stateMutability":"nonpayable","type":"function"},{"inputs":[{"internalType":"bytes32","name":"","type":"bytes32"}],"name":"teamExists","outputs":[{"internalType":"bool","name":"","type":"bool"}],"stateMutability":"view","type":"function"},{"inputs":[],"name":"teamProofVerifier","outputs":[{"internalType":"address","name":"","type":"address"}],"stateMutability":"view","type":"function"},{"inputs":[{"internalType":"address","name":"newOwner","type":"address"}],"name":"transferOwnership","outputs":[],"stateMutability":"nonpayable","type":"function"},{"inputs":[{"internalType":"bytes32","name":"","type":"bytes32"}],"name":"usedNullifiers","outputs":[{"internalType":"bool","name":"","type":"bool"}],"stateMutability":"view","type":"function"}],"evm":{"bytecode":{"linkReferences":{},"object":"6080346100d957601f6112bc38819003918201601f19168301916001600160401b038311848410176100de578084926020946040528339810103126100d957516001600160a01b0390818116908190036100d95733156100c05760005460018060a01b0319903382821617600055604051933391167f8be0079c531659141344cd1fd0a4f28419497f9722a3daafe3b4186f6b6457e0600080a36001541617600155600160a01b60ff60a01b1960085416176008556111c790816100f58239f35b604051631e4fbdf760e01b815260006004820152602490fd5b600080fd5b634e487b7160e01b600052604160045260246000fdfe608060408181526004908136101561001657600080fd5b600092833560e01c908163023e41b91461099b5750806312a9016e1461097e578063206137aa146109515780632b8b906c1461091457806334a1d644146108ad5780633bd561751461076d57806344ea6c69146107405780634bb34a7d146106a357806350072dd71461065f578063604a090214610624578063638371ee14610586578063715018a61461052c5780638635ca06146104fa5780638ad6fcfb146104de5780638da5cb5b146104b6578063ac99e57614610478578063addecc061461045a578063b7119a5f14610433578063c0d3f3851461040b578063c37a636b146103ef578063c3a39536146102a6578063d4b9c1291461028a578063de62201a1461026e578063ef4a949e146101ff578063f1cf7905146101d25763f2fde38b1461014257600080fd5b346101ce5760203660031901126101ce576001600160a01b038235818116939192908490036101ca57610173610a22565b83156101b457505082546001600160a01b0319811683178455167f8be0079c531659141344cd1fd0a4f28419497f9722a3daafe3b4186f6b6457e08380a380f35b51631e4fbdf760e01b8152908101849052602490fd5b8480fd5b8280fd5b8382346101fb57816003193601126101fb5760015490516001600160a01b039091168152602090f35b5080fd5b5090346101ce5760a03660031901126101ce576001600160401b036024358181116101ca5761023190369084016109c0565b91909460843591821161026b5750916020949161025461026494369084016109f5565b50506064359260443592356110eb565b9051908152f35b80fd5b8382346101fb57816003193601126101fb5760209051602a8152f35b8382346101fb57816003193601126101fb576020905160068152f35b50346101ce57806003193601126101ce578135906024356001600160401b0381116101ca576102d890369085016109c0565b93838652600360205260ff83872054166103d8576002851080156103ce575b6103b7575082855260026020528185206001810180546001600160e81b0319163368ffffffffffffffffff60a01b1916174260a01b67ffffffffffffffff60a01b1617600160e01b179055855b8581106103945750505060ff9082855260036020528085206001831982541617905551921682527fd51f1ea8e0b03f99b94c0bdb936c2fc4683c160bf64b58e5fbc3ccbe4c20f9ca60203393a380f35b806103ad6103a66103b2938987610a73565b3584610ab1565b610a4e565b610344565b825163ef2e255d60e01b8152908101859052602490fd5b50600685116102f7565b825163f7bd25cb60e01b8152908101849052602490fd5b8382346101fb57816003193601126101fb576020905160288152f35b5090346101ce5760203660031901126101ce5760209282913581526006845220549051908152f35b8382346101fb57816003193601126101fb5760209060ff60085460a01c1690519015158152f35b5090346101ce57826003193601126101ce5760209250549051908152f35b5050346101fb5760203660031901126101fb57358015158091036101fb576008805460ff60a01b191660a09290921b60ff60a01b1691909117905580f35b8382346101fb57816003193601126101fb57905490516001600160a01b039091168152602090f35b8382346101fb57816003193601126101fb576020905160028152f35b5090346101ce5760e03660031901126101ce576001600160401b036024358181116101ca5761023190369084016109c0565b833461026b578060031936011261026b57610545610a22565b80546001600160a01b03198116825581906001600160a01b03167f8be0079c531659141344cd1fd0a4f28419497f9722a3daafe3b4186f6b6457e08280a380f35b50913461026b57602091826003193601126101fb5792919235815260068352818120908251808584549182815201908194845286842090845b81811061061057505050816105d5910382610b1f565b83519485948186019282875251809352850193925b8281106105f957505050500390f35b8351855286955093810193928101926001016105ea565b8254845292880192600192830192016105bf565b8382346101fb57816003193601126101fb57602090517f22c53f333828936b9047d0d278f0624190302e02696fa9aa397835bd5b74bbd18152f35b50823461026b57606036600319011261026b57602435906001600160401b03821161026b575060209261069861026492369083016109c0565b906044359235610b40565b509190346101fb57602090816003193601126101ce5791909135815260028252828120926001926106d7848601549561109a565b92825194608086016080875285518091528360a088019601925b81811061072d576001600160a01b0389168589015260a089901c6001600160401b03168689015260e089901c60ff161515606089015287870388f35b83518752958401959284019282016106f1565b5090346101ce5760203660031901126101ce578160209360ff923581526003855220541690519015158152f35b50913461026b57602091826003193601126101fb578160c0859493955161079381610b04565b82815282858201526060868201528260608201528260808201528260a08201520152358352600581528183208251926107cb84610b04565b81548452600191828101549484810195865260036107eb6002840161109a565b92848301938452015493606082019760ff86168952608083019160ff8760081c161515835260a08401936001600160401b0395868960101c16865260c082019760018060a01b03809a60501c16895280519b8b8d528c8c6101008201955191015251908c0152519860e060608c01528951809252806101208c019a01935b82811061089a57505050505060ff87985116608088015251151560a0870152511660c0850152511660e08301520390f35b84518b5299810199938101938301610869565b5050346101fb5760203660031901126101fb57356001600160a01b038116908190036101fb576108db610a22565b600880546001600160a01b031916821790557fba20270f1db7d5ba92574e021388b3ed01069a5c039d928a0f6343c565e4059e8280a280f35b50823461026b57602036600319011261026b578235906001600160401b03821161026b575061094b602093610264923691016109c0565b90610ea2565b5090346101ce5760203660031901126101ce578160209360ff923581526007855220541690519015158152f35b8382346101fb57816003193601126101fb57602090516101008152f35b8490346101fb57816003193601126101fb576008546001600160a01b03168152602090f35b9181601f840112156109f0578235916001600160401b0383116109f0576020808501948460051b0101116109f057565b600080fd5b9181601f840112156109f0578235916001600160401b0383116109f057602083818601950101116109f057565b6000546001600160a01b03163303610a3657565b60405163118cdaa760e01b8152336004820152602490fd5b6000198114610a5d5760010190565b634e487b7160e01b600052601160045260246000fd5b9190811015610a835760051b0190565b634e487b7160e01b600052603260045260246000fd5b8054821015610a835760005260206000200190600090565b805490600160401b821015610aee5781610ad3916001610aea94018155610a99565b819391549060031b91821b91600019901b19161790565b9055565b634e487b7160e01b600052604160045260246000fd5b60e081019081106001600160401b03821117610aee57604052565b90601f801991011681019081106001600160401b03821117610aee57604052565b90939260008281526020936003855260ff9460409286848220541615610e5f578581526002825283812087600182015460e01c1615610e475754808403610e2a57506001546001600160a01b0316815b848110610ce6575050610ba3838a610ea2565b858103610cc957506004549698610bb988610a4e565b600455878252600583528482208781556001810187905560038101805462010000600160f01b031961ffff19919091169c87169c8d1761010017164260101b69ffffffffffffffff000016173360501b600160501b600160f01b031617905597998a989094600290910190835b818110610cab575050505085815260068252838120805491600160401b831015610c9757509260019288610c87610ad3857f6faf02f204baeaaf295439e5483b112c706763054453bed74b5d8647e82ca55b9a988860609b98018155610a99565b90558251948552840152820152a3565b634e487b7160e01b81526041600452602490fd5b806103ad610cbd610cc4938588610a73565b3585610ab1565b610c26565b604490868651916327c4ed9760e21b835260048301526024820152fd5b610cf181868d610a73565b865163488dbfad60e01b8152903560048083018290529160249087818381895afa908115610dd6578791610df4575b5015610de057885163cd68a83160e01b815283810183905287818381895afa908115610dd657908d918891610d98575b501691602883101580610d8d575b610d745750505050610d6f90610a4e565b610b90565b895163379a771360e21b81529384015282015260449150fd5b50602a831115610d5e565b809250898092503d8311610dcf575b610db18183610b1f565b81010312610dcb57518c81168103610dcb578c9038610d50565b8680fd5b503d610da7565b8a513d89823e3d90fd5b9250875191632047f23560e21b8352820152fd5b90508781813d8311610e23575b610e0b8183610b1f565b81010312610dcb57518015158103610dcb5738610d20565b503d610e01565b60449084865191634c1eb76960e11b835260048301526024820152fd5b845163b79eacfb60e01b815260048101889052602490fd5b8351630760a05360e31b815260048101879052602490fd5b6001600160401b038111610aee5760051b60200190565b8051821015610a835760209160051b010190565b908060019182811461108e57610eb781610e77565b92604092610ec784519586610b1f565b828552610ed383610e77565b9560209384870197601f190136893760005b81811061106f5750505081805b610fc7575b505b818111610f0e57505050505115610a83575190565b818101808211610a5d57821c9060005b828110610f2c575050610ef9565b80841b9080820460021481151715610a5d5784820191828111610a5d5783831015610fad57610f5e610f66918a610e8e565b519289610e8e565b51918751928784019182528884015287835260608301928084106001600160401b03851117610aee57610fa8938952519020610fa2828a610e8e565b52610a4e565b610f1e565b610fa89250610fbc9089610e8e565b51610fa2828a610e8e565b855181101561106a578281610fdd829389610e8e565b5181935b610ffa575b610fa2610ff493948a610e8e565b90610ef2565b915091801585811580611049575b1561103e5750600019820191808311610a5d57611030611028848c610e8e565b51918b610e8e565b52610a5d5791849182610fe1565b929050929092610fe6565b50506000198201828111610a5d578361106388928c610e8e565b5111611008565b610ef7565b8061107e611089928486610a73565b35610fa2828b610e8e565b610ee5565b91505015610a83573590565b9060405191828154918282526020928383019160005283600020936000905b8282106110d1575050506110cf92500383610b1f565b565b8554845260019586019588955093810193909101906110b9565b91949380600052600760205260409160ff83600020541661117a5760ff60085460a01c1615611169579061115b85887f5fde3eefb6947171e166b973c9376f8f26046d6be28db64b8819df9fda8ea80d959484600052600760205285600020600160ff1982541617905587610b40565b9682519182526020820152a3565b82516303b2487b60e11b8152600490fd5b506024915190632920f74160e21b82526004820152fdfea26469706673582212203d62ec85e5e789f863b5046460bbba6dccac84b4a9fd84deec2d5ce896b49e4c64736f6c63430008140033","opcodes":"PUSH1 0x80 CALLVALUE PUSH2 0xD9 JUMPI PUSH1 0x1F PUSH2 0x12BC CODESIZE DUP2 SWAP1 SUB SWAP2 DUP3 ADD PUSH1 0x1F NOT AND DUP4 ADD SWAP2 PUSH1 0x1 PUSH1 0x1 PUSH1 0x40 SHL SUB DUP4 GT DUP5 DUP5 LT OR PUSH2 0xDE JUMPI DUP1 DUP5 SWAP3 PUSH1 0x20 SWAP5 PUSH1 0x40 MSTORE DUP4 CODECOPY DUP2 ADD SUB SLT PUSH2 0xD9 JUMPI MLOAD PUSH1 0x1 PUSH1 0x1 PUSH1 0xA0 SHL SUB SWAP1 DUP2 DUP2 AND SWAP1 DUP2 SWAP1 SUB PUSH2 0xD9 JUMPI CALLER ISZERO PUSH2 0xC0 JUMPI PUSH1 0x0 SLOAD PUSH1 0x1 DUP1 PUSH1 0xA0 SHL SUB NOT SWAP1 CALLER DUP3 DUP3 AND OR PUSH1 0x0 SSTORE PUSH1 0x40 MLOAD SWAP4 CALLER SWAP2 AND PUSH32 0x8BE0079C531659141344CD1FD0A4F28419497F9722A3DAAFE3B4186F6B6457E0 PUSH1 0x0 DUP1 LOG3 PUSH1 0x1 SLOAD AND OR PUSH1 0x1 SSTORE PUSH1 0x1 PUSH1 0xA0 SHL PUSH1 0xFF PUSH1 0xA0 SHL NOT PUSH1 0x8 SLOAD AND OR PUSH1 0x8 SSTORE PUSH2 0x11C7 SWAP1 DUP2 PUSH2 0xF5 DUP3 CODECOPY RETURN JUMPDEST PUSH1 0x40 MLOAD PUSH4 0x1E4FBDF7 PUSH1 0xE0 SHL DUP2 MSTORE PUSH1 0x0 PUSH1 0x4 DUP3 ADD MSTORE PUSH1 0x24 SWAP1 REVERT JUMPDEST PUSH1 0x0 DUP1 REVERT JUMPDEST PUSH4 0x4E487B71 PUSH1 0xE0 SHL PUSH1 0x0 MSTORE PUSH1 0x41 PUSH1 0x4 MSTORE PUSH1 0x24 PUSH1 0x0 REVERT INVALID PUSH1 0x80 PUSH1 0x40 DUP2 DUP2 MSTORE PUSH1 0x4 SWAP1 DUP2 CALLDATASIZE LT ISZERO PUSH2 0x16 JUMPI PUSH1 0x0 DUP1 REVERT JUMPDEST PUSH1 0x0 SWAP3 DUP4 CALLDATALOAD PUSH1 0xE0 SHR SWAP1 DUP2 PUSH4 0x23E41B9 EQ PUSH2 0x99B JUMPI POP DUP1 PUSH4 0x12A9016E EQ PUSH2 0x97E JUMPI DUP1 PUSH4 0x206137AA EQ PUSH2 0x951 JUMPI DUP1 PUSH4 0x2B8B906C EQ PUSH2 0x914 JUMPI DUP1 PUSH4 0x34A1D644 EQ PUSH2 0x8AD JUMPI DUP1 PUSH4 0x3BD56175 EQ PUSH2 0x76D JUMPI DUP1 PUSH4 0x44EA6C69 EQ PUSH2 0x740 JUMPI DUP1 PUSH4 0x4BB34A7D EQ PUSH2 0x6A3 JUMPI DUP1 PUSH4 0x50072DD7 EQ PUSH2 0x65F JUMPI DUP1 PUSH4 0x604A0902 EQ PUSH2 0x624 JUMPI DUP1 PUSH4 0x638371EE EQ PUSH2 0x586 JUMPI DUP1 PUSH4 0x715018A6 EQ PUSH2 0x52C JUMPI DUP1 PUSH4 0x8635CA06 EQ PUSH2 0x4FA JUMPI DUP1 PUSH4 0x8AD6FCFB EQ PUSH2 0x4DE JUMPI DUP1 PUSH4 0x8DA5CB5B EQ PUSH2 0x4B6 JUMPI DUP1 PUSH4 0xAC99E576 EQ PUSH2 0x478 JUMPI DUP1 PUSH4 0xADDECC06 EQ PUSH2 0x45A JUMPI DUP1 PUSH4 0xB7119A5F EQ PUSH2 0x433 JUMPI DUP1 PUSH4 0xC0D3F385 EQ PUSH2 0x40B JUMPI DUP1 PUSH4 0xC37A636B EQ PUSH2 0x3EF JUMPI DUP1 PUSH4 0xC3A39536 EQ PUSH2 0x2A6 JUMPI DUP1 PUSH4 0xD4B9C129 EQ PUSH2 0x28A JUMPI DUP1 PUSH4 0xDE62201A EQ PUSH2 0x26E JUMPI DUP1 PUSH4 0xEF4A949E EQ PUSH2 0x1FF JUMPI DUP1 PUSH4 0xF1CF7905 EQ PUSH2 0x1D2 JUMPI PUSH4 0xF2FDE38B EQ PUSH2 0x142 JUMPI PUSH1 0x0 DUP1 REVERT JUMPDEST CALLVALUE PUSH2 0x1CE JUMPI PUSH1 0x20 CALLDATASIZE PUSH1 0x3 NOT ADD SLT PUSH2 0x1CE JUMPI PUSH1 0x1 PUSH1 0x1 PUSH1 0xA0 SHL SUB DUP3 CALLDATALOAD DUP2 DUP2 AND SWAP4 SWAP2 SWAP3 SWAP1 DUP5 SWAP1 SUB PUSH2 0x1CA JUMPI PUSH2 0x173 PUSH2 0xA22 JUMP JUMPDEST DUP4 ISZERO PUSH2 0x1B4 JUMPI POP POP DUP3 SLOAD PUSH1 0x1 PUSH1 0x1 PUSH1 0xA0 SHL SUB NOT DUP2 AND DUP4 OR DUP5 SSTORE AND PUSH32 0x8BE0079C531659141344CD1FD0A4F28419497F9722A3DAAFE3B4186F6B6457E0 DUP4 DUP1 LOG3 DUP1 RETURN JUMPDEST MLOAD PUSH4 0x1E4FBDF7 PUSH1 0xE0 SHL DUP2 MSTORE SWAP1 DUP2 ADD DUP5 SWAP1 MSTORE PUSH1 0x24 SWAP1 REVERT JUMPDEST DUP5 DUP1 REVERT JUMPDEST DUP3 DUP1 REVERT JUMPDEST DUP4 DUP3 CALLVALUE PUSH2 0x1FB JUMPI DUP2 PUSH1 0x3 NOT CALLDATASIZE ADD SLT PUSH2 0x1FB JUMPI PUSH1 0x1 SLOAD SWAP1 MLOAD PUSH1 0x1 PUSH1 0x1 PUSH1 0xA0 SHL SUB SWAP1 SWAP2 AND DUP2 MSTORE PUSH1 0x20 SWAP1 RETURN JUMPDEST POP DUP1 REVERT JUMPDEST POP SWAP1 CALLVALUE PUSH2 0x1CE JUMPI PUSH1 0xA0 CALLDATASIZE PUSH1 0x3 NOT ADD SLT PUSH2 0x1CE JUMPI PUSH1 0x1 PUSH1 0x1 PUSH1 0x40 SHL SUB PUSH1 0x24 CALLDATALOAD DUP2 DUP2 GT PUSH2 0x1CA JUMPI PUSH2 0x231 SWAP1 CALLDATASIZE SWAP1 DUP5 ADD PUSH2 0x9C0 JUMP JUMPDEST SWAP2 SWAP1 SWAP5 PUSH1 0x84 CALLDATALOAD SWAP2 DUP3 GT PUSH2 0x26B JUMPI POP SWAP2 PUSH1 0x20 SWAP5 SWAP2 PUSH2 0x254 PUSH2 0x264 SWAP5 CALLDATASIZE SWAP1 DUP5 ADD PUSH2 0x9F5 JUMP JUMPDEST POP POP PUSH1 0x64 CALLDATALOAD SWAP3 PUSH1 0x44 CALLDATALOAD SWAP3 CALLDATALOAD PUSH2 0x10EB JUMP JUMPDEST SWAP1 MLOAD SWAP1 DUP2 MSTORE RETURN JUMPDEST DUP1 REVERT JUMPDEST DUP4 DUP3 CALLVALUE PUSH2 0x1FB JUMPI DUP2 PUSH1 0x3 NOT CALLDATASIZE ADD SLT PUSH2 0x1FB JUMPI PUSH1 0x20 SWAP1 MLOAD PUSH1 0x2A DUP2 MSTORE RETURN JUMPDEST DUP4 DUP3 CALLVALUE PUSH2 0x1FB JUMPI DUP2 PUSH1 0x3 NOT CALLDATASIZE ADD SLT PUSH2 0x1FB JUMPI PUSH1 0x20 SWAP1 MLOAD PUSH1 0x6 DUP2 MSTORE RETURN JUMPDEST POP CALLVALUE PUSH2 0x1CE JUMPI DUP1 PUSH1 0x3 NOT CALLDATASIZE ADD SLT PUSH2 0x1CE JUMPI DUP2 CALLDATALOAD SWAP1 PUSH1 0x24 CALLDATALOAD PUSH1 0x1 PUSH1 0x1 PUSH1 0x40 SHL SUB DUP2 GT PUSH2 0x1CA JUMPI PUSH2 0x2D8 SWAP1 CALLDATASIZE SWAP1 DUP6 ADD PUSH2 0x9C0 JUMP JUMPDEST SWAP4 DUP4 DUP7 MSTORE PUSH1 0x3 PUSH1 0x20 MSTORE PUSH1 0xFF DUP4 DUP8 KECCAK256 SLOAD AND PUSH2 0x3D8 JUMPI PUSH1 0x2 DUP6 LT DUP1 ISZERO PUSH2 0x3CE JUMPI JUMPDEST PUSH2 0x3B7 JUMPI POP DUP3 DUP6 MSTORE PUSH1 0x2 PUSH1 0x20 MSTORE DUP2 DUP6 KECCAK256 PUSH1 0x1 DUP2 ADD DUP1 SLOAD PUSH1 0x1 PUSH1 0x1 PUSH1 0xE8 SHL SUB NOT AND CALLER PUSH9 0xFFFFFFFFFFFFFFFFFF PUSH1 0xA0 SHL NOT AND OR TIMESTAMP PUSH1 0xA0 SHL PUSH8 0xFFFFFFFFFFFFFFFF PUSH1 0xA0 SHL AND OR PUSH1 0x1 PUSH1 0xE0 SHL OR SWAP1 SSTORE DUP6 JUMPDEST DUP6 DUP2 LT PUSH2 0x394 JUMPI POP POP POP PUSH1 0xFF SWAP1 DUP3 DUP6 MSTORE PUSH1 0x3 PUSH1 0x20 MSTORE DUP1 DUP6 KECCAK256 PUSH1 0x1 DUP4 NOT DUP3 SLOAD AND OR SWAP1 SSTORE MLOAD SWAP3 AND DUP3 MSTORE PUSH32 0xD51F1EA8E0B03F99B94C0BDB936C2FC4683C160BF64B58E5FBC3CCBE4C20F9CA PUSH1 0x20 CALLER SWAP4 LOG3 DUP1 RETURN JUMPDEST DUP1 PUSH2 0x3AD PUSH2 0x3A6 PUSH2 0x3B2 SWAP4 DUP10 DUP8 PUSH2 0xA73 JUMP JUMPDEST CALLDATALOAD DUP5 PUSH2 0xAB1 JUMP JUMPDEST PUSH2 0xA4E JUMP JUMPDEST PUSH2 0x344 JUMP JUMPDEST DUP3 MLOAD PUSH4 0xEF2E255D PUSH1 0xE0 SHL DUP2 MSTORE SWAP1 DUP2 ADD DUP6 SWAP1 MSTORE PUSH1 0x24 SWAP1 REVERT JUMPDEST POP PUSH1 0x6 DUP6 GT PUSH2 0x2F7 JUMP JUMPDEST DUP3 MLOAD PUSH4 0xF7BD25CB PUSH1 0xE0 SHL DUP2 MSTORE SWAP1 DUP2 ADD DUP5 SWAP1 MSTORE PUSH1 0x24 SWAP1 REVERT JUMPDEST DUP4 DUP3 CALLVALUE PUSH2 0x1FB JUMPI DUP2 PUSH1 0x3 NOT CALLDATASIZE ADD SLT PUSH2 0x1FB JUMPI PUSH1 0x20 SWAP1 MLOAD PUSH1 0x28 DUP2 MSTORE RETURN JUMPDEST POP SWAP1 CALLVALUE PUSH2 0x1CE JUMPI PUSH1 0x20 CALLDATASIZE PUSH1 0x3 NOT ADD SLT PUSH2 0x1CE JUMPI PUSH1 0x20 SWAP3 DUP3 SWAP2 CALLDATALOAD DUP2 MSTORE PUSH1 0x6 DUP5 MSTORE KECCAK256 SLOAD SWAP1 MLOAD SWAP1 DUP2 MSTORE RETURN JUMPDEST DUP4 DUP3 CALLVALUE PUSH2 0x1FB JUMPI DUP2 PUSH1 0x3 NOT CALLDATASIZE ADD SLT PUSH2 0x1FB JUMPI PUSH1 0x20 SWAP1 PUSH1 0xFF PUSH1 0x8 SLOAD PUSH1 0xA0 SHR AND SWAP1 MLOAD SWAP1 ISZERO ISZERO DUP2 MSTORE RETURN JUMPDEST POP SWAP1 CALLVALUE PUSH2 0x1CE JUMPI DUP3 PUSH1 0x3 NOT CALLDATASIZE ADD SLT PUSH2 0x1CE JUMPI PUSH1 0x20 SWAP3 POP SLOAD SWAP1 MLOAD SWAP1 DUP2 MSTORE RETURN JUMPDEST POP POP CALLVALUE PUSH2 0x1FB JUMPI PUSH1 0x20 CALLDATASIZE PUSH1 0x3 NOT ADD SLT PUSH2 0x1FB JUMPI CALLDATALOAD DUP1 ISZERO ISZERO DUP1 SWAP2 SUB PUSH2 0x1FB JUMPI PUSH1 0x8 DUP1 SLOAD PUSH1 0xFF PUSH1 0xA0 SHL NOT AND PUSH1 0xA0 SWAP3 SWAP1 SWAP3 SHL PUSH1 0xFF PUSH1 0xA0 SHL AND SWAP2 SWAP1 SWAP2 OR SWAP1 SSTORE DUP1 RETURN JUMPDEST DUP4 DUP3 CALLVALUE PUSH2 0x1FB JUMPI DUP2 PUSH1 0x3 NOT CALLDATASIZE ADD SLT PUSH2 0x1FB JUMPI SWAP1 SLOAD SWAP1 MLOAD PUSH1 0x1 PUSH1 0x1 PUSH1 0xA0 SHL SUB SWAP1 SWAP2 AND DUP2 MSTORE PUSH1 0x20 SWAP1 RETURN JUMPDEST DUP4 DUP3 CALLVALUE PUSH2 0x1FB JUMPI DUP2 PUSH1 0x3 NOT CALLDATASIZE ADD SLT PUSH2 0x1FB JUMPI PUSH1 0x20 SWAP1 MLOAD PUSH1 0x2 DUP2 MSTORE RETURN JUMPDEST POP SWAP1 CALLVALUE PUSH2 0x1CE JUMPI PUSH1 0xE0 CALLDATASIZE PUSH1 0x3 NOT ADD SLT PUSH2 0x1CE JUMPI PUSH1 0x1 PUSH1 0x1 PUSH1 0x40 SHL SUB PUSH1 0x24 CALLDATALOAD DUP2 DUP2 GT PUSH2 0x1CA JUMPI PUSH2 0x231 SWAP1 CALLDATASIZE SWAP1 DUP5 ADD PUSH2 0x9C0 JUMP JUMPDEST DUP4 CALLVALUE PUSH2 0x26B JUMPI DUP1 PUSH1 0x3 NOT CALLDATASIZE ADD SLT PUSH2 0x26B JUMPI PUSH2 0x545 PUSH2 0xA22 JUMP JUMPDEST DUP1 SLOAD PUSH1 0x1 PUSH1 0x1 PUSH1 0xA0 SHL SUB NOT DUP2 AND DUP3 SSTORE DUP2 SWAP1 PUSH1 0x1 PUSH1 0x1 PUSH1 0xA0 SHL SUB AND PUSH32 0x8BE0079C531659141344CD1FD0A4F28419497F9722A3DAAFE3B4186F6B6457E0 DUP3 DUP1 LOG3 DUP1 RETURN JUMPDEST POP SWAP2 CALLVALUE PUSH2 0x26B JUMPI PUSH1 0x20 SWAP2 DUP3 PUSH1 0x3 NOT CALLDATASIZE ADD SLT PUSH2 0x1FB JUMPI SWAP3 SWAP2 SWAP3 CALLDATALOAD DUP2 MSTORE PUSH1 0x6 DUP4 MSTORE DUP2 DUP2 KECCAK256 SWAP1 DUP3 MLOAD DUP1 DUP6 DUP5 SLOAD SWAP2 DUP3 DUP2 MSTORE ADD SWAP1 DUP2 SWAP5 DUP5 MSTORE DUP7 DUP5 KECCAK256 SWAP1 DUP5 JUMPDEST DUP2 DUP2 LT PUSH2 0x610 JUMPI POP POP POP DUP2 PUSH2 0x5D5 SWAP2 SUB DUP3 PUSH2 0xB1F JUMP JUMPDEST DUP4 MLOAD SWAP5 DUP6 SWAP5 DUP2 DUP7 ADD SWAP3 DUP3 DUP8 MSTORE MLOAD DUP1 SWAP4 MSTORE DUP6 ADD SWAP4 SWAP3 JUMPDEST DUP3 DUP2 LT PUSH2 0x5F9 JUMPI POP POP POP POP SUB SWAP1 RETURN JUMPDEST DUP4 MLOAD DUP6 MSTORE DUP7 SWAP6 POP SWAP4 DUP2 ADD SWAP4 SWAP3 DUP2 ADD SWAP3 PUSH1 0x1 ADD PUSH2 0x5EA JUMP JUMPDEST DUP3 SLOAD DUP5 MSTORE SWAP3 DUP9 ADD SWAP3 PUSH1 0x1 SWAP3 DUP4 ADD SWAP3 ADD PUSH2 0x5BF JUMP JUMPDEST DUP4 DUP3 CALLVALUE PUSH2 0x1FB JUMPI DUP2 PUSH1 0x3 NOT CALLDATASIZE ADD SLT PUSH2 0x1FB JUMPI PUSH1 0x20 SWAP1 MLOAD PUSH32 0x22C53F333828936B9047D0D278F0624190302E02696FA9AA397835BD5B74BBD1 DUP2 MSTORE RETURN JUMPDEST POP DUP3 CALLVALUE PUSH2 0x26B JUMPI PUSH1 0x60 CALLDATASIZE PUSH1 0x3 NOT ADD SLT PUSH2 0x26B JUMPI PUSH1 0x24 CALLDATALOAD SWAP1 PUSH1 0x1 PUSH1 0x1 PUSH1 0x40 SHL SUB DUP3 GT PUSH2 0x26B JUMPI POP PUSH1 0x20 SWAP3 PUSH2 0x698 PUSH2 0x264 SWAP3 CALLDATASIZE SWAP1 DUP4 ADD PUSH2 0x9C0 JUMP JUMPDEST SWAP1 PUSH1 0x44 CALLDATALOAD SWAP3 CALLDATALOAD PUSH2 0xB40 JUMP JUMPDEST POP SWAP2 SWAP1 CALLVALUE PUSH2 0x1FB JUMPI PUSH1 0x20 SWAP1 DUP2 PUSH1 0x3 NOT CALLDATASIZE ADD SLT PUSH2 0x1CE JUMPI SWAP2 SWAP1 SWAP2 CALLDATALOAD DUP2 MSTORE PUSH1 0x2 DUP3 MSTORE DUP3 DUP2 KECCAK256 SWAP3 PUSH1 0x1 SWAP3 PUSH2 0x6D7 DUP5 DUP7 ADD SLOAD SWAP6 PUSH2 0x109A JUMP JUMPDEST SWAP3 DUP3 MLOAD SWAP5 PUSH1 0x80 DUP7 ADD PUSH1 0x80 DUP8 MSTORE DUP6 MLOAD DUP1 SWAP2 MSTORE DUP4 PUSH1 0xA0 DUP9 ADD SWAP7 ADD SWAP3 JUMPDEST DUP2 DUP2 LT PUSH2 0x72D JUMPI PUSH1 0x1 PUSH1 0x1 PUSH1 0xA0 SHL SUB DUP10 AND DUP6 DUP10 ADD MSTORE PUSH1 0xA0 DUP10 SWAP1 SHR PUSH1 0x1 PUSH1 0x1 PUSH1 0x40 SHL SUB AND DUP7 DUP10 ADD MSTORE PUSH1 0xE0 DUP10 SWAP1 SHR PUSH1 0xFF AND ISZERO ISZERO PUSH1 0x60 DUP10 ADD MSTORE DUP8 DUP8 SUB DUP9 RETURN JUMPDEST DUP4 MLOAD DUP8 MSTORE SWAP6 DUP5 ADD SWAP6 SWAP3 DUP5 ADD SWAP3 DUP3 ADD PUSH2 0x6F1 JUMP JUMPDEST POP SWAP1 CALLVALUE PUSH2 0x1CE JUMPI PUSH1 0x20 CALLDATASIZE PUSH1 0x3 NOT ADD SLT PUSH2 0x1CE JUMPI DUP2 PUSH1 0x20 SWAP4 PUSH1 0xFF SWAP3 CALLDATALOAD DUP2 MSTORE PUSH1 0x3 DUP6 MSTORE KECCAK256 SLOAD AND SWAP1 MLOAD SWAP1 ISZERO ISZERO DUP2 MSTORE RETURN JUMPDEST POP SWAP2 CALLVALUE PUSH2 0x26B JUMPI PUSH1 0x20 SWAP2 DUP3 PUSH1 0x3 NOT CALLDATASIZE ADD SLT PUSH2 0x1FB JUMPI DUP2 PUSH1 0xC0 DUP6 SWAP5 SWAP4 SWAP6 MLOAD PUSH2 0x793 DUP2 PUSH2 0xB04 JUMP JUMPDEST DUP3 DUP2 MSTORE DUP3 DUP6 DUP3 ADD MSTORE PUSH1 0x60 DUP7 DUP3 ADD MSTORE DUP3 PUSH1 0x60 DUP3 ADD MSTORE DUP3 PUSH1 0x80 DUP3 ADD MSTORE DUP3 PUSH1 0xA0 DUP3 ADD MSTORE ADD MSTORE CALLDATALOAD DUP4 MSTORE PUSH1 0x5 DUP2 MSTORE DUP2 DUP4 KECCAK256 DUP3 MLOAD SWAP3 PUSH2 0x7CB DUP5 PUSH2 0xB04 JUMP JUMPDEST DUP2 SLOAD DUP5 MSTORE PUSH1 0x1 SWAP2 DUP3 DUP2 ADD SLOAD SWAP5 DUP5 DUP2 ADD SWAP6 DUP7 MSTORE PUSH1 0x3 PUSH2 0x7EB PUSH1 0x2 DUP5 ADD PUSH2 0x109A JUMP JUMPDEST SWAP3 DUP5 DUP4 ADD SWAP4 DUP5 MSTORE ADD SLOAD SWAP4 PUSH1 0x60 DUP3 ADD SWAP8 PUSH1 0xFF DUP7 AND DUP10 MSTORE PUSH1 0x80 DUP4 ADD SWAP2 PUSH1 0xFF DUP8 PUSH1 0x8 SHR AND ISZERO ISZERO DUP4 MSTORE PUSH1 0xA0 DUP5 ADD SWAP4 PUSH1 0x1 PUSH1 0x1 PUSH1 0x40 SHL SUB SWAP6 DUP7 DUP10 PUSH1 0x10 SHR AND DUP7 MSTORE PUSH1 0xC0 DUP3 ADD SWAP8 PUSH1 0x1 DUP1 PUSH1 0xA0 SHL SUB DUP1 SWAP11 PUSH1 0x50 SHR AND DUP10 MSTORE DUP1 MLOAD SWAP12 DUP12 DUP14 MSTORE DUP13 DUP13 PUSH2 0x100 DUP3 ADD SWAP6 MLOAD SWAP2 ADD MSTORE MLOAD SWAP1 DUP13 ADD MSTORE MLOAD SWAP9 PUSH1 0xE0 PUSH1 0x60 DUP13 ADD MSTORE DUP10 MLOAD DUP1 SWAP3 MSTORE DUP1 PUSH2 0x120 DUP13 ADD SWAP11 ADD SWAP4 JUMPDEST DUP3 DUP2 LT PUSH2 0x89A JUMPI POP POP POP POP POP PUSH1 0xFF DUP8 SWAP9 MLOAD AND PUSH1 0x80 DUP9 ADD MSTORE MLOAD ISZERO ISZERO PUSH1 0xA0 DUP8 ADD MSTORE MLOAD AND PUSH1 0xC0 DUP6 ADD MSTORE MLOAD AND PUSH1 0xE0 DUP4 ADD MSTORE SUB SWAP1 RETURN JUMPDEST DUP5 MLOAD DUP12 MSTORE SWAP10 DUP2 ADD SWAP10 SWAP4 DUP2 ADD SWAP4 DUP4 ADD PUSH2 0x869 JUMP JUMPDEST POP POP CALLVALUE PUSH2 0x1FB JUMPI PUSH1 0x20 CALLDATASIZE PUSH1 0x3 NOT ADD SLT PUSH2 0x1FB JUMPI CALLDATALOAD PUSH1 0x1 PUSH1 0x1 PUSH1 0xA0 SHL SUB DUP2 AND SWAP1 DUP2 SWAP1 SUB PUSH2 0x1FB JUMPI PUSH2 0x8DB PUSH2 0xA22 JUMP JUMPDEST PUSH1 0x8 DUP1 SLOAD PUSH1 0x1 PUSH1 0x1 PUSH1 0xA0 SHL SUB NOT AND DUP3 OR SWAP1 SSTORE PUSH32 0xBA20270F1DB7D5BA92574E021388B3ED01069A5C039D928A0F6343C565E4059E DUP3 DUP1 LOG2 DUP1 RETURN JUMPDEST POP DUP3 CALLVALUE PUSH2 0x26B JUMPI PUSH1 0x20 CALLDATASIZE PUSH1 0x3 NOT ADD SLT PUSH2 0x26B JUMPI DUP3 CALLDATALOAD SWAP1 PUSH1 0x1 PUSH1 0x1 PUSH1 0x40 SHL SUB DUP3 GT PUSH2 0x26B JUMPI POP PUSH2 0x94B PUSH1 0x20 SWAP4 PUSH2 0x264 SWAP3 CALLDATASIZE SWAP2 ADD PUSH2 0x9C0 JUMP JUMPDEST SWAP1 PUSH2 0xEA2 JUMP JUMPDEST POP SWAP1 CALLVALUE PUSH2 0x1CE JUMPI PUSH1 0x20 CALLDATASIZE PUSH1 0x3 NOT ADD SLT PUSH2 0x1CE JUMPI DUP2 PUSH1 0x20 SWAP4 PUSH1 0xFF SWAP3 CALLDATALOAD DUP2 MSTORE PUSH1 0x7 DUP6 MSTORE KECCAK256 SLOAD AND SWAP1 MLOAD SWAP1 ISZERO ISZERO DUP2 MSTORE RETURN JUMPDEST DUP4 DUP3 CALLVALUE PUSH2 0x1FB JUMPI DUP2 PUSH1 0x3 NOT CALLDATASIZE ADD SLT PUSH2 0x1FB JUMPI PUSH1 0x20 SWAP1 MLOAD PUSH2 0x100 DUP2 MSTORE RETURN JUMPDEST DUP5 SWAP1 CALLVALUE PUSH2 0x1FB JUMPI DUP2 PUSH1 0x3 NOT CALLDATASIZE ADD SLT PUSH2 0x1FB JUMPI PUSH1 0x8 SLOAD PUSH1 0x1 PUSH1 0x1 PUSH1 0xA0 SHL SUB AND DUP2 MSTORE PUSH1 0x20 SWAP1 RETURN JUMPDEST SWAP2 DUP2 PUSH1 0x1F DUP5 ADD SLT ISZERO PUSH2 0x9F0 JUMPI DUP3 CALLDATALOAD SWAP2 PUSH1 0x1 PUSH1 0x1 PUSH1 0x40 SHL SUB DUP4 GT PUSH2 0x9F0 JUMPI PUSH1 0x20 DUP1 DUP6 ADD SWAP5 DUP5 PUSH1 0x5 SHL ADD ADD GT PUSH2 0x9F0 JUMPI JUMP JUMPDEST PUSH1 0x0 DUP1 REVERT JUMPDEST SWAP2 DUP2 PUSH1 0x1F DUP5 ADD SLT ISZERO PUSH2 0x9F0 JUMPI DUP3 CALLDATALOAD SWAP2 PUSH1 0x1 PUSH1 0x1 PUSH1 0x40 SHL SUB DUP4 GT PUSH2 0x9F0 JUMPI PUSH1 0x20 DUP4 DUP2 DUP7 ADD SWAP6 ADD ADD GT PUSH2 0x9F0 JUMPI JUMP JUMPDEST PUSH1 0x0 SLOAD PUSH1 0x1 PUSH1 0x1 PUSH1 0xA0 SHL SUB AND CALLER SUB PUSH2 0xA36 JUMPI JUMP JUMPDEST PUSH1 0x40 MLOAD PUSH4 0x118CDAA7 PUSH1 0xE0 SHL DUP2 MSTORE CALLER PUSH1 0x4 DUP3 ADD MSTORE PUSH1 0x24 SWAP1 REVERT JUMPDEST PUSH1 0x0 NOT DUP2 EQ PUSH2 0xA5D JUMPI PUSH1 0x1 ADD SWAP1 JUMP JUMPDEST PUSH4 0x4E487B71 PUSH1 0xE0 SHL PUSH1 0x0 MSTORE PUSH1 0x11 PUSH1 0x4 MSTORE PUSH1 0x24 PUSH1 0x0 REVERT JUMPDEST SWAP2 SWAP1 DUP2 LT ISZERO PUSH2 0xA83 JUMPI PUSH1 0x5 SHL ADD SWAP1 JUMP JUMPDEST PUSH4 0x4E487B71 PUSH1 0xE0 SHL PUSH1 0x0 MSTORE PUSH1 0x32 PUSH1 0x4 MSTORE PUSH1 0x24 PUSH1 0x0 REVERT JUMPDEST DUP1 SLOAD DUP3 LT ISZERO PUSH2 0xA83 JUMPI PUSH1 0x0 MSTORE PUSH1 0x20 PUSH1 0x0 KECCAK256 ADD SWAP1 PUSH1 0x0 SWAP1 JUMP JUMPDEST DUP1 SLOAD SWAP1 PUSH1 0x1 PUSH1 0x40 SHL DUP3 LT ISZERO PUSH2 0xAEE JUMPI DUP2 PUSH2 0xAD3 SWAP2 PUSH1 0x1 PUSH2 0xAEA SWAP5 ADD DUP2 SSTORE PUSH2 0xA99 JUMP JUMPDEST DUP2 SWAP4 SWAP2 SLOAD SWAP1 PUSH1 0x3 SHL SWAP2 DUP3 SHL SWAP2 PUSH1 0x0 NOT SWAP1 SHL NOT AND OR SWAP1 JUMP JUMPDEST SWAP1 SSTORE JUMP JUMPDEST PUSH4 0x4E487B71 PUSH1 0xE0 SHL PUSH1 0x0 MSTORE PUSH1 0x41 PUSH1 0x4 MSTORE PUSH1 0x24 PUSH1 0x0 REVERT JUMPDEST PUSH1 0xE0 DUP2 ADD SWAP1 DUP2 LT PUSH1 0x1 PUSH1 0x1 PUSH1 0x40 SHL SUB DUP3 GT OR PUSH2 0xAEE JUMPI PUSH1 0x40 MSTORE JUMP JUMPDEST SWAP1 PUSH1 0x1F DUP1 NOT SWAP2 ADD AND DUP2 ADD SWAP1 DUP2 LT PUSH1 0x1 PUSH1 0x1 PUSH1 0x40 SHL SUB DUP3 GT OR PUSH2 0xAEE JUMPI PUSH1 0x40 MSTORE JUMP JUMPDEST SWAP1 SWAP4 SWAP3 PUSH1 0x0 DUP3 DUP2 MSTORE PUSH1 0x20 SWAP4 PUSH1 0x3 DUP6 MSTORE PUSH1 0xFF SWAP5 PUSH1 0x40 SWAP3 DUP7 DUP5 DUP3 KECCAK256 SLOAD AND ISZERO PUSH2 0xE5F JUMPI DUP6 DUP2 MSTORE PUSH1 0x2 DUP3 MSTORE DUP4 DUP2 KECCAK256 DUP8 PUSH1 0x1 DUP3 ADD SLOAD PUSH1 0xE0 SHR AND ISZERO PUSH2 0xE47 JUMPI SLOAD DUP1 DUP5 SUB PUSH2 0xE2A JUMPI POP PUSH1 0x1 SLOAD PUSH1 0x1 PUSH1 0x1 PUSH1 0xA0 SHL SUB AND DUP2 JUMPDEST DUP5 DUP2 LT PUSH2 0xCE6 JUMPI POP POP PUSH2 0xBA3 DUP4 DUP11 PUSH2 0xEA2 JUMP JUMPDEST DUP6 DUP2 SUB PUSH2 0xCC9 JUMPI POP PUSH1 0x4 SLOAD SWAP7 SWAP9 PUSH2 0xBB9 DUP9 PUSH2 0xA4E JUMP JUMPDEST PUSH1 0x4 SSTORE DUP8 DUP3 MSTORE PUSH1 0x5 DUP4 MSTORE DUP5 DUP3 KECCAK256 DUP8 DUP2 SSTORE PUSH1 0x1 DUP2 ADD DUP8 SWAP1 SSTORE PUSH1 0x3 DUP2 ADD DUP1 SLOAD PUSH3 0x10000 PUSH1 0x1 PUSH1 0xF0 SHL SUB NOT PUSH2 0xFFFF NOT SWAP2 SWAP1 SWAP2 AND SWAP13 DUP8 AND SWAP13 DUP14 OR PUSH2 0x100 OR AND TIMESTAMP PUSH1 0x10 SHL PUSH10 0xFFFFFFFFFFFFFFFF0000 AND OR CALLER PUSH1 0x50 SHL PUSH1 0x1 PUSH1 0x50 SHL PUSH1 0x1 PUSH1 0xF0 SHL SUB AND OR SWAP1 SSTORE SWAP8 SWAP10 DUP11 SWAP9 SWAP1 SWAP5 PUSH1 0x2 SWAP1 SWAP2 ADD SWAP1 DUP4 JUMPDEST DUP2 DUP2 LT PUSH2 0xCAB JUMPI POP POP POP POP DUP6 DUP2 MSTORE PUSH1 0x6 DUP3 MSTORE DUP4 DUP2 KECCAK256 DUP1 SLOAD SWAP2 PUSH1 0x1 PUSH1 0x40 SHL DUP4 LT ISZERO PUSH2 0xC97 JUMPI POP SWAP3 PUSH1 0x1 SWAP3 DUP9 PUSH2 0xC87 PUSH2 0xAD3 DUP6 PUSH32 0x6FAF02F204BAEAAF295439E5483B112C706763054453BED74B5D8647E82CA55B SWAP11 SWAP9 DUP9 PUSH1 0x60 SWAP12 SWAP9 ADD DUP2 SSTORE PUSH2 0xA99 JUMP JUMPDEST SWAP1 SSTORE DUP3 MLOAD SWAP5 DUP6 MSTORE DUP5 ADD MSTORE DUP3 ADD MSTORE LOG3 JUMP JUMPDEST PUSH4 0x4E487B71 PUSH1 0xE0 SHL DUP2 MSTORE PUSH1 0x41 PUSH1 0x4 MSTORE PUSH1 0x24 SWAP1 REVERT JUMPDEST DUP1 PUSH2 0x3AD PUSH2 0xCBD PUSH2 0xCC4 SWAP4 DUP6 DUP9 PUSH2 0xA73 JUMP JUMPDEST CALLDATALOAD DUP6 PUSH2 0xAB1 JUMP JUMPDEST PUSH2 0xC26 JUMP JUMPDEST PUSH1 0x44 SWAP1 DUP7 DUP7 MLOAD SWAP2 PUSH4 0x27C4ED97 PUSH1 0xE2 SHL DUP4 MSTORE PUSH1 0x4 DUP4 ADD MSTORE PUSH1 0x24 DUP3 ADD MSTORE REVERT JUMPDEST PUSH2 0xCF1 DUP2 DUP7 DUP14 PUSH2 0xA73 JUMP JUMPDEST DUP7 MLOAD PUSH4 0x488DBFAD PUSH1 0xE0 SHL DUP2 MSTORE SWAP1 CALLDATALOAD PUSH1 0x4 DUP1 DUP4 ADD DUP3 SWAP1 MSTORE SWAP2 PUSH1 0x24 SWAP1 DUP8 DUP2 DUP4 DUP2 DUP10 GAS STATICCALL SWAP1 DUP2 ISZERO PUSH2 0xDD6 JUMPI DUP8 SWAP2 PUSH2 0xDF4 JUMPI JUMPDEST POP ISZERO PUSH2 0xDE0 JUMPI DUP9 MLOAD PUSH4 0xCD68A831 PUSH1 0xE0 SHL DUP2 MSTORE DUP4 DUP2 ADD DUP4 SWAP1 MSTORE DUP8 DUP2 DUP4 DUP2 DUP10 GAS STATICCALL SWAP1 DUP2 ISZERO PUSH2 0xDD6 JUMPI SWAP1 DUP14 SWAP2 DUP9 SWAP2 PUSH2 0xD98 JUMPI JUMPDEST POP AND SWAP2 PUSH1 0x28 DUP4 LT ISZERO DUP1 PUSH2 0xD8D JUMPI JUMPDEST PUSH2 0xD74 JUMPI POP POP POP POP PUSH2 0xD6F SWAP1 PUSH2 0xA4E JUMP JUMPDEST PUSH2 0xB90 JUMP JUMPDEST DUP10 MLOAD PUSH4 0x379A7713 PUSH1 0xE2 SHL DUP2 MSTORE SWAP4 DUP5 ADD MSTORE DUP3 ADD MSTORE PUSH1 0x44 SWAP2 POP REVERT JUMPDEST POP PUSH1 0x2A DUP4 GT ISZERO PUSH2 0xD5E JUMP JUMPDEST DUP1 SWAP3 POP DUP10 DUP1 SWAP3 POP RETURNDATASIZE DUP4 GT PUSH2 0xDCF JUMPI JUMPDEST PUSH2 0xDB1 DUP2 DUP4 PUSH2 0xB1F JUMP JUMPDEST DUP2 ADD SUB SLT PUSH2 0xDCB JUMPI MLOAD DUP13 DUP2 AND DUP2 SUB PUSH2 0xDCB JUMPI DUP13 SWAP1 CODESIZE PUSH2 0xD50 JUMP JUMPDEST DUP7 DUP1 REVERT JUMPDEST POP RETURNDATASIZE PUSH2 0xDA7 JUMP JUMPDEST DUP11 MLOAD RETURNDATASIZE DUP10 DUP3 RETURNDATACOPY RETURNDATASIZE SWAP1 REVERT JUMPDEST SWAP3 POP DUP8 MLOAD SWAP2 PUSH4 0x2047F235 PUSH1 0xE2 SHL DUP4 MSTORE DUP3 ADD MSTORE REVERT JUMPDEST SWAP1 POP DUP8 DUP2 DUP2 RETURNDATASIZE DUP4 GT PUSH2 0xE23 JUMPI JUMPDEST PUSH2 0xE0B DUP2 DUP4 PUSH2 0xB1F JUMP JUMPDEST DUP2 ADD SUB SLT PUSH2 0xDCB JUMPI MLOAD DUP1 ISZERO ISZERO DUP2 SUB PUSH2 0xDCB JUMPI CODESIZE PUSH2 0xD20 JUMP JUMPDEST POP RETURNDATASIZE PUSH2 0xE01 JUMP JUMPDEST PUSH1 0x44 SWAP1 DUP5 DUP7 MLOAD SWAP2 PUSH4 0x4C1EB769 PUSH1 0xE1 SHL DUP4 MSTORE PUSH1 0x4 DUP4 ADD MSTORE PUSH1 0x24 DUP3 ADD MSTORE REVERT JUMPDEST DUP5 MLOAD PUSH4 0xB79EACFB PUSH1 0xE0 SHL DUP2 MSTORE PUSH1 0x4 DUP2 ADD DUP9 SWAP1 MSTORE PUSH1 0x24 SWAP1 REVERT JUMPDEST DUP4 MLOAD PUSH4 0x760A053 PUSH1 0xE3 SHL DUP2 MSTORE PUSH1 0x4 DUP2 ADD DUP8 SWAP1 MSTORE PUSH1 0x24 SWAP1 REVERT JUMPDEST PUSH1 0x1 PUSH1 0x1 PUSH1 0x40 SHL SUB DUP2 GT PUSH2 0xAEE JUMPI PUSH1 0x5 SHL PUSH1 0x20 ADD SWAP1 JUMP JUMPDEST DUP1 MLOAD DUP3 LT ISZERO PUSH2 0xA83 JUMPI PUSH1 0x20 SWAP2 PUSH1 0x5 SHL ADD ADD SWAP1 JUMP JUMPDEST SWAP1 DUP1 PUSH1 0x1 SWAP2 DUP3 DUP2 EQ PUSH2 0x108E JUMPI PUSH2 0xEB7 DUP2 PUSH2 0xE77 JUMP JUMPDEST SWAP3 PUSH1 0x40 SWAP3 PUSH2 0xEC7 DUP5 MLOAD SWAP6 DUP7 PUSH2 0xB1F JUMP JUMPDEST DUP3 DUP6 MSTORE PUSH2 0xED3 DUP4 PUSH2 0xE77 JUMP JUMPDEST SWAP6 PUSH1 0x20 SWAP4 DUP5 DUP8 ADD SWAP8 PUSH1 0x1F NOT ADD CALLDATASIZE DUP10 CALLDATACOPY PUSH1 0x0 JUMPDEST DUP2 DUP2 LT PUSH2 0x106F JUMPI POP POP POP DUP2 DUP1 JUMPDEST PUSH2 0xFC7 JUMPI JUMPDEST POP JUMPDEST DUP2 DUP2 GT PUSH2 0xF0E JUMPI POP POP POP POP MLOAD ISZERO PUSH2 0xA83 JUMPI MLOAD SWAP1 JUMP JUMPDEST DUP2 DUP2 ADD DUP1 DUP3 GT PUSH2 0xA5D JUMPI DUP3 SHR SWAP1 PUSH1 0x0 JUMPDEST DUP3 DUP2 LT PUSH2 0xF2C JUMPI POP POP PUSH2 0xEF9 JUMP JUMPDEST DUP1 DUP5 SHL SWAP1 DUP1 DUP3 DIV PUSH1 0x2 EQ DUP2 ISZERO OR ISZERO PUSH2 0xA5D JUMPI DUP5 DUP3 ADD SWAP2 DUP3 DUP2 GT PUSH2 0xA5D JUMPI DUP4 DUP4 LT ISZERO PUSH2 0xFAD JUMPI PUSH2 0xF5E PUSH2 0xF66 SWAP2 DUP11 PUSH2 0xE8E JUMP JUMPDEST MLOAD SWAP3 DUP10 PUSH2 0xE8E JUMP JUMPDEST MLOAD SWAP2 DUP8 MLOAD SWAP3 DUP8 DUP5 ADD SWAP2 DUP3 MSTORE DUP9 DUP5 ADD MSTORE DUP8 DUP4 MSTORE PUSH1 0x60 DUP4 ADD SWAP3 DUP1 DUP5 LT PUSH1 0x1 PUSH1 0x1 PUSH1 0x40 SHL SUB DUP6 GT OR PUSH2 0xAEE JUMPI PUSH2 0xFA8 SWAP4 DUP10 MSTORE MLOAD SWAP1 KECCAK256 PUSH2 0xFA2 DUP3 DUP11 PUSH2 0xE8E JUMP JUMPDEST MSTORE PUSH2 0xA4E JUMP JUMPDEST PUSH2 0xF1E JUMP JUMPDEST PUSH2 0xFA8 SWAP3 POP PUSH2 0xFBC SWAP1 DUP10 PUSH2 0xE8E JUMP JUMPDEST MLOAD PUSH2 0xFA2 DUP3 DUP11 PUSH2 0xE8E JUMP JUMPDEST DUP6 MLOAD DUP2 LT ISZERO PUSH2 0x106A JUMPI DUP3 DUP2 PUSH2 0xFDD DUP3 SWAP4 DUP10 PUSH2 0xE8E JUMP JUMPDEST MLOAD DUP2 SWAP4 JUMPDEST PUSH2 0xFFA JUMPI JUMPDEST PUSH2 0xFA2 PUSH2 0xFF4 SWAP4 SWAP5 DUP11 PUSH2 0xE8E JUMP JUMPDEST SWAP1 PUSH2 0xEF2 JUMP JUMPDEST SWAP2 POP SWAP2 DUP1 ISZERO DUP6 DUP2 ISZERO DUP1 PUSH2 0x1049 JUMPI JUMPDEST ISZERO PUSH2 0x103E JUMPI POP PUSH1 0x0 NOT DUP3 ADD SWAP2 DUP1 DUP4 GT PUSH2 0xA5D JUMPI PUSH2 0x1030 PUSH2 0x1028 DUP5 DUP13 PUSH2 0xE8E JUMP JUMPDEST MLOAD SWAP2 DUP12 PUSH2 0xE8E JUMP JUMPDEST MSTORE PUSH2 0xA5D JUMPI SWAP2 DUP5 SWAP2 DUP3 PUSH2 0xFE1 JUMP JUMPDEST SWAP3 SWAP1 POP SWAP3 SWAP1 SWAP3 PUSH2 0xFE6 JUMP JUMPDEST POP POP PUSH1 0x0 NOT DUP3 ADD DUP3 DUP2 GT PUSH2 0xA5D JUMPI DUP4 PUSH2 0x1063 DUP9 SWAP3 DUP13 PUSH2 0xE8E JUMP JUMPDEST MLOAD GT PUSH2 0x1008 JUMP JUMPDEST PUSH2 0xEF7 JUMP JUMPDEST DUP1 PUSH2 0x107E PUSH2 0x1089 SWAP3 DUP5 DUP7 PUSH2 0xA73 JUMP JUMPDEST CALLDATALOAD PUSH2 0xFA2 DUP3 DUP12 PUSH2 0xE8E JUMP JUMPDEST PUSH2 0xEE5 JUMP JUMPDEST SWAP2 POP POP ISZERO PUSH2 0xA83 JUMPI CALLDATALOAD SWAP1 JUMP JUMPDEST SWAP1 PUSH1 0x40 MLOAD SWAP2 DUP3 DUP2 SLOAD SWAP2 DUP3 DUP3 MSTORE PUSH1 0x20 SWAP3 DUP4 DUP4 ADD SWAP2 PUSH1 0x0 MSTORE DUP4 PUSH1 0x0 KECCAK256 SWAP4 PUSH1 0x0 SWAP1 JUMPDEST DUP3 DUP3 LT PUSH2 0x10D1 JUMPI POP POP POP PUSH2 0x10CF SWAP3 POP SUB DUP4 PUSH2 0xB1F JUMP JUMPDEST JUMP JUMPDEST DUP6 SLOAD DUP5 MSTORE PUSH1 0x1 SWAP6 DUP7 ADD SWAP6 DUP9 SWAP6 POP SWAP4 DUP2 ADD SWAP4 SWAP1 SWAP2 ADD SWAP1 PUSH2 0x10B9 JUMP JUMPDEST SWAP2 SWAP5 SWAP4 DUP1 PUSH1 0x0 MSTORE PUSH1 0x7 PUSH1 0x20 MSTORE PUSH1 0x40 SWAP2 PUSH1 0xFF DUP4 PUSH1 0x0 KECCAK256 SLOAD AND PUSH2 0x117A JUMPI PUSH1 0xFF PUSH1 0x8 SLOAD PUSH1 0xA0 SHR AND ISZERO PUSH2 0x1169 JUMPI SWAP1 PUSH2 0x115B DUP6 DUP9 PUSH32 0x5FDE3EEFB6947171E166B973C9376F8F26046D6BE28DB64B8819DF9FDA8EA80D SWAP6 SWAP5 DUP5 PUSH1 0x0 MSTORE PUSH1 0x7 PUSH1 0x20 MSTORE DUP6 PUSH1 0x0 KECCAK256 PUSH1 0x1 PUSH1 0xFF NOT DUP3 SLOAD AND OR SWAP1 SSTORE DUP8 PUSH2 0xB40 JUMP JUMPDEST SWAP7 DUP3 MLOAD SWAP2 DUP3 MSTORE PUSH1 0x20 DUP3 ADD MSTORE LOG3 JUMP JUMPDEST DUP3 MLOAD PUSH4 0x3B2487B PUSH1 0xE1 SHL DUP2 MSTORE PUSH1 0x4 SWAP1 REVERT JUMPDEST POP PUSH1 0x24 SWAP2 MLOAD SWAP1 PUSH4 0x2920F741 PUSH1 0xE2 SHL DUP3 MSTORE PUSH1 0x4 DUP3 ADD MSTORE REVERT INVALID LOG2 PUSH5 0x6970667358 0x22 SLT KECCAK256 RETURNDATASIZE PUSH3 0xEC85E5 0xE7 DUP10 0xF8 PUSH4 0xB5046460 0xBB 0xBA PUSH14 0xCCAC84B4A9FD84DEEC2D5CE896B4 SWAP15 0x4C PUSH5 0x736F6C6343 STOP ADDMOD EQ STOP CALLER "},"methodIdentifiers":{"CHEAT_INFERENCE_MAX()":"de62201a","CHEAT_INFERENCE_MIN()":"c37a636b","MAX_TEAM_SIZE()":"d4b9c129","MIN_TEAM_SIZE()":"8ad6fcfb","MOCK_PROOF_SIZE()":"12a9016e","ZK_VERSION()":"604a0902","computeMerkleRoot(bytes32[])":"2b8b906c","createTeam(bytes32,bytes32[])":"c3a39536","getTeam(bytes32)":"4bb34a7d","getTeamProof(uint256)":"3bd56175","getTeamProofCount(bytes32)":"c0d3f385","getTeamProofIds(bytes32)":"638371ee","mockZKResult()":"b7119a5f","owner()":"8da5cb5b","poACVerifier()":"f1cf7905","proofCount()":"addecc06","renounceOwnership()":"715018a6","setMockZKResult(bool)":"ac99e576","setTeamProofVerifier(address)":"34a1d644","submitTeamProof(bytes32,bytes32[],bytes32)":"50072dd7","submitTeamProofZK(bytes32,bytes32[],bytes32,bytes32,bytes)":"ef4a949e","submitTeamProofZK(bytes32,bytes32[],bytes32,bytes32,bytes,uint256,uint256)":"8635ca06","teamExists(bytes32)":"44ea6c69","teamProofVerifier()":"023e41b9","transferOwnership(address)":"f2fde38b","usedNullifiers(bytes32)":"206137aa"}}}}}