{"contracts/TeamProofAggregatorZK.sol":{"TeamProofAggregatorZK":{"abi":[{"inputs":[{"internalType":"address","name":"_poACVerifier","type":"address"}],"stateMutability":"nonpayable","type":"constructor"},{"inputs":[{"internalType":"bytes32","name":"recordHash","type":"bytes32"},{"internalType":"uint8","name":"inferenceResult","type":"uint8"}],"name":"CheatFlagDetected","type":"error"},{"inputs":[{"internalType":"bytes32","name":"computed","type":"bytes32"},{"internalType":"bytes32","name":"submitted","type":"bytes32"}],"name":"InvalidMerkleRoot","type":"error"},{"inputs":[{"internalType":"uint256","name":"size","type":"uint256"}],"name":"InvalidTeamSize","type":"error"},{"inputs":[],"name":"InvalidZKProof","type":"error"},{"inputs":[{"internalType":"uint256","name":"expected","type":"uint256"},{"internalType":"uint256","name":"provided","type":"uint256"}],"name":"MemberCountMismatch","type":"error"},{"inputs":[{"internalType":"bytes32","name":"nullifier","type":"bytes32"}],"name":"NullifierAlreadyUsed","type":"error"},{"inputs":[{"internalType":"address","name":"owner","type":"address"}],"name":"OwnableInvalidOwner","type":"error"},{"inputs":[{"internalType":"address","name":"account","type":"address"}],"name":"OwnableUnauthorizedAccount","type":"error"},{"inputs":[{"internalType":"bytes32","name":"recordHash","type":"bytes32"}],"name":"RecordNotVerified","type":"error"},{"inputs":[{"internalType":"bytes32","name":"teamId","type":"bytes32"}],"name":"TeamAlreadyExists","type":"error"},{"inputs":[{"internalType":"bytes32","name":"teamId","type":"bytes32"}],"name":"TeamNotActive","type":"error"},{"inputs":[{"internalType":"bytes32","name":"teamId","type":"bytes32"}],"name":"TeamNotFound","type":"error"},{"anonymous":false,"inputs":[{"indexed":true,"internalType":"address","name":"previousOwner","type":"address"},{"indexed":true,"internalType":"address","name":"newOwner","type":"address"}],"name":"OwnershipTransferred","type":"event"},{"anonymous":false,"inputs":[{"indexed":true,"internalType":"bytes32","name":"teamId","type":"bytes32"},{"indexed":true,"internalType":"address","name":"captain","type":"address"},{"indexed":false,"internalType":"uint8","name":"memberCount","type":"uint8"}],"name":"TeamCreated","type":"event"},{"anonymous":false,"inputs":[{"indexed":true,"internalType":"bytes32","name":"teamId","type":"bytes32"},{"indexed":true,"internalType":"uint256","name":"proofId","type":"uint256"},{"indexed":false,"internalType":"bytes32","name":"merkleRoot","type":"bytes32"},{"indexed":false,"internalType":"uint8","name":"memberCount","type":"uint8"},{"indexed":false,"internalType":"bool","name":"allClean","type":"bool"}],"name":"TeamProofSubmitted","type":"event"},{"anonymous":false,"inputs":[{"indexed":true,"internalType":"address","name":"verifier","type":"address"}],"name":"TeamProofVerifierSet","type":"event"},{"anonymous":false,"inputs":[{"indexed":true,"internalType":"bytes32","name":"teamId","type":"bytes32"},{"indexed":true,"internalType":"bytes32","name":"merkleRoot","type":"bytes32"},{"indexed":false,"internalType":"bytes32","name":"nullifierHash","type":"bytes32"},{"indexed":false,"internalType":"uint256","name":"memberCount","type":"uint256"}],"name":"ZKTeamProofSubmitted","type":"event"},{"inputs":[],"name":"CHEAT_INFERENCE_MAX","outputs":[{"internalType":"uint8","name":"","type":"uint8"}],"stateMutability":"view","type":"function"},{"inputs":[],"name":"CHEAT_INFERENCE_MIN","outputs":[{"internalType":"uint8","name":"","type":"uint8"}],"stateMutability":"view","type":"function"},{"inputs":[],"name":"MAX_TEAM_SIZE","outputs":[{"internalType":"uint8","name":"","type":"uint8"}],"stateMutability":"view","type":"function"},{"inputs":[],"name":"MIN_TEAM_SIZE","outputs":[{"internalType":"uint8","name":"","type":"uint8"}],"stateMutability":"view","type":"function"},{"inputs":[],"name":"MOCK_PROOF_SIZE","outputs":[{"internalType":"uint256","name":"","type":"uint256"}],"stateMutability":"view","type":"function"},{"inputs":[],"name":"ZK_VERSION","outputs":[{"internalType":"bytes32","name":"","type":"bytes32"}],"stateMutability":"view","type":"function"},{"inputs":[{"internalType":"bytes32[]","name":"_leaves","type":"bytes32[]"}],"name":"computeMerkleRoot","outputs":[{"internalType":"bytes32","name":"","type":"bytes32"}],"stateMutability":"pure","type":"function"},{"inputs":[{"internalType":"bytes32","name":"_teamId","type":"bytes32"},{"internalType":"bytes32[]","name":"_deviceIds","type":"bytes32[]"}],"name":"createTeam","outputs":[],"stateMutability":"nonpayable","type":"function"},{"inputs":[{"internalType":"bytes32","name":"_teamId","type":"bytes32"}],"name":"getTeam","outputs":[{"internalType":"bytes32[]","name":"memberDeviceIds","type":"bytes32[]"},{"internalType":"address","name":"captain","type":"address"},{"internalType":"uint64","name":"createdAt","type":"uint64"},{"internalType":"bool","name":"active","type":"bool"}],"stateMutability":"view","type":"function"},{"inputs":[{"internalType":"uint256","name":"_proofId","type":"uint256"}],"name":"getTeamProof","outputs":[{"components":[{"internalType":"bytes32","name":"teamId","type":"bytes32"},{"internalType":"bytes32","name":"merkleRoot","type":"bytes32"},{"internalType":"bytes32[]","name":"recordHashes","type":"bytes32[]"},{"internalType":"uint8","name":"memberCount","type":"uint8"},{"internalType":"bool","name":"allClean","type":"bool"},{"internalType":"uint64","name":"submittedAt","type":"uint64"},{"internalType":"address","name":"submitter","type":"address"}],"internalType":"struct TeamProofAggregator.TeamProof","name":"","type":"tuple"}],"stateMutability":"view","type":"function"},{"inputs":[{"internalType":"bytes32","name":"_teamId","type":"bytes32"}],"name":"getTeamProofCount","outputs":[{"internalType":"uint256","name":"","type":"uint256"}],"stateMutability":"view","type":"function"},{"inputs":[{"internalType":"bytes32","name":"_teamId","type":"bytes32"}],"name":"getTeamProofIds","outputs":[{"internalType":"uint256[]","name":"","type":"uint256[]"}],"stateMutability":"view","type":"function"},{"inputs":[],"name":"owner","outputs":[{"internalType":"address","name":"","type":"address"}],"stateMutability":"view","type":"function"},{"inputs":[],"name":"poACVerifier","outputs":[{"internalType":"contract PoACVerifier","name":"","type":"address"}],"stateMutability":"view","type":"function"},{"inputs":[],"name":"proofCount","outputs":[{"internalType":"uint256","name":"","type":"uint256"}],"stateMutability":"view","type":"function"},{"inputs":[],"name":"renounceOwnership","outputs":[],"stateMutability":"nonpayable","type":"function"},{"inputs":[{"internalType":"address","name":"_verifier","type":"address"}],"name":"setTeamProofVerifier","outputs":[],"stateMutability":"nonpayable","type":"function"},{"inputs":[{"internalType":"bytes32","name":"_teamId","type":"bytes32"},{"internalType":"bytes32[]","name":"_recordHashes","type":"bytes32[]"},{"internalType":"bytes32","name":"_merkleRoot","type":"bytes32"}],"name":"submitTeamProof","outputs":[{"internalType":"uint256","name":"proofId","type":"uint256"}],"stateMutability":"nonpayable","type":"function"},{"inputs":[{"internalType":"bytes32","name":"_teamId","type":"bytes32"},{"internalType":"bytes32[]","name":"_recordHashes","type":"bytes32[]"},{"internalType":"bytes32","name":"_merkleRoot","type":"bytes32"},{"internalType":"bytes32","name":"_nullifierHash","type":"bytes32"},{"internalType":"bytes","name":"_zkProof","type":"bytes"},{"internalType":"uint256","name":"_poseidonMerkleRoot","type":"uint256"},{"internalType":"uint256","name":"_epoch","type":"uint256"}],"name":"submitTeamProofZK","outputs":[{"internalType":"uint256","name":"proofId","type":"uint256"}],"stateMutability":"nonpayable","type":"function"},{"inputs":[{"internalType":"bytes32","name":"_teamId","type":"bytes32"},{"internalType":"bytes32[]","name":"_recordHashes","type":"bytes32[]"},{"internalType":"bytes32","name":"_merkleRoot","type":"bytes32"},{"internalType":"bytes32","name":"_nullifierHash","type":"bytes32"},{"internalType":"bytes","name":"_zkProof","type":"bytes"}],"name":"submitTeamProofZK","outputs":[{"internalType":"uint256","name":"proofId","type":"uint256"}],"stateMutability":"nonpayable","type":"function"},{"inputs":[{"internalType":"bytes32","name":"","type":"bytes32"}],"name":"teamExists","outputs":[{"internalType":"bool","name":"","type":"bool"}],"stateMutability":"view","type":"function"},{"inputs":[],"name":"teamProofVerifier","outputs":[{"internalType":"address","name":"","type":"address"}],"stateMutability":"view","type":"function"},{"inputs":[{"internalType":"address","name":"newOwner","type":"address"}],"name":"transferOwnership","outputs":[],"stateMutability":"nonpayable","type":"function"},{"inputs":[{"internalType":"bytes32","name":"","type":"bytes32"}],"name":"usedNullifiers","outputs":[{"internalType":"bool","name":"","type":"bool"}],"stateMutability":"view","type":"function"}],"evm":{"bytecode":{"linkReferences":{},"object":"6080346100c657601f61172038819003918201601f19168301916001600160401b038311848410176100cb578084926020946040528339810103126100c657516001600160a01b0390818116908190036100c65733156100ad5760005460018060a01b0319903382821617600055604051933391167f8be0079c531659141344cd1fd0a4f28419497f9722a3daafe3b4186f6b6457e0600080a3600154161760015561163e90816100e28239f35b604051631e4fbdf760e01b815260006004820152602490fd5b600080fd5b634e487b7160e01b600052604160045260246000fdfe608060408181526004908136101561001657600080fd5b600092833560e01c908163023e41b9146109ff5750806312a9016e146109e2578063206137aa146109b55780632b8b906c1461097857806334a1d644146109115780633bd56175146107d157806344ea6c69146107a45780634bb34a7d1461070757806350072dd7146106bc578063604a090214610681578063638371ee146105e3578063715018a6146105865780638635ca06146105085780638ad6fcfb146104ec5780638da5cb5b146104c4578063addecc06146104a6578063c0d3f3851461047e578063c37a636b14610462578063c3a3953614610319578063d4b9c129146102fd578063de62201a146102e1578063ef4a949e146101e9578063f1cf7905146101bc5763f2fde38b1461012c57600080fd5b346101b85760203660031901126101b8576001600160a01b038235818116939192908490036101b45761015d610a86565b831561019e57505082546001600160a01b0319811683178455167f8be0079c531659141344cd1fd0a4f28419497f9722a3daafe3b4186f6b6457e08380a380f35b51631e4fbdf760e01b8152908101849052602490fd5b8480fd5b8280fd5b8382346101e557816003193601126101e55760015490516001600160a01b039091168152602090f35b5080fd5b508290346101e55760a03660031901126101e5576001600160401b039280356024358581116101b45761021f9036908401610a24565b9460443593606435976084359081116101b85761023f9036908301610a59565b90898452600760205260ff88852054166102ca579061025f91898b6111e6565b156102bc5750866102ab85887f5fde3eefb6947171e166b973c9376f8f26046d6be28db64b8819df9fda8ea80d95898660209d82985260078e5220600160ff1982541617905587610bd7565b96825191825288820152a351908152f35b85516303b2487b60e11b8152fd5b8751632920f74160e21b81528084018b9052602490fd5b8382346101e557816003193601126101e55760209051602a8152f35b8382346101e557816003193601126101e5576020905160068152f35b50346101b857806003193601126101b8578135906024356001600160401b0381116101b45761034b9036908501610a24565b93838652600360205260ff838720541661044b57600285108015610441575b61042a575082855260026020528185206001810180546001600160e81b0319163368ffffffffffffffffff60a01b1916174260a01b67ffffffffffffffff60a01b1617600160e01b179055855b8581106104075750505060ff9082855260036020528085206001831982541617905551921682527fd51f1ea8e0b03f99b94c0bdb936c2fc4683c160bf64b58e5fbc3ccbe4c20f9ca60203393a380f35b80610420610419610425938987610ad7565b3584610b15565b610ab2565b6103b7565b825163ef2e255d60e01b8152908101859052602490fd5b506006851161036a565b825163f7bd25cb60e01b8152908101849052602490fd5b8382346101e557816003193601126101e5576020905160288152f35b5090346101b85760203660031901126101b85760209282913581526006845220549051908152f35b5090346101b857826003193601126101b85760209250549051908152f35b8382346101e557816003193601126101e557905490516001600160a01b039091168152602090f35b8382346101e557816003193601126101e5576020905160028152f35b508290346101e55760e03660031901126101e5576001600160401b039280356024358581116101b45761053e9036908401610a24565b9460443593606435976084359081116101b85761055e9036908301610a59565b90898452600760205260ff88852054166102ca579061025f9160c4359160a435918b8d611405565b83346105e057806003193601126105e05761059f610a86565b80546001600160a01b03198116825581906001600160a01b03167f8be0079c531659141344cd1fd0a4f28419497f9722a3daafe3b4186f6b6457e08280a380f35b80fd5b5091346105e057602091826003193601126101e55792919235815260068352818120908251808584549182815201908194845286842090845b81811061066d5750505081610632910382610b9e565b83519485948186019282875251809352850193925b82811061065657505050500390f35b835185528695509381019392810192600101610647565b82548452928801926001928301920161061c565b8382346101e557816003193601126101e557602090517f22c53f333828936b9047d0d278f0624190302e02696fa9aa397835bd5b74bbd18152f35b5082346105e05760603660031901126105e057602435906001600160401b0382116105e057506020926106f56107009236908301610a24565b906044359235610bd7565b9051908152f35b509190346101e557602090816003193601126101b857919091358152600282528281209260019261073b8486015495611128565b92825194608086016080875285518091528360a088019601925b818110610791576001600160a01b0389168589015260a089901c6001600160401b03168689015260e089901c60ff161515606089015287870388f35b8351875295840195928401928201610755565b5090346101b85760203660031901126101b8578160209360ff923581526003855220541690519015158152f35b5091346105e057602091826003193601126101e5578160c085949395516107f781610b68565b82815282858201526060868201528260608201528260808201528260a082015201523583526005815281832082519261082f84610b68565b815484526001918281015494848101958652600361084f60028401611128565b92848301938452015493606082019760ff86168952608083019160ff8760081c161515835260a08401936001600160401b0395868960101c16865260c082019760018060a01b03809a60501c16895280519b8b8d528c8c6101008201955191015251908c0152519860e060608c01528951809252806101208c019a01935b8281106108fe57505050505060ff87985116608088015251151560a0870152511660c0850152511660e08301520390f35b84518b52998101999381019383016108cd565b5050346101e55760203660031901126101e557356001600160a01b038116908190036101e55761093f610a86565b600880546001600160a01b031916821790557fba20270f1db7d5ba92574e021388b3ed01069a5c039d928a0f6343c565e4059e8280a280f35b5082346105e05760203660031901126105e0578235906001600160401b0382116105e057506109af60209361070092369101610a24565b90610f30565b5090346101b85760203660031901126101b8578160209360ff923581526007855220541690519015158152f35b8382346101e557816003193601126101e557602090516101008152f35b8490346101e557816003193601126101e5576008546001600160a01b03168152602090f35b9181601f84011215610a54578235916001600160401b038311610a54576020808501948460051b010111610a5457565b600080fd5b9181601f84011215610a54578235916001600160401b038311610a545760208381860195010111610a5457565b6000546001600160a01b03163303610a9a57565b60405163118cdaa760e01b8152336004820152602490fd5b6000198114610ac15760010190565b634e487b7160e01b600052601160045260246000fd5b9190811015610ae75760051b0190565b634e487b7160e01b600052603260045260246000fd5b8054821015610ae75760005260206000200190600090565b805490600160401b821015610b525781610b37916001610b4e94018155610afd565b819391549060031b91821b91600019901b19161790565b9055565b634e487b7160e01b600052604160045260246000fd5b60e081019081106001600160401b03821117610b5257604052565b604081019081106001600160401b03821117610b5257604052565b90601f801991011681019081106001600160401b03821117610b5257604052565b90816020910312610a5457518015158103610a545790565b90939260008281526020936003855260ff9460409286848220541615610eed578581526002825283812087600182015460e01c1615610ed55754808403610eb857506001546001600160a01b0316815b848110610d7d575050610c3a838a610f30565b858103610d6057506004549698610c5088610ab2565b600455878252600583528482208781556001810187905560038101805462010000600160f01b031961ffff19919091169c87169c8d1761010017164260101b69ffffffffffffffff000016173360501b600160501b600160f01b031617905597998a989094600290910190835b818110610d42575050505085815260068252838120805491600160401b831015610d2e57509260019288610d1e610b37857f6faf02f204baeaaf295439e5483b112c706763054453bed74b5d8647e82ca55b9a988860609b98018155610afd565b90558251948552840152820152a3565b634e487b7160e01b81526041600452602490fd5b80610420610d54610d5b938588610ad7565b3585610b15565b610cbd565b604490868651916327c4ed9760e21b835260048301526024820152fd5b610d8881868d610ad7565b865163488dbfad60e01b8152903560048083018290529160249087818381895afa908115610e6d578791610e8b575b5015610e7757885163cd68a83160e01b815283810183905287818381895afa908115610e6d57908d918891610e2f575b501691602883101580610e24575b610e0b5750505050610e0690610ab2565b610c27565b895163379a771360e21b81529384015282015260449150fd5b50602a831115610df5565b809250898092503d8311610e66575b610e488183610b9e565b81010312610e6257518c81168103610e62578c9038610de7565b8680fd5b503d610e3e565b8a513d89823e3d90fd5b9250875191632047f23560e21b8352820152fd5b610eab9150883d8a11610eb1575b610ea38183610b9e565b810190610bbf565b38610db7565b503d610e99565b60449084865191634c1eb76960e11b835260048301526024820152fd5b845163b79eacfb60e01b815260048101889052602490fd5b8351630760a05360e31b815260048101879052602490fd5b6001600160401b038111610b525760051b60200190565b8051821015610ae75760209160051b010190565b908060019182811461111c57610f4581610f05565b92604092610f5584519586610b9e565b828552610f6183610f05565b9560209384870197601f190136893760005b8181106110fd5750505081805b611055575b505b818111610f9c57505050505115610ae7575190565b818101808211610ac157821c9060005b828110610fba575050610f87565b80841b9080820460021481151715610ac15784820191828111610ac1578383101561103b57610fec610ff4918a610f1c565b519289610f1c565b51918751928784019182528884015287835260608301928084106001600160401b03851117610b5257611036938952519020611030828a610f1c565b52610ab2565b610fac565b611036925061104a9089610f1c565b51611030828a610f1c565b85518110156110f857828161106b829389610f1c565b5181935b611088575b61103061108293948a610f1c565b90610f80565b9150918015858115806110d7575b156110cc5750600019820191808311610ac1576110be6110b6848c610f1c565b51918b610f1c565b52610ac1579184918261106f565b929050929092611074565b50506000198201828111610ac157836110f188928c610f1c565b5111611096565b610f85565b8061110c611117928486610ad7565b35611030828b610f1c565b610f73565b91505015610ae7573590565b9060405191828154918282526020928383019160005283600020936000905b82821061115f5750505061115d92500383610b9e565b565b855484526001958601958895509381019390910190611147565b9080601f83011215610a54576040519161119283610b83565b829060408101928311610a5457905b8282106111ae5750505090565b81518152602091820191016111a1565b6000915b600283106111cf57505050565b6001908251815260208091019201920191906111c2565b60085490939192906001600160a01b0316801580156113fd575b6113f1576101008084036113e6576001600160401b03808511610b525760409687519660209661123988601f19601f840116018a610b9e565b808952878901903681890111610a5457808998833760009788918b010152885189019489898701960312610e62578461127191611179565b9380607f8a011215610e62578951986112898a610b83565b8960e08201918383116113e2578a60608e9201925b8484106113ca5750505050906112b391611179565b918951936080850190858210908211176113b6578a528684528388015288830152606082018590528751635fe8c13b60e01b8152968694889490936004939092909161130290858801906111be565b878b604488015b6002831061138c57505050506113239060c48601906111be565b859061010485015b838310611372575050505081610184915afa93841561136857509261134f57505090565b6113659250803d10610eb157610ea38183610b9e565b90565b51903d90823e3d90fd5b8151815288968a965060019390930192918201910161132b565b8395979992949698506113a281600195516111be565b019301910190899593918b8a989694611309565b634e487b7160e01b88526041600452602488fd5b6113d48685611179565b8152019101908a8d9161129e565b8980fd5b505050505050600090565b50506101001492915050565b506001611200565b9394909460018060a01b03600854169182158015611600575b6115f157610100918286036115e4576001600160401b0391828711610b52576040988951986020986114598a601f19601f840116018c610b9e565b808b52898b019036818b0111610a5457808b9a83376000998a918d0101528a518b01968b8b89019803126115e0578661149191611179565b9580607f8c0112156115e0578b519a6114a98c610b83565b8b60e08201918383116115dc578c8f91606001925b8484106115c45750505050906114d391611179565b938b51956080870190878210908211176115b0578c528552848901528984015260608301528751635fe8c13b60e01b8152968694889490936004939092909161151f90858801906111be565b878b604488015b6002831061158657505050506115409060c48601906111be565b859061010485015b83831061156c575050505081610184915afa93841561136857509261134f57505090565b8151815288968a9650600193909301929182019101611548565b83959799929496985061159c81600195516111be565b019301910190899593918b8a989694611526565b634e487b7160e01b8a52604160045260248afd5b6115ce8685611179565b8152019101908c8f916114be565b8b80fd5b8880fd5b5050505050505050600090565b50505050905061010091501490565b50811561141e56fea26469706673582212202249aea5abd80ba24a78c6224ffdb2fabf5d65975ee94b1c8bbd8f5e6cf4bfae64736f6c63430008140033","opcodes":"PUSH1 0x80 CALLVALUE PUSH2 0xC6 JUMPI PUSH1 0x1F PUSH2 0x1720 CODESIZE DUP2 SWAP1 SUB SWAP2 DUP3 ADD PUSH1 0x1F NOT AND DUP4 ADD SWAP2 PUSH1 0x1 PUSH1 0x1 PUSH1 0x40 SHL SUB DUP4 GT DUP5 DUP5 LT OR PUSH2 0xCB JUMPI DUP1 DUP5 SWAP3 PUSH1 0x20 SWAP5 PUSH1 0x40 MSTORE DUP4 CODECOPY DUP2 ADD SUB SLT PUSH2 0xC6 JUMPI MLOAD PUSH1 0x1 PUSH1 0x1 PUSH1 0xA0 SHL SUB SWAP1 DUP2 DUP2 AND SWAP1 DUP2 SWAP1 SUB PUSH2 0xC6 JUMPI CALLER ISZERO PUSH2 0xAD JUMPI PUSH1 0x0 SLOAD PUSH1 0x1 DUP1 PUSH1 0xA0 SHL SUB NOT SWAP1 CALLER DUP3 DUP3 AND OR PUSH1 0x0 SSTORE PUSH1 0x40 MLOAD SWAP4 CALLER SWAP2 AND PUSH32 0x8BE0079C531659141344CD1FD0A4F28419497F9722A3DAAFE3B4186F6B6457E0 PUSH1 0x0 DUP1 LOG3 PUSH1 0x1 SLOAD AND OR PUSH1 0x1 SSTORE PUSH2 0x163E SWAP1 DUP2 PUSH2 0xE2 DUP3 CODECOPY RETURN JUMPDEST PUSH1 0x40 MLOAD PUSH4 0x1E4FBDF7 PUSH1 0xE0 SHL DUP2 MSTORE PUSH1 0x0 PUSH1 0x4 DUP3 ADD MSTORE PUSH1 0x24 SWAP1 REVERT JUMPDEST PUSH1 0x0 DUP1 REVERT JUMPDEST PUSH4 0x4E487B71 PUSH1 0xE0 SHL PUSH1 0x0 MSTORE PUSH1 0x41 PUSH1 0x4 MSTORE PUSH1 0x24 PUSH1 0x0 REVERT INVALID PUSH1 0x80 PUSH1 0x40 DUP2 DUP2 MSTORE PUSH1 0x4 SWAP1 DUP2 CALLDATASIZE LT ISZERO PUSH2 0x16 JUMPI PUSH1 0x0 DUP1 REVERT JUMPDEST PUSH1 0x0 SWAP3 DUP4 CALLDATALOAD PUSH1 0xE0 SHR SWAP1 DUP2 PUSH4 0x23E41B9 EQ PUSH2 0x9FF JUMPI POP DUP1 PUSH4 0x12A9016E EQ PUSH2 0x9E2 JUMPI DUP1 PUSH4 0x206137AA EQ PUSH2 0x9B5 JUMPI DUP1 PUSH4 0x2B8B906C EQ PUSH2 0x978 JUMPI DUP1 PUSH4 0x34A1D644 EQ PUSH2 0x911 JUMPI DUP1 PUSH4 0x3BD56175 EQ PUSH2 0x7D1 JUMPI DUP1 PUSH4 0x44EA6C69 EQ PUSH2 0x7A4 JUMPI DUP1 PUSH4 0x4BB34A7D EQ PUSH2 0x707 JUMPI DUP1 PUSH4 0x50072DD7 EQ PUSH2 0x6BC JUMPI DUP1 PUSH4 0x604A0902 EQ PUSH2 0x681 JUMPI DUP1 PUSH4 0x638371EE EQ PUSH2 0x5E3 JUMPI DUP1 PUSH4 0x715018A6 EQ PUSH2 0x586 JUMPI DUP1 PUSH4 0x8635CA06 EQ PUSH2 0x508 JUMPI DUP1 PUSH4 0x8AD6FCFB EQ PUSH2 0x4EC JUMPI DUP1 PUSH4 0x8DA5CB5B EQ PUSH2 0x4C4 JUMPI DUP1 PUSH4 0xADDECC06 EQ PUSH2 0x4A6 JUMPI DUP1 PUSH4 0xC0D3F385 EQ PUSH2 0x47E JUMPI DUP1 PUSH4 0xC37A636B EQ PUSH2 0x462 JUMPI DUP1 PUSH4 0xC3A39536 EQ PUSH2 0x319 JUMPI DUP1 PUSH4 0xD4B9C129 EQ PUSH2 0x2FD JUMPI DUP1 PUSH4 0xDE62201A EQ PUSH2 0x2E1 JUMPI DUP1 PUSH4 0xEF4A949E EQ PUSH2 0x1E9 JUMPI DUP1 PUSH4 0xF1CF7905 EQ PUSH2 0x1BC JUMPI PUSH4 0xF2FDE38B EQ PUSH2 0x12C JUMPI PUSH1 0x0 DUP1 REVERT JUMPDEST CALLVALUE PUSH2 0x1B8 JUMPI PUSH1 0x20 CALLDATASIZE PUSH1 0x3 NOT ADD SLT PUSH2 0x1B8 JUMPI PUSH1 0x1 PUSH1 0x1 PUSH1 0xA0 SHL SUB DUP3 CALLDATALOAD DUP2 DUP2 AND SWAP4 SWAP2 SWAP3 SWAP1 DUP5 SWAP1 SUB PUSH2 0x1B4 JUMPI PUSH2 0x15D PUSH2 0xA86 JUMP JUMPDEST DUP4 ISZERO PUSH2 0x19E JUMPI POP POP DUP3 SLOAD PUSH1 0x1 PUSH1 0x1 PUSH1 0xA0 SHL SUB NOT DUP2 AND DUP4 OR DUP5 SSTORE AND PUSH32 0x8BE0079C531659141344CD1FD0A4F28419497F9722A3DAAFE3B4186F6B6457E0 DUP4 DUP1 LOG3 DUP1 RETURN JUMPDEST MLOAD PUSH4 0x1E4FBDF7 PUSH1 0xE0 SHL DUP2 MSTORE SWAP1 DUP2 ADD DUP5 SWAP1 MSTORE PUSH1 0x24 SWAP1 REVERT JUMPDEST DUP5 DUP1 REVERT JUMPDEST DUP3 DUP1 REVERT JUMPDEST DUP4 DUP3 CALLVALUE PUSH2 0x1E5 JUMPI DUP2 PUSH1 0x3 NOT CALLDATASIZE ADD SLT PUSH2 0x1E5 JUMPI PUSH1 0x1 SLOAD SWAP1 MLOAD PUSH1 0x1 PUSH1 0x1 PUSH1 0xA0 SHL SUB SWAP1 SWAP2 AND DUP2 MSTORE PUSH1 0x20 SWAP1 RETURN JUMPDEST POP DUP1 REVERT JUMPDEST POP DUP3 SWAP1 CALLVALUE PUSH2 0x1E5 JUMPI PUSH1 0xA0 CALLDATASIZE PUSH1 0x3 NOT ADD SLT PUSH2 0x1E5 JUMPI PUSH1 0x1 PUSH1 0x1 PUSH1 0x40 SHL SUB SWAP3 DUP1 CALLDATALOAD PUSH1 0x24 CALLDATALOAD DUP6 DUP2 GT PUSH2 0x1B4 JUMPI PUSH2 0x21F SWAP1 CALLDATASIZE SWAP1 DUP5 ADD PUSH2 0xA24 JUMP JUMPDEST SWAP5 PUSH1 0x44 CALLDATALOAD SWAP4 PUSH1 0x64 CALLDATALOAD SWAP8 PUSH1 0x84 CALLDATALOAD SWAP1 DUP2 GT PUSH2 0x1B8 JUMPI PUSH2 0x23F SWAP1 CALLDATASIZE SWAP1 DUP4 ADD PUSH2 0xA59 JUMP JUMPDEST SWAP1 DUP10 DUP5 MSTORE PUSH1 0x7 PUSH1 0x20 MSTORE PUSH1 0xFF DUP9 DUP6 KECCAK256 SLOAD AND PUSH2 0x2CA JUMPI SWAP1 PUSH2 0x25F SWAP2 DUP10 DUP12 PUSH2 0x11E6 JUMP JUMPDEST ISZERO PUSH2 0x2BC JUMPI POP DUP7 PUSH2 0x2AB DUP6 DUP9 PUSH32 0x5FDE3EEFB6947171E166B973C9376F8F26046D6BE28DB64B8819DF9FDA8EA80D SWAP6 DUP10 DUP7 PUSH1 0x20 SWAP14 DUP3 SWAP9 MSTORE PUSH1 0x7 DUP15 MSTORE KECCAK256 PUSH1 0x1 PUSH1 0xFF NOT DUP3 SLOAD AND OR SWAP1 SSTORE DUP8 PUSH2 0xBD7 JUMP JUMPDEST SWAP7 DUP3 MLOAD SWAP2 DUP3 MSTORE DUP9 DUP3 ADD MSTORE LOG3 MLOAD SWAP1 DUP2 MSTORE RETURN JUMPDEST DUP6 MLOAD PUSH4 0x3B2487B PUSH1 0xE1 SHL DUP2 MSTORE REVERT JUMPDEST DUP8 MLOAD PUSH4 0x2920F741 PUSH1 0xE2 SHL DUP2 MSTORE DUP1 DUP5 ADD DUP12 SWAP1 MSTORE PUSH1 0x24 SWAP1 REVERT JUMPDEST DUP4 DUP3 CALLVALUE PUSH2 0x1E5 JUMPI DUP2 PUSH1 0x3 NOT CALLDATASIZE ADD SLT PUSH2 0x1E5 JUMPI PUSH1 0x20 SWAP1 MLOAD PUSH1 0x2A DUP2 MSTORE RETURN JUMPDEST DUP4 DUP3 CALLVALUE PUSH2 0x1E5 JUMPI DUP2 PUSH1 0x3 NOT CALLDATASIZE ADD SLT PUSH2 0x1E5 JUMPI PUSH1 0x20 SWAP1 MLOAD PUSH1 0x6 DUP2 MSTORE RETURN JUMPDEST POP CALLVALUE PUSH2 0x1B8 JUMPI DUP1 PUSH1 0x3 NOT CALLDATASIZE ADD SLT PUSH2 0x1B8 JUMPI DUP2 CALLDATALOAD SWAP1 PUSH1 0x24 CALLDATALOAD PUSH1 0x1 PUSH1 0x1 PUSH1 0x40 SHL SUB DUP2 GT PUSH2 0x1B4 JUMPI PUSH2 0x34B SWAP1 CALLDATASIZE SWAP1 DUP6 ADD PUSH2 0xA24 JUMP JUMPDEST SWAP4 DUP4 DUP7 MSTORE PUSH1 0x3 PUSH1 0x20 MSTORE PUSH1 0xFF DUP4 DUP8 KECCAK256 SLOAD AND PUSH2 0x44B JUMPI PUSH1 0x2 DUP6 LT DUP1 ISZERO PUSH2 0x441 JUMPI JUMPDEST PUSH2 0x42A JUMPI POP DUP3 DUP6 MSTORE PUSH1 0x2 PUSH1 0x20 MSTORE DUP2 DUP6 KECCAK256 PUSH1 0x1 DUP2 ADD DUP1 SLOAD PUSH1 0x1 PUSH1 0x1 PUSH1 0xE8 SHL SUB NOT AND CALLER PUSH9 0xFFFFFFFFFFFFFFFFFF PUSH1 0xA0 SHL NOT AND OR TIMESTAMP PUSH1 0xA0 SHL PUSH8 0xFFFFFFFFFFFFFFFF PUSH1 0xA0 SHL AND OR PUSH1 0x1 PUSH1 0xE0 SHL OR SWAP1 SSTORE DUP6 JUMPDEST DUP6 DUP2 LT PUSH2 0x407 JUMPI POP POP POP PUSH1 0xFF SWAP1 DUP3 DUP6 MSTORE PUSH1 0x3 PUSH1 0x20 MSTORE DUP1 DUP6 KECCAK256 PUSH1 0x1 DUP4 NOT DUP3 SLOAD AND OR SWAP1 SSTORE MLOAD SWAP3 AND DUP3 MSTORE PUSH32 0xD51F1EA8E0B03F99B94C0BDB936C2FC4683C160BF64B58E5FBC3CCBE4C20F9CA PUSH1 0x20 CALLER SWAP4 LOG3 DUP1 RETURN JUMPDEST DUP1 PUSH2 0x420 PUSH2 0x419 PUSH2 0x425 SWAP4 DUP10 DUP8 PUSH2 0xAD7 JUMP JUMPDEST CALLDATALOAD DUP5 PUSH2 0xB15 JUMP JUMPDEST PUSH2 0xAB2 JUMP JUMPDEST PUSH2 0x3B7 JUMP JUMPDEST DUP3 MLOAD PUSH4 0xEF2E255D PUSH1 0xE0 SHL DUP2 MSTORE SWAP1 DUP2 ADD DUP6 SWAP1 MSTORE PUSH1 0x24 SWAP1 REVERT JUMPDEST POP PUSH1 0x6 DUP6 GT PUSH2 0x36A JUMP JUMPDEST DUP3 MLOAD PUSH4 0xF7BD25CB PUSH1 0xE0 SHL DUP2 MSTORE SWAP1 DUP2 ADD DUP5 SWAP1 MSTORE PUSH1 0x24 SWAP1 REVERT JUMPDEST DUP4 DUP3 CALLVALUE PUSH2 0x1E5 JUMPI DUP2 PUSH1 0x3 NOT CALLDATASIZE ADD SLT PUSH2 0x1E5 JUMPI PUSH1 0x20 SWAP1 MLOAD PUSH1 0x28 DUP2 MSTORE RETURN JUMPDEST POP SWAP1 CALLVALUE PUSH2 0x1B8 JUMPI PUSH1 0x20 CALLDATASIZE PUSH1 0x3 NOT ADD SLT PUSH2 0x1B8 JUMPI PUSH1 0x20 SWAP3 DUP3 SWAP2 CALLDATALOAD DUP2 MSTORE PUSH1 0x6 DUP5 MSTORE KECCAK256 SLOAD SWAP1 MLOAD SWAP1 DUP2 MSTORE RETURN JUMPDEST POP SWAP1 CALLVALUE PUSH2 0x1B8 JUMPI DUP3 PUSH1 0x3 NOT CALLDATASIZE ADD SLT PUSH2 0x1B8 JUMPI PUSH1 0x20 SWAP3 POP SLOAD SWAP1 MLOAD SWAP1 DUP2 MSTORE RETURN JUMPDEST DUP4 DUP3 CALLVALUE PUSH2 0x1E5 JUMPI DUP2 PUSH1 0x3 NOT CALLDATASIZE ADD SLT PUSH2 0x1E5 JUMPI SWAP1 SLOAD SWAP1 MLOAD PUSH1 0x1 PUSH1 0x1 PUSH1 0xA0 SHL SUB SWAP1 SWAP2 AND DUP2 MSTORE PUSH1 0x20 SWAP1 RETURN JUMPDEST DUP4 DUP3 CALLVALUE PUSH2 0x1E5 JUMPI DUP2 PUSH1 0x3 NOT CALLDATASIZE ADD SLT PUSH2 0x1E5 JUMPI PUSH1 0x20 SWAP1 MLOAD PUSH1 0x2 DUP2 MSTORE RETURN JUMPDEST POP DUP3 SWAP1 CALLVALUE PUSH2 0x1E5 JUMPI PUSH1 0xE0 CALLDATASIZE PUSH1 0x3 NOT ADD SLT PUSH2 0x1E5 JUMPI PUSH1 0x1 PUSH1 0x1 PUSH1 0x40 SHL SUB SWAP3 DUP1 CALLDATALOAD PUSH1 0x24 CALLDATALOAD DUP6 DUP2 GT PUSH2 0x1B4 JUMPI PUSH2 0x53E SWAP1 CALLDATASIZE SWAP1 DUP5 ADD PUSH2 0xA24 JUMP JUMPDEST SWAP5 PUSH1 0x44 CALLDATALOAD SWAP4 PUSH1 0x64 CALLDATALOAD SWAP8 PUSH1 0x84 CALLDATALOAD SWAP1 DUP2 GT PUSH2 0x1B8 JUMPI PUSH2 0x55E SWAP1 CALLDATASIZE SWAP1 DUP4 ADD PUSH2 0xA59 JUMP JUMPDEST SWAP1 DUP10 DUP5 MSTORE PUSH1 0x7 PUSH1 0x20 MSTORE PUSH1 0xFF DUP9 DUP6 KECCAK256 SLOAD AND PUSH2 0x2CA JUMPI SWAP1 PUSH2 0x25F SWAP2 PUSH1 0xC4 CALLDATALOAD SWAP2 PUSH1 0xA4 CALLDATALOAD SWAP2 DUP12 DUP14 PUSH2 0x1405 JUMP JUMPDEST DUP4 CALLVALUE PUSH2 0x5E0 JUMPI DUP1 PUSH1 0x3 NOT CALLDATASIZE ADD SLT PUSH2 0x5E0 JUMPI PUSH2 0x59F PUSH2 0xA86 JUMP JUMPDEST DUP1 SLOAD PUSH1 0x1 PUSH1 0x1 PUSH1 0xA0 SHL SUB NOT DUP2 AND DUP3 SSTORE DUP2 SWAP1 PUSH1 0x1 PUSH1 0x1 PUSH1 0xA0 SHL SUB AND PUSH32 0x8BE0079C531659141344CD1FD0A4F28419497F9722A3DAAFE3B4186F6B6457E0 DUP3 DUP1 LOG3 DUP1 RETURN JUMPDEST DUP1 REVERT JUMPDEST POP SWAP2 CALLVALUE PUSH2 0x5E0 JUMPI PUSH1 0x20 SWAP2 DUP3 PUSH1 0x3 NOT CALLDATASIZE ADD SLT PUSH2 0x1E5 JUMPI SWAP3 SWAP2 SWAP3 CALLDATALOAD DUP2 MSTORE PUSH1 0x6 DUP4 MSTORE DUP2 DUP2 KECCAK256 SWAP1 DUP3 MLOAD DUP1 DUP6 DUP5 SLOAD SWAP2 DUP3 DUP2 MSTORE ADD SWAP1 DUP2 SWAP5 DUP5 MSTORE DUP7 DUP5 KECCAK256 SWAP1 DUP5 JUMPDEST DUP2 DUP2 LT PUSH2 0x66D JUMPI POP POP POP DUP2 PUSH2 0x632 SWAP2 SUB DUP3 PUSH2 0xB9E JUMP JUMPDEST DUP4 MLOAD SWAP5 DUP6 SWAP5 DUP2 DUP7 ADD SWAP3 DUP3 DUP8 MSTORE MLOAD DUP1 SWAP4 MSTORE DUP6 ADD SWAP4 SWAP3 JUMPDEST DUP3 DUP2 LT PUSH2 0x656 JUMPI POP POP POP POP SUB SWAP1 RETURN JUMPDEST DUP4 MLOAD DUP6 MSTORE DUP7 SWAP6 POP SWAP4 DUP2 ADD SWAP4 SWAP3 DUP2 ADD SWAP3 PUSH1 0x1 ADD PUSH2 0x647 JUMP JUMPDEST DUP3 SLOAD DUP5 MSTORE SWAP3 DUP9 ADD SWAP3 PUSH1 0x1 SWAP3 DUP4 ADD SWAP3 ADD PUSH2 0x61C JUMP JUMPDEST DUP4 DUP3 CALLVALUE PUSH2 0x1E5 JUMPI DUP2 PUSH1 0x3 NOT CALLDATASIZE ADD SLT PUSH2 0x1E5 JUMPI PUSH1 0x20 SWAP1 MLOAD PUSH32 0x22C53F333828936B9047D0D278F0624190302E02696FA9AA397835BD5B74BBD1 DUP2 MSTORE RETURN JUMPDEST POP DUP3 CALLVALUE PUSH2 0x5E0 JUMPI PUSH1 0x60 CALLDATASIZE PUSH1 0x3 NOT ADD SLT PUSH2 0x5E0 JUMPI PUSH1 0x24 CALLDATALOAD SWAP1 PUSH1 0x1 PUSH1 0x1 PUSH1 0x40 SHL SUB DUP3 GT PUSH2 0x5E0 JUMPI POP PUSH1 0x20 SWAP3 PUSH2 0x6F5 PUSH2 0x700 SWAP3 CALLDATASIZE SWAP1 DUP4 ADD PUSH2 0xA24 JUMP JUMPDEST SWAP1 PUSH1 0x44 CALLDATALOAD SWAP3 CALLDATALOAD PUSH2 0xBD7 JUMP JUMPDEST SWAP1 MLOAD SWAP1 DUP2 MSTORE RETURN JUMPDEST POP SWAP2 SWAP1 CALLVALUE PUSH2 0x1E5 JUMPI PUSH1 0x20 SWAP1 DUP2 PUSH1 0x3 NOT CALLDATASIZE ADD SLT PUSH2 0x1B8 JUMPI SWAP2 SWAP1 SWAP2 CALLDATALOAD DUP2 MSTORE PUSH1 0x2 DUP3 MSTORE DUP3 DUP2 KECCAK256 SWAP3 PUSH1 0x1 SWAP3 PUSH2 0x73B DUP5 DUP7 ADD SLOAD SWAP6 PUSH2 0x1128 JUMP JUMPDEST SWAP3 DUP3 MLOAD SWAP5 PUSH1 0x80 DUP7 ADD PUSH1 0x80 DUP8 MSTORE DUP6 MLOAD DUP1 SWAP2 MSTORE DUP4 PUSH1 0xA0 DUP9 ADD SWAP7 ADD SWAP3 JUMPDEST DUP2 DUP2 LT PUSH2 0x791 JUMPI PUSH1 0x1 PUSH1 0x1 PUSH1 0xA0 SHL SUB DUP10 AND DUP6 DUP10 ADD MSTORE PUSH1 0xA0 DUP10 SWAP1 SHR PUSH1 0x1 PUSH1 0x1 PUSH1 0x40 SHL SUB AND DUP7 DUP10 ADD MSTORE PUSH1 0xE0 DUP10 SWAP1 SHR PUSH1 0xFF AND ISZERO ISZERO PUSH1 0x60 DUP10 ADD MSTORE DUP8 DUP8 SUB DUP9 RETURN JUMPDEST DUP4 MLOAD DUP8 MSTORE SWAP6 DUP5 ADD SWAP6 SWAP3 DUP5 ADD SWAP3 DUP3 ADD PUSH2 0x755 JUMP JUMPDEST POP SWAP1 CALLVALUE PUSH2 0x1B8 JUMPI PUSH1 0x20 CALLDATASIZE PUSH1 0x3 NOT ADD SLT PUSH2 0x1B8 JUMPI DUP2 PUSH1 0x20 SWAP4 PUSH1 0xFF SWAP3 CALLDATALOAD DUP2 MSTORE PUSH1 0x3 DUP6 MSTORE KECCAK256 SLOAD AND SWAP1 MLOAD SWAP1 ISZERO ISZERO DUP2 MSTORE RETURN JUMPDEST POP SWAP2 CALLVALUE PUSH2 0x5E0 JUMPI PUSH1 0x20 SWAP2 DUP3 PUSH1 0x3 NOT CALLDATASIZE ADD SLT PUSH2 0x1E5 JUMPI DUP2 PUSH1 0xC0 DUP6 SWAP5 SWAP4 SWAP6 MLOAD PUSH2 0x7F7 DUP2 PUSH2 0xB68 JUMP JUMPDEST DUP3 DUP2 MSTORE DUP3 DUP6 DUP3 ADD MSTORE PUSH1 0x60 DUP7 DUP3 ADD MSTORE DUP3 PUSH1 0x60 DUP3 ADD MSTORE DUP3 PUSH1 0x80 DUP3 ADD MSTORE DUP3 PUSH1 0xA0 DUP3 ADD MSTORE ADD MSTORE CALLDATALOAD DUP4 MSTORE PUSH1 0x5 DUP2 MSTORE DUP2 DUP4 KECCAK256 DUP3 MLOAD SWAP3 PUSH2 0x82F DUP5 PUSH2 0xB68 JUMP JUMPDEST DUP2 SLOAD DUP5 MSTORE PUSH1 0x1 SWAP2 DUP3 DUP2 ADD SLOAD SWAP5 DUP5 DUP2 ADD SWAP6 DUP7 MSTORE PUSH1 0x3 PUSH2 0x84F PUSH1 0x2 DUP5 ADD PUSH2 0x1128 JUMP JUMPDEST SWAP3 DUP5 DUP4 ADD SWAP4 DUP5 MSTORE ADD SLOAD SWAP4 PUSH1 0x60 DUP3 ADD SWAP8 PUSH1 0xFF DUP7 AND DUP10 MSTORE PUSH1 0x80 DUP4 ADD SWAP2 PUSH1 0xFF DUP8 PUSH1 0x8 SHR AND ISZERO ISZERO DUP4 MSTORE PUSH1 0xA0 DUP5 ADD SWAP4 PUSH1 0x1 PUSH1 0x1 PUSH1 0x40 SHL SUB SWAP6 DUP7 DUP10 PUSH1 0x10 SHR AND DUP7 MSTORE PUSH1 0xC0 DUP3 ADD SWAP8 PUSH1 0x1 DUP1 PUSH1 0xA0 SHL SUB DUP1 SWAP11 PUSH1 0x50 SHR AND DUP10 MSTORE DUP1 MLOAD SWAP12 DUP12 DUP14 MSTORE DUP13 DUP13 PUSH2 0x100 DUP3 ADD SWAP6 MLOAD SWAP2 ADD MSTORE MLOAD SWAP1 DUP13 ADD MSTORE MLOAD SWAP9 PUSH1 0xE0 PUSH1 0x60 DUP13 ADD MSTORE DUP10 MLOAD DUP1 SWAP3 MSTORE DUP1 PUSH2 0x120 DUP13 ADD SWAP11 ADD SWAP4 JUMPDEST DUP3 DUP2 LT PUSH2 0x8FE JUMPI POP POP POP POP POP PUSH1 0xFF DUP8 SWAP9 MLOAD AND PUSH1 0x80 DUP9 ADD MSTORE MLOAD ISZERO ISZERO PUSH1 0xA0 DUP8 ADD MSTORE MLOAD AND PUSH1 0xC0 DUP6 ADD MSTORE MLOAD AND PUSH1 0xE0 DUP4 ADD MSTORE SUB SWAP1 RETURN JUMPDEST DUP5 MLOAD DUP12 MSTORE SWAP10 DUP2 ADD SWAP10 SWAP4 DUP2 ADD SWAP4 DUP4 ADD PUSH2 0x8CD JUMP JUMPDEST POP POP CALLVALUE PUSH2 0x1E5 JUMPI PUSH1 0x20 CALLDATASIZE PUSH1 0x3 NOT ADD SLT PUSH2 0x1E5 JUMPI CALLDATALOAD PUSH1 0x1 PUSH1 0x1 PUSH1 0xA0 SHL SUB DUP2 AND SWAP1 DUP2 SWAP1 SUB PUSH2 0x1E5 JUMPI PUSH2 0x93F PUSH2 0xA86 JUMP JUMPDEST PUSH1 0x8 DUP1 SLOAD PUSH1 0x1 PUSH1 0x1 PUSH1 0xA0 SHL SUB NOT AND DUP3 OR SWAP1 SSTORE PUSH32 0xBA20270F1DB7D5BA92574E021388B3ED01069A5C039D928A0F6343C565E4059E DUP3 DUP1 LOG2 DUP1 RETURN JUMPDEST POP DUP3 CALLVALUE PUSH2 0x5E0 JUMPI PUSH1 0x20 CALLDATASIZE PUSH1 0x3 NOT ADD SLT PUSH2 0x5E0 JUMPI DUP3 CALLDATALOAD SWAP1 PUSH1 0x1 PUSH1 0x1 PUSH1 0x40 SHL SUB DUP3 GT PUSH2 0x5E0 JUMPI POP PUSH2 0x9AF PUSH1 0x20 SWAP4 PUSH2 0x700 SWAP3 CALLDATASIZE SWAP2 ADD PUSH2 0xA24 JUMP JUMPDEST SWAP1 PUSH2 0xF30 JUMP JUMPDEST POP SWAP1 CALLVALUE PUSH2 0x1B8 JUMPI PUSH1 0x20 CALLDATASIZE PUSH1 0x3 NOT ADD SLT PUSH2 0x1B8 JUMPI DUP2 PUSH1 0x20 SWAP4 PUSH1 0xFF SWAP3 CALLDATALOAD DUP2 MSTORE PUSH1 0x7 DUP6 MSTORE KECCAK256 SLOAD AND SWAP1 MLOAD SWAP1 ISZERO ISZERO DUP2 MSTORE RETURN JUMPDEST DUP4 DUP3 CALLVALUE PUSH2 0x1E5 JUMPI DUP2 PUSH1 0x3 NOT CALLDATASIZE ADD SLT PUSH2 0x1E5 JUMPI PUSH1 0x20 SWAP1 MLOAD PUSH2 0x100 DUP2 MSTORE RETURN JUMPDEST DUP5 SWAP1 CALLVALUE PUSH2 0x1E5 JUMPI DUP2 PUSH1 0x3 NOT CALLDATASIZE ADD SLT PUSH2 0x1E5 JUMPI PUSH1 0x8 SLOAD PUSH1 0x1 PUSH1 0x1 PUSH1 0xA0 SHL SUB AND DUP2 MSTORE PUSH1 0x20 SWAP1 RETURN JUMPDEST SWAP2 DUP2 PUSH1 0x1F DUP5 ADD SLT ISZERO PUSH2 0xA54 JUMPI DUP3 CALLDATALOAD SWAP2 PUSH1 0x1 PUSH1 0x1 PUSH1 0x40 SHL SUB DUP4 GT PUSH2 0xA54 JUMPI PUSH1 0x20 DUP1 DUP6 ADD SWAP5 DUP5 PUSH1 0x5 SHL ADD ADD GT PUSH2 0xA54 JUMPI JUMP JUMPDEST PUSH1 0x0 DUP1 REVERT JUMPDEST SWAP2 DUP2 PUSH1 0x1F DUP5 ADD SLT ISZERO PUSH2 0xA54 JUMPI DUP3 CALLDATALOAD SWAP2 PUSH1 0x1 PUSH1 0x1 PUSH1 0x40 SHL SUB DUP4 GT PUSH2 0xA54 JUMPI PUSH1 0x20 DUP4 DUP2 DUP7 ADD SWAP6 ADD ADD GT PUSH2 0xA54 JUMPI JUMP JUMPDEST PUSH1 0x0 SLOAD PUSH1 0x1 PUSH1 0x1 PUSH1 0xA0 SHL SUB AND CALLER SUB PUSH2 0xA9A JUMPI JUMP JUMPDEST PUSH1 0x40 MLOAD PUSH4 0x118CDAA7 PUSH1 0xE0 SHL DUP2 MSTORE CALLER PUSH1 0x4 DUP3 ADD MSTORE PUSH1 0x24 SWAP1 REVERT JUMPDEST PUSH1 0x0 NOT DUP2 EQ PUSH2 0xAC1 JUMPI PUSH1 0x1 ADD SWAP1 JUMP JUMPDEST PUSH4 0x4E487B71 PUSH1 0xE0 SHL PUSH1 0x0 MSTORE PUSH1 0x11 PUSH1 0x4 MSTORE PUSH1 0x24 PUSH1 0x0 REVERT JUMPDEST SWAP2 SWAP1 DUP2 LT ISZERO PUSH2 0xAE7 JUMPI PUSH1 0x5 SHL ADD SWAP1 JUMP JUMPDEST PUSH4 0x4E487B71 PUSH1 0xE0 SHL PUSH1 0x0 MSTORE PUSH1 0x32 PUSH1 0x4 MSTORE PUSH1 0x24 PUSH1 0x0 REVERT JUMPDEST DUP1 SLOAD DUP3 LT ISZERO PUSH2 0xAE7 JUMPI PUSH1 0x0 MSTORE PUSH1 0x20 PUSH1 0x0 KECCAK256 ADD SWAP1 PUSH1 0x0 SWAP1 JUMP JUMPDEST DUP1 SLOAD SWAP1 PUSH1 0x1 PUSH1 0x40 SHL DUP3 LT ISZERO PUSH2 0xB52 JUMPI DUP2 PUSH2 0xB37 SWAP2 PUSH1 0x1 PUSH2 0xB4E SWAP5 ADD DUP2 SSTORE PUSH2 0xAFD JUMP JUMPDEST DUP2 SWAP4 SWAP2 SLOAD SWAP1 PUSH1 0x3 SHL SWAP2 DUP3 SHL SWAP2 PUSH1 0x0 NOT SWAP1 SHL NOT AND OR SWAP1 JUMP JUMPDEST SWAP1 SSTORE JUMP JUMPDEST PUSH4 0x4E487B71 PUSH1 0xE0 SHL PUSH1 0x0 MSTORE PUSH1 0x41 PUSH1 0x4 MSTORE PUSH1 0x24 PUSH1 0x0 REVERT JUMPDEST PUSH1 0xE0 DUP2 ADD SWAP1 DUP2 LT PUSH1 0x1 PUSH1 0x1 PUSH1 0x40 SHL SUB DUP3 GT OR PUSH2 0xB52 JUMPI PUSH1 0x40 MSTORE JUMP JUMPDEST PUSH1 0x40 DUP2 ADD SWAP1 DUP2 LT PUSH1 0x1 PUSH1 0x1 PUSH1 0x40 SHL SUB DUP3 GT OR PUSH2 0xB52 JUMPI PUSH1 0x40 MSTORE JUMP JUMPDEST SWAP1 PUSH1 0x1F DUP1 NOT SWAP2 ADD AND DUP2 ADD SWAP1 DUP2 LT PUSH1 0x1 PUSH1 0x1 PUSH1 0x40 SHL SUB DUP3 GT OR PUSH2 0xB52 JUMPI PUSH1 0x40 MSTORE JUMP JUMPDEST SWAP1 DUP2 PUSH1 0x20 SWAP2 SUB SLT PUSH2 0xA54 JUMPI MLOAD DUP1 ISZERO ISZERO DUP2 SUB PUSH2 0xA54 JUMPI SWAP1 JUMP JUMPDEST SWAP1 SWAP4 SWAP3 PUSH1 0x0 DUP3 DUP2 MSTORE PUSH1 0x20 SWAP4 PUSH1 0x3 DUP6 MSTORE PUSH1 0xFF SWAP5 PUSH1 0x40 SWAP3 DUP7 DUP5 DUP3 KECCAK256 SLOAD AND ISZERO PUSH2 0xEED JUMPI DUP6 DUP2 MSTORE PUSH1 0x2 DUP3 MSTORE DUP4 DUP2 KECCAK256 DUP8 PUSH1 0x1 DUP3 ADD SLOAD PUSH1 0xE0 SHR AND ISZERO PUSH2 0xED5 JUMPI SLOAD DUP1 DUP5 SUB PUSH2 0xEB8 JUMPI POP PUSH1 0x1 SLOAD PUSH1 0x1 PUSH1 0x1 PUSH1 0xA0 SHL SUB AND DUP2 JUMPDEST DUP5 DUP2 LT PUSH2 0xD7D JUMPI POP POP PUSH2 0xC3A DUP4 DUP11 PUSH2 0xF30 JUMP JUMPDEST DUP6 DUP2 SUB PUSH2 0xD60 JUMPI POP PUSH1 0x4 SLOAD SWAP7 SWAP9 PUSH2 0xC50 DUP9 PUSH2 0xAB2 JUMP JUMPDEST PUSH1 0x4 SSTORE DUP8 DUP3 MSTORE PUSH1 0x5 DUP4 MSTORE DUP5 DUP3 KECCAK256 DUP8 DUP2 SSTORE PUSH1 0x1 DUP2 ADD DUP8 SWAP1 SSTORE PUSH1 0x3 DUP2 ADD DUP1 SLOAD PUSH3 0x10000 PUSH1 0x1 PUSH1 0xF0 SHL SUB NOT PUSH2 0xFFFF NOT SWAP2 SWAP1 SWAP2 AND SWAP13 DUP8 AND SWAP13 DUP14 OR PUSH2 0x100 OR AND TIMESTAMP PUSH1 0x10 SHL PUSH10 0xFFFFFFFFFFFFFFFF0000 AND OR CALLER PUSH1 0x50 SHL PUSH1 0x1 PUSH1 0x50 SHL PUSH1 0x1 PUSH1 0xF0 SHL SUB AND OR SWAP1 SSTORE SWAP8 SWAP10 DUP11 SWAP9 SWAP1 SWAP5 PUSH1 0x2 SWAP1 SWAP2 ADD SWAP1 DUP4 JUMPDEST DUP2 DUP2 LT PUSH2 0xD42 JUMPI POP POP POP POP DUP6 DUP2 MSTORE PUSH1 0x6 DUP3 MSTORE DUP4 DUP2 KECCAK256 DUP1 SLOAD SWAP2 PUSH1 0x1 PUSH1 0x40 SHL DUP4 LT ISZERO PUSH2 0xD2E JUMPI POP SWAP3 PUSH1 0x1 SWAP3 DUP9 PUSH2 0xD1E PUSH2 0xB37 DUP6 PUSH32 0x6FAF02F204BAEAAF295439E5483B112C706763054453BED74B5D8647E82CA55B SWAP11 SWAP9 DUP9 PUSH1 0x60 SWAP12 SWAP9 ADD DUP2 SSTORE PUSH2 0xAFD JUMP JUMPDEST SWAP1 SSTORE DUP3 MLOAD SWAP5 DUP6 MSTORE DUP5 ADD MSTORE DUP3 ADD MSTORE LOG3 JUMP JUMPDEST PUSH4 0x4E487B71 PUSH1 0xE0 SHL DUP2 MSTORE PUSH1 0x41 PUSH1 0x4 MSTORE PUSH1 0x24 SWAP1 REVERT JUMPDEST DUP1 PUSH2 0x420 PUSH2 0xD54 PUSH2 0xD5B SWAP4 DUP6 DUP9 PUSH2 0xAD7 JUMP JUMPDEST CALLDATALOAD DUP6 PUSH2 0xB15 JUMP JUMPDEST PUSH2 0xCBD JUMP JUMPDEST PUSH1 0x44 SWAP1 DUP7 DUP7 MLOAD SWAP2 PUSH4 0x27C4ED97 PUSH1 0xE2 SHL DUP4 MSTORE PUSH1 0x4 DUP4 ADD MSTORE PUSH1 0x24 DUP3 ADD MSTORE REVERT JUMPDEST PUSH2 0xD88 DUP2 DUP7 DUP14 PUSH2 0xAD7 JUMP JUMPDEST DUP7 MLOAD PUSH4 0x488DBFAD PUSH1 0xE0 SHL DUP2 MSTORE SWAP1 CALLDATALOAD PUSH1 0x4 DUP1 DUP4 ADD DUP3 SWAP1 MSTORE SWAP2 PUSH1 0x24 SWAP1 DUP8 DUP2 DUP4 DUP2 DUP10 GAS STATICCALL SWAP1 DUP2 ISZERO PUSH2 0xE6D JUMPI DUP8 SWAP2 PUSH2 0xE8B JUMPI JUMPDEST POP ISZERO PUSH2 0xE77 JUMPI DUP9 MLOAD PUSH4 0xCD68A831 PUSH1 0xE0 SHL DUP2 MSTORE DUP4 DUP2 ADD DUP4 SWAP1 MSTORE DUP8 DUP2 DUP4 DUP2 DUP10 GAS STATICCALL SWAP1 DUP2 ISZERO PUSH2 0xE6D JUMPI SWAP1 DUP14 SWAP2 DUP9 SWAP2 PUSH2 0xE2F JUMPI JUMPDEST POP AND SWAP2 PUSH1 0x28 DUP4 LT ISZERO DUP1 PUSH2 0xE24 JUMPI JUMPDEST PUSH2 0xE0B JUMPI POP POP POP POP PUSH2 0xE06 SWAP1 PUSH2 0xAB2 JUMP JUMPDEST PUSH2 0xC27 JUMP JUMPDEST DUP10 MLOAD PUSH4 0x379A7713 PUSH1 0xE2 SHL DUP2 MSTORE SWAP4 DUP5 ADD MSTORE DUP3 ADD MSTORE PUSH1 0x44 SWAP2 POP REVERT JUMPDEST POP PUSH1 0x2A DUP4 GT ISZERO PUSH2 0xDF5 JUMP JUMPDEST DUP1 SWAP3 POP DUP10 DUP1 SWAP3 POP RETURNDATASIZE DUP4 GT PUSH2 0xE66 JUMPI JUMPDEST PUSH2 0xE48 DUP2 DUP4 PUSH2 0xB9E JUMP JUMPDEST DUP2 ADD SUB SLT PUSH2 0xE62 JUMPI MLOAD DUP13 DUP2 AND DUP2 SUB PUSH2 0xE62 JUMPI DUP13 SWAP1 CODESIZE PUSH2 0xDE7 JUMP JUMPDEST DUP7 DUP1 REVERT JUMPDEST POP RETURNDATASIZE PUSH2 0xE3E JUMP JUMPDEST DUP11 MLOAD RETURNDATASIZE DUP10 DUP3 RETURNDATACOPY RETURNDATASIZE SWAP1 REVERT JUMPDEST SWAP3 POP DUP8 MLOAD SWAP2 PUSH4 0x2047F235 PUSH1 0xE2 SHL DUP4 MSTORE DUP3 ADD MSTORE REVERT JUMPDEST PUSH2 0xEAB SWAP2 POP DUP9 RETURNDATASIZE DUP11 GT PUSH2 0xEB1 JUMPI JUMPDEST PUSH2 0xEA3 DUP2 DUP4 PUSH2 0xB9E JUMP JUMPDEST DUP2 ADD SWAP1 PUSH2 0xBBF JUMP JUMPDEST CODESIZE PUSH2 0xDB7 JUMP JUMPDEST POP RETURNDATASIZE PUSH2 0xE99 JUMP JUMPDEST PUSH1 0x44 SWAP1 DUP5 DUP7 MLOAD SWAP2 PUSH4 0x4C1EB769 PUSH1 0xE1 SHL DUP4 MSTORE PUSH1 0x4 DUP4 ADD MSTORE PUSH1 0x24 DUP3 ADD MSTORE REVERT JUMPDEST DUP5 MLOAD PUSH4 0xB79EACFB PUSH1 0xE0 SHL DUP2 MSTORE PUSH1 0x4 DUP2 ADD DUP9 SWAP1 MSTORE PUSH1 0x24 SWAP1 REVERT JUMPDEST DUP4 MLOAD PUSH4 0x760A053 PUSH1 0xE3 SHL DUP2 MSTORE PUSH1 0x4 DUP2 ADD DUP8 SWAP1 MSTORE PUSH1 0x24 SWAP1 REVERT JUMPDEST PUSH1 0x1 PUSH1 0x1 PUSH1 0x40 SHL SUB DUP2 GT PUSH2 0xB52 JUMPI PUSH1 0x5 SHL PUSH1 0x20 ADD SWAP1 JUMP JUMPDEST DUP1 MLOAD DUP3 LT ISZERO PUSH2 0xAE7 JUMPI PUSH1 0x20 SWAP2 PUSH1 0x5 SHL ADD ADD SWAP1 JUMP JUMPDEST SWAP1 DUP1 PUSH1 0x1 SWAP2 DUP3 DUP2 EQ PUSH2 0x111C JUMPI PUSH2 0xF45 DUP2 PUSH2 0xF05 JUMP JUMPDEST SWAP3 PUSH1 0x40 SWAP3 PUSH2 0xF55 DUP5 MLOAD SWAP6 DUP7 PUSH2 0xB9E JUMP JUMPDEST DUP3 DUP6 MSTORE PUSH2 0xF61 DUP4 PUSH2 0xF05 JUMP JUMPDEST SWAP6 PUSH1 0x20 SWAP4 DUP5 DUP8 ADD SWAP8 PUSH1 0x1F NOT ADD CALLDATASIZE DUP10 CALLDATACOPY PUSH1 0x0 JUMPDEST DUP2 DUP2 LT PUSH2 0x10FD JUMPI POP POP POP DUP2 DUP1 JUMPDEST PUSH2 0x1055 JUMPI JUMPDEST POP JUMPDEST DUP2 DUP2 GT PUSH2 0xF9C JUMPI POP POP POP POP MLOAD ISZERO PUSH2 0xAE7 JUMPI MLOAD SWAP1 JUMP JUMPDEST DUP2 DUP2 ADD DUP1 DUP3 GT PUSH2 0xAC1 JUMPI DUP3 SHR SWAP1 PUSH1 0x0 JUMPDEST DUP3 DUP2 LT PUSH2 0xFBA JUMPI POP POP PUSH2 0xF87 JUMP JUMPDEST DUP1 DUP5 SHL SWAP1 DUP1 DUP3 DIV PUSH1 0x2 EQ DUP2 ISZERO OR ISZERO PUSH2 0xAC1 JUMPI DUP5 DUP3 ADD SWAP2 DUP3 DUP2 GT PUSH2 0xAC1 JUMPI DUP4 DUP4 LT ISZERO PUSH2 0x103B JUMPI PUSH2 0xFEC PUSH2 0xFF4 SWAP2 DUP11 PUSH2 0xF1C JUMP JUMPDEST MLOAD SWAP3 DUP10 PUSH2 0xF1C JUMP JUMPDEST MLOAD SWAP2 DUP8 MLOAD SWAP3 DUP8 DUP5 ADD SWAP2 DUP3 MSTORE DUP9 DUP5 ADD MSTORE DUP8 DUP4 MSTORE PUSH1 0x60 DUP4 ADD SWAP3 DUP1 DUP5 LT PUSH1 0x1 PUSH1 0x1 PUSH1 0x40 SHL SUB DUP6 GT OR PUSH2 0xB52 JUMPI PUSH2 0x1036 SWAP4 DUP10 MSTORE MLOAD SWAP1 KECCAK256 PUSH2 0x1030 DUP3 DUP11 PUSH2 0xF1C JUMP JUMPDEST MSTORE PUSH2 0xAB2 JUMP JUMPDEST PUSH2 0xFAC JUMP JUMPDEST PUSH2 0x1036 SWAP3 POP PUSH2 0x104A SWAP1 DUP10 PUSH2 0xF1C JUMP JUMPDEST MLOAD PUSH2 0x1030 DUP3 DUP11 PUSH2 0xF1C JUMP JUMPDEST DUP6 MLOAD DUP2 LT ISZERO PUSH2 0x10F8 JUMPI DUP3 DUP2 PUSH2 0x106B DUP3 SWAP4 DUP10 PUSH2 0xF1C JUMP JUMPDEST MLOAD DUP2 SWAP4 JUMPDEST PUSH2 0x1088 JUMPI JUMPDEST PUSH2 0x1030 PUSH2 0x1082 SWAP4 SWAP5 DUP11 PUSH2 0xF1C JUMP JUMPDEST SWAP1 PUSH2 0xF80 JUMP JUMPDEST SWAP2 POP SWAP2 DUP1 ISZERO DUP6 DUP2 ISZERO DUP1 PUSH2 0x10D7 JUMPI JUMPDEST ISZERO PUSH2 0x10CC JUMPI POP PUSH1 0x0 NOT DUP3 ADD SWAP2 DUP1 DUP4 GT PUSH2 0xAC1 JUMPI PUSH2 0x10BE PUSH2 0x10B6 DUP5 DUP13 PUSH2 0xF1C JUMP JUMPDEST MLOAD SWAP2 DUP12 PUSH2 0xF1C JUMP JUMPDEST MSTORE PUSH2 0xAC1 JUMPI SWAP2 DUP5 SWAP2 DUP3 PUSH2 0x106F JUMP JUMPDEST SWAP3 SWAP1 POP SWAP3 SWAP1 SWAP3 PUSH2 0x1074 JUMP JUMPDEST POP POP PUSH1 0x0 NOT DUP3 ADD DUP3 DUP2 GT PUSH2 0xAC1 JUMPI DUP4 PUSH2 0x10F1 DUP9 SWAP3 DUP13 PUSH2 0xF1C JUMP JUMPDEST MLOAD GT PUSH2 0x1096 JUMP JUMPDEST PUSH2 0xF85 JUMP JUMPDEST DUP1 PUSH2 0x110C PUSH2 0x1117 SWAP3 DUP5 DUP7 PUSH2 0xAD7 JUMP JUMPDEST CALLDATALOAD PUSH2 0x1030 DUP3 DUP12 PUSH2 0xF1C JUMP JUMPDEST PUSH2 0xF73 JUMP JUMPDEST SWAP2 POP POP ISZERO PUSH2 0xAE7 JUMPI CALLDATALOAD SWAP1 JUMP JUMPDEST SWAP1 PUSH1 0x40 MLOAD SWAP2 DUP3 DUP2 SLOAD SWAP2 DUP3 DUP3 MSTORE PUSH1 0x20 SWAP3 DUP4 DUP4 ADD SWAP2 PUSH1 0x0 MSTORE DUP4 PUSH1 0x0 KECCAK256 SWAP4 PUSH1 0x0 SWAP1 JUMPDEST DUP3 DUP3 LT PUSH2 0x115F JUMPI POP POP POP PUSH2 0x115D SWAP3 POP SUB DUP4 PUSH2 0xB9E JUMP JUMPDEST JUMP JUMPDEST DUP6 SLOAD DUP5 MSTORE PUSH1 0x1 SWAP6 DUP7 ADD SWAP6 DUP9 SWAP6 POP SWAP4 DUP2 ADD SWAP4 SWAP1 SWAP2 ADD SWAP1 PUSH2 0x1147 JUMP JUMPDEST SWAP1 DUP1 PUSH1 0x1F DUP4 ADD SLT ISZERO PUSH2 0xA54 JUMPI PUSH1 0x40 MLOAD SWAP2 PUSH2 0x1192 DUP4 PUSH2 0xB83 JUMP JUMPDEST DUP3 SWAP1 PUSH1 0x40 DUP2 ADD SWAP3 DUP4 GT PUSH2 0xA54 JUMPI SWAP1 JUMPDEST DUP3 DUP3 LT PUSH2 0x11AE JUMPI POP POP POP SWAP1 JUMP JUMPDEST DUP2 MLOAD DUP2 MSTORE PUSH1 0x20 SWAP2 DUP3 ADD SWAP2 ADD PUSH2 0x11A1 JUMP JUMPDEST PUSH1 0x0 SWAP2 JUMPDEST PUSH1 0x2 DUP4 LT PUSH2 0x11CF JUMPI POP POP POP JUMP JUMPDEST PUSH1 0x1 SWAP1 DUP3 MLOAD DUP2 MSTORE PUSH1 0x20 DUP1 SWAP2 ADD SWAP3 ADD SWAP3 ADD SWAP2 SWAP1 PUSH2 0x11C2 JUMP JUMPDEST PUSH1 0x8 SLOAD SWAP1 SWAP4 SWAP2 SWAP3 SWAP1 PUSH1 0x1 PUSH1 0x1 PUSH1 0xA0 SHL SUB AND DUP1 ISZERO DUP1 ISZERO PUSH2 0x13FD JUMPI JUMPDEST PUSH2 0x13F1 JUMPI PUSH2 0x100 DUP1 DUP5 SUB PUSH2 0x13E6 JUMPI PUSH1 0x1 PUSH1 0x1 PUSH1 0x40 SHL SUB DUP1 DUP6 GT PUSH2 0xB52 JUMPI PUSH1 0x40 SWAP7 DUP8 MLOAD SWAP7 PUSH1 0x20 SWAP7 PUSH2 0x1239 DUP9 PUSH1 0x1F NOT PUSH1 0x1F DUP5 ADD AND ADD DUP11 PUSH2 0xB9E JUMP JUMPDEST DUP1 DUP10 MSTORE DUP8 DUP10 ADD SWAP1 CALLDATASIZE DUP2 DUP10 ADD GT PUSH2 0xA54 JUMPI DUP1 DUP10 SWAP9 DUP4 CALLDATACOPY PUSH1 0x0 SWAP8 DUP9 SWAP2 DUP12 ADD ADD MSTORE DUP9 MLOAD DUP10 ADD SWAP5 DUP10 DUP10 DUP8 ADD SWAP7 SUB SLT PUSH2 0xE62 JUMPI DUP5 PUSH2 0x1271 SWAP2 PUSH2 0x1179 JUMP JUMPDEST SWAP4 DUP1 PUSH1 0x7F DUP11 ADD SLT ISZERO PUSH2 0xE62 JUMPI DUP10 MLOAD SWAP9 PUSH2 0x1289 DUP11 PUSH2 0xB83 JUMP JUMPDEST DUP10 PUSH1 0xE0 DUP3 ADD SWAP2 DUP4 DUP4 GT PUSH2 0x13E2 JUMPI DUP11 PUSH1 0x60 DUP15 SWAP3 ADD SWAP3 JUMPDEST DUP5 DUP5 LT PUSH2 0x13CA JUMPI POP POP POP POP SWAP1 PUSH2 0x12B3 SWAP2 PUSH2 0x1179 JUMP JUMPDEST SWAP2 DUP10 MLOAD SWAP4 PUSH1 0x80 DUP6 ADD SWAP1 DUP6 DUP3 LT SWAP1 DUP3 GT OR PUSH2 0x13B6 JUMPI DUP11 MSTORE DUP7 DUP5 MSTORE DUP4 DUP9 ADD MSTORE DUP9 DUP4 ADD MSTORE PUSH1 0x60 DUP3 ADD DUP6 SWAP1 MSTORE DUP8 MLOAD PUSH4 0x5FE8C13B PUSH1 0xE0 SHL DUP2 MSTORE SWAP7 DUP7 SWAP5 DUP9 SWAP5 SWAP1 SWAP4 PUSH1 0x4 SWAP4 SWAP1 SWAP3 SWAP1 SWAP2 PUSH2 0x1302 SWAP1 DUP6 DUP9 ADD SWAP1 PUSH2 0x11BE JUMP JUMPDEST DUP8 DUP12 PUSH1 0x44 DUP9 ADD JUMPDEST PUSH1 0x2 DUP4 LT PUSH2 0x138C JUMPI POP POP POP POP PUSH2 0x1323 SWAP1 PUSH1 0xC4 DUP7 ADD SWAP1 PUSH2 0x11BE JUMP JUMPDEST DUP6 SWAP1 PUSH2 0x104 DUP6 ADD JUMPDEST DUP4 DUP4 LT PUSH2 0x1372 JUMPI POP POP POP POP DUP2 PUSH2 0x184 SWAP2 GAS STATICCALL SWAP4 DUP5 ISZERO PUSH2 0x1368 JUMPI POP SWAP3 PUSH2 0x134F JUMPI POP POP SWAP1 JUMP JUMPDEST PUSH2 0x1365 SWAP3 POP DUP1 RETURNDATASIZE LT PUSH2 0xEB1 JUMPI PUSH2 0xEA3 DUP2 DUP4 PUSH2 0xB9E JUMP JUMPDEST SWAP1 JUMP JUMPDEST MLOAD SWAP1 RETURNDATASIZE SWAP1 DUP3 RETURNDATACOPY RETURNDATASIZE SWAP1 REVERT JUMPDEST DUP2 MLOAD DUP2 MSTORE DUP9 SWAP7 DUP11 SWAP7 POP PUSH1 0x1 SWAP4 SWAP1 SWAP4 ADD SWAP3 SWAP2 DUP3 ADD SWAP2 ADD PUSH2 0x132B JUMP JUMPDEST DUP4 SWAP6 SWAP8 SWAP10 SWAP3 SWAP5 SWAP7 SWAP9 POP PUSH2 0x13A2 DUP2 PUSH1 0x1 SWAP6 MLOAD PUSH2 0x11BE JUMP JUMPDEST ADD SWAP4 ADD SWAP2 ADD SWAP1 DUP10 SWAP6 SWAP4 SWAP2 DUP12 DUP11 SWAP9 SWAP7 SWAP5 PUSH2 0x1309 JUMP JUMPDEST PUSH4 0x4E487B71 PUSH1 0xE0 SHL DUP9 MSTORE PUSH1 0x41 PUSH1 0x4 MSTORE PUSH1 0x24 DUP9 REVERT JUMPDEST PUSH2 0x13D4 DUP7 DUP6 PUSH2 0x1179 JUMP JUMPDEST DUP2 MSTORE ADD SWAP2 ADD SWAP1 DUP11 DUP14 SWAP2 PUSH2 0x129E JUMP JUMPDEST DUP10 DUP1 REVERT JUMPDEST POP POP POP POP POP POP PUSH1 0x0 SWAP1 JUMP JUMPDEST POP POP PUSH2 0x100 EQ SWAP3 SWAP2 POP POP JUMP JUMPDEST POP PUSH1 0x1 PUSH2 0x1200 JUMP JUMPDEST SWAP4 SWAP5 SWAP1 SWAP5 PUSH1 0x1 DUP1 PUSH1 0xA0 SHL SUB PUSH1 0x8 SLOAD AND SWAP2 DUP3 ISZERO DUP1 ISZERO PUSH2 0x1600 JUMPI JUMPDEST PUSH2 0x15F1 JUMPI PUSH2 0x100 SWAP2 DUP3 DUP7 SUB PUSH2 0x15E4 JUMPI PUSH1 0x1 PUSH1 0x1 PUSH1 0x40 SHL SUB SWAP2 DUP3 DUP8 GT PUSH2 0xB52 JUMPI PUSH1 0x40 SWAP9 DUP10 MLOAD SWAP9 PUSH1 0x20 SWAP9 PUSH2 0x1459 DUP11 PUSH1 0x1F NOT PUSH1 0x1F DUP5 ADD AND ADD DUP13 PUSH2 0xB9E JUMP JUMPDEST DUP1 DUP12 MSTORE DUP10 DUP12 ADD SWAP1 CALLDATASIZE DUP2 DUP12 ADD GT PUSH2 0xA54 JUMPI DUP1 DUP12 SWAP11 DUP4 CALLDATACOPY PUSH1 0x0 SWAP10 DUP11 SWAP2 DUP14 ADD ADD MSTORE DUP11 MLOAD DUP12 ADD SWAP7 DUP12 DUP12 DUP10 ADD SWAP9 SUB SLT PUSH2 0x15E0 JUMPI DUP7 PUSH2 0x1491 SWAP2 PUSH2 0x1179 JUMP JUMPDEST SWAP6 DUP1 PUSH1 0x7F DUP13 ADD SLT ISZERO PUSH2 0x15E0 JUMPI DUP12 MLOAD SWAP11 PUSH2 0x14A9 DUP13 PUSH2 0xB83 JUMP JUMPDEST DUP12 PUSH1 0xE0 DUP3 ADD SWAP2 DUP4 DUP4 GT PUSH2 0x15DC JUMPI DUP13 DUP16 SWAP2 PUSH1 0x60 ADD SWAP3 JUMPDEST DUP5 DUP5 LT PUSH2 0x15C4 JUMPI POP POP POP POP SWAP1 PUSH2 0x14D3 SWAP2 PUSH2 0x1179 JUMP JUMPDEST SWAP4 DUP12 MLOAD SWAP6 PUSH1 0x80 DUP8 ADD SWAP1 DUP8 DUP3 LT SWAP1 DUP3 GT OR PUSH2 0x15B0 JUMPI DUP13 MSTORE DUP6 MSTORE DUP5 DUP10 ADD MSTORE DUP10 DUP5 ADD MSTORE PUSH1 0x60 DUP4 ADD MSTORE DUP8 MLOAD PUSH4 0x5FE8C13B PUSH1 0xE0 SHL DUP2 MSTORE SWAP7 DUP7 SWAP5 DUP9 SWAP5 SWAP1 SWAP4 PUSH1 0x4 SWAP4 SWAP1 SWAP3 SWAP1 SWAP2 PUSH2 0x151F SWAP1 DUP6 DUP9 ADD SWAP1 PUSH2 0x11BE JUMP JUMPDEST DUP8 DUP12 PUSH1 0x44 DUP9 ADD JUMPDEST PUSH1 0x2 DUP4 LT PUSH2 0x1586 JUMPI POP POP POP POP PUSH2 0x1540 SWAP1 PUSH1 0xC4 DUP7 ADD SWAP1 PUSH2 0x11BE JUMP JUMPDEST DUP6 SWAP1 PUSH2 0x104 DUP6 ADD JUMPDEST DUP4 DUP4 LT PUSH2 0x156C JUMPI POP POP POP POP DUP2 PUSH2 0x184 SWAP2 GAS STATICCALL SWAP4 DUP5 ISZERO PUSH2 0x1368 JUMPI POP SWAP3 PUSH2 0x134F JUMPI POP POP SWAP1 JUMP JUMPDEST DUP2 MLOAD DUP2 MSTORE DUP9 SWAP7 DUP11 SWAP7 POP PUSH1 0x1 SWAP4 SWAP1 SWAP4 ADD SWAP3 SWAP2 DUP3 ADD SWAP2 ADD PUSH2 0x1548 JUMP JUMPDEST DUP4 SWAP6 SWAP8 SWAP10 SWAP3 SWAP5 SWAP7 SWAP9 POP PUSH2 0x159C DUP2 PUSH1 0x1 SWAP6 MLOAD PUSH2 0x11BE JUMP JUMPDEST ADD SWAP4 ADD SWAP2 ADD SWAP1 DUP10 SWAP6 SWAP4 SWAP2 DUP12 DUP11 SWAP9 SWAP7 SWAP5 PUSH2 0x1526 JUMP JUMPDEST PUSH4 0x4E487B71 PUSH1 0xE0 SHL DUP11 MSTORE PUSH1 0x41 PUSH1 0x4 MSTORE PUSH1 0x24 DUP11 REVERT JUMPDEST PUSH2 0x15CE DUP7 DUP6 PUSH2 0x1179 JUMP JUMPDEST DUP2 MSTORE ADD SWAP2 ADD SWAP1 DUP13 DUP16 SWAP2 PUSH2 0x14BE JUMP JUMPDEST DUP12 DUP1 REVERT JUMPDEST DUP9 DUP1 REVERT JUMPDEST POP POP POP POP POP POP POP POP PUSH1 0x0 SWAP1 JUMP JUMPDEST POP POP POP POP SWAP1 POP PUSH2 0x100 SWAP2 POP EQ SWAP1 JUMP JUMPDEST POP DUP2 ISZERO PUSH2 0x141E JUMP INVALID LOG2 PUSH5 0x6970667358 0x22 SLT KECCAK256 0x22 0x49 0xAE 0xA5 0xAB 0xD8 SIGNEXTEND LOG2 0x4A PUSH25 0xC6224FFDB2FABF5D65975EE94B1C8BBD8F5E6CF4BFAE64736F PUSH13 0x63430008140033000000000000 "},"methodIdentifiers":{"CHEAT_INFERENCE_MAX()":"de62201a","CHEAT_INFERENCE_MIN()":"c37a636b","MAX_TEAM_SIZE()":"d4b9c129","MIN_TEAM_SIZE()":"8ad6fcfb","MOCK_PROOF_SIZE()":"12a9016e","ZK_VERSION()":"604a0902","computeMerkleRoot(bytes32[])":"2b8b906c","createTeam(bytes32,bytes32[])":"c3a39536","getTeam(bytes32)":"4bb34a7d","getTeamProof(uint256)":"3bd56175","getTeamProofCount(bytes32)":"c0d3f385","getTeamProofIds(bytes32)":"638371ee","owner()":"8da5cb5b","poACVerifier()":"f1cf7905","proofCount()":"addecc06","renounceOwnership()":"715018a6","setTeamProofVerifier(address)":"34a1d644","submitTeamProof(bytes32,bytes32[],bytes32)":"50072dd7","submitTeamProofZK(bytes32,bytes32[],bytes32,bytes32,bytes)":"ef4a949e","submitTeamProofZK(bytes32,bytes32[],bytes32,bytes32,bytes,uint256,uint256)":"8635ca06","teamExists(bytes32)":"44ea6c69","teamProofVerifier()":"023e41b9","transferOwnership(address)":"f2fde38b","usedNullifiers(bytes32)":"206137aa"}}}}}