{"contracts/TournamentGate.sol":{"TournamentGate":{"abi":[{"inputs":[{"internalType":"address","name":"_phgRegistry","type":"address"},{"internalType":"uint256","name":"_minPHGScore","type":"uint256"}],"stateMutability":"nonpayable","type":"constructor"},{"inputs":[{"internalType":"bytes32","name":"deviceId","type":"bytes32"},{"internalType":"uint256","name":"have","type":"uint256"},{"internalType":"uint256","name":"need","type":"uint256"}],"name":"InsufficientHumanityScore","type":"error"},{"inputs":[{"internalType":"bytes32","name":"deviceId","type":"bytes32"}],"name":"assertEligible","outputs":[],"stateMutability":"view","type":"function"},{"inputs":[{"internalType":"bytes32","name":"deviceId","type":"bytes32"}],"name":"isEligible","outputs":[{"internalType":"bool","name":"","type":"bool"}],"stateMutability":"view","type":"function"},{"inputs":[],"name":"minPHGScore","outputs":[{"internalType":"uint256","name":"","type":"uint256"}],"stateMutability":"view","type":"function"},{"inputs":[],"name":"phgRegistry","outputs":[{"internalType":"contract PHGRegistry","name":"","type":"address"}],"stateMutability":"view","type":"function"}],"evm":{"bytecode":{"linkReferences":{},"object":"60c0346100f057601f61042938819003918201601f19168301916001600160401b038311848410176100f55780849260409485528339810103126100f05780516001600160a01b03811691908290036100f0576020015190801561009d5760805260a05260405161031d908161010c823960805181818160e6015281816101a60152610280015260a05181818160670152818160bb01526101e10152f35b60405162461bcd60e51b815260206004820152602560248201527f546f75726e616d656e74476174653a207a65726f207265676973747279206164604482015264647265737360d81b6064820152608490fd5b600080fd5b634e487b7160e01b600052604160045260246000fdfe608060408181526004918236101561001657600080fd5b600092833560e01c918263245cc4e71461026c575081632e82fb78146101775781633c74e0d91461008e575063a58043b51461005157600080fd5b3461008a578160031936011261008a57602090517f00000000000000000000000000000000000000000000000000000000000000008152f35b5080fd5b91905034610173576020928360031936011261015d578151633495c2e560e21b81528335938101939093527f0000000000000000000000000000000000000000000000000000000000000000602484015283836044817f00000000000000000000000000000000000000000000000000000000000000006001600160a01b03165afa928315610167578193610128575b5050519015158152f35b909192508381813d8311610160575b61014181836102af565b8101031261008a575190811515820361015d575090388061011e565b80fd5b503d610137565b509051903d90823e3d90fd5b8280fd5b919050346101735760203660031901126101735780516218cc9360e41b815282358184018190526020826024817f00000000000000000000000000000000000000000000000000000000000000006001600160a01b03165afa91821561026257859261022b575b507f00000000000000000000000000000000000000000000000000000000000000009283831061020c578580f35b51631750e4e960e21b8152938401526024830152604482015260649150fd5b9091506020813d821161025a575b81610246602093836102af565b81010312610256575190386101de565b8480fd5b3d9150610239565b83513d87823e3d90fd5b84903461008a578160031936011261008a577f00000000000000000000000000000000000000000000000000000000000000006001600160a01b03168152602090f35b90601f8019910116810190811067ffffffffffffffff8211176102d157604052565b634e487b7160e01b600052604160045260246000fdfea26469706673582212207832314329c9b5c762965b3e85ae9cb55a7599d1e4500bf03b8384d9afe81a6564736f6c63430008140033","opcodes":"PUSH1 0xC0 CALLVALUE PUSH2 0xF0 JUMPI PUSH1 0x1F PUSH2 0x429 CODESIZE DUP2 SWAP1 SUB SWAP2 DUP3 ADD PUSH1 0x1F NOT AND DUP4 ADD SWAP2 PUSH1 0x1 PUSH1 0x1 PUSH1 0x40 SHL SUB DUP4 GT DUP5 DUP5 LT OR PUSH2 0xF5 JUMPI DUP1 DUP5 SWAP3 PUSH1 0x40 SWAP5 DUP6 MSTORE DUP4 CODECOPY DUP2 ADD SUB SLT PUSH2 0xF0 JUMPI DUP1 MLOAD PUSH1 0x1 PUSH1 0x1 PUSH1 0xA0 SHL SUB DUP2 AND SWAP2 SWAP1 DUP3 SWAP1 SUB PUSH2 0xF0 JUMPI PUSH1 0x20 ADD MLOAD SWAP1 DUP1 ISZERO PUSH2 0x9D JUMPI PUSH1 0x80 MSTORE PUSH1 0xA0 MSTORE PUSH1 0x40 MLOAD PUSH2 0x31D SWAP1 DUP2 PUSH2 0x10C DUP3 CODECOPY PUSH1 0x80 MLOAD DUP2 DUP2 DUP2 PUSH1 0xE6 ADD MSTORE DUP2 DUP2 PUSH2 0x1A6 ADD MSTORE PUSH2 0x280 ADD MSTORE PUSH1 0xA0 MLOAD DUP2 DUP2 DUP2 PUSH1 0x67 ADD MSTORE DUP2 DUP2 PUSH1 0xBB ADD MSTORE PUSH2 0x1E1 ADD MSTORE RETURN JUMPDEST PUSH1 0x40 MLOAD PUSH3 0x461BCD PUSH1 0xE5 SHL DUP2 MSTORE PUSH1 0x20 PUSH1 0x4 DUP3 ADD MSTORE PUSH1 0x25 PUSH1 0x24 DUP3 ADD MSTORE PUSH32 0x546F75726E616D656E74476174653A207A65726F207265676973747279206164 PUSH1 0x44 DUP3 ADD MSTORE PUSH5 0x6472657373 PUSH1 0xD8 SHL PUSH1 0x64 DUP3 ADD MSTORE PUSH1 0x84 SWAP1 REVERT JUMPDEST PUSH1 0x0 DUP1 REVERT JUMPDEST PUSH4 0x4E487B71 PUSH1 0xE0 SHL PUSH1 0x0 MSTORE PUSH1 0x41 PUSH1 0x4 MSTORE PUSH1 0x24 PUSH1 0x0 REVERT INVALID PUSH1 0x80 PUSH1 0x40 DUP2 DUP2 MSTORE PUSH1 0x4 SWAP2 DUP3 CALLDATASIZE LT ISZERO PUSH2 0x16 JUMPI PUSH1 0x0 DUP1 REVERT JUMPDEST PUSH1 0x0 SWAP3 DUP4 CALLDATALOAD PUSH1 0xE0 SHR SWAP2 DUP3 PUSH4 0x245CC4E7 EQ PUSH2 0x26C JUMPI POP DUP2 PUSH4 0x2E82FB78 EQ PUSH2 0x177 JUMPI DUP2 PUSH4 0x3C74E0D9 EQ PUSH2 0x8E JUMPI POP PUSH4 0xA58043B5 EQ PUSH2 0x51 JUMPI PUSH1 0x0 DUP1 REVERT JUMPDEST CALLVALUE PUSH2 0x8A JUMPI DUP2 PUSH1 0x3 NOT CALLDATASIZE ADD SLT PUSH2 0x8A JUMPI PUSH1 0x20 SWAP1 MLOAD PUSH32 0x0 DUP2 MSTORE RETURN JUMPDEST POP DUP1 REVERT JUMPDEST SWAP2 SWAP1 POP CALLVALUE PUSH2 0x173 JUMPI PUSH1 0x20 SWAP3 DUP4 PUSH1 0x3 NOT CALLDATASIZE ADD SLT PUSH2 0x15D JUMPI DUP2 MLOAD PUSH4 0x3495C2E5 PUSH1 0xE2 SHL DUP2 MSTORE DUP4 CALLDATALOAD SWAP4 DUP2 ADD SWAP4 SWAP1 SWAP4 MSTORE PUSH32 0x0 PUSH1 0x24 DUP5 ADD MSTORE DUP4 DUP4 PUSH1 0x44 DUP2 PUSH32 0x0 PUSH1 0x1 PUSH1 0x1 PUSH1 0xA0 SHL SUB AND GAS STATICCALL SWAP3 DUP4 ISZERO PUSH2 0x167 JUMPI DUP2 SWAP4 PUSH2 0x128 JUMPI JUMPDEST POP POP MLOAD SWAP1 ISZERO ISZERO DUP2 MSTORE RETURN JUMPDEST SWAP1 SWAP2 SWAP3 POP DUP4 DUP2 DUP2 RETURNDATASIZE DUP4 GT PUSH2 0x160 JUMPI JUMPDEST PUSH2 0x141 DUP2 DUP4 PUSH2 0x2AF JUMP JUMPDEST DUP2 ADD SUB SLT PUSH2 0x8A JUMPI MLOAD SWAP1 DUP2 ISZERO ISZERO DUP3 SUB PUSH2 0x15D JUMPI POP SWAP1 CODESIZE DUP1 PUSH2 0x11E JUMP JUMPDEST DUP1 REVERT JUMPDEST POP RETURNDATASIZE PUSH2 0x137 JUMP JUMPDEST POP SWAP1 MLOAD SWAP1 RETURNDATASIZE SWAP1 DUP3 RETURNDATACOPY RETURNDATASIZE SWAP1 REVERT JUMPDEST DUP3 DUP1 REVERT JUMPDEST SWAP2 SWAP1 POP CALLVALUE PUSH2 0x173 JUMPI PUSH1 0x20 CALLDATASIZE PUSH1 0x3 NOT ADD SLT PUSH2 0x173 JUMPI DUP1 MLOAD PUSH3 0x18CC93 PUSH1 0xE4 SHL DUP2 MSTORE DUP3 CALLDATALOAD DUP2 DUP5 ADD DUP2 SWAP1 MSTORE PUSH1 0x20 DUP3 PUSH1 0x24 DUP2 PUSH32 0x0 PUSH1 0x1 PUSH1 0x1 PUSH1 0xA0 SHL SUB AND GAS STATICCALL SWAP2 DUP3 ISZERO PUSH2 0x262 JUMPI DUP6 SWAP3 PUSH2 0x22B JUMPI JUMPDEST POP PUSH32 0x0 SWAP3 DUP4 DUP4 LT PUSH2 0x20C JUMPI DUP6 DUP1 RETURN JUMPDEST MLOAD PUSH4 0x1750E4E9 PUSH1 0xE2 SHL DUP2 MSTORE SWAP4 DUP5 ADD MSTORE PUSH1 0x24 DUP4 ADD MSTORE PUSH1 0x44 DUP3 ADD MSTORE PUSH1 0x64 SWAP2 POP REVERT JUMPDEST SWAP1 SWAP2 POP PUSH1 0x20 DUP2 RETURNDATASIZE DUP3 GT PUSH2 0x25A JUMPI JUMPDEST DUP2 PUSH2 0x246 PUSH1 0x20 SWAP4 DUP4 PUSH2 0x2AF JUMP JUMPDEST DUP2 ADD SUB SLT PUSH2 0x256 JUMPI MLOAD SWAP1 CODESIZE PUSH2 0x1DE JUMP JUMPDEST DUP5 DUP1 REVERT JUMPDEST RETURNDATASIZE SWAP2 POP PUSH2 0x239 JUMP JUMPDEST DUP4 MLOAD RETURNDATASIZE DUP8 DUP3 RETURNDATACOPY RETURNDATASIZE SWAP1 REVERT JUMPDEST DUP5 SWAP1 CALLVALUE PUSH2 0x8A JUMPI DUP2 PUSH1 0x3 NOT CALLDATASIZE ADD SLT PUSH2 0x8A JUMPI PUSH32 0x0 PUSH1 0x1 PUSH1 0x1 PUSH1 0xA0 SHL SUB AND DUP2 MSTORE PUSH1 0x20 SWAP1 RETURN JUMPDEST SWAP1 PUSH1 0x1F DUP1 NOT SWAP2 ADD AND DUP2 ADD SWAP1 DUP2 LT PUSH8 0xFFFFFFFFFFFFFFFF DUP3 GT OR PUSH2 0x2D1 JUMPI PUSH1 0x40 MSTORE JUMP JUMPDEST PUSH4 0x4E487B71 PUSH1 0xE0 SHL PUSH1 0x0 MSTORE PUSH1 0x41 PUSH1 0x4 MSTORE PUSH1 0x24 PUSH1 0x0 REVERT INVALID LOG2 PUSH5 0x6970667358 0x22 SLT KECCAK256 PUSH25 0x32314329C9B5C762965B3E85AE9CB55A7599D1E4500BF03B83 DUP5 0xD9 0xAF 0xE8 BYTE PUSH6 0x64736F6C6343 STOP ADDMOD EQ STOP CALLER "},"methodIdentifiers":{"assertEligible(bytes32)":"2e82fb78","isEligible(bytes32)":"3c74e0d9","minPHGScore()":"a58043b5","phgRegistry()":"245cc4e7"}}}}}