{"contracts/TournamentGateV2.sol":{"TournamentGateV2":{"abi":[{"inputs":[{"internalType":"address","name":"_phgRegistry","type":"address"},{"internalType":"uint256","name":"_minCumulative","type":"uint256"},{"internalType":"uint256","name":"_minVelocity","type":"uint256"},{"internalType":"uint256","name":"_velocityWindow","type":"uint256"}],"stateMutability":"nonpayable","type":"constructor"},{"inputs":[{"internalType":"bytes32","name":"deviceId","type":"bytes32"},{"internalType":"uint256","name":"have","type":"uint256"},{"internalType":"uint256","name":"need","type":"uint256"}],"name":"InsufficientHumanityScore","type":"error"},{"inputs":[{"internalType":"bytes32","name":"deviceId","type":"bytes32"},{"internalType":"uint256","name":"have","type":"uint256"},{"internalType":"uint256","name":"need","type":"uint256"}],"name":"InsufficientRecentVelocity","type":"error"},{"inputs":[{"internalType":"bytes32","name":"deviceId","type":"bytes32"}],"name":"assertEligible","outputs":[],"stateMutability":"view","type":"function"},{"inputs":[{"internalType":"bytes32","name":"deviceId","type":"bytes32"}],"name":"isEligible","outputs":[{"internalType":"bool","name":"","type":"bool"}],"stateMutability":"view","type":"function"},{"inputs":[],"name":"minCumulative","outputs":[{"internalType":"uint256","name":"","type":"uint256"}],"stateMutability":"view","type":"function"},{"inputs":[],"name":"minVelocity","outputs":[{"internalType":"uint256","name":"","type":"uint256"}],"stateMutability":"view","type":"function"},{"inputs":[],"name":"phgRegistry","outputs":[{"internalType":"contract PHGRegistry","name":"","type":"address"}],"stateMutability":"view","type":"function"},{"inputs":[],"name":"velocityWindow","outputs":[{"internalType":"uint256","name":"","type":"uint256"}],"stateMutability":"view","type":"function"}],"evm":{"bytecode":{"linkReferences":{},"object":"6101003461016f57601f6106df38819003918201601f19168301916001600160401b038311848410176101745780849260809460405283398101031261016f5780516001600160a01b038116919082900361016f5760208101516060604083015192015192801561012a5783156100e55760805260a05260c05260e052604051610554908161018b82396080518181816101350152818161030701526103bd015260a051818181607d015281816101790152610403015260c05181818160bb015281816101a40152610429015260e0518181816101e80152818161034d015261046b0152f35b60405162461bcd60e51b815260206004820152601d60248201527f546f75726e616d656e744761746556323a207a65726f2077696e646f770000006044820152606490fd5b60405162461bcd60e51b815260206004820152601f60248201527f546f75726e616d656e744761746556323a207a65726f207265676973747279006044820152606490fd5b600080fd5b634e487b7160e01b600052604160045260246000fdfe608060408181526004918236101561001657600080fd5b600092833560e01c9182632075e01e1461033657508163245cc4e7146102f25781632e82fb781461010a5781633c74e0d9146100de575080639a52659d146100a45763ad239f871461006757600080fd5b346100a057816003193601126100a057602090517f00000000000000000000000000000000000000000000000000000000000000008152f35b5080fd5b50346100a057816003193601126100a057602090517f00000000000000000000000000000000000000000000000000000000000000008152f35b82843461010757602036600319011261010757506100fe602092356103a8565b90519015158152f35b80fd5b9050346102ee57602091826003193601126102ea5780516218cc9360e41b81528235818401819052937f00000000000000000000000000000000000000000000000000000000000000006001600160a01b03169290918281602481875afa9081156102835787916102b9575b507f00000000000000000000000000000000000000000000000000000000000000009081811061028d5750507f000000000000000000000000000000000000000000000000000000000000000092836101cd578680f35b8260449183519283809263104a4a8560e11b82528a8a8301527f000000000000000000000000000000000000000000000000000000000000000060248301525afa92831561028357879361024f575b505082821061022a57808680f35b51633af3ce1960e11b8152928301938452602084015260408301529081906060010390fd5b9080929350813d831161027c575b6102678183610370565b81010312610278575190388061021c565b8580fd5b503d61025d565b82513d89823e3d90fd5b9151631750e4e960e21b8152808601878152602081019390935260408301919091529081906060010390fd5b90508281813d83116102e3575b6102d08183610370565b810103126102df575138610176565b8680fd5b503d6102c6565b8380fd5b8280fd5b5050346100a057816003193601126100a057517f00000000000000000000000000000000000000000000000000000000000000006001600160a01b03168152602090f35b8490346100a057816003193601126100a0576020907f00000000000000000000000000000000000000000000000000000000000000008152f35b90601f8019910116810190811067ffffffffffffffff82111761039257604052565b634e487b7160e01b600052604160045260246000fd5b6040516218cc9360e41b8152600481018290527f00000000000000000000000000000000000000000000000000000000000000006001600160a01b0316906020908181602481865afa9081156104d4576000916104f1575b507f0000000000000000000000000000000000000000000000000000000000000000116104e9577f00000000000000000000000000000000000000000000000000000000000000009283156104e057819060446040518095819363104a4a8560e11b835260048301527f000000000000000000000000000000000000000000000000000000000000000060248301525afa9081156104d4576000916104a8575b509050101590565b82813d83116104cd575b6104bc8183610370565b8101031261010757505180386104a0565b503d6104b2565b6040513d6000823e3d90fd5b50505050600190565b505050600090565b908282813d8311610517575b6105078183610370565b8101031261010757505138610400565b503d6104fd56fea2646970667358221220b9e5760b9af65ab04e8d00cb5d526d561c1bec982f6b469662a94163b73ae76a64736f6c63430008140033","opcodes":"PUSH2 0x100 CALLVALUE PUSH2 0x16F JUMPI PUSH1 0x1F PUSH2 0x6DF CODESIZE DUP2 SWAP1 SUB SWAP2 DUP3 ADD PUSH1 0x1F NOT AND DUP4 ADD SWAP2 PUSH1 0x1 PUSH1 0x1 PUSH1 0x40 SHL SUB DUP4 GT DUP5 DUP5 LT OR PUSH2 0x174 JUMPI DUP1 DUP5 SWAP3 PUSH1 0x80 SWAP5 PUSH1 0x40 MSTORE DUP4 CODECOPY DUP2 ADD SUB SLT PUSH2 0x16F JUMPI DUP1 MLOAD PUSH1 0x1 PUSH1 0x1 PUSH1 0xA0 SHL SUB DUP2 AND SWAP2 SWAP1 DUP3 SWAP1 SUB PUSH2 0x16F JUMPI PUSH1 0x20 DUP2 ADD MLOAD PUSH1 0x60 PUSH1 0x40 DUP4 ADD MLOAD SWAP3 ADD MLOAD SWAP3 DUP1 ISZERO PUSH2 0x12A JUMPI DUP4 ISZERO PUSH2 0xE5 JUMPI PUSH1 0x80 MSTORE PUSH1 0xA0 MSTORE PUSH1 0xC0 MSTORE PUSH1 0xE0 MSTORE PUSH1 0x40 MLOAD PUSH2 0x554 SWAP1 DUP2 PUSH2 0x18B DUP3 CODECOPY PUSH1 0x80 MLOAD DUP2 DUP2 DUP2 PUSH2 0x135 ADD MSTORE DUP2 DUP2 PUSH2 0x307 ADD MSTORE PUSH2 0x3BD ADD MSTORE PUSH1 0xA0 MLOAD DUP2 DUP2 DUP2 PUSH1 0x7D ADD MSTORE DUP2 DUP2 PUSH2 0x179 ADD MSTORE PUSH2 0x403 ADD MSTORE PUSH1 0xC0 MLOAD DUP2 DUP2 DUP2 PUSH1 0xBB ADD MSTORE DUP2 DUP2 PUSH2 0x1A4 ADD MSTORE PUSH2 0x429 ADD MSTORE PUSH1 0xE0 MLOAD DUP2 DUP2 DUP2 PUSH2 0x1E8 ADD MSTORE DUP2 DUP2 PUSH2 0x34D ADD MSTORE PUSH2 0x46B ADD MSTORE RETURN JUMPDEST PUSH1 0x40 MLOAD PUSH3 0x461BCD PUSH1 0xE5 SHL DUP2 MSTORE PUSH1 0x20 PUSH1 0x4 DUP3 ADD MSTORE PUSH1 0x1D PUSH1 0x24 DUP3 ADD MSTORE PUSH32 0x546F75726E616D656E744761746556323A207A65726F2077696E646F77000000 PUSH1 0x44 DUP3 ADD MSTORE PUSH1 0x64 SWAP1 REVERT JUMPDEST PUSH1 0x40 MLOAD PUSH3 0x461BCD PUSH1 0xE5 SHL DUP2 MSTORE PUSH1 0x20 PUSH1 0x4 DUP3 ADD MSTORE PUSH1 0x1F PUSH1 0x24 DUP3 ADD MSTORE PUSH32 0x546F75726E616D656E744761746556323A207A65726F20726567697374727900 PUSH1 0x44 DUP3 ADD MSTORE PUSH1 0x64 SWAP1 REVERT JUMPDEST PUSH1 0x0 DUP1 REVERT JUMPDEST PUSH4 0x4E487B71 PUSH1 0xE0 SHL PUSH1 0x0 MSTORE PUSH1 0x41 PUSH1 0x4 MSTORE PUSH1 0x24 PUSH1 0x0 REVERT INVALID PUSH1 0x80 PUSH1 0x40 DUP2 DUP2 MSTORE PUSH1 0x4 SWAP2 DUP3 CALLDATASIZE LT ISZERO PUSH2 0x16 JUMPI PUSH1 0x0 DUP1 REVERT JUMPDEST PUSH1 0x0 SWAP3 DUP4 CALLDATALOAD PUSH1 0xE0 SHR SWAP2 DUP3 PUSH4 0x2075E01E EQ PUSH2 0x336 JUMPI POP DUP2 PUSH4 0x245CC4E7 EQ PUSH2 0x2F2 JUMPI DUP2 PUSH4 0x2E82FB78 EQ PUSH2 0x10A JUMPI DUP2 PUSH4 0x3C74E0D9 EQ PUSH2 0xDE JUMPI POP DUP1 PUSH4 0x9A52659D EQ PUSH2 0xA4 JUMPI PUSH4 0xAD239F87 EQ PUSH2 0x67 JUMPI PUSH1 0x0 DUP1 REVERT JUMPDEST CALLVALUE PUSH2 0xA0 JUMPI DUP2 PUSH1 0x3 NOT CALLDATASIZE ADD SLT PUSH2 0xA0 JUMPI PUSH1 0x20 SWAP1 MLOAD PUSH32 0x0 DUP2 MSTORE RETURN JUMPDEST POP DUP1 REVERT JUMPDEST POP CALLVALUE PUSH2 0xA0 JUMPI DUP2 PUSH1 0x3 NOT CALLDATASIZE ADD SLT PUSH2 0xA0 JUMPI PUSH1 0x20 SWAP1 MLOAD PUSH32 0x0 DUP2 MSTORE RETURN JUMPDEST DUP3 DUP5 CALLVALUE PUSH2 0x107 JUMPI PUSH1 0x20 CALLDATASIZE PUSH1 0x3 NOT ADD SLT PUSH2 0x107 JUMPI POP PUSH2 0xFE PUSH1 0x20 SWAP3 CALLDATALOAD PUSH2 0x3A8 JUMP JUMPDEST SWAP1 MLOAD SWAP1 ISZERO ISZERO DUP2 MSTORE RETURN JUMPDEST DUP1 REVERT JUMPDEST SWAP1 POP CALLVALUE PUSH2 0x2EE JUMPI PUSH1 0x20 SWAP2 DUP3 PUSH1 0x3 NOT CALLDATASIZE ADD SLT PUSH2 0x2EA JUMPI DUP1 MLOAD PUSH3 0x18CC93 PUSH1 0xE4 SHL DUP2 MSTORE DUP3 CALLDATALOAD DUP2 DUP5 ADD DUP2 SWAP1 MSTORE SWAP4 PUSH32 0x0 PUSH1 0x1 PUSH1 0x1 PUSH1 0xA0 SHL SUB AND SWAP3 SWAP1 SWAP2 DUP3 DUP2 PUSH1 0x24 DUP2 DUP8 GAS STATICCALL SWAP1 DUP2 ISZERO PUSH2 0x283 JUMPI DUP8 SWAP2 PUSH2 0x2B9 JUMPI JUMPDEST POP PUSH32 0x0 SWAP1 DUP2 DUP2 LT PUSH2 0x28D JUMPI POP POP PUSH32 0x0 SWAP3 DUP4 PUSH2 0x1CD JUMPI DUP7 DUP1 RETURN JUMPDEST DUP3 PUSH1 0x44 SWAP2 DUP4 MLOAD SWAP3 DUP4 DUP1 SWAP3 PUSH4 0x104A4A85 PUSH1 0xE1 SHL DUP3 MSTORE DUP11 DUP11 DUP4 ADD MSTORE PUSH32 0x0 PUSH1 0x24 DUP4 ADD MSTORE GAS STATICCALL SWAP3 DUP4 ISZERO PUSH2 0x283 JUMPI DUP8 SWAP4 PUSH2 0x24F JUMPI JUMPDEST POP POP DUP3 DUP3 LT PUSH2 0x22A JUMPI DUP1 DUP7 DUP1 RETURN JUMPDEST MLOAD PUSH4 0x3AF3CE19 PUSH1 0xE1 SHL DUP2 MSTORE SWAP3 DUP4 ADD SWAP4 DUP5 MSTORE PUSH1 0x20 DUP5 ADD MSTORE PUSH1 0x40 DUP4 ADD MSTORE SWAP1 DUP2 SWAP1 PUSH1 0x60 ADD SUB SWAP1 REVERT JUMPDEST SWAP1 DUP1 SWAP3 SWAP4 POP DUP2 RETURNDATASIZE DUP4 GT PUSH2 0x27C JUMPI JUMPDEST PUSH2 0x267 DUP2 DUP4 PUSH2 0x370 JUMP JUMPDEST DUP2 ADD SUB SLT PUSH2 0x278 JUMPI MLOAD SWAP1 CODESIZE DUP1 PUSH2 0x21C JUMP JUMPDEST DUP6 DUP1 REVERT JUMPDEST POP RETURNDATASIZE PUSH2 0x25D JUMP JUMPDEST DUP3 MLOAD RETURNDATASIZE DUP10 DUP3 RETURNDATACOPY RETURNDATASIZE SWAP1 REVERT JUMPDEST SWAP2 MLOAD PUSH4 0x1750E4E9 PUSH1 0xE2 SHL DUP2 MSTORE DUP1 DUP7 ADD DUP8 DUP2 MSTORE PUSH1 0x20 DUP2 ADD SWAP4 SWAP1 SWAP4 MSTORE PUSH1 0x40 DUP4 ADD SWAP2 SWAP1 SWAP2 MSTORE SWAP1 DUP2 SWAP1 PUSH1 0x60 ADD SUB SWAP1 REVERT JUMPDEST SWAP1 POP DUP3 DUP2 DUP2 RETURNDATASIZE DUP4 GT PUSH2 0x2E3 JUMPI JUMPDEST PUSH2 0x2D0 DUP2 DUP4 PUSH2 0x370 JUMP JUMPDEST DUP2 ADD SUB SLT PUSH2 0x2DF JUMPI MLOAD CODESIZE PUSH2 0x176 JUMP JUMPDEST DUP7 DUP1 REVERT JUMPDEST POP RETURNDATASIZE PUSH2 0x2C6 JUMP JUMPDEST DUP4 DUP1 REVERT JUMPDEST DUP3 DUP1 REVERT JUMPDEST POP POP CALLVALUE PUSH2 0xA0 JUMPI DUP2 PUSH1 0x3 NOT CALLDATASIZE ADD SLT PUSH2 0xA0 JUMPI MLOAD PUSH32 0x0 PUSH1 0x1 PUSH1 0x1 PUSH1 0xA0 SHL SUB AND DUP2 MSTORE PUSH1 0x20 SWAP1 RETURN JUMPDEST DUP5 SWAP1 CALLVALUE PUSH2 0xA0 JUMPI DUP2 PUSH1 0x3 NOT CALLDATASIZE ADD SLT PUSH2 0xA0 JUMPI PUSH1 0x20 SWAP1 PUSH32 0x0 DUP2 MSTORE RETURN JUMPDEST SWAP1 PUSH1 0x1F DUP1 NOT SWAP2 ADD AND DUP2 ADD SWAP1 DUP2 LT PUSH8 0xFFFFFFFFFFFFFFFF DUP3 GT OR PUSH2 0x392 JUMPI PUSH1 0x40 MSTORE JUMP JUMPDEST PUSH4 0x4E487B71 PUSH1 0xE0 SHL PUSH1 0x0 MSTORE PUSH1 0x41 PUSH1 0x4 MSTORE PUSH1 0x24 PUSH1 0x0 REVERT JUMPDEST PUSH1 0x40 MLOAD PUSH3 0x18CC93 PUSH1 0xE4 SHL DUP2 MSTORE PUSH1 0x4 DUP2 ADD DUP3 SWAP1 MSTORE PUSH32 0x0 PUSH1 0x1 PUSH1 0x1 PUSH1 0xA0 SHL SUB AND SWAP1 PUSH1 0x20 SWAP1 DUP2 DUP2 PUSH1 0x24 DUP2 DUP7 GAS STATICCALL SWAP1 DUP2 ISZERO PUSH2 0x4D4 JUMPI PUSH1 0x0 SWAP2 PUSH2 0x4F1 JUMPI JUMPDEST POP PUSH32 0x0 GT PUSH2 0x4E9 JUMPI PUSH32 0x0 SWAP3 DUP4 ISZERO PUSH2 0x4E0 JUMPI DUP2 SWAP1 PUSH1 0x44 PUSH1 0x40 MLOAD DUP1 SWAP6 DUP2 SWAP4 PUSH4 0x104A4A85 PUSH1 0xE1 SHL DUP4 MSTORE PUSH1 0x4 DUP4 ADD MSTORE PUSH32 0x0 PUSH1 0x24 DUP4 ADD MSTORE GAS STATICCALL SWAP1 DUP2 ISZERO PUSH2 0x4D4 JUMPI PUSH1 0x0 SWAP2 PUSH2 0x4A8 JUMPI JUMPDEST POP SWAP1 POP LT ISZERO SWAP1 JUMP JUMPDEST DUP3 DUP2 RETURNDATASIZE DUP4 GT PUSH2 0x4CD JUMPI JUMPDEST PUSH2 0x4BC DUP2 DUP4 PUSH2 0x370 JUMP JUMPDEST DUP2 ADD SUB SLT PUSH2 0x107 JUMPI POP MLOAD DUP1 CODESIZE PUSH2 0x4A0 JUMP JUMPDEST POP RETURNDATASIZE PUSH2 0x4B2 JUMP JUMPDEST PUSH1 0x40 MLOAD RETURNDATASIZE PUSH1 0x0 DUP3 RETURNDATACOPY RETURNDATASIZE SWAP1 REVERT JUMPDEST POP POP POP POP PUSH1 0x1 SWAP1 JUMP JUMPDEST POP POP POP PUSH1 0x0 SWAP1 JUMP JUMPDEST SWAP1 DUP3 DUP3 DUP2 RETURNDATASIZE DUP4 GT PUSH2 0x517 JUMPI JUMPDEST PUSH2 0x507 DUP2 DUP4 PUSH2 0x370 JUMP JUMPDEST DUP2 ADD SUB SLT PUSH2 0x107 JUMPI POP MLOAD CODESIZE PUSH2 0x400 JUMP JUMPDEST POP RETURNDATASIZE PUSH2 0x4FD JUMP INVALID LOG2 PUSH5 0x6970667358 0x22 SLT KECCAK256 0xB9 0xE5 PUSH23 0xB9AF65AB04E8D00CB5D526D561C1BEC982F6B469662A9 COINBASE PUSH4 0xB73AE76A PUSH5 0x736F6C6343 STOP ADDMOD EQ STOP CALLER "},"methodIdentifiers":{"assertEligible(bytes32)":"2e82fb78","isEligible(bytes32)":"3c74e0d9","minCumulative()":"ad239f87","minVelocity()":"9a52659d","phgRegistry()":"245cc4e7","velocityWindow()":"2075e01e"}}}}}