{"contracts/IdentityContinuityRegistry.sol":{"IdentityContinuityRegistry":{"abi":[{"inputs":[{"internalType":"address","name":"_bridge","type":"address"},{"internalType":"address","name":"_phgRegistry","type":"address"}],"stateMutability":"nonpayable","type":"constructor"},{"inputs":[{"internalType":"bytes32","name":"deviceId","type":"bytes32"}],"name":"AlreadyClaimed","type":"error"},{"inputs":[],"name":"OnlyBridge","type":"error"},{"inputs":[{"internalType":"bytes32","name":"oldDeviceId","type":"bytes32"}],"name":"SourceAlreadyClaimed","type":"error"},{"anonymous":false,"inputs":[{"indexed":true,"internalType":"bytes32","name":"oldDeviceId","type":"bytes32"},{"indexed":true,"internalType":"bytes32","name":"newDeviceId","type":"bytes32"},{"indexed":false,"internalType":"bytes32","name":"biometricProofHash","type":"bytes32"},{"indexed":false,"internalType":"uint256","name":"scoreMigrated","type":"uint256"},{"indexed":false,"internalType":"uint256","name":"blockNumber","type":"uint256"}],"name":"ContinuityAttested","type":"event"},{"inputs":[{"internalType":"bytes32","name":"oldDeviceId","type":"bytes32"},{"internalType":"bytes32","name":"newDeviceId","type":"bytes32"},{"internalType":"bytes32","name":"biometricProofHash","type":"bytes32"}],"name":"attestContinuity","outputs":[],"stateMutability":"nonpayable","type":"function"},{"inputs":[],"name":"bridge","outputs":[{"internalType":"address","name":"","type":"address"}],"stateMutability":"view","type":"function"},{"inputs":[{"internalType":"bytes32","name":"","type":"bytes32"}],"name":"claimed","outputs":[{"internalType":"bool","name":"","type":"bool"}],"stateMutability":"view","type":"function"},{"inputs":[{"internalType":"bytes32","name":"","type":"bytes32"}],"name":"continuedFrom","outputs":[{"internalType":"bytes32","name":"","type":"bytes32"}],"stateMutability":"view","type":"function"},{"inputs":[{"internalType":"bytes32","name":"deviceId","type":"bytes32"}],"name":"getCanonicalRoot","outputs":[{"internalType":"bytes32","name":"root","type":"bytes32"}],"stateMutability":"view","type":"function"},{"inputs":[{"internalType":"bytes32","name":"newId","type":"bytes32"},{"internalType":"bytes32","name":"oldId","type":"bytes32"}],"name":"isContinuationOf","outputs":[{"internalType":"bool","name":"","type":"bool"}],"stateMutability":"view","type":"function"},{"inputs":[],"name":"phgRegistry","outputs":[{"internalType":"contract PHGRegistry","name":"","type":"address"}],"stateMutability":"view","type":"function"}],"evm":{"bytecode":{"linkReferences":{},"object":"60c03461012957601f6105e538819003918201601f19168301916001600160401b0383118484101761012e57808492604094855283398101031261012957610052602061004b83610144565b9201610144565b6001600160a01b0390828216156100e4571690811561009f5760805260a05260405161048c908161015982396080518181816085015261021a015260a05181818161016e015261029f0152f35b60405162461bcd60e51b815260206004820152601a60248201527f4943523a207a65726f20726567697374727920616464726573730000000000006044820152606490fd5b60405162461bcd60e51b815260206004820152601860248201527f4943523a207a65726f20627269646765206164647265737300000000000000006044820152606490fd5b600080fd5b634e487b7160e01b600052604160045260246000fd5b51906001600160a01b03821682036101295756fe608060408181526004918236101561001657600080fd5b600092833560e01c91826306fd46b7146101ef57508163095dae08146101c857816320153f2f1461019d578163245cc4e71461015957816394b1677c146100e9578163cc3c0f06146100b8575063e78cea921461007257600080fd5b346100b457816003193601126100b457517f00000000000000000000000000000000000000000000000000000000000000006001600160a01b03168152602090f35b5080fd5b9050346100e55760203660031901126100e5578160209360ff923581526001855220541690519015158152f35b8280fd5b8383346100b457602092836003193601126100e55791823592815b60088310610116575b50505051908152f35b90919380825281865283822054908115610152575093600019811461013f576001019190610104565b506011602492634e487b7160e01b835252fd5b945061010d565b5050346100b457816003193601126100b457517f00000000000000000000000000000000000000000000000000000000000000006001600160a01b03168152602090f35b9050346100e557816003193601126100e5579160209235815280835281602435912054149051908152f35b9050346100e55760203660031901126100e557602092829135815280845220549051908152f35b90929150346103b15760603660031901126103b15760248035938035936001600160a01b03939092907f00000000000000000000000000000000000000000000000000000000000000008516330361044857508587526020936001855260ff8489205416610433578588526001855260ff848920541661041e579087918783526001865284832060ff199060018282541617905587845260018685209182541617905587835282865286858420557f000000000000000000000000000000000000000000000000000000000000000016928451936218cc9360e41b8552878286015286858481845afa9485156104145784956103b5575b50803b156103b157839060448751809681936373e0766960e01b83528c878401528d888401525af180156103a757610356575b50505091817fdd27986caa81692e0d3042e0df81f692806a961f98765416ef7b1207c484b68093606093519260443584528301524390820152a380f35b67ffffffffffffffff8399949911610396575050825294817fdd27986caa81692e0d3042e0df81f692806a961f98765416ef7b1207c484b6806060610319565b634e487b7160e01b84526041905282fd5b85513d8b823e3d90fd5b8380fd5b919293509350853d871161040d575b601f8101601f1916820167ffffffffffffffff8111838210176103fb57828b9594939289928952810103126103b1575193386102e6565b634e487b7160e01b8b5260418452848bfd5b503d6103c4565b86513d86823e3d90fd5b50915163f43d05cb60e01b8152908101849052fd5b509151633210992160e21b8152908101859052fd5b6338da3b1560e01b81529050fdfea26469706673582212205806a5b41ae44b99387cd5a6b877fe5ee9f4bfe679e1a03c1237b531ea08fa9d64736f6c63430008140033","opcodes":"PUSH1 0xC0 CALLVALUE PUSH2 0x129 JUMPI PUSH1 0x1F PUSH2 0x5E5 CODESIZE DUP2 SWAP1 SUB SWAP2 DUP3 ADD PUSH1 0x1F NOT AND DUP4 ADD SWAP2 PUSH1 0x1 PUSH1 0x1 PUSH1 0x40 SHL SUB DUP4 GT DUP5 DUP5 LT OR PUSH2 0x12E JUMPI DUP1 DUP5 SWAP3 PUSH1 0x40 SWAP5 DUP6 MSTORE DUP4 CODECOPY DUP2 ADD SUB SLT PUSH2 0x129 JUMPI PUSH2 0x52 PUSH1 0x20 PUSH2 0x4B DUP4 PUSH2 0x144 JUMP JUMPDEST SWAP3 ADD PUSH2 0x144 JUMP JUMPDEST PUSH1 0x1 PUSH1 0x1 PUSH1 0xA0 SHL SUB SWAP1 DUP3 DUP3 AND ISZERO PUSH2 0xE4 JUMPI AND SWAP1 DUP2 ISZERO PUSH2 0x9F JUMPI PUSH1 0x80 MSTORE PUSH1 0xA0 MSTORE PUSH1 0x40 MLOAD PUSH2 0x48C SWAP1 DUP2 PUSH2 0x159 DUP3 CODECOPY PUSH1 0x80 MLOAD DUP2 DUP2 DUP2 PUSH1 0x85 ADD MSTORE PUSH2 0x21A ADD MSTORE PUSH1 0xA0 MLOAD DUP2 DUP2 DUP2 PUSH2 0x16E ADD MSTORE PUSH2 0x29F ADD MSTORE RETURN JUMPDEST PUSH1 0x40 MLOAD PUSH3 0x461BCD PUSH1 0xE5 SHL DUP2 MSTORE PUSH1 0x20 PUSH1 0x4 DUP3 ADD MSTORE PUSH1 0x1A PUSH1 0x24 DUP3 ADD MSTORE PUSH32 0x4943523A207A65726F2072656769737472792061646472657373000000000000 PUSH1 0x44 DUP3 ADD MSTORE PUSH1 0x64 SWAP1 REVERT JUMPDEST PUSH1 0x40 MLOAD PUSH3 0x461BCD PUSH1 0xE5 SHL DUP2 MSTORE PUSH1 0x20 PUSH1 0x4 DUP3 ADD MSTORE PUSH1 0x18 PUSH1 0x24 DUP3 ADD MSTORE PUSH32 0x4943523A207A65726F2062726964676520616464726573730000000000000000 PUSH1 0x44 DUP3 ADD MSTORE PUSH1 0x64 SWAP1 REVERT JUMPDEST PUSH1 0x0 DUP1 REVERT JUMPDEST PUSH4 0x4E487B71 PUSH1 0xE0 SHL PUSH1 0x0 MSTORE PUSH1 0x41 PUSH1 0x4 MSTORE PUSH1 0x24 PUSH1 0x0 REVERT JUMPDEST MLOAD SWAP1 PUSH1 0x1 PUSH1 0x1 PUSH1 0xA0 SHL SUB DUP3 AND DUP3 SUB PUSH2 0x129 JUMPI JUMP INVALID PUSH1 0x80 PUSH1 0x40 DUP2 DUP2 MSTORE PUSH1 0x4 SWAP2 DUP3 CALLDATASIZE LT ISZERO PUSH2 0x16 JUMPI PUSH1 0x0 DUP1 REVERT JUMPDEST PUSH1 0x0 SWAP3 DUP4 CALLDATALOAD PUSH1 0xE0 SHR SWAP2 DUP3 PUSH4 0x6FD46B7 EQ PUSH2 0x1EF JUMPI POP DUP2 PUSH4 0x95DAE08 EQ PUSH2 0x1C8 JUMPI DUP2 PUSH4 0x20153F2F EQ PUSH2 0x19D JUMPI DUP2 PUSH4 0x245CC4E7 EQ PUSH2 0x159 JUMPI DUP2 PUSH4 0x94B1677C EQ PUSH2 0xE9 JUMPI DUP2 PUSH4 0xCC3C0F06 EQ PUSH2 0xB8 JUMPI POP PUSH4 0xE78CEA92 EQ PUSH2 0x72 JUMPI PUSH1 0x0 DUP1 REVERT JUMPDEST CALLVALUE PUSH2 0xB4 JUMPI DUP2 PUSH1 0x3 NOT CALLDATASIZE ADD SLT PUSH2 0xB4 JUMPI MLOAD PUSH32 0x0 PUSH1 0x1 PUSH1 0x1 PUSH1 0xA0 SHL SUB AND DUP2 MSTORE PUSH1 0x20 SWAP1 RETURN JUMPDEST POP DUP1 REVERT JUMPDEST SWAP1 POP CALLVALUE PUSH2 0xE5 JUMPI PUSH1 0x20 CALLDATASIZE PUSH1 0x3 NOT ADD SLT PUSH2 0xE5 JUMPI DUP2 PUSH1 0x20 SWAP4 PUSH1 0xFF SWAP3 CALLDATALOAD DUP2 MSTORE PUSH1 0x1 DUP6 MSTORE KECCAK256 SLOAD AND SWAP1 MLOAD SWAP1 ISZERO ISZERO DUP2 MSTORE RETURN JUMPDEST DUP3 DUP1 REVERT JUMPDEST DUP4 DUP4 CALLVALUE PUSH2 0xB4 JUMPI PUSH1 0x20 SWAP3 DUP4 PUSH1 0x3 NOT CALLDATASIZE ADD SLT PUSH2 0xE5 JUMPI SWAP2 DUP3 CALLDATALOAD SWAP3 DUP2 JUMPDEST PUSH1 0x8 DUP4 LT PUSH2 0x116 JUMPI JUMPDEST POP POP POP MLOAD SWAP1 DUP2 MSTORE RETURN JUMPDEST SWAP1 SWAP2 SWAP4 DUP1 DUP3 MSTORE DUP2 DUP7 MSTORE DUP4 DUP3 KECCAK256 SLOAD SWAP1 DUP2 ISZERO PUSH2 0x152 JUMPI POP SWAP4 PUSH1 0x0 NOT DUP2 EQ PUSH2 0x13F JUMPI PUSH1 0x1 ADD SWAP2 SWAP1 PUSH2 0x104 JUMP JUMPDEST POP PUSH1 0x11 PUSH1 0x24 SWAP3 PUSH4 0x4E487B71 PUSH1 0xE0 SHL DUP4 MSTORE MSTORE REVERT JUMPDEST SWAP5 POP PUSH2 0x10D JUMP JUMPDEST POP POP CALLVALUE PUSH2 0xB4 JUMPI DUP2 PUSH1 0x3 NOT CALLDATASIZE ADD SLT PUSH2 0xB4 JUMPI MLOAD PUSH32 0x0 PUSH1 0x1 PUSH1 0x1 PUSH1 0xA0 SHL SUB AND DUP2 MSTORE PUSH1 0x20 SWAP1 RETURN JUMPDEST SWAP1 POP CALLVALUE PUSH2 0xE5 JUMPI DUP2 PUSH1 0x3 NOT CALLDATASIZE ADD SLT PUSH2 0xE5 JUMPI SWAP2 PUSH1 0x20 SWAP3 CALLDATALOAD DUP2 MSTORE DUP1 DUP4 MSTORE DUP2 PUSH1 0x24 CALLDATALOAD SWAP2 KECCAK256 SLOAD EQ SWAP1 MLOAD SWAP1 DUP2 MSTORE RETURN JUMPDEST SWAP1 POP CALLVALUE PUSH2 0xE5 JUMPI PUSH1 0x20 CALLDATASIZE PUSH1 0x3 NOT ADD SLT PUSH2 0xE5 JUMPI PUSH1 0x20 SWAP3 DUP3 SWAP2 CALLDATALOAD DUP2 MSTORE DUP1 DUP5 MSTORE KECCAK256 SLOAD SWAP1 MLOAD SWAP1 DUP2 MSTORE RETURN JUMPDEST SWAP1 SWAP3 SWAP2 POP CALLVALUE PUSH2 0x3B1 JUMPI PUSH1 0x60 CALLDATASIZE PUSH1 0x3 NOT ADD SLT PUSH2 0x3B1 JUMPI PUSH1 0x24 DUP1 CALLDATALOAD SWAP4 DUP1 CALLDATALOAD SWAP4 PUSH1 0x1 PUSH1 0x1 PUSH1 0xA0 SHL SUB SWAP4 SWAP1 SWAP3 SWAP1 PUSH32 0x0 DUP6 AND CALLER SUB PUSH2 0x448 JUMPI POP DUP6 DUP8 MSTORE PUSH1 0x20 SWAP4 PUSH1 0x1 DUP6 MSTORE PUSH1 0xFF DUP5 DUP10 KECCAK256 SLOAD AND PUSH2 0x433 JUMPI DUP6 DUP9 MSTORE PUSH1 0x1 DUP6 MSTORE PUSH1 0xFF DUP5 DUP10 KECCAK256 SLOAD AND PUSH2 0x41E JUMPI SWAP1 DUP8 SWAP2 DUP8 DUP4 MSTORE PUSH1 0x1 DUP7 MSTORE DUP5 DUP4 KECCAK256 PUSH1 0xFF NOT SWAP1 PUSH1 0x1 DUP3 DUP3 SLOAD AND OR SWAP1 SSTORE DUP8 DUP5 MSTORE PUSH1 0x1 DUP7 DUP6 KECCAK256 SWAP2 DUP3 SLOAD AND OR SWAP1 SSTORE DUP8 DUP4 MSTORE DUP3 DUP7 MSTORE DUP7 DUP6 DUP5 KECCAK256 SSTORE PUSH32 0x0 AND SWAP3 DUP5 MLOAD SWAP4 PUSH3 0x18CC93 PUSH1 0xE4 SHL DUP6 MSTORE DUP8 DUP3 DUP7 ADD MSTORE DUP7 DUP6 DUP5 DUP2 DUP5 GAS STATICCALL SWAP5 DUP6 ISZERO PUSH2 0x414 JUMPI DUP5 SWAP6 PUSH2 0x3B5 JUMPI JUMPDEST POP DUP1 EXTCODESIZE ISZERO PUSH2 0x3B1 JUMPI DUP4 SWAP1 PUSH1 0x44 DUP8 MLOAD DUP1 SWAP7 DUP2 SWAP4 PUSH4 0x73E07669 PUSH1 0xE0 SHL DUP4 MSTORE DUP13 DUP8 DUP5 ADD MSTORE DUP14 DUP9 DUP5 ADD MSTORE GAS CALL DUP1 ISZERO PUSH2 0x3A7 JUMPI PUSH2 0x356 JUMPI JUMPDEST POP POP POP SWAP2 DUP2 PUSH32 0xDD27986CAA81692E0D3042E0DF81F692806A961F98765416EF7B1207C484B680 SWAP4 PUSH1 0x60 SWAP4 MLOAD SWAP3 PUSH1 0x44 CALLDATALOAD DUP5 MSTORE DUP4 ADD MSTORE NUMBER SWAP1 DUP3 ADD MSTORE LOG3 DUP1 RETURN JUMPDEST PUSH8 0xFFFFFFFFFFFFFFFF DUP4 SWAP10 SWAP5 SWAP10 GT PUSH2 0x396 JUMPI POP POP DUP3 MSTORE SWAP5 DUP2 PUSH32 0xDD27986CAA81692E0D3042E0DF81F692806A961F98765416EF7B1207C484B680 PUSH1 0x60 PUSH2 0x319 JUMP JUMPDEST PUSH4 0x4E487B71 PUSH1 0xE0 SHL DUP5 MSTORE PUSH1 0x41 SWAP1 MSTORE DUP3 REVERT JUMPDEST DUP6 MLOAD RETURNDATASIZE DUP12 DUP3 RETURNDATACOPY RETURNDATASIZE SWAP1 REVERT JUMPDEST DUP4 DUP1 REVERT JUMPDEST SWAP2 SWAP3 SWAP4 POP SWAP4 POP DUP6 RETURNDATASIZE DUP8 GT PUSH2 0x40D JUMPI JUMPDEST PUSH1 0x1F DUP2 ADD PUSH1 0x1F NOT AND DUP3 ADD PUSH8 0xFFFFFFFFFFFFFFFF DUP2 GT DUP4 DUP3 LT OR PUSH2 0x3FB JUMPI DUP3 DUP12 SWAP6 SWAP5 SWAP4 SWAP3 DUP10 SWAP3 DUP10 MSTORE DUP2 ADD SUB SLT PUSH2 0x3B1 JUMPI MLOAD SWAP4 CODESIZE PUSH2 0x2E6 JUMP JUMPDEST PUSH4 0x4E487B71 PUSH1 0xE0 SHL DUP12 MSTORE PUSH1 0x41 DUP5 MSTORE DUP5 DUP12 REVERT JUMPDEST POP RETURNDATASIZE PUSH2 0x3C4 JUMP JUMPDEST DUP7 MLOAD RETURNDATASIZE DUP7 DUP3 RETURNDATACOPY RETURNDATASIZE SWAP1 REVERT JUMPDEST POP SWAP2 MLOAD PUSH4 0xF43D05CB PUSH1 0xE0 SHL DUP2 MSTORE SWAP1 DUP2 ADD DUP5 SWAP1 MSTORE REVERT JUMPDEST POP SWAP2 MLOAD PUSH4 0x32109921 PUSH1 0xE2 SHL DUP2 MSTORE SWAP1 DUP2 ADD DUP6 SWAP1 MSTORE REVERT JUMPDEST PUSH4 0x38DA3B15 PUSH1 0xE0 SHL DUP2 MSTORE SWAP1 POP REVERT INVALID LOG2 PUSH5 0x6970667358 0x22 SLT KECCAK256 PC MOD 0xA5 0xB4 BYTE 0xE4 0x4B SWAP10 CODESIZE PUSH29 0xD5A6B877FE5EE9F4BFE679E1A03C1237B531EA08FA9D64736F6C634300 ADDMOD EQ STOP CALLER "},"methodIdentifiers":{"attestContinuity(bytes32,bytes32,bytes32)":"06fd46b7","bridge()":"e78cea92","claimed(bytes32)":"cc3c0f06","continuedFrom(bytes32)":"095dae08","getCanonicalRoot(bytes32)":"94b1677c","isContinuationOf(bytes32,bytes32)":"20153f2f","phgRegistry()":"245cc4e7"}}}}}