{"contracts/PoACVerifier.sol":{"PoACVerifier":{"abi":[{"inputs":[{"internalType":"address","name":"_deviceRegistry","type":"address"},{"internalType":"uint256","name":"_maxTimestampSkew","type":"uint256"}],"stateMutability":"nonpayable","type":"constructor"},{"inputs":[],"name":"ArrayLengthMismatch","type":"error"},{"inputs":[{"internalType":"bytes32","name":"deviceId","type":"bytes32"},{"internalType":"bytes32","name":"submitted","type":"bytes32"},{"internalType":"bytes32","name":"expected","type":"bytes32"}],"name":"ChainLinkageBroken","type":"error"},{"inputs":[{"internalType":"bytes32","name":"deviceId","type":"bytes32"},{"internalType":"uint32","name":"submitted","type":"uint32"},{"internalType":"uint32","name":"lastKnown","type":"uint32"}],"name":"CounterNotMonotonic","type":"error"},{"inputs":[{"internalType":"bytes32","name":"deviceId","type":"bytes32"}],"name":"DeviceNotActive","type":"error"},{"inputs":[{"internalType":"bytes32","name":"deviceId","type":"bytes32"}],"name":"DeviceNotRegistered","type":"error"},{"inputs":[],"name":"EmptyBatch","type":"error"},{"inputs":[{"internalType":"uint256","name":"provided","type":"uint256"}],"name":"InvalidBodyLength","type":"error"},{"inputs":[{"internalType":"bytes32","name":"deviceId","type":"bytes32"},{"internalType":"bytes32","name":"recordHash","type":"bytes32"}],"name":"InvalidSignature","type":"error"},{"inputs":[{"internalType":"uint256","name":"provided","type":"uint256"}],"name":"InvalidSignatureLength","type":"error"},{"inputs":[{"internalType":"address","name":"owner","type":"address"}],"name":"OwnableInvalidOwner","type":"error"},{"inputs":[{"internalType":"address","name":"account","type":"address"}],"name":"OwnableUnauthorizedAccount","type":"error"},{"inputs":[{"internalType":"bytes32","name":"recordHash","type":"bytes32"}],"name":"RecordAlreadySubmitted","type":"error"},{"inputs":[{"internalType":"bytes32","name":"recordHash","type":"bytes32"}],"name":"RecordAlreadyVerified","type":"error"},{"inputs":[],"name":"ReentrancyGuardReentrantCall","type":"error"},{"inputs":[{"internalType":"bytes32","name":"deviceId","type":"bytes32"},{"internalType":"int64","name":"recordTs","type":"int64"},{"internalType":"uint256","name":"blockTs","type":"uint256"},{"internalType":"uint256","name":"maxSkew","type":"uint256"}],"name":"TimestampOutOfRange","type":"error"},{"anonymous":false,"inputs":[{"indexed":false,"internalType":"uint256","name":"submitted","type":"uint256"},{"indexed":false,"internalType":"uint256","name":"verified","type":"uint256"},{"indexed":false,"internalType":"uint256","name":"rejected","type":"uint256"}],"name":"BatchVerified","type":"event"},{"anonymous":false,"inputs":[{"indexed":true,"internalType":"address","name":"previousOwner","type":"address"},{"indexed":true,"internalType":"address","name":"newOwner","type":"address"}],"name":"OwnershipTransferred","type":"event"},{"anonymous":false,"inputs":[{"indexed":true,"internalType":"bytes32","name":"deviceId","type":"bytes32"},{"indexed":true,"internalType":"bytes32","name":"recordHash","type":"bytes32"},{"indexed":false,"internalType":"uint32","name":"monotonicCtr","type":"uint32"},{"indexed":false,"internalType":"int64","name":"timestampMs","type":"int64"},{"indexed":false,"internalType":"uint8","name":"actionCode","type":"uint8"},{"indexed":false,"internalType":"uint8","name":"inferenceResult","type":"uint8"},{"indexed":false,"internalType":"uint32","name":"bountyId","type":"uint32"}],"name":"PoACVerified","type":"event"},{"inputs":[],"name":"P256_PRECOMPILE","outputs":[{"internalType":"address","name":"","type":"address"}],"stateMutability":"view","type":"function"},{"inputs":[],"name":"POAC_BODY_SIZE","outputs":[{"internalType":"uint256","name":"","type":"uint256"}],"stateMutability":"view","type":"function"},{"inputs":[],"name":"POAC_SIG_SIZE","outputs":[{"internalType":"uint256","name":"","type":"uint256"}],"stateMutability":"view","type":"function"},{"inputs":[],"name":"deviceRegistry","outputs":[{"internalType":"contract DeviceRegistry","name":"","type":"address"}],"stateMutability":"view","type":"function"},{"inputs":[{"internalType":"bytes32","name":"_deviceId","type":"bytes32"}],"name":"getChainHead","outputs":[{"internalType":"bytes32","name":"lastRecordHash","type":"bytes32"},{"internalType":"uint32","name":"lastCounter","type":"uint32"},{"internalType":"bool","name":"initialized","type":"bool"}],"stateMutability":"view","type":"function"},{"inputs":[{"internalType":"bytes32","name":"_deviceId","type":"bytes32"}],"name":"getVerifiedCount","outputs":[{"internalType":"uint32","name":"count","type":"uint32"}],"stateMutability":"view","type":"function"},{"inputs":[{"internalType":"bytes32","name":"_recordHash","type":"bytes32"}],"name":"isRecordVerified","outputs":[{"internalType":"bool","name":"","type":"bool"}],"stateMutability":"view","type":"function"},{"inputs":[],"name":"maxTimestampSkew","outputs":[{"internalType":"uint256","name":"","type":"uint256"}],"stateMutability":"view","type":"function"},{"inputs":[],"name":"owner","outputs":[{"internalType":"address","name":"","type":"address"}],"stateMutability":"view","type":"function"},{"inputs":[],"name":"renounceOwnership","outputs":[],"stateMutability":"nonpayable","type":"function"},{"inputs":[{"internalType":"uint256","name":"_newSkew","type":"uint256"}],"name":"setMaxTimestampSkew","outputs":[],"stateMutability":"nonpayable","type":"function"},{"inputs":[{"internalType":"bytes32","name":"","type":"bytes32"}],"name":"submittedHashes","outputs":[{"internalType":"bool","name":"","type":"bool"}],"stateMutability":"view","type":"function"},{"inputs":[],"name":"totalVerifiedCount","outputs":[{"internalType":"uint256","name":"","type":"uint256"}],"stateMutability":"view","type":"function"},{"inputs":[{"internalType":"address","name":"newOwner","type":"address"}],"name":"transferOwnership","outputs":[],"stateMutability":"nonpayable","type":"function"},{"inputs":[{"internalType":"bytes32","name":"","type":"bytes32"}],"name":"verifiedRecords","outputs":[{"internalType":"bool","name":"","type":"bool"}],"stateMutability":"view","type":"function"},{"inputs":[{"internalType":"bytes32","name":"_deviceId","type":"bytes32"},{"internalType":"bytes","name":"_rawBody","type":"bytes"},{"internalType":"bytes","name":"_signature","type":"bytes"}],"name":"verifyPoAC","outputs":[{"internalType":"bytes32","name":"recordHash","type":"bytes32"}],"stateMutability":"nonpayable","type":"function"},{"inputs":[{"internalType":"bytes32[]","name":"_deviceIds","type":"bytes32[]"},{"internalType":"bytes[]","name":"_rawBodies","type":"bytes[]"},{"internalType":"bytes[]","name":"_signatures","type":"bytes[]"}],"name":"verifyPoACBatch","outputs":[{"internalType":"bytes32[]","name":"recordHashes","type":"bytes32[]"}],"stateMutability":"nonpayable","type":"function"},{"inputs":[{"internalType":"bytes32","name":"_deviceId","type":"bytes32"},{"internalType":"bytes","name":"_rawBody","type":"bytes"},{"internalType":"bytes","name":"_signature","type":"bytes"}],"name":"verifyPoACExternal","outputs":[{"internalType":"bytes32","name":"","type":"bytes32"}],"stateMutability":"nonpayable","type":"function"}],"evm":{"bytecode":{"linkReferences":{},"object":"6080346100d257601f61165a38819003918201601f19168301916001600160401b038311848410176100d75780849260409485528339810103126100d25780516001600160a01b0391828216918290036100d257602001519033156100b95760005460018060a01b0319903382821617600055604051943391167f8be0079c531659141344cd1fd0a4f28419497f9722a3daafe3b4186f6b6457e0600080a360018055600354161760035560025561156c90816100ee8239f35b604051631e4fbdf760e01b815260006004820152602490fd5b600080fd5b634e487b7160e01b600052604160045260246000fdfe6080604052600436101561001257600080fd5b60003560e01c806301b8dee6146101325780630beb4da71461012d578063122ec0e01461012857806322b338d714610123578063488dbfad1461011e5780634d0af4281461011e5780635efb870a14610119578063715018a614610114578063803a28f61461010f5780638da5cb5b1461010a578063915fe23c1461010557806395b3222514610100578063a542b44f146100fb578063b1f5993b146100f6578063d25cd666146100f1578063d50ee3b5146100ec578063e9b6c019146100e75763f2fde38b146100e257600080fd5b610878565b61081c565b6107fe565b6107e2565b6107c5565b610794565b6104d9565b61044d565b610424565b61035e565b610300565b6102d7565b6102a6565b61028a565b610253565b6101e1565b610147565b600091031261014257565b600080fd5b34610142576000366003190112610142576020600254604051908152f35b9181601f84011215610142578235916001600160401b038311610142576020838186019501011161014257565b90606060031983011261014257600435916001600160401b039160243583811161014257826101c391600401610165565b93909392604435918211610142576101dd91600401610165565b9091565b34610142576101ef36610192565b9193929330330361020e5760209461020694610b43565b604051908152f35b60405162461bcd60e51b815260206004820152601b60248201527f506f414356657269666965723a20696e7465726e616c206f6e6c7900000000006044820152606490fd5b34610142576020366003190112610142576004356000526004602052602063ffffffff600160406000200154821c16604051908152f35b3461014257600036600319011261014257602060405160a48152f35b34610142576020366003190112610142576004356000526005602052602060ff604060002054166040519015158152f35b34610142576000366003190112610142576003546040516001600160a01b039091168152602090f35b346101425760008060031936011261035b5761031a610904565b80546001600160a01b03198116825581906001600160a01b03167f8be0079c531659141344cd1fd0a4f28419497f9722a3daafe3b4186f6b6457e08280a380f35b80fd5b346101425761036c36610192565b9361037893919361094a565b60a4830361040b57602060006040518585823780868101838152039060025afa156104065760008051600660205260409091206103b7905b5460ff1690565b6103e8576103e46103cb8787878787610b43565b6103d460018055565b6040519081529081906020820190565b0390f35b6040516332888c0560e21b81526004810191909152602490fd5b0390fd5b61093e565b6040516308575bc960e41b815260048101849052602490fd5b34610142576000366003190112610142576000546040516001600160a01b039091168152602090f35b3461014257602036600319011261014257610466610904565b600435600255005b9181601f84011215610142578235916001600160401b038311610142576020808501948460051b01011161014257565b6020908160408183019282815285518094520193019160005b8281106104c5575050505090565b8351855293810193928101926001016104b7565b346101425760603660031901126101425760046001600160401b0381358181116101425761050a903690840161046e565b92909160243581811161014257610524903690840161046e565b9390916044359081116101425761053e903690850161046e565b919061054861094a565b861561078357858714801590610779575b61076857949293919061056b876109f3565b95600094859686955b8a87106105d057604080518c8152602081018b90529081018990526103e4908b907f6cedc2bc02d0738da2fff66f7bc5753bdbb34f5aaf4f9c2a71c4d52b661aed0790606090a16105c460018055565b6040519182918261049e565b90919293949596878a60a46105e6838888610a65565b90500361075557506105f9908585610a65565b604092916000845180610610816020968796610930565b039060025afa1561040657888c91888f8d968a8a928e6000516106406103b0826000526006602052604060002090565b610739578b6106ad9594610685828b9c9d9e9f95966106949761068061067361068c986000526006602052604060002090565b805460ff19166001179055565b610abf565b3597610a65565b999096610a65565b9151630beb4da760e01b815297889586958d8701610aff565b03816000305af191829160009361070a575b50506106f057506106e59160006106d98b6106df94610aab565b52610a3b565b97610a3b565b959493929190610574565b99899a6106d96106e5949b61070494610aab565b98610a3b565b61072a929350803d10610732575b610722818361099b565b810190610acf565b9038806106bf565b503d610718565b5050505050505050509060006106d96106e5946106df94610aab565b9160006106d96106df936106e595610aab565b60405163512509d360e11b81528590fd5b5082871415610559565b60405163c2e5347d60e01b81528590fd5b34610142576020366003190112610142576004356000526006602052602060ff604060002054166040519015158152f35b346101425760003660031901126101425760206040516101008152f35b3461014257600036600319011261014257602060405160408152f35b34610142576000366003190112610142576020600754604051908152f35b346101425760203660031901126101425760043560005260046020526060604060002060ff6001825492015460405192835263ffffffff8116602084015260401c1615156040820152f35b6001600160a01b0381160361014257565b346101425760203660031901126101425760043561089581610867565b61089d610904565b6001600160a01b0390811680156108eb57600080546001600160a01b03198116831782559092167f8be0079c531659141344cd1fd0a4f28419497f9722a3daafe3b4186f6b6457e08380a380f35b604051631e4fbdf760e01b815260006004820152602490fd5b6000546001600160a01b0316330361091857565b60405163118cdaa760e01b8152336004820152602490fd5b908092918237016000815290565b6040513d6000823e3d90fd5b60026001541461095b576002600155565b604051633ee5aeb560e01b8152600490fd5b634e487b7160e01b600052604160045260246000fd5b6001600160401b03811161099657604052565b61096d565b90601f801991011681019081106001600160401b0382111761099657604052565b6040519061014082018281106001600160401b0382111761099657604052565b6001600160401b0381116109965760051b60200190565b906109fd826109dc565b610a0a604051918261099b565b8281528092610a1b601f19916109dc565b0190602036910137565b634e487b7160e01b600052601160045260246000fd5b6000198114610a4a5760010190565b610a25565b634e487b7160e01b600052603260045260246000fd5b9190811015610aa65760051b81013590601e19813603018212156101425701908135916001600160401b038311610142576020018236038113610142579190565b610a4f565b8051821015610aa65760209160051b010190565b9190811015610aa65760051b0190565b90816020910312610142575190565b908060209392818452848401376000828201840152601f01601f1916010190565b9391610b2b9593610b1d928652606060208701526060860191610ade565b926040818503910152610ade565b90565b63ffffffff809116908114610a4a5760010190565b929493919060a48203610ef157604092838103610ed857610b63856110c8565b60208451938480610b78600097889488610930565b039060025afa1561040657825196610b9d6103b0896000526005602052604060002090565b610ec057610bb69291610bb19189886111c5565b61134e565b91610bcb846000526004602052604060002090565b60018101805480841c60ff16949192908580610ea9575b610e58575088906080870195610c02610bfc885160070b90565b8a6112a2565b87519081610e0f575b505055610c996060860192610c3d610c27855163ffffffff1690565b825463ffffffff191663ffffffff909116178255565b610c7c610c5a610c55835463ffffffff9060201c1690565b610b2e565b825467ffffffff00000000191660209190911b67ffffffff0000000016178255565b805468ff0000000000000000191668010000000000000000179055565b610cb0610673896000526006602052604060002090565b610cc7610673896000526005602052604060002090565b610cda610cd5600754610a3b565b600755565b600354610cf7906001600160a01b03165b6001600160a01b031690565b803b15610e0b5792610d87610d7f7fcfaf1c01b5ed0efe033edf39991653ab530ccf7137a5f17be336449eadb644ce969484610ded95610d6b8c9b998f9d88519485809481936307567c7560e01b835260048301606060009193929360808101948152600160208201528260408201520152565b03925af1610df2575b505163ffffffff1690565b935160070b90565b93610d958282015160ff1690565b610db460a0610da8602085015160ff1690565b93015163ffffffff1690565b925163ffffffff958616815260079690960b602087015260ff9081166040870152166060850152919091166080830152819060a0820190565b0390a3565b80610dff610e0592610983565b80610137565b38610d74565b5080fd5b9192509080610e4d575b610e265790818a92610c0b565b815485516304b3e53960e31b8152600481018a905260248101929092526044820152606490fd5b508154811415610e19565b63ffffffff906104028987610e7460608c015163ffffffff1690565b905194859463dce74d9160e01b86521691600485019160409194936060840195845263ffffffff809216602085015216910152565b50606087015163ffffffff82811691161115610be2565b845163384c4ec960e01b815260048101899052602490fd5b835163058676ad60e31b81526004810191909152602490fd5b6040516308575bc960e41b815260048101839052602490fd5b5190811515820361014257565b9081602091031261014257610b2b90610f0a565b5190610f3682610867565b565b51906001600160401b038216820361014257565b6001600160401b03811161099657601f01601f191660200190565b919080601f8401121561014257825190610f8082610f4c565b91610f8e604051938461099b565b8083526020918282870101116101425760005b818110610fb657508260009394955001015290565b8581018301518482018401528201610fa1565b519063ffffffff8216820361014257565b519061ffff8216820361014257565b6020818303126101425780516001600160401b0391828211610142570190610140828403126101425761101a6109bc565b9261102483610f2b565b845261103260208401610f38565b602085015261104360408401610f38565b60408501526060830151606085015261105e60808401610f0a565b608085015260a08301519182116101425761107a918301610f67565b60a083015261108b60c08201610fc9565b60c083015261109c60e08201610fc9565b60e08301526101006110af818301610fc9565b908301526110c1610120809201610fda565b9082015290565b6003546110dd906001600160a01b0316610ceb565b604051635ec8fe6b60e01b815260048101839052602081602481855afa90811561040657600091611197575b5015611113575050565b6040516359d902ed60e01b81526004810183905290600090829060249082905afa9081611174575b5061115a5760405163072b382f60e21b81526004810191909152602490fd5b60405163159c717560e11b81526004810191909152602490fd5b611190903d806000833e611188818361099b565b810190610fe9565b508261113b565b6111b8915060203d81116111be575b6111b0818361099b565b810190610f17565b38611109565b503d6111a6565b60035460405163804ad24960e01b8152600481018390529294919360009390918490829060249082906001600160a01b03165afa938415610406578094611246575b5050916112189161121c938661143a565b1590565b611224575050565b604051636366097760e11b815260048101919091526024810191909152604490fd5b909193503d8082843e611259818461099b565b820191602081840312610e0b578051916001600160401b03831161035b575061121c9492611218949261128c9201610f67565b93819350611207565b91908201809211610a4a57565b906103e8804202428104821442151715610a4a576000600784900b811361134857506001600160401b038316905b60025492808402908482041484151715610a4a576112ee8183611295565b8311928315611334575b50505061130457505050565b60405163587b5a6d60e01b8152600481019390935260079190910b60248301524260448301526064820152608490fd5b61133f929350611295565b103880806112f8565b906112d0565b9060405160c081018181106001600160401b038211176109965760405260a08082948035845263ffffffff60808201358060001a60208701528060011a604087015260c01c166060850152608881013560c01c6080850152013560e01c910152565b156113b757565b60405162461bcd60e51b815260206004820152602560248201527f506f414356657269666965723a207075626b6579206d75737420626520363520604482015264627974657360d81b6064820152608490fd5b3d15611435573d9061141b82610f4c565b91611429604051938461099b565b82523d6000602084013e565b606090565b90916040036114e057826114a9600094936114596041879651146113b0565b61149b604160218501519401516040519485936020850197602082013591359089939160a0959391855260208501526040840152606083015260808201520190565b03601f19810183528261099b565b51906101005afa6114b861140a565b901580156114d5575b6114cf576020015160011490565b50600090565b5060208151106114c1565b60405162461bcd60e51b815260206004820152602860248201527f506f414356657269666965723a207369676e6174757265206d75737420626520604482015267363420627974657360c01b6064820152608490fdfea26469706673582212203406042554500733e86f3b6b3146567d5108af8cc6639ff093a24c3c6866267f64736f6c63430008140033","opcodes":"PUSH1 0x80 CALLVALUE PUSH2 0xD2 JUMPI PUSH1 0x1F PUSH2 0x165A CODESIZE DUP2 SWAP1 SUB SWAP2 DUP3 ADD PUSH1 0x1F NOT AND DUP4 ADD SWAP2 PUSH1 0x1 PUSH1 0x1 PUSH1 0x40 SHL SUB DUP4 GT DUP5 DUP5 LT OR PUSH2 0xD7 JUMPI DUP1 DUP5 SWAP3 PUSH1 0x40 SWAP5 DUP6 MSTORE DUP4 CODECOPY DUP2 ADD SUB SLT PUSH2 0xD2 JUMPI DUP1 MLOAD PUSH1 0x1 PUSH1 0x1 PUSH1 0xA0 SHL SUB SWAP2 DUP3 DUP3 AND SWAP2 DUP3 SWAP1 SUB PUSH2 0xD2 JUMPI PUSH1 0x20 ADD MLOAD SWAP1 CALLER ISZERO PUSH2 0xB9 JUMPI PUSH1 0x0 SLOAD PUSH1 0x1 DUP1 PUSH1 0xA0 SHL SUB NOT SWAP1 CALLER DUP3 DUP3 AND OR PUSH1 0x0 SSTORE PUSH1 0x40 MLOAD SWAP5 CALLER SWAP2 AND PUSH32 0x8BE0079C531659141344CD1FD0A4F28419497F9722A3DAAFE3B4186F6B6457E0 PUSH1 0x0 DUP1 LOG3 PUSH1 0x1 DUP1 SSTORE PUSH1 0x3 SLOAD AND OR PUSH1 0x3 SSTORE PUSH1 0x2 SSTORE PUSH2 0x156C SWAP1 DUP2 PUSH2 0xEE DUP3 CODECOPY RETURN JUMPDEST PUSH1 0x40 MLOAD PUSH4 0x1E4FBDF7 PUSH1 0xE0 SHL DUP2 MSTORE PUSH1 0x0 PUSH1 0x4 DUP3 ADD MSTORE PUSH1 0x24 SWAP1 REVERT JUMPDEST PUSH1 0x0 DUP1 REVERT JUMPDEST PUSH4 0x4E487B71 PUSH1 0xE0 SHL PUSH1 0x0 MSTORE PUSH1 0x41 PUSH1 0x4 MSTORE PUSH1 0x24 PUSH1 0x0 REVERT INVALID PUSH1 0x80 PUSH1 0x40 MSTORE PUSH1 0x4 CALLDATASIZE LT ISZERO PUSH2 0x12 JUMPI PUSH1 0x0 DUP1 REVERT JUMPDEST PUSH1 0x0 CALLDATALOAD PUSH1 0xE0 SHR DUP1 PUSH4 0x1B8DEE6 EQ PUSH2 0x132 JUMPI DUP1 PUSH4 0xBEB4DA7 EQ PUSH2 0x12D JUMPI DUP1 PUSH4 0x122EC0E0 EQ PUSH2 0x128 JUMPI DUP1 PUSH4 0x22B338D7 EQ PUSH2 0x123 JUMPI DUP1 PUSH4 0x488DBFAD EQ PUSH2 0x11E JUMPI DUP1 PUSH4 0x4D0AF428 EQ PUSH2 0x11E JUMPI DUP1 PUSH4 0x5EFB870A EQ PUSH2 0x119 JUMPI DUP1 PUSH4 0x715018A6 EQ PUSH2 0x114 JUMPI DUP1 PUSH4 0x803A28F6 EQ PUSH2 0x10F JUMPI DUP1 PUSH4 0x8DA5CB5B EQ PUSH2 0x10A JUMPI DUP1 PUSH4 0x915FE23C EQ PUSH2 0x105 JUMPI DUP1 PUSH4 0x95B32225 EQ PUSH2 0x100 JUMPI DUP1 PUSH4 0xA542B44F EQ PUSH2 0xFB JUMPI DUP1 PUSH4 0xB1F5993B EQ PUSH2 0xF6 JUMPI DUP1 PUSH4 0xD25CD666 EQ PUSH2 0xF1 JUMPI DUP1 PUSH4 0xD50EE3B5 EQ PUSH2 0xEC JUMPI DUP1 PUSH4 0xE9B6C019 EQ PUSH2 0xE7 JUMPI PUSH4 0xF2FDE38B EQ PUSH2 0xE2 JUMPI PUSH1 0x0 DUP1 REVERT JUMPDEST PUSH2 0x878 JUMP JUMPDEST PUSH2 0x81C JUMP JUMPDEST PUSH2 0x7FE JUMP JUMPDEST PUSH2 0x7E2 JUMP JUMPDEST PUSH2 0x7C5 JUMP JUMPDEST PUSH2 0x794 JUMP JUMPDEST PUSH2 0x4D9 JUMP JUMPDEST PUSH2 0x44D JUMP JUMPDEST PUSH2 0x424 JUMP JUMPDEST PUSH2 0x35E JUMP JUMPDEST PUSH2 0x300 JUMP JUMPDEST PUSH2 0x2D7 JUMP JUMPDEST PUSH2 0x2A6 JUMP JUMPDEST PUSH2 0x28A JUMP JUMPDEST PUSH2 0x253 JUMP JUMPDEST PUSH2 0x1E1 JUMP JUMPDEST PUSH2 0x147 JUMP JUMPDEST PUSH1 0x0 SWAP2 SUB SLT PUSH2 0x142 JUMPI JUMP JUMPDEST PUSH1 0x0 DUP1 REVERT JUMPDEST CALLVALUE PUSH2 0x142 JUMPI PUSH1 0x0 CALLDATASIZE PUSH1 0x3 NOT ADD SLT PUSH2 0x142 JUMPI PUSH1 0x20 PUSH1 0x2 SLOAD PUSH1 0x40 MLOAD SWAP1 DUP2 MSTORE RETURN JUMPDEST SWAP2 DUP2 PUSH1 0x1F DUP5 ADD SLT ISZERO PUSH2 0x142 JUMPI DUP3 CALLDATALOAD SWAP2 PUSH1 0x1 PUSH1 0x1 PUSH1 0x40 SHL SUB DUP4 GT PUSH2 0x142 JUMPI PUSH1 0x20 DUP4 DUP2 DUP7 ADD SWAP6 ADD ADD GT PUSH2 0x142 JUMPI JUMP JUMPDEST SWAP1 PUSH1 0x60 PUSH1 0x3 NOT DUP4 ADD SLT PUSH2 0x142 JUMPI PUSH1 0x4 CALLDATALOAD SWAP2 PUSH1 0x1 PUSH1 0x1 PUSH1 0x40 SHL SUB SWAP2 PUSH1 0x24 CALLDATALOAD DUP4 DUP2 GT PUSH2 0x142 JUMPI DUP3 PUSH2 0x1C3 SWAP2 PUSH1 0x4 ADD PUSH2 0x165 JUMP JUMPDEST SWAP4 SWAP1 SWAP4 SWAP3 PUSH1 0x44 CALLDATALOAD SWAP2 DUP3 GT PUSH2 0x142 JUMPI PUSH2 0x1DD SWAP2 PUSH1 0x4 ADD PUSH2 0x165 JUMP JUMPDEST SWAP1 SWAP2 JUMP JUMPDEST CALLVALUE PUSH2 0x142 JUMPI PUSH2 0x1EF CALLDATASIZE PUSH2 0x192 JUMP JUMPDEST SWAP2 SWAP4 SWAP3 SWAP4 ADDRESS CALLER SUB PUSH2 0x20E JUMPI PUSH1 0x20 SWAP5 PUSH2 0x206 SWAP5 PUSH2 0xB43 JUMP JUMPDEST PUSH1 0x40 MLOAD SWAP1 DUP2 MSTORE RETURN JUMPDEST PUSH1 0x40 MLOAD PUSH3 0x461BCD PUSH1 0xE5 SHL DUP2 MSTORE PUSH1 0x20 PUSH1 0x4 DUP3 ADD MSTORE PUSH1 0x1B PUSH1 0x24 DUP3 ADD MSTORE PUSH32 0x506F414356657269666965723A20696E7465726E616C206F6E6C790000000000 PUSH1 0x44 DUP3 ADD MSTORE PUSH1 0x64 SWAP1 REVERT JUMPDEST CALLVALUE PUSH2 0x142 JUMPI PUSH1 0x20 CALLDATASIZE PUSH1 0x3 NOT ADD SLT PUSH2 0x142 JUMPI PUSH1 0x4 CALLDATALOAD PUSH1 0x0 MSTORE PUSH1 0x4 PUSH1 0x20 MSTORE PUSH1 0x20 PUSH4 0xFFFFFFFF PUSH1 0x1 PUSH1 0x40 PUSH1 0x0 KECCAK256 ADD SLOAD DUP3 SHR AND PUSH1 0x40 MLOAD SWAP1 DUP2 MSTORE RETURN JUMPDEST CALLVALUE PUSH2 0x142 JUMPI PUSH1 0x0 CALLDATASIZE PUSH1 0x3 NOT ADD SLT PUSH2 0x142 JUMPI PUSH1 0x20 PUSH1 0x40 MLOAD PUSH1 0xA4 DUP2 MSTORE RETURN JUMPDEST CALLVALUE PUSH2 0x142 JUMPI PUSH1 0x20 CALLDATASIZE PUSH1 0x3 NOT ADD SLT PUSH2 0x142 JUMPI PUSH1 0x4 CALLDATALOAD PUSH1 0x0 MSTORE PUSH1 0x5 PUSH1 0x20 MSTORE PUSH1 0x20 PUSH1 0xFF PUSH1 0x40 PUSH1 0x0 KECCAK256 SLOAD AND PUSH1 0x40 MLOAD SWAP1 ISZERO ISZERO DUP2 MSTORE RETURN JUMPDEST CALLVALUE PUSH2 0x142 JUMPI PUSH1 0x0 CALLDATASIZE PUSH1 0x3 NOT ADD SLT PUSH2 0x142 JUMPI PUSH1 0x3 SLOAD PUSH1 0x40 MLOAD PUSH1 0x1 PUSH1 0x1 PUSH1 0xA0 SHL SUB SWAP1 SWAP2 AND DUP2 MSTORE PUSH1 0x20 SWAP1 RETURN JUMPDEST CALLVALUE PUSH2 0x142 JUMPI PUSH1 0x0 DUP1 PUSH1 0x3 NOT CALLDATASIZE ADD SLT PUSH2 0x35B JUMPI PUSH2 0x31A PUSH2 0x904 JUMP JUMPDEST DUP1 SLOAD PUSH1 0x1 PUSH1 0x1 PUSH1 0xA0 SHL SUB NOT DUP2 AND DUP3 SSTORE DUP2 SWAP1 PUSH1 0x1 PUSH1 0x1 PUSH1 0xA0 SHL SUB AND PUSH32 0x8BE0079C531659141344CD1FD0A4F28419497F9722A3DAAFE3B4186F6B6457E0 DUP3 DUP1 LOG3 DUP1 RETURN JUMPDEST DUP1 REVERT JUMPDEST CALLVALUE PUSH2 0x142 JUMPI PUSH2 0x36C CALLDATASIZE PUSH2 0x192 JUMP JUMPDEST SWAP4 PUSH2 0x378 SWAP4 SWAP2 SWAP4 PUSH2 0x94A JUMP JUMPDEST PUSH1 0xA4 DUP4 SUB PUSH2 0x40B JUMPI PUSH1 0x20 PUSH1 0x0 PUSH1 0x40 MLOAD DUP6 DUP6 DUP3 CALLDATACOPY DUP1 DUP7 DUP2 ADD DUP4 DUP2 MSTORE SUB SWAP1 PUSH1 0x2 GAS STATICCALL ISZERO PUSH2 0x406 JUMPI PUSH1 0x0 DUP1 MLOAD PUSH1 0x6 PUSH1 0x20 MSTORE PUSH1 0x40 SWAP1 SWAP2 KECCAK256 PUSH2 0x3B7 SWAP1 JUMPDEST SLOAD PUSH1 0xFF AND SWAP1 JUMP JUMPDEST PUSH2 0x3E8 JUMPI PUSH2 0x3E4 PUSH2 0x3CB DUP8 DUP8 DUP8 DUP8 DUP8 PUSH2 0xB43 JUMP JUMPDEST PUSH2 0x3D4 PUSH1 0x1 DUP1 SSTORE JUMP JUMPDEST PUSH1 0x40 MLOAD SWAP1 DUP2 MSTORE SWAP1 DUP2 SWAP1 PUSH1 0x20 DUP3 ADD SWAP1 JUMP JUMPDEST SUB SWAP1 RETURN JUMPDEST PUSH1 0x40 MLOAD PUSH4 0x32888C05 PUSH1 0xE2 SHL DUP2 MSTORE PUSH1 0x4 DUP2 ADD SWAP2 SWAP1 SWAP2 MSTORE PUSH1 0x24 SWAP1 REVERT JUMPDEST SUB SWAP1 REVERT JUMPDEST PUSH2 0x93E JUMP JUMPDEST PUSH1 0x40 MLOAD PUSH4 0x8575BC9 PUSH1 0xE4 SHL DUP2 MSTORE PUSH1 0x4 DUP2 ADD DUP5 SWAP1 MSTORE PUSH1 0x24 SWAP1 REVERT JUMPDEST CALLVALUE PUSH2 0x142 JUMPI PUSH1 0x0 CALLDATASIZE PUSH1 0x3 NOT ADD SLT PUSH2 0x142 JUMPI PUSH1 0x0 SLOAD PUSH1 0x40 MLOAD PUSH1 0x1 PUSH1 0x1 PUSH1 0xA0 SHL SUB SWAP1 SWAP2 AND DUP2 MSTORE PUSH1 0x20 SWAP1 RETURN JUMPDEST CALLVALUE PUSH2 0x142 JUMPI PUSH1 0x20 CALLDATASIZE PUSH1 0x3 NOT ADD SLT PUSH2 0x142 JUMPI PUSH2 0x466 PUSH2 0x904 JUMP JUMPDEST PUSH1 0x4 CALLDATALOAD PUSH1 0x2 SSTORE STOP JUMPDEST SWAP2 DUP2 PUSH1 0x1F DUP5 ADD SLT ISZERO PUSH2 0x142 JUMPI DUP3 CALLDATALOAD SWAP2 PUSH1 0x1 PUSH1 0x1 PUSH1 0x40 SHL SUB DUP4 GT PUSH2 0x142 JUMPI PUSH1 0x20 DUP1 DUP6 ADD SWAP5 DUP5 PUSH1 0x5 SHL ADD ADD GT PUSH2 0x142 JUMPI JUMP JUMPDEST PUSH1 0x20 SWAP1 DUP2 PUSH1 0x40 DUP2 DUP4 ADD SWAP3 DUP3 DUP2 MSTORE DUP6 MLOAD DUP1 SWAP5 MSTORE ADD SWAP4 ADD SWAP2 PUSH1 0x0 JUMPDEST DUP3 DUP2 LT PUSH2 0x4C5 JUMPI POP POP POP POP SWAP1 JUMP JUMPDEST DUP4 MLOAD DUP6 MSTORE SWAP4 DUP2 ADD SWAP4 SWAP3 DUP2 ADD SWAP3 PUSH1 0x1 ADD PUSH2 0x4B7 JUMP JUMPDEST CALLVALUE PUSH2 0x142 JUMPI PUSH1 0x60 CALLDATASIZE PUSH1 0x3 NOT ADD SLT PUSH2 0x142 JUMPI PUSH1 0x4 PUSH1 0x1 PUSH1 0x1 PUSH1 0x40 SHL SUB DUP2 CALLDATALOAD DUP2 DUP2 GT PUSH2 0x142 JUMPI PUSH2 0x50A SWAP1 CALLDATASIZE SWAP1 DUP5 ADD PUSH2 0x46E JUMP JUMPDEST SWAP3 SWAP1 SWAP2 PUSH1 0x24 CALLDATALOAD DUP2 DUP2 GT PUSH2 0x142 JUMPI PUSH2 0x524 SWAP1 CALLDATASIZE SWAP1 DUP5 ADD PUSH2 0x46E JUMP JUMPDEST SWAP4 SWAP1 SWAP2 PUSH1 0x44 CALLDATALOAD SWAP1 DUP2 GT PUSH2 0x142 JUMPI PUSH2 0x53E SWAP1 CALLDATASIZE SWAP1 DUP6 ADD PUSH2 0x46E JUMP JUMPDEST SWAP2 SWAP1 PUSH2 0x548 PUSH2 0x94A JUMP JUMPDEST DUP7 ISZERO PUSH2 0x783 JUMPI DUP6 DUP8 EQ DUP1 ISZERO SWAP1 PUSH2 0x779 JUMPI JUMPDEST PUSH2 0x768 JUMPI SWAP5 SWAP3 SWAP4 SWAP2 SWAP1 PUSH2 0x56B DUP8 PUSH2 0x9F3 JUMP JUMPDEST SWAP6 PUSH1 0x0 SWAP5 DUP6 SWAP7 DUP7 SWAP6 JUMPDEST DUP11 DUP8 LT PUSH2 0x5D0 JUMPI PUSH1 0x40 DUP1 MLOAD DUP13 DUP2 MSTORE PUSH1 0x20 DUP2 ADD DUP12 SWAP1 MSTORE SWAP1 DUP2 ADD DUP10 SWAP1 MSTORE PUSH2 0x3E4 SWAP1 DUP12 SWAP1 PUSH32 0x6CEDC2BC02D0738DA2FFF66F7BC5753BDBB34F5AAF4F9C2A71C4D52B661AED07 SWAP1 PUSH1 0x60 SWAP1 LOG1 PUSH2 0x5C4 PUSH1 0x1 DUP1 SSTORE JUMP JUMPDEST PUSH1 0x40 MLOAD SWAP2 DUP3 SWAP2 DUP3 PUSH2 0x49E JUMP JUMPDEST SWAP1 SWAP2 SWAP3 SWAP4 SWAP5 SWAP6 SWAP7 DUP8 DUP11 PUSH1 0xA4 PUSH2 0x5E6 DUP4 DUP9 DUP9 PUSH2 0xA65 JUMP JUMPDEST SWAP1 POP SUB PUSH2 0x755 JUMPI POP PUSH2 0x5F9 SWAP1 DUP6 DUP6 PUSH2 0xA65 JUMP JUMPDEST PUSH1 0x40 SWAP3 SWAP2 PUSH1 0x0 DUP5 MLOAD DUP1 PUSH2 0x610 DUP2 PUSH1 0x20 SWAP7 DUP8 SWAP7 PUSH2 0x930 JUMP JUMPDEST SUB SWAP1 PUSH1 0x2 GAS STATICCALL ISZERO PUSH2 0x406 JUMPI DUP9 DUP13 SWAP2 DUP9 DUP16 DUP14 SWAP7 DUP11 DUP11 SWAP3 DUP15 PUSH1 0x0 MLOAD PUSH2 0x640 PUSH2 0x3B0 DUP3 PUSH1 0x0 MSTORE PUSH1 0x6 PUSH1 0x20 MSTORE PUSH1 0x40 PUSH1 0x0 KECCAK256 SWAP1 JUMP JUMPDEST PUSH2 0x739 JUMPI DUP12 PUSH2 0x6AD SWAP6 SWAP5 PUSH2 0x685 DUP3 DUP12 SWAP13 SWAP14 SWAP15 SWAP16 SWAP6 SWAP7 PUSH2 0x694 SWAP8 PUSH2 0x680 PUSH2 0x673 PUSH2 0x68C SWAP9 PUSH1 0x0 MSTORE PUSH1 0x6 PUSH1 0x20 MSTORE PUSH1 0x40 PUSH1 0x0 KECCAK256 SWAP1 JUMP JUMPDEST DUP1 SLOAD PUSH1 0xFF NOT AND PUSH1 0x1 OR SWAP1 SSTORE JUMP JUMPDEST PUSH2 0xABF JUMP JUMPDEST CALLDATALOAD SWAP8 PUSH2 0xA65 JUMP JUMPDEST SWAP10 SWAP1 SWAP7 PUSH2 0xA65 JUMP JUMPDEST SWAP2 MLOAD PUSH4 0xBEB4DA7 PUSH1 0xE0 SHL DUP2 MSTORE SWAP8 DUP9 SWAP6 DUP7 SWAP6 DUP14 DUP8 ADD PUSH2 0xAFF JUMP JUMPDEST SUB DUP2 PUSH1 0x0 ADDRESS GAS CALL SWAP2 DUP3 SWAP2 PUSH1 0x0 SWAP4 PUSH2 0x70A JUMPI JUMPDEST POP POP PUSH2 0x6F0 JUMPI POP PUSH2 0x6E5 SWAP2 PUSH1 0x0 PUSH2 0x6D9 DUP12 PUSH2 0x6DF SWAP5 PUSH2 0xAAB JUMP JUMPDEST MSTORE PUSH2 0xA3B JUMP JUMPDEST SWAP8 PUSH2 0xA3B JUMP JUMPDEST SWAP6 SWAP5 SWAP4 SWAP3 SWAP2 SWAP1 PUSH2 0x574 JUMP JUMPDEST SWAP10 DUP10 SWAP11 PUSH2 0x6D9 PUSH2 0x6E5 SWAP5 SWAP12 PUSH2 0x704 SWAP5 PUSH2 0xAAB JUMP JUMPDEST SWAP9 PUSH2 0xA3B JUMP JUMPDEST PUSH2 0x72A SWAP3 SWAP4 POP DUP1 RETURNDATASIZE LT PUSH2 0x732 JUMPI JUMPDEST PUSH2 0x722 DUP2 DUP4 PUSH2 0x99B JUMP JUMPDEST DUP2 ADD SWAP1 PUSH2 0xACF JUMP JUMPDEST SWAP1 CODESIZE DUP1 PUSH2 0x6BF JUMP JUMPDEST POP RETURNDATASIZE PUSH2 0x718 JUMP JUMPDEST POP POP POP POP POP POP POP POP POP SWAP1 PUSH1 0x0 PUSH2 0x6D9 PUSH2 0x6E5 SWAP5 PUSH2 0x6DF SWAP5 PUSH2 0xAAB JUMP JUMPDEST SWAP2 PUSH1 0x0 PUSH2 0x6D9 PUSH2 0x6DF SWAP4 PUSH2 0x6E5 SWAP6 PUSH2 0xAAB JUMP JUMPDEST PUSH1 0x40 MLOAD PUSH4 0x512509D3 PUSH1 0xE1 SHL DUP2 MSTORE DUP6 SWAP1 REVERT JUMPDEST POP DUP3 DUP8 EQ ISZERO PUSH2 0x559 JUMP JUMPDEST PUSH1 0x40 MLOAD PUSH4 0xC2E5347D PUSH1 0xE0 SHL DUP2 MSTORE DUP6 SWAP1 REVERT JUMPDEST CALLVALUE PUSH2 0x142 JUMPI PUSH1 0x20 CALLDATASIZE PUSH1 0x3 NOT ADD SLT PUSH2 0x142 JUMPI PUSH1 0x4 CALLDATALOAD PUSH1 0x0 MSTORE PUSH1 0x6 PUSH1 0x20 MSTORE PUSH1 0x20 PUSH1 0xFF PUSH1 0x40 PUSH1 0x0 KECCAK256 SLOAD AND PUSH1 0x40 MLOAD SWAP1 ISZERO ISZERO DUP2 MSTORE RETURN JUMPDEST CALLVALUE PUSH2 0x142 JUMPI PUSH1 0x0 CALLDATASIZE PUSH1 0x3 NOT ADD SLT PUSH2 0x142 JUMPI PUSH1 0x20 PUSH1 0x40 MLOAD PUSH2 0x100 DUP2 MSTORE RETURN JUMPDEST CALLVALUE PUSH2 0x142 JUMPI PUSH1 0x0 CALLDATASIZE PUSH1 0x3 NOT ADD SLT PUSH2 0x142 JUMPI PUSH1 0x20 PUSH1 0x40 MLOAD PUSH1 0x40 DUP2 MSTORE RETURN JUMPDEST CALLVALUE PUSH2 0x142 JUMPI PUSH1 0x0 CALLDATASIZE PUSH1 0x3 NOT ADD SLT PUSH2 0x142 JUMPI PUSH1 0x20 PUSH1 0x7 SLOAD PUSH1 0x40 MLOAD SWAP1 DUP2 MSTORE RETURN JUMPDEST CALLVALUE PUSH2 0x142 JUMPI PUSH1 0x20 CALLDATASIZE PUSH1 0x3 NOT ADD SLT PUSH2 0x142 JUMPI PUSH1 0x4 CALLDATALOAD PUSH1 0x0 MSTORE PUSH1 0x4 PUSH1 0x20 MSTORE PUSH1 0x60 PUSH1 0x40 PUSH1 0x0 KECCAK256 PUSH1 0xFF PUSH1 0x1 DUP3 SLOAD SWAP3 ADD SLOAD PUSH1 0x40 MLOAD SWAP3 DUP4 MSTORE PUSH4 0xFFFFFFFF DUP2 AND PUSH1 0x20 DUP5 ADD MSTORE PUSH1 0x40 SHR AND ISZERO ISZERO PUSH1 0x40 DUP3 ADD MSTORE RETURN JUMPDEST PUSH1 0x1 PUSH1 0x1 PUSH1 0xA0 SHL SUB DUP2 AND SUB PUSH2 0x142 JUMPI JUMP JUMPDEST CALLVALUE PUSH2 0x142 JUMPI PUSH1 0x20 CALLDATASIZE PUSH1 0x3 NOT ADD SLT PUSH2 0x142 JUMPI PUSH1 0x4 CALLDATALOAD PUSH2 0x895 DUP2 PUSH2 0x867 JUMP JUMPDEST PUSH2 0x89D PUSH2 0x904 JUMP JUMPDEST PUSH1 0x1 PUSH1 0x1 PUSH1 0xA0 SHL SUB SWAP1 DUP2 AND DUP1 ISZERO PUSH2 0x8EB JUMPI PUSH1 0x0 DUP1 SLOAD PUSH1 0x1 PUSH1 0x1 PUSH1 0xA0 SHL SUB NOT DUP2 AND DUP4 OR DUP3 SSTORE SWAP1 SWAP3 AND PUSH32 0x8BE0079C531659141344CD1FD0A4F28419497F9722A3DAAFE3B4186F6B6457E0 DUP4 DUP1 LOG3 DUP1 RETURN JUMPDEST PUSH1 0x40 MLOAD PUSH4 0x1E4FBDF7 PUSH1 0xE0 SHL DUP2 MSTORE PUSH1 0x0 PUSH1 0x4 DUP3 ADD MSTORE PUSH1 0x24 SWAP1 REVERT JUMPDEST PUSH1 0x0 SLOAD PUSH1 0x1 PUSH1 0x1 PUSH1 0xA0 SHL SUB AND CALLER SUB PUSH2 0x918 JUMPI JUMP JUMPDEST PUSH1 0x40 MLOAD PUSH4 0x118CDAA7 PUSH1 0xE0 SHL DUP2 MSTORE CALLER PUSH1 0x4 DUP3 ADD MSTORE PUSH1 0x24 SWAP1 REVERT JUMPDEST SWAP1 DUP1 SWAP3 SWAP2 DUP3 CALLDATACOPY ADD PUSH1 0x0 DUP2 MSTORE SWAP1 JUMP JUMPDEST PUSH1 0x40 MLOAD RETURNDATASIZE PUSH1 0x0 DUP3 RETURNDATACOPY RETURNDATASIZE SWAP1 REVERT JUMPDEST PUSH1 0x2 PUSH1 0x1 SLOAD EQ PUSH2 0x95B JUMPI PUSH1 0x2 PUSH1 0x1 SSTORE JUMP JUMPDEST PUSH1 0x40 MLOAD PUSH4 0x3EE5AEB5 PUSH1 0xE0 SHL DUP2 MSTORE PUSH1 0x4 SWAP1 REVERT JUMPDEST PUSH4 0x4E487B71 PUSH1 0xE0 SHL PUSH1 0x0 MSTORE PUSH1 0x41 PUSH1 0x4 MSTORE PUSH1 0x24 PUSH1 0x0 REVERT JUMPDEST PUSH1 0x1 PUSH1 0x1 PUSH1 0x40 SHL SUB DUP2 GT PUSH2 0x996 JUMPI PUSH1 0x40 MSTORE JUMP JUMPDEST PUSH2 0x96D JUMP JUMPDEST SWAP1 PUSH1 0x1F DUP1 NOT SWAP2 ADD AND DUP2 ADD SWAP1 DUP2 LT PUSH1 0x1 PUSH1 0x1 PUSH1 0x40 SHL SUB DUP3 GT OR PUSH2 0x996 JUMPI PUSH1 0x40 MSTORE JUMP JUMPDEST PUSH1 0x40 MLOAD SWAP1 PUSH2 0x140 DUP3 ADD DUP3 DUP2 LT PUSH1 0x1 PUSH1 0x1 PUSH1 0x40 SHL SUB DUP3 GT OR PUSH2 0x996 JUMPI PUSH1 0x40 MSTORE JUMP JUMPDEST PUSH1 0x1 PUSH1 0x1 PUSH1 0x40 SHL SUB DUP2 GT PUSH2 0x996 JUMPI PUSH1 0x5 SHL PUSH1 0x20 ADD SWAP1 JUMP JUMPDEST SWAP1 PUSH2 0x9FD DUP3 PUSH2 0x9DC JUMP JUMPDEST PUSH2 0xA0A PUSH1 0x40 MLOAD SWAP2 DUP3 PUSH2 0x99B JUMP JUMPDEST DUP3 DUP2 MSTORE DUP1 SWAP3 PUSH2 0xA1B PUSH1 0x1F NOT SWAP2 PUSH2 0x9DC JUMP JUMPDEST ADD SWAP1 PUSH1 0x20 CALLDATASIZE SWAP2 ADD CALLDATACOPY JUMP JUMPDEST PUSH4 0x4E487B71 PUSH1 0xE0 SHL PUSH1 0x0 MSTORE PUSH1 0x11 PUSH1 0x4 MSTORE PUSH1 0x24 PUSH1 0x0 REVERT JUMPDEST PUSH1 0x0 NOT DUP2 EQ PUSH2 0xA4A JUMPI PUSH1 0x1 ADD SWAP1 JUMP JUMPDEST PUSH2 0xA25 JUMP JUMPDEST PUSH4 0x4E487B71 PUSH1 0xE0 SHL PUSH1 0x0 MSTORE PUSH1 0x32 PUSH1 0x4 MSTORE PUSH1 0x24 PUSH1 0x0 REVERT JUMPDEST SWAP2 SWAP1 DUP2 LT ISZERO PUSH2 0xAA6 JUMPI PUSH1 0x5 SHL DUP2 ADD CALLDATALOAD SWAP1 PUSH1 0x1E NOT DUP2 CALLDATASIZE SUB ADD DUP3 SLT ISZERO PUSH2 0x142 JUMPI ADD SWAP1 DUP2 CALLDATALOAD SWAP2 PUSH1 0x1 PUSH1 0x1 PUSH1 0x40 SHL SUB DUP4 GT PUSH2 0x142 JUMPI PUSH1 0x20 ADD DUP3 CALLDATASIZE SUB DUP2 SGT PUSH2 0x142 JUMPI SWAP2 SWAP1 JUMP JUMPDEST PUSH2 0xA4F JUMP JUMPDEST DUP1 MLOAD DUP3 LT ISZERO PUSH2 0xAA6 JUMPI PUSH1 0x20 SWAP2 PUSH1 0x5 SHL ADD ADD SWAP1 JUMP JUMPDEST SWAP2 SWAP1 DUP2 LT ISZERO PUSH2 0xAA6 JUMPI PUSH1 0x5 SHL ADD SWAP1 JUMP JUMPDEST SWAP1 DUP2 PUSH1 0x20 SWAP2 SUB SLT PUSH2 0x142 JUMPI MLOAD SWAP1 JUMP JUMPDEST SWAP1 DUP1 PUSH1 0x20 SWAP4 SWAP3 DUP2 DUP5 MSTORE DUP5 DUP5 ADD CALLDATACOPY PUSH1 0x0 DUP3 DUP3 ADD DUP5 ADD MSTORE PUSH1 0x1F ADD PUSH1 0x1F NOT AND ADD ADD SWAP1 JUMP JUMPDEST SWAP4 SWAP2 PUSH2 0xB2B SWAP6 SWAP4 PUSH2 0xB1D SWAP3 DUP7 MSTORE PUSH1 0x60 PUSH1 0x20 DUP8 ADD MSTORE PUSH1 0x60 DUP7 ADD SWAP2 PUSH2 0xADE JUMP JUMPDEST SWAP3 PUSH1 0x40 DUP2 DUP6 SUB SWAP2 ADD MSTORE PUSH2 0xADE JUMP JUMPDEST SWAP1 JUMP JUMPDEST PUSH4 0xFFFFFFFF DUP1 SWAP2 AND SWAP1 DUP2 EQ PUSH2 0xA4A JUMPI PUSH1 0x1 ADD SWAP1 JUMP JUMPDEST SWAP3 SWAP5 SWAP4 SWAP2 SWAP1 PUSH1 0xA4 DUP3 SUB PUSH2 0xEF1 JUMPI PUSH1 0x40 SWAP3 DUP4 DUP2 SUB PUSH2 0xED8 JUMPI PUSH2 0xB63 DUP6 PUSH2 0x10C8 JUMP JUMPDEST PUSH1 0x20 DUP5 MLOAD SWAP4 DUP5 DUP1 PUSH2 0xB78 PUSH1 0x0 SWAP8 DUP9 SWAP5 DUP9 PUSH2 0x930 JUMP JUMPDEST SUB SWAP1 PUSH1 0x2 GAS STATICCALL ISZERO PUSH2 0x406 JUMPI DUP3 MLOAD SWAP7 PUSH2 0xB9D PUSH2 0x3B0 DUP10 PUSH1 0x0 MSTORE PUSH1 0x5 PUSH1 0x20 MSTORE PUSH1 0x40 PUSH1 0x0 KECCAK256 SWAP1 JUMP JUMPDEST PUSH2 0xEC0 JUMPI PUSH2 0xBB6 SWAP3 SWAP2 PUSH2 0xBB1 SWAP2 DUP10 DUP9 PUSH2 0x11C5 JUMP JUMPDEST PUSH2 0x134E JUMP JUMPDEST SWAP2 PUSH2 0xBCB DUP5 PUSH1 0x0 MSTORE PUSH1 0x4 PUSH1 0x20 MSTORE PUSH1 0x40 PUSH1 0x0 KECCAK256 SWAP1 JUMP JUMPDEST PUSH1 0x1 DUP2 ADD DUP1 SLOAD DUP1 DUP5 SHR PUSH1 0xFF AND SWAP5 SWAP2 SWAP3 SWAP1 DUP6 DUP1 PUSH2 0xEA9 JUMPI JUMPDEST PUSH2 0xE58 JUMPI POP DUP9 SWAP1 PUSH1 0x80 DUP8 ADD SWAP6 PUSH2 0xC02 PUSH2 0xBFC DUP9 MLOAD PUSH1 0x7 SIGNEXTEND SWAP1 JUMP JUMPDEST DUP11 PUSH2 0x12A2 JUMP JUMPDEST DUP8 MLOAD SWAP1 DUP2 PUSH2 0xE0F JUMPI JUMPDEST POP POP SSTORE PUSH2 0xC99 PUSH1 0x60 DUP7 ADD SWAP3 PUSH2 0xC3D PUSH2 0xC27 DUP6 MLOAD PUSH4 0xFFFFFFFF AND SWAP1 JUMP JUMPDEST DUP3 SLOAD PUSH4 0xFFFFFFFF NOT AND PUSH4 0xFFFFFFFF SWAP1 SWAP2 AND OR DUP3 SSTORE JUMP JUMPDEST PUSH2 0xC7C PUSH2 0xC5A PUSH2 0xC55 DUP4 SLOAD PUSH4 0xFFFFFFFF SWAP1 PUSH1 0x20 SHR AND SWAP1 JUMP JUMPDEST PUSH2 0xB2E JUMP JUMPDEST DUP3 SLOAD PUSH8 0xFFFFFFFF00000000 NOT AND PUSH1 0x20 SWAP2 SWAP1 SWAP2 SHL PUSH8 0xFFFFFFFF00000000 AND OR DUP3 SSTORE JUMP JUMPDEST DUP1 SLOAD PUSH9 0xFF0000000000000000 NOT AND PUSH9 0x10000000000000000 OR SWAP1 SSTORE JUMP JUMPDEST PUSH2 0xCB0 PUSH2 0x673 DUP10 PUSH1 0x0 MSTORE PUSH1 0x6 PUSH1 0x20 MSTORE PUSH1 0x40 PUSH1 0x0 KECCAK256 SWAP1 JUMP JUMPDEST PUSH2 0xCC7 PUSH2 0x673 DUP10 PUSH1 0x0 MSTORE PUSH1 0x5 PUSH1 0x20 MSTORE PUSH1 0x40 PUSH1 0x0 KECCAK256 SWAP1 JUMP JUMPDEST PUSH2 0xCDA PUSH2 0xCD5 PUSH1 0x7 SLOAD PUSH2 0xA3B JUMP JUMPDEST PUSH1 0x7 SSTORE JUMP JUMPDEST PUSH1 0x3 SLOAD PUSH2 0xCF7 SWAP1 PUSH1 0x1 PUSH1 0x1 PUSH1 0xA0 SHL SUB AND JUMPDEST PUSH1 0x1 PUSH1 0x1 PUSH1 0xA0 SHL SUB AND SWAP1 JUMP JUMPDEST DUP1 EXTCODESIZE ISZERO PUSH2 0xE0B JUMPI SWAP3 PUSH2 0xD87 PUSH2 0xD7F PUSH32 0xCFAF1C01B5ED0EFE033EDF39991653AB530CCF7137A5F17BE336449EADB644CE SWAP7 SWAP5 DUP5 PUSH2 0xDED SWAP6 PUSH2 0xD6B DUP13 SWAP12 SWAP10 DUP16 SWAP14 DUP9 MLOAD SWAP5 DUP6 DUP1 SWAP5 DUP2 SWAP4 PUSH4 0x7567C75 PUSH1 0xE0 SHL DUP4 MSTORE PUSH1 0x4 DUP4 ADD PUSH1 0x60 PUSH1 0x0 SWAP2 SWAP4 SWAP3 SWAP4 PUSH1 0x80 DUP2 ADD SWAP5 DUP2 MSTORE PUSH1 0x1 PUSH1 0x20 DUP3 ADD MSTORE DUP3 PUSH1 0x40 DUP3 ADD MSTORE ADD MSTORE JUMP JUMPDEST SUB SWAP3 GAS CALL PUSH2 0xDF2 JUMPI JUMPDEST POP MLOAD PUSH4 0xFFFFFFFF AND SWAP1 JUMP JUMPDEST SWAP4 MLOAD PUSH1 0x7 SIGNEXTEND SWAP1 JUMP JUMPDEST SWAP4 PUSH2 0xD95 DUP3 DUP3 ADD MLOAD PUSH1 0xFF AND SWAP1 JUMP JUMPDEST PUSH2 0xDB4 PUSH1 0xA0 PUSH2 0xDA8 PUSH1 0x20 DUP6 ADD MLOAD PUSH1 0xFF AND SWAP1 JUMP JUMPDEST SWAP4 ADD MLOAD PUSH4 0xFFFFFFFF AND SWAP1 JUMP JUMPDEST SWAP3 MLOAD PUSH4 0xFFFFFFFF SWAP6 DUP7 AND DUP2 MSTORE PUSH1 0x7 SWAP7 SWAP1 SWAP7 SIGNEXTEND PUSH1 0x20 DUP8 ADD MSTORE PUSH1 0xFF SWAP1 DUP2 AND PUSH1 0x40 DUP8 ADD MSTORE AND PUSH1 0x60 DUP6 ADD MSTORE SWAP2 SWAP1 SWAP2 AND PUSH1 0x80 DUP4 ADD MSTORE DUP2 SWAP1 PUSH1 0xA0 DUP3 ADD SWAP1 JUMP JUMPDEST SUB SWAP1 LOG3 JUMP JUMPDEST DUP1 PUSH2 0xDFF PUSH2 0xE05 SWAP3 PUSH2 0x983 JUMP JUMPDEST DUP1 PUSH2 0x137 JUMP JUMPDEST CODESIZE PUSH2 0xD74 JUMP JUMPDEST POP DUP1 REVERT JUMPDEST SWAP2 SWAP3 POP SWAP1 DUP1 PUSH2 0xE4D JUMPI JUMPDEST PUSH2 0xE26 JUMPI SWAP1 DUP2 DUP11 SWAP3 PUSH2 0xC0B JUMP JUMPDEST DUP2 SLOAD DUP6 MLOAD PUSH4 0x4B3E539 PUSH1 0xE3 SHL DUP2 MSTORE PUSH1 0x4 DUP2 ADD DUP11 SWAP1 MSTORE PUSH1 0x24 DUP2 ADD SWAP3 SWAP1 SWAP3 MSTORE PUSH1 0x44 DUP3 ADD MSTORE PUSH1 0x64 SWAP1 REVERT JUMPDEST POP DUP2 SLOAD DUP2 EQ ISZERO PUSH2 0xE19 JUMP JUMPDEST PUSH4 0xFFFFFFFF SWAP1 PUSH2 0x402 DUP10 DUP8 PUSH2 0xE74 PUSH1 0x60 DUP13 ADD MLOAD PUSH4 0xFFFFFFFF AND SWAP1 JUMP JUMPDEST SWAP1 MLOAD SWAP5 DUP6 SWAP5 PUSH4 0xDCE74D91 PUSH1 0xE0 SHL DUP7 MSTORE AND SWAP2 PUSH1 0x4 DUP6 ADD SWAP2 PUSH1 0x40 SWAP2 SWAP5 SWAP4 PUSH1 0x60 DUP5 ADD SWAP6 DUP5 MSTORE PUSH4 0xFFFFFFFF DUP1 SWAP3 AND PUSH1 0x20 DUP6 ADD MSTORE AND SWAP2 ADD MSTORE JUMP JUMPDEST POP PUSH1 0x60 DUP8 ADD MLOAD PUSH4 0xFFFFFFFF DUP3 DUP2 AND SWAP2 AND GT ISZERO PUSH2 0xBE2 JUMP JUMPDEST DUP5 MLOAD PUSH4 0x384C4EC9 PUSH1 0xE0 SHL DUP2 MSTORE PUSH1 0x4 DUP2 ADD DUP10 SWAP1 MSTORE PUSH1 0x24 SWAP1 REVERT JUMPDEST DUP4 MLOAD PUSH4 0x58676AD PUSH1 0xE3 SHL DUP2 MSTORE PUSH1 0x4 DUP2 ADD SWAP2 SWAP1 SWAP2 MSTORE PUSH1 0x24 SWAP1 REVERT JUMPDEST PUSH1 0x40 MLOAD PUSH4 0x8575BC9 PUSH1 0xE4 SHL DUP2 MSTORE PUSH1 0x4 DUP2 ADD DUP4 SWAP1 MSTORE PUSH1 0x24 SWAP1 REVERT JUMPDEST MLOAD SWAP1 DUP2 ISZERO ISZERO DUP3 SUB PUSH2 0x142 JUMPI JUMP JUMPDEST SWAP1 DUP2 PUSH1 0x20 SWAP2 SUB SLT PUSH2 0x142 JUMPI PUSH2 0xB2B SWAP1 PUSH2 0xF0A JUMP JUMPDEST MLOAD SWAP1 PUSH2 0xF36 DUP3 PUSH2 0x867 JUMP JUMPDEST JUMP JUMPDEST MLOAD SWAP1 PUSH1 0x1 PUSH1 0x1 PUSH1 0x40 SHL SUB DUP3 AND DUP3 SUB PUSH2 0x142 JUMPI JUMP JUMPDEST PUSH1 0x1 PUSH1 0x1 PUSH1 0x40 SHL SUB DUP2 GT PUSH2 0x996 JUMPI PUSH1 0x1F ADD PUSH1 0x1F NOT AND PUSH1 0x20 ADD SWAP1 JUMP JUMPDEST SWAP2 SWAP1 DUP1 PUSH1 0x1F DUP5 ADD SLT ISZERO PUSH2 0x142 JUMPI DUP3 MLOAD SWAP1 PUSH2 0xF80 DUP3 PUSH2 0xF4C JUMP JUMPDEST SWAP2 PUSH2 0xF8E PUSH1 0x40 MLOAD SWAP4 DUP5 PUSH2 0x99B JUMP JUMPDEST DUP1 DUP4 MSTORE PUSH1 0x20 SWAP2 DUP3 DUP3 DUP8 ADD ADD GT PUSH2 0x142 JUMPI PUSH1 0x0 JUMPDEST DUP2 DUP2 LT PUSH2 0xFB6 JUMPI POP DUP3 PUSH1 0x0 SWAP4 SWAP5 SWAP6 POP ADD ADD MSTORE SWAP1 JUMP JUMPDEST DUP6 DUP2 ADD DUP4 ADD MLOAD DUP5 DUP3 ADD DUP5 ADD MSTORE DUP3 ADD PUSH2 0xFA1 JUMP JUMPDEST MLOAD SWAP1 PUSH4 0xFFFFFFFF DUP3 AND DUP3 SUB PUSH2 0x142 JUMPI JUMP JUMPDEST MLOAD SWAP1 PUSH2 0xFFFF DUP3 AND DUP3 SUB PUSH2 0x142 JUMPI JUMP JUMPDEST PUSH1 0x20 DUP2 DUP4 SUB SLT PUSH2 0x142 JUMPI DUP1 MLOAD PUSH1 0x1 PUSH1 0x1 PUSH1 0x40 SHL SUB SWAP2 DUP3 DUP3 GT PUSH2 0x142 JUMPI ADD SWAP1 PUSH2 0x140 DUP3 DUP5 SUB SLT PUSH2 0x142 JUMPI PUSH2 0x101A PUSH2 0x9BC JUMP JUMPDEST SWAP3 PUSH2 0x1024 DUP4 PUSH2 0xF2B JUMP JUMPDEST DUP5 MSTORE PUSH2 0x1032 PUSH1 0x20 DUP5 ADD PUSH2 0xF38 JUMP JUMPDEST PUSH1 0x20 DUP6 ADD MSTORE PUSH2 0x1043 PUSH1 0x40 DUP5 ADD PUSH2 0xF38 JUMP JUMPDEST PUSH1 0x40 DUP6 ADD MSTORE PUSH1 0x60 DUP4 ADD MLOAD PUSH1 0x60 DUP6 ADD MSTORE PUSH2 0x105E PUSH1 0x80 DUP5 ADD PUSH2 0xF0A JUMP JUMPDEST PUSH1 0x80 DUP6 ADD MSTORE PUSH1 0xA0 DUP4 ADD MLOAD SWAP2 DUP3 GT PUSH2 0x142 JUMPI PUSH2 0x107A SWAP2 DUP4 ADD PUSH2 0xF67 JUMP JUMPDEST PUSH1 0xA0 DUP4 ADD MSTORE PUSH2 0x108B PUSH1 0xC0 DUP3 ADD PUSH2 0xFC9 JUMP JUMPDEST PUSH1 0xC0 DUP4 ADD MSTORE PUSH2 0x109C PUSH1 0xE0 DUP3 ADD PUSH2 0xFC9 JUMP JUMPDEST PUSH1 0xE0 DUP4 ADD MSTORE PUSH2 0x100 PUSH2 0x10AF DUP2 DUP4 ADD PUSH2 0xFC9 JUMP JUMPDEST SWAP1 DUP4 ADD MSTORE PUSH2 0x10C1 PUSH2 0x120 DUP1 SWAP3 ADD PUSH2 0xFDA JUMP JUMPDEST SWAP1 DUP3 ADD MSTORE SWAP1 JUMP JUMPDEST PUSH1 0x3 SLOAD PUSH2 0x10DD SWAP1 PUSH1 0x1 PUSH1 0x1 PUSH1 0xA0 SHL SUB AND PUSH2 0xCEB JUMP JUMPDEST PUSH1 0x40 MLOAD PUSH4 0x5EC8FE6B PUSH1 0xE0 SHL DUP2 MSTORE PUSH1 0x4 DUP2 ADD DUP4 SWAP1 MSTORE PUSH1 0x20 DUP2 PUSH1 0x24 DUP2 DUP6 GAS STATICCALL SWAP1 DUP2 ISZERO PUSH2 0x406 JUMPI PUSH1 0x0 SWAP2 PUSH2 0x1197 JUMPI JUMPDEST POP ISZERO PUSH2 0x1113 JUMPI POP POP JUMP JUMPDEST PUSH1 0x40 MLOAD PUSH4 0x59D902ED PUSH1 0xE0 SHL DUP2 MSTORE PUSH1 0x4 DUP2 ADD DUP4 SWAP1 MSTORE SWAP1 PUSH1 0x0 SWAP1 DUP3 SWAP1 PUSH1 0x24 SWAP1 DUP3 SWAP1 GAS STATICCALL SWAP1 DUP2 PUSH2 0x1174 JUMPI JUMPDEST POP PUSH2 0x115A JUMPI PUSH1 0x40 MLOAD PUSH4 0x72B382F PUSH1 0xE2 SHL DUP2 MSTORE PUSH1 0x4 DUP2 ADD SWAP2 SWAP1 SWAP2 MSTORE PUSH1 0x24 SWAP1 REVERT JUMPDEST PUSH1 0x40 MLOAD PUSH4 0x159C7175 PUSH1 0xE1 SHL DUP2 MSTORE PUSH1 0x4 DUP2 ADD SWAP2 SWAP1 SWAP2 MSTORE PUSH1 0x24 SWAP1 REVERT JUMPDEST PUSH2 0x1190 SWAP1 RETURNDATASIZE DUP1 PUSH1 0x0 DUP4 RETURNDATACOPY PUSH2 0x1188 DUP2 DUP4 PUSH2 0x99B JUMP JUMPDEST DUP2 ADD SWAP1 PUSH2 0xFE9 JUMP JUMPDEST POP DUP3 PUSH2 0x113B JUMP JUMPDEST PUSH2 0x11B8 SWAP2 POP PUSH1 0x20 RETURNDATASIZE DUP2 GT PUSH2 0x11BE JUMPI JUMPDEST PUSH2 0x11B0 DUP2 DUP4 PUSH2 0x99B JUMP JUMPDEST DUP2 ADD SWAP1 PUSH2 0xF17 JUMP JUMPDEST CODESIZE PUSH2 0x1109 JUMP JUMPDEST POP RETURNDATASIZE PUSH2 0x11A6 JUMP JUMPDEST PUSH1 0x3 SLOAD PUSH1 0x40 MLOAD PUSH4 0x804AD249 PUSH1 0xE0 SHL DUP2 MSTORE PUSH1 0x4 DUP2 ADD DUP4 SWAP1 MSTORE SWAP3 SWAP5 SWAP2 SWAP4 PUSH1 0x0 SWAP4 SWAP1 SWAP2 DUP5 SWAP1 DUP3 SWAP1 PUSH1 0x24 SWAP1 DUP3 SWAP1 PUSH1 0x1 PUSH1 0x1 PUSH1 0xA0 SHL SUB AND GAS STATICCALL SWAP4 DUP5 ISZERO PUSH2 0x406 JUMPI DUP1 SWAP5 PUSH2 0x1246 JUMPI JUMPDEST POP POP SWAP2 PUSH2 0x1218 SWAP2 PUSH2 0x121C SWAP4 DUP7 PUSH2 0x143A JUMP JUMPDEST ISZERO SWAP1 JUMP JUMPDEST PUSH2 0x1224 JUMPI POP POP JUMP JUMPDEST PUSH1 0x40 MLOAD PUSH4 0x63660977 PUSH1 0xE1 SHL DUP2 MSTORE PUSH1 0x4 DUP2 ADD SWAP2 SWAP1 SWAP2 MSTORE PUSH1 0x24 DUP2 ADD SWAP2 SWAP1 SWAP2 MSTORE PUSH1 0x44 SWAP1 REVERT JUMPDEST SWAP1 SWAP2 SWAP4 POP RETURNDATASIZE DUP1 DUP3 DUP5 RETURNDATACOPY PUSH2 0x1259 DUP2 DUP5 PUSH2 0x99B JUMP JUMPDEST DUP3 ADD SWAP2 PUSH1 0x20 DUP2 DUP5 SUB SLT PUSH2 0xE0B JUMPI DUP1 MLOAD SWAP2 PUSH1 0x1 PUSH1 0x1 PUSH1 0x40 SHL SUB DUP4 GT PUSH2 0x35B JUMPI POP PUSH2 0x121C SWAP5 SWAP3 PUSH2 0x1218 SWAP5 SWAP3 PUSH2 0x128C SWAP3 ADD PUSH2 0xF67 JUMP JUMPDEST SWAP4 DUP2 SWAP4 POP PUSH2 0x1207 JUMP JUMPDEST SWAP2 SWAP1 DUP3 ADD DUP1 SWAP3 GT PUSH2 0xA4A JUMPI JUMP JUMPDEST SWAP1 PUSH2 0x3E8 DUP1 TIMESTAMP MUL TIMESTAMP DUP2 DIV DUP3 EQ TIMESTAMP ISZERO OR ISZERO PUSH2 0xA4A JUMPI PUSH1 0x0 PUSH1 0x7 DUP5 SWAP1 SIGNEXTEND DUP2 SGT PUSH2 0x1348 JUMPI POP PUSH1 0x1 PUSH1 0x1 PUSH1 0x40 SHL SUB DUP4 AND SWAP1 JUMPDEST PUSH1 0x2 SLOAD SWAP3 DUP1 DUP5 MUL SWAP1 DUP5 DUP3 DIV EQ DUP5 ISZERO OR ISZERO PUSH2 0xA4A JUMPI PUSH2 0x12EE DUP2 DUP4 PUSH2 0x1295 JUMP JUMPDEST DUP4 GT SWAP3 DUP4 ISZERO PUSH2 0x1334 JUMPI JUMPDEST POP POP POP PUSH2 0x1304 JUMPI POP POP POP JUMP JUMPDEST PUSH1 0x40 MLOAD PUSH4 0x587B5A6D PUSH1 0xE0 SHL DUP2 MSTORE PUSH1 0x4 DUP2 ADD SWAP4 SWAP1 SWAP4 MSTORE PUSH1 0x7 SWAP2 SWAP1 SWAP2 SIGNEXTEND PUSH1 0x24 DUP4 ADD MSTORE TIMESTAMP PUSH1 0x44 DUP4 ADD MSTORE PUSH1 0x64 DUP3 ADD MSTORE PUSH1 0x84 SWAP1 REVERT JUMPDEST PUSH2 0x133F SWAP3 SWAP4 POP PUSH2 0x1295 JUMP JUMPDEST LT CODESIZE DUP1 DUP1 PUSH2 0x12F8 JUMP JUMPDEST SWAP1 PUSH2 0x12D0 JUMP JUMPDEST SWAP1 PUSH1 0x40 MLOAD PUSH1 0xC0 DUP2 ADD DUP2 DUP2 LT PUSH1 0x1 PUSH1 0x1 PUSH1 0x40 SHL SUB DUP3 GT OR PUSH2 0x996 JUMPI PUSH1 0x40 MSTORE PUSH1 0xA0 DUP1 DUP3 SWAP5 DUP1 CALLDATALOAD DUP5 MSTORE PUSH4 0xFFFFFFFF PUSH1 0x80 DUP3 ADD CALLDATALOAD DUP1 PUSH1 0x0 BYTE PUSH1 0x20 DUP8 ADD MSTORE DUP1 PUSH1 0x1 BYTE PUSH1 0x40 DUP8 ADD MSTORE PUSH1 0xC0 SHR AND PUSH1 0x60 DUP6 ADD MSTORE PUSH1 0x88 DUP2 ADD CALLDATALOAD PUSH1 0xC0 SHR PUSH1 0x80 DUP6 ADD MSTORE ADD CALLDATALOAD PUSH1 0xE0 SHR SWAP2 ADD MSTORE JUMP JUMPDEST ISZERO PUSH2 0x13B7 JUMPI JUMP JUMPDEST PUSH1 0x40 MLOAD PUSH3 0x461BCD PUSH1 0xE5 SHL DUP2 MSTORE PUSH1 0x20 PUSH1 0x4 DUP3 ADD MSTORE PUSH1 0x25 PUSH1 0x24 DUP3 ADD MSTORE PUSH32 0x506F414356657269666965723A207075626B6579206D75737420626520363520 PUSH1 0x44 DUP3 ADD MSTORE PUSH5 0x6279746573 PUSH1 0xD8 SHL PUSH1 0x64 DUP3 ADD MSTORE PUSH1 0x84 SWAP1 REVERT JUMPDEST RETURNDATASIZE ISZERO PUSH2 0x1435 JUMPI RETURNDATASIZE SWAP1 PUSH2 0x141B DUP3 PUSH2 0xF4C JUMP JUMPDEST SWAP2 PUSH2 0x1429 PUSH1 0x40 MLOAD SWAP4 DUP5 PUSH2 0x99B JUMP JUMPDEST DUP3 MSTORE RETURNDATASIZE PUSH1 0x0 PUSH1 0x20 DUP5 ADD RETURNDATACOPY JUMP JUMPDEST PUSH1 0x60 SWAP1 JUMP JUMPDEST SWAP1 SWAP2 PUSH1 0x40 SUB PUSH2 0x14E0 JUMPI DUP3 PUSH2 0x14A9 PUSH1 0x0 SWAP5 SWAP4 PUSH2 0x1459 PUSH1 0x41 DUP8 SWAP7 MLOAD EQ PUSH2 0x13B0 JUMP JUMPDEST PUSH2 0x149B PUSH1 0x41 PUSH1 0x21 DUP6 ADD MLOAD SWAP5 ADD MLOAD PUSH1 0x40 MLOAD SWAP5 DUP6 SWAP4 PUSH1 0x20 DUP6 ADD SWAP8 PUSH1 0x20 DUP3 ADD CALLDATALOAD SWAP2 CALLDATALOAD SWAP1 DUP10 SWAP4 SWAP2 PUSH1 0xA0 SWAP6 SWAP4 SWAP2 DUP6 MSTORE PUSH1 0x20 DUP6 ADD MSTORE PUSH1 0x40 DUP5 ADD MSTORE PUSH1 0x60 DUP4 ADD MSTORE PUSH1 0x80 DUP3 ADD MSTORE ADD SWAP1 JUMP JUMPDEST SUB PUSH1 0x1F NOT DUP2 ADD DUP4 MSTORE DUP3 PUSH2 0x99B JUMP JUMPDEST MLOAD SWAP1 PUSH2 0x100 GAS STATICCALL PUSH2 0x14B8 PUSH2 0x140A JUMP JUMPDEST SWAP1 ISZERO DUP1 ISZERO PUSH2 0x14D5 JUMPI JUMPDEST PUSH2 0x14CF JUMPI PUSH1 0x20 ADD MLOAD PUSH1 0x1 EQ SWAP1 JUMP JUMPDEST POP PUSH1 0x0 SWAP1 JUMP JUMPDEST POP PUSH1 0x20 DUP2 MLOAD LT PUSH2 0x14C1 JUMP JUMPDEST PUSH1 0x40 MLOAD PUSH3 0x461BCD PUSH1 0xE5 SHL DUP2 MSTORE PUSH1 0x20 PUSH1 0x4 DUP3 ADD MSTORE PUSH1 0x28 PUSH1 0x24 DUP3 ADD MSTORE PUSH32 0x506F414356657269666965723A207369676E6174757265206D75737420626520 PUSH1 0x44 DUP3 ADD MSTORE PUSH8 0x3634206279746573 PUSH1 0xC0 SHL PUSH1 0x64 DUP3 ADD MSTORE PUSH1 0x84 SWAP1 REVERT INVALID LOG2 PUSH5 0x6970667358 0x22 SLT KECCAK256 CALLVALUE MOD DIV 0x25 SLOAD POP SMOD CALLER 0xE8 PUSH16 0x3B6B3146567D5108AF8CC6639FF093A2 0x4C EXTCODECOPY PUSH9 0x66267F64736F6C6343 STOP ADDMOD EQ STOP CALLER "},"methodIdentifiers":{"P256_PRECOMPILE()":"b1f5993b","POAC_BODY_SIZE()":"22b338d7","POAC_SIG_SIZE()":"d25cd666","deviceRegistry()":"5efb870a","getChainHead(bytes32)":"e9b6c019","getVerifiedCount(bytes32)":"122ec0e0","isRecordVerified(bytes32)":"488dbfad","maxTimestampSkew()":"01b8dee6","owner()":"8da5cb5b","renounceOwnership()":"715018a6","setMaxTimestampSkew(uint256)":"915fe23c","submittedHashes(bytes32)":"a542b44f","totalVerifiedCount()":"d50ee3b5","transferOwnership(address)":"f2fde38b","verifiedRecords(bytes32)":"4d0af428","verifyPoAC(bytes32,bytes,bytes)":"803a28f6","verifyPoACBatch(bytes32[],bytes[],bytes[])":"95b32225","verifyPoACExternal(bytes32,bytes,bytes)":"0beb4da7"}}}}}