{"contracts/ProgressAttestation.sol":{"ProgressAttestation":{"abi":[{"inputs":[{"internalType":"address","name":"_poACVerifier","type":"address"}],"stateMutability":"nonpayable","type":"constructor"},{"inputs":[{"internalType":"bytes32","name":"recordHash","type":"bytes32"}],"name":"BaselineNotVerified","type":"error"},{"inputs":[{"internalType":"bytes32","name":"recordHash","type":"bytes32"}],"name":"CurrentNotVerified","type":"error"},{"inputs":[{"internalType":"address","name":"owner","type":"address"}],"name":"OwnableInvalidOwner","type":"error"},{"inputs":[{"internalType":"address","name":"account","type":"address"}],"name":"OwnableUnauthorizedAccount","type":"error"},{"inputs":[{"internalType":"bytes32","name":"baselineHash","type":"bytes32"},{"internalType":"bytes32","name":"currentHash","type":"bytes32"}],"name":"PairAlreadyAttested","type":"error"},{"inputs":[],"name":"SameRecord","type":"error"},{"inputs":[],"name":"ZeroImprovement","type":"error"},{"anonymous":false,"inputs":[{"indexed":true,"internalType":"address","name":"previousOwner","type":"address"},{"indexed":true,"internalType":"address","name":"newOwner","type":"address"}],"name":"OwnershipTransferred","type":"event"},{"anonymous":false,"inputs":[{"indexed":true,"internalType":"bytes32","name":"deviceId","type":"bytes32"},{"indexed":true,"internalType":"uint256","name":"attestationId","type":"uint256"},{"indexed":false,"internalType":"enum ProgressAttestation.MetricType","name":"metricType","type":"uint8"},{"indexed":false,"internalType":"uint32","name":"improvementBps","type":"uint32"},{"indexed":false,"internalType":"address","name":"attestor","type":"address"}],"name":"ProgressAttested","type":"event"},{"inputs":[{"internalType":"bytes32","name":"_deviceId","type":"bytes32"},{"internalType":"bytes32","name":"_baselineHash","type":"bytes32"},{"internalType":"bytes32","name":"_currentHash","type":"bytes32"},{"internalType":"enum ProgressAttestation.MetricType","name":"_metricType","type":"uint8"},{"internalType":"uint32","name":"_improvementBps","type":"uint32"}],"name":"attestProgress","outputs":[{"internalType":"uint256","name":"attestationId","type":"uint256"}],"stateMutability":"nonpayable","type":"function"},{"inputs":[],"name":"attestationCount","outputs":[{"internalType":"uint256","name":"","type":"uint256"}],"stateMutability":"view","type":"function"},{"inputs":[{"internalType":"uint256","name":"_id","type":"uint256"}],"name":"getAttestation","outputs":[{"components":[{"internalType":"bytes32","name":"deviceId","type":"bytes32"},{"internalType":"bytes32","name":"baselineRecordHash","type":"bytes32"},{"internalType":"bytes32","name":"currentRecordHash","type":"bytes32"},{"internalType":"enum ProgressAttestation.MetricType","name":"metricType","type":"uint8"},{"internalType":"uint32","name":"improvementBps","type":"uint32"},{"internalType":"uint64","name":"attestedAt","type":"uint64"},{"internalType":"address","name":"attestor","type":"address"}],"internalType":"struct ProgressAttestation.ProgressRecord","name":"","type":"tuple"}],"stateMutability":"view","type":"function"},{"inputs":[{"internalType":"bytes32","name":"_deviceId","type":"bytes32"}],"name":"getDeviceAttestationCount","outputs":[{"internalType":"uint256","name":"","type":"uint256"}],"stateMutability":"view","type":"function"},{"inputs":[{"internalType":"bytes32","name":"_deviceId","type":"bytes32"}],"name":"getDeviceAttestationIds","outputs":[{"internalType":"uint256[]","name":"","type":"uint256[]"}],"stateMutability":"view","type":"function"},{"inputs":[{"internalType":"bytes32","name":"_deviceId","type":"bytes32"}],"name":"getProgressHistory","outputs":[{"components":[{"internalType":"bytes32","name":"deviceId","type":"bytes32"},{"internalType":"bytes32","name":"baselineRecordHash","type":"bytes32"},{"internalType":"bytes32","name":"currentRecordHash","type":"bytes32"},{"internalType":"enum ProgressAttestation.MetricType","name":"metricType","type":"uint8"},{"internalType":"uint32","name":"improvementBps","type":"uint32"},{"internalType":"uint64","name":"attestedAt","type":"uint64"},{"internalType":"address","name":"attestor","type":"address"}],"internalType":"struct ProgressAttestation.ProgressRecord[]","name":"","type":"tuple[]"}],"stateMutability":"view","type":"function"},{"inputs":[],"name":"owner","outputs":[{"internalType":"address","name":"","type":"address"}],"stateMutability":"view","type":"function"},{"inputs":[],"name":"poACVerifier","outputs":[{"internalType":"contract PoACVerifier","name":"","type":"address"}],"stateMutability":"view","type":"function"},{"inputs":[],"name":"renounceOwnership","outputs":[],"stateMutability":"nonpayable","type":"function"},{"inputs":[{"internalType":"address","name":"newOwner","type":"address"}],"name":"transferOwnership","outputs":[],"stateMutability":"nonpayable","type":"function"}],"evm":{"bytecode":{"linkReferences":{},"object":"6080346100c657601f610b5238819003918201601f19168301916001600160401b038311848410176100cb578084926020946040528339810103126100c657516001600160a01b0390818116908190036100c65733156100ad5760005460018060a01b0319903382821617600055604051933391167f8be0079c531659141344cd1fd0a4f28419497f9722a3daafe3b4186f6b6457e0600080a36001541617600155610a7090816100e28239f35b604051631e4fbdf760e01b815260006004820152602490fd5b600080fd5b634e487b7160e01b600052604160045260246000fdfe60406080815260048036101561001457600080fd5b60009160e08335811c90816329be4db2146107b357816357da24a11461062e57508063715018a6146105d457806375f47714146105375780638da5cb5b1461050f578063a15b9321146104f0578063a8fa2fd714610175578063b5a772651461014e578063f1cf7905146101215763f2fde38b1461009157600080fd5b3461011d57602036600319011261011d576001600160a01b03823581811693919290849003610119576100c26108da565b831561010357505082546001600160a01b0319811683178455167f8be0079c531659141344cd1fd0a4f28419497f9722a3daafe3b4186f6b6457e08380a380f35b51631e4fbdf760e01b8152908101849052602490fd5b8480fd5b8280fd5b83823461014a578160031936011261014a5760015490516001600160a01b039091168152602090f35b5080fd5b50903461011d57602036600319011261011d57602092818392358252845220549051908152f35b5082903461014a5760a036600319011261014a5782356024928335936044359560643592818410156104ed576084359263ffffffff841680940361014a578888146104dd5783156104cd57600154875163488dbfad60e01b8082528582018b905260209b6001600160a01b0393909290841691908d818781865afa9081156104c3578e88926104a6575b505015610490578c90858c51809481938252868b8301525afa908115610486578591610459575b5015610444578851908b8201918b8352818b8201528a8152606081019067ffffffffffffffff9381831085841117610432579060058f9392838f528251902093848a525260ff8d892054166104155750508c8b94938b938b9389526005835286892060ff1981541660011790556002549e8f976102a289610977565b6002558051966102b188610906565b875284870191825280870192835260608701956102ce908761099c565b60808701948d865260a08801944216855260c0880199338b528c52600390528a20955186555160018601555160028501556003840192519189831015610403579083929160ff6cffffffffffffffff000000000064ffffffff008d989754935160081b16935160281b169316906cffffffffffffffffffffffffff19161717179055019151166bffffffffffffffffffffffff60a01b82541617905585825282895286822091825493680100000000000000008510156103f357505050927fbb4732bb818670393a68bee1a69f5a8c3dd2d09f05bd7a171a1e66c3012dea87926103c28389979660016060960181556109a8565b81549060031b9088821b91600019901b19161790556103e387518093610855565b888201523386820152a351908152f35b634e487b7160e01b825260419052fd5b634e487b7160e01b895260218a528789fd5b637211b43360e11b8252606481018e905260840183905260449150fd5b634e487b7160e01b8852604189528688fd5b849150885191630d32f7ff60e31b8352820152fd5b61047991508c8d3d1061047f575b6104718183610938565b81019061095a565b8c610226565b503d610467565b8a513d87823e3d90fd5b8a5163021d5f6760e11b81528088018d90528590fd5b6104bc9250803d1061047f576104718183610938565b8e8e6101ff565b8c513d89823e3d90fd5b865163fe52dc3560e01b81528390fd5b865163029bd85960e61b81528390fd5b80fd5b83823461014a578160031936011261014a576020906002549051908152f35b83823461014a578160031936011261014a57905490516001600160a01b039091168152602090f35b5091346104ed576020918260031936011261014a57809392933582528352818120908251808584549182815201908194845286842090845b8181106105c05750505081610585910382610938565b83519485948186019282875251809352850193925b8281106105a957505050500390f35b83518552869550938101939281019260010161059a565b82548452928801926001928301920161056f565b83346104ed57806003193601126104ed576105ed6108da565b80546001600160a01b03198116825581906001600160a01b03167f8be0079c531659141344cd1fd0a4f28419497f9722a3daafe3b4186f6b6457e08280a380f35b939050346104ed57602090816003193601126104ed5790939291823582528285528082209283549061065f82610a0e565b9461066c84519687610938565b828652601f1961067b84610a0e565b01855b818110610792575050845b8381106106e057505050508051948594818087019381885286518095528701950193905b8382106106ba5786860387f35b9184965082866106d06001949698849851610878565b01960192018695949293916106ad565b806106f461078792849b9897999a9b6109a8565b9054600391821b1c875280885288872067ffffffffffffffff8a519261071984610906565b8254845260018301548b85015260028301548c85015282015461074260ff82166060860161099c565b600881901c63ffffffff16608085015260281c1660a08301528501546001600160a01b031660c0820152610776828b610a26565b52610781818a610a26565b50610977565b979695939497610689565b988096959798996107a16109d6565b82828c0101520198979694959861067e565b939050346104ed5760203660031901126104ed579080610853926107d56109d6565b50843581526003602052208151936107ec85610906565b815485526001820154602086015260028201548386015267ffffffffffffffff600383015461082160ff82166060890161099c565b600881901c63ffffffff16608088015260281c1660a086015201546001600160a01b031660c084015251918290610878565bf35b9060048210156108625752565b634e487b7160e01b600052602160045260246000fd5b60c0908051835260208101516020840152604081015160408401526108a560608201516060850190610855565b60808181015163ffffffff169084015260a08082015167ffffffffffffffff16908401528101516001600160a01b0316910152565b6000546001600160a01b031633036108ee57565b60405163118cdaa760e01b8152336004820152602490fd5b60e0810190811067ffffffffffffffff82111761092257604052565b634e487b7160e01b600052604160045260246000fd5b90601f8019910116810190811067ffffffffffffffff82111761092257604052565b90816020910312610972575180151581036109725790565b600080fd5b60001981146109865760010190565b634e487b7160e01b600052601160045260246000fd5b60048210156108625752565b80548210156109c05760005260206000200190600090565b634e487b7160e01b600052603260045260246000fd5b604051906109e382610906565b8160c06000918281528260208201528260408201528260608201528260808201528260a08201520152565b67ffffffffffffffff81116109225760051b60200190565b80518210156109c05760209160051b01019056fea26469706673582212202569fe20dcb3d82701c76b38956ab5715cfff2ea8c123fb7d870c2569b01e41164736f6c63430008140033","opcodes":"PUSH1 0x80 CALLVALUE PUSH2 0xC6 JUMPI PUSH1 0x1F PUSH2 0xB52 CODESIZE DUP2 SWAP1 SUB SWAP2 DUP3 ADD PUSH1 0x1F NOT AND DUP4 ADD SWAP2 PUSH1 0x1 PUSH1 0x1 PUSH1 0x40 SHL SUB DUP4 GT DUP5 DUP5 LT OR PUSH2 0xCB JUMPI DUP1 DUP5 SWAP3 PUSH1 0x20 SWAP5 PUSH1 0x40 MSTORE DUP4 CODECOPY DUP2 ADD SUB SLT PUSH2 0xC6 JUMPI MLOAD PUSH1 0x1 PUSH1 0x1 PUSH1 0xA0 SHL SUB SWAP1 DUP2 DUP2 AND SWAP1 DUP2 SWAP1 SUB PUSH2 0xC6 JUMPI CALLER ISZERO PUSH2 0xAD JUMPI PUSH1 0x0 SLOAD PUSH1 0x1 DUP1 PUSH1 0xA0 SHL SUB NOT SWAP1 CALLER DUP3 DUP3 AND OR PUSH1 0x0 SSTORE PUSH1 0x40 MLOAD SWAP4 CALLER SWAP2 AND PUSH32 0x8BE0079C531659141344CD1FD0A4F28419497F9722A3DAAFE3B4186F6B6457E0 PUSH1 0x0 DUP1 LOG3 PUSH1 0x1 SLOAD AND OR PUSH1 0x1 SSTORE PUSH2 0xA70 SWAP1 DUP2 PUSH2 0xE2 DUP3 CODECOPY RETURN JUMPDEST PUSH1 0x40 MLOAD PUSH4 0x1E4FBDF7 PUSH1 0xE0 SHL DUP2 MSTORE PUSH1 0x0 PUSH1 0x4 DUP3 ADD MSTORE PUSH1 0x24 SWAP1 REVERT JUMPDEST PUSH1 0x0 DUP1 REVERT JUMPDEST PUSH4 0x4E487B71 PUSH1 0xE0 SHL PUSH1 0x0 MSTORE PUSH1 0x41 PUSH1 0x4 MSTORE PUSH1 0x24 PUSH1 0x0 REVERT INVALID PUSH1 0x40 PUSH1 0x80 DUP2 MSTORE PUSH1 0x4 DUP1 CALLDATASIZE LT ISZERO PUSH2 0x14 JUMPI PUSH1 0x0 DUP1 REVERT JUMPDEST PUSH1 0x0 SWAP2 PUSH1 0xE0 DUP4 CALLDATALOAD DUP2 SHR SWAP1 DUP2 PUSH4 0x29BE4DB2 EQ PUSH2 0x7B3 JUMPI DUP2 PUSH4 0x57DA24A1 EQ PUSH2 0x62E JUMPI POP DUP1 PUSH4 0x715018A6 EQ PUSH2 0x5D4 JUMPI DUP1 PUSH4 0x75F47714 EQ PUSH2 0x537 JUMPI DUP1 PUSH4 0x8DA5CB5B EQ PUSH2 0x50F JUMPI DUP1 PUSH4 0xA15B9321 EQ PUSH2 0x4F0 JUMPI DUP1 PUSH4 0xA8FA2FD7 EQ PUSH2 0x175 JUMPI DUP1 PUSH4 0xB5A77265 EQ PUSH2 0x14E JUMPI DUP1 PUSH4 0xF1CF7905 EQ PUSH2 0x121 JUMPI PUSH4 0xF2FDE38B EQ PUSH2 0x91 JUMPI PUSH1 0x0 DUP1 REVERT JUMPDEST CALLVALUE PUSH2 0x11D JUMPI PUSH1 0x20 CALLDATASIZE PUSH1 0x3 NOT ADD SLT PUSH2 0x11D JUMPI PUSH1 0x1 PUSH1 0x1 PUSH1 0xA0 SHL SUB DUP3 CALLDATALOAD DUP2 DUP2 AND SWAP4 SWAP2 SWAP3 SWAP1 DUP5 SWAP1 SUB PUSH2 0x119 JUMPI PUSH2 0xC2 PUSH2 0x8DA JUMP JUMPDEST DUP4 ISZERO PUSH2 0x103 JUMPI POP POP DUP3 SLOAD PUSH1 0x1 PUSH1 0x1 PUSH1 0xA0 SHL SUB NOT DUP2 AND DUP4 OR DUP5 SSTORE AND PUSH32 0x8BE0079C531659141344CD1FD0A4F28419497F9722A3DAAFE3B4186F6B6457E0 DUP4 DUP1 LOG3 DUP1 RETURN JUMPDEST MLOAD PUSH4 0x1E4FBDF7 PUSH1 0xE0 SHL DUP2 MSTORE SWAP1 DUP2 ADD DUP5 SWAP1 MSTORE PUSH1 0x24 SWAP1 REVERT JUMPDEST DUP5 DUP1 REVERT JUMPDEST DUP3 DUP1 REVERT JUMPDEST DUP4 DUP3 CALLVALUE PUSH2 0x14A JUMPI DUP2 PUSH1 0x3 NOT CALLDATASIZE ADD SLT PUSH2 0x14A JUMPI PUSH1 0x1 SLOAD SWAP1 MLOAD PUSH1 0x1 PUSH1 0x1 PUSH1 0xA0 SHL SUB SWAP1 SWAP2 AND DUP2 MSTORE PUSH1 0x20 SWAP1 RETURN JUMPDEST POP DUP1 REVERT JUMPDEST POP SWAP1 CALLVALUE PUSH2 0x11D JUMPI PUSH1 0x20 CALLDATASIZE PUSH1 0x3 NOT ADD SLT PUSH2 0x11D JUMPI PUSH1 0x20 SWAP3 DUP2 DUP4 SWAP3 CALLDATALOAD DUP3 MSTORE DUP5 MSTORE KECCAK256 SLOAD SWAP1 MLOAD SWAP1 DUP2 MSTORE RETURN JUMPDEST POP DUP3 SWAP1 CALLVALUE PUSH2 0x14A JUMPI PUSH1 0xA0 CALLDATASIZE PUSH1 0x3 NOT ADD SLT PUSH2 0x14A JUMPI DUP3 CALLDATALOAD PUSH1 0x24 SWAP3 DUP4 CALLDATALOAD SWAP4 PUSH1 0x44 CALLDATALOAD SWAP6 PUSH1 0x64 CALLDATALOAD SWAP3 DUP2 DUP5 LT ISZERO PUSH2 0x4ED JUMPI PUSH1 0x84 CALLDATALOAD SWAP3 PUSH4 0xFFFFFFFF DUP5 AND DUP1 SWAP5 SUB PUSH2 0x14A JUMPI DUP9 DUP9 EQ PUSH2 0x4DD JUMPI DUP4 ISZERO PUSH2 0x4CD JUMPI PUSH1 0x1 SLOAD DUP8 MLOAD PUSH4 0x488DBFAD PUSH1 0xE0 SHL DUP1 DUP3 MSTORE DUP6 DUP3 ADD DUP12 SWAP1 MSTORE PUSH1 0x20 SWAP12 PUSH1 0x1 PUSH1 0x1 PUSH1 0xA0 SHL SUB SWAP4 SWAP1 SWAP3 SWAP1 DUP5 AND SWAP2 SWAP1 DUP14 DUP2 DUP8 DUP2 DUP7 GAS STATICCALL SWAP1 DUP2 ISZERO PUSH2 0x4C3 JUMPI DUP15 DUP9 SWAP3 PUSH2 0x4A6 JUMPI JUMPDEST POP POP ISZERO PUSH2 0x490 JUMPI DUP13 SWAP1 DUP6 DUP13 MLOAD DUP1 SWAP5 DUP2 SWAP4 DUP3 MSTORE DUP7 DUP12 DUP4 ADD MSTORE GAS STATICCALL SWAP1 DUP2 ISZERO PUSH2 0x486 JUMPI DUP6 SWAP2 PUSH2 0x459 JUMPI JUMPDEST POP ISZERO PUSH2 0x444 JUMPI DUP9 MLOAD SWAP1 DUP12 DUP3 ADD SWAP2 DUP12 DUP4 MSTORE DUP2 DUP12 DUP3 ADD MSTORE DUP11 DUP2 MSTORE PUSH1 0x60 DUP2 ADD SWAP1 PUSH8 0xFFFFFFFFFFFFFFFF SWAP4 DUP2 DUP4 LT DUP6 DUP5 GT OR PUSH2 0x432 JUMPI SWAP1 PUSH1 0x5 DUP16 SWAP4 SWAP3 DUP4 DUP16 MSTORE DUP3 MLOAD SWAP1 KECCAK256 SWAP4 DUP5 DUP11 MSTORE MSTORE PUSH1 0xFF DUP14 DUP10 KECCAK256 SLOAD AND PUSH2 0x415 JUMPI POP POP DUP13 DUP12 SWAP5 SWAP4 DUP12 SWAP4 DUP12 SWAP4 DUP10 MSTORE PUSH1 0x5 DUP4 MSTORE DUP7 DUP10 KECCAK256 PUSH1 0xFF NOT DUP2 SLOAD AND PUSH1 0x1 OR SWAP1 SSTORE PUSH1 0x2 SLOAD SWAP15 DUP16 SWAP8 PUSH2 0x2A2 DUP10 PUSH2 0x977 JUMP JUMPDEST PUSH1 0x2 SSTORE DUP1 MLOAD SWAP7 PUSH2 0x2B1 DUP9 PUSH2 0x906 JUMP JUMPDEST DUP8 MSTORE DUP5 DUP8 ADD SWAP2 DUP3 MSTORE DUP1 DUP8 ADD SWAP3 DUP4 MSTORE PUSH1 0x60 DUP8 ADD SWAP6 PUSH2 0x2CE SWAP1 DUP8 PUSH2 0x99C JUMP JUMPDEST PUSH1 0x80 DUP8 ADD SWAP5 DUP14 DUP7 MSTORE PUSH1 0xA0 DUP9 ADD SWAP5 TIMESTAMP AND DUP6 MSTORE PUSH1 0xC0 DUP9 ADD SWAP10 CALLER DUP12 MSTORE DUP13 MSTORE PUSH1 0x3 SWAP1 MSTORE DUP11 KECCAK256 SWAP6 MLOAD DUP7 SSTORE MLOAD PUSH1 0x1 DUP7 ADD SSTORE MLOAD PUSH1 0x2 DUP6 ADD SSTORE PUSH1 0x3 DUP5 ADD SWAP3 MLOAD SWAP2 DUP10 DUP4 LT ISZERO PUSH2 0x403 JUMPI SWAP1 DUP4 SWAP3 SWAP2 PUSH1 0xFF PUSH13 0xFFFFFFFFFFFFFFFF0000000000 PUSH5 0xFFFFFFFF00 DUP14 SWAP9 SWAP8 SLOAD SWAP4 MLOAD PUSH1 0x8 SHL AND SWAP4 MLOAD PUSH1 0x28 SHL AND SWAP4 AND SWAP1 PUSH13 0xFFFFFFFFFFFFFFFFFFFFFFFFFF NOT AND OR OR OR SWAP1 SSTORE ADD SWAP2 MLOAD AND PUSH12 0xFFFFFFFFFFFFFFFFFFFFFFFF PUSH1 0xA0 SHL DUP3 SLOAD AND OR SWAP1 SSTORE DUP6 DUP3 MSTORE DUP3 DUP10 MSTORE DUP7 DUP3 KECCAK256 SWAP2 DUP3 SLOAD SWAP4 PUSH9 0x10000000000000000 DUP6 LT ISZERO PUSH2 0x3F3 JUMPI POP POP POP SWAP3 PUSH32 0xBB4732BB818670393A68BEE1A69F5A8C3DD2D09F05BD7A171A1E66C3012DEA87 SWAP3 PUSH2 0x3C2 DUP4 DUP10 SWAP8 SWAP7 PUSH1 0x1 PUSH1 0x60 SWAP7 ADD DUP2 SSTORE PUSH2 0x9A8 JUMP JUMPDEST DUP2 SLOAD SWAP1 PUSH1 0x3 SHL SWAP1 DUP9 DUP3 SHL SWAP2 PUSH1 0x0 NOT SWAP1 SHL NOT AND OR SWAP1 SSTORE PUSH2 0x3E3 DUP8 MLOAD DUP1 SWAP4 PUSH2 0x855 JUMP JUMPDEST DUP9 DUP3 ADD MSTORE CALLER DUP7 DUP3 ADD MSTORE LOG3 MLOAD SWAP1 DUP2 MSTORE RETURN JUMPDEST PUSH4 0x4E487B71 PUSH1 0xE0 SHL DUP3 MSTORE PUSH1 0x41 SWAP1 MSTORE REVERT JUMPDEST PUSH4 0x4E487B71 PUSH1 0xE0 SHL DUP10 MSTORE PUSH1 0x21 DUP11 MSTORE DUP8 DUP10 REVERT JUMPDEST PUSH4 0x7211B433 PUSH1 0xE1 SHL DUP3 MSTORE PUSH1 0x64 DUP2 ADD DUP15 SWAP1 MSTORE PUSH1 0x84 ADD DUP4 SWAP1 MSTORE PUSH1 0x44 SWAP2 POP REVERT JUMPDEST PUSH4 0x4E487B71 PUSH1 0xE0 SHL DUP9 MSTORE PUSH1 0x41 DUP10 MSTORE DUP7 DUP9 REVERT JUMPDEST DUP5 SWAP2 POP DUP9 MLOAD SWAP2 PUSH4 0xD32F7FF PUSH1 0xE3 SHL DUP4 MSTORE DUP3 ADD MSTORE REVERT JUMPDEST PUSH2 0x479 SWAP2 POP DUP13 DUP14 RETURNDATASIZE LT PUSH2 0x47F JUMPI JUMPDEST PUSH2 0x471 DUP2 DUP4 PUSH2 0x938 JUMP JUMPDEST DUP2 ADD SWAP1 PUSH2 0x95A JUMP JUMPDEST DUP13 PUSH2 0x226 JUMP JUMPDEST POP RETURNDATASIZE PUSH2 0x467 JUMP JUMPDEST DUP11 MLOAD RETURNDATASIZE DUP8 DUP3 RETURNDATACOPY RETURNDATASIZE SWAP1 REVERT JUMPDEST DUP11 MLOAD PUSH4 0x21D5F67 PUSH1 0xE1 SHL DUP2 MSTORE DUP1 DUP9 ADD DUP14 SWAP1 MSTORE DUP6 SWAP1 REVERT JUMPDEST PUSH2 0x4BC SWAP3 POP DUP1 RETURNDATASIZE LT PUSH2 0x47F JUMPI PUSH2 0x471 DUP2 DUP4 PUSH2 0x938 JUMP JUMPDEST DUP15 DUP15 PUSH2 0x1FF JUMP JUMPDEST DUP13 MLOAD RETURNDATASIZE DUP10 DUP3 RETURNDATACOPY RETURNDATASIZE SWAP1 REVERT JUMPDEST DUP7 MLOAD PUSH4 0xFE52DC35 PUSH1 0xE0 SHL DUP2 MSTORE DUP4 SWAP1 REVERT JUMPDEST DUP7 MLOAD PUSH4 0x29BD859 PUSH1 0xE6 SHL DUP2 MSTORE DUP4 SWAP1 REVERT JUMPDEST DUP1 REVERT JUMPDEST DUP4 DUP3 CALLVALUE PUSH2 0x14A JUMPI DUP2 PUSH1 0x3 NOT CALLDATASIZE ADD SLT PUSH2 0x14A JUMPI PUSH1 0x20 SWAP1 PUSH1 0x2 SLOAD SWAP1 MLOAD SWAP1 DUP2 MSTORE RETURN JUMPDEST DUP4 DUP3 CALLVALUE PUSH2 0x14A JUMPI DUP2 PUSH1 0x3 NOT CALLDATASIZE ADD SLT PUSH2 0x14A JUMPI SWAP1 SLOAD SWAP1 MLOAD PUSH1 0x1 PUSH1 0x1 PUSH1 0xA0 SHL SUB SWAP1 SWAP2 AND DUP2 MSTORE PUSH1 0x20 SWAP1 RETURN JUMPDEST POP SWAP2 CALLVALUE PUSH2 0x4ED JUMPI PUSH1 0x20 SWAP2 DUP3 PUSH1 0x3 NOT CALLDATASIZE ADD SLT PUSH2 0x14A JUMPI DUP1 SWAP4 SWAP3 SWAP4 CALLDATALOAD DUP3 MSTORE DUP4 MSTORE DUP2 DUP2 KECCAK256 SWAP1 DUP3 MLOAD DUP1 DUP6 DUP5 SLOAD SWAP2 DUP3 DUP2 MSTORE ADD SWAP1 DUP2 SWAP5 DUP5 MSTORE DUP7 DUP5 KECCAK256 SWAP1 DUP5 JUMPDEST DUP2 DUP2 LT PUSH2 0x5C0 JUMPI POP POP POP DUP2 PUSH2 0x585 SWAP2 SUB DUP3 PUSH2 0x938 JUMP JUMPDEST DUP4 MLOAD SWAP5 DUP6 SWAP5 DUP2 DUP7 ADD SWAP3 DUP3 DUP8 MSTORE MLOAD DUP1 SWAP4 MSTORE DUP6 ADD SWAP4 SWAP3 JUMPDEST DUP3 DUP2 LT PUSH2 0x5A9 JUMPI POP POP POP POP SUB SWAP1 RETURN JUMPDEST DUP4 MLOAD DUP6 MSTORE DUP7 SWAP6 POP SWAP4 DUP2 ADD SWAP4 SWAP3 DUP2 ADD SWAP3 PUSH1 0x1 ADD PUSH2 0x59A JUMP JUMPDEST DUP3 SLOAD DUP5 MSTORE SWAP3 DUP9 ADD SWAP3 PUSH1 0x1 SWAP3 DUP4 ADD SWAP3 ADD PUSH2 0x56F JUMP JUMPDEST DUP4 CALLVALUE PUSH2 0x4ED JUMPI DUP1 PUSH1 0x3 NOT CALLDATASIZE ADD SLT PUSH2 0x4ED JUMPI PUSH2 0x5ED PUSH2 0x8DA JUMP JUMPDEST DUP1 SLOAD PUSH1 0x1 PUSH1 0x1 PUSH1 0xA0 SHL SUB NOT DUP2 AND DUP3 SSTORE DUP2 SWAP1 PUSH1 0x1 PUSH1 0x1 PUSH1 0xA0 SHL SUB AND PUSH32 0x8BE0079C531659141344CD1FD0A4F28419497F9722A3DAAFE3B4186F6B6457E0 DUP3 DUP1 LOG3 DUP1 RETURN JUMPDEST SWAP4 SWAP1 POP CALLVALUE PUSH2 0x4ED JUMPI PUSH1 0x20 SWAP1 DUP2 PUSH1 0x3 NOT CALLDATASIZE ADD SLT PUSH2 0x4ED JUMPI SWAP1 SWAP4 SWAP3 SWAP2 DUP3 CALLDATALOAD DUP3 MSTORE DUP3 DUP6 MSTORE DUP1 DUP3 KECCAK256 SWAP3 DUP4 SLOAD SWAP1 PUSH2 0x65F DUP3 PUSH2 0xA0E JUMP JUMPDEST SWAP5 PUSH2 0x66C DUP5 MLOAD SWAP7 DUP8 PUSH2 0x938 JUMP JUMPDEST DUP3 DUP7 MSTORE PUSH1 0x1F NOT PUSH2 0x67B DUP5 PUSH2 0xA0E JUMP JUMPDEST ADD DUP6 JUMPDEST DUP2 DUP2 LT PUSH2 0x792 JUMPI POP POP DUP5 JUMPDEST DUP4 DUP2 LT PUSH2 0x6E0 JUMPI POP POP POP POP DUP1 MLOAD SWAP5 DUP6 SWAP5 DUP2 DUP1 DUP8 ADD SWAP4 DUP2 DUP9 MSTORE DUP7 MLOAD DUP1 SWAP6 MSTORE DUP8 ADD SWAP6 ADD SWAP4 SWAP1 JUMPDEST DUP4 DUP3 LT PUSH2 0x6BA JUMPI DUP7 DUP7 SUB DUP8 RETURN JUMPDEST SWAP2 DUP5 SWAP7 POP DUP3 DUP7 PUSH2 0x6D0 PUSH1 0x1 SWAP5 SWAP7 SWAP9 DUP5 SWAP9 MLOAD PUSH2 0x878 JUMP JUMPDEST ADD SWAP7 ADD SWAP3 ADD DUP7 SWAP6 SWAP5 SWAP3 SWAP4 SWAP2 PUSH2 0x6AD JUMP JUMPDEST DUP1 PUSH2 0x6F4 PUSH2 0x787 SWAP3 DUP5 SWAP12 SWAP9 SWAP8 SWAP10 SWAP11 SWAP12 PUSH2 0x9A8 JUMP JUMPDEST SWAP1 SLOAD PUSH1 0x3 SWAP2 DUP3 SHL SHR DUP8 MSTORE DUP1 DUP9 MSTORE DUP9 DUP8 KECCAK256 PUSH8 0xFFFFFFFFFFFFFFFF DUP11 MLOAD SWAP3 PUSH2 0x719 DUP5 PUSH2 0x906 JUMP JUMPDEST DUP3 SLOAD DUP5 MSTORE PUSH1 0x1 DUP4 ADD SLOAD DUP12 DUP6 ADD MSTORE PUSH1 0x2 DUP4 ADD SLOAD DUP13 DUP6 ADD MSTORE DUP3 ADD SLOAD PUSH2 0x742 PUSH1 0xFF DUP3 AND PUSH1 0x60 DUP7 ADD PUSH2 0x99C JUMP JUMPDEST PUSH1 0x8 DUP2 SWAP1 SHR PUSH4 0xFFFFFFFF AND PUSH1 0x80 DUP6 ADD MSTORE PUSH1 0x28 SHR AND PUSH1 0xA0 DUP4 ADD MSTORE DUP6 ADD SLOAD PUSH1 0x1 PUSH1 0x1 PUSH1 0xA0 SHL SUB AND PUSH1 0xC0 DUP3 ADD MSTORE PUSH2 0x776 DUP3 DUP12 PUSH2 0xA26 JUMP JUMPDEST MSTORE PUSH2 0x781 DUP2 DUP11 PUSH2 0xA26 JUMP JUMPDEST POP PUSH2 0x977 JUMP JUMPDEST SWAP8 SWAP7 SWAP6 SWAP4 SWAP5 SWAP8 PUSH2 0x689 JUMP JUMPDEST SWAP9 DUP1 SWAP7 SWAP6 SWAP8 SWAP9 SWAP10 PUSH2 0x7A1 PUSH2 0x9D6 JUMP JUMPDEST DUP3 DUP3 DUP13 ADD ADD MSTORE ADD SWAP9 SWAP8 SWAP7 SWAP5 SWAP6 SWAP9 PUSH2 0x67E JUMP JUMPDEST SWAP4 SWAP1 POP CALLVALUE PUSH2 0x4ED JUMPI PUSH1 0x20 CALLDATASIZE PUSH1 0x3 NOT ADD SLT PUSH2 0x4ED JUMPI SWAP1 DUP1 PUSH2 0x853 SWAP3 PUSH2 0x7D5 PUSH2 0x9D6 JUMP JUMPDEST POP DUP5 CALLDATALOAD DUP2 MSTORE PUSH1 0x3 PUSH1 0x20 MSTORE KECCAK256 DUP2 MLOAD SWAP4 PUSH2 0x7EC DUP6 PUSH2 0x906 JUMP JUMPDEST DUP2 SLOAD DUP6 MSTORE PUSH1 0x1 DUP3 ADD SLOAD PUSH1 0x20 DUP7 ADD MSTORE PUSH1 0x2 DUP3 ADD SLOAD DUP4 DUP7 ADD MSTORE PUSH8 0xFFFFFFFFFFFFFFFF PUSH1 0x3 DUP4 ADD SLOAD PUSH2 0x821 PUSH1 0xFF DUP3 AND PUSH1 0x60 DUP10 ADD PUSH2 0x99C JUMP JUMPDEST PUSH1 0x8 DUP2 SWAP1 SHR PUSH4 0xFFFFFFFF AND PUSH1 0x80 DUP9 ADD MSTORE PUSH1 0x28 SHR AND PUSH1 0xA0 DUP7 ADD MSTORE ADD SLOAD PUSH1 0x1 PUSH1 0x1 PUSH1 0xA0 SHL SUB AND PUSH1 0xC0 DUP5 ADD MSTORE MLOAD SWAP2 DUP3 SWAP1 PUSH2 0x878 JUMP JUMPDEST RETURN JUMPDEST SWAP1 PUSH1 0x4 DUP3 LT ISZERO PUSH2 0x862 JUMPI MSTORE JUMP JUMPDEST PUSH4 0x4E487B71 PUSH1 0xE0 SHL PUSH1 0x0 MSTORE PUSH1 0x21 PUSH1 0x4 MSTORE PUSH1 0x24 PUSH1 0x0 REVERT JUMPDEST PUSH1 0xC0 SWAP1 DUP1 MLOAD DUP4 MSTORE PUSH1 0x20 DUP2 ADD MLOAD PUSH1 0x20 DUP5 ADD MSTORE PUSH1 0x40 DUP2 ADD MLOAD PUSH1 0x40 DUP5 ADD MSTORE PUSH2 0x8A5 PUSH1 0x60 DUP3 ADD MLOAD PUSH1 0x60 DUP6 ADD SWAP1 PUSH2 0x855 JUMP JUMPDEST PUSH1 0x80 DUP2 DUP2 ADD MLOAD PUSH4 0xFFFFFFFF AND SWAP1 DUP5 ADD MSTORE PUSH1 0xA0 DUP1 DUP3 ADD MLOAD PUSH8 0xFFFFFFFFFFFFFFFF AND SWAP1 DUP5 ADD MSTORE DUP2 ADD MLOAD PUSH1 0x1 PUSH1 0x1 PUSH1 0xA0 SHL SUB AND SWAP2 ADD MSTORE JUMP JUMPDEST PUSH1 0x0 SLOAD PUSH1 0x1 PUSH1 0x1 PUSH1 0xA0 SHL SUB AND CALLER SUB PUSH2 0x8EE JUMPI JUMP JUMPDEST PUSH1 0x40 MLOAD PUSH4 0x118CDAA7 PUSH1 0xE0 SHL DUP2 MSTORE CALLER PUSH1 0x4 DUP3 ADD MSTORE PUSH1 0x24 SWAP1 REVERT JUMPDEST PUSH1 0xE0 DUP2 ADD SWAP1 DUP2 LT PUSH8 0xFFFFFFFFFFFFFFFF DUP3 GT OR PUSH2 0x922 JUMPI PUSH1 0x40 MSTORE JUMP JUMPDEST PUSH4 0x4E487B71 PUSH1 0xE0 SHL PUSH1 0x0 MSTORE PUSH1 0x41 PUSH1 0x4 MSTORE PUSH1 0x24 PUSH1 0x0 REVERT JUMPDEST SWAP1 PUSH1 0x1F DUP1 NOT SWAP2 ADD AND DUP2 ADD SWAP1 DUP2 LT PUSH8 0xFFFFFFFFFFFFFFFF DUP3 GT OR PUSH2 0x922 JUMPI PUSH1 0x40 MSTORE JUMP JUMPDEST SWAP1 DUP2 PUSH1 0x20 SWAP2 SUB SLT PUSH2 0x972 JUMPI MLOAD DUP1 ISZERO ISZERO DUP2 SUB PUSH2 0x972 JUMPI SWAP1 JUMP JUMPDEST PUSH1 0x0 DUP1 REVERT JUMPDEST PUSH1 0x0 NOT DUP2 EQ PUSH2 0x986 JUMPI PUSH1 0x1 ADD SWAP1 JUMP JUMPDEST PUSH4 0x4E487B71 PUSH1 0xE0 SHL PUSH1 0x0 MSTORE PUSH1 0x11 PUSH1 0x4 MSTORE PUSH1 0x24 PUSH1 0x0 REVERT JUMPDEST PUSH1 0x4 DUP3 LT ISZERO PUSH2 0x862 JUMPI MSTORE JUMP JUMPDEST DUP1 SLOAD DUP3 LT ISZERO PUSH2 0x9C0 JUMPI PUSH1 0x0 MSTORE PUSH1 0x20 PUSH1 0x0 KECCAK256 ADD SWAP1 PUSH1 0x0 SWAP1 JUMP JUMPDEST PUSH4 0x4E487B71 PUSH1 0xE0 SHL PUSH1 0x0 MSTORE PUSH1 0x32 PUSH1 0x4 MSTORE PUSH1 0x24 PUSH1 0x0 REVERT JUMPDEST PUSH1 0x40 MLOAD SWAP1 PUSH2 0x9E3 DUP3 PUSH2 0x906 JUMP JUMPDEST DUP2 PUSH1 0xC0 PUSH1 0x0 SWAP2 DUP3 DUP2 MSTORE DUP3 PUSH1 0x20 DUP3 ADD MSTORE DUP3 PUSH1 0x40 DUP3 ADD MSTORE DUP3 PUSH1 0x60 DUP3 ADD MSTORE DUP3 PUSH1 0x80 DUP3 ADD MSTORE DUP3 PUSH1 0xA0 DUP3 ADD MSTORE ADD MSTORE JUMP JUMPDEST PUSH8 0xFFFFFFFFFFFFFFFF DUP2 GT PUSH2 0x922 JUMPI PUSH1 0x5 SHL PUSH1 0x20 ADD SWAP1 JUMP JUMPDEST DUP1 MLOAD DUP3 LT ISZERO PUSH2 0x9C0 JUMPI PUSH1 0x20 SWAP2 PUSH1 0x5 SHL ADD ADD SWAP1 JUMP INVALID LOG2 PUSH5 0x6970667358 0x22 SLT KECCAK256 0x25 PUSH10 0xFE20DCB3D82701C76B38 SWAP6 PUSH11 0xB5715CFFF2EA8C123FB7D8 PUSH17 0xC2569B01E41164736F6C63430008140033 "},"methodIdentifiers":{"attestProgress(bytes32,bytes32,bytes32,uint8,uint32)":"a8fa2fd7","attestationCount()":"a15b9321","getAttestation(uint256)":"29be4db2","getDeviceAttestationCount(bytes32)":"b5a77265","getDeviceAttestationIds(bytes32)":"75f47714","getProgressHistory(bytes32)":"57da24a1","owner()":"8da5cb5b","poACVerifier()":"f1cf7905","renounceOwnership()":"715018a6","transferOwnership(address)":"f2fde38b"}}}}}