{"contracts/TeamProofAggregator.sol":{"TeamProofAggregator":{"abi":[{"inputs":[{"internalType":"address","name":"_poACVerifier","type":"address"}],"stateMutability":"nonpayable","type":"constructor"},{"inputs":[{"internalType":"bytes32","name":"computed","type":"bytes32"},{"internalType":"bytes32","name":"submitted","type":"bytes32"}],"name":"InvalidMerkleRoot","type":"error"},{"inputs":[{"internalType":"uint256","name":"size","type":"uint256"}],"name":"InvalidTeamSize","type":"error"},{"inputs":[{"internalType":"uint256","name":"expected","type":"uint256"},{"internalType":"uint256","name":"provided","type":"uint256"}],"name":"MemberCountMismatch","type":"error"},{"inputs":[{"internalType":"address","name":"owner","type":"address"}],"name":"OwnableInvalidOwner","type":"error"},{"inputs":[{"internalType":"address","name":"account","type":"address"}],"name":"OwnableUnauthorizedAccount","type":"error"},{"inputs":[{"internalType":"bytes32","name":"recordHash","type":"bytes32"}],"name":"RecordNotVerified","type":"error"},{"inputs":[{"internalType":"bytes32","name":"teamId","type":"bytes32"}],"name":"TeamAlreadyExists","type":"error"},{"inputs":[{"internalType":"bytes32","name":"teamId","type":"bytes32"}],"name":"TeamNotActive","type":"error"},{"inputs":[{"internalType":"bytes32","name":"teamId","type":"bytes32"}],"name":"TeamNotFound","type":"error"},{"anonymous":false,"inputs":[{"indexed":true,"internalType":"address","name":"previousOwner","type":"address"},{"indexed":true,"internalType":"address","name":"newOwner","type":"address"}],"name":"OwnershipTransferred","type":"event"},{"anonymous":false,"inputs":[{"indexed":true,"internalType":"bytes32","name":"teamId","type":"bytes32"},{"indexed":true,"internalType":"address","name":"captain","type":"address"},{"indexed":false,"internalType":"uint8","name":"memberCount","type":"uint8"}],"name":"TeamCreated","type":"event"},{"anonymous":false,"inputs":[{"indexed":true,"internalType":"bytes32","name":"teamId","type":"bytes32"},{"indexed":true,"internalType":"uint256","name":"proofId","type":"uint256"},{"indexed":false,"internalType":"bytes32","name":"merkleRoot","type":"bytes32"},{"indexed":false,"internalType":"uint8","name":"memberCount","type":"uint8"},{"indexed":false,"internalType":"bool","name":"allClean","type":"bool"}],"name":"TeamProofSubmitted","type":"event"},{"inputs":[],"name":"MAX_TEAM_SIZE","outputs":[{"internalType":"uint8","name":"","type":"uint8"}],"stateMutability":"view","type":"function"},{"inputs":[],"name":"MIN_TEAM_SIZE","outputs":[{"internalType":"uint8","name":"","type":"uint8"}],"stateMutability":"view","type":"function"},{"inputs":[{"internalType":"bytes32[]","name":"_leaves","type":"bytes32[]"}],"name":"computeMerkleRoot","outputs":[{"internalType":"bytes32","name":"","type":"bytes32"}],"stateMutability":"pure","type":"function"},{"inputs":[{"internalType":"bytes32","name":"_teamId","type":"bytes32"},{"internalType":"bytes32[]","name":"_deviceIds","type":"bytes32[]"}],"name":"createTeam","outputs":[],"stateMutability":"nonpayable","type":"function"},{"inputs":[{"internalType":"bytes32","name":"_teamId","type":"bytes32"}],"name":"getTeam","outputs":[{"internalType":"bytes32[]","name":"memberDeviceIds","type":"bytes32[]"},{"internalType":"address","name":"captain","type":"address"},{"internalType":"uint64","name":"createdAt","type":"uint64"},{"internalType":"bool","name":"active","type":"bool"}],"stateMutability":"view","type":"function"},{"inputs":[{"internalType":"uint256","name":"_proofId","type":"uint256"}],"name":"getTeamProof","outputs":[{"components":[{"internalType":"bytes32","name":"teamId","type":"bytes32"},{"internalType":"bytes32","name":"merkleRoot","type":"bytes32"},{"internalType":"bytes32[]","name":"recordHashes","type":"bytes32[]"},{"internalType":"uint8","name":"memberCount","type":"uint8"},{"internalType":"bool","name":"allClean","type":"bool"},{"internalType":"uint64","name":"submittedAt","type":"uint64"},{"internalType":"address","name":"submitter","type":"address"}],"internalType":"struct TeamProofAggregator.TeamProof","name":"","type":"tuple"}],"stateMutability":"view","type":"function"},{"inputs":[{"internalType":"bytes32","name":"_teamId","type":"bytes32"}],"name":"getTeamProofCount","outputs":[{"internalType":"uint256","name":"","type":"uint256"}],"stateMutability":"view","type":"function"},{"inputs":[{"internalType":"bytes32","name":"_teamId","type":"bytes32"}],"name":"getTeamProofIds","outputs":[{"internalType":"uint256[]","name":"","type":"uint256[]"}],"stateMutability":"view","type":"function"},{"inputs":[],"name":"owner","outputs":[{"internalType":"address","name":"","type":"address"}],"stateMutability":"view","type":"function"},{"inputs":[],"name":"poACVerifier","outputs":[{"internalType":"contract PoACVerifier","name":"","type":"address"}],"stateMutability":"view","type":"function"},{"inputs":[],"name":"proofCount","outputs":[{"internalType":"uint256","name":"","type":"uint256"}],"stateMutability":"view","type":"function"},{"inputs":[],"name":"renounceOwnership","outputs":[],"stateMutability":"nonpayable","type":"function"},{"inputs":[{"internalType":"bytes32","name":"_teamId","type":"bytes32"},{"internalType":"bytes32[]","name":"_recordHashes","type":"bytes32[]"},{"internalType":"bytes32","name":"_merkleRoot","type":"bytes32"}],"name":"submitTeamProof","outputs":[{"internalType":"uint256","name":"proofId","type":"uint256"}],"stateMutability":"nonpayable","type":"function"},{"inputs":[{"internalType":"bytes32","name":"","type":"bytes32"}],"name":"teamExists","outputs":[{"internalType":"bool","name":"","type":"bool"}],"stateMutability":"view","type":"function"},{"inputs":[{"internalType":"address","name":"newOwner","type":"address"}],"name":"transferOwnership","outputs":[],"stateMutability":"nonpayable","type":"function"}],"evm":{"bytecode":{"linkReferences":{},"object":"6080346100c657601f610e6038819003918201601f19168301916001600160401b038311848410176100cb578084926020946040528339810103126100c657516001600160a01b0390818116908190036100c65733156100ad5760005460018060a01b0319903382821617600055604051933391167f8be0079c531659141344cd1fd0a4f28419497f9722a3daafe3b4186f6b6457e0600080a36001541617600155610d7e90816100e28239f35b604051631e4fbdf760e01b815260006004820152602490fd5b600080fd5b634e487b7160e01b600052604160045260246000fdfe60406080815260048036101561001457600080fd5b600091823560e01c80632b8b906c1461094e5780633bd561751461080d57806344ea6c69146107e05780634bb34a7d1461074257806350072dd71461046d578063638371ee146103cf578063715018a6146103725780638ad6fcfb146103565780638da5cb5b1461032e578063addecc0614610310578063c0d3f385146102e8578063c3a395361461019e578063d4b9c12914610182578063f1cf7905146101555763f2fde38b146100c557600080fd5b34610151576020366003190112610151576001600160a01b0382358181169391929084900361014d576100f66109c9565b831561013757505082546001600160a01b0319811683178455167f8be0079c531659141344cd1fd0a4f28419497f9722a3daafe3b4186f6b6457e08380a380f35b51631e4fbdf760e01b8152908101849052602490fd5b8480fd5b8280fd5b83823461017e578160031936011261017e5760015490516001600160a01b039091168152602090f35b5080fd5b83823461017e578160031936011261017e576020905160068152f35b503461015157806003193601126101515781359060243567ffffffffffffffff811161014d576101d19036908501610993565b93838652600360205260ff83872054166102d1576002851080156102c7575b6102b0575082855260026020528185206001810180546001600160e81b0319163368ffffffffffffffffff60a01b1916174260a01b67ffffffffffffffff60a01b1617600160e01b179055855b85811061028d5750505060ff9082855260036020528085206001831982541617905551921682527fd51f1ea8e0b03f99b94c0bdb936c2fc4683c160bf64b58e5fbc3ccbe4c20f9ca60203393a380f35b806102a661029f6102ab938987610a1a565b3584610a58565b6109f5565b61023d565b825163ef2e255d60e01b8152908101859052602490fd5b50600685116101f0565b825163f7bd25cb60e01b8152908101849052602490fd5b5090346101515760203660031901126101515760209282913581526006845220549051908152f35b50903461015157826003193601126101515760209250549051908152f35b83823461017e578160031936011261017e57905490516001600160a01b039091168152602090f35b83823461017e578160031936011261017e576020905160028152f35b83346103cc57806003193601126103cc5761038b6109c9565b80546001600160a01b03198116825581906001600160a01b03167f8be0079c531659141344cd1fd0a4f28419497f9722a3daafe3b4186f6b6457e08280a380f35b80fd5b5091346103cc576020918260031936011261017e5792919235815260068352818120908251808584549182815201908194845286842090845b818110610459575050508161041e910382610ab0565b83519485948186019282875251809352850193925b82811061044257505050500390f35b835185528695509381019392810192600101610433565b825484529288019260019283019201610408565b5034610151576060366003190112610151578135602493843567ffffffffffffffff811161017e576104a29036908601610993565b9094604435928481526020976003895260ff87832054161561072e578582526002895286822060ff600182015460e01c161561071957548085036106ff57506001546001600160a01b0316825b8581106106585750506105028489610afe565b85810361063d5750825497610516896109f5565b845588835260058a5287832087815560018101879055600381018054600160501b600160f01b033360501b1669ffffffffffffffff00004260101b1661010060ff8b1661ffff1990941684171762010000600160f01b031916171790915595600290910190845b81811061061f57505050508582526006895286822091825493600160401b85101561060f57505050927f6faf02f204baeaaf295439e5483b112c706763054453bed74b5d8647e82ca55b92876105f76105e0858399986001606098018155610a40565b819391549060031b91821b91600019901b19161790565b9055865191825288820152600186820152a351908152f35b634e487b7160e01b825260419052fd5b806102a6610631610638938588610a1a565b3585610a58565b61057d565b8560449285928a51936327c4ed9760e21b8552840152820152fd5b61066381878c610a1a565b895163488dbfad60e01b81529035868201528b818581865afa9081156106f55785916106bf575b501561069e57610699906109f5565b6104ef565b84896106ac8593898e610a1a565b35905191632047f23560e21b8352820152fd5b90508b81813d83116106ee575b6106d68183610ab0565b8101031261014d5751801515810361014d573861068a565b503d6106cc565b8a513d87823e3d90fd5b6044949250875193634c1eb76960e11b8552840152820152fd5b50865163b79eacfb60e01b8152808401879052fd5b8651630760a05360e31b8152808401879052fd5b5091903461017e57602090816003193601126101515791909135815260028252828120926001926107768486015495610cf7565b92825194608086016080875285518091528360a088019601925b8181106107cd576001600160a01b0389168589015260a089901c67ffffffffffffffff168689015260e089901c60ff161515606089015287870388f35b8351875295840195928401928201610790565b509034610151576020366003190112610151578160209360ff923581526003855220541690519015158152f35b5091346103cc576020918260031936011261017e578160c0859493955161083381610a94565b82815282858201526060868201528260608201528260808201528260a082015201523583526005815281832082519261086b84610a94565b815484526001918281015494848101958652600361088b60028401610cf7565b92848301938452015493606082019760ff86168952608083019160ff8760081c161515835260a084019367ffffffffffffffff95868960101c16865260c082019760018060a01b03809a60501c16895280519b8b8d528c8c6101008201955191015251908c0152519860e060608c01528951809252806101208c019a01935b82811061093b57505050505060ff87985116608088015251151560a0870152511660c0850152511660e08301520390f35b84518b529981019993810193830161090a565b5082346103cc5760203660031901126103cc5782359067ffffffffffffffff82116103cc575061098660209361098c92369101610993565b90610afe565b9051908152f35b9181601f840112156109c45782359167ffffffffffffffff83116109c4576020808501948460051b0101116109c457565b600080fd5b6000546001600160a01b031633036109dd57565b60405163118cdaa760e01b8152336004820152602490fd5b6000198114610a045760010190565b634e487b7160e01b600052601160045260246000fd5b9190811015610a2a5760051b0190565b634e487b7160e01b600052603260045260246000fd5b8054821015610a2a5760005260206000200190600090565b805490600160401b821015610a7e57816105e0916001610a7a94018155610a40565b9055565b634e487b7160e01b600052604160045260246000fd5b60e0810190811067ffffffffffffffff821117610a7e57604052565b90601f8019910116810190811067ffffffffffffffff821117610a7e57604052565b67ffffffffffffffff8111610a7e5760051b60200190565b8051821015610a2a5760209160051b010190565b9080600191828114610ceb57610b1381610ad2565b92604092610b2384519586610ab0565b828552610b2f83610ad2565b9560209384870197601f190136893760005b818110610ccc5750505081805b610c24575b505b818111610b6a57505050505115610a2a575190565b818101808211610a0457821c9060005b828110610b88575050610b55565b80841b9080820460021481151715610a045784820191828111610a045783831015610c0a57610bba610bc2918a610aea565b519289610aea565b519187519287840191825288840152878352606083019280841067ffffffffffffffff851117610a7e57610c05938952519020610bff828a610aea565b526109f5565b610b7a565b610c059250610c199089610aea565b51610bff828a610aea565b8551811015610cc7578281610c3a829389610aea565b5181935b610c57575b610bff610c5193948a610aea565b90610b4e565b915091801585811580610ca6575b15610c9b5750600019820191808311610a0457610c8d610c85848c610aea565b51918b610aea565b52610a045791849182610c3e565b929050929092610c43565b50506000198201828111610a045783610cc088928c610aea565b5111610c65565b610b53565b80610cdb610ce6928486610a1a565b35610bff828b610aea565b610b41565b91505015610a2a573590565b9060405191828154918282526020928383019160005283600020936000905b828210610d2e57505050610d2c92500383610ab0565b565b855484526001958601958895509381019390910190610d1656fea2646970667358221220ab6acd1235bdad6810c754b8f25274fc2dc8ab680c64db50dce71442ae61f60664736f6c63430008140033","opcodes":"PUSH1 0x80 CALLVALUE PUSH2 0xC6 JUMPI PUSH1 0x1F PUSH2 0xE60 CODESIZE DUP2 SWAP1 SUB SWAP2 DUP3 ADD PUSH1 0x1F NOT AND DUP4 ADD SWAP2 PUSH1 0x1 PUSH1 0x1 PUSH1 0x40 SHL SUB DUP4 GT DUP5 DUP5 LT OR PUSH2 0xCB JUMPI DUP1 DUP5 SWAP3 PUSH1 0x20 SWAP5 PUSH1 0x40 MSTORE DUP4 CODECOPY DUP2 ADD SUB SLT PUSH2 0xC6 JUMPI MLOAD PUSH1 0x1 PUSH1 0x1 PUSH1 0xA0 SHL SUB SWAP1 DUP2 DUP2 AND SWAP1 DUP2 SWAP1 SUB PUSH2 0xC6 JUMPI CALLER ISZERO PUSH2 0xAD JUMPI PUSH1 0x0 SLOAD PUSH1 0x1 DUP1 PUSH1 0xA0 SHL SUB NOT SWAP1 CALLER DUP3 DUP3 AND OR PUSH1 0x0 SSTORE PUSH1 0x40 MLOAD SWAP4 CALLER SWAP2 AND PUSH32 0x8BE0079C531659141344CD1FD0A4F28419497F9722A3DAAFE3B4186F6B6457E0 PUSH1 0x0 DUP1 LOG3 PUSH1 0x1 SLOAD AND OR PUSH1 0x1 SSTORE PUSH2 0xD7E SWAP1 DUP2 PUSH2 0xE2 DUP3 CODECOPY RETURN JUMPDEST PUSH1 0x40 MLOAD PUSH4 0x1E4FBDF7 PUSH1 0xE0 SHL DUP2 MSTORE PUSH1 0x0 PUSH1 0x4 DUP3 ADD MSTORE PUSH1 0x24 SWAP1 REVERT JUMPDEST PUSH1 0x0 DUP1 REVERT JUMPDEST PUSH4 0x4E487B71 PUSH1 0xE0 SHL PUSH1 0x0 MSTORE PUSH1 0x41 PUSH1 0x4 MSTORE PUSH1 0x24 PUSH1 0x0 REVERT INVALID PUSH1 0x40 PUSH1 0x80 DUP2 MSTORE PUSH1 0x4 DUP1 CALLDATASIZE LT ISZERO PUSH2 0x14 JUMPI PUSH1 0x0 DUP1 REVERT JUMPDEST PUSH1 0x0 SWAP2 DUP3 CALLDATALOAD PUSH1 0xE0 SHR DUP1 PUSH4 0x2B8B906C EQ PUSH2 0x94E JUMPI DUP1 PUSH4 0x3BD56175 EQ PUSH2 0x80D JUMPI DUP1 PUSH4 0x44EA6C69 EQ PUSH2 0x7E0 JUMPI DUP1 PUSH4 0x4BB34A7D EQ PUSH2 0x742 JUMPI DUP1 PUSH4 0x50072DD7 EQ PUSH2 0x46D JUMPI DUP1 PUSH4 0x638371EE EQ PUSH2 0x3CF JUMPI DUP1 PUSH4 0x715018A6 EQ PUSH2 0x372 JUMPI DUP1 PUSH4 0x8AD6FCFB EQ PUSH2 0x356 JUMPI DUP1 PUSH4 0x8DA5CB5B EQ PUSH2 0x32E JUMPI DUP1 PUSH4 0xADDECC06 EQ PUSH2 0x310 JUMPI DUP1 PUSH4 0xC0D3F385 EQ PUSH2 0x2E8 JUMPI DUP1 PUSH4 0xC3A39536 EQ PUSH2 0x19E JUMPI DUP1 PUSH4 0xD4B9C129 EQ PUSH2 0x182 JUMPI DUP1 PUSH4 0xF1CF7905 EQ PUSH2 0x155 JUMPI PUSH4 0xF2FDE38B EQ PUSH2 0xC5 JUMPI PUSH1 0x0 DUP1 REVERT JUMPDEST CALLVALUE PUSH2 0x151 JUMPI PUSH1 0x20 CALLDATASIZE PUSH1 0x3 NOT ADD SLT PUSH2 0x151 JUMPI PUSH1 0x1 PUSH1 0x1 PUSH1 0xA0 SHL SUB DUP3 CALLDATALOAD DUP2 DUP2 AND SWAP4 SWAP2 SWAP3 SWAP1 DUP5 SWAP1 SUB PUSH2 0x14D JUMPI PUSH2 0xF6 PUSH2 0x9C9 JUMP JUMPDEST DUP4 ISZERO PUSH2 0x137 JUMPI POP POP DUP3 SLOAD PUSH1 0x1 PUSH1 0x1 PUSH1 0xA0 SHL SUB NOT DUP2 AND DUP4 OR DUP5 SSTORE AND PUSH32 0x8BE0079C531659141344CD1FD0A4F28419497F9722A3DAAFE3B4186F6B6457E0 DUP4 DUP1 LOG3 DUP1 RETURN JUMPDEST MLOAD PUSH4 0x1E4FBDF7 PUSH1 0xE0 SHL DUP2 MSTORE SWAP1 DUP2 ADD DUP5 SWAP1 MSTORE PUSH1 0x24 SWAP1 REVERT JUMPDEST DUP5 DUP1 REVERT JUMPDEST DUP3 DUP1 REVERT JUMPDEST DUP4 DUP3 CALLVALUE PUSH2 0x17E JUMPI DUP2 PUSH1 0x3 NOT CALLDATASIZE ADD SLT PUSH2 0x17E JUMPI PUSH1 0x1 SLOAD SWAP1 MLOAD PUSH1 0x1 PUSH1 0x1 PUSH1 0xA0 SHL SUB SWAP1 SWAP2 AND DUP2 MSTORE PUSH1 0x20 SWAP1 RETURN JUMPDEST POP DUP1 REVERT JUMPDEST DUP4 DUP3 CALLVALUE PUSH2 0x17E JUMPI DUP2 PUSH1 0x3 NOT CALLDATASIZE ADD SLT PUSH2 0x17E JUMPI PUSH1 0x20 SWAP1 MLOAD PUSH1 0x6 DUP2 MSTORE RETURN JUMPDEST POP CALLVALUE PUSH2 0x151 JUMPI DUP1 PUSH1 0x3 NOT CALLDATASIZE ADD SLT PUSH2 0x151 JUMPI DUP2 CALLDATALOAD SWAP1 PUSH1 0x24 CALLDATALOAD PUSH8 0xFFFFFFFFFFFFFFFF DUP2 GT PUSH2 0x14D JUMPI PUSH2 0x1D1 SWAP1 CALLDATASIZE SWAP1 DUP6 ADD PUSH2 0x993 JUMP JUMPDEST SWAP4 DUP4 DUP7 MSTORE PUSH1 0x3 PUSH1 0x20 MSTORE PUSH1 0xFF DUP4 DUP8 KECCAK256 SLOAD AND PUSH2 0x2D1 JUMPI PUSH1 0x2 DUP6 LT DUP1 ISZERO PUSH2 0x2C7 JUMPI JUMPDEST PUSH2 0x2B0 JUMPI POP DUP3 DUP6 MSTORE PUSH1 0x2 PUSH1 0x20 MSTORE DUP2 DUP6 KECCAK256 PUSH1 0x1 DUP2 ADD DUP1 SLOAD PUSH1 0x1 PUSH1 0x1 PUSH1 0xE8 SHL SUB NOT AND CALLER PUSH9 0xFFFFFFFFFFFFFFFFFF PUSH1 0xA0 SHL NOT AND OR TIMESTAMP PUSH1 0xA0 SHL PUSH8 0xFFFFFFFFFFFFFFFF PUSH1 0xA0 SHL AND OR PUSH1 0x1 PUSH1 0xE0 SHL OR SWAP1 SSTORE DUP6 JUMPDEST DUP6 DUP2 LT PUSH2 0x28D JUMPI POP POP POP PUSH1 0xFF SWAP1 DUP3 DUP6 MSTORE PUSH1 0x3 PUSH1 0x20 MSTORE DUP1 DUP6 KECCAK256 PUSH1 0x1 DUP4 NOT DUP3 SLOAD AND OR SWAP1 SSTORE MLOAD SWAP3 AND DUP3 MSTORE PUSH32 0xD51F1EA8E0B03F99B94C0BDB936C2FC4683C160BF64B58E5FBC3CCBE4C20F9CA PUSH1 0x20 CALLER SWAP4 LOG3 DUP1 RETURN JUMPDEST DUP1 PUSH2 0x2A6 PUSH2 0x29F PUSH2 0x2AB SWAP4 DUP10 DUP8 PUSH2 0xA1A JUMP JUMPDEST CALLDATALOAD DUP5 PUSH2 0xA58 JUMP JUMPDEST PUSH2 0x9F5 JUMP JUMPDEST PUSH2 0x23D JUMP JUMPDEST DUP3 MLOAD PUSH4 0xEF2E255D PUSH1 0xE0 SHL DUP2 MSTORE SWAP1 DUP2 ADD DUP6 SWAP1 MSTORE PUSH1 0x24 SWAP1 REVERT JUMPDEST POP PUSH1 0x6 DUP6 GT PUSH2 0x1F0 JUMP JUMPDEST DUP3 MLOAD PUSH4 0xF7BD25CB PUSH1 0xE0 SHL DUP2 MSTORE SWAP1 DUP2 ADD DUP5 SWAP1 MSTORE PUSH1 0x24 SWAP1 REVERT JUMPDEST POP SWAP1 CALLVALUE PUSH2 0x151 JUMPI PUSH1 0x20 CALLDATASIZE PUSH1 0x3 NOT ADD SLT PUSH2 0x151 JUMPI PUSH1 0x20 SWAP3 DUP3 SWAP2 CALLDATALOAD DUP2 MSTORE PUSH1 0x6 DUP5 MSTORE KECCAK256 SLOAD SWAP1 MLOAD SWAP1 DUP2 MSTORE RETURN JUMPDEST POP SWAP1 CALLVALUE PUSH2 0x151 JUMPI DUP3 PUSH1 0x3 NOT CALLDATASIZE ADD SLT PUSH2 0x151 JUMPI PUSH1 0x20 SWAP3 POP SLOAD SWAP1 MLOAD SWAP1 DUP2 MSTORE RETURN JUMPDEST DUP4 DUP3 CALLVALUE PUSH2 0x17E JUMPI DUP2 PUSH1 0x3 NOT CALLDATASIZE ADD SLT PUSH2 0x17E JUMPI SWAP1 SLOAD SWAP1 MLOAD PUSH1 0x1 PUSH1 0x1 PUSH1 0xA0 SHL SUB SWAP1 SWAP2 AND DUP2 MSTORE PUSH1 0x20 SWAP1 RETURN JUMPDEST DUP4 DUP3 CALLVALUE PUSH2 0x17E JUMPI DUP2 PUSH1 0x3 NOT CALLDATASIZE ADD SLT PUSH2 0x17E JUMPI PUSH1 0x20 SWAP1 MLOAD PUSH1 0x2 DUP2 MSTORE RETURN JUMPDEST DUP4 CALLVALUE PUSH2 0x3CC JUMPI DUP1 PUSH1 0x3 NOT CALLDATASIZE ADD SLT PUSH2 0x3CC JUMPI PUSH2 0x38B PUSH2 0x9C9 JUMP JUMPDEST DUP1 SLOAD PUSH1 0x1 PUSH1 0x1 PUSH1 0xA0 SHL SUB NOT DUP2 AND DUP3 SSTORE DUP2 SWAP1 PUSH1 0x1 PUSH1 0x1 PUSH1 0xA0 SHL SUB AND PUSH32 0x8BE0079C531659141344CD1FD0A4F28419497F9722A3DAAFE3B4186F6B6457E0 DUP3 DUP1 LOG3 DUP1 RETURN JUMPDEST DUP1 REVERT JUMPDEST POP SWAP2 CALLVALUE PUSH2 0x3CC JUMPI PUSH1 0x20 SWAP2 DUP3 PUSH1 0x3 NOT CALLDATASIZE ADD SLT PUSH2 0x17E JUMPI SWAP3 SWAP2 SWAP3 CALLDATALOAD DUP2 MSTORE PUSH1 0x6 DUP4 MSTORE DUP2 DUP2 KECCAK256 SWAP1 DUP3 MLOAD DUP1 DUP6 DUP5 SLOAD SWAP2 DUP3 DUP2 MSTORE ADD SWAP1 DUP2 SWAP5 DUP5 MSTORE DUP7 DUP5 KECCAK256 SWAP1 DUP5 JUMPDEST DUP2 DUP2 LT PUSH2 0x459 JUMPI POP POP POP DUP2 PUSH2 0x41E SWAP2 SUB DUP3 PUSH2 0xAB0 JUMP JUMPDEST DUP4 MLOAD SWAP5 DUP6 SWAP5 DUP2 DUP7 ADD SWAP3 DUP3 DUP8 MSTORE MLOAD DUP1 SWAP4 MSTORE DUP6 ADD SWAP4 SWAP3 JUMPDEST DUP3 DUP2 LT PUSH2 0x442 JUMPI POP POP POP POP SUB SWAP1 RETURN JUMPDEST DUP4 MLOAD DUP6 MSTORE DUP7 SWAP6 POP SWAP4 DUP2 ADD SWAP4 SWAP3 DUP2 ADD SWAP3 PUSH1 0x1 ADD PUSH2 0x433 JUMP JUMPDEST DUP3 SLOAD DUP5 MSTORE SWAP3 DUP9 ADD SWAP3 PUSH1 0x1 SWAP3 DUP4 ADD SWAP3 ADD PUSH2 0x408 JUMP JUMPDEST POP CALLVALUE PUSH2 0x151 JUMPI PUSH1 0x60 CALLDATASIZE PUSH1 0x3 NOT ADD SLT PUSH2 0x151 JUMPI DUP2 CALLDATALOAD PUSH1 0x24 SWAP4 DUP5 CALLDATALOAD PUSH8 0xFFFFFFFFFFFFFFFF DUP2 GT PUSH2 0x17E JUMPI PUSH2 0x4A2 SWAP1 CALLDATASIZE SWAP1 DUP7 ADD PUSH2 0x993 JUMP JUMPDEST SWAP1 SWAP5 PUSH1 0x44 CALLDATALOAD SWAP3 DUP5 DUP2 MSTORE PUSH1 0x20 SWAP8 PUSH1 0x3 DUP10 MSTORE PUSH1 0xFF DUP8 DUP4 KECCAK256 SLOAD AND ISZERO PUSH2 0x72E JUMPI DUP6 DUP3 MSTORE PUSH1 0x2 DUP10 MSTORE DUP7 DUP3 KECCAK256 PUSH1 0xFF PUSH1 0x1 DUP3 ADD SLOAD PUSH1 0xE0 SHR AND ISZERO PUSH2 0x719 JUMPI SLOAD DUP1 DUP6 SUB PUSH2 0x6FF JUMPI POP PUSH1 0x1 SLOAD PUSH1 0x1 PUSH1 0x1 PUSH1 0xA0 SHL SUB AND DUP3 JUMPDEST DUP6 DUP2 LT PUSH2 0x658 JUMPI POP POP PUSH2 0x502 DUP5 DUP10 PUSH2 0xAFE JUMP JUMPDEST DUP6 DUP2 SUB PUSH2 0x63D JUMPI POP DUP3 SLOAD SWAP8 PUSH2 0x516 DUP10 PUSH2 0x9F5 JUMP JUMPDEST DUP5 SSTORE DUP9 DUP4 MSTORE PUSH1 0x5 DUP11 MSTORE DUP8 DUP4 KECCAK256 DUP8 DUP2 SSTORE PUSH1 0x1 DUP2 ADD DUP8 SWAP1 SSTORE PUSH1 0x3 DUP2 ADD DUP1 SLOAD PUSH1 0x1 PUSH1 0x50 SHL PUSH1 0x1 PUSH1 0xF0 SHL SUB CALLER PUSH1 0x50 SHL AND PUSH10 0xFFFFFFFFFFFFFFFF0000 TIMESTAMP PUSH1 0x10 SHL AND PUSH2 0x100 PUSH1 0xFF DUP12 AND PUSH2 0xFFFF NOT SWAP1 SWAP5 AND DUP5 OR OR PUSH3 0x10000 PUSH1 0x1 PUSH1 0xF0 SHL SUB NOT AND OR OR SWAP1 SWAP2 SSTORE SWAP6 PUSH1 0x2 SWAP1 SWAP2 ADD SWAP1 DUP5 JUMPDEST DUP2 DUP2 LT PUSH2 0x61F JUMPI POP POP POP POP DUP6 DUP3 MSTORE PUSH1 0x6 DUP10 MSTORE DUP7 DUP3 KECCAK256 SWAP2 DUP3 SLOAD SWAP4 PUSH1 0x1 PUSH1 0x40 SHL DUP6 LT ISZERO PUSH2 0x60F JUMPI POP POP POP SWAP3 PUSH32 0x6FAF02F204BAEAAF295439E5483B112C706763054453BED74B5D8647E82CA55B SWAP3 DUP8 PUSH2 0x5F7 PUSH2 0x5E0 DUP6 DUP4 SWAP10 SWAP9 PUSH1 0x1 PUSH1 0x60 SWAP9 ADD DUP2 SSTORE PUSH2 0xA40 JUMP JUMPDEST DUP2 SWAP4 SWAP2 SLOAD SWAP1 PUSH1 0x3 SHL SWAP2 DUP3 SHL SWAP2 PUSH1 0x0 NOT SWAP1 SHL NOT AND OR SWAP1 JUMP JUMPDEST SWAP1 SSTORE DUP7 MLOAD SWAP2 DUP3 MSTORE DUP9 DUP3 ADD MSTORE PUSH1 0x1 DUP7 DUP3 ADD MSTORE LOG3 MLOAD SWAP1 DUP2 MSTORE RETURN JUMPDEST PUSH4 0x4E487B71 PUSH1 0xE0 SHL DUP3 MSTORE PUSH1 0x41 SWAP1 MSTORE REVERT JUMPDEST DUP1 PUSH2 0x2A6 PUSH2 0x631 PUSH2 0x638 SWAP4 DUP6 DUP9 PUSH2 0xA1A JUMP JUMPDEST CALLDATALOAD DUP6 PUSH2 0xA58 JUMP JUMPDEST PUSH2 0x57D JUMP JUMPDEST DUP6 PUSH1 0x44 SWAP3 DUP6 SWAP3 DUP11 MLOAD SWAP4 PUSH4 0x27C4ED97 PUSH1 0xE2 SHL DUP6 MSTORE DUP5 ADD MSTORE DUP3 ADD MSTORE REVERT JUMPDEST PUSH2 0x663 DUP2 DUP8 DUP13 PUSH2 0xA1A JUMP JUMPDEST DUP10 MLOAD PUSH4 0x488DBFAD PUSH1 0xE0 SHL DUP2 MSTORE SWAP1 CALLDATALOAD DUP7 DUP3 ADD MSTORE DUP12 DUP2 DUP6 DUP2 DUP7 GAS STATICCALL SWAP1 DUP2 ISZERO PUSH2 0x6F5 JUMPI DUP6 SWAP2 PUSH2 0x6BF JUMPI JUMPDEST POP ISZERO PUSH2 0x69E JUMPI PUSH2 0x699 SWAP1 PUSH2 0x9F5 JUMP JUMPDEST PUSH2 0x4EF JUMP JUMPDEST DUP5 DUP10 PUSH2 0x6AC DUP6 SWAP4 DUP10 DUP15 PUSH2 0xA1A JUMP JUMPDEST CALLDATALOAD SWAP1 MLOAD SWAP2 PUSH4 0x2047F235 PUSH1 0xE2 SHL DUP4 MSTORE DUP3 ADD MSTORE REVERT JUMPDEST SWAP1 POP DUP12 DUP2 DUP2 RETURNDATASIZE DUP4 GT PUSH2 0x6EE JUMPI JUMPDEST PUSH2 0x6D6 DUP2 DUP4 PUSH2 0xAB0 JUMP JUMPDEST DUP2 ADD SUB SLT PUSH2 0x14D JUMPI MLOAD DUP1 ISZERO ISZERO DUP2 SUB PUSH2 0x14D JUMPI CODESIZE PUSH2 0x68A JUMP JUMPDEST POP RETURNDATASIZE PUSH2 0x6CC JUMP JUMPDEST DUP11 MLOAD RETURNDATASIZE DUP8 DUP3 RETURNDATACOPY RETURNDATASIZE SWAP1 REVERT JUMPDEST PUSH1 0x44 SWAP5 SWAP3 POP DUP8 MLOAD SWAP4 PUSH4 0x4C1EB769 PUSH1 0xE1 SHL DUP6 MSTORE DUP5 ADD MSTORE DUP3 ADD MSTORE REVERT JUMPDEST POP DUP7 MLOAD PUSH4 0xB79EACFB PUSH1 0xE0 SHL DUP2 MSTORE DUP1 DUP5 ADD DUP8 SWAP1 MSTORE REVERT JUMPDEST DUP7 MLOAD PUSH4 0x760A053 PUSH1 0xE3 SHL DUP2 MSTORE DUP1 DUP5 ADD DUP8 SWAP1 MSTORE REVERT JUMPDEST POP SWAP2 SWAP1 CALLVALUE PUSH2 0x17E JUMPI PUSH1 0x20 SWAP1 DUP2 PUSH1 0x3 NOT CALLDATASIZE ADD SLT PUSH2 0x151 JUMPI SWAP2 SWAP1 SWAP2 CALLDATALOAD DUP2 MSTORE PUSH1 0x2 DUP3 MSTORE DUP3 DUP2 KECCAK256 SWAP3 PUSH1 0x1 SWAP3 PUSH2 0x776 DUP5 DUP7 ADD SLOAD SWAP6 PUSH2 0xCF7 JUMP JUMPDEST SWAP3 DUP3 MLOAD SWAP5 PUSH1 0x80 DUP7 ADD PUSH1 0x80 DUP8 MSTORE DUP6 MLOAD DUP1 SWAP2 MSTORE DUP4 PUSH1 0xA0 DUP9 ADD SWAP7 ADD SWAP3 JUMPDEST DUP2 DUP2 LT PUSH2 0x7CD JUMPI PUSH1 0x1 PUSH1 0x1 PUSH1 0xA0 SHL SUB DUP10 AND DUP6 DUP10 ADD MSTORE PUSH1 0xA0 DUP10 SWAP1 SHR PUSH8 0xFFFFFFFFFFFFFFFF AND DUP7 DUP10 ADD MSTORE PUSH1 0xE0 DUP10 SWAP1 SHR PUSH1 0xFF AND ISZERO ISZERO PUSH1 0x60 DUP10 ADD MSTORE DUP8 DUP8 SUB DUP9 RETURN JUMPDEST DUP4 MLOAD DUP8 MSTORE SWAP6 DUP5 ADD SWAP6 SWAP3 DUP5 ADD SWAP3 DUP3 ADD PUSH2 0x790 JUMP JUMPDEST POP SWAP1 CALLVALUE PUSH2 0x151 JUMPI PUSH1 0x20 CALLDATASIZE PUSH1 0x3 NOT ADD SLT PUSH2 0x151 JUMPI DUP2 PUSH1 0x20 SWAP4 PUSH1 0xFF SWAP3 CALLDATALOAD DUP2 MSTORE PUSH1 0x3 DUP6 MSTORE KECCAK256 SLOAD AND SWAP1 MLOAD SWAP1 ISZERO ISZERO DUP2 MSTORE RETURN JUMPDEST POP SWAP2 CALLVALUE PUSH2 0x3CC JUMPI PUSH1 0x20 SWAP2 DUP3 PUSH1 0x3 NOT CALLDATASIZE ADD SLT PUSH2 0x17E JUMPI DUP2 PUSH1 0xC0 DUP6 SWAP5 SWAP4 SWAP6 MLOAD PUSH2 0x833 DUP2 PUSH2 0xA94 JUMP JUMPDEST DUP3 DUP2 MSTORE DUP3 DUP6 DUP3 ADD MSTORE PUSH1 0x60 DUP7 DUP3 ADD MSTORE DUP3 PUSH1 0x60 DUP3 ADD MSTORE DUP3 PUSH1 0x80 DUP3 ADD MSTORE DUP3 PUSH1 0xA0 DUP3 ADD MSTORE ADD MSTORE CALLDATALOAD DUP4 MSTORE PUSH1 0x5 DUP2 MSTORE DUP2 DUP4 KECCAK256 DUP3 MLOAD SWAP3 PUSH2 0x86B DUP5 PUSH2 0xA94 JUMP JUMPDEST DUP2 SLOAD DUP5 MSTORE PUSH1 0x1 SWAP2 DUP3 DUP2 ADD SLOAD SWAP5 DUP5 DUP2 ADD SWAP6 DUP7 MSTORE PUSH1 0x3 PUSH2 0x88B PUSH1 0x2 DUP5 ADD PUSH2 0xCF7 JUMP JUMPDEST SWAP3 DUP5 DUP4 ADD SWAP4 DUP5 MSTORE ADD SLOAD SWAP4 PUSH1 0x60 DUP3 ADD SWAP8 PUSH1 0xFF DUP7 AND DUP10 MSTORE PUSH1 0x80 DUP4 ADD SWAP2 PUSH1 0xFF DUP8 PUSH1 0x8 SHR AND ISZERO ISZERO DUP4 MSTORE PUSH1 0xA0 DUP5 ADD SWAP4 PUSH8 0xFFFFFFFFFFFFFFFF SWAP6 DUP7 DUP10 PUSH1 0x10 SHR AND DUP7 MSTORE PUSH1 0xC0 DUP3 ADD SWAP8 PUSH1 0x1 DUP1 PUSH1 0xA0 SHL SUB DUP1 SWAP11 PUSH1 0x50 SHR AND DUP10 MSTORE DUP1 MLOAD SWAP12 DUP12 DUP14 MSTORE DUP13 DUP13 PUSH2 0x100 DUP3 ADD SWAP6 MLOAD SWAP2 ADD MSTORE MLOAD SWAP1 DUP13 ADD MSTORE MLOAD SWAP9 PUSH1 0xE0 PUSH1 0x60 DUP13 ADD MSTORE DUP10 MLOAD DUP1 SWAP3 MSTORE DUP1 PUSH2 0x120 DUP13 ADD SWAP11 ADD SWAP4 JUMPDEST DUP3 DUP2 LT PUSH2 0x93B JUMPI POP POP POP POP POP PUSH1 0xFF DUP8 SWAP9 MLOAD AND PUSH1 0x80 DUP9 ADD MSTORE MLOAD ISZERO ISZERO PUSH1 0xA0 DUP8 ADD MSTORE MLOAD AND PUSH1 0xC0 DUP6 ADD MSTORE MLOAD AND PUSH1 0xE0 DUP4 ADD MSTORE SUB SWAP1 RETURN JUMPDEST DUP5 MLOAD DUP12 MSTORE SWAP10 DUP2 ADD SWAP10 SWAP4 DUP2 ADD SWAP4 DUP4 ADD PUSH2 0x90A JUMP JUMPDEST POP DUP3 CALLVALUE PUSH2 0x3CC JUMPI PUSH1 0x20 CALLDATASIZE PUSH1 0x3 NOT ADD SLT PUSH2 0x3CC JUMPI DUP3 CALLDATALOAD SWAP1 PUSH8 0xFFFFFFFFFFFFFFFF DUP3 GT PUSH2 0x3CC JUMPI POP PUSH2 0x986 PUSH1 0x20 SWAP4 PUSH2 0x98C SWAP3 CALLDATASIZE SWAP2 ADD PUSH2 0x993 JUMP JUMPDEST SWAP1 PUSH2 0xAFE JUMP JUMPDEST SWAP1 MLOAD SWAP1 DUP2 MSTORE RETURN JUMPDEST SWAP2 DUP2 PUSH1 0x1F DUP5 ADD SLT ISZERO PUSH2 0x9C4 JUMPI DUP3 CALLDATALOAD SWAP2 PUSH8 0xFFFFFFFFFFFFFFFF DUP4 GT PUSH2 0x9C4 JUMPI PUSH1 0x20 DUP1 DUP6 ADD SWAP5 DUP5 PUSH1 0x5 SHL ADD ADD GT PUSH2 0x9C4 JUMPI JUMP JUMPDEST PUSH1 0x0 DUP1 REVERT JUMPDEST PUSH1 0x0 SLOAD PUSH1 0x1 PUSH1 0x1 PUSH1 0xA0 SHL SUB AND CALLER SUB PUSH2 0x9DD JUMPI JUMP JUMPDEST PUSH1 0x40 MLOAD PUSH4 0x118CDAA7 PUSH1 0xE0 SHL DUP2 MSTORE CALLER PUSH1 0x4 DUP3 ADD MSTORE PUSH1 0x24 SWAP1 REVERT JUMPDEST PUSH1 0x0 NOT DUP2 EQ PUSH2 0xA04 JUMPI PUSH1 0x1 ADD SWAP1 JUMP JUMPDEST PUSH4 0x4E487B71 PUSH1 0xE0 SHL PUSH1 0x0 MSTORE PUSH1 0x11 PUSH1 0x4 MSTORE PUSH1 0x24 PUSH1 0x0 REVERT JUMPDEST SWAP2 SWAP1 DUP2 LT ISZERO PUSH2 0xA2A JUMPI PUSH1 0x5 SHL ADD SWAP1 JUMP JUMPDEST PUSH4 0x4E487B71 PUSH1 0xE0 SHL PUSH1 0x0 MSTORE PUSH1 0x32 PUSH1 0x4 MSTORE PUSH1 0x24 PUSH1 0x0 REVERT JUMPDEST DUP1 SLOAD DUP3 LT ISZERO PUSH2 0xA2A JUMPI PUSH1 0x0 MSTORE PUSH1 0x20 PUSH1 0x0 KECCAK256 ADD SWAP1 PUSH1 0x0 SWAP1 JUMP JUMPDEST DUP1 SLOAD SWAP1 PUSH1 0x1 PUSH1 0x40 SHL DUP3 LT ISZERO PUSH2 0xA7E JUMPI DUP2 PUSH2 0x5E0 SWAP2 PUSH1 0x1 PUSH2 0xA7A SWAP5 ADD DUP2 SSTORE PUSH2 0xA40 JUMP JUMPDEST SWAP1 SSTORE JUMP JUMPDEST PUSH4 0x4E487B71 PUSH1 0xE0 SHL PUSH1 0x0 MSTORE PUSH1 0x41 PUSH1 0x4 MSTORE PUSH1 0x24 PUSH1 0x0 REVERT JUMPDEST PUSH1 0xE0 DUP2 ADD SWAP1 DUP2 LT PUSH8 0xFFFFFFFFFFFFFFFF DUP3 GT OR PUSH2 0xA7E JUMPI PUSH1 0x40 MSTORE JUMP JUMPDEST SWAP1 PUSH1 0x1F DUP1 NOT SWAP2 ADD AND DUP2 ADD SWAP1 DUP2 LT PUSH8 0xFFFFFFFFFFFFFFFF DUP3 GT OR PUSH2 0xA7E JUMPI PUSH1 0x40 MSTORE JUMP JUMPDEST PUSH8 0xFFFFFFFFFFFFFFFF DUP2 GT PUSH2 0xA7E JUMPI PUSH1 0x5 SHL PUSH1 0x20 ADD SWAP1 JUMP JUMPDEST DUP1 MLOAD DUP3 LT ISZERO PUSH2 0xA2A JUMPI PUSH1 0x20 SWAP2 PUSH1 0x5 SHL ADD ADD SWAP1 JUMP JUMPDEST SWAP1 DUP1 PUSH1 0x1 SWAP2 DUP3 DUP2 EQ PUSH2 0xCEB JUMPI PUSH2 0xB13 DUP2 PUSH2 0xAD2 JUMP JUMPDEST SWAP3 PUSH1 0x40 SWAP3 PUSH2 0xB23 DUP5 MLOAD SWAP6 DUP7 PUSH2 0xAB0 JUMP JUMPDEST DUP3 DUP6 MSTORE PUSH2 0xB2F DUP4 PUSH2 0xAD2 JUMP JUMPDEST SWAP6 PUSH1 0x20 SWAP4 DUP5 DUP8 ADD SWAP8 PUSH1 0x1F NOT ADD CALLDATASIZE DUP10 CALLDATACOPY PUSH1 0x0 JUMPDEST DUP2 DUP2 LT PUSH2 0xCCC JUMPI POP POP POP DUP2 DUP1 JUMPDEST PUSH2 0xC24 JUMPI JUMPDEST POP JUMPDEST DUP2 DUP2 GT PUSH2 0xB6A JUMPI POP POP POP POP MLOAD ISZERO PUSH2 0xA2A JUMPI MLOAD SWAP1 JUMP JUMPDEST DUP2 DUP2 ADD DUP1 DUP3 GT PUSH2 0xA04 JUMPI DUP3 SHR SWAP1 PUSH1 0x0 JUMPDEST DUP3 DUP2 LT PUSH2 0xB88 JUMPI POP POP PUSH2 0xB55 JUMP JUMPDEST DUP1 DUP5 SHL SWAP1 DUP1 DUP3 DIV PUSH1 0x2 EQ DUP2 ISZERO OR ISZERO PUSH2 0xA04 JUMPI DUP5 DUP3 ADD SWAP2 DUP3 DUP2 GT PUSH2 0xA04 JUMPI DUP4 DUP4 LT ISZERO PUSH2 0xC0A JUMPI PUSH2 0xBBA PUSH2 0xBC2 SWAP2 DUP11 PUSH2 0xAEA JUMP JUMPDEST MLOAD SWAP3 DUP10 PUSH2 0xAEA JUMP JUMPDEST MLOAD SWAP2 DUP8 MLOAD SWAP3 DUP8 DUP5 ADD SWAP2 DUP3 MSTORE DUP9 DUP5 ADD MSTORE DUP8 DUP4 MSTORE PUSH1 0x60 DUP4 ADD SWAP3 DUP1 DUP5 LT PUSH8 0xFFFFFFFFFFFFFFFF DUP6 GT OR PUSH2 0xA7E JUMPI PUSH2 0xC05 SWAP4 DUP10 MSTORE MLOAD SWAP1 KECCAK256 PUSH2 0xBFF DUP3 DUP11 PUSH2 0xAEA JUMP JUMPDEST MSTORE PUSH2 0x9F5 JUMP JUMPDEST PUSH2 0xB7A JUMP JUMPDEST PUSH2 0xC05 SWAP3 POP PUSH2 0xC19 SWAP1 DUP10 PUSH2 0xAEA JUMP JUMPDEST MLOAD PUSH2 0xBFF DUP3 DUP11 PUSH2 0xAEA JUMP JUMPDEST DUP6 MLOAD DUP2 LT ISZERO PUSH2 0xCC7 JUMPI DUP3 DUP2 PUSH2 0xC3A DUP3 SWAP4 DUP10 PUSH2 0xAEA JUMP JUMPDEST MLOAD DUP2 SWAP4 JUMPDEST PUSH2 0xC57 JUMPI JUMPDEST PUSH2 0xBFF PUSH2 0xC51 SWAP4 SWAP5 DUP11 PUSH2 0xAEA JUMP JUMPDEST SWAP1 PUSH2 0xB4E JUMP JUMPDEST SWAP2 POP SWAP2 DUP1 ISZERO DUP6 DUP2 ISZERO DUP1 PUSH2 0xCA6 JUMPI JUMPDEST ISZERO PUSH2 0xC9B JUMPI POP PUSH1 0x0 NOT DUP3 ADD SWAP2 DUP1 DUP4 GT PUSH2 0xA04 JUMPI PUSH2 0xC8D PUSH2 0xC85 DUP5 DUP13 PUSH2 0xAEA JUMP JUMPDEST MLOAD SWAP2 DUP12 PUSH2 0xAEA JUMP JUMPDEST MSTORE PUSH2 0xA04 JUMPI SWAP2 DUP5 SWAP2 DUP3 PUSH2 0xC3E JUMP JUMPDEST SWAP3 SWAP1 POP SWAP3 SWAP1 SWAP3 PUSH2 0xC43 JUMP JUMPDEST POP POP PUSH1 0x0 NOT DUP3 ADD DUP3 DUP2 GT PUSH2 0xA04 JUMPI DUP4 PUSH2 0xCC0 DUP9 SWAP3 DUP13 PUSH2 0xAEA JUMP JUMPDEST MLOAD GT PUSH2 0xC65 JUMP JUMPDEST PUSH2 0xB53 JUMP JUMPDEST DUP1 PUSH2 0xCDB PUSH2 0xCE6 SWAP3 DUP5 DUP7 PUSH2 0xA1A JUMP JUMPDEST CALLDATALOAD PUSH2 0xBFF DUP3 DUP12 PUSH2 0xAEA JUMP JUMPDEST PUSH2 0xB41 JUMP JUMPDEST SWAP2 POP POP ISZERO PUSH2 0xA2A JUMPI CALLDATALOAD SWAP1 JUMP JUMPDEST SWAP1 PUSH1 0x40 MLOAD SWAP2 DUP3 DUP2 SLOAD SWAP2 DUP3 DUP3 MSTORE PUSH1 0x20 SWAP3 DUP4 DUP4 ADD SWAP2 PUSH1 0x0 MSTORE DUP4 PUSH1 0x0 KECCAK256 SWAP4 PUSH1 0x0 SWAP1 JUMPDEST DUP3 DUP3 LT PUSH2 0xD2E JUMPI POP POP POP PUSH2 0xD2C SWAP3 POP SUB DUP4 PUSH2 0xAB0 JUMP JUMPDEST JUMP JUMPDEST DUP6 SLOAD DUP5 MSTORE PUSH1 0x1 SWAP6 DUP7 ADD SWAP6 DUP9 SWAP6 POP SWAP4 DUP2 ADD SWAP4 SWAP1 SWAP2 ADD SWAP1 PUSH2 0xD16 JUMP INVALID LOG2 PUSH5 0x6970667358 0x22 SLT KECCAK256 0xAB PUSH11 0xCD1235BDAD6810C754B8F2 MSTORE PUSH21 0xFC2DC8AB680C64DB50DCE71442AE61F60664736F6C PUSH4 0x43000814 STOP CALLER "},"methodIdentifiers":{"MAX_TEAM_SIZE()":"d4b9c129","MIN_TEAM_SIZE()":"8ad6fcfb","computeMerkleRoot(bytes32[])":"2b8b906c","createTeam(bytes32,bytes32[])":"c3a39536","getTeam(bytes32)":"4bb34a7d","getTeamProof(uint256)":"3bd56175","getTeamProofCount(bytes32)":"c0d3f385","getTeamProofIds(bytes32)":"638371ee","owner()":"8da5cb5b","poACVerifier()":"f1cf7905","proofCount()":"addecc06","renounceOwnership()":"715018a6","submitTeamProof(bytes32,bytes32[],bytes32)":"50072dd7","teamExists(bytes32)":"44ea6c69","transferOwnership(address)":"f2fde38b"}}}}}