{"contracts/TieredDeviceRegistry.sol":{"TieredDeviceRegistry":{"abi":[{"inputs":[{"internalType":"uint256","name":"_emulatedDeposit","type":"uint256"},{"internalType":"uint256","name":"_standardDeposit","type":"uint256"},{"internalType":"uint256","name":"_attestedDeposit","type":"uint256"}],"stateMutability":"nonpayable","type":"constructor"},{"inputs":[],"name":"AttestationValidatorNotImplemented","type":"error"},{"inputs":[{"internalType":"bytes32","name":"pubkeyHash","type":"bytes32"}],"name":"AttestationVerificationFailed","type":"error"},{"inputs":[{"internalType":"bytes32","name":"deviceId","type":"bytes32"},{"internalType":"uint256","name":"availableAt","type":"uint256"}],"name":"CooldownNotElapsed","type":"error"},{"inputs":[{"internalType":"bytes32","name":"deviceId","type":"bytes32"}],"name":"DepositAlreadyWithdrawn","type":"error"},{"inputs":[{"internalType":"bytes32","name":"deviceId","type":"bytes32"}],"name":"DeviceAlreadyRegistered","type":"error"},{"inputs":[{"internalType":"bytes32","name":"deviceId","type":"bytes32"}],"name":"DeviceNotActive","type":"error"},{"inputs":[{"internalType":"bytes32","name":"deviceId","type":"bytes32"}],"name":"DeviceNotFound","type":"error"},{"inputs":[{"internalType":"uint256","name":"provided","type":"uint256"},{"internalType":"uint256","name":"required","type":"uint256"}],"name":"InsufficientDeposit","type":"error"},{"inputs":[],"name":"InvalidAttestationProof","type":"error"},{"inputs":[{"internalType":"uint256","name":"provided","type":"uint256"},{"internalType":"uint256","name":"expected","type":"uint256"}],"name":"InvalidPubkeyLength","type":"error"},{"inputs":[{"internalType":"uint8","name":"provided","type":"uint8"}],"name":"InvalidPubkeyPrefix","type":"error"},{"inputs":[{"internalType":"enum TieredDeviceRegistry.RegistrationTier","name":"tier","type":"uint8"},{"internalType":"uint256","name":"provided","type":"uint256"},{"internalType":"uint256","name":"required","type":"uint256"}],"name":"InvalidTierDeposit","type":"error"},{"inputs":[{"internalType":"enum TieredDeviceRegistry.RegistrationTier","name":"tier","type":"uint8"}],"name":"InvalidTierForFunction","type":"error"},{"inputs":[{"internalType":"address","name":"manufacturer","type":"address"}],"name":"ManufacturerKeyInactive","type":"error"},{"inputs":[{"internalType":"address","name":"manufacturer","type":"address"}],"name":"NoApprovedManufacturer","type":"error"},{"inputs":[{"internalType":"address","name":"caller","type":"address"}],"name":"NotAuthorizedUpdater","type":"error"},{"inputs":[{"internalType":"bytes32","name":"deviceId","type":"bytes32"},{"internalType":"address","name":"caller","type":"address"}],"name":"NotDeviceOwner","type":"error"},{"inputs":[{"internalType":"address","name":"owner","type":"address"}],"name":"OwnableInvalidOwner","type":"error"},{"inputs":[{"internalType":"address","name":"account","type":"address"}],"name":"OwnableUnauthorizedAccount","type":"error"},{"inputs":[],"name":"ReentrancyGuardReentrantCall","type":"error"},{"inputs":[{"internalType":"bytes32","name":"deviceId","type":"bytes32"},{"internalType":"address","name":"caller","type":"address"}],"name":"UnauthorizedCertHashUpdate","type":"error"},{"anonymous":false,"inputs":[{"indexed":true,"internalType":"bytes32","name":"deviceId","type":"bytes32"},{"indexed":false,"internalType":"bytes32","name":"certHash","type":"bytes32"}],"name":"AttestationCertHashSet","type":"event"},{"anonymous":false,"inputs":[{"indexed":false,"internalType":"bool","name":"enforced","type":"bool"}],"name":"AttestationEnforcementChanged","type":"event"},{"anonymous":false,"inputs":[{"indexed":true,"internalType":"bytes32","name":"deviceId","type":"bytes32"},{"indexed":true,"internalType":"address","name":"owner","type":"address"},{"indexed":false,"internalType":"uint256","name":"amount","type":"uint256"}],"name":"DepositWithdrawn","type":"event"},{"anonymous":false,"inputs":[{"indexed":true,"internalType":"bytes32","name":"deviceId","type":"bytes32"},{"indexed":true,"internalType":"address","name":"owner","type":"address"},{"indexed":false,"internalType":"uint64","name":"deactivatedAt","type":"uint64"}],"name":"DeviceDeactivated","type":"event"},{"anonymous":false,"inputs":[{"indexed":true,"internalType":"bytes32","name":"deviceId","type":"bytes32"},{"indexed":true,"internalType":"address","name":"owner","type":"address"},{"indexed":false,"internalType":"uint256","name":"deposit","type":"uint256"},{"indexed":false,"internalType":"uint64","name":"registeredAt","type":"uint64"}],"name":"DeviceRegistered","type":"event"},{"anonymous":false,"inputs":[{"indexed":true,"internalType":"address","name":"manufacturer","type":"address"},{"indexed":false,"internalType":"bool","name":"approved","type":"bool"}],"name":"ManufacturerApproved","type":"event"},{"anonymous":false,"inputs":[{"indexed":true,"internalType":"bytes32","name":"deviceId","type":"bytes32"},{"indexed":true,"internalType":"address","name":"manufacturer","type":"address"}],"name":"ManufacturerAttested","type":"event"},{"anonymous":false,"inputs":[{"indexed":true,"internalType":"address","name":"manufacturer","type":"address"}],"name":"ManufacturerKeyRevoked","type":"event"},{"anonymous":false,"inputs":[{"indexed":true,"internalType":"address","name":"manufacturer","type":"address"},{"indexed":false,"internalType":"bytes32","name":"pubkeyX","type":"bytes32"},{"indexed":false,"internalType":"bytes32","name":"pubkeyY","type":"bytes32"},{"indexed":false,"internalType":"string","name":"name","type":"string"}],"name":"ManufacturerKeySet","type":"event"},{"anonymous":false,"inputs":[{"indexed":true,"internalType":"address","name":"previousOwner","type":"address"},{"indexed":true,"internalType":"address","name":"newOwner","type":"address"}],"name":"OwnershipTransferred","type":"event"},{"anonymous":false,"inputs":[{"indexed":true,"internalType":"bytes32","name":"deviceId","type":"bytes32"},{"indexed":false,"internalType":"uint16","name":"oldScore","type":"uint16"},{"indexed":false,"internalType":"uint16","name":"newScore","type":"uint16"},{"indexed":false,"internalType":"uint32","name":"verifiedPoACCount","type":"uint32"},{"indexed":false,"internalType":"uint32","name":"corroborationCount","type":"uint32"},{"indexed":false,"internalType":"uint32","name":"disputeCount","type":"uint32"}],"name":"ReputationUpdated","type":"event"},{"anonymous":false,"inputs":[{"indexed":true,"internalType":"enum TieredDeviceRegistry.RegistrationTier","name":"tier","type":"uint8"}],"name":"TierConfigUpdated","type":"event"},{"anonymous":false,"inputs":[{"indexed":true,"internalType":"bytes32","name":"deviceId","type":"bytes32"},{"indexed":false,"internalType":"enum TieredDeviceRegistry.RegistrationTier","name":"tier","type":"uint8"},{"indexed":false,"internalType":"uint256","name":"deposit","type":"uint256"}],"name":"TierRegistered","type":"event"},{"inputs":[],"name":"DEACTIVATION_COOLDOWN","outputs":[{"internalType":"uint256","name":"","type":"uint256"}],"stateMutability":"view","type":"function"},{"inputs":[],"name":"MAX_REPUTATION","outputs":[{"internalType":"uint16","name":"","type":"uint16"}],"stateMutability":"view","type":"function"},{"inputs":[],"name":"PUBKEY_LENGTH","outputs":[{"internalType":"uint256","name":"","type":"uint256"}],"stateMutability":"view","type":"function"},{"inputs":[{"internalType":"address","name":"","type":"address"}],"name":"approvedManufacturers","outputs":[{"internalType":"bool","name":"","type":"bool"}],"stateMutability":"view","type":"function"},{"inputs":[{"internalType":"bytes32","name":"","type":"bytes32"}],"name":"attestationCertificateHashes","outputs":[{"internalType":"bytes32","name":"","type":"bytes32"}],"stateMutability":"view","type":"function"},{"inputs":[],"name":"attestationEnforced","outputs":[{"internalType":"bool","name":"","type":"bool"}],"stateMutability":"view","type":"function"},{"inputs":[{"internalType":"bytes32","name":"_deviceId","type":"bytes32"}],"name":"canClaimBounty","outputs":[{"internalType":"bool","name":"","type":"bool"}],"stateMutability":"view","type":"function"},{"inputs":[{"internalType":"bytes32","name":"_deviceId","type":"bytes32"}],"name":"canUseSkillOracle","outputs":[{"internalType":"bool","name":"","type":"bool"}],"stateMutability":"view","type":"function"},{"inputs":[{"internalType":"bytes","name":"_pubkey","type":"bytes"}],"name":"computeDeviceId","outputs":[{"internalType":"bytes32","name":"","type":"bytes32"}],"stateMutability":"pure","type":"function"},{"inputs":[{"internalType":"bytes32","name":"_deviceId","type":"bytes32"}],"name":"deactivateDevice","outputs":[],"stateMutability":"nonpayable","type":"function"},{"inputs":[],"name":"deviceCount","outputs":[{"internalType":"uint256","name":"","type":"uint256"}],"stateMutability":"view","type":"function"},{"inputs":[{"internalType":"bytes32","name":"","type":"bytes32"}],"name":"deviceTiers","outputs":[{"internalType":"enum TieredDeviceRegistry.RegistrationTier","name":"","type":"uint8"}],"stateMutability":"view","type":"function"},{"inputs":[{"internalType":"bytes32","name":"_deviceId","type":"bytes32"}],"name":"getDeviceInfo","outputs":[{"components":[{"internalType":"address","name":"owner","type":"address"},{"internalType":"uint64","name":"registeredAt","type":"uint64"},{"internalType":"uint64","name":"deactivatedAt","type":"uint64"},{"internalType":"uint256","name":"deposit","type":"uint256"},{"internalType":"bool","name":"active","type":"bool"},{"internalType":"bytes","name":"pubkey","type":"bytes"},{"internalType":"uint32","name":"verifiedPoACCount","type":"uint32"},{"internalType":"uint32","name":"corroborationCount","type":"uint32"},{"internalType":"uint32","name":"disputeCount","type":"uint32"},{"internalType":"uint16","name":"reputationScore","type":"uint16"}],"internalType":"struct DeviceRegistry.DeviceInfo","name":"info","type":"tuple"}],"stateMutability":"view","type":"function"},{"inputs":[{"internalType":"bytes32","name":"_deviceId","type":"bytes32"}],"name":"getDevicePubkey","outputs":[{"internalType":"bytes","name":"","type":"bytes"}],"stateMutability":"view","type":"function"},{"inputs":[{"internalType":"bytes32","name":"_deviceId","type":"bytes32"}],"name":"getDeviceRewardWeightBps","outputs":[{"internalType":"uint16","name":"","type":"uint16"}],"stateMutability":"view","type":"function"},{"inputs":[{"internalType":"bytes32","name":"_deviceId","type":"bytes32"}],"name":"getDeviceTier","outputs":[{"internalType":"enum TieredDeviceRegistry.RegistrationTier","name":"","type":"uint8"}],"stateMutability":"view","type":"function"},{"inputs":[{"internalType":"address","name":"_manufacturer","type":"address"}],"name":"getManufacturerKey","outputs":[{"components":[{"internalType":"bytes32","name":"pubkeyX","type":"bytes32"},{"internalType":"bytes32","name":"pubkeyY","type":"bytes32"},{"internalType":"bool","name":"active","type":"bool"},{"internalType":"string","name":"name","type":"string"}],"internalType":"struct TieredDeviceRegistry.ManufacturerKey","name":"","type":"tuple"}],"stateMutability":"view","type":"function"},{"inputs":[{"internalType":"bytes32","name":"_deviceId","type":"bytes32"}],"name":"getReputationScore","outputs":[{"internalType":"uint16","name":"score","type":"uint16"}],"stateMutability":"view","type":"function"},{"inputs":[{"internalType":"bytes32","name":"_deviceId","type":"bytes32"}],"name":"isDeviceActive","outputs":[{"internalType":"bool","name":"","type":"bool"}],"stateMutability":"view","type":"function"},{"inputs":[{"internalType":"address","name":"","type":"address"}],"name":"manufacturerKeys","outputs":[{"internalType":"bytes32","name":"pubkeyX","type":"bytes32"},{"internalType":"bytes32","name":"pubkeyY","type":"bytes32"},{"internalType":"bool","name":"active","type":"bool"},{"internalType":"string","name":"name","type":"string"}],"stateMutability":"view","type":"function"},{"inputs":[],"name":"minimumDeposit","outputs":[{"internalType":"uint256","name":"","type":"uint256"}],"stateMutability":"view","type":"function"},{"inputs":[],"name":"owner","outputs":[{"internalType":"address","name":"","type":"address"}],"stateMutability":"view","type":"function"},{"inputs":[{"internalType":"bytes","name":"_pubkey","type":"bytes"},{"internalType":"bytes","name":"_attestationProof","type":"bytes"}],"name":"registerAttested","outputs":[{"internalType":"bytes32","name":"deviceId","type":"bytes32"}],"stateMutability":"payable","type":"function"},{"inputs":[{"internalType":"bytes","name":"_pubkey","type":"bytes"},{"internalType":"bytes","name":"_attestationProof","type":"bytes"},{"internalType":"address","name":"_manufacturer","type":"address"}],"name":"registerAttestedV2","outputs":[{"internalType":"bytes32","name":"deviceId","type":"bytes32"}],"stateMutability":"payable","type":"function"},{"inputs":[{"internalType":"bytes","name":"_pubkey","type":"bytes"},{"internalType":"bytes","name":"_attestationProof","type":"bytes"},{"internalType":"bytes32","name":"_certificateHash","type":"bytes32"}],"name":"registerAttestedWithCert","outputs":[{"internalType":"bytes32","name":"deviceId","type":"bytes32"}],"stateMutability":"payable","type":"function"},{"inputs":[{"internalType":"bytes","name":"_pubkey","type":"bytes"},{"internalType":"bytes","name":"_attestationProof","type":"bytes"},{"internalType":"bytes32","name":"_certificateHash","type":"bytes32"},{"internalType":"address","name":"_manufacturer","type":"address"}],"name":"registerAttestedWithCertV2","outputs":[{"internalType":"bytes32","name":"deviceId","type":"bytes32"}],"stateMutability":"payable","type":"function"},{"inputs":[{"internalType":"bytes","name":"_pubkey","type":"bytes"}],"name":"registerDevice","outputs":[{"internalType":"bytes32","name":"deviceId","type":"bytes32"}],"stateMutability":"payable","type":"function"},{"inputs":[{"internalType":"bytes","name":"_pubkey","type":"bytes"},{"internalType":"enum TieredDeviceRegistry.RegistrationTier","name":"_tier","type":"uint8"}],"name":"registerTieredDevice","outputs":[{"internalType":"bytes32","name":"deviceId","type":"bytes32"}],"stateMutability":"payable","type":"function"},{"inputs":[],"name":"renounceOwnership","outputs":[],"stateMutability":"nonpayable","type":"function"},{"inputs":[{"internalType":"address","name":"","type":"address"}],"name":"reputationUpdaters","outputs":[{"internalType":"bool","name":"","type":"bool"}],"stateMutability":"view","type":"function"},{"inputs":[{"internalType":"address","name":"_manufacturer","type":"address"}],"name":"revokeManufacturerKey","outputs":[],"stateMutability":"nonpayable","type":"function"},{"inputs":[{"internalType":"address","name":"_manufacturer","type":"address"},{"internalType":"bool","name":"_approved","type":"bool"}],"name":"setApprovedManufacturer","outputs":[],"stateMutability":"nonpayable","type":"function"},{"inputs":[{"internalType":"bytes32","name":"_deviceId","type":"bytes32"},{"internalType":"bytes32","name":"_certHash","type":"bytes32"}],"name":"setAttestationCertHash","outputs":[],"stateMutability":"nonpayable","type":"function"},{"inputs":[{"internalType":"bool","name":"_enforced","type":"bool"}],"name":"setAttestationEnforced","outputs":[],"stateMutability":"nonpayable","type":"function"},{"inputs":[{"internalType":"address","name":"_manufacturer","type":"address"},{"internalType":"bytes32","name":"_pubkeyX","type":"bytes32"},{"internalType":"bytes32","name":"_pubkeyY","type":"bytes32"},{"internalType":"string","name":"_name","type":"string"}],"name":"setManufacturerKey","outputs":[],"stateMutability":"nonpayable","type":"function"},{"inputs":[{"internalType":"uint256","name":"_newMinimum","type":"uint256"}],"name":"setMinimumDeposit","outputs":[],"stateMutability":"nonpayable","type":"function"},{"inputs":[{"internalType":"address","name":"_updater","type":"address"},{"internalType":"bool","name":"_authorized","type":"bool"}],"name":"setReputationUpdater","outputs":[],"stateMutability":"nonpayable","type":"function"},{"inputs":[{"internalType":"enum TieredDeviceRegistry.RegistrationTier","name":"_tier","type":"uint8"},{"components":[{"internalType":"uint256","name":"depositWei","type":"uint256"},{"internalType":"uint16","name":"rewardWeightBps","type":"uint16"},{"internalType":"bool","name":"canClaimBounties","type":"bool"},{"internalType":"bool","name":"canUseSkillOracle","type":"bool"}],"internalType":"struct TieredDeviceRegistry.TierConfig","name":"_config","type":"tuple"}],"name":"setTierConfig","outputs":[],"stateMutability":"nonpayable","type":"function"},{"inputs":[{"internalType":"enum TieredDeviceRegistry.RegistrationTier","name":"","type":"uint8"}],"name":"tierConfigs","outputs":[{"internalType":"uint256","name":"depositWei","type":"uint256"},{"internalType":"uint16","name":"rewardWeightBps","type":"uint16"},{"internalType":"bool","name":"canClaimBounties","type":"bool"},{"internalType":"bool","name":"canUseSkillOracle","type":"bool"}],"stateMutability":"view","type":"function"},{"inputs":[{"internalType":"address","name":"newOwner","type":"address"}],"name":"transferOwnership","outputs":[],"stateMutability":"nonpayable","type":"function"},{"inputs":[{"internalType":"bytes32","name":"_deviceId","type":"bytes32"},{"internalType":"uint32","name":"_addVerified","type":"uint32"},{"internalType":"uint32","name":"_addCorroborations","type":"uint32"},{"internalType":"uint32","name":"_addDisputes","type":"uint32"}],"name":"updateReputation","outputs":[],"stateMutability":"nonpayable","type":"function"},{"inputs":[{"internalType":"bytes32","name":"_deviceId","type":"bytes32"}],"name":"withdrawDeposit","outputs":[],"stateMutability":"nonpayable","type":"function"}],"evm":{"bytecode":{"linkReferences":{},"object":"608034620001eb57601f62002d9c38819003918201601f191683019291906001600160401b03841183851017620001f0578160609284926040968752833981010312620001eb5780519060208381830151920151923315620001d35760008054336001600160a01b0319821681178355919491906001600160a01b03167f8be0079c531659141344cd1fd0a4f28419497f9722a3daafe3b4186f6b6457e08680a360019182805581600255620000b462000206565b90815283810185815287820193868552806060840193818552888052600688528a892090518155019361ffff80935116948054965115159663ff00000097889651151563ffffffff19988962ff00009b8c9360181b169416179160101b16171790556200012062000206565b908152898884848a8501946113888652848101948286528260608301958187525260068d528d20905181550193511687878a86549551151560101b169351151560181b16931617171790556200017562000206565b9788528588019761271089528980820198838a5260066060840199858b5260028352522090518155019651169286549551151560101b169351151560181b169316171717905560ff196009541660095551612b759081620002278239f35b8451631e4fbdf760e01b815260006004820152602490fd5b600080fd5b634e487b7160e01b600052604160045260246000fd5b60405190608082016001600160401b03811183821017620001f05760405256fe608080604052600436101561001357600080fd5b60003560e01c90816307567c7514611f02575080630766e84514611e4157806311e9666c14611dcd5780631f9b019b14611daf5780633050a73d14611d705780633992251314611d4d578063499a4ada14611d0e5780634a5f16e914611a3d578063535bca9a14611a1f5780635404e5d6146119b6578063559e6f92146117be57806359d902ed146115d65780635ec8fe6b146115a257806362949e731461153c578063636bfbab1461151e5780636ca6dbdd14610919578063715018a6146114c5578063739ad43c1461147957806375605920146113b7578063778fcc381461138b578063804ad24914611316578063808b93de1461126c5780638da5cb5b146112435780639165aa5a146111565780639da9db2a146110fb5780639f14f884146110b1578063a4d55d1d14611095578063a8e06bc314610ee6578063abae4c7614610e2f578063ac72ab2914610dda578063ad8dd6fe14610db2578063b01d33b414610d73578063b1fb2d2914610cf5578063ba9c0bb41461094f578063cbc8a10014610919578063ccfc9a121461056e578063d213c0f214610551578063e78ec42e14610530578063ec5760d314610512578063f21755e3146102e2578063f2fde38b146102545763fa5a3690146101ed57600080fd5b3461024f57602036600319011261024f5760043580151580910361024f5760207feb8d54d9aacd518affb4fb6e2831eb4b52d30f62f1d1a24c683eba9314d8a7e6916102376122e5565b60ff196009541660ff821617600955604051908152a1005b600080fd5b3461024f57602036600319011261024f5761026d6120d7565b6102756122e5565b6001600160a01b039081169081156102c957600054826bffffffffffffffffffffffff60a01b821617600055167f8be0079c531659141344cd1fd0a4f28419497f9722a3daafe3b4186f6b6457e0600080a3005b604051631e4fbdf760e01b815260006004820152602490fd5b3461024f57608036600319011261024f576102fb6120d7565b6064356001600160401b03811161024f5761031a90369060040161226d565b916103236122e5565b6040519061033082612143565b602435825260443560208301526001604083015261034f36858561245b565b606083015260018060a01b038116600052600b602052606060036040600020845181556020850151600182015561039b60408601511515600283019060ff801983541691151516179055565b019201519182516001600160401b0381116104fc5785936103c6826103c085546120ed565b856127c0565b602090601f831160011461046b5791807f7fbb07252bfee1097e53f68b5c80c2da64ea778141c7157ad2a2724018b49bcf97949260809694600092610460575b50508160011b916000199060031b1c19161790555b60405193849260243584526044356020850152606060408501528160608501528484013760008287018401526001600160a01b031694601f01601f19168101030190a2005b015190508980610406565b90601f198316918460005260206000209260005b8181106104e15750926001928592608098967f7fbb07252bfee1097e53f68b5c80c2da64ea778141c7157ad2a2724018b49bcf9b9896106104c8575b505050811b01905561041b565b015160001960f88460031b161c191690558980806104bb565b8284015185558a98506001909401936020938401930161047f565b634e487b7160e01b600052604160045260246000fd5b3461024f57600036600319011261024f57602060405162093a808152f35b3461024f57602036600319011261024f576105496122e5565b600435600255005b3461024f57600036600319011261024f5760206040516127108152f35b606036600319011261024f576001600160401b0360043581811161024f5761059a90369060040161226d565b906024803584811161024f576105b490369060040161226d565b6044356001600160a01b03811695929186820361024f576105de926105d761235c565b8487612849565b6002600052602094600686526040600020926040516105fc81612143565b845480825260ff60018097015461ffff81168b850152818160101c161515604085015260181c16151560608301528034106108f357505194604184036108d45783156108bf57803560f81c600481036108a8575061065b36858361245b565b8881519101209586600052600389528360406000205460a01c1661089057803410610873575060008681526003808a52604090912080546001600160e01b0319163367ffffffffffffffff60a01b1916174260a01b67ffffffffffffffff60a01b16178155346002820155908101805460ff19908116881790915594909160048301919085821161085e576106f4826103c085546120ed565b600090601f83116001146107f157600594939291600091836107e6575b5050600019600383901b1c191690881b1790555b01805461ffff60601b191661027160631b1790556005549060001982146107d2575083016005556040519034825242168682015283600080516020612b0083398151915260403393a38260005260078552600260406000209182541617905581600080516020612b2083398151915260408051600281523488820152a260405192827f8f95264b83eb4190666fb9c45cd7e3d284c1906d69f0c2141431f5727f32fbdc600080a380558152f35b634e487b7160e01b60009081526011600452fd5b013590508c80610711565b918b8992959493601f1983168560005282600020926000905b82821061084557505096836005981061082b575b505050811b019055610725565b0135600019600384901b60f8161c191690558c808061081e565b898401358555988901988d96909401939081019061080a565b84634e487b7160e01b60005260416004526000fd5b82604491604051916312e1fa3760e11b8352346004840152820152fd5b60405163054c5de760e51b8152600481018890528390fd5b905060405190637b60931160e11b82526004820152fd5b50634e487b7160e01b60009081526032600452fd5b604051630b40a61b60e21b815260048101859052604181840152604490fd5b60405163b1266c1560e01b81526002600482015234818501526044810191909152606490fd5b3461024f57602036600319011261024f576004356000526007602052602060ff6040600020541661094d604051809261229a565bf35b604036600319011261024f576004356001600160401b03811161024f5761097a90369060040161226d565b906003602435101561024f5761098e61235c565b600260243514610cd5576109a36024356122bd565b604051906109b082612143565b60ff6001825492838552015461ffff81166020850152818160101c161515604085015260181c1615156060830152803410610ca95750519160418103610c8a578015610c7457813560f81c60048103610c5c5750610a0f36828461245b565b60208151910120928360005260036020526001600160401b0360406000205460a01c16610c4357803410610c255750600083815260036020819052604090912080546001600160e01b0319163367ffffffffffffffff60a01b1916174260a01b67ffffffffffffffff60a01b16178155346002820155908101805460ff19166001179055916001600160401b0382116104fc57610abc82610ab360048601546120ed565b600486016127c0565b600090601f8311600114610bb257600593929160009183610ba7575b50508160011b916000199060031b1c19161760048201555b01805461ffff60601b191661027160631b179055600554906000198214610b91576001602092016005556040513481526001600160401b0342168382015281600080516020612b0083398151915260403393a38060005260078252604060002060ff1981541660ff6024351617905580600080516020612b2083398151915260408051610b7f8160243561229a565b3486820152a260018055604051908152f35b634e487b7160e01b600052601160045260246000fd5b013590508580610ad8565b6004840160005260206000209160005b601f1985168110610c0d575091839160019360059695601f19811610610bf3575b505050811b016004820155610af0565b0135600019600384901b60f8161c19169055858080610be3565b90926020600181928686013581550194019101610bc2565b604490604051906312e1fa3760e11b82523460048301526024820152fd5b60405163054c5de760e51b815260048101859052602490fd5b60249060405190637b60931160e11b82526004820152fd5b634e487b7160e01b600052603260045260246000fd5b60449060405190630b40a61b60e21b8252600482015260416024820152fd5b60405163b1266c1560e01b8152606491610cc86004830160243561229a565b3460248301526044820152fd5b604051632cbe1f5360e21b8152602490610cf360048201833561229a565bfd5b3461024f57604036600319011261024f57610d0e6120d7565b7f8867802e9c009cb556bec3f0c9ee7bf9a7924de2d88e08dc737790aebf85cbd16020610d396122d6565b92610d426122e5565b6001600160a01b031660008181526008835260409020805460ff191660ff86151516179055926040519015158152a2005b3461024f57602036600319011261024f576004356000526007602052602061ffff6001610da760ff604060002054166122bd565b015416604051908152f35b3461024f57602036600319011261024f576020610dd0600435612a6f565b6040519015158152f35b3461024f57604036600319011261024f57610e2d610df66120d7565b610dfe6122d6565b90610e076122e5565b60018060a01b0316600052600460205260406000209060ff801983541691151516179055565b005b3461024f5760a036600319011261024f57600435600381101561024f57608036602319011261024f57610e606122e5565b6001610e6b826122bd565b60243581550160443561ffff811680910361024f578154906064359081151580920361024f576084359081151580920361024f5763ff00000062ff00009260181b169363ffffffff1916179160101b16171790557ff5a6835ee28dafeae8407642588af38b5a0382563864e1a26a7e8bde9c704f14600080a2005b3461024f57602036600319011261024f57600435610f0261235c565b80600052600360205260406000209081546001600160401b0392838260a01c161561107c576001600160a01b0391821633810361105d5760ff6003830154166110445760028201805495861561102b5760018401541662093a808101809111610b915780421061100d5750600080878194828095555af1610f8161232c565b5015610fbc577f0c4c5d4c3bcc4e68b960f90448e78b3a2eb8ddbd45fdb5fadb203a1c3c56878b91602091541693604051908152a360018055005b60405162461bcd60e51b815260206004820152602360248201527f44657669636552656769737472793a20455448207472616e73666572206661696044820152621b195960ea1b6064820152608490fd5b8560449160405191636e0e8a7b60e11b835260048301526024820152fd5b60405163a9d21a9d60e01b815260048101879052602490fd5b60405163159c717560e11b815260048101859052602490fd5b604051635a4d198760e01b815260048101859052336024820152604490fd5b60405163e5aab9e560e01b815260048101849052602490fd5b3461024f57600036600319011261024f57602060405160418152f35b3461024f57602036600319011261024f576004356001600160401b03811161024f576110ed6110e6602092369060040161226d565b369161245b565b818151910120604051908152f35b3461024f57602036600319011261024f57600435600381101561024f576111236080916122bd565b60ff6001825492015460405192835261ffff81166020840152818160101c161515604084015260181c1615156060820152f35b608036600319011261024f576001600160401b0360043581811161024f5761118290369060040161226d565b909160243590811161024f5761119c90369060040161226d565b6064356001600160a01b03811693604435929085830361024f576020966111f37f0972a333783544829b3995bdef8f85d08bec1675d526165860a1f345c54a94b8946111f8948a986111ec61235c565b8585612849565b6124c4565b92839283600052600a825280604060002055604051908152a260405191817f8f95264b83eb4190666fb9c45cd7e3d284c1906d69f0c2141431f5727f32fbdc600080a3600180558152f35b3461024f57600036600319011261024f576000546040516001600160a01b039091168152602090f35b606036600319011261024f576001600160401b0360043581811161024f5761129890369060040161226d565b919060243591821161024f577f0972a333783544829b3995bdef8f85d08bec1675d526165860a1f345c54a94b86112f16020946112da8695369060040161226d565b9490506111f3604435956112ec61235c565b612814565b92839283600052600a825280604060002055604051908152a260018055604051908152f35b3461024f57602036600319011261024f576004358060005260036020526040600020906001600160401b03825460a01c16156113735761136f61135b6004840161217f565b604051918291602083526020830190612248565b0390f35b6024906040519063e5aab9e560e01b82526004820152fd5b3461024f57602036600319011261024f57600435600052600a6020526020604060002054604051908152f35b3461024f5760208060031936011261024f576113d16120d7565b6060806040516113e081612143565b6000815260008582015260006040820152015260018060a01b0316600052600b8152604060002061136f6040519161141783612143565b80548352600181015490848401918252611444600360ff600284015416926040870193151584520161217f565b9160608501928352604051958695818752519086015251604085015251151560608401525160808084015260a0830190612248565b3461024f57602036600319011261024f576004358060005260036020526040600020906001600160401b03825460a01c161561137357602061ffff600584015460601c16604051908152f35b3461024f57600036600319011261024f576114de6122e5565b600080546001600160a01b0319811682556001600160a01b03167f8be0079c531659141344cd1fd0a4f28419497f9722a3daafe3b4186f6b6457e08280a3005b3461024f57600036600319011261024f576020600254604051908152f35b604036600319011261024f576001600160401b0360043581811161024f5761156890369060040161226d565b60249291923591821161024f576020926111f361158c61159694369060040161226d565b90506112ec61235c565b60018055604051908152f35b3461024f57602036600319011261024f576004356000526003602052602060ff600360406000200154166040519015158152f35b3461024f57602036600319011261024f5760006101206040516115f881612127565b828152826020820152826040820152826060820152826080820152606060a08201528260c08201528260e08201528261010082015201526004356000526003602052604060002061ffff60056040519261165184612127565b80546001600160a01b038116855260a01c6001600160401b039081166020860152600182015416604085015260028101546060850152600381015460ff16151560808501526116a26004820161217f565b60a0850152015463ffffffff811660c084015263ffffffff8160201c1660e084015263ffffffff8160401c1661010084015260601c166101208201526001600160401b03602082015116156117a55760405180916020825260018060a01b0381511660208301526001600160401b0360208201511660408301526001600160401b036040820151166060830152606081015160808301526080810151151560a083015260a081015161ffff610120611768610140938460c0880152610160870190612248565b9363ffffffff60c08201511660e087015263ffffffff60e08201511661010087015263ffffffff6101008201511682870152015116908301520390f35b602460405163e5aab9e560e01b81526004356004820152fd5b3461024f57604036600319011261024f576004356024356040516359d902ed60e01b8152826004820152600081602481305afa9081156119aa5760009161186c575b50516001600160a01b0316330361184d5760207f0972a333783544829b3995bdef8f85d08bec1675d526165860a1f345c54a94b89183600052600a825280604060002055604051908152a2005b60405163116891d760e01b815260048101839052336024820152604490fd5b90503d806000833e61187e818361215e565b8101602090818382031261024f5782516001600160401b039384821161024f5701916101408383031261024f57604051936118b885612127565b83516001600160a01b038116810361024f5785526118d7828501612492565b828601526118e760408501612492565b604086015260608401516060860152611902608085016124a6565b608086015260a084015190811161024f57830182601f8201121561024f5780519061192c82612311565b9361193a604051958661215e565b82855283838301011161024f57826119559385019101612225565b60a083015261196660c082016124b3565b60c083015261197760e082016124b3565b60e083015261010061198a8183016124b3565b90830152610120809101519061ffff8216820361024f5782015283611800565b6040513d6000823e3d90fd5b3461024f57602036600319011261024f576119cf6120d7565b6119d76122e5565b6001600160a01b03166000818152600b60205260408120600201805460ff191690557f45ddaee004eeadcc58baf7a4d7e16ffea4cf308cc7278ea7164020224286391a9080a2005b3461024f57600036600319011261024f576020600554604051908152f35b60208060031936011261024f576001600160401b0360043581811161024f57611a6a90369060040161226d565b611a7592919261235c565b6001918260005260068552604060002060405190611a9282612143565b60ff85825492838552015461ffff811689850152818160101c161515604085015260181c1615156060830152803410611cea5750519360418303611cca578215610c7457803560f81c60048103610c5c5750611aef36848361245b565b8681519101209485600052600387528260406000205460a01c16611cb157803410610c25575060008581526003808852604090912080546001600160e01b0319163367ffffffffffffffff60a01b1916174260a01b67ffffffffffffffff60a01b16178155346002820155908101805460ff1990811687179091559390916004830191908482116104fc57611b88826103c085546120ed565b600090601f8311600114611c475760059493929160009183611c3c575b5050600019600383901b1c191690871b1790555b01805461ffff60601b191661027160631b1790556005546000198114610b915783016005556040519034825242168582015283600080516020612b0083398151915260403393a382600052600784528160406000209182541617905581600080516020612b20833981519152604080518481523487820152a28055604051908152f35b013590508a80611ba5565b918791949392601f19821690846000528b6000209160005b8d828210611c9b575050968360059810611c81575b505050811b019055611bb9565b0135600019600384901b60f8161c191690558a8080611c74565b838a01358555988901988c969094019301611c5f565b60405163054c5de760e51b815260048101879052602490fd5b604051630b40a61b60e21b81526004810184905260416024820152604490fd5b846064916040519163b1266c1560e01b835260048301523460248301526044820152fd5b3461024f57602036600319011261024f576001600160a01b03611d2f6120d7565b166000526008602052602060ff604060002054166040519015158152f35b3461024f57600036600319011261024f57602060ff600954166040519015158152f35b3461024f57602036600319011261024f576001600160a01b03611d916120d7565b166000526004602052602060ff604060002054166040519015158152f35b3461024f57602036600319011261024f576020610dd06004356129d9565b3461024f57602036600319011261024f576001600160a01b03611dee6120d7565b16600052600b6020526040600020805461136f600183015492611e1b600360ff600284015416920161217f565b906040519485948552602085015215156040840152608060608401526080830190612248565b3461024f57602036600319011261024f5760043580600052600360205260406000209081546001600160401b0390818160a01c161561107c57600384019081549060ff821615611ee957336001600160a01b039091160361105d57906001929160ff1916905542169201826001600160401b03198254161790556040519182527f19a0c1f77bd7e2409f74ab3d9f512e7655a3b9b413b21828e6864684a1ce5f1f60203393a3005b60405163159c717560e11b815260048101869052602490fd5b3461024f57608036600319011261024f576004359063ffffffff90602435828116810361024f5760443591838316830361024f57606435848116810361024f57336000526020916004835260ff6040600020541615806120c2575b6120ad5750856000526003825260406000206001600160401b03815460a01c161561209457948093819360a096936bffffffff000000000000000061200e67ffffffff00000000611ff087611fdb60057fc0af51c21917d3ec881a16c91e89b23e795ada618d453130b1986c332a6083ab9f019889549d8e1661237f565b169863ffffffff198c168a17871c891661237f565b851b169267ffffffffffffffff198a168817841760401c871661237f565b60401b1680866bffffffffffffffffffffffff198a161783171761204361ffff60601b9187808260401c1691871c1689612397565b60601b1691866dffffffffffffffffffffffffffff198a161717171793848093556040519661ffff809160601c1688528360601c168288015260408701521c16606084015260401c166080820152a2005b60405163e5aab9e560e01b815260048101889052602490fd5b6318856b8760e11b8152336004820152602490fd5b506000546001600160a01b0316331415611f5d565b600435906001600160a01b038216820361024f57565b90600182811c9216801561211d575b602083101461210757565b634e487b7160e01b600052602260045260246000fd5b91607f16916120fc565b61014081019081106001600160401b038211176104fc57604052565b608081019081106001600160401b038211176104fc57604052565b90601f801991011681019081106001600160401b038211176104fc57604052565b9060405191826000825492612193846120ed565b90818452600194858116908160001461220257506001146121bf575b50506121bd9250038361215e565b565b9093915060005260209081600020936000915b8183106121ea5750506121bd935082010138806121af565b855488840185015294850194879450918301916121d2565b9150506121bd94506020925060ff191682840152151560051b82010138806121af565b60005b8381106122385750506000910152565b8181015183820152602001612228565b9060209161226181518092818552858086019101612225565b601f01601f1916010190565b9181601f8401121561024f578235916001600160401b03831161024f576020838186019501011161024f57565b9060038210156122a75752565b634e487b7160e01b600052602160045260246000fd5b60038110156122a7576000526006602052604060002090565b60243590811515820361024f57565b6000546001600160a01b031633036122f957565b60405163118cdaa760e01b8152336004820152602490fd5b6001600160401b0381116104fc57601f01601f191660200190565b3d15612357573d9061233d82612311565b9161234b604051938461215e565b82523d6000602084013e565b606090565b60026001541461236d576002600155565b604051633ee5aeb560e01b8152600490fd5b91909163ffffffff80809416911601918211610b9157565b61271092919063ffffffff90811684811115612455575083925b6401fffffffe8284169360011b169280840460021490151715610b91571690600a820291808304600a1490151715610b91578201809211610b91578181101561244d5780820391808311610b9157828402911482820484141715610b91576103e88201809211610b9157811561243757048181111561242e575090565b61ffff91501690565b634e487b7160e01b600052601260045260246000fd5b505050600090565b926123b1565b92919261246782612311565b91612475604051938461215e565b82948184528183011161024f578281602093846000960137010152565b51906001600160401b038216820361024f57565b5190811515820361024f57565b519063ffffffff8216820361024f57565b9091600091600283526020600681526040908185209582516124e581612143565b875480825260ff6001809a015461ffff811686850152818160101c1615158785015260181c161515606083015280341061279c5750516041820361277d57811561276957600497853560f81c6003198101612753575061254636848861245b565b84815191012095868952600385526001600160401b039283878b205460a01c1661273c5780341061271e57508689526003808652868a2080546001600160e01b0319163367ffffffffffffffff60a01b1916174260a01b67ffffffffffffffff60a01b16178155346002820155908101805460ff199081168517909155948b82019085811161270b576125e3816125dd84546120ed565b846127c0565b8b938c601f83116001146126a95760059590918361269e575b5050600019600383901b1c191690851b1790555b01805461ffff60601b191661027160631b179055600554600019811461268b57600080516020612b2083398151915296979899500160055583519034825242168382015285600080516020612b00833981519152853393a36002838698878152600785522091825416179055815190600282523490820152a2565b634e487b7160e01b895260118a52602489fd5b0135905038806125fc565b869291601f1983168583528b8320925b8c8282106126f55750509683600598106126db575b505050811b019055612610565b0135600019600384901b60f8161c191690553880806126ce565b838a01358555988901988a9690940193016126b9565b634e487b7160e01b8c5260418d5260248cfd5b86516312e1fa3760e11b815234818d01526024810191909152604490fd5b865163054c5de760e51b8152808c01899052602490fd5b89602491875191637b60931160e11b8352820152fd5b634e487b7160e01b87526032600452602487fd5b8351630b40a61b60e21b81526004810183905260416024820152604490fd5b60649085519063b1266c1560e01b8252600260048301523460248301526044820152fd5b90601f81116127ce57505050565b600091825260208220906020601f850160051c8301941061280a575b601f0160051c01915b8281106127ff57505050565b8181556001016127f3565b90925082906127ea565b6040036128385760ff60095416156121bd57604051633554a14560e11b8152600490fd5b604051621687c960eb1b8152600490fd5b90919392936040938486036129c95760ff60095416156129c15760018060a01b031690600093828552602093600b85528686209187519461288986612143565b835486526001840154938787019485526128b5600360ff600284015416928c8a0193151584520161217f565b6060880152865115806129b8575b6129a057511561298957506080888896946128e588979561291b95369161245b565b8981519101209b8c96519151908084519788958d87019a8b528601378301918c830152606082015203606081018452018261215e565b51906101005afa9161292b61232c565b908361297c575b8361295b575b50505015612944575050565b60249250519063049c696d60e31b82526004820152fd5b90918093508280518101031261297957500151600114388080612938565b80fd5b9250818151101592612932565b6024908951906302f40cb160e61b82526004820152fd5b89516356dbe44b60e01b815260048101839052602490fd5b508451156128c3565b505050505050565b8451621687c960eb1b8152600490fd5b604051635ec8fe6b60e01b815260048101829052602081602481305afa9081156119aa57600091612a36575b5015612a3057600052600760205260ff6001612a2782604060002054166122bd565b015460101c1690565b50600090565b906020823d8211612a67575b81612a4f6020938361215e565b810103126129795750612a61906124a6565b38612a05565b3d9150612a42565b604051635ec8fe6b60e01b815260048101829052602081602481305afa9081156119aa57600091612ac6575b5015612a3057600052600760205260ff6001612abd82604060002054166122bd565b015460181c1690565b906020823d8211612af7575b81612adf6020938361215e565b810103126129795750612af1906124a6565b38612a9b565b3d9150612ad256fed12213ea6e64a238716c781b0705a90db6b6253451f8266f8fecc0bdff9e327870879634d2661015cf75202474774ba643ba7e53b681573ae7b400e3c12f09d2a26469706673582212204861f54fcf0df0c6b656d2c1378120e7c05377346d197a20713ed2d612bb917664736f6c63430008140033","opcodes":"PUSH1 0x80 CALLVALUE PUSH3 0x1EB JUMPI PUSH1 0x1F PUSH3 0x2D9C CODESIZE DUP2 SWAP1 SUB SWAP2 DUP3 ADD PUSH1 0x1F NOT AND DUP4 ADD SWAP3 SWAP2 SWAP1 PUSH1 0x1 PUSH1 0x1 PUSH1 0x40 SHL SUB DUP5 GT DUP4 DUP6 LT OR PUSH3 0x1F0 JUMPI DUP2 PUSH1 0x60 SWAP3 DUP5 SWAP3 PUSH1 0x40 SWAP7 DUP8 MSTORE DUP4 CODECOPY DUP2 ADD SUB SLT PUSH3 0x1EB JUMPI DUP1 MLOAD SWAP1 PUSH1 0x20 DUP4 DUP2 DUP4 ADD MLOAD SWAP3 ADD MLOAD SWAP3 CALLER ISZERO PUSH3 0x1D3 JUMPI PUSH1 0x0 DUP1 SLOAD CALLER PUSH1 0x1 PUSH1 0x1 PUSH1 0xA0 SHL SUB NOT DUP3 AND DUP2 OR DUP4 SSTORE SWAP2 SWAP5 SWAP2 SWAP1 PUSH1 0x1 PUSH1 0x1 PUSH1 0xA0 SHL SUB AND PUSH32 0x8BE0079C531659141344CD1FD0A4F28419497F9722A3DAAFE3B4186F6B6457E0 DUP7 DUP1 LOG3 PUSH1 0x1 SWAP2 DUP3 DUP1 SSTORE DUP2 PUSH1 0x2 SSTORE PUSH3 0xB4 PUSH3 0x206 JUMP JUMPDEST SWAP1 DUP2 MSTORE DUP4 DUP2 ADD DUP6 DUP2 MSTORE DUP8 DUP3 ADD SWAP4 DUP7 DUP6 MSTORE DUP1 PUSH1 0x60 DUP5 ADD SWAP4 DUP2 DUP6 MSTORE DUP9 DUP1 MSTORE PUSH1 0x6 DUP9 MSTORE DUP11 DUP10 KECCAK256 SWAP1 MLOAD DUP2 SSTORE ADD SWAP4 PUSH2 0xFFFF DUP1 SWAP4 MLOAD AND SWAP5 DUP1 SLOAD SWAP7 MLOAD ISZERO ISZERO SWAP7 PUSH4 0xFF000000 SWAP8 DUP9 SWAP7 MLOAD ISZERO ISZERO PUSH4 0xFFFFFFFF NOT SWAP9 DUP10 PUSH3 0xFF0000 SWAP12 DUP13 SWAP4 PUSH1 0x18 SHL AND SWAP5 AND OR SWAP2 PUSH1 0x10 SHL AND OR OR SWAP1 SSTORE PUSH3 0x120 PUSH3 0x206 JUMP JUMPDEST SWAP1 DUP2 MSTORE DUP10 DUP9 DUP5 DUP5 DUP11 DUP6 ADD SWAP5 PUSH2 0x1388 DUP7 MSTORE DUP5 DUP2 ADD SWAP5 DUP3 DUP7 MSTORE DUP3 PUSH1 0x60 DUP4 ADD SWAP6 DUP2 DUP8 MSTORE MSTORE PUSH1 0x6 DUP14 MSTORE DUP14 KECCAK256 SWAP1 MLOAD DUP2 SSTORE ADD SWAP4 MLOAD AND DUP8 DUP8 DUP11 DUP7 SLOAD SWAP6 MLOAD ISZERO ISZERO PUSH1 0x10 SHL AND SWAP4 MLOAD ISZERO ISZERO PUSH1 0x18 SHL AND SWAP4 AND OR OR OR SWAP1 SSTORE PUSH3 0x175 PUSH3 0x206 JUMP JUMPDEST SWAP8 DUP9 MSTORE DUP6 DUP9 ADD SWAP8 PUSH2 0x2710 DUP10 MSTORE DUP10 DUP1 DUP3 ADD SWAP9 DUP4 DUP11 MSTORE PUSH1 0x6 PUSH1 0x60 DUP5 ADD SWAP10 DUP6 DUP12 MSTORE PUSH1 0x2 DUP4 MSTORE MSTORE KECCAK256 SWAP1 MLOAD DUP2 SSTORE ADD SWAP7 MLOAD AND SWAP3 DUP7 SLOAD SWAP6 MLOAD ISZERO ISZERO PUSH1 0x10 SHL AND SWAP4 MLOAD ISZERO ISZERO PUSH1 0x18 SHL AND SWAP4 AND OR OR OR SWAP1 SSTORE PUSH1 0xFF NOT PUSH1 0x9 SLOAD AND PUSH1 0x9 SSTORE MLOAD PUSH2 0x2B75 SWAP1 DUP2 PUSH3 0x227 DUP3 CODECOPY RETURN JUMPDEST DUP5 MLOAD PUSH4 0x1E4FBDF7 PUSH1 0xE0 SHL DUP2 MSTORE PUSH1 0x0 PUSH1 0x4 DUP3 ADD MSTORE PUSH1 0x24 SWAP1 REVERT JUMPDEST PUSH1 0x0 DUP1 REVERT JUMPDEST PUSH4 0x4E487B71 PUSH1 0xE0 SHL PUSH1 0x0 MSTORE PUSH1 0x41 PUSH1 0x4 MSTORE PUSH1 0x24 PUSH1 0x0 REVERT JUMPDEST PUSH1 0x40 MLOAD SWAP1 PUSH1 0x80 DUP3 ADD PUSH1 0x1 PUSH1 0x1 PUSH1 0x40 SHL SUB DUP2 GT DUP4 DUP3 LT OR PUSH3 0x1F0 JUMPI PUSH1 0x40 MSTORE JUMP INVALID PUSH1 0x80 DUP1 PUSH1 0x40 MSTORE PUSH1 0x4 CALLDATASIZE LT ISZERO PUSH2 0x13 JUMPI PUSH1 0x0 DUP1 REVERT JUMPDEST PUSH1 0x0 CALLDATALOAD PUSH1 0xE0 SHR SWAP1 DUP2 PUSH4 0x7567C75 EQ PUSH2 0x1F02 JUMPI POP DUP1 PUSH4 0x766E845 EQ PUSH2 0x1E41 JUMPI DUP1 PUSH4 0x11E9666C EQ PUSH2 0x1DCD JUMPI DUP1 PUSH4 0x1F9B019B EQ PUSH2 0x1DAF JUMPI DUP1 PUSH4 0x3050A73D EQ PUSH2 0x1D70 JUMPI DUP1 PUSH4 0x39922513 EQ PUSH2 0x1D4D JUMPI DUP1 PUSH4 0x499A4ADA EQ PUSH2 0x1D0E JUMPI DUP1 PUSH4 0x4A5F16E9 EQ PUSH2 0x1A3D JUMPI DUP1 PUSH4 0x535BCA9A EQ PUSH2 0x1A1F JUMPI DUP1 PUSH4 0x5404E5D6 EQ PUSH2 0x19B6 JUMPI DUP1 PUSH4 0x559E6F92 EQ PUSH2 0x17BE JUMPI DUP1 PUSH4 0x59D902ED EQ PUSH2 0x15D6 JUMPI DUP1 PUSH4 0x5EC8FE6B EQ PUSH2 0x15A2 JUMPI DUP1 PUSH4 0x62949E73 EQ PUSH2 0x153C JUMPI DUP1 PUSH4 0x636BFBAB EQ PUSH2 0x151E JUMPI DUP1 PUSH4 0x6CA6DBDD EQ PUSH2 0x919 JUMPI DUP1 PUSH4 0x715018A6 EQ PUSH2 0x14C5 JUMPI DUP1 PUSH4 0x739AD43C EQ PUSH2 0x1479 JUMPI DUP1 PUSH4 0x75605920 EQ PUSH2 0x13B7 JUMPI DUP1 PUSH4 0x778FCC38 EQ PUSH2 0x138B JUMPI DUP1 PUSH4 0x804AD249 EQ PUSH2 0x1316 JUMPI DUP1 PUSH4 0x808B93DE EQ PUSH2 0x126C JUMPI DUP1 PUSH4 0x8DA5CB5B EQ PUSH2 0x1243 JUMPI DUP1 PUSH4 0x9165AA5A EQ PUSH2 0x1156 JUMPI DUP1 PUSH4 0x9DA9DB2A EQ PUSH2 0x10FB JUMPI DUP1 PUSH4 0x9F14F884 EQ PUSH2 0x10B1 JUMPI DUP1 PUSH4 0xA4D55D1D EQ PUSH2 0x1095 JUMPI DUP1 PUSH4 0xA8E06BC3 EQ PUSH2 0xEE6 JUMPI DUP1 PUSH4 0xABAE4C76 EQ PUSH2 0xE2F JUMPI DUP1 PUSH4 0xAC72AB29 EQ PUSH2 0xDDA JUMPI DUP1 PUSH4 0xAD8DD6FE EQ PUSH2 0xDB2 JUMPI DUP1 PUSH4 0xB01D33B4 EQ PUSH2 0xD73 JUMPI DUP1 PUSH4 0xB1FB2D29 EQ PUSH2 0xCF5 JUMPI DUP1 PUSH4 0xBA9C0BB4 EQ PUSH2 0x94F JUMPI DUP1 PUSH4 0xCBC8A100 EQ PUSH2 0x919 JUMPI DUP1 PUSH4 0xCCFC9A12 EQ PUSH2 0x56E JUMPI DUP1 PUSH4 0xD213C0F2 EQ PUSH2 0x551 JUMPI DUP1 PUSH4 0xE78EC42E EQ PUSH2 0x530 JUMPI DUP1 PUSH4 0xEC5760D3 EQ PUSH2 0x512 JUMPI DUP1 PUSH4 0xF21755E3 EQ PUSH2 0x2E2 JUMPI DUP1 PUSH4 0xF2FDE38B EQ PUSH2 0x254 JUMPI PUSH4 0xFA5A3690 EQ PUSH2 0x1ED JUMPI PUSH1 0x0 DUP1 REVERT JUMPDEST CALLVALUE PUSH2 0x24F JUMPI PUSH1 0x20 CALLDATASIZE PUSH1 0x3 NOT ADD SLT PUSH2 0x24F JUMPI PUSH1 0x4 CALLDATALOAD DUP1 ISZERO ISZERO DUP1 SWAP2 SUB PUSH2 0x24F JUMPI PUSH1 0x20 PUSH32 0xEB8D54D9AACD518AFFB4FB6E2831EB4B52D30F62F1D1A24C683EBA9314D8A7E6 SWAP2 PUSH2 0x237 PUSH2 0x22E5 JUMP JUMPDEST PUSH1 0xFF NOT PUSH1 0x9 SLOAD AND PUSH1 0xFF DUP3 AND OR PUSH1 0x9 SSTORE PUSH1 0x40 MLOAD SWAP1 DUP2 MSTORE LOG1 STOP JUMPDEST PUSH1 0x0 DUP1 REVERT JUMPDEST CALLVALUE PUSH2 0x24F JUMPI PUSH1 0x20 CALLDATASIZE PUSH1 0x3 NOT ADD SLT PUSH2 0x24F JUMPI PUSH2 0x26D PUSH2 0x20D7 JUMP JUMPDEST PUSH2 0x275 PUSH2 0x22E5 JUMP JUMPDEST PUSH1 0x1 PUSH1 0x1 PUSH1 0xA0 SHL SUB SWAP1 DUP2 AND SWAP1 DUP2 ISZERO PUSH2 0x2C9 JUMPI PUSH1 0x0 SLOAD DUP3 PUSH12 0xFFFFFFFFFFFFFFFFFFFFFFFF PUSH1 0xA0 SHL DUP3 AND OR PUSH1 0x0 SSTORE AND PUSH32 0x8BE0079C531659141344CD1FD0A4F28419497F9722A3DAAFE3B4186F6B6457E0 PUSH1 0x0 DUP1 LOG3 STOP JUMPDEST PUSH1 0x40 MLOAD PUSH4 0x1E4FBDF7 PUSH1 0xE0 SHL DUP2 MSTORE PUSH1 0x0 PUSH1 0x4 DUP3 ADD MSTORE PUSH1 0x24 SWAP1 REVERT JUMPDEST CALLVALUE PUSH2 0x24F JUMPI PUSH1 0x80 CALLDATASIZE PUSH1 0x3 NOT ADD SLT PUSH2 0x24F JUMPI PUSH2 0x2FB PUSH2 0x20D7 JUMP JUMPDEST PUSH1 0x64 CALLDATALOAD PUSH1 0x1 PUSH1 0x1 PUSH1 0x40 SHL SUB DUP2 GT PUSH2 0x24F JUMPI PUSH2 0x31A SWAP1 CALLDATASIZE SWAP1 PUSH1 0x4 ADD PUSH2 0x226D JUMP JUMPDEST SWAP2 PUSH2 0x323 PUSH2 0x22E5 JUMP JUMPDEST PUSH1 0x40 MLOAD SWAP1 PUSH2 0x330 DUP3 PUSH2 0x2143 JUMP JUMPDEST PUSH1 0x24 CALLDATALOAD DUP3 MSTORE PUSH1 0x44 CALLDATALOAD PUSH1 0x20 DUP4 ADD MSTORE PUSH1 0x1 PUSH1 0x40 DUP4 ADD MSTORE PUSH2 0x34F CALLDATASIZE DUP6 DUP6 PUSH2 0x245B JUMP JUMPDEST PUSH1 0x60 DUP4 ADD MSTORE PUSH1 0x1 DUP1 PUSH1 0xA0 SHL SUB DUP2 AND PUSH1 0x0 MSTORE PUSH1 0xB PUSH1 0x20 MSTORE PUSH1 0x60 PUSH1 0x3 PUSH1 0x40 PUSH1 0x0 KECCAK256 DUP5 MLOAD DUP2 SSTORE PUSH1 0x20 DUP6 ADD MLOAD PUSH1 0x1 DUP3 ADD SSTORE PUSH2 0x39B PUSH1 0x40 DUP7 ADD MLOAD ISZERO ISZERO PUSH1 0x2 DUP4 ADD SWAP1 PUSH1 0xFF DUP1 NOT DUP4 SLOAD AND SWAP2 ISZERO ISZERO AND OR SWAP1 SSTORE JUMP JUMPDEST ADD SWAP3 ADD MLOAD SWAP2 DUP3 MLOAD PUSH1 0x1 PUSH1 0x1 PUSH1 0x40 SHL SUB DUP2 GT PUSH2 0x4FC JUMPI DUP6 SWAP4 PUSH2 0x3C6 DUP3 PUSH2 0x3C0 DUP6 SLOAD PUSH2 0x20ED JUMP JUMPDEST DUP6 PUSH2 0x27C0 JUMP JUMPDEST PUSH1 0x20 SWAP1 PUSH1 0x1F DUP4 GT PUSH1 0x1 EQ PUSH2 0x46B JUMPI SWAP2 DUP1 PUSH32 0x7FBB07252BFEE1097E53F68B5C80C2DA64EA778141C7157AD2A2724018B49BCF SWAP8 SWAP5 SWAP3 PUSH1 0x80 SWAP7 SWAP5 PUSH1 0x0 SWAP3 PUSH2 0x460 JUMPI JUMPDEST POP POP DUP2 PUSH1 0x1 SHL SWAP2 PUSH1 0x0 NOT SWAP1 PUSH1 0x3 SHL SHR NOT AND OR SWAP1 SSTORE JUMPDEST PUSH1 0x40 MLOAD SWAP4 DUP5 SWAP3 PUSH1 0x24 CALLDATALOAD DUP5 MSTORE PUSH1 0x44 CALLDATALOAD PUSH1 0x20 DUP6 ADD MSTORE PUSH1 0x60 PUSH1 0x40 DUP6 ADD MSTORE DUP2 PUSH1 0x60 DUP6 ADD MSTORE DUP5 DUP5 ADD CALLDATACOPY PUSH1 0x0 DUP3 DUP8 ADD DUP5 ADD MSTORE PUSH1 0x1 PUSH1 0x1 PUSH1 0xA0 SHL SUB AND SWAP5 PUSH1 0x1F ADD PUSH1 0x1F NOT AND DUP2 ADD SUB ADD SWAP1 LOG2 STOP JUMPDEST ADD MLOAD SWAP1 POP DUP10 DUP1 PUSH2 0x406 JUMP JUMPDEST SWAP1 PUSH1 0x1F NOT DUP4 AND SWAP2 DUP5 PUSH1 0x0 MSTORE PUSH1 0x20 PUSH1 0x0 KECCAK256 SWAP3 PUSH1 0x0 JUMPDEST DUP2 DUP2 LT PUSH2 0x4E1 JUMPI POP SWAP3 PUSH1 0x1 SWAP3 DUP6 SWAP3 PUSH1 0x80 SWAP9 SWAP7 PUSH32 0x7FBB07252BFEE1097E53F68B5C80C2DA64EA778141C7157AD2A2724018B49BCF SWAP12 SWAP9 SWAP7 LT PUSH2 0x4C8 JUMPI JUMPDEST POP POP POP DUP2 SHL ADD SWAP1 SSTORE PUSH2 0x41B JUMP JUMPDEST ADD MLOAD PUSH1 0x0 NOT PUSH1 0xF8 DUP5 PUSH1 0x3 SHL AND SHR NOT AND SWAP1 SSTORE DUP10 DUP1 DUP1 PUSH2 0x4BB JUMP JUMPDEST DUP3 DUP5 ADD MLOAD DUP6 SSTORE DUP11 SWAP9 POP PUSH1 0x1 SWAP1 SWAP5 ADD SWAP4 PUSH1 0x20 SWAP4 DUP5 ADD SWAP4 ADD PUSH2 0x47F JUMP JUMPDEST PUSH4 0x4E487B71 PUSH1 0xE0 SHL PUSH1 0x0 MSTORE PUSH1 0x41 PUSH1 0x4 MSTORE PUSH1 0x24 PUSH1 0x0 REVERT JUMPDEST CALLVALUE PUSH2 0x24F JUMPI PUSH1 0x0 CALLDATASIZE PUSH1 0x3 NOT ADD SLT PUSH2 0x24F JUMPI PUSH1 0x20 PUSH1 0x40 MLOAD PUSH3 0x93A80 DUP2 MSTORE RETURN JUMPDEST CALLVALUE PUSH2 0x24F JUMPI PUSH1 0x20 CALLDATASIZE PUSH1 0x3 NOT ADD SLT PUSH2 0x24F JUMPI PUSH2 0x549 PUSH2 0x22E5 JUMP JUMPDEST PUSH1 0x4 CALLDATALOAD PUSH1 0x2 SSTORE STOP JUMPDEST CALLVALUE PUSH2 0x24F JUMPI PUSH1 0x0 CALLDATASIZE PUSH1 0x3 NOT ADD SLT PUSH2 0x24F JUMPI PUSH1 0x20 PUSH1 0x40 MLOAD PUSH2 0x2710 DUP2 MSTORE RETURN JUMPDEST PUSH1 0x60 CALLDATASIZE PUSH1 0x3 NOT ADD SLT PUSH2 0x24F JUMPI PUSH1 0x1 PUSH1 0x1 PUSH1 0x40 SHL SUB PUSH1 0x4 CALLDATALOAD DUP2 DUP2 GT PUSH2 0x24F JUMPI PUSH2 0x59A SWAP1 CALLDATASIZE SWAP1 PUSH1 0x4 ADD PUSH2 0x226D JUMP JUMPDEST SWAP1 PUSH1 0x24 DUP1 CALLDATALOAD DUP5 DUP2 GT PUSH2 0x24F JUMPI PUSH2 0x5B4 SWAP1 CALLDATASIZE SWAP1 PUSH1 0x4 ADD PUSH2 0x226D JUMP JUMPDEST PUSH1 0x44 CALLDATALOAD PUSH1 0x1 PUSH1 0x1 PUSH1 0xA0 SHL SUB DUP2 AND SWAP6 SWAP3 SWAP2 DUP7 DUP3 SUB PUSH2 0x24F JUMPI PUSH2 0x5DE SWAP3 PUSH2 0x5D7 PUSH2 0x235C JUMP JUMPDEST DUP5 DUP8 PUSH2 0x2849 JUMP JUMPDEST PUSH1 0x2 PUSH1 0x0 MSTORE PUSH1 0x20 SWAP5 PUSH1 0x6 DUP7 MSTORE PUSH1 0x40 PUSH1 0x0 KECCAK256 SWAP3 PUSH1 0x40 MLOAD PUSH2 0x5FC DUP2 PUSH2 0x2143 JUMP JUMPDEST DUP5 SLOAD DUP1 DUP3 MSTORE PUSH1 0xFF PUSH1 0x1 DUP1 SWAP8 ADD SLOAD PUSH2 0xFFFF DUP2 AND DUP12 DUP6 ADD MSTORE DUP2 DUP2 PUSH1 0x10 SHR AND ISZERO ISZERO PUSH1 0x40 DUP6 ADD MSTORE PUSH1 0x18 SHR AND ISZERO ISZERO PUSH1 0x60 DUP4 ADD MSTORE DUP1 CALLVALUE LT PUSH2 0x8F3 JUMPI POP MLOAD SWAP5 PUSH1 0x41 DUP5 SUB PUSH2 0x8D4 JUMPI DUP4 ISZERO PUSH2 0x8BF JUMPI DUP1 CALLDATALOAD PUSH1 0xF8 SHR PUSH1 0x4 DUP2 SUB PUSH2 0x8A8 JUMPI POP PUSH2 0x65B CALLDATASIZE DUP6 DUP4 PUSH2 0x245B JUMP JUMPDEST DUP9 DUP2 MLOAD SWAP2 ADD KECCAK256 SWAP6 DUP7 PUSH1 0x0 MSTORE PUSH1 0x3 DUP10 MSTORE DUP4 PUSH1 0x40 PUSH1 0x0 KECCAK256 SLOAD PUSH1 0xA0 SHR AND PUSH2 0x890 JUMPI DUP1 CALLVALUE LT PUSH2 0x873 JUMPI POP PUSH1 0x0 DUP7 DUP2 MSTORE PUSH1 0x3 DUP1 DUP11 MSTORE PUSH1 0x40 SWAP1 SWAP2 KECCAK256 DUP1 SLOAD PUSH1 0x1 PUSH1 0x1 PUSH1 0xE0 SHL SUB NOT AND CALLER PUSH8 0xFFFFFFFFFFFFFFFF PUSH1 0xA0 SHL NOT AND OR TIMESTAMP PUSH1 0xA0 SHL PUSH8 0xFFFFFFFFFFFFFFFF PUSH1 0xA0 SHL AND OR DUP2 SSTORE CALLVALUE PUSH1 0x2 DUP3 ADD SSTORE SWAP1 DUP2 ADD DUP1 SLOAD PUSH1 0xFF NOT SWAP1 DUP2 AND DUP9 OR SWAP1 SWAP2 SSTORE SWAP5 SWAP1 SWAP2 PUSH1 0x4 DUP4 ADD SWAP2 SWAP1 DUP6 DUP3 GT PUSH2 0x85E JUMPI PUSH2 0x6F4 DUP3 PUSH2 0x3C0 DUP6 SLOAD PUSH2 0x20ED JUMP JUMPDEST PUSH1 0x0 SWAP1 PUSH1 0x1F DUP4 GT PUSH1 0x1 EQ PUSH2 0x7F1 JUMPI PUSH1 0x5 SWAP5 SWAP4 SWAP3 SWAP2 PUSH1 0x0 SWAP2 DUP4 PUSH2 0x7E6 JUMPI JUMPDEST POP POP PUSH1 0x0 NOT PUSH1 0x3 DUP4 SWAP1 SHL SHR NOT AND SWAP1 DUP9 SHL OR SWAP1 SSTORE JUMPDEST ADD DUP1 SLOAD PUSH2 0xFFFF PUSH1 0x60 SHL NOT AND PUSH2 0x271 PUSH1 0x63 SHL OR SWAP1 SSTORE PUSH1 0x5 SLOAD SWAP1 PUSH1 0x0 NOT DUP3 EQ PUSH2 0x7D2 JUMPI POP DUP4 ADD PUSH1 0x5 SSTORE PUSH1 0x40 MLOAD SWAP1 CALLVALUE DUP3 MSTORE TIMESTAMP AND DUP7 DUP3 ADD MSTORE DUP4 PUSH1 0x0 DUP1 MLOAD PUSH1 0x20 PUSH2 0x2B00 DUP4 CODECOPY DUP2 MLOAD SWAP2 MSTORE PUSH1 0x40 CALLER SWAP4 LOG3 DUP3 PUSH1 0x0 MSTORE PUSH1 0x7 DUP6 MSTORE PUSH1 0x2 PUSH1 0x40 PUSH1 0x0 KECCAK256 SWAP2 DUP3 SLOAD AND OR SWAP1 SSTORE DUP2 PUSH1 0x0 DUP1 MLOAD PUSH1 0x20 PUSH2 0x2B20 DUP4 CODECOPY DUP2 MLOAD SWAP2 MSTORE PUSH1 0x40 DUP1 MLOAD PUSH1 0x2 DUP2 MSTORE CALLVALUE DUP9 DUP3 ADD MSTORE LOG2 PUSH1 0x40 MLOAD SWAP3 DUP3 PUSH32 0x8F95264B83EB4190666FB9C45CD7E3D284C1906D69F0C2141431F5727F32FBDC PUSH1 0x0 DUP1 LOG3 DUP1 SSTORE DUP2 MSTORE RETURN JUMPDEST PUSH4 0x4E487B71 PUSH1 0xE0 SHL PUSH1 0x0 SWAP1 DUP2 MSTORE PUSH1 0x11 PUSH1 0x4 MSTORE REVERT JUMPDEST ADD CALLDATALOAD SWAP1 POP DUP13 DUP1 PUSH2 0x711 JUMP JUMPDEST SWAP2 DUP12 DUP10 SWAP3 SWAP6 SWAP5 SWAP4 PUSH1 0x1F NOT DUP4 AND DUP6 PUSH1 0x0 MSTORE DUP3 PUSH1 0x0 KECCAK256 SWAP3 PUSH1 0x0 SWAP1 JUMPDEST DUP3 DUP3 LT PUSH2 0x845 JUMPI POP POP SWAP7 DUP4 PUSH1 0x5 SWAP9 LT PUSH2 0x82B JUMPI JUMPDEST POP POP POP DUP2 SHL ADD SWAP1 SSTORE PUSH2 0x725 JUMP JUMPDEST ADD CALLDATALOAD PUSH1 0x0 NOT PUSH1 0x3 DUP5 SWAP1 SHL PUSH1 0xF8 AND SHR NOT AND SWAP1 SSTORE DUP13 DUP1 DUP1 PUSH2 0x81E JUMP JUMPDEST DUP10 DUP5 ADD CALLDATALOAD DUP6 SSTORE SWAP9 DUP10 ADD SWAP9 DUP14 SWAP7 SWAP1 SWAP5 ADD SWAP4 SWAP1 DUP2 ADD SWAP1 PUSH2 0x80A JUMP JUMPDEST DUP5 PUSH4 0x4E487B71 PUSH1 0xE0 SHL PUSH1 0x0 MSTORE PUSH1 0x41 PUSH1 0x4 MSTORE PUSH1 0x0 REVERT JUMPDEST DUP3 PUSH1 0x44 SWAP2 PUSH1 0x40 MLOAD SWAP2 PUSH4 0x12E1FA37 PUSH1 0xE1 SHL DUP4 MSTORE CALLVALUE PUSH1 0x4 DUP5 ADD MSTORE DUP3 ADD MSTORE REVERT JUMPDEST PUSH1 0x40 MLOAD PUSH4 0x54C5DE7 PUSH1 0xE5 SHL DUP2 MSTORE PUSH1 0x4 DUP2 ADD DUP9 SWAP1 MSTORE DUP4 SWAP1 REVERT JUMPDEST SWAP1 POP PUSH1 0x40 MLOAD SWAP1 PUSH4 0x7B609311 PUSH1 0xE1 SHL DUP3 MSTORE PUSH1 0x4 DUP3 ADD MSTORE REVERT JUMPDEST POP PUSH4 0x4E487B71 PUSH1 0xE0 SHL PUSH1 0x0 SWAP1 DUP2 MSTORE PUSH1 0x32 PUSH1 0x4 MSTORE REVERT JUMPDEST PUSH1 0x40 MLOAD PUSH4 0xB40A61B PUSH1 0xE2 SHL DUP2 MSTORE PUSH1 0x4 DUP2 ADD DUP6 SWAP1 MSTORE PUSH1 0x41 DUP2 DUP5 ADD MSTORE PUSH1 0x44 SWAP1 REVERT JUMPDEST PUSH1 0x40 MLOAD PUSH4 0xB1266C15 PUSH1 0xE0 SHL DUP2 MSTORE PUSH1 0x2 PUSH1 0x4 DUP3 ADD MSTORE CALLVALUE DUP2 DUP6 ADD MSTORE PUSH1 0x44 DUP2 ADD SWAP2 SWAP1 SWAP2 MSTORE PUSH1 0x64 SWAP1 REVERT JUMPDEST CALLVALUE PUSH2 0x24F JUMPI PUSH1 0x20 CALLDATASIZE PUSH1 0x3 NOT ADD SLT PUSH2 0x24F JUMPI PUSH1 0x4 CALLDATALOAD PUSH1 0x0 MSTORE PUSH1 0x7 PUSH1 0x20 MSTORE PUSH1 0x20 PUSH1 0xFF PUSH1 0x40 PUSH1 0x0 KECCAK256 SLOAD AND PUSH2 0x94D PUSH1 0x40 MLOAD DUP1 SWAP3 PUSH2 0x229A JUMP JUMPDEST RETURN JUMPDEST PUSH1 0x40 CALLDATASIZE PUSH1 0x3 NOT ADD SLT PUSH2 0x24F JUMPI PUSH1 0x4 CALLDATALOAD PUSH1 0x1 PUSH1 0x1 PUSH1 0x40 SHL SUB DUP2 GT PUSH2 0x24F JUMPI PUSH2 0x97A SWAP1 CALLDATASIZE SWAP1 PUSH1 0x4 ADD PUSH2 0x226D JUMP JUMPDEST SWAP1 PUSH1 0x3 PUSH1 0x24 CALLDATALOAD LT ISZERO PUSH2 0x24F JUMPI PUSH2 0x98E PUSH2 0x235C JUMP JUMPDEST PUSH1 0x2 PUSH1 0x24 CALLDATALOAD EQ PUSH2 0xCD5 JUMPI PUSH2 0x9A3 PUSH1 0x24 CALLDATALOAD PUSH2 0x22BD JUMP JUMPDEST PUSH1 0x40 MLOAD SWAP1 PUSH2 0x9B0 DUP3 PUSH2 0x2143 JUMP JUMPDEST PUSH1 0xFF PUSH1 0x1 DUP3 SLOAD SWAP3 DUP4 DUP6 MSTORE ADD SLOAD PUSH2 0xFFFF DUP2 AND PUSH1 0x20 DUP6 ADD MSTORE DUP2 DUP2 PUSH1 0x10 SHR AND ISZERO ISZERO PUSH1 0x40 DUP6 ADD MSTORE PUSH1 0x18 SHR AND ISZERO ISZERO PUSH1 0x60 DUP4 ADD MSTORE DUP1 CALLVALUE LT PUSH2 0xCA9 JUMPI POP MLOAD SWAP2 PUSH1 0x41 DUP2 SUB PUSH2 0xC8A JUMPI DUP1 ISZERO PUSH2 0xC74 JUMPI DUP2 CALLDATALOAD PUSH1 0xF8 SHR PUSH1 0x4 DUP2 SUB PUSH2 0xC5C JUMPI POP PUSH2 0xA0F CALLDATASIZE DUP3 DUP5 PUSH2 0x245B JUMP JUMPDEST PUSH1 0x20 DUP2 MLOAD SWAP2 ADD KECCAK256 SWAP3 DUP4 PUSH1 0x0 MSTORE PUSH1 0x3 PUSH1 0x20 MSTORE PUSH1 0x1 PUSH1 0x1 PUSH1 0x40 SHL SUB PUSH1 0x40 PUSH1 0x0 KECCAK256 SLOAD PUSH1 0xA0 SHR AND PUSH2 0xC43 JUMPI DUP1 CALLVALUE LT PUSH2 0xC25 JUMPI POP PUSH1 0x0 DUP4 DUP2 MSTORE PUSH1 0x3 PUSH1 0x20 DUP2 SWAP1 MSTORE PUSH1 0x40 SWAP1 SWAP2 KECCAK256 DUP1 SLOAD PUSH1 0x1 PUSH1 0x1 PUSH1 0xE0 SHL SUB NOT AND CALLER PUSH8 0xFFFFFFFFFFFFFFFF PUSH1 0xA0 SHL NOT AND OR TIMESTAMP PUSH1 0xA0 SHL PUSH8 0xFFFFFFFFFFFFFFFF PUSH1 0xA0 SHL AND OR DUP2 SSTORE CALLVALUE PUSH1 0x2 DUP3 ADD SSTORE SWAP1 DUP2 ADD DUP1 SLOAD PUSH1 0xFF NOT AND PUSH1 0x1 OR SWAP1 SSTORE SWAP2 PUSH1 0x1 PUSH1 0x1 PUSH1 0x40 SHL SUB DUP3 GT PUSH2 0x4FC JUMPI PUSH2 0xABC DUP3 PUSH2 0xAB3 PUSH1 0x4 DUP7 ADD SLOAD PUSH2 0x20ED JUMP JUMPDEST PUSH1 0x4 DUP7 ADD PUSH2 0x27C0 JUMP JUMPDEST PUSH1 0x0 SWAP1 PUSH1 0x1F DUP4 GT PUSH1 0x1 EQ PUSH2 0xBB2 JUMPI PUSH1 0x5 SWAP4 SWAP3 SWAP2 PUSH1 0x0 SWAP2 DUP4 PUSH2 0xBA7 JUMPI JUMPDEST POP POP DUP2 PUSH1 0x1 SHL SWAP2 PUSH1 0x0 NOT SWAP1 PUSH1 0x3 SHL SHR NOT AND OR PUSH1 0x4 DUP3 ADD SSTORE JUMPDEST ADD DUP1 SLOAD PUSH2 0xFFFF PUSH1 0x60 SHL NOT AND PUSH2 0x271 PUSH1 0x63 SHL OR SWAP1 SSTORE PUSH1 0x5 SLOAD SWAP1 PUSH1 0x0 NOT DUP3 EQ PUSH2 0xB91 JUMPI PUSH1 0x1 PUSH1 0x20 SWAP3 ADD PUSH1 0x5 SSTORE PUSH1 0x40 MLOAD CALLVALUE DUP2 MSTORE PUSH1 0x1 PUSH1 0x1 PUSH1 0x40 SHL SUB TIMESTAMP AND DUP4 DUP3 ADD MSTORE DUP2 PUSH1 0x0 DUP1 MLOAD PUSH1 0x20 PUSH2 0x2B00 DUP4 CODECOPY DUP2 MLOAD SWAP2 MSTORE PUSH1 0x40 CALLER SWAP4 LOG3 DUP1 PUSH1 0x0 MSTORE PUSH1 0x7 DUP3 MSTORE PUSH1 0x40 PUSH1 0x0 KECCAK256 PUSH1 0xFF NOT DUP2 SLOAD AND PUSH1 0xFF PUSH1 0x24 CALLDATALOAD AND OR SWAP1 SSTORE DUP1 PUSH1 0x0 DUP1 MLOAD PUSH1 0x20 PUSH2 0x2B20 DUP4 CODECOPY DUP2 MLOAD SWAP2 MSTORE PUSH1 0x40 DUP1 MLOAD PUSH2 0xB7F DUP2 PUSH1 0x24 CALLDATALOAD PUSH2 0x229A JUMP JUMPDEST CALLVALUE DUP7 DUP3 ADD MSTORE LOG2 PUSH1 0x1 DUP1 SSTORE PUSH1 0x40 MLOAD SWAP1 DUP2 MSTORE RETURN JUMPDEST PUSH4 0x4E487B71 PUSH1 0xE0 SHL PUSH1 0x0 MSTORE PUSH1 0x11 PUSH1 0x4 MSTORE PUSH1 0x24 PUSH1 0x0 REVERT JUMPDEST ADD CALLDATALOAD SWAP1 POP DUP6 DUP1 PUSH2 0xAD8 JUMP JUMPDEST PUSH1 0x4 DUP5 ADD PUSH1 0x0 MSTORE PUSH1 0x20 PUSH1 0x0 KECCAK256 SWAP2 PUSH1 0x0 JUMPDEST PUSH1 0x1F NOT DUP6 AND DUP2 LT PUSH2 0xC0D JUMPI POP SWAP2 DUP4 SWAP2 PUSH1 0x1 SWAP4 PUSH1 0x5 SWAP7 SWAP6 PUSH1 0x1F NOT DUP2 AND LT PUSH2 0xBF3 JUMPI JUMPDEST POP POP POP DUP2 SHL ADD PUSH1 0x4 DUP3 ADD SSTORE PUSH2 0xAF0 JUMP JUMPDEST ADD CALLDATALOAD PUSH1 0x0 NOT PUSH1 0x3 DUP5 SWAP1 SHL PUSH1 0xF8 AND SHR NOT AND SWAP1 SSTORE DUP6 DUP1 DUP1 PUSH2 0xBE3 JUMP JUMPDEST SWAP1 SWAP3 PUSH1 0x20 PUSH1 0x1 DUP2 SWAP3 DUP7 DUP7 ADD CALLDATALOAD DUP2 SSTORE ADD SWAP5 ADD SWAP2 ADD PUSH2 0xBC2 JUMP JUMPDEST PUSH1 0x44 SWAP1 PUSH1 0x40 MLOAD SWAP1 PUSH4 0x12E1FA37 PUSH1 0xE1 SHL DUP3 MSTORE CALLVALUE PUSH1 0x4 DUP4 ADD MSTORE PUSH1 0x24 DUP3 ADD MSTORE REVERT JUMPDEST PUSH1 0x40 MLOAD PUSH4 0x54C5DE7 PUSH1 0xE5 SHL DUP2 MSTORE PUSH1 0x4 DUP2 ADD DUP6 SWAP1 MSTORE PUSH1 0x24 SWAP1 REVERT JUMPDEST PUSH1 0x24 SWAP1 PUSH1 0x40 MLOAD SWAP1 PUSH4 0x7B609311 PUSH1 0xE1 SHL DUP3 MSTORE PUSH1 0x4 DUP3 ADD MSTORE REVERT JUMPDEST PUSH4 0x4E487B71 PUSH1 0xE0 SHL PUSH1 0x0 MSTORE PUSH1 0x32 PUSH1 0x4 MSTORE PUSH1 0x24 PUSH1 0x0 REVERT JUMPDEST PUSH1 0x44 SWAP1 PUSH1 0x40 MLOAD SWAP1 PUSH4 0xB40A61B PUSH1 0xE2 SHL DUP3 MSTORE PUSH1 0x4 DUP3 ADD MSTORE PUSH1 0x41 PUSH1 0x24 DUP3 ADD MSTORE REVERT JUMPDEST PUSH1 0x40 MLOAD PUSH4 0xB1266C15 PUSH1 0xE0 SHL DUP2 MSTORE PUSH1 0x64 SWAP2 PUSH2 0xCC8 PUSH1 0x4 DUP4 ADD PUSH1 0x24 CALLDATALOAD PUSH2 0x229A JUMP JUMPDEST CALLVALUE PUSH1 0x24 DUP4 ADD MSTORE PUSH1 0x44 DUP3 ADD MSTORE REVERT JUMPDEST PUSH1 0x40 MLOAD PUSH4 0x2CBE1F53 PUSH1 0xE2 SHL DUP2 MSTORE PUSH1 0x24 SWAP1 PUSH2 0xCF3 PUSH1 0x4 DUP3 ADD DUP4 CALLDATALOAD PUSH2 0x229A JUMP JUMPDEST REVERT JUMPDEST CALLVALUE PUSH2 0x24F JUMPI PUSH1 0x40 CALLDATASIZE PUSH1 0x3 NOT ADD SLT PUSH2 0x24F JUMPI PUSH2 0xD0E PUSH2 0x20D7 JUMP JUMPDEST PUSH32 0x8867802E9C009CB556BEC3F0C9EE7BF9A7924DE2D88E08DC737790AEBF85CBD1 PUSH1 0x20 PUSH2 0xD39 PUSH2 0x22D6 JUMP JUMPDEST SWAP3 PUSH2 0xD42 PUSH2 0x22E5 JUMP JUMPDEST PUSH1 0x1 PUSH1 0x1 PUSH1 0xA0 SHL SUB AND PUSH1 0x0 DUP2 DUP2 MSTORE PUSH1 0x8 DUP4 MSTORE PUSH1 0x40 SWAP1 KECCAK256 DUP1 SLOAD PUSH1 0xFF NOT AND PUSH1 0xFF DUP7 ISZERO ISZERO AND OR SWAP1 SSTORE SWAP3 PUSH1 0x40 MLOAD SWAP1 ISZERO ISZERO DUP2 MSTORE LOG2 STOP JUMPDEST CALLVALUE PUSH2 0x24F JUMPI PUSH1 0x20 CALLDATASIZE PUSH1 0x3 NOT ADD SLT PUSH2 0x24F JUMPI PUSH1 0x4 CALLDATALOAD PUSH1 0x0 MSTORE PUSH1 0x7 PUSH1 0x20 MSTORE PUSH1 0x20 PUSH2 0xFFFF PUSH1 0x1 PUSH2 0xDA7 PUSH1 0xFF PUSH1 0x40 PUSH1 0x0 KECCAK256 SLOAD AND PUSH2 0x22BD JUMP JUMPDEST ADD SLOAD AND PUSH1 0x40 MLOAD SWAP1 DUP2 MSTORE RETURN JUMPDEST CALLVALUE PUSH2 0x24F JUMPI PUSH1 0x20 CALLDATASIZE PUSH1 0x3 NOT ADD SLT PUSH2 0x24F JUMPI PUSH1 0x20 PUSH2 0xDD0 PUSH1 0x4 CALLDATALOAD PUSH2 0x2A6F JUMP JUMPDEST PUSH1 0x40 MLOAD SWAP1 ISZERO ISZERO DUP2 MSTORE RETURN JUMPDEST CALLVALUE PUSH2 0x24F JUMPI PUSH1 0x40 CALLDATASIZE PUSH1 0x3 NOT ADD SLT PUSH2 0x24F JUMPI PUSH2 0xE2D PUSH2 0xDF6 PUSH2 0x20D7 JUMP JUMPDEST PUSH2 0xDFE PUSH2 0x22D6 JUMP JUMPDEST SWAP1 PUSH2 0xE07 PUSH2 0x22E5 JUMP JUMPDEST PUSH1 0x1 DUP1 PUSH1 0xA0 SHL SUB AND PUSH1 0x0 MSTORE PUSH1 0x4 PUSH1 0x20 MSTORE PUSH1 0x40 PUSH1 0x0 KECCAK256 SWAP1 PUSH1 0xFF DUP1 NOT DUP4 SLOAD AND SWAP2 ISZERO ISZERO AND OR SWAP1 SSTORE JUMP JUMPDEST STOP JUMPDEST CALLVALUE PUSH2 0x24F JUMPI PUSH1 0xA0 CALLDATASIZE PUSH1 0x3 NOT ADD SLT PUSH2 0x24F JUMPI PUSH1 0x4 CALLDATALOAD PUSH1 0x3 DUP2 LT ISZERO PUSH2 0x24F JUMPI PUSH1 0x80 CALLDATASIZE PUSH1 0x23 NOT ADD SLT PUSH2 0x24F JUMPI PUSH2 0xE60 PUSH2 0x22E5 JUMP JUMPDEST PUSH1 0x1 PUSH2 0xE6B DUP3 PUSH2 0x22BD JUMP JUMPDEST PUSH1 0x24 CALLDATALOAD DUP2 SSTORE ADD PUSH1 0x44 CALLDATALOAD PUSH2 0xFFFF DUP2 AND DUP1 SWAP2 SUB PUSH2 0x24F JUMPI DUP2 SLOAD SWAP1 PUSH1 0x64 CALLDATALOAD SWAP1 DUP2 ISZERO ISZERO DUP1 SWAP3 SUB PUSH2 0x24F JUMPI PUSH1 0x84 CALLDATALOAD SWAP1 DUP2 ISZERO ISZERO DUP1 SWAP3 SUB PUSH2 0x24F JUMPI PUSH4 0xFF000000 PUSH3 0xFF0000 SWAP3 PUSH1 0x18 SHL AND SWAP4 PUSH4 0xFFFFFFFF NOT AND OR SWAP2 PUSH1 0x10 SHL AND OR OR SWAP1 SSTORE PUSH32 0xF5A6835EE28DAFEAE8407642588AF38B5A0382563864E1A26A7E8BDE9C704F14 PUSH1 0x0 DUP1 LOG2 STOP JUMPDEST CALLVALUE PUSH2 0x24F JUMPI PUSH1 0x20 CALLDATASIZE PUSH1 0x3 NOT ADD SLT PUSH2 0x24F JUMPI PUSH1 0x4 CALLDATALOAD PUSH2 0xF02 PUSH2 0x235C JUMP JUMPDEST DUP1 PUSH1 0x0 MSTORE PUSH1 0x3 PUSH1 0x20 MSTORE PUSH1 0x40 PUSH1 0x0 KECCAK256 SWAP1 DUP2 SLOAD PUSH1 0x1 PUSH1 0x1 PUSH1 0x40 SHL SUB SWAP3 DUP4 DUP3 PUSH1 0xA0 SHR AND ISZERO PUSH2 0x107C JUMPI PUSH1 0x1 PUSH1 0x1 PUSH1 0xA0 SHL SUB SWAP2 DUP3 AND CALLER DUP2 SUB PUSH2 0x105D JUMPI PUSH1 0xFF PUSH1 0x3 DUP4 ADD SLOAD AND PUSH2 0x1044 JUMPI PUSH1 0x2 DUP3 ADD DUP1 SLOAD SWAP6 DUP7 ISZERO PUSH2 0x102B JUMPI PUSH1 0x1 DUP5 ADD SLOAD AND PUSH3 0x93A80 DUP2 ADD DUP1 SWAP2 GT PUSH2 0xB91 JUMPI DUP1 TIMESTAMP LT PUSH2 0x100D JUMPI POP PUSH1 0x0 DUP1 DUP8 DUP2 SWAP5 DUP3 DUP1 SWAP6 SSTORE GAS CALL PUSH2 0xF81 PUSH2 0x232C JUMP JUMPDEST POP ISZERO PUSH2 0xFBC JUMPI PUSH32 0xC4C5D4C3BCC4E68B960F90448E78B3A2EB8DDBD45FDB5FADB203A1C3C56878B SWAP2 PUSH1 0x20 SWAP2 SLOAD AND SWAP4 PUSH1 0x40 MLOAD SWAP1 DUP2 MSTORE LOG3 PUSH1 0x1 DUP1 SSTORE STOP JUMPDEST PUSH1 0x40 MLOAD PUSH3 0x461BCD PUSH1 0xE5 SHL DUP2 MSTORE PUSH1 0x20 PUSH1 0x4 DUP3 ADD MSTORE PUSH1 0x23 PUSH1 0x24 DUP3 ADD MSTORE PUSH32 0x44657669636552656769737472793A20455448207472616E7366657220666169 PUSH1 0x44 DUP3 ADD MSTORE PUSH3 0x1B1959 PUSH1 0xEA SHL PUSH1 0x64 DUP3 ADD MSTORE PUSH1 0x84 SWAP1 REVERT JUMPDEST DUP6 PUSH1 0x44 SWAP2 PUSH1 0x40 MLOAD SWAP2 PUSH4 0x6E0E8A7B PUSH1 0xE1 SHL DUP4 MSTORE PUSH1 0x4 DUP4 ADD MSTORE PUSH1 0x24 DUP3 ADD MSTORE REVERT JUMPDEST PUSH1 0x40 MLOAD PUSH4 0xA9D21A9D PUSH1 0xE0 SHL DUP2 MSTORE PUSH1 0x4 DUP2 ADD DUP8 SWAP1 MSTORE PUSH1 0x24 SWAP1 REVERT JUMPDEST PUSH1 0x40 MLOAD PUSH4 0x159C7175 PUSH1 0xE1 SHL DUP2 MSTORE PUSH1 0x4 DUP2 ADD DUP6 SWAP1 MSTORE PUSH1 0x24 SWAP1 REVERT JUMPDEST PUSH1 0x40 MLOAD PUSH4 0x5A4D1987 PUSH1 0xE0 SHL DUP2 MSTORE PUSH1 0x4 DUP2 ADD DUP6 SWAP1 MSTORE CALLER PUSH1 0x24 DUP3 ADD MSTORE PUSH1 0x44 SWAP1 REVERT JUMPDEST PUSH1 0x40 MLOAD PUSH4 0xE5AAB9E5 PUSH1 0xE0 SHL DUP2 MSTORE PUSH1 0x4 DUP2 ADD DUP5 SWAP1 MSTORE PUSH1 0x24 SWAP1 REVERT JUMPDEST CALLVALUE PUSH2 0x24F JUMPI PUSH1 0x0 CALLDATASIZE PUSH1 0x3 NOT ADD SLT PUSH2 0x24F JUMPI PUSH1 0x20 PUSH1 0x40 MLOAD PUSH1 0x41 DUP2 MSTORE RETURN JUMPDEST CALLVALUE PUSH2 0x24F JUMPI PUSH1 0x20 CALLDATASIZE PUSH1 0x3 NOT ADD SLT PUSH2 0x24F JUMPI PUSH1 0x4 CALLDATALOAD PUSH1 0x1 PUSH1 0x1 PUSH1 0x40 SHL SUB DUP2 GT PUSH2 0x24F JUMPI PUSH2 0x10ED PUSH2 0x10E6 PUSH1 0x20 SWAP3 CALLDATASIZE SWAP1 PUSH1 0x4 ADD PUSH2 0x226D JUMP JUMPDEST CALLDATASIZE SWAP2 PUSH2 0x245B JUMP JUMPDEST DUP2 DUP2 MLOAD SWAP2 ADD KECCAK256 PUSH1 0x40 MLOAD SWAP1 DUP2 MSTORE RETURN JUMPDEST CALLVALUE PUSH2 0x24F JUMPI PUSH1 0x20 CALLDATASIZE PUSH1 0x3 NOT ADD SLT PUSH2 0x24F JUMPI PUSH1 0x4 CALLDATALOAD PUSH1 0x3 DUP2 LT ISZERO PUSH2 0x24F JUMPI PUSH2 0x1123 PUSH1 0x80 SWAP2 PUSH2 0x22BD JUMP JUMPDEST PUSH1 0xFF PUSH1 0x1 DUP3 SLOAD SWAP3 ADD SLOAD PUSH1 0x40 MLOAD SWAP3 DUP4 MSTORE PUSH2 0xFFFF DUP2 AND PUSH1 0x20 DUP5 ADD MSTORE DUP2 DUP2 PUSH1 0x10 SHR AND ISZERO ISZERO PUSH1 0x40 DUP5 ADD MSTORE PUSH1 0x18 SHR AND ISZERO ISZERO PUSH1 0x60 DUP3 ADD MSTORE RETURN JUMPDEST PUSH1 0x80 CALLDATASIZE PUSH1 0x3 NOT ADD SLT PUSH2 0x24F JUMPI PUSH1 0x1 PUSH1 0x1 PUSH1 0x40 SHL SUB PUSH1 0x4 CALLDATALOAD DUP2 DUP2 GT PUSH2 0x24F JUMPI PUSH2 0x1182 SWAP1 CALLDATASIZE SWAP1 PUSH1 0x4 ADD PUSH2 0x226D JUMP JUMPDEST SWAP1 SWAP2 PUSH1 0x24 CALLDATALOAD SWAP1 DUP2 GT PUSH2 0x24F JUMPI PUSH2 0x119C SWAP1 CALLDATASIZE SWAP1 PUSH1 0x4 ADD PUSH2 0x226D JUMP JUMPDEST PUSH1 0x64 CALLDATALOAD PUSH1 0x1 PUSH1 0x1 PUSH1 0xA0 SHL SUB DUP2 AND SWAP4 PUSH1 0x44 CALLDATALOAD SWAP3 SWAP1 DUP6 DUP4 SUB PUSH2 0x24F JUMPI PUSH1 0x20 SWAP7 PUSH2 0x11F3 PUSH32 0x972A333783544829B3995BDEF8F85D08BEC1675D526165860A1F345C54A94B8 SWAP5 PUSH2 0x11F8 SWAP5 DUP11 SWAP9 PUSH2 0x11EC PUSH2 0x235C JUMP JUMPDEST DUP6 DUP6 PUSH2 0x2849 JUMP JUMPDEST PUSH2 0x24C4 JUMP JUMPDEST SWAP3 DUP4 SWAP3 DUP4 PUSH1 0x0 MSTORE PUSH1 0xA DUP3 MSTORE DUP1 PUSH1 0x40 PUSH1 0x0 KECCAK256 SSTORE PUSH1 0x40 MLOAD SWAP1 DUP2 MSTORE LOG2 PUSH1 0x40 MLOAD SWAP2 DUP2 PUSH32 0x8F95264B83EB4190666FB9C45CD7E3D284C1906D69F0C2141431F5727F32FBDC PUSH1 0x0 DUP1 LOG3 PUSH1 0x1 DUP1 SSTORE DUP2 MSTORE RETURN JUMPDEST CALLVALUE PUSH2 0x24F JUMPI PUSH1 0x0 CALLDATASIZE PUSH1 0x3 NOT ADD SLT PUSH2 0x24F JUMPI PUSH1 0x0 SLOAD PUSH1 0x40 MLOAD PUSH1 0x1 PUSH1 0x1 PUSH1 0xA0 SHL SUB SWAP1 SWAP2 AND DUP2 MSTORE PUSH1 0x20 SWAP1 RETURN JUMPDEST PUSH1 0x60 CALLDATASIZE PUSH1 0x3 NOT ADD SLT PUSH2 0x24F JUMPI PUSH1 0x1 PUSH1 0x1 PUSH1 0x40 SHL SUB PUSH1 0x4 CALLDATALOAD DUP2 DUP2 GT PUSH2 0x24F JUMPI PUSH2 0x1298 SWAP1 CALLDATASIZE SWAP1 PUSH1 0x4 ADD PUSH2 0x226D JUMP JUMPDEST SWAP2 SWAP1 PUSH1 0x24 CALLDATALOAD SWAP2 DUP3 GT PUSH2 0x24F JUMPI PUSH32 0x972A333783544829B3995BDEF8F85D08BEC1675D526165860A1F345C54A94B8 PUSH2 0x12F1 PUSH1 0x20 SWAP5 PUSH2 0x12DA DUP7 SWAP6 CALLDATASIZE SWAP1 PUSH1 0x4 ADD PUSH2 0x226D JUMP JUMPDEST SWAP5 SWAP1 POP PUSH2 0x11F3 PUSH1 0x44 CALLDATALOAD SWAP6 PUSH2 0x12EC PUSH2 0x235C JUMP JUMPDEST PUSH2 0x2814 JUMP JUMPDEST SWAP3 DUP4 SWAP3 DUP4 PUSH1 0x0 MSTORE PUSH1 0xA DUP3 MSTORE DUP1 PUSH1 0x40 PUSH1 0x0 KECCAK256 SSTORE PUSH1 0x40 MLOAD SWAP1 DUP2 MSTORE LOG2 PUSH1 0x1 DUP1 SSTORE PUSH1 0x40 MLOAD SWAP1 DUP2 MSTORE RETURN JUMPDEST CALLVALUE PUSH2 0x24F JUMPI PUSH1 0x20 CALLDATASIZE PUSH1 0x3 NOT ADD SLT PUSH2 0x24F JUMPI PUSH1 0x4 CALLDATALOAD DUP1 PUSH1 0x0 MSTORE PUSH1 0x3 PUSH1 0x20 MSTORE PUSH1 0x40 PUSH1 0x0 KECCAK256 SWAP1 PUSH1 0x1 PUSH1 0x1 PUSH1 0x40 SHL SUB DUP3 SLOAD PUSH1 0xA0 SHR AND ISZERO PUSH2 0x1373 JUMPI PUSH2 0x136F PUSH2 0x135B PUSH1 0x4 DUP5 ADD PUSH2 0x217F JUMP JUMPDEST PUSH1 0x40 MLOAD SWAP2 DUP3 SWAP2 PUSH1 0x20 DUP4 MSTORE PUSH1 0x20 DUP4 ADD SWAP1 PUSH2 0x2248 JUMP JUMPDEST SUB SWAP1 RETURN JUMPDEST PUSH1 0x24 SWAP1 PUSH1 0x40 MLOAD SWAP1 PUSH4 0xE5AAB9E5 PUSH1 0xE0 SHL DUP3 MSTORE PUSH1 0x4 DUP3 ADD MSTORE REVERT JUMPDEST CALLVALUE PUSH2 0x24F JUMPI PUSH1 0x20 CALLDATASIZE PUSH1 0x3 NOT ADD SLT PUSH2 0x24F JUMPI PUSH1 0x4 CALLDATALOAD PUSH1 0x0 MSTORE PUSH1 0xA PUSH1 0x20 MSTORE PUSH1 0x20 PUSH1 0x40 PUSH1 0x0 KECCAK256 SLOAD PUSH1 0x40 MLOAD SWAP1 DUP2 MSTORE RETURN JUMPDEST CALLVALUE PUSH2 0x24F JUMPI PUSH1 0x20 DUP1 PUSH1 0x3 NOT CALLDATASIZE ADD SLT PUSH2 0x24F JUMPI PUSH2 0x13D1 PUSH2 0x20D7 JUMP JUMPDEST PUSH1 0x60 DUP1 PUSH1 0x40 MLOAD PUSH2 0x13E0 DUP2 PUSH2 0x2143 JUMP JUMPDEST PUSH1 0x0 DUP2 MSTORE PUSH1 0x0 DUP6 DUP3 ADD MSTORE PUSH1 0x0 PUSH1 0x40 DUP3 ADD MSTORE ADD MSTORE PUSH1 0x1 DUP1 PUSH1 0xA0 SHL SUB AND PUSH1 0x0 MSTORE PUSH1 0xB DUP2 MSTORE PUSH1 0x40 PUSH1 0x0 KECCAK256 PUSH2 0x136F PUSH1 0x40 MLOAD SWAP2 PUSH2 0x1417 DUP4 PUSH2 0x2143 JUMP JUMPDEST DUP1 SLOAD DUP4 MSTORE PUSH1 0x1 DUP2 ADD SLOAD SWAP1 DUP5 DUP5 ADD SWAP2 DUP3 MSTORE PUSH2 0x1444 PUSH1 0x3 PUSH1 0xFF PUSH1 0x2 DUP5 ADD SLOAD AND SWAP3 PUSH1 0x40 DUP8 ADD SWAP4 ISZERO ISZERO DUP5 MSTORE ADD PUSH2 0x217F JUMP JUMPDEST SWAP2 PUSH1 0x60 DUP6 ADD SWAP3 DUP4 MSTORE PUSH1 0x40 MLOAD SWAP6 DUP7 SWAP6 DUP2 DUP8 MSTORE MLOAD SWAP1 DUP7 ADD MSTORE MLOAD PUSH1 0x40 DUP6 ADD MSTORE MLOAD ISZERO ISZERO PUSH1 0x60 DUP5 ADD MSTORE MLOAD PUSH1 0x80 DUP1 DUP5 ADD MSTORE PUSH1 0xA0 DUP4 ADD SWAP1 PUSH2 0x2248 JUMP JUMPDEST CALLVALUE PUSH2 0x24F JUMPI PUSH1 0x20 CALLDATASIZE PUSH1 0x3 NOT ADD SLT PUSH2 0x24F JUMPI PUSH1 0x4 CALLDATALOAD DUP1 PUSH1 0x0 MSTORE PUSH1 0x3 PUSH1 0x20 MSTORE PUSH1 0x40 PUSH1 0x0 KECCAK256 SWAP1 PUSH1 0x1 PUSH1 0x1 PUSH1 0x40 SHL SUB DUP3 SLOAD PUSH1 0xA0 SHR AND ISZERO PUSH2 0x1373 JUMPI PUSH1 0x20 PUSH2 0xFFFF PUSH1 0x5 DUP5 ADD SLOAD PUSH1 0x60 SHR AND PUSH1 0x40 MLOAD SWAP1 DUP2 MSTORE RETURN JUMPDEST CALLVALUE PUSH2 0x24F JUMPI PUSH1 0x0 CALLDATASIZE PUSH1 0x3 NOT ADD SLT PUSH2 0x24F JUMPI PUSH2 0x14DE PUSH2 0x22E5 JUMP JUMPDEST PUSH1 0x0 DUP1 SLOAD PUSH1 0x1 PUSH1 0x1 PUSH1 0xA0 SHL SUB NOT DUP2 AND DUP3 SSTORE PUSH1 0x1 PUSH1 0x1 PUSH1 0xA0 SHL SUB AND PUSH32 0x8BE0079C531659141344CD1FD0A4F28419497F9722A3DAAFE3B4186F6B6457E0 DUP3 DUP1 LOG3 STOP JUMPDEST CALLVALUE PUSH2 0x24F JUMPI PUSH1 0x0 CALLDATASIZE PUSH1 0x3 NOT ADD SLT PUSH2 0x24F JUMPI PUSH1 0x20 PUSH1 0x2 SLOAD PUSH1 0x40 MLOAD SWAP1 DUP2 MSTORE RETURN JUMPDEST PUSH1 0x40 CALLDATASIZE PUSH1 0x3 NOT ADD SLT PUSH2 0x24F JUMPI PUSH1 0x1 PUSH1 0x1 PUSH1 0x40 SHL SUB PUSH1 0x4 CALLDATALOAD DUP2 DUP2 GT PUSH2 0x24F JUMPI PUSH2 0x1568 SWAP1 CALLDATASIZE SWAP1 PUSH1 0x4 ADD PUSH2 0x226D JUMP JUMPDEST PUSH1 0x24 SWAP3 SWAP2 SWAP3 CALLDATALOAD SWAP2 DUP3 GT PUSH2 0x24F JUMPI PUSH1 0x20 SWAP3 PUSH2 0x11F3 PUSH2 0x158C PUSH2 0x1596 SWAP5 CALLDATASIZE SWAP1 PUSH1 0x4 ADD PUSH2 0x226D JUMP JUMPDEST SWAP1 POP PUSH2 0x12EC PUSH2 0x235C JUMP JUMPDEST PUSH1 0x1 DUP1 SSTORE PUSH1 0x40 MLOAD SWAP1 DUP2 MSTORE RETURN JUMPDEST CALLVALUE PUSH2 0x24F JUMPI PUSH1 0x20 CALLDATASIZE PUSH1 0x3 NOT ADD SLT PUSH2 0x24F JUMPI PUSH1 0x4 CALLDATALOAD PUSH1 0x0 MSTORE PUSH1 0x3 PUSH1 0x20 MSTORE PUSH1 0x20 PUSH1 0xFF PUSH1 0x3 PUSH1 0x40 PUSH1 0x0 KECCAK256 ADD SLOAD AND PUSH1 0x40 MLOAD SWAP1 ISZERO ISZERO DUP2 MSTORE RETURN JUMPDEST CALLVALUE PUSH2 0x24F JUMPI PUSH1 0x20 CALLDATASIZE PUSH1 0x3 NOT ADD SLT PUSH2 0x24F JUMPI PUSH1 0x0 PUSH2 0x120 PUSH1 0x40 MLOAD PUSH2 0x15F8 DUP2 PUSH2 0x2127 JUMP JUMPDEST DUP3 DUP2 MSTORE DUP3 PUSH1 0x20 DUP3 ADD MSTORE DUP3 PUSH1 0x40 DUP3 ADD MSTORE DUP3 PUSH1 0x60 DUP3 ADD MSTORE DUP3 PUSH1 0x80 DUP3 ADD MSTORE PUSH1 0x60 PUSH1 0xA0 DUP3 ADD MSTORE DUP3 PUSH1 0xC0 DUP3 ADD MSTORE DUP3 PUSH1 0xE0 DUP3 ADD MSTORE DUP3 PUSH2 0x100 DUP3 ADD MSTORE ADD MSTORE PUSH1 0x4 CALLDATALOAD PUSH1 0x0 MSTORE PUSH1 0x3 PUSH1 0x20 MSTORE PUSH1 0x40 PUSH1 0x0 KECCAK256 PUSH2 0xFFFF PUSH1 0x5 PUSH1 0x40 MLOAD SWAP3 PUSH2 0x1651 DUP5 PUSH2 0x2127 JUMP JUMPDEST DUP1 SLOAD PUSH1 0x1 PUSH1 0x1 PUSH1 0xA0 SHL SUB DUP2 AND DUP6 MSTORE PUSH1 0xA0 SHR PUSH1 0x1 PUSH1 0x1 PUSH1 0x40 SHL SUB SWAP1 DUP2 AND PUSH1 0x20 DUP7 ADD MSTORE PUSH1 0x1 DUP3 ADD SLOAD AND PUSH1 0x40 DUP6 ADD MSTORE PUSH1 0x2 DUP2 ADD SLOAD PUSH1 0x60 DUP6 ADD MSTORE PUSH1 0x3 DUP2 ADD SLOAD PUSH1 0xFF AND ISZERO ISZERO PUSH1 0x80 DUP6 ADD MSTORE PUSH2 0x16A2 PUSH1 0x4 DUP3 ADD PUSH2 0x217F JUMP JUMPDEST PUSH1 0xA0 DUP6 ADD MSTORE ADD SLOAD PUSH4 0xFFFFFFFF DUP2 AND PUSH1 0xC0 DUP5 ADD MSTORE PUSH4 0xFFFFFFFF DUP2 PUSH1 0x20 SHR AND PUSH1 0xE0 DUP5 ADD MSTORE PUSH4 0xFFFFFFFF DUP2 PUSH1 0x40 SHR AND PUSH2 0x100 DUP5 ADD MSTORE PUSH1 0x60 SHR AND PUSH2 0x120 DUP3 ADD MSTORE PUSH1 0x1 PUSH1 0x1 PUSH1 0x40 SHL SUB PUSH1 0x20 DUP3 ADD MLOAD AND ISZERO PUSH2 0x17A5 JUMPI PUSH1 0x40 MLOAD DUP1 SWAP2 PUSH1 0x20 DUP3 MSTORE PUSH1 0x1 DUP1 PUSH1 0xA0 SHL SUB DUP2 MLOAD AND PUSH1 0x20 DUP4 ADD MSTORE PUSH1 0x1 PUSH1 0x1 PUSH1 0x40 SHL SUB PUSH1 0x20 DUP3 ADD MLOAD AND PUSH1 0x40 DUP4 ADD MSTORE PUSH1 0x1 PUSH1 0x1 PUSH1 0x40 SHL SUB PUSH1 0x40 DUP3 ADD MLOAD AND PUSH1 0x60 DUP4 ADD MSTORE PUSH1 0x60 DUP2 ADD MLOAD PUSH1 0x80 DUP4 ADD MSTORE PUSH1 0x80 DUP2 ADD MLOAD ISZERO ISZERO PUSH1 0xA0 DUP4 ADD MSTORE PUSH1 0xA0 DUP2 ADD MLOAD PUSH2 0xFFFF PUSH2 0x120 PUSH2 0x1768 PUSH2 0x140 SWAP4 DUP5 PUSH1 0xC0 DUP9 ADD MSTORE PUSH2 0x160 DUP8 ADD SWAP1 PUSH2 0x2248 JUMP JUMPDEST SWAP4 PUSH4 0xFFFFFFFF PUSH1 0xC0 DUP3 ADD MLOAD AND PUSH1 0xE0 DUP8 ADD MSTORE PUSH4 0xFFFFFFFF PUSH1 0xE0 DUP3 ADD MLOAD AND PUSH2 0x100 DUP8 ADD MSTORE PUSH4 0xFFFFFFFF PUSH2 0x100 DUP3 ADD MLOAD AND DUP3 DUP8 ADD MSTORE ADD MLOAD AND SWAP1 DUP4 ADD MSTORE SUB SWAP1 RETURN JUMPDEST PUSH1 0x24 PUSH1 0x40 MLOAD PUSH4 0xE5AAB9E5 PUSH1 0xE0 SHL DUP2 MSTORE PUSH1 0x4 CALLDATALOAD PUSH1 0x4 DUP3 ADD MSTORE REVERT JUMPDEST CALLVALUE PUSH2 0x24F JUMPI PUSH1 0x40 CALLDATASIZE PUSH1 0x3 NOT ADD SLT PUSH2 0x24F JUMPI PUSH1 0x4 CALLDATALOAD PUSH1 0x24 CALLDATALOAD PUSH1 0x40 MLOAD PUSH4 0x59D902ED PUSH1 0xE0 SHL DUP2 MSTORE DUP3 PUSH1 0x4 DUP3 ADD MSTORE PUSH1 0x0 DUP2 PUSH1 0x24 DUP2 ADDRESS GAS STATICCALL SWAP1 DUP2 ISZERO PUSH2 0x19AA JUMPI PUSH1 0x0 SWAP2 PUSH2 0x186C JUMPI JUMPDEST POP MLOAD PUSH1 0x1 PUSH1 0x1 PUSH1 0xA0 SHL SUB AND CALLER SUB PUSH2 0x184D JUMPI PUSH1 0x20 PUSH32 0x972A333783544829B3995BDEF8F85D08BEC1675D526165860A1F345C54A94B8 SWAP2 DUP4 PUSH1 0x0 MSTORE PUSH1 0xA DUP3 MSTORE DUP1 PUSH1 0x40 PUSH1 0x0 KECCAK256 SSTORE PUSH1 0x40 MLOAD SWAP1 DUP2 MSTORE LOG2 STOP JUMPDEST PUSH1 0x40 MLOAD PUSH4 0x116891D7 PUSH1 0xE0 SHL DUP2 MSTORE PUSH1 0x4 DUP2 ADD DUP4 SWAP1 MSTORE CALLER PUSH1 0x24 DUP3 ADD MSTORE PUSH1 0x44 SWAP1 REVERT JUMPDEST SWAP1 POP RETURNDATASIZE DUP1 PUSH1 0x0 DUP4 RETURNDATACOPY PUSH2 0x187E DUP2 DUP4 PUSH2 0x215E JUMP JUMPDEST DUP2 ADD PUSH1 0x20 SWAP1 DUP2 DUP4 DUP3 SUB SLT PUSH2 0x24F JUMPI DUP3 MLOAD PUSH1 0x1 PUSH1 0x1 PUSH1 0x40 SHL SUB SWAP4 DUP5 DUP3 GT PUSH2 0x24F JUMPI ADD SWAP2 PUSH2 0x140 DUP4 DUP4 SUB SLT PUSH2 0x24F JUMPI PUSH1 0x40 MLOAD SWAP4 PUSH2 0x18B8 DUP6 PUSH2 0x2127 JUMP JUMPDEST DUP4 MLOAD PUSH1 0x1 PUSH1 0x1 PUSH1 0xA0 SHL SUB DUP2 AND DUP2 SUB PUSH2 0x24F JUMPI DUP6 MSTORE PUSH2 0x18D7 DUP3 DUP6 ADD PUSH2 0x2492 JUMP JUMPDEST DUP3 DUP7 ADD MSTORE PUSH2 0x18E7 PUSH1 0x40 DUP6 ADD PUSH2 0x2492 JUMP JUMPDEST PUSH1 0x40 DUP7 ADD MSTORE PUSH1 0x60 DUP5 ADD MLOAD PUSH1 0x60 DUP7 ADD MSTORE PUSH2 0x1902 PUSH1 0x80 DUP6 ADD PUSH2 0x24A6 JUMP JUMPDEST PUSH1 0x80 DUP7 ADD MSTORE PUSH1 0xA0 DUP5 ADD MLOAD SWAP1 DUP2 GT PUSH2 0x24F JUMPI DUP4 ADD DUP3 PUSH1 0x1F DUP3 ADD SLT ISZERO PUSH2 0x24F JUMPI DUP1 MLOAD SWAP1 PUSH2 0x192C DUP3 PUSH2 0x2311 JUMP JUMPDEST SWAP4 PUSH2 0x193A PUSH1 0x40 MLOAD SWAP6 DUP7 PUSH2 0x215E JUMP JUMPDEST DUP3 DUP6 MSTORE DUP4 DUP4 DUP4 ADD ADD GT PUSH2 0x24F JUMPI DUP3 PUSH2 0x1955 SWAP4 DUP6 ADD SWAP2 ADD PUSH2 0x2225 JUMP JUMPDEST PUSH1 0xA0 DUP4 ADD MSTORE PUSH2 0x1966 PUSH1 0xC0 DUP3 ADD PUSH2 0x24B3 JUMP JUMPDEST PUSH1 0xC0 DUP4 ADD MSTORE PUSH2 0x1977 PUSH1 0xE0 DUP3 ADD PUSH2 0x24B3 JUMP JUMPDEST PUSH1 0xE0 DUP4 ADD MSTORE PUSH2 0x100 PUSH2 0x198A DUP2 DUP4 ADD PUSH2 0x24B3 JUMP JUMPDEST SWAP1 DUP4 ADD MSTORE PUSH2 0x120 DUP1 SWAP2 ADD MLOAD SWAP1 PUSH2 0xFFFF DUP3 AND DUP3 SUB PUSH2 0x24F JUMPI DUP3 ADD MSTORE DUP4 PUSH2 0x1800 JUMP JUMPDEST PUSH1 0x40 MLOAD RETURNDATASIZE PUSH1 0x0 DUP3 RETURNDATACOPY RETURNDATASIZE SWAP1 REVERT JUMPDEST CALLVALUE PUSH2 0x24F JUMPI PUSH1 0x20 CALLDATASIZE PUSH1 0x3 NOT ADD SLT PUSH2 0x24F JUMPI PUSH2 0x19CF PUSH2 0x20D7 JUMP JUMPDEST PUSH2 0x19D7 PUSH2 0x22E5 JUMP JUMPDEST PUSH1 0x1 PUSH1 0x1 PUSH1 0xA0 SHL SUB AND PUSH1 0x0 DUP2 DUP2 MSTORE PUSH1 0xB PUSH1 0x20 MSTORE PUSH1 0x40 DUP2 KECCAK256 PUSH1 0x2 ADD DUP1 SLOAD PUSH1 0xFF NOT AND SWAP1 SSTORE PUSH32 0x45DDAEE004EEADCC58BAF7A4D7E16FFEA4CF308CC7278EA7164020224286391A SWAP1 DUP1 LOG2 STOP JUMPDEST CALLVALUE PUSH2 0x24F JUMPI PUSH1 0x0 CALLDATASIZE PUSH1 0x3 NOT ADD SLT PUSH2 0x24F JUMPI PUSH1 0x20 PUSH1 0x5 SLOAD PUSH1 0x40 MLOAD SWAP1 DUP2 MSTORE RETURN JUMPDEST PUSH1 0x20 DUP1 PUSH1 0x3 NOT CALLDATASIZE ADD SLT PUSH2 0x24F JUMPI PUSH1 0x1 PUSH1 0x1 PUSH1 0x40 SHL SUB PUSH1 0x4 CALLDATALOAD DUP2 DUP2 GT PUSH2 0x24F JUMPI PUSH2 0x1A6A SWAP1 CALLDATASIZE SWAP1 PUSH1 0x4 ADD PUSH2 0x226D JUMP JUMPDEST PUSH2 0x1A75 SWAP3 SWAP2 SWAP3 PUSH2 0x235C JUMP JUMPDEST PUSH1 0x1 SWAP2 DUP3 PUSH1 0x0 MSTORE PUSH1 0x6 DUP6 MSTORE PUSH1 0x40 PUSH1 0x0 KECCAK256 PUSH1 0x40 MLOAD SWAP1 PUSH2 0x1A92 DUP3 PUSH2 0x2143 JUMP JUMPDEST PUSH1 0xFF DUP6 DUP3 SLOAD SWAP3 DUP4 DUP6 MSTORE ADD SLOAD PUSH2 0xFFFF DUP2 AND DUP10 DUP6 ADD MSTORE DUP2 DUP2 PUSH1 0x10 SHR AND ISZERO ISZERO PUSH1 0x40 DUP6 ADD MSTORE PUSH1 0x18 SHR AND ISZERO ISZERO PUSH1 0x60 DUP4 ADD MSTORE DUP1 CALLVALUE LT PUSH2 0x1CEA JUMPI POP MLOAD SWAP4 PUSH1 0x41 DUP4 SUB PUSH2 0x1CCA JUMPI DUP3 ISZERO PUSH2 0xC74 JUMPI DUP1 CALLDATALOAD PUSH1 0xF8 SHR PUSH1 0x4 DUP2 SUB PUSH2 0xC5C JUMPI POP PUSH2 0x1AEF CALLDATASIZE DUP5 DUP4 PUSH2 0x245B JUMP JUMPDEST DUP7 DUP2 MLOAD SWAP2 ADD KECCAK256 SWAP5 DUP6 PUSH1 0x0 MSTORE PUSH1 0x3 DUP8 MSTORE DUP3 PUSH1 0x40 PUSH1 0x0 KECCAK256 SLOAD PUSH1 0xA0 SHR AND PUSH2 0x1CB1 JUMPI DUP1 CALLVALUE LT PUSH2 0xC25 JUMPI POP PUSH1 0x0 DUP6 DUP2 MSTORE PUSH1 0x3 DUP1 DUP9 MSTORE PUSH1 0x40 SWAP1 SWAP2 KECCAK256 DUP1 SLOAD PUSH1 0x1 PUSH1 0x1 PUSH1 0xE0 SHL SUB NOT AND CALLER PUSH8 0xFFFFFFFFFFFFFFFF PUSH1 0xA0 SHL NOT AND OR TIMESTAMP PUSH1 0xA0 SHL PUSH8 0xFFFFFFFFFFFFFFFF PUSH1 0xA0 SHL AND OR DUP2 SSTORE CALLVALUE PUSH1 0x2 DUP3 ADD SSTORE SWAP1 DUP2 ADD DUP1 SLOAD PUSH1 0xFF NOT SWAP1 DUP2 AND DUP8 OR SWAP1 SWAP2 SSTORE SWAP4 SWAP1 SWAP2 PUSH1 0x4 DUP4 ADD SWAP2 SWAP1 DUP5 DUP3 GT PUSH2 0x4FC JUMPI PUSH2 0x1B88 DUP3 PUSH2 0x3C0 DUP6 SLOAD PUSH2 0x20ED JUMP JUMPDEST PUSH1 0x0 SWAP1 PUSH1 0x1F DUP4 GT PUSH1 0x1 EQ PUSH2 0x1C47 JUMPI PUSH1 0x5 SWAP5 SWAP4 SWAP3 SWAP2 PUSH1 0x0 SWAP2 DUP4 PUSH2 0x1C3C JUMPI JUMPDEST POP POP PUSH1 0x0 NOT PUSH1 0x3 DUP4 SWAP1 SHL SHR NOT AND SWAP1 DUP8 SHL OR SWAP1 SSTORE JUMPDEST ADD DUP1 SLOAD PUSH2 0xFFFF PUSH1 0x60 SHL NOT AND PUSH2 0x271 PUSH1 0x63 SHL OR SWAP1 SSTORE PUSH1 0x5 SLOAD PUSH1 0x0 NOT DUP2 EQ PUSH2 0xB91 JUMPI DUP4 ADD PUSH1 0x5 SSTORE PUSH1 0x40 MLOAD SWAP1 CALLVALUE DUP3 MSTORE TIMESTAMP AND DUP6 DUP3 ADD MSTORE DUP4 PUSH1 0x0 DUP1 MLOAD PUSH1 0x20 PUSH2 0x2B00 DUP4 CODECOPY DUP2 MLOAD SWAP2 MSTORE PUSH1 0x40 CALLER SWAP4 LOG3 DUP3 PUSH1 0x0 MSTORE PUSH1 0x7 DUP5 MSTORE DUP2 PUSH1 0x40 PUSH1 0x0 KECCAK256 SWAP2 DUP3 SLOAD AND OR SWAP1 SSTORE DUP2 PUSH1 0x0 DUP1 MLOAD PUSH1 0x20 PUSH2 0x2B20 DUP4 CODECOPY DUP2 MLOAD SWAP2 MSTORE PUSH1 0x40 DUP1 MLOAD DUP5 DUP2 MSTORE CALLVALUE DUP8 DUP3 ADD MSTORE LOG2 DUP1 SSTORE PUSH1 0x40 MLOAD SWAP1 DUP2 MSTORE RETURN JUMPDEST ADD CALLDATALOAD SWAP1 POP DUP11 DUP1 PUSH2 0x1BA5 JUMP JUMPDEST SWAP2 DUP8 SWAP2 SWAP5 SWAP4 SWAP3 PUSH1 0x1F NOT DUP3 AND SWAP1 DUP5 PUSH1 0x0 MSTORE DUP12 PUSH1 0x0 KECCAK256 SWAP2 PUSH1 0x0 JUMPDEST DUP14 DUP3 DUP3 LT PUSH2 0x1C9B JUMPI POP POP SWAP7 DUP4 PUSH1 0x5 SWAP9 LT PUSH2 0x1C81 JUMPI JUMPDEST POP POP POP DUP2 SHL ADD SWAP1 SSTORE PUSH2 0x1BB9 JUMP JUMPDEST ADD CALLDATALOAD PUSH1 0x0 NOT PUSH1 0x3 DUP5 SWAP1 SHL PUSH1 0xF8 AND SHR NOT AND SWAP1 SSTORE DUP11 DUP1 DUP1 PUSH2 0x1C74 JUMP JUMPDEST DUP4 DUP11 ADD CALLDATALOAD DUP6 SSTORE SWAP9 DUP10 ADD SWAP9 DUP13 SWAP7 SWAP1 SWAP5 ADD SWAP4 ADD PUSH2 0x1C5F JUMP JUMPDEST PUSH1 0x40 MLOAD PUSH4 0x54C5DE7 PUSH1 0xE5 SHL DUP2 MSTORE PUSH1 0x4 DUP2 ADD DUP8 SWAP1 MSTORE PUSH1 0x24 SWAP1 REVERT JUMPDEST PUSH1 0x40 MLOAD PUSH4 0xB40A61B PUSH1 0xE2 SHL DUP2 MSTORE PUSH1 0x4 DUP2 ADD DUP5 SWAP1 MSTORE PUSH1 0x41 PUSH1 0x24 DUP3 ADD MSTORE PUSH1 0x44 SWAP1 REVERT JUMPDEST DUP5 PUSH1 0x64 SWAP2 PUSH1 0x40 MLOAD SWAP2 PUSH4 0xB1266C15 PUSH1 0xE0 SHL DUP4 MSTORE PUSH1 0x4 DUP4 ADD MSTORE CALLVALUE PUSH1 0x24 DUP4 ADD MSTORE PUSH1 0x44 DUP3 ADD MSTORE REVERT JUMPDEST CALLVALUE PUSH2 0x24F JUMPI PUSH1 0x20 CALLDATASIZE PUSH1 0x3 NOT ADD SLT PUSH2 0x24F JUMPI PUSH1 0x1 PUSH1 0x1 PUSH1 0xA0 SHL SUB PUSH2 0x1D2F PUSH2 0x20D7 JUMP JUMPDEST AND PUSH1 0x0 MSTORE PUSH1 0x8 PUSH1 0x20 MSTORE PUSH1 0x20 PUSH1 0xFF PUSH1 0x40 PUSH1 0x0 KECCAK256 SLOAD AND PUSH1 0x40 MLOAD SWAP1 ISZERO ISZERO DUP2 MSTORE RETURN JUMPDEST CALLVALUE PUSH2 0x24F JUMPI PUSH1 0x0 CALLDATASIZE PUSH1 0x3 NOT ADD SLT PUSH2 0x24F JUMPI PUSH1 0x20 PUSH1 0xFF PUSH1 0x9 SLOAD AND PUSH1 0x40 MLOAD SWAP1 ISZERO ISZERO DUP2 MSTORE RETURN JUMPDEST CALLVALUE PUSH2 0x24F JUMPI PUSH1 0x20 CALLDATASIZE PUSH1 0x3 NOT ADD SLT PUSH2 0x24F JUMPI PUSH1 0x1 PUSH1 0x1 PUSH1 0xA0 SHL SUB PUSH2 0x1D91 PUSH2 0x20D7 JUMP JUMPDEST AND PUSH1 0x0 MSTORE PUSH1 0x4 PUSH1 0x20 MSTORE PUSH1 0x20 PUSH1 0xFF PUSH1 0x40 PUSH1 0x0 KECCAK256 SLOAD AND PUSH1 0x40 MLOAD SWAP1 ISZERO ISZERO DUP2 MSTORE RETURN JUMPDEST CALLVALUE PUSH2 0x24F JUMPI PUSH1 0x20 CALLDATASIZE PUSH1 0x3 NOT ADD SLT PUSH2 0x24F JUMPI PUSH1 0x20 PUSH2 0xDD0 PUSH1 0x4 CALLDATALOAD PUSH2 0x29D9 JUMP JUMPDEST CALLVALUE PUSH2 0x24F JUMPI PUSH1 0x20 CALLDATASIZE PUSH1 0x3 NOT ADD SLT PUSH2 0x24F JUMPI PUSH1 0x1 PUSH1 0x1 PUSH1 0xA0 SHL SUB PUSH2 0x1DEE PUSH2 0x20D7 JUMP JUMPDEST AND PUSH1 0x0 MSTORE PUSH1 0xB PUSH1 0x20 MSTORE PUSH1 0x40 PUSH1 0x0 KECCAK256 DUP1 SLOAD PUSH2 0x136F PUSH1 0x1 DUP4 ADD SLOAD SWAP3 PUSH2 0x1E1B PUSH1 0x3 PUSH1 0xFF PUSH1 0x2 DUP5 ADD SLOAD AND SWAP3 ADD PUSH2 0x217F JUMP JUMPDEST SWAP1 PUSH1 0x40 MLOAD SWAP5 DUP6 SWAP5 DUP6 MSTORE PUSH1 0x20 DUP6 ADD MSTORE ISZERO ISZERO PUSH1 0x40 DUP5 ADD MSTORE PUSH1 0x80 PUSH1 0x60 DUP5 ADD MSTORE PUSH1 0x80 DUP4 ADD SWAP1 PUSH2 0x2248 JUMP JUMPDEST CALLVALUE PUSH2 0x24F JUMPI PUSH1 0x20 CALLDATASIZE PUSH1 0x3 NOT ADD SLT PUSH2 0x24F JUMPI PUSH1 0x4 CALLDATALOAD DUP1 PUSH1 0x0 MSTORE PUSH1 0x3 PUSH1 0x20 MSTORE PUSH1 0x40 PUSH1 0x0 KECCAK256 SWAP1 DUP2 SLOAD PUSH1 0x1 PUSH1 0x1 PUSH1 0x40 SHL SUB SWAP1 DUP2 DUP2 PUSH1 0xA0 SHR AND ISZERO PUSH2 0x107C JUMPI PUSH1 0x3 DUP5 ADD SWAP1 DUP2 SLOAD SWAP1 PUSH1 0xFF DUP3 AND ISZERO PUSH2 0x1EE9 JUMPI CALLER PUSH1 0x1 PUSH1 0x1 PUSH1 0xA0 SHL SUB SWAP1 SWAP2 AND SUB PUSH2 0x105D JUMPI SWAP1 PUSH1 0x1 SWAP3 SWAP2 PUSH1 0xFF NOT AND SWAP1 SSTORE TIMESTAMP AND SWAP3 ADD DUP3 PUSH1 0x1 PUSH1 0x1 PUSH1 0x40 SHL SUB NOT DUP3 SLOAD AND OR SWAP1 SSTORE PUSH1 0x40 MLOAD SWAP2 DUP3 MSTORE PUSH32 0x19A0C1F77BD7E2409F74AB3D9F512E7655A3B9B413B21828E6864684A1CE5F1F PUSH1 0x20 CALLER SWAP4 LOG3 STOP JUMPDEST PUSH1 0x40 MLOAD PUSH4 0x159C7175 PUSH1 0xE1 SHL DUP2 MSTORE PUSH1 0x4 DUP2 ADD DUP7 SWAP1 MSTORE PUSH1 0x24 SWAP1 REVERT JUMPDEST CALLVALUE PUSH2 0x24F JUMPI PUSH1 0x80 CALLDATASIZE PUSH1 0x3 NOT ADD SLT PUSH2 0x24F JUMPI PUSH1 0x4 CALLDATALOAD SWAP1 PUSH4 0xFFFFFFFF SWAP1 PUSH1 0x24 CALLDATALOAD DUP3 DUP2 AND DUP2 SUB PUSH2 0x24F JUMPI PUSH1 0x44 CALLDATALOAD SWAP2 DUP4 DUP4 AND DUP4 SUB PUSH2 0x24F JUMPI PUSH1 0x64 CALLDATALOAD DUP5 DUP2 AND DUP2 SUB PUSH2 0x24F JUMPI CALLER PUSH1 0x0 MSTORE PUSH1 0x20 SWAP2 PUSH1 0x4 DUP4 MSTORE PUSH1 0xFF PUSH1 0x40 PUSH1 0x0 KECCAK256 SLOAD AND ISZERO DUP1 PUSH2 0x20C2 JUMPI JUMPDEST PUSH2 0x20AD JUMPI POP DUP6 PUSH1 0x0 MSTORE PUSH1 0x3 DUP3 MSTORE PUSH1 0x40 PUSH1 0x0 KECCAK256 PUSH1 0x1 PUSH1 0x1 PUSH1 0x40 SHL SUB DUP2 SLOAD PUSH1 0xA0 SHR AND ISZERO PUSH2 0x2094 JUMPI SWAP5 DUP1 SWAP4 DUP2 SWAP4 PUSH1 0xA0 SWAP7 SWAP4 PUSH12 0xFFFFFFFF0000000000000000 PUSH2 0x200E PUSH8 0xFFFFFFFF00000000 PUSH2 0x1FF0 DUP8 PUSH2 0x1FDB PUSH1 0x5 PUSH32 0xC0AF51C21917D3EC881A16C91E89B23E795ADA618D453130B1986C332A6083AB SWAP16 ADD SWAP9 DUP10 SLOAD SWAP14 DUP15 AND PUSH2 0x237F JUMP JUMPDEST AND SWAP9 PUSH4 0xFFFFFFFF NOT DUP13 AND DUP11 OR DUP8 SHR DUP10 AND PUSH2 0x237F JUMP JUMPDEST DUP6 SHL AND SWAP3 PUSH8 0xFFFFFFFFFFFFFFFF NOT DUP11 AND DUP9 OR DUP5 OR PUSH1 0x40 SHR DUP8 AND PUSH2 0x237F JUMP JUMPDEST PUSH1 0x40 SHL AND DUP1 DUP7 PUSH12 0xFFFFFFFFFFFFFFFFFFFFFFFF NOT DUP11 AND OR DUP4 OR OR PUSH2 0x2043 PUSH2 0xFFFF PUSH1 0x60 SHL SWAP2 DUP8 DUP1 DUP3 PUSH1 0x40 SHR AND SWAP2 DUP8 SHR AND DUP10 PUSH2 0x2397 JUMP JUMPDEST PUSH1 0x60 SHL AND SWAP2 DUP7 PUSH14 0xFFFFFFFFFFFFFFFFFFFFFFFFFFFF NOT DUP11 AND OR OR OR OR SWAP4 DUP5 DUP1 SWAP4 SSTORE PUSH1 0x40 MLOAD SWAP7 PUSH2 0xFFFF DUP1 SWAP2 PUSH1 0x60 SHR AND DUP9 MSTORE DUP4 PUSH1 0x60 SHR AND DUP3 DUP9 ADD MSTORE PUSH1 0x40 DUP8 ADD MSTORE SHR AND PUSH1 0x60 DUP5 ADD MSTORE PUSH1 0x40 SHR AND PUSH1 0x80 DUP3 ADD MSTORE LOG2 STOP JUMPDEST PUSH1 0x40 MLOAD PUSH4 0xE5AAB9E5 PUSH1 0xE0 SHL DUP2 MSTORE PUSH1 0x4 DUP2 ADD DUP9 SWAP1 MSTORE PUSH1 0x24 SWAP1 REVERT JUMPDEST PUSH4 0x18856B87 PUSH1 0xE1 SHL DUP2 MSTORE CALLER PUSH1 0x4 DUP3 ADD MSTORE PUSH1 0x24 SWAP1 REVERT JUMPDEST POP PUSH1 0x0 SLOAD PUSH1 0x1 PUSH1 0x1 PUSH1 0xA0 SHL SUB AND CALLER EQ ISZERO PUSH2 0x1F5D JUMP JUMPDEST PUSH1 0x4 CALLDATALOAD SWAP1 PUSH1 0x1 PUSH1 0x1 PUSH1 0xA0 SHL SUB DUP3 AND DUP3 SUB PUSH2 0x24F JUMPI JUMP JUMPDEST SWAP1 PUSH1 0x1 DUP3 DUP2 SHR SWAP3 AND DUP1 ISZERO PUSH2 0x211D JUMPI JUMPDEST PUSH1 0x20 DUP4 LT EQ PUSH2 0x2107 JUMPI JUMP JUMPDEST PUSH4 0x4E487B71 PUSH1 0xE0 SHL PUSH1 0x0 MSTORE PUSH1 0x22 PUSH1 0x4 MSTORE PUSH1 0x24 PUSH1 0x0 REVERT JUMPDEST SWAP2 PUSH1 0x7F AND SWAP2 PUSH2 0x20FC JUMP JUMPDEST PUSH2 0x140 DUP2 ADD SWAP1 DUP2 LT PUSH1 0x1 PUSH1 0x1 PUSH1 0x40 SHL SUB DUP3 GT OR PUSH2 0x4FC JUMPI PUSH1 0x40 MSTORE JUMP JUMPDEST PUSH1 0x80 DUP2 ADD SWAP1 DUP2 LT PUSH1 0x1 PUSH1 0x1 PUSH1 0x40 SHL SUB DUP3 GT OR PUSH2 0x4FC JUMPI PUSH1 0x40 MSTORE JUMP JUMPDEST SWAP1 PUSH1 0x1F DUP1 NOT SWAP2 ADD AND DUP2 ADD SWAP1 DUP2 LT PUSH1 0x1 PUSH1 0x1 PUSH1 0x40 SHL SUB DUP3 GT OR PUSH2 0x4FC JUMPI PUSH1 0x40 MSTORE JUMP JUMPDEST SWAP1 PUSH1 0x40 MLOAD SWAP2 DUP3 PUSH1 0x0 DUP3 SLOAD SWAP3 PUSH2 0x2193 DUP5 PUSH2 0x20ED JUMP JUMPDEST SWAP1 DUP2 DUP5 MSTORE PUSH1 0x1 SWAP5 DUP6 DUP2 AND SWAP1 DUP2 PUSH1 0x0 EQ PUSH2 0x2202 JUMPI POP PUSH1 0x1 EQ PUSH2 0x21BF JUMPI JUMPDEST POP POP PUSH2 0x21BD SWAP3 POP SUB DUP4 PUSH2 0x215E JUMP JUMPDEST JUMP JUMPDEST SWAP1 SWAP4 SWAP2 POP PUSH1 0x0 MSTORE PUSH1 0x20 SWAP1 DUP2 PUSH1 0x0 KECCAK256 SWAP4 PUSH1 0x0 SWAP2 JUMPDEST DUP2 DUP4 LT PUSH2 0x21EA JUMPI POP POP PUSH2 0x21BD SWAP4 POP DUP3 ADD ADD CODESIZE DUP1 PUSH2 0x21AF JUMP JUMPDEST DUP6 SLOAD DUP9 DUP5 ADD DUP6 ADD MSTORE SWAP5 DUP6 ADD SWAP5 DUP8 SWAP5 POP SWAP2 DUP4 ADD SWAP2 PUSH2 0x21D2 JUMP JUMPDEST SWAP2 POP POP PUSH2 0x21BD SWAP5 POP PUSH1 0x20 SWAP3 POP PUSH1 0xFF NOT AND DUP3 DUP5 ADD MSTORE ISZERO ISZERO PUSH1 0x5 SHL DUP3 ADD ADD CODESIZE DUP1 PUSH2 0x21AF JUMP JUMPDEST PUSH1 0x0 JUMPDEST DUP4 DUP2 LT PUSH2 0x2238 JUMPI POP POP PUSH1 0x0 SWAP2 ADD MSTORE JUMP JUMPDEST DUP2 DUP2 ADD MLOAD DUP4 DUP3 ADD MSTORE PUSH1 0x20 ADD PUSH2 0x2228 JUMP JUMPDEST SWAP1 PUSH1 0x20 SWAP2 PUSH2 0x2261 DUP2 MLOAD DUP1 SWAP3 DUP2 DUP6 MSTORE DUP6 DUP1 DUP7 ADD SWAP2 ADD PUSH2 0x2225 JUMP JUMPDEST PUSH1 0x1F ADD PUSH1 0x1F NOT AND ADD ADD SWAP1 JUMP JUMPDEST SWAP2 DUP2 PUSH1 0x1F DUP5 ADD SLT ISZERO PUSH2 0x24F JUMPI DUP3 CALLDATALOAD SWAP2 PUSH1 0x1 PUSH1 0x1 PUSH1 0x40 SHL SUB DUP4 GT PUSH2 0x24F JUMPI PUSH1 0x20 DUP4 DUP2 DUP7 ADD SWAP6 ADD ADD GT PUSH2 0x24F JUMPI JUMP JUMPDEST SWAP1 PUSH1 0x3 DUP3 LT ISZERO PUSH2 0x22A7 JUMPI MSTORE JUMP JUMPDEST PUSH4 0x4E487B71 PUSH1 0xE0 SHL PUSH1 0x0 MSTORE PUSH1 0x21 PUSH1 0x4 MSTORE PUSH1 0x24 PUSH1 0x0 REVERT JUMPDEST PUSH1 0x3 DUP2 LT ISZERO PUSH2 0x22A7 JUMPI PUSH1 0x0 MSTORE PUSH1 0x6 PUSH1 0x20 MSTORE PUSH1 0x40 PUSH1 0x0 KECCAK256 SWAP1 JUMP JUMPDEST PUSH1 0x24 CALLDATALOAD SWAP1 DUP2 ISZERO ISZERO DUP3 SUB PUSH2 0x24F JUMPI JUMP JUMPDEST PUSH1 0x0 SLOAD PUSH1 0x1 PUSH1 0x1 PUSH1 0xA0 SHL SUB AND CALLER SUB PUSH2 0x22F9 JUMPI JUMP JUMPDEST PUSH1 0x40 MLOAD PUSH4 0x118CDAA7 PUSH1 0xE0 SHL DUP2 MSTORE CALLER PUSH1 0x4 DUP3 ADD MSTORE PUSH1 0x24 SWAP1 REVERT JUMPDEST PUSH1 0x1 PUSH1 0x1 PUSH1 0x40 SHL SUB DUP2 GT PUSH2 0x4FC JUMPI PUSH1 0x1F ADD PUSH1 0x1F NOT AND PUSH1 0x20 ADD SWAP1 JUMP JUMPDEST RETURNDATASIZE ISZERO PUSH2 0x2357 JUMPI RETURNDATASIZE SWAP1 PUSH2 0x233D DUP3 PUSH2 0x2311 JUMP JUMPDEST SWAP2 PUSH2 0x234B PUSH1 0x40 MLOAD SWAP4 DUP5 PUSH2 0x215E JUMP JUMPDEST DUP3 MSTORE RETURNDATASIZE PUSH1 0x0 PUSH1 0x20 DUP5 ADD RETURNDATACOPY JUMP JUMPDEST PUSH1 0x60 SWAP1 JUMP JUMPDEST PUSH1 0x2 PUSH1 0x1 SLOAD EQ PUSH2 0x236D JUMPI PUSH1 0x2 PUSH1 0x1 SSTORE JUMP JUMPDEST PUSH1 0x40 MLOAD PUSH4 0x3EE5AEB5 PUSH1 0xE0 SHL DUP2 MSTORE PUSH1 0x4 SWAP1 REVERT JUMPDEST SWAP2 SWAP1 SWAP2 PUSH4 0xFFFFFFFF DUP1 DUP1 SWAP5 AND SWAP2 AND ADD SWAP2 DUP3 GT PUSH2 0xB91 JUMPI JUMP JUMPDEST PUSH2 0x2710 SWAP3 SWAP2 SWAP1 PUSH4 0xFFFFFFFF SWAP1 DUP2 AND DUP5 DUP2 GT ISZERO PUSH2 0x2455 JUMPI POP DUP4 SWAP3 JUMPDEST PUSH5 0x1FFFFFFFE DUP3 DUP5 AND SWAP4 PUSH1 0x1 SHL AND SWAP3 DUP1 DUP5 DIV PUSH1 0x2 EQ SWAP1 ISZERO OR ISZERO PUSH2 0xB91 JUMPI AND SWAP1 PUSH1 0xA DUP3 MUL SWAP2 DUP1 DUP4 DIV PUSH1 0xA EQ SWAP1 ISZERO OR ISZERO PUSH2 0xB91 JUMPI DUP3 ADD DUP1 SWAP3 GT PUSH2 0xB91 JUMPI DUP2 DUP2 LT ISZERO PUSH2 0x244D JUMPI DUP1 DUP3 SUB SWAP2 DUP1 DUP4 GT PUSH2 0xB91 JUMPI DUP3 DUP5 MUL SWAP2 EQ DUP3 DUP3 DIV DUP5 EQ OR ISZERO PUSH2 0xB91 JUMPI PUSH2 0x3E8 DUP3 ADD DUP1 SWAP3 GT PUSH2 0xB91 JUMPI DUP2 ISZERO PUSH2 0x2437 JUMPI DIV DUP2 DUP2 GT ISZERO PUSH2 0x242E JUMPI POP SWAP1 JUMP JUMPDEST PUSH2 0xFFFF SWAP2 POP AND SWAP1 JUMP JUMPDEST PUSH4 0x4E487B71 PUSH1 0xE0 SHL PUSH1 0x0 MSTORE PUSH1 0x12 PUSH1 0x4 MSTORE PUSH1 0x24 PUSH1 0x0 REVERT JUMPDEST POP POP POP PUSH1 0x0 SWAP1 JUMP JUMPDEST SWAP3 PUSH2 0x23B1 JUMP JUMPDEST SWAP3 SWAP2 SWAP3 PUSH2 0x2467 DUP3 PUSH2 0x2311 JUMP JUMPDEST SWAP2 PUSH2 0x2475 PUSH1 0x40 MLOAD SWAP4 DUP5 PUSH2 0x215E JUMP JUMPDEST DUP3 SWAP5 DUP2 DUP5 MSTORE DUP2 DUP4 ADD GT PUSH2 0x24F JUMPI DUP3 DUP2 PUSH1 0x20 SWAP4 DUP5 PUSH1 0x0 SWAP7 ADD CALLDATACOPY ADD ADD MSTORE JUMP JUMPDEST MLOAD SWAP1 PUSH1 0x1 PUSH1 0x1 PUSH1 0x40 SHL SUB DUP3 AND DUP3 SUB PUSH2 0x24F JUMPI JUMP JUMPDEST MLOAD SWAP1 DUP2 ISZERO ISZERO DUP3 SUB PUSH2 0x24F JUMPI JUMP JUMPDEST MLOAD SWAP1 PUSH4 0xFFFFFFFF DUP3 AND DUP3 SUB PUSH2 0x24F JUMPI JUMP JUMPDEST SWAP1 SWAP2 PUSH1 0x0 SWAP2 PUSH1 0x2 DUP4 MSTORE PUSH1 0x20 PUSH1 0x6 DUP2 MSTORE PUSH1 0x40 SWAP1 DUP2 DUP6 KECCAK256 SWAP6 DUP3 MLOAD PUSH2 0x24E5 DUP2 PUSH2 0x2143 JUMP JUMPDEST DUP8 SLOAD DUP1 DUP3 MSTORE PUSH1 0xFF PUSH1 0x1 DUP1 SWAP11 ADD SLOAD PUSH2 0xFFFF DUP2 AND DUP7 DUP6 ADD MSTORE DUP2 DUP2 PUSH1 0x10 SHR AND ISZERO ISZERO DUP8 DUP6 ADD MSTORE PUSH1 0x18 SHR AND ISZERO ISZERO PUSH1 0x60 DUP4 ADD MSTORE DUP1 CALLVALUE LT PUSH2 0x279C JUMPI POP MLOAD PUSH1 0x41 DUP3 SUB PUSH2 0x277D JUMPI DUP2 ISZERO PUSH2 0x2769 JUMPI PUSH1 0x4 SWAP8 DUP6 CALLDATALOAD PUSH1 0xF8 SHR PUSH1 0x3 NOT DUP2 ADD PUSH2 0x2753 JUMPI POP PUSH2 0x2546 CALLDATASIZE DUP5 DUP9 PUSH2 0x245B JUMP JUMPDEST DUP5 DUP2 MLOAD SWAP2 ADD KECCAK256 SWAP6 DUP7 DUP10 MSTORE PUSH1 0x3 DUP6 MSTORE PUSH1 0x1 PUSH1 0x1 PUSH1 0x40 SHL SUB SWAP3 DUP4 DUP8 DUP12 KECCAK256 SLOAD PUSH1 0xA0 SHR AND PUSH2 0x273C JUMPI DUP1 CALLVALUE LT PUSH2 0x271E JUMPI POP DUP7 DUP10 MSTORE PUSH1 0x3 DUP1 DUP7 MSTORE DUP7 DUP11 KECCAK256 DUP1 SLOAD PUSH1 0x1 PUSH1 0x1 PUSH1 0xE0 SHL SUB NOT AND CALLER PUSH8 0xFFFFFFFFFFFFFFFF PUSH1 0xA0 SHL NOT AND OR TIMESTAMP PUSH1 0xA0 SHL PUSH8 0xFFFFFFFFFFFFFFFF PUSH1 0xA0 SHL AND OR DUP2 SSTORE CALLVALUE PUSH1 0x2 DUP3 ADD SSTORE SWAP1 DUP2 ADD DUP1 SLOAD PUSH1 0xFF NOT SWAP1 DUP2 AND DUP6 OR SWAP1 SWAP2 SSTORE SWAP5 DUP12 DUP3 ADD SWAP1 DUP6 DUP2 GT PUSH2 0x270B JUMPI PUSH2 0x25E3 DUP2 PUSH2 0x25DD DUP5 SLOAD PUSH2 0x20ED JUMP JUMPDEST DUP5 PUSH2 0x27C0 JUMP JUMPDEST DUP12 SWAP4 DUP13 PUSH1 0x1F DUP4 GT PUSH1 0x1 EQ PUSH2 0x26A9 JUMPI PUSH1 0x5 SWAP6 SWAP1 SWAP2 DUP4 PUSH2 0x269E JUMPI JUMPDEST POP POP PUSH1 0x0 NOT PUSH1 0x3 DUP4 SWAP1 SHL SHR NOT AND SWAP1 DUP6 SHL OR SWAP1 SSTORE JUMPDEST ADD DUP1 SLOAD PUSH2 0xFFFF PUSH1 0x60 SHL NOT AND PUSH2 0x271 PUSH1 0x63 SHL OR SWAP1 SSTORE PUSH1 0x5 SLOAD PUSH1 0x0 NOT DUP2 EQ PUSH2 0x268B JUMPI PUSH1 0x0 DUP1 MLOAD PUSH1 0x20 PUSH2 0x2B20 DUP4 CODECOPY DUP2 MLOAD SWAP2 MSTORE SWAP7 SWAP8 SWAP9 SWAP10 POP ADD PUSH1 0x5 SSTORE DUP4 MLOAD SWAP1 CALLVALUE DUP3 MSTORE TIMESTAMP AND DUP4 DUP3 ADD MSTORE DUP6 PUSH1 0x0 DUP1 MLOAD PUSH1 0x20 PUSH2 0x2B00 DUP4 CODECOPY DUP2 MLOAD SWAP2 MSTORE DUP6 CALLER SWAP4 LOG3 PUSH1 0x2 DUP4 DUP7 SWAP9 DUP8 DUP2 MSTORE PUSH1 0x7 DUP6 MSTORE KECCAK256 SWAP2 DUP3 SLOAD AND OR SWAP1 SSTORE DUP2 MLOAD SWAP1 PUSH1 0x2 DUP3 MSTORE CALLVALUE SWAP1 DUP3 ADD MSTORE LOG2 JUMP JUMPDEST PUSH4 0x4E487B71 PUSH1 0xE0 SHL DUP10 MSTORE PUSH1 0x11 DUP11 MSTORE PUSH1 0x24 DUP10 REVERT JUMPDEST ADD CALLDATALOAD SWAP1 POP CODESIZE DUP1 PUSH2 0x25FC JUMP JUMPDEST DUP7 SWAP3 SWAP2 PUSH1 0x1F NOT DUP4 AND DUP6 DUP4 MSTORE DUP12 DUP4 KECCAK256 SWAP3 JUMPDEST DUP13 DUP3 DUP3 LT PUSH2 0x26F5 JUMPI POP POP SWAP7 DUP4 PUSH1 0x5 SWAP9 LT PUSH2 0x26DB JUMPI JUMPDEST POP POP POP DUP2 SHL ADD SWAP1 SSTORE PUSH2 0x2610 JUMP JUMPDEST ADD CALLDATALOAD PUSH1 0x0 NOT PUSH1 0x3 DUP5 SWAP1 SHL PUSH1 0xF8 AND SHR NOT AND SWAP1 SSTORE CODESIZE DUP1 DUP1 PUSH2 0x26CE JUMP JUMPDEST DUP4 DUP11 ADD CALLDATALOAD DUP6 SSTORE SWAP9 DUP10 ADD SWAP9 DUP11 SWAP7 SWAP1 SWAP5 ADD SWAP4 ADD PUSH2 0x26B9 JUMP JUMPDEST PUSH4 0x4E487B71 PUSH1 0xE0 SHL DUP13 MSTORE PUSH1 0x41 DUP14 MSTORE PUSH1 0x24 DUP13 REVERT JUMPDEST DUP7 MLOAD PUSH4 0x12E1FA37 PUSH1 0xE1 SHL DUP2 MSTORE CALLVALUE DUP2 DUP14 ADD MSTORE PUSH1 0x24 DUP2 ADD SWAP2 SWAP1 SWAP2 MSTORE PUSH1 0x44 SWAP1 REVERT JUMPDEST DUP7 MLOAD PUSH4 0x54C5DE7 PUSH1 0xE5 SHL DUP2 MSTORE DUP1 DUP13 ADD DUP10 SWAP1 MSTORE PUSH1 0x24 SWAP1 REVERT JUMPDEST DUP10 PUSH1 0x24 SWAP2 DUP8 MLOAD SWAP2 PUSH4 0x7B609311 PUSH1 0xE1 SHL DUP4 MSTORE DUP3 ADD MSTORE REVERT JUMPDEST PUSH4 0x4E487B71 PUSH1 0xE0 SHL DUP8 MSTORE PUSH1 0x32 PUSH1 0x4 MSTORE PUSH1 0x24 DUP8 REVERT JUMPDEST DUP4 MLOAD PUSH4 0xB40A61B PUSH1 0xE2 SHL DUP2 MSTORE PUSH1 0x4 DUP2 ADD DUP4 SWAP1 MSTORE PUSH1 0x41 PUSH1 0x24 DUP3 ADD MSTORE PUSH1 0x44 SWAP1 REVERT JUMPDEST PUSH1 0x64 SWAP1 DUP6 MLOAD SWAP1 PUSH4 0xB1266C15 PUSH1 0xE0 SHL DUP3 MSTORE PUSH1 0x2 PUSH1 0x4 DUP4 ADD MSTORE CALLVALUE PUSH1 0x24 DUP4 ADD MSTORE PUSH1 0x44 DUP3 ADD MSTORE REVERT JUMPDEST SWAP1 PUSH1 0x1F DUP2 GT PUSH2 0x27CE JUMPI POP POP POP JUMP JUMPDEST PUSH1 0x0 SWAP2 DUP3 MSTORE PUSH1 0x20 DUP3 KECCAK256 SWAP1 PUSH1 0x20 PUSH1 0x1F DUP6 ADD PUSH1 0x5 SHR DUP4 ADD SWAP5 LT PUSH2 0x280A JUMPI JUMPDEST PUSH1 0x1F ADD PUSH1 0x5 SHR ADD SWAP2 JUMPDEST DUP3 DUP2 LT PUSH2 0x27FF JUMPI POP POP POP JUMP JUMPDEST DUP2 DUP2 SSTORE PUSH1 0x1 ADD PUSH2 0x27F3 JUMP JUMPDEST SWAP1 SWAP3 POP DUP3 SWAP1 PUSH2 0x27EA JUMP JUMPDEST PUSH1 0x40 SUB PUSH2 0x2838 JUMPI PUSH1 0xFF PUSH1 0x9 SLOAD AND ISZERO PUSH2 0x21BD JUMPI PUSH1 0x40 MLOAD PUSH4 0x3554A145 PUSH1 0xE1 SHL DUP2 MSTORE PUSH1 0x4 SWAP1 REVERT JUMPDEST PUSH1 0x40 MLOAD PUSH3 0x1687C9 PUSH1 0xEB SHL DUP2 MSTORE PUSH1 0x4 SWAP1 REVERT JUMPDEST SWAP1 SWAP2 SWAP4 SWAP3 SWAP4 PUSH1 0x40 SWAP4 DUP5 DUP7 SUB PUSH2 0x29C9 JUMPI PUSH1 0xFF PUSH1 0x9 SLOAD AND ISZERO PUSH2 0x29C1 JUMPI PUSH1 0x1 DUP1 PUSH1 0xA0 SHL SUB AND SWAP1 PUSH1 0x0 SWAP4 DUP3 DUP6 MSTORE PUSH1 0x20 SWAP4 PUSH1 0xB DUP6 MSTORE DUP7 DUP7 KECCAK256 SWAP2 DUP8 MLOAD SWAP5 PUSH2 0x2889 DUP7 PUSH2 0x2143 JUMP JUMPDEST DUP4 SLOAD DUP7 MSTORE PUSH1 0x1 DUP5 ADD SLOAD SWAP4 DUP8 DUP8 ADD SWAP5 DUP6 MSTORE PUSH2 0x28B5 PUSH1 0x3 PUSH1 0xFF PUSH1 0x2 DUP5 ADD SLOAD AND SWAP3 DUP13 DUP11 ADD SWAP4 ISZERO ISZERO DUP5 MSTORE ADD PUSH2 0x217F JUMP JUMPDEST PUSH1 0x60 DUP9 ADD MSTORE DUP7 MLOAD ISZERO DUP1 PUSH2 0x29B8 JUMPI JUMPDEST PUSH2 0x29A0 JUMPI MLOAD ISZERO PUSH2 0x2989 JUMPI POP PUSH1 0x80 DUP9 DUP9 SWAP7 SWAP5 PUSH2 0x28E5 DUP9 SWAP8 SWAP6 PUSH2 0x291B SWAP6 CALLDATASIZE SWAP2 PUSH2 0x245B JUMP JUMPDEST DUP10 DUP2 MLOAD SWAP2 ADD KECCAK256 SWAP12 DUP13 SWAP7 MLOAD SWAP2 MLOAD SWAP1 DUP1 DUP5 MLOAD SWAP8 DUP9 SWAP6 DUP14 DUP8 ADD SWAP11 DUP12 MSTORE DUP7 ADD CALLDATACOPY DUP4 ADD SWAP2 DUP13 DUP4 ADD MSTORE PUSH1 0x60 DUP3 ADD MSTORE SUB PUSH1 0x60 DUP2 ADD DUP5 MSTORE ADD DUP3 PUSH2 0x215E JUMP JUMPDEST MLOAD SWAP1 PUSH2 0x100 GAS STATICCALL SWAP2 PUSH2 0x292B PUSH2 0x232C JUMP JUMPDEST SWAP1 DUP4 PUSH2 0x297C JUMPI JUMPDEST DUP4 PUSH2 0x295B JUMPI JUMPDEST POP POP POP ISZERO PUSH2 0x2944 JUMPI POP POP JUMP JUMPDEST PUSH1 0x24 SWAP3 POP MLOAD SWAP1 PUSH4 0x49C696D PUSH1 0xE3 SHL DUP3 MSTORE PUSH1 0x4 DUP3 ADD MSTORE REVERT JUMPDEST SWAP1 SWAP2 DUP1 SWAP4 POP DUP3 DUP1 MLOAD DUP2 ADD SUB SLT PUSH2 0x2979 JUMPI POP ADD MLOAD PUSH1 0x1 EQ CODESIZE DUP1 DUP1 PUSH2 0x2938 JUMP JUMPDEST DUP1 REVERT JUMPDEST SWAP3 POP DUP2 DUP2 MLOAD LT ISZERO SWAP3 PUSH2 0x2932 JUMP JUMPDEST PUSH1 0x24 SWAP1 DUP10 MLOAD SWAP1 PUSH4 0x2F40CB1 PUSH1 0xE6 SHL DUP3 MSTORE PUSH1 0x4 DUP3 ADD MSTORE REVERT JUMPDEST DUP10 MLOAD PUSH4 0x56DBE44B PUSH1 0xE0 SHL DUP2 MSTORE PUSH1 0x4 DUP2 ADD DUP4 SWAP1 MSTORE PUSH1 0x24 SWAP1 REVERT JUMPDEST POP DUP5 MLOAD ISZERO PUSH2 0x28C3 JUMP JUMPDEST POP POP POP POP POP POP JUMP JUMPDEST DUP5 MLOAD PUSH3 0x1687C9 PUSH1 0xEB SHL DUP2 MSTORE PUSH1 0x4 SWAP1 REVERT JUMPDEST PUSH1 0x40 MLOAD PUSH4 0x5EC8FE6B PUSH1 0xE0 SHL DUP2 MSTORE PUSH1 0x4 DUP2 ADD DUP3 SWAP1 MSTORE PUSH1 0x20 DUP2 PUSH1 0x24 DUP2 ADDRESS GAS STATICCALL SWAP1 DUP2 ISZERO PUSH2 0x19AA JUMPI PUSH1 0x0 SWAP2 PUSH2 0x2A36 JUMPI JUMPDEST POP ISZERO PUSH2 0x2A30 JUMPI PUSH1 0x0 MSTORE PUSH1 0x7 PUSH1 0x20 MSTORE PUSH1 0xFF PUSH1 0x1 PUSH2 0x2A27 DUP3 PUSH1 0x40 PUSH1 0x0 KECCAK256 SLOAD AND PUSH2 0x22BD JUMP JUMPDEST ADD SLOAD PUSH1 0x10 SHR AND SWAP1 JUMP JUMPDEST POP PUSH1 0x0 SWAP1 JUMP JUMPDEST SWAP1 PUSH1 0x20 DUP3 RETURNDATASIZE DUP3 GT PUSH2 0x2A67 JUMPI JUMPDEST DUP2 PUSH2 0x2A4F PUSH1 0x20 SWAP4 DUP4 PUSH2 0x215E JUMP JUMPDEST DUP2 ADD SUB SLT PUSH2 0x2979 JUMPI POP PUSH2 0x2A61 SWAP1 PUSH2 0x24A6 JUMP JUMPDEST CODESIZE PUSH2 0x2A05 JUMP JUMPDEST RETURNDATASIZE SWAP2 POP PUSH2 0x2A42 JUMP JUMPDEST PUSH1 0x40 MLOAD PUSH4 0x5EC8FE6B PUSH1 0xE0 SHL DUP2 MSTORE PUSH1 0x4 DUP2 ADD DUP3 SWAP1 MSTORE PUSH1 0x20 DUP2 PUSH1 0x24 DUP2 ADDRESS GAS STATICCALL SWAP1 DUP2 ISZERO PUSH2 0x19AA JUMPI PUSH1 0x0 SWAP2 PUSH2 0x2AC6 JUMPI JUMPDEST POP ISZERO PUSH2 0x2A30 JUMPI PUSH1 0x0 MSTORE PUSH1 0x7 PUSH1 0x20 MSTORE PUSH1 0xFF PUSH1 0x1 PUSH2 0x2ABD DUP3 PUSH1 0x40 PUSH1 0x0 KECCAK256 SLOAD AND PUSH2 0x22BD JUMP JUMPDEST ADD SLOAD PUSH1 0x18 SHR AND SWAP1 JUMP JUMPDEST SWAP1 PUSH1 0x20 DUP3 RETURNDATASIZE DUP3 GT PUSH2 0x2AF7 JUMPI JUMPDEST DUP2 PUSH2 0x2ADF PUSH1 0x20 SWAP4 DUP4 PUSH2 0x215E JUMP JUMPDEST DUP2 ADD SUB SLT PUSH2 0x2979 JUMPI POP PUSH2 0x2AF1 SWAP1 PUSH2 0x24A6 JUMP JUMPDEST CODESIZE PUSH2 0x2A9B JUMP JUMPDEST RETURNDATASIZE SWAP2 POP PUSH2 0x2AD2 JUMP INVALID 0xD1 0x22 SGT 0xEA PUSH15 0x64A238716C781B0705A90DB6B62534 MLOAD 0xF8 0x26 PUSH16 0x8FECC0BDFF9E327870879634D2661015 0xCF PUSH22 0x202474774BA643BA7E53B681573AE7B400E3C12F09D2 LOG2 PUSH5 0x6970667358 0x22 SLT KECCAK256 BASEFEE PUSH2 0xF54F 0xCF 0xD CREATE 0xC6 0xB6 JUMP 0xD2 0xC1 CALLDATACOPY DUP2 KECCAK256 0xE7 0xC0 MSTORE8 PUSH24 0x346D197A20713ED2D612BB917664736F6C63430008140033 "},"methodIdentifiers":{"DEACTIVATION_COOLDOWN()":"ec5760d3","MAX_REPUTATION()":"d213c0f2","PUBKEY_LENGTH()":"a4d55d1d","approvedManufacturers(address)":"499a4ada","attestationCertificateHashes(bytes32)":"778fcc38","attestationEnforced()":"39922513","canClaimBounty(bytes32)":"1f9b019b","canUseSkillOracle(bytes32)":"ad8dd6fe","computeDeviceId(bytes)":"9f14f884","deactivateDevice(bytes32)":"0766e845","deviceCount()":"535bca9a","deviceTiers(bytes32)":"6ca6dbdd","getDeviceInfo(bytes32)":"59d902ed","getDevicePubkey(bytes32)":"804ad249","getDeviceRewardWeightBps(bytes32)":"b01d33b4","getDeviceTier(bytes32)":"cbc8a100","getManufacturerKey(address)":"75605920","getReputationScore(bytes32)":"739ad43c","isDeviceActive(bytes32)":"5ec8fe6b","manufacturerKeys(address)":"11e9666c","minimumDeposit()":"636bfbab","owner()":"8da5cb5b","registerAttested(bytes,bytes)":"62949e73","registerAttestedV2(bytes,bytes,address)":"ccfc9a12","registerAttestedWithCert(bytes,bytes,bytes32)":"808b93de","registerAttestedWithCertV2(bytes,bytes,bytes32,address)":"9165aa5a","registerDevice(bytes)":"4a5f16e9","registerTieredDevice(bytes,uint8)":"ba9c0bb4","renounceOwnership()":"715018a6","reputationUpdaters(address)":"3050a73d","revokeManufacturerKey(address)":"5404e5d6","setApprovedManufacturer(address,bool)":"b1fb2d29","setAttestationCertHash(bytes32,bytes32)":"559e6f92","setAttestationEnforced(bool)":"fa5a3690","setManufacturerKey(address,bytes32,bytes32,string)":"f21755e3","setMinimumDeposit(uint256)":"e78ec42e","setReputationUpdater(address,bool)":"ac72ab29","setTierConfig(uint8,(uint256,uint16,bool,bool))":"abae4c76","tierConfigs(uint8)":"9da9db2a","transferOwnership(address)":"f2fde38b","updateReputation(bytes32,uint32,uint32,uint32)":"07567c75","withdrawDeposit(bytes32)":"a8e06bc3"}}}}}