{"contracts/TeamProofAggregatorZK.sol":{"TeamProofAggregatorZK":{"abi":[{"inputs":[{"internalType":"address","name":"_poACVerifier","type":"address"}],"stateMutability":"nonpayable","type":"constructor"},{"inputs":[{"internalType":"bytes32","name":"recordHash","type":"bytes32"},{"internalType":"uint8","name":"inferenceResult","type":"uint8"}],"name":"CheatFlagDetected","type":"error"},{"inputs":[{"internalType":"bytes32","name":"computed","type":"bytes32"},{"internalType":"bytes32","name":"submitted","type":"bytes32"}],"name":"InvalidMerkleRoot","type":"error"},{"inputs":[{"internalType":"uint256","name":"size","type":"uint256"}],"name":"InvalidTeamSize","type":"error"},{"inputs":[],"name":"InvalidZKProof","type":"error"},{"inputs":[{"internalType":"uint256","name":"expected","type":"uint256"},{"internalType":"uint256","name":"provided","type":"uint256"}],"name":"MemberCountMismatch","type":"error"},{"inputs":[{"internalType":"bytes32","name":"nullifier","type":"bytes32"}],"name":"NullifierAlreadyUsed","type":"error"},{"inputs":[{"internalType":"address","name":"owner","type":"address"}],"name":"OwnableInvalidOwner","type":"error"},{"inputs":[{"internalType":"address","name":"account","type":"address"}],"name":"OwnableUnauthorizedAccount","type":"error"},{"inputs":[{"internalType":"bytes32","name":"recordHash","type":"bytes32"}],"name":"RecordNotVerified","type":"error"},{"inputs":[{"internalType":"bytes32","name":"teamId","type":"bytes32"}],"name":"TeamAlreadyExists","type":"error"},{"inputs":[{"internalType":"bytes32","name":"teamId","type":"bytes32"}],"name":"TeamNotActive","type":"error"},{"inputs":[{"internalType":"bytes32","name":"teamId","type":"bytes32"}],"name":"TeamNotFound","type":"error"},{"anonymous":false,"inputs":[{"indexed":true,"internalType":"address","name":"previousOwner","type":"address"},{"indexed":true,"internalType":"address","name":"newOwner","type":"address"}],"name":"OwnershipTransferred","type":"event"},{"anonymous":false,"inputs":[{"indexed":true,"internalType":"bytes32","name":"teamId","type":"bytes32"},{"indexed":true,"internalType":"address","name":"captain","type":"address"},{"indexed":false,"internalType":"uint8","name":"memberCount","type":"uint8"}],"name":"TeamCreated","type":"event"},{"anonymous":false,"inputs":[{"indexed":true,"internalType":"bytes32","name":"teamId","type":"bytes32"},{"indexed":true,"internalType":"uint256","name":"proofId","type":"uint256"},{"indexed":false,"internalType":"bytes32","name":"merkleRoot","type":"bytes32"},{"indexed":false,"internalType":"uint8","name":"memberCount","type":"uint8"},{"indexed":false,"internalType":"bool","name":"allClean","type":"bool"}],"name":"TeamProofSubmitted","type":"event"},{"anonymous":false,"inputs":[{"indexed":true,"internalType":"bytes32","name":"teamId","type":"bytes32"},{"indexed":true,"internalType":"bytes32","name":"merkleRoot","type":"bytes32"},{"indexed":false,"internalType":"bytes32","name":"nullifierHash","type":"bytes32"},{"indexed":false,"internalType":"uint256","name":"memberCount","type":"uint256"}],"name":"ZKTeamProofSubmitted","type":"event"},{"inputs":[],"name":"CHEAT_INFERENCE_MAX","outputs":[{"internalType":"uint8","name":"","type":"uint8"}],"stateMutability":"view","type":"function"},{"inputs":[],"name":"CHEAT_INFERENCE_MIN","outputs":[{"internalType":"uint8","name":"","type":"uint8"}],"stateMutability":"view","type":"function"},{"inputs":[],"name":"MAX_TEAM_SIZE","outputs":[{"internalType":"uint8","name":"","type":"uint8"}],"stateMutability":"view","type":"function"},{"inputs":[],"name":"MIN_TEAM_SIZE","outputs":[{"internalType":"uint8","name":"","type":"uint8"}],"stateMutability":"view","type":"function"},{"inputs":[],"name":"MOCK_PROOF_SIZE","outputs":[{"internalType":"uint256","name":"","type":"uint256"}],"stateMutability":"view","type":"function"},{"inputs":[],"name":"ZK_VERSION","outputs":[{"internalType":"bytes32","name":"","type":"bytes32"}],"stateMutability":"view","type":"function"},{"inputs":[{"internalType":"bytes32[]","name":"_leaves","type":"bytes32[]"}],"name":"computeMerkleRoot","outputs":[{"internalType":"bytes32","name":"","type":"bytes32"}],"stateMutability":"pure","type":"function"},{"inputs":[{"internalType":"bytes32","name":"_teamId","type":"bytes32"},{"internalType":"bytes32[]","name":"_deviceIds","type":"bytes32[]"}],"name":"createTeam","outputs":[],"stateMutability":"nonpayable","type":"function"},{"inputs":[{"internalType":"bytes32","name":"_teamId","type":"bytes32"}],"name":"getTeam","outputs":[{"internalType":"bytes32[]","name":"memberDeviceIds","type":"bytes32[]"},{"internalType":"address","name":"captain","type":"address"},{"internalType":"uint64","name":"createdAt","type":"uint64"},{"internalType":"bool","name":"active","type":"bool"}],"stateMutability":"view","type":"function"},{"inputs":[{"internalType":"uint256","name":"_proofId","type":"uint256"}],"name":"getTeamProof","outputs":[{"components":[{"internalType":"bytes32","name":"teamId","type":"bytes32"},{"internalType":"bytes32","name":"merkleRoot","type":"bytes32"},{"internalType":"bytes32[]","name":"recordHashes","type":"bytes32[]"},{"internalType":"uint8","name":"memberCount","type":"uint8"},{"internalType":"bool","name":"allClean","type":"bool"},{"internalType":"uint64","name":"submittedAt","type":"uint64"},{"internalType":"address","name":"submitter","type":"address"}],"internalType":"struct TeamProofAggregator.TeamProof","name":"","type":"tuple"}],"stateMutability":"view","type":"function"},{"inputs":[{"internalType":"bytes32","name":"_teamId","type":"bytes32"}],"name":"getTeamProofCount","outputs":[{"internalType":"uint256","name":"","type":"uint256"}],"stateMutability":"view","type":"function"},{"inputs":[{"internalType":"bytes32","name":"_teamId","type":"bytes32"}],"name":"getTeamProofIds","outputs":[{"internalType":"uint256[]","name":"","type":"uint256[]"}],"stateMutability":"view","type":"function"},{"inputs":[],"name":"owner","outputs":[{"internalType":"address","name":"","type":"address"}],"stateMutability":"view","type":"function"},{"inputs":[],"name":"poACVerifier","outputs":[{"internalType":"contract PoACVerifier","name":"","type":"address"}],"stateMutability":"view","type":"function"},{"inputs":[],"name":"proofCount","outputs":[{"internalType":"uint256","name":"","type":"uint256"}],"stateMutability":"view","type":"function"},{"inputs":[],"name":"renounceOwnership","outputs":[],"stateMutability":"nonpayable","type":"function"},{"inputs":[{"internalType":"bytes32","name":"_teamId","type":"bytes32"},{"internalType":"bytes32[]","name":"_recordHashes","type":"bytes32[]"},{"internalType":"bytes32","name":"_merkleRoot","type":"bytes32"}],"name":"submitTeamProof","outputs":[{"internalType":"uint256","name":"proofId","type":"uint256"}],"stateMutability":"nonpayable","type":"function"},{"inputs":[{"internalType":"bytes32","name":"_teamId","type":"bytes32"},{"internalType":"bytes32[]","name":"_recordHashes","type":"bytes32[]"},{"internalType":"bytes32","name":"_merkleRoot","type":"bytes32"},{"internalType":"bytes32","name":"_nullifierHash","type":"bytes32"},{"internalType":"bytes","name":"_zkProof","type":"bytes"}],"name":"submitTeamProofZK","outputs":[{"internalType":"uint256","name":"proofId","type":"uint256"}],"stateMutability":"nonpayable","type":"function"},{"inputs":[{"internalType":"bytes32","name":"","type":"bytes32"}],"name":"teamExists","outputs":[{"internalType":"bool","name":"","type":"bool"}],"stateMutability":"view","type":"function"},{"inputs":[{"internalType":"address","name":"newOwner","type":"address"}],"name":"transferOwnership","outputs":[],"stateMutability":"nonpayable","type":"function"},{"inputs":[{"internalType":"bytes32","name":"","type":"bytes32"}],"name":"usedNullifiers","outputs":[{"internalType":"bool","name":"","type":"bool"}],"stateMutability":"view","type":"function"}],"evm":{"bytecode":{"linkReferences":{},"object":"6080346100c657601f61112838819003918201601f19168301916001600160401b038311848410176100cb578084926020946040528339810103126100c657516001600160a01b0390818116908190036100c65733156100ad5760005460018060a01b0319903382821617600055604051933391167f8be0079c531659141344cd1fd0a4f28419497f9722a3daafe3b4186f6b6457e0600080a3600154161760015561104690816100e28239f35b604051631e4fbdf760e01b815260006004820152602490fd5b600080fd5b634e487b7160e01b600052604160045260246000fdfe608060408181526004908136101561001657600080fd5b600092833560e01c90816312a9016e146108f157508063206137aa146108c45780632b8b906c146108865780633bd561751461074557806344ea6c69146107185780634bb34a7d1461067a57806350072dd71461062e578063604a0902146105f3578063638371ee14610555578063715018a6146104f85780638ad6fcfb146104dc5780638da5cb5b146104b4578063addecc0614610496578063c0d3f3851461046e578063c37a636b14610452578063c3a3953614610308578063d4b9c129146102ec578063de62201a146102d0578063ef4a949e146101c8578063f1cf79051461019b5763f2fde38b1461010b57600080fd5b34610197576020366003190112610197576001600160a01b038235818116939192908490036101935761013c610943565b831561017d57505082546001600160a01b0319811683178455167f8be0079c531659141344cd1fd0a4f28419497f9722a3daafe3b4186f6b6457e08380a380f35b51631e4fbdf760e01b8152908101849052602490fd5b8480fd5b8280fd5b8382346101c457816003193601126101c45760015490516001600160a01b039091168152602090f35b5080fd5b508290346101c45760a03660031901126101c45767ffffffffffffffff928035602435858111610193576101ff903690840161090d565b9460443593606435976084358181116102cc57366023820112156102cc57808301359182116102cc57602482369201011161019757888352600760205260ff87842054166102b557610100036102a757508661029685887f5fde3eefb6947171e166b973c9376f8f26046d6be28db64b8819df9fda8ea80d95898660209d82985260078e5220600160ff1982541617905587610a63565b96825191825288820152a351908152f35b85516303b2487b60e11b8152fd5b8651632920f74160e21b81528083018a9052602490fd5b8380fd5b8382346101c457816003193601126101c45760209051602a8152f35b8382346101c457816003193601126101c4576020905160068152f35b503461019757806003193601126101975781359060243567ffffffffffffffff81116101935761033b903690850161090d565b93838652600360205260ff838720541661043b57600285108015610431575b61041a575082855260026020528185206001810180546001600160e81b0319163368ffffffffffffffffff60a01b1916174260a01b67ffffffffffffffff60a01b1617600160e01b179055855b8581106103f75750505060ff9082855260036020528085206001831982541617905551921682527fd51f1ea8e0b03f99b94c0bdb936c2fc4683c160bf64b58e5fbc3ccbe4c20f9ca60203393a380f35b80610410610409610415938987610994565b35846109d2565b61096f565b6103a7565b825163ef2e255d60e01b8152908101859052602490fd5b506006851161035a565b825163f7bd25cb60e01b8152908101849052602490fd5b8382346101c457816003193601126101c4576020905160288152f35b5090346101975760203660031901126101975760209282913581526006845220549051908152f35b50903461019757826003193601126101975760209250549051908152f35b8382346101c457816003193601126101c457905490516001600160a01b039091168152602090f35b8382346101c457816003193601126101c4576020905160028152f35b8334610552578060031936011261055257610511610943565b80546001600160a01b03198116825581906001600160a01b03167f8be0079c531659141344cd1fd0a4f28419497f9722a3daafe3b4186f6b6457e08280a380f35b80fd5b50913461055257602091826003193601126101c45792919235815260068352818120908251808584549182815201908194845286842090845b8181106105df57505050816105a4910382610a41565b83519485948186019282875251809352850193925b8281106105c857505050500390f35b8351855286955093810193928101926001016105b9565b82548452928801926001928301920161058e565b8382346101c457816003193601126101c457602090517f22c53f333828936b9047d0d278f0624190302e02696fa9aa397835bd5b74bbd18152f35b508234610552576060366003190112610552576024359067ffffffffffffffff82116105525750602092610668610673923690830161090d565b906044359235610a63565b9051908152f35b509190346101c457602090816003193601126101975791909135815260028252828120926001926106ae8486015495610fbf565b92825194608086016080875285518091528360a088019601925b818110610705576001600160a01b0389168589015260a089901c67ffffffffffffffff168689015260e089901c60ff161515606089015287870388f35b83518752958401959284019282016106c8565b509034610197576020366003190112610197578160209360ff923581526003855220541690519015158152f35b50913461055257602091826003193601126101c4578160c0859493955161076b81610a25565b82815282858201526060868201528260608201528260808201528260a08201520152358352600581528183208251926107a384610a25565b81548452600191828101549484810195865260036107c360028401610fbf565b92848301938452015493606082019760ff86168952608083019160ff8760081c161515835260a084019367ffffffffffffffff95868960101c16865260c082019760018060a01b03809a60501c16895280519b8b8d528c8c6101008201955191015251908c0152519860e060608c01528951809252806101208c019a01935b82811061087357505050505060ff87985116608088015251151560a0870152511660c0850152511660e08301520390f35b84518b5299810199938101938301610842565b5082346105525760203660031901126105525782359067ffffffffffffffff821161055257506108be6020936106739236910161090d565b90610dc6565b509034610197576020366003190112610197578160209360ff923581526007855220541690519015158152f35b8490346101c457816003193601126101c4578061010060209252f35b9181601f8401121561093e5782359167ffffffffffffffff831161093e576020808501948460051b01011161093e57565b600080fd5b6000546001600160a01b0316330361095757565b60405163118cdaa760e01b8152336004820152602490fd5b600019811461097e5760010190565b634e487b7160e01b600052601160045260246000fd5b91908110156109a45760051b0190565b634e487b7160e01b600052603260045260246000fd5b80548210156109a45760005260206000200190600090565b805490600160401b821015610a0f57816109f4916001610a0b940181556109ba565b819391549060031b91821b91600019901b19161790565b9055565b634e487b7160e01b600052604160045260246000fd5b60e0810190811067ffffffffffffffff821117610a0f57604052565b90601f8019910116810190811067ffffffffffffffff821117610a0f57604052565b90939260008281526020936003855260ff9460409286848220541615610d82578581526002825283812087600182015460e01c1615610d6a5754808403610d4d57506001546001600160a01b0316815b848110610c09575050610ac6838a610dc6565b858103610bec57506004549698610adc8861096f565b600455878252600583528482208781556001810187905560038101805462010000600160f01b031961ffff19919091169c87169c8d1761010017164260101b69ffffffffffffffff000016173360501b600160501b600160f01b031617905597998a989094600290910190835b818110610bce575050505085815260068252838120805491600160401b831015610bba57509260019288610baa6109f4857f6faf02f204baeaaf295439e5483b112c706763054453bed74b5d8647e82ca55b9a988860609b980181556109ba565b90558251948552840152820152a3565b634e487b7160e01b81526041600452602490fd5b80610410610be0610be7938588610994565b35856109d2565b610b49565b604490868651916327c4ed9760e21b835260048301526024820152fd5b610c1481868d610994565b865163488dbfad60e01b8152903560048083018290529160249087818381895afa908115610cf9578791610d17575b5015610d0357885163cd68a83160e01b815283810183905287818381895afa908115610cf957908d918891610cbb575b501691602883101580610cb0575b610c975750505050610c929061096f565b610ab3565b895163379a771360e21b81529384015282015260449150fd5b50602a831115610c81565b809250898092503d8311610cf2575b610cd48183610a41565b81010312610cee57518c81168103610cee578c9038610c73565b8680fd5b503d610cca565b8a513d89823e3d90fd5b9250875191632047f23560e21b8352820152fd5b90508781813d8311610d46575b610d2e8183610a41565b81010312610cee57518015158103610cee5738610c43565b503d610d24565b60449084865191634c1eb76960e11b835260048301526024820152fd5b845163b79eacfb60e01b815260048101889052602490fd5b8351630760a05360e31b815260048101879052602490fd5b67ffffffffffffffff8111610a0f5760051b60200190565b80518210156109a45760209160051b010190565b9080600191828114610fb357610ddb81610d9a565b92604092610deb84519586610a41565b828552610df783610d9a565b9560209384870197601f190136893760005b818110610f945750505081805b610eec575b505b818111610e32575050505051156109a4575190565b81810180821161097e57821c9060005b828110610e50575050610e1d565b80841b908082046002148115171561097e578482019182811161097e5783831015610ed257610e82610e8a918a610db2565b519289610db2565b519187519287840191825288840152878352606083019280841067ffffffffffffffff851117610a0f57610ecd938952519020610ec7828a610db2565b5261096f565b610e42565b610ecd9250610ee19089610db2565b51610ec7828a610db2565b8551811015610f8f578281610f02829389610db2565b5181935b610f1f575b610ec7610f1993948a610db2565b90610e16565b915091801585811580610f6e575b15610f63575060001982019180831161097e57610f55610f4d848c610db2565b51918b610db2565b5261097e5791849182610f06565b929050929092610f0b565b5050600019820182811161097e5783610f8888928c610db2565b5111610f2d565b610e1b565b80610fa3610fae928486610994565b35610ec7828b610db2565b610e09565b915050156109a4573590565b9060405191828154918282526020928383019160005283600020936000905b828210610ff657505050610ff492500383610a41565b565b855484526001958601958895509381019390910190610fde56fea264697066735822122092e8c4ff5c76248558840697f86c86a9a02c98e90f6267dc0fbb867781afa75764736f6c63430008140033","opcodes":"PUSH1 0x80 CALLVALUE PUSH2 0xC6 JUMPI PUSH1 0x1F PUSH2 0x1128 CODESIZE DUP2 SWAP1 SUB SWAP2 DUP3 ADD PUSH1 0x1F NOT AND DUP4 ADD SWAP2 PUSH1 0x1 PUSH1 0x1 PUSH1 0x40 SHL SUB DUP4 GT DUP5 DUP5 LT OR PUSH2 0xCB JUMPI DUP1 DUP5 SWAP3 PUSH1 0x20 SWAP5 PUSH1 0x40 MSTORE DUP4 CODECOPY DUP2 ADD SUB SLT PUSH2 0xC6 JUMPI MLOAD PUSH1 0x1 PUSH1 0x1 PUSH1 0xA0 SHL SUB SWAP1 DUP2 DUP2 AND SWAP1 DUP2 SWAP1 SUB PUSH2 0xC6 JUMPI CALLER ISZERO PUSH2 0xAD JUMPI PUSH1 0x0 SLOAD PUSH1 0x1 DUP1 PUSH1 0xA0 SHL SUB NOT SWAP1 CALLER DUP3 DUP3 AND OR PUSH1 0x0 SSTORE PUSH1 0x40 MLOAD SWAP4 CALLER SWAP2 AND PUSH32 0x8BE0079C531659141344CD1FD0A4F28419497F9722A3DAAFE3B4186F6B6457E0 PUSH1 0x0 DUP1 LOG3 PUSH1 0x1 SLOAD AND OR PUSH1 0x1 SSTORE PUSH2 0x1046 SWAP1 DUP2 PUSH2 0xE2 DUP3 CODECOPY RETURN JUMPDEST PUSH1 0x40 MLOAD PUSH4 0x1E4FBDF7 PUSH1 0xE0 SHL DUP2 MSTORE PUSH1 0x0 PUSH1 0x4 DUP3 ADD MSTORE PUSH1 0x24 SWAP1 REVERT JUMPDEST PUSH1 0x0 DUP1 REVERT JUMPDEST PUSH4 0x4E487B71 PUSH1 0xE0 SHL PUSH1 0x0 MSTORE PUSH1 0x41 PUSH1 0x4 MSTORE PUSH1 0x24 PUSH1 0x0 REVERT INVALID PUSH1 0x80 PUSH1 0x40 DUP2 DUP2 MSTORE PUSH1 0x4 SWAP1 DUP2 CALLDATASIZE LT ISZERO PUSH2 0x16 JUMPI PUSH1 0x0 DUP1 REVERT JUMPDEST PUSH1 0x0 SWAP3 DUP4 CALLDATALOAD PUSH1 0xE0 SHR SWAP1 DUP2 PUSH4 0x12A9016E EQ PUSH2 0x8F1 JUMPI POP DUP1 PUSH4 0x206137AA EQ PUSH2 0x8C4 JUMPI DUP1 PUSH4 0x2B8B906C EQ PUSH2 0x886 JUMPI DUP1 PUSH4 0x3BD56175 EQ PUSH2 0x745 JUMPI DUP1 PUSH4 0x44EA6C69 EQ PUSH2 0x718 JUMPI DUP1 PUSH4 0x4BB34A7D EQ PUSH2 0x67A JUMPI DUP1 PUSH4 0x50072DD7 EQ PUSH2 0x62E JUMPI DUP1 PUSH4 0x604A0902 EQ PUSH2 0x5F3 JUMPI DUP1 PUSH4 0x638371EE EQ PUSH2 0x555 JUMPI DUP1 PUSH4 0x715018A6 EQ PUSH2 0x4F8 JUMPI DUP1 PUSH4 0x8AD6FCFB EQ PUSH2 0x4DC JUMPI DUP1 PUSH4 0x8DA5CB5B EQ PUSH2 0x4B4 JUMPI DUP1 PUSH4 0xADDECC06 EQ PUSH2 0x496 JUMPI DUP1 PUSH4 0xC0D3F385 EQ PUSH2 0x46E JUMPI DUP1 PUSH4 0xC37A636B EQ PUSH2 0x452 JUMPI DUP1 PUSH4 0xC3A39536 EQ PUSH2 0x308 JUMPI DUP1 PUSH4 0xD4B9C129 EQ PUSH2 0x2EC JUMPI DUP1 PUSH4 0xDE62201A EQ PUSH2 0x2D0 JUMPI DUP1 PUSH4 0xEF4A949E EQ PUSH2 0x1C8 JUMPI DUP1 PUSH4 0xF1CF7905 EQ PUSH2 0x19B JUMPI PUSH4 0xF2FDE38B EQ PUSH2 0x10B JUMPI PUSH1 0x0 DUP1 REVERT JUMPDEST CALLVALUE PUSH2 0x197 JUMPI PUSH1 0x20 CALLDATASIZE PUSH1 0x3 NOT ADD SLT PUSH2 0x197 JUMPI PUSH1 0x1 PUSH1 0x1 PUSH1 0xA0 SHL SUB DUP3 CALLDATALOAD DUP2 DUP2 AND SWAP4 SWAP2 SWAP3 SWAP1 DUP5 SWAP1 SUB PUSH2 0x193 JUMPI PUSH2 0x13C PUSH2 0x943 JUMP JUMPDEST DUP4 ISZERO PUSH2 0x17D JUMPI POP POP DUP3 SLOAD PUSH1 0x1 PUSH1 0x1 PUSH1 0xA0 SHL SUB NOT DUP2 AND DUP4 OR DUP5 SSTORE AND PUSH32 0x8BE0079C531659141344CD1FD0A4F28419497F9722A3DAAFE3B4186F6B6457E0 DUP4 DUP1 LOG3 DUP1 RETURN JUMPDEST MLOAD PUSH4 0x1E4FBDF7 PUSH1 0xE0 SHL DUP2 MSTORE SWAP1 DUP2 ADD DUP5 SWAP1 MSTORE PUSH1 0x24 SWAP1 REVERT JUMPDEST DUP5 DUP1 REVERT JUMPDEST DUP3 DUP1 REVERT JUMPDEST DUP4 DUP3 CALLVALUE PUSH2 0x1C4 JUMPI DUP2 PUSH1 0x3 NOT CALLDATASIZE ADD SLT PUSH2 0x1C4 JUMPI PUSH1 0x1 SLOAD SWAP1 MLOAD PUSH1 0x1 PUSH1 0x1 PUSH1 0xA0 SHL SUB SWAP1 SWAP2 AND DUP2 MSTORE PUSH1 0x20 SWAP1 RETURN JUMPDEST POP DUP1 REVERT JUMPDEST POP DUP3 SWAP1 CALLVALUE PUSH2 0x1C4 JUMPI PUSH1 0xA0 CALLDATASIZE PUSH1 0x3 NOT ADD SLT PUSH2 0x1C4 JUMPI PUSH8 0xFFFFFFFFFFFFFFFF SWAP3 DUP1 CALLDATALOAD PUSH1 0x24 CALLDATALOAD DUP6 DUP2 GT PUSH2 0x193 JUMPI PUSH2 0x1FF SWAP1 CALLDATASIZE SWAP1 DUP5 ADD PUSH2 0x90D JUMP JUMPDEST SWAP5 PUSH1 0x44 CALLDATALOAD SWAP4 PUSH1 0x64 CALLDATALOAD SWAP8 PUSH1 0x84 CALLDATALOAD DUP2 DUP2 GT PUSH2 0x2CC JUMPI CALLDATASIZE PUSH1 0x23 DUP3 ADD SLT ISZERO PUSH2 0x2CC JUMPI DUP1 DUP4 ADD CALLDATALOAD SWAP2 DUP3 GT PUSH2 0x2CC JUMPI PUSH1 0x24 DUP3 CALLDATASIZE SWAP3 ADD ADD GT PUSH2 0x197 JUMPI DUP9 DUP4 MSTORE PUSH1 0x7 PUSH1 0x20 MSTORE PUSH1 0xFF DUP8 DUP5 KECCAK256 SLOAD AND PUSH2 0x2B5 JUMPI PUSH2 0x100 SUB PUSH2 0x2A7 JUMPI POP DUP7 PUSH2 0x296 DUP6 DUP9 PUSH32 0x5FDE3EEFB6947171E166B973C9376F8F26046D6BE28DB64B8819DF9FDA8EA80D SWAP6 DUP10 DUP7 PUSH1 0x20 SWAP14 DUP3 SWAP9 MSTORE PUSH1 0x7 DUP15 MSTORE KECCAK256 PUSH1 0x1 PUSH1 0xFF NOT DUP3 SLOAD AND OR SWAP1 SSTORE DUP8 PUSH2 0xA63 JUMP JUMPDEST SWAP7 DUP3 MLOAD SWAP2 DUP3 MSTORE DUP9 DUP3 ADD MSTORE LOG3 MLOAD SWAP1 DUP2 MSTORE RETURN JUMPDEST DUP6 MLOAD PUSH4 0x3B2487B PUSH1 0xE1 SHL DUP2 MSTORE REVERT JUMPDEST DUP7 MLOAD PUSH4 0x2920F741 PUSH1 0xE2 SHL DUP2 MSTORE DUP1 DUP4 ADD DUP11 SWAP1 MSTORE PUSH1 0x24 SWAP1 REVERT JUMPDEST DUP4 DUP1 REVERT JUMPDEST DUP4 DUP3 CALLVALUE PUSH2 0x1C4 JUMPI DUP2 PUSH1 0x3 NOT CALLDATASIZE ADD SLT PUSH2 0x1C4 JUMPI PUSH1 0x20 SWAP1 MLOAD PUSH1 0x2A DUP2 MSTORE RETURN JUMPDEST DUP4 DUP3 CALLVALUE PUSH2 0x1C4 JUMPI DUP2 PUSH1 0x3 NOT CALLDATASIZE ADD SLT PUSH2 0x1C4 JUMPI PUSH1 0x20 SWAP1 MLOAD PUSH1 0x6 DUP2 MSTORE RETURN JUMPDEST POP CALLVALUE PUSH2 0x197 JUMPI DUP1 PUSH1 0x3 NOT CALLDATASIZE ADD SLT PUSH2 0x197 JUMPI DUP2 CALLDATALOAD SWAP1 PUSH1 0x24 CALLDATALOAD PUSH8 0xFFFFFFFFFFFFFFFF DUP2 GT PUSH2 0x193 JUMPI PUSH2 0x33B SWAP1 CALLDATASIZE SWAP1 DUP6 ADD PUSH2 0x90D JUMP JUMPDEST SWAP4 DUP4 DUP7 MSTORE PUSH1 0x3 PUSH1 0x20 MSTORE PUSH1 0xFF DUP4 DUP8 KECCAK256 SLOAD AND PUSH2 0x43B JUMPI PUSH1 0x2 DUP6 LT DUP1 ISZERO PUSH2 0x431 JUMPI JUMPDEST PUSH2 0x41A JUMPI POP DUP3 DUP6 MSTORE PUSH1 0x2 PUSH1 0x20 MSTORE DUP2 DUP6 KECCAK256 PUSH1 0x1 DUP2 ADD DUP1 SLOAD PUSH1 0x1 PUSH1 0x1 PUSH1 0xE8 SHL SUB NOT AND CALLER PUSH9 0xFFFFFFFFFFFFFFFFFF PUSH1 0xA0 SHL NOT AND OR TIMESTAMP PUSH1 0xA0 SHL PUSH8 0xFFFFFFFFFFFFFFFF PUSH1 0xA0 SHL AND OR PUSH1 0x1 PUSH1 0xE0 SHL OR SWAP1 SSTORE DUP6 JUMPDEST DUP6 DUP2 LT PUSH2 0x3F7 JUMPI POP POP POP PUSH1 0xFF SWAP1 DUP3 DUP6 MSTORE PUSH1 0x3 PUSH1 0x20 MSTORE DUP1 DUP6 KECCAK256 PUSH1 0x1 DUP4 NOT DUP3 SLOAD AND OR SWAP1 SSTORE MLOAD SWAP3 AND DUP3 MSTORE PUSH32 0xD51F1EA8E0B03F99B94C0BDB936C2FC4683C160BF64B58E5FBC3CCBE4C20F9CA PUSH1 0x20 CALLER SWAP4 LOG3 DUP1 RETURN JUMPDEST DUP1 PUSH2 0x410 PUSH2 0x409 PUSH2 0x415 SWAP4 DUP10 DUP8 PUSH2 0x994 JUMP JUMPDEST CALLDATALOAD DUP5 PUSH2 0x9D2 JUMP JUMPDEST PUSH2 0x96F JUMP JUMPDEST PUSH2 0x3A7 JUMP JUMPDEST DUP3 MLOAD PUSH4 0xEF2E255D PUSH1 0xE0 SHL DUP2 MSTORE SWAP1 DUP2 ADD DUP6 SWAP1 MSTORE PUSH1 0x24 SWAP1 REVERT JUMPDEST POP PUSH1 0x6 DUP6 GT PUSH2 0x35A JUMP JUMPDEST DUP3 MLOAD PUSH4 0xF7BD25CB PUSH1 0xE0 SHL DUP2 MSTORE SWAP1 DUP2 ADD DUP5 SWAP1 MSTORE PUSH1 0x24 SWAP1 REVERT JUMPDEST DUP4 DUP3 CALLVALUE PUSH2 0x1C4 JUMPI DUP2 PUSH1 0x3 NOT CALLDATASIZE ADD SLT PUSH2 0x1C4 JUMPI PUSH1 0x20 SWAP1 MLOAD PUSH1 0x28 DUP2 MSTORE RETURN JUMPDEST POP SWAP1 CALLVALUE PUSH2 0x197 JUMPI PUSH1 0x20 CALLDATASIZE PUSH1 0x3 NOT ADD SLT PUSH2 0x197 JUMPI PUSH1 0x20 SWAP3 DUP3 SWAP2 CALLDATALOAD DUP2 MSTORE PUSH1 0x6 DUP5 MSTORE KECCAK256 SLOAD SWAP1 MLOAD SWAP1 DUP2 MSTORE RETURN JUMPDEST POP SWAP1 CALLVALUE PUSH2 0x197 JUMPI DUP3 PUSH1 0x3 NOT CALLDATASIZE ADD SLT PUSH2 0x197 JUMPI PUSH1 0x20 SWAP3 POP SLOAD SWAP1 MLOAD SWAP1 DUP2 MSTORE RETURN JUMPDEST DUP4 DUP3 CALLVALUE PUSH2 0x1C4 JUMPI DUP2 PUSH1 0x3 NOT CALLDATASIZE ADD SLT PUSH2 0x1C4 JUMPI SWAP1 SLOAD SWAP1 MLOAD PUSH1 0x1 PUSH1 0x1 PUSH1 0xA0 SHL SUB SWAP1 SWAP2 AND DUP2 MSTORE PUSH1 0x20 SWAP1 RETURN JUMPDEST DUP4 DUP3 CALLVALUE PUSH2 0x1C4 JUMPI DUP2 PUSH1 0x3 NOT CALLDATASIZE ADD SLT PUSH2 0x1C4 JUMPI PUSH1 0x20 SWAP1 MLOAD PUSH1 0x2 DUP2 MSTORE RETURN JUMPDEST DUP4 CALLVALUE PUSH2 0x552 JUMPI DUP1 PUSH1 0x3 NOT CALLDATASIZE ADD SLT PUSH2 0x552 JUMPI PUSH2 0x511 PUSH2 0x943 JUMP JUMPDEST DUP1 SLOAD PUSH1 0x1 PUSH1 0x1 PUSH1 0xA0 SHL SUB NOT DUP2 AND DUP3 SSTORE DUP2 SWAP1 PUSH1 0x1 PUSH1 0x1 PUSH1 0xA0 SHL SUB AND PUSH32 0x8BE0079C531659141344CD1FD0A4F28419497F9722A3DAAFE3B4186F6B6457E0 DUP3 DUP1 LOG3 DUP1 RETURN JUMPDEST DUP1 REVERT JUMPDEST POP SWAP2 CALLVALUE PUSH2 0x552 JUMPI PUSH1 0x20 SWAP2 DUP3 PUSH1 0x3 NOT CALLDATASIZE ADD SLT PUSH2 0x1C4 JUMPI SWAP3 SWAP2 SWAP3 CALLDATALOAD DUP2 MSTORE PUSH1 0x6 DUP4 MSTORE DUP2 DUP2 KECCAK256 SWAP1 DUP3 MLOAD DUP1 DUP6 DUP5 SLOAD SWAP2 DUP3 DUP2 MSTORE ADD SWAP1 DUP2 SWAP5 DUP5 MSTORE DUP7 DUP5 KECCAK256 SWAP1 DUP5 JUMPDEST DUP2 DUP2 LT PUSH2 0x5DF JUMPI POP POP POP DUP2 PUSH2 0x5A4 SWAP2 SUB DUP3 PUSH2 0xA41 JUMP JUMPDEST DUP4 MLOAD SWAP5 DUP6 SWAP5 DUP2 DUP7 ADD SWAP3 DUP3 DUP8 MSTORE MLOAD DUP1 SWAP4 MSTORE DUP6 ADD SWAP4 SWAP3 JUMPDEST DUP3 DUP2 LT PUSH2 0x5C8 JUMPI POP POP POP POP SUB SWAP1 RETURN JUMPDEST DUP4 MLOAD DUP6 MSTORE DUP7 SWAP6 POP SWAP4 DUP2 ADD SWAP4 SWAP3 DUP2 ADD SWAP3 PUSH1 0x1 ADD PUSH2 0x5B9 JUMP JUMPDEST DUP3 SLOAD DUP5 MSTORE SWAP3 DUP9 ADD SWAP3 PUSH1 0x1 SWAP3 DUP4 ADD SWAP3 ADD PUSH2 0x58E JUMP JUMPDEST DUP4 DUP3 CALLVALUE PUSH2 0x1C4 JUMPI DUP2 PUSH1 0x3 NOT CALLDATASIZE ADD SLT PUSH2 0x1C4 JUMPI PUSH1 0x20 SWAP1 MLOAD PUSH32 0x22C53F333828936B9047D0D278F0624190302E02696FA9AA397835BD5B74BBD1 DUP2 MSTORE RETURN JUMPDEST POP DUP3 CALLVALUE PUSH2 0x552 JUMPI PUSH1 0x60 CALLDATASIZE PUSH1 0x3 NOT ADD SLT PUSH2 0x552 JUMPI PUSH1 0x24 CALLDATALOAD SWAP1 PUSH8 0xFFFFFFFFFFFFFFFF DUP3 GT PUSH2 0x552 JUMPI POP PUSH1 0x20 SWAP3 PUSH2 0x668 PUSH2 0x673 SWAP3 CALLDATASIZE SWAP1 DUP4 ADD PUSH2 0x90D JUMP JUMPDEST SWAP1 PUSH1 0x44 CALLDATALOAD SWAP3 CALLDATALOAD PUSH2 0xA63 JUMP JUMPDEST SWAP1 MLOAD SWAP1 DUP2 MSTORE RETURN JUMPDEST POP SWAP2 SWAP1 CALLVALUE PUSH2 0x1C4 JUMPI PUSH1 0x20 SWAP1 DUP2 PUSH1 0x3 NOT CALLDATASIZE ADD SLT PUSH2 0x197 JUMPI SWAP2 SWAP1 SWAP2 CALLDATALOAD DUP2 MSTORE PUSH1 0x2 DUP3 MSTORE DUP3 DUP2 KECCAK256 SWAP3 PUSH1 0x1 SWAP3 PUSH2 0x6AE DUP5 DUP7 ADD SLOAD SWAP6 PUSH2 0xFBF JUMP JUMPDEST SWAP3 DUP3 MLOAD SWAP5 PUSH1 0x80 DUP7 ADD PUSH1 0x80 DUP8 MSTORE DUP6 MLOAD DUP1 SWAP2 MSTORE DUP4 PUSH1 0xA0 DUP9 ADD SWAP7 ADD SWAP3 JUMPDEST DUP2 DUP2 LT PUSH2 0x705 JUMPI PUSH1 0x1 PUSH1 0x1 PUSH1 0xA0 SHL SUB DUP10 AND DUP6 DUP10 ADD MSTORE PUSH1 0xA0 DUP10 SWAP1 SHR PUSH8 0xFFFFFFFFFFFFFFFF AND DUP7 DUP10 ADD MSTORE PUSH1 0xE0 DUP10 SWAP1 SHR PUSH1 0xFF AND ISZERO ISZERO PUSH1 0x60 DUP10 ADD MSTORE DUP8 DUP8 SUB DUP9 RETURN JUMPDEST DUP4 MLOAD DUP8 MSTORE SWAP6 DUP5 ADD SWAP6 SWAP3 DUP5 ADD SWAP3 DUP3 ADD PUSH2 0x6C8 JUMP JUMPDEST POP SWAP1 CALLVALUE PUSH2 0x197 JUMPI PUSH1 0x20 CALLDATASIZE PUSH1 0x3 NOT ADD SLT PUSH2 0x197 JUMPI DUP2 PUSH1 0x20 SWAP4 PUSH1 0xFF SWAP3 CALLDATALOAD DUP2 MSTORE PUSH1 0x3 DUP6 MSTORE KECCAK256 SLOAD AND SWAP1 MLOAD SWAP1 ISZERO ISZERO DUP2 MSTORE RETURN JUMPDEST POP SWAP2 CALLVALUE PUSH2 0x552 JUMPI PUSH1 0x20 SWAP2 DUP3 PUSH1 0x3 NOT CALLDATASIZE ADD SLT PUSH2 0x1C4 JUMPI DUP2 PUSH1 0xC0 DUP6 SWAP5 SWAP4 SWAP6 MLOAD PUSH2 0x76B DUP2 PUSH2 0xA25 JUMP JUMPDEST DUP3 DUP2 MSTORE DUP3 DUP6 DUP3 ADD MSTORE PUSH1 0x60 DUP7 DUP3 ADD MSTORE DUP3 PUSH1 0x60 DUP3 ADD MSTORE DUP3 PUSH1 0x80 DUP3 ADD MSTORE DUP3 PUSH1 0xA0 DUP3 ADD MSTORE ADD MSTORE CALLDATALOAD DUP4 MSTORE PUSH1 0x5 DUP2 MSTORE DUP2 DUP4 KECCAK256 DUP3 MLOAD SWAP3 PUSH2 0x7A3 DUP5 PUSH2 0xA25 JUMP JUMPDEST DUP2 SLOAD DUP5 MSTORE PUSH1 0x1 SWAP2 DUP3 DUP2 ADD SLOAD SWAP5 DUP5 DUP2 ADD SWAP6 DUP7 MSTORE PUSH1 0x3 PUSH2 0x7C3 PUSH1 0x2 DUP5 ADD PUSH2 0xFBF JUMP JUMPDEST SWAP3 DUP5 DUP4 ADD SWAP4 DUP5 MSTORE ADD SLOAD SWAP4 PUSH1 0x60 DUP3 ADD SWAP8 PUSH1 0xFF DUP7 AND DUP10 MSTORE PUSH1 0x80 DUP4 ADD SWAP2 PUSH1 0xFF DUP8 PUSH1 0x8 SHR AND ISZERO ISZERO DUP4 MSTORE PUSH1 0xA0 DUP5 ADD SWAP4 PUSH8 0xFFFFFFFFFFFFFFFF SWAP6 DUP7 DUP10 PUSH1 0x10 SHR AND DUP7 MSTORE PUSH1 0xC0 DUP3 ADD SWAP8 PUSH1 0x1 DUP1 PUSH1 0xA0 SHL SUB DUP1 SWAP11 PUSH1 0x50 SHR AND DUP10 MSTORE DUP1 MLOAD SWAP12 DUP12 DUP14 MSTORE DUP13 DUP13 PUSH2 0x100 DUP3 ADD SWAP6 MLOAD SWAP2 ADD MSTORE MLOAD SWAP1 DUP13 ADD MSTORE MLOAD SWAP9 PUSH1 0xE0 PUSH1 0x60 DUP13 ADD MSTORE DUP10 MLOAD DUP1 SWAP3 MSTORE DUP1 PUSH2 0x120 DUP13 ADD SWAP11 ADD SWAP4 JUMPDEST DUP3 DUP2 LT PUSH2 0x873 JUMPI POP POP POP POP POP PUSH1 0xFF DUP8 SWAP9 MLOAD AND PUSH1 0x80 DUP9 ADD MSTORE MLOAD ISZERO ISZERO PUSH1 0xA0 DUP8 ADD MSTORE MLOAD AND PUSH1 0xC0 DUP6 ADD MSTORE MLOAD AND PUSH1 0xE0 DUP4 ADD MSTORE SUB SWAP1 RETURN JUMPDEST DUP5 MLOAD DUP12 MSTORE SWAP10 DUP2 ADD SWAP10 SWAP4 DUP2 ADD SWAP4 DUP4 ADD PUSH2 0x842 JUMP JUMPDEST POP DUP3 CALLVALUE PUSH2 0x552 JUMPI PUSH1 0x20 CALLDATASIZE PUSH1 0x3 NOT ADD SLT PUSH2 0x552 JUMPI DUP3 CALLDATALOAD SWAP1 PUSH8 0xFFFFFFFFFFFFFFFF DUP3 GT PUSH2 0x552 JUMPI POP PUSH2 0x8BE PUSH1 0x20 SWAP4 PUSH2 0x673 SWAP3 CALLDATASIZE SWAP2 ADD PUSH2 0x90D JUMP JUMPDEST SWAP1 PUSH2 0xDC6 JUMP JUMPDEST POP SWAP1 CALLVALUE PUSH2 0x197 JUMPI PUSH1 0x20 CALLDATASIZE PUSH1 0x3 NOT ADD SLT PUSH2 0x197 JUMPI DUP2 PUSH1 0x20 SWAP4 PUSH1 0xFF SWAP3 CALLDATALOAD DUP2 MSTORE PUSH1 0x7 DUP6 MSTORE KECCAK256 SLOAD AND SWAP1 MLOAD SWAP1 ISZERO ISZERO DUP2 MSTORE RETURN JUMPDEST DUP5 SWAP1 CALLVALUE PUSH2 0x1C4 JUMPI DUP2 PUSH1 0x3 NOT CALLDATASIZE ADD SLT PUSH2 0x1C4 JUMPI DUP1 PUSH2 0x100 PUSH1 0x20 SWAP3 MSTORE RETURN JUMPDEST SWAP2 DUP2 PUSH1 0x1F DUP5 ADD SLT ISZERO PUSH2 0x93E JUMPI DUP3 CALLDATALOAD SWAP2 PUSH8 0xFFFFFFFFFFFFFFFF DUP4 GT PUSH2 0x93E JUMPI PUSH1 0x20 DUP1 DUP6 ADD SWAP5 DUP5 PUSH1 0x5 SHL ADD ADD GT PUSH2 0x93E JUMPI JUMP JUMPDEST PUSH1 0x0 DUP1 REVERT JUMPDEST PUSH1 0x0 SLOAD PUSH1 0x1 PUSH1 0x1 PUSH1 0xA0 SHL SUB AND CALLER SUB PUSH2 0x957 JUMPI JUMP JUMPDEST PUSH1 0x40 MLOAD PUSH4 0x118CDAA7 PUSH1 0xE0 SHL DUP2 MSTORE CALLER PUSH1 0x4 DUP3 ADD MSTORE PUSH1 0x24 SWAP1 REVERT JUMPDEST PUSH1 0x0 NOT DUP2 EQ PUSH2 0x97E JUMPI PUSH1 0x1 ADD SWAP1 JUMP JUMPDEST PUSH4 0x4E487B71 PUSH1 0xE0 SHL PUSH1 0x0 MSTORE PUSH1 0x11 PUSH1 0x4 MSTORE PUSH1 0x24 PUSH1 0x0 REVERT JUMPDEST SWAP2 SWAP1 DUP2 LT ISZERO PUSH2 0x9A4 JUMPI PUSH1 0x5 SHL ADD SWAP1 JUMP JUMPDEST PUSH4 0x4E487B71 PUSH1 0xE0 SHL PUSH1 0x0 MSTORE PUSH1 0x32 PUSH1 0x4 MSTORE PUSH1 0x24 PUSH1 0x0 REVERT JUMPDEST DUP1 SLOAD DUP3 LT ISZERO PUSH2 0x9A4 JUMPI PUSH1 0x0 MSTORE PUSH1 0x20 PUSH1 0x0 KECCAK256 ADD SWAP1 PUSH1 0x0 SWAP1 JUMP JUMPDEST DUP1 SLOAD SWAP1 PUSH1 0x1 PUSH1 0x40 SHL DUP3 LT ISZERO PUSH2 0xA0F JUMPI DUP2 PUSH2 0x9F4 SWAP2 PUSH1 0x1 PUSH2 0xA0B SWAP5 ADD DUP2 SSTORE PUSH2 0x9BA JUMP JUMPDEST DUP2 SWAP4 SWAP2 SLOAD SWAP1 PUSH1 0x3 SHL SWAP2 DUP3 SHL SWAP2 PUSH1 0x0 NOT SWAP1 SHL NOT AND OR SWAP1 JUMP JUMPDEST SWAP1 SSTORE JUMP JUMPDEST PUSH4 0x4E487B71 PUSH1 0xE0 SHL PUSH1 0x0 MSTORE PUSH1 0x41 PUSH1 0x4 MSTORE PUSH1 0x24 PUSH1 0x0 REVERT JUMPDEST PUSH1 0xE0 DUP2 ADD SWAP1 DUP2 LT PUSH8 0xFFFFFFFFFFFFFFFF DUP3 GT OR PUSH2 0xA0F JUMPI PUSH1 0x40 MSTORE JUMP JUMPDEST SWAP1 PUSH1 0x1F DUP1 NOT SWAP2 ADD AND DUP2 ADD SWAP1 DUP2 LT PUSH8 0xFFFFFFFFFFFFFFFF DUP3 GT OR PUSH2 0xA0F JUMPI PUSH1 0x40 MSTORE JUMP JUMPDEST SWAP1 SWAP4 SWAP3 PUSH1 0x0 DUP3 DUP2 MSTORE PUSH1 0x20 SWAP4 PUSH1 0x3 DUP6 MSTORE PUSH1 0xFF SWAP5 PUSH1 0x40 SWAP3 DUP7 DUP5 DUP3 KECCAK256 SLOAD AND ISZERO PUSH2 0xD82 JUMPI DUP6 DUP2 MSTORE PUSH1 0x2 DUP3 MSTORE DUP4 DUP2 KECCAK256 DUP8 PUSH1 0x1 DUP3 ADD SLOAD PUSH1 0xE0 SHR AND ISZERO PUSH2 0xD6A JUMPI SLOAD DUP1 DUP5 SUB PUSH2 0xD4D JUMPI POP PUSH1 0x1 SLOAD PUSH1 0x1 PUSH1 0x1 PUSH1 0xA0 SHL SUB AND DUP2 JUMPDEST DUP5 DUP2 LT PUSH2 0xC09 JUMPI POP POP PUSH2 0xAC6 DUP4 DUP11 PUSH2 0xDC6 JUMP JUMPDEST DUP6 DUP2 SUB PUSH2 0xBEC JUMPI POP PUSH1 0x4 SLOAD SWAP7 SWAP9 PUSH2 0xADC DUP9 PUSH2 0x96F JUMP JUMPDEST PUSH1 0x4 SSTORE DUP8 DUP3 MSTORE PUSH1 0x5 DUP4 MSTORE DUP5 DUP3 KECCAK256 DUP8 DUP2 SSTORE PUSH1 0x1 DUP2 ADD DUP8 SWAP1 SSTORE PUSH1 0x3 DUP2 ADD DUP1 SLOAD PUSH3 0x10000 PUSH1 0x1 PUSH1 0xF0 SHL SUB NOT PUSH2 0xFFFF NOT SWAP2 SWAP1 SWAP2 AND SWAP13 DUP8 AND SWAP13 DUP14 OR PUSH2 0x100 OR AND TIMESTAMP PUSH1 0x10 SHL PUSH10 0xFFFFFFFFFFFFFFFF0000 AND OR CALLER PUSH1 0x50 SHL PUSH1 0x1 PUSH1 0x50 SHL PUSH1 0x1 PUSH1 0xF0 SHL SUB AND OR SWAP1 SSTORE SWAP8 SWAP10 DUP11 SWAP9 SWAP1 SWAP5 PUSH1 0x2 SWAP1 SWAP2 ADD SWAP1 DUP4 JUMPDEST DUP2 DUP2 LT PUSH2 0xBCE JUMPI POP POP POP POP DUP6 DUP2 MSTORE PUSH1 0x6 DUP3 MSTORE DUP4 DUP2 KECCAK256 DUP1 SLOAD SWAP2 PUSH1 0x1 PUSH1 0x40 SHL DUP4 LT ISZERO PUSH2 0xBBA JUMPI POP SWAP3 PUSH1 0x1 SWAP3 DUP9 PUSH2 0xBAA PUSH2 0x9F4 DUP6 PUSH32 0x6FAF02F204BAEAAF295439E5483B112C706763054453BED74B5D8647E82CA55B SWAP11 SWAP9 DUP9 PUSH1 0x60 SWAP12 SWAP9 ADD DUP2 SSTORE PUSH2 0x9BA JUMP JUMPDEST SWAP1 SSTORE DUP3 MLOAD SWAP5 DUP6 MSTORE DUP5 ADD MSTORE DUP3 ADD MSTORE LOG3 JUMP JUMPDEST PUSH4 0x4E487B71 PUSH1 0xE0 SHL DUP2 MSTORE PUSH1 0x41 PUSH1 0x4 MSTORE PUSH1 0x24 SWAP1 REVERT JUMPDEST DUP1 PUSH2 0x410 PUSH2 0xBE0 PUSH2 0xBE7 SWAP4 DUP6 DUP9 PUSH2 0x994 JUMP JUMPDEST CALLDATALOAD DUP6 PUSH2 0x9D2 JUMP JUMPDEST PUSH2 0xB49 JUMP JUMPDEST PUSH1 0x44 SWAP1 DUP7 DUP7 MLOAD SWAP2 PUSH4 0x27C4ED97 PUSH1 0xE2 SHL DUP4 MSTORE PUSH1 0x4 DUP4 ADD MSTORE PUSH1 0x24 DUP3 ADD MSTORE REVERT JUMPDEST PUSH2 0xC14 DUP2 DUP7 DUP14 PUSH2 0x994 JUMP JUMPDEST DUP7 MLOAD PUSH4 0x488DBFAD PUSH1 0xE0 SHL DUP2 MSTORE SWAP1 CALLDATALOAD PUSH1 0x4 DUP1 DUP4 ADD DUP3 SWAP1 MSTORE SWAP2 PUSH1 0x24 SWAP1 DUP8 DUP2 DUP4 DUP2 DUP10 GAS STATICCALL SWAP1 DUP2 ISZERO PUSH2 0xCF9 JUMPI DUP8 SWAP2 PUSH2 0xD17 JUMPI JUMPDEST POP ISZERO PUSH2 0xD03 JUMPI DUP9 MLOAD PUSH4 0xCD68A831 PUSH1 0xE0 SHL DUP2 MSTORE DUP4 DUP2 ADD DUP4 SWAP1 MSTORE DUP8 DUP2 DUP4 DUP2 DUP10 GAS STATICCALL SWAP1 DUP2 ISZERO PUSH2 0xCF9 JUMPI SWAP1 DUP14 SWAP2 DUP9 SWAP2 PUSH2 0xCBB JUMPI JUMPDEST POP AND SWAP2 PUSH1 0x28 DUP4 LT ISZERO DUP1 PUSH2 0xCB0 JUMPI JUMPDEST PUSH2 0xC97 JUMPI POP POP POP POP PUSH2 0xC92 SWAP1 PUSH2 0x96F JUMP JUMPDEST PUSH2 0xAB3 JUMP JUMPDEST DUP10 MLOAD PUSH4 0x379A7713 PUSH1 0xE2 SHL DUP2 MSTORE SWAP4 DUP5 ADD MSTORE DUP3 ADD MSTORE PUSH1 0x44 SWAP2 POP REVERT JUMPDEST POP PUSH1 0x2A DUP4 GT ISZERO PUSH2 0xC81 JUMP JUMPDEST DUP1 SWAP3 POP DUP10 DUP1 SWAP3 POP RETURNDATASIZE DUP4 GT PUSH2 0xCF2 JUMPI JUMPDEST PUSH2 0xCD4 DUP2 DUP4 PUSH2 0xA41 JUMP JUMPDEST DUP2 ADD SUB SLT PUSH2 0xCEE JUMPI MLOAD DUP13 DUP2 AND DUP2 SUB PUSH2 0xCEE JUMPI DUP13 SWAP1 CODESIZE PUSH2 0xC73 JUMP JUMPDEST DUP7 DUP1 REVERT JUMPDEST POP RETURNDATASIZE PUSH2 0xCCA JUMP JUMPDEST DUP11 MLOAD RETURNDATASIZE DUP10 DUP3 RETURNDATACOPY RETURNDATASIZE SWAP1 REVERT JUMPDEST SWAP3 POP DUP8 MLOAD SWAP2 PUSH4 0x2047F235 PUSH1 0xE2 SHL DUP4 MSTORE DUP3 ADD MSTORE REVERT JUMPDEST SWAP1 POP DUP8 DUP2 DUP2 RETURNDATASIZE DUP4 GT PUSH2 0xD46 JUMPI JUMPDEST PUSH2 0xD2E DUP2 DUP4 PUSH2 0xA41 JUMP JUMPDEST DUP2 ADD SUB SLT PUSH2 0xCEE JUMPI MLOAD DUP1 ISZERO ISZERO DUP2 SUB PUSH2 0xCEE JUMPI CODESIZE PUSH2 0xC43 JUMP JUMPDEST POP RETURNDATASIZE PUSH2 0xD24 JUMP JUMPDEST PUSH1 0x44 SWAP1 DUP5 DUP7 MLOAD SWAP2 PUSH4 0x4C1EB769 PUSH1 0xE1 SHL DUP4 MSTORE PUSH1 0x4 DUP4 ADD MSTORE PUSH1 0x24 DUP3 ADD MSTORE REVERT JUMPDEST DUP5 MLOAD PUSH4 0xB79EACFB PUSH1 0xE0 SHL DUP2 MSTORE PUSH1 0x4 DUP2 ADD DUP9 SWAP1 MSTORE PUSH1 0x24 SWAP1 REVERT JUMPDEST DUP4 MLOAD PUSH4 0x760A053 PUSH1 0xE3 SHL DUP2 MSTORE PUSH1 0x4 DUP2 ADD DUP8 SWAP1 MSTORE PUSH1 0x24 SWAP1 REVERT JUMPDEST PUSH8 0xFFFFFFFFFFFFFFFF DUP2 GT PUSH2 0xA0F JUMPI PUSH1 0x5 SHL PUSH1 0x20 ADD SWAP1 JUMP JUMPDEST DUP1 MLOAD DUP3 LT ISZERO PUSH2 0x9A4 JUMPI PUSH1 0x20 SWAP2 PUSH1 0x5 SHL ADD ADD SWAP1 JUMP JUMPDEST SWAP1 DUP1 PUSH1 0x1 SWAP2 DUP3 DUP2 EQ PUSH2 0xFB3 JUMPI PUSH2 0xDDB DUP2 PUSH2 0xD9A JUMP JUMPDEST SWAP3 PUSH1 0x40 SWAP3 PUSH2 0xDEB DUP5 MLOAD SWAP6 DUP7 PUSH2 0xA41 JUMP JUMPDEST DUP3 DUP6 MSTORE PUSH2 0xDF7 DUP4 PUSH2 0xD9A JUMP JUMPDEST SWAP6 PUSH1 0x20 SWAP4 DUP5 DUP8 ADD SWAP8 PUSH1 0x1F NOT ADD CALLDATASIZE DUP10 CALLDATACOPY PUSH1 0x0 JUMPDEST DUP2 DUP2 LT PUSH2 0xF94 JUMPI POP POP POP DUP2 DUP1 JUMPDEST PUSH2 0xEEC JUMPI JUMPDEST POP JUMPDEST DUP2 DUP2 GT PUSH2 0xE32 JUMPI POP POP POP POP MLOAD ISZERO PUSH2 0x9A4 JUMPI MLOAD SWAP1 JUMP JUMPDEST DUP2 DUP2 ADD DUP1 DUP3 GT PUSH2 0x97E JUMPI DUP3 SHR SWAP1 PUSH1 0x0 JUMPDEST DUP3 DUP2 LT PUSH2 0xE50 JUMPI POP POP PUSH2 0xE1D JUMP JUMPDEST DUP1 DUP5 SHL SWAP1 DUP1 DUP3 DIV PUSH1 0x2 EQ DUP2 ISZERO OR ISZERO PUSH2 0x97E JUMPI DUP5 DUP3 ADD SWAP2 DUP3 DUP2 GT PUSH2 0x97E JUMPI DUP4 DUP4 LT ISZERO PUSH2 0xED2 JUMPI PUSH2 0xE82 PUSH2 0xE8A SWAP2 DUP11 PUSH2 0xDB2 JUMP JUMPDEST MLOAD SWAP3 DUP10 PUSH2 0xDB2 JUMP JUMPDEST MLOAD SWAP2 DUP8 MLOAD SWAP3 DUP8 DUP5 ADD SWAP2 DUP3 MSTORE DUP9 DUP5 ADD MSTORE DUP8 DUP4 MSTORE PUSH1 0x60 DUP4 ADD SWAP3 DUP1 DUP5 LT PUSH8 0xFFFFFFFFFFFFFFFF DUP6 GT OR PUSH2 0xA0F JUMPI PUSH2 0xECD SWAP4 DUP10 MSTORE MLOAD SWAP1 KECCAK256 PUSH2 0xEC7 DUP3 DUP11 PUSH2 0xDB2 JUMP JUMPDEST MSTORE PUSH2 0x96F JUMP JUMPDEST PUSH2 0xE42 JUMP JUMPDEST PUSH2 0xECD SWAP3 POP PUSH2 0xEE1 SWAP1 DUP10 PUSH2 0xDB2 JUMP JUMPDEST MLOAD PUSH2 0xEC7 DUP3 DUP11 PUSH2 0xDB2 JUMP JUMPDEST DUP6 MLOAD DUP2 LT ISZERO PUSH2 0xF8F JUMPI DUP3 DUP2 PUSH2 0xF02 DUP3 SWAP4 DUP10 PUSH2 0xDB2 JUMP JUMPDEST MLOAD DUP2 SWAP4 JUMPDEST PUSH2 0xF1F JUMPI JUMPDEST PUSH2 0xEC7 PUSH2 0xF19 SWAP4 SWAP5 DUP11 PUSH2 0xDB2 JUMP JUMPDEST SWAP1 PUSH2 0xE16 JUMP JUMPDEST SWAP2 POP SWAP2 DUP1 ISZERO DUP6 DUP2 ISZERO DUP1 PUSH2 0xF6E JUMPI JUMPDEST ISZERO PUSH2 0xF63 JUMPI POP PUSH1 0x0 NOT DUP3 ADD SWAP2 DUP1 DUP4 GT PUSH2 0x97E JUMPI PUSH2 0xF55 PUSH2 0xF4D DUP5 DUP13 PUSH2 0xDB2 JUMP JUMPDEST MLOAD SWAP2 DUP12 PUSH2 0xDB2 JUMP JUMPDEST MSTORE PUSH2 0x97E JUMPI SWAP2 DUP5 SWAP2 DUP3 PUSH2 0xF06 JUMP JUMPDEST SWAP3 SWAP1 POP SWAP3 SWAP1 SWAP3 PUSH2 0xF0B JUMP JUMPDEST POP POP PUSH1 0x0 NOT DUP3 ADD DUP3 DUP2 GT PUSH2 0x97E JUMPI DUP4 PUSH2 0xF88 DUP9 SWAP3 DUP13 PUSH2 0xDB2 JUMP JUMPDEST MLOAD GT PUSH2 0xF2D JUMP JUMPDEST PUSH2 0xE1B JUMP JUMPDEST DUP1 PUSH2 0xFA3 PUSH2 0xFAE SWAP3 DUP5 DUP7 PUSH2 0x994 JUMP JUMPDEST CALLDATALOAD PUSH2 0xEC7 DUP3 DUP12 PUSH2 0xDB2 JUMP JUMPDEST PUSH2 0xE09 JUMP JUMPDEST SWAP2 POP POP ISZERO PUSH2 0x9A4 JUMPI CALLDATALOAD SWAP1 JUMP JUMPDEST SWAP1 PUSH1 0x40 MLOAD SWAP2 DUP3 DUP2 SLOAD SWAP2 DUP3 DUP3 MSTORE PUSH1 0x20 SWAP3 DUP4 DUP4 ADD SWAP2 PUSH1 0x0 MSTORE DUP4 PUSH1 0x0 KECCAK256 SWAP4 PUSH1 0x0 SWAP1 JUMPDEST DUP3 DUP3 LT PUSH2 0xFF6 JUMPI POP POP POP PUSH2 0xFF4 SWAP3 POP SUB DUP4 PUSH2 0xA41 JUMP JUMPDEST JUMP JUMPDEST DUP6 SLOAD DUP5 MSTORE PUSH1 0x1 SWAP6 DUP7 ADD SWAP6 DUP9 SWAP6 POP SWAP4 DUP2 ADD SWAP4 SWAP1 SWAP2 ADD SWAP1 PUSH2 0xFDE JUMP INVALID LOG2 PUSH5 0x6970667358 0x22 SLT KECCAK256 SWAP3 0xE8 0xC4 SELFDESTRUCT 0x5C PUSH23 0x248558840697F86C86A9A02C98E90F6267DC0FBB867781 0xAF 0xA7 JUMPI PUSH5 0x736F6C6343 STOP ADDMOD EQ STOP CALLER "},"methodIdentifiers":{"CHEAT_INFERENCE_MAX()":"de62201a","CHEAT_INFERENCE_MIN()":"c37a636b","MAX_TEAM_SIZE()":"d4b9c129","MIN_TEAM_SIZE()":"8ad6fcfb","MOCK_PROOF_SIZE()":"12a9016e","ZK_VERSION()":"604a0902","computeMerkleRoot(bytes32[])":"2b8b906c","createTeam(bytes32,bytes32[])":"c3a39536","getTeam(bytes32)":"4bb34a7d","getTeamProof(uint256)":"3bd56175","getTeamProofCount(bytes32)":"c0d3f385","getTeamProofIds(bytes32)":"638371ee","owner()":"8da5cb5b","poACVerifier()":"f1cf7905","proofCount()":"addecc06","renounceOwnership()":"715018a6","submitTeamProof(bytes32,bytes32[],bytes32)":"50072dd7","submitTeamProofZK(bytes32,bytes32[],bytes32,bytes32,bytes)":"ef4a949e","teamExists(bytes32)":"44ea6c69","transferOwnership(address)":"f2fde38b","usedNullifiers(bytes32)":"206137aa"}}}}}