{"contracts/TeamProofAggregatorZKTestable.sol":{"TeamProofAggregatorZKTestable":{"abi":[{"inputs":[{"internalType":"address","name":"_poACVerifier","type":"address"}],"stateMutability":"nonpayable","type":"constructor"},{"inputs":[{"internalType":"bytes32","name":"recordHash","type":"bytes32"},{"internalType":"uint8","name":"inferenceResult","type":"uint8"}],"name":"CheatFlagDetected","type":"error"},{"inputs":[{"internalType":"bytes32","name":"computed","type":"bytes32"},{"internalType":"bytes32","name":"submitted","type":"bytes32"}],"name":"InvalidMerkleRoot","type":"error"},{"inputs":[{"internalType":"uint256","name":"size","type":"uint256"}],"name":"InvalidTeamSize","type":"error"},{"inputs":[],"name":"InvalidZKProof","type":"error"},{"inputs":[{"internalType":"uint256","name":"expected","type":"uint256"},{"internalType":"uint256","name":"provided","type":"uint256"}],"name":"MemberCountMismatch","type":"error"},{"inputs":[{"internalType":"bytes32","name":"nullifier","type":"bytes32"}],"name":"NullifierAlreadyUsed","type":"error"},{"inputs":[{"internalType":"address","name":"owner","type":"address"}],"name":"OwnableInvalidOwner","type":"error"},{"inputs":[{"internalType":"address","name":"account","type":"address"}],"name":"OwnableUnauthorizedAccount","type":"error"},{"inputs":[{"internalType":"bytes32","name":"recordHash","type":"bytes32"}],"name":"RecordNotVerified","type":"error"},{"inputs":[{"internalType":"bytes32","name":"teamId","type":"bytes32"}],"name":"TeamAlreadyExists","type":"error"},{"inputs":[{"internalType":"bytes32","name":"teamId","type":"bytes32"}],"name":"TeamNotActive","type":"error"},{"inputs":[{"internalType":"bytes32","name":"teamId","type":"bytes32"}],"name":"TeamNotFound","type":"error"},{"anonymous":false,"inputs":[{"indexed":true,"internalType":"address","name":"previousOwner","type":"address"},{"indexed":true,"internalType":"address","name":"newOwner","type":"address"}],"name":"OwnershipTransferred","type":"event"},{"anonymous":false,"inputs":[{"indexed":true,"internalType":"bytes32","name":"teamId","type":"bytes32"},{"indexed":true,"internalType":"address","name":"captain","type":"address"},{"indexed":false,"internalType":"uint8","name":"memberCount","type":"uint8"}],"name":"TeamCreated","type":"event"},{"anonymous":false,"inputs":[{"indexed":true,"internalType":"bytes32","name":"teamId","type":"bytes32"},{"indexed":true,"internalType":"uint256","name":"proofId","type":"uint256"},{"indexed":false,"internalType":"bytes32","name":"merkleRoot","type":"bytes32"},{"indexed":false,"internalType":"uint8","name":"memberCount","type":"uint8"},{"indexed":false,"internalType":"bool","name":"allClean","type":"bool"}],"name":"TeamProofSubmitted","type":"event"},{"anonymous":false,"inputs":[{"indexed":true,"internalType":"bytes32","name":"teamId","type":"bytes32"},{"indexed":true,"internalType":"bytes32","name":"merkleRoot","type":"bytes32"},{"indexed":false,"internalType":"bytes32","name":"nullifierHash","type":"bytes32"},{"indexed":false,"internalType":"uint256","name":"memberCount","type":"uint256"}],"name":"ZKTeamProofSubmitted","type":"event"},{"inputs":[],"name":"CHEAT_INFERENCE_MAX","outputs":[{"internalType":"uint8","name":"","type":"uint8"}],"stateMutability":"view","type":"function"},{"inputs":[],"name":"CHEAT_INFERENCE_MIN","outputs":[{"internalType":"uint8","name":"","type":"uint8"}],"stateMutability":"view","type":"function"},{"inputs":[],"name":"MAX_TEAM_SIZE","outputs":[{"internalType":"uint8","name":"","type":"uint8"}],"stateMutability":"view","type":"function"},{"inputs":[],"name":"MIN_TEAM_SIZE","outputs":[{"internalType":"uint8","name":"","type":"uint8"}],"stateMutability":"view","type":"function"},{"inputs":[],"name":"MOCK_PROOF_SIZE","outputs":[{"internalType":"uint256","name":"","type":"uint256"}],"stateMutability":"view","type":"function"},{"inputs":[],"name":"ZK_VERSION","outputs":[{"internalType":"bytes32","name":"","type":"bytes32"}],"stateMutability":"view","type":"function"},{"inputs":[{"internalType":"bytes32[]","name":"_leaves","type":"bytes32[]"}],"name":"computeMerkleRoot","outputs":[{"internalType":"bytes32","name":"","type":"bytes32"}],"stateMutability":"pure","type":"function"},{"inputs":[{"internalType":"bytes32","name":"_teamId","type":"bytes32"},{"internalType":"bytes32[]","name":"_deviceIds","type":"bytes32[]"}],"name":"createTeam","outputs":[],"stateMutability":"nonpayable","type":"function"},{"inputs":[{"internalType":"bytes32","name":"_teamId","type":"bytes32"}],"name":"getTeam","outputs":[{"internalType":"bytes32[]","name":"memberDeviceIds","type":"bytes32[]"},{"internalType":"address","name":"captain","type":"address"},{"internalType":"uint64","name":"createdAt","type":"uint64"},{"internalType":"bool","name":"active","type":"bool"}],"stateMutability":"view","type":"function"},{"inputs":[{"internalType":"uint256","name":"_proofId","type":"uint256"}],"name":"getTeamProof","outputs":[{"components":[{"internalType":"bytes32","name":"teamId","type":"bytes32"},{"internalType":"bytes32","name":"merkleRoot","type":"bytes32"},{"internalType":"bytes32[]","name":"recordHashes","type":"bytes32[]"},{"internalType":"uint8","name":"memberCount","type":"uint8"},{"internalType":"bool","name":"allClean","type":"bool"},{"internalType":"uint64","name":"submittedAt","type":"uint64"},{"internalType":"address","name":"submitter","type":"address"}],"internalType":"struct TeamProofAggregator.TeamProof","name":"","type":"tuple"}],"stateMutability":"view","type":"function"},{"inputs":[{"internalType":"bytes32","name":"_teamId","type":"bytes32"}],"name":"getTeamProofCount","outputs":[{"internalType":"uint256","name":"","type":"uint256"}],"stateMutability":"view","type":"function"},{"inputs":[{"internalType":"bytes32","name":"_teamId","type":"bytes32"}],"name":"getTeamProofIds","outputs":[{"internalType":"uint256[]","name":"","type":"uint256[]"}],"stateMutability":"view","type":"function"},{"inputs":[],"name":"mockZKResult","outputs":[{"internalType":"bool","name":"","type":"bool"}],"stateMutability":"view","type":"function"},{"inputs":[],"name":"owner","outputs":[{"internalType":"address","name":"","type":"address"}],"stateMutability":"view","type":"function"},{"inputs":[],"name":"poACVerifier","outputs":[{"internalType":"contract PoACVerifier","name":"","type":"address"}],"stateMutability":"view","type":"function"},{"inputs":[],"name":"proofCount","outputs":[{"internalType":"uint256","name":"","type":"uint256"}],"stateMutability":"view","type":"function"},{"inputs":[],"name":"renounceOwnership","outputs":[],"stateMutability":"nonpayable","type":"function"},{"inputs":[{"internalType":"bool","name":"result","type":"bool"}],"name":"setMockZKResult","outputs":[],"stateMutability":"nonpayable","type":"function"},{"inputs":[{"internalType":"bytes32","name":"_teamId","type":"bytes32"},{"internalType":"bytes32[]","name":"_recordHashes","type":"bytes32[]"},{"internalType":"bytes32","name":"_merkleRoot","type":"bytes32"}],"name":"submitTeamProof","outputs":[{"internalType":"uint256","name":"proofId","type":"uint256"}],"stateMutability":"nonpayable","type":"function"},{"inputs":[{"internalType":"bytes32","name":"_teamId","type":"bytes32"},{"internalType":"bytes32[]","name":"_recordHashes","type":"bytes32[]"},{"internalType":"bytes32","name":"_merkleRoot","type":"bytes32"},{"internalType":"bytes32","name":"_nullifierHash","type":"bytes32"},{"internalType":"bytes","name":"_zkProof","type":"bytes"}],"name":"submitTeamProofZK","outputs":[{"internalType":"uint256","name":"proofId","type":"uint256"}],"stateMutability":"nonpayable","type":"function"},{"inputs":[{"internalType":"bytes32","name":"","type":"bytes32"}],"name":"teamExists","outputs":[{"internalType":"bool","name":"","type":"bool"}],"stateMutability":"view","type":"function"},{"inputs":[{"internalType":"address","name":"newOwner","type":"address"}],"name":"transferOwnership","outputs":[],"stateMutability":"nonpayable","type":"function"},{"inputs":[{"internalType":"bytes32","name":"","type":"bytes32"}],"name":"usedNullifiers","outputs":[{"internalType":"bool","name":"","type":"bool"}],"stateMutability":"view","type":"function"}],"evm":{"bytecode":{"linkReferences":{},"object":"6080346100d357601f6111a138819003918201601f19168301916001600160401b038311848410176100d8578084926020946040528339810103126100d357516001600160a01b0390818116908190036100d35733156100ba5760005460018060a01b0319903382821617600055604051933391167f8be0079c531659141344cd1fd0a4f28419497f9722a3daafe3b4186f6b6457e0600080a36001541617600155600160ff1960085416176008556110b290816100ef8239f35b604051631e4fbdf760e01b815260006004820152602490fd5b600080fd5b634e487b7160e01b600052604160045260246000fdfe608060408181526004908136101561001657600080fd5b600092833560e01c90816312a9016e1461095d57508063206137aa146109305780632b8b906c146108f25780633bd56175146107b157806344ea6c69146107845780634bb34a7d146106e657806350072dd71461069a578063604a09021461065f578063638371ee146105c1578063715018a6146105645780638ad6fcfb146105485780638da5cb5b14610520578063ac99e576146104f1578063addecc06146104d3578063b7119a5f146104af578063c0d3f38514610487578063c37a636b1461046b578063c3a3953614610321578063d4b9c12914610305578063de62201a146102e9578063ef4a949e146101de578063f1cf7905146101b15763f2fde38b1461012157600080fd5b346101ad5760203660031901126101ad576001600160a01b038235818116939192908490036101a9576101526109af565b831561019357505082546001600160a01b0319811683178455167f8be0079c531659141344cd1fd0a4f28419497f9722a3daafe3b4186f6b6457e08380a380f35b51631e4fbdf760e01b8152908101849052602490fd5b8480fd5b8280fd5b8382346101da57816003193601126101da5760015490516001600160a01b039091168152602090f35b5080fd5b508290346101da5760a03660031901126101da5767ffffffffffffffff9280356024358581116101a9576102159036908401610979565b946044359360643597608435908082116102e557366023830112156102e557818301359081116102e557369101602401116101da57878252600760205260ff86832054166102ce5760ff60085416156102c05750866102af85887f5fde3eefb6947171e166b973c9376f8f26046d6be28db64b8819df9fda8ea80d95898660209d82985260078e5220600160ff1982541617905587610acf565b96825191825288820152a351908152f35b85516303b2487b60e11b8152fd5b8551632920f74160e21b8152908101889052602490fd5b8380fd5b8382346101da57816003193601126101da5760209051602a8152f35b8382346101da57816003193601126101da576020905160068152f35b50346101ad57806003193601126101ad5781359060243567ffffffffffffffff81116101a9576103549036908501610979565b93838652600360205260ff83872054166104545760028510801561044a575b610433575082855260026020528185206001810180546001600160e81b0319163368ffffffffffffffffff60a01b1916174260a01b67ffffffffffffffff60a01b1617600160e01b179055855b8581106104105750505060ff9082855260036020528085206001831982541617905551921682527fd51f1ea8e0b03f99b94c0bdb936c2fc4683c160bf64b58e5fbc3ccbe4c20f9ca60203393a380f35b8061042961042261042e938987610a00565b3584610a3e565b6109db565b6103c0565b825163ef2e255d60e01b8152908101859052602490fd5b5060068511610373565b825163f7bd25cb60e01b8152908101849052602490fd5b8382346101da57816003193601126101da576020905160288152f35b5090346101ad5760203660031901126101ad5760209282913581526006845220549051908152f35b8382346101da57816003193601126101da5760209060ff6008541690519015158152f35b5090346101ad57826003193601126101ad5760209250549051908152f35b5050346101da5760203660031901126101da57358015158091036101da5760ff80196008541691161760085580f35b8382346101da57816003193601126101da57905490516001600160a01b039091168152602090f35b8382346101da57816003193601126101da576020905160028152f35b83346105be57806003193601126105be5761057d6109af565b80546001600160a01b03198116825581906001600160a01b03167f8be0079c531659141344cd1fd0a4f28419497f9722a3daafe3b4186f6b6457e08280a380f35b80fd5b5091346105be57602091826003193601126101da5792919235815260068352818120908251808584549182815201908194845286842090845b81811061064b5750505081610610910382610aad565b83519485948186019282875251809352850193925b82811061063457505050500390f35b835185528695509381019392810192600101610625565b8254845292880192600192830192016105fa565b8382346101da57816003193601126101da57602090517f22c53f333828936b9047d0d278f0624190302e02696fa9aa397835bd5b74bbd18152f35b5082346105be5760603660031901126105be576024359067ffffffffffffffff82116105be57506020926106d46106df9236908301610979565b906044359235610acf565b9051908152f35b509190346101da57602090816003193601126101ad57919091358152600282528281209260019261071a848601549561102b565b92825194608086016080875285518091528360a088019601925b818110610771576001600160a01b0389168589015260a089901c67ffffffffffffffff168689015260e089901c60ff161515606089015287870388f35b8351875295840195928401928201610734565b5090346101ad5760203660031901126101ad578160209360ff923581526003855220541690519015158152f35b5091346105be57602091826003193601126101da578160c085949395516107d781610a91565b82815282858201526060868201528260608201528260808201528260a082015201523583526005815281832082519261080f84610a91565b815484526001918281015494848101958652600361082f6002840161102b565b92848301938452015493606082019760ff86168952608083019160ff8760081c161515835260a084019367ffffffffffffffff95868960101c16865260c082019760018060a01b03809a60501c16895280519b8b8d528c8c6101008201955191015251908c0152519860e060608c01528951809252806101208c019a01935b8281106108df57505050505060ff87985116608088015251151560a0870152511660c0850152511660e08301520390f35b84518b52998101999381019383016108ae565b5082346105be5760203660031901126105be5782359067ffffffffffffffff82116105be575061092a6020936106df92369101610979565b90610e32565b5090346101ad5760203660031901126101ad578160209360ff923581526007855220541690519015158152f35b8490346101da57816003193601126101da578061010060209252f35b9181601f840112156109aa5782359167ffffffffffffffff83116109aa576020808501948460051b0101116109aa57565b600080fd5b6000546001600160a01b031633036109c357565b60405163118cdaa760e01b8152336004820152602490fd5b60001981146109ea5760010190565b634e487b7160e01b600052601160045260246000fd5b9190811015610a105760051b0190565b634e487b7160e01b600052603260045260246000fd5b8054821015610a105760005260206000200190600090565b805490600160401b821015610a7b5781610a60916001610a7794018155610a26565b819391549060031b91821b91600019901b19161790565b9055565b634e487b7160e01b600052604160045260246000fd5b60e0810190811067ffffffffffffffff821117610a7b57604052565b90601f8019910116810190811067ffffffffffffffff821117610a7b57604052565b90939260008281526020936003855260ff9460409286848220541615610dee578581526002825283812087600182015460e01c1615610dd65754808403610db957506001546001600160a01b0316815b848110610c75575050610b32838a610e32565b858103610c5857506004549698610b48886109db565b600455878252600583528482208781556001810187905560038101805462010000600160f01b031961ffff19919091169c87169c8d1761010017164260101b69ffffffffffffffff000016173360501b600160501b600160f01b031617905597998a989094600290910190835b818110610c3a575050505085815260068252838120805491600160401b831015610c2657509260019288610c16610a60857f6faf02f204baeaaf295439e5483b112c706763054453bed74b5d8647e82ca55b9a988860609b98018155610a26565b90558251948552840152820152a3565b634e487b7160e01b81526041600452602490fd5b80610429610c4c610c53938588610a00565b3585610a3e565b610bb5565b604490868651916327c4ed9760e21b835260048301526024820152fd5b610c8081868d610a00565b865163488dbfad60e01b8152903560048083018290529160249087818381895afa908115610d65578791610d83575b5015610d6f57885163cd68a83160e01b815283810183905287818381895afa908115610d6557908d918891610d27575b501691602883101580610d1c575b610d035750505050610cfe906109db565b610b1f565b895163379a771360e21b81529384015282015260449150fd5b50602a831115610ced565b809250898092503d8311610d5e575b610d408183610aad565b81010312610d5a57518c81168103610d5a578c9038610cdf565b8680fd5b503d610d36565b8a513d89823e3d90fd5b9250875191632047f23560e21b8352820152fd5b90508781813d8311610db2575b610d9a8183610aad565b81010312610d5a57518015158103610d5a5738610caf565b503d610d90565b60449084865191634c1eb76960e11b835260048301526024820152fd5b845163b79eacfb60e01b815260048101889052602490fd5b8351630760a05360e31b815260048101879052602490fd5b67ffffffffffffffff8111610a7b5760051b60200190565b8051821015610a105760209160051b010190565b908060019182811461101f57610e4781610e06565b92604092610e5784519586610aad565b828552610e6383610e06565b9560209384870197601f190136893760005b8181106110005750505081805b610f58575b505b818111610e9e57505050505115610a10575190565b8181018082116109ea57821c9060005b828110610ebc575050610e89565b80841b90808204600214811517156109ea57848201918281116109ea5783831015610f3e57610eee610ef6918a610e1e565b519289610e1e565b519187519287840191825288840152878352606083019280841067ffffffffffffffff851117610a7b57610f39938952519020610f33828a610e1e565b526109db565b610eae565b610f399250610f4d9089610e1e565b51610f33828a610e1e565b8551811015610ffb578281610f6e829389610e1e565b5181935b610f8b575b610f33610f8593948a610e1e565b90610e82565b915091801585811580610fda575b15610fcf57506000198201918083116109ea57610fc1610fb9848c610e1e565b51918b610e1e565b526109ea5791849182610f72565b929050929092610f77565b505060001982018281116109ea5783610ff488928c610e1e565b5111610f99565b610e87565b8061100f61101a928486610a00565b35610f33828b610e1e565b610e75565b91505015610a10573590565b9060405191828154918282526020928383019160005283600020936000905b8282106110625750505061106092500383610aad565b565b85548452600195860195889550938101939091019061104a56fea2646970667358221220db3a29d6ce2cdf1e227c57e83338a5947db6aa9279326881396266ffd773b86164736f6c63430008140033","opcodes":"PUSH1 0x80 CALLVALUE PUSH2 0xD3 JUMPI PUSH1 0x1F PUSH2 0x11A1 CODESIZE DUP2 SWAP1 SUB SWAP2 DUP3 ADD PUSH1 0x1F NOT AND DUP4 ADD SWAP2 PUSH1 0x1 PUSH1 0x1 PUSH1 0x40 SHL SUB DUP4 GT DUP5 DUP5 LT OR PUSH2 0xD8 JUMPI DUP1 DUP5 SWAP3 PUSH1 0x20 SWAP5 PUSH1 0x40 MSTORE DUP4 CODECOPY DUP2 ADD SUB SLT PUSH2 0xD3 JUMPI MLOAD PUSH1 0x1 PUSH1 0x1 PUSH1 0xA0 SHL SUB SWAP1 DUP2 DUP2 AND SWAP1 DUP2 SWAP1 SUB PUSH2 0xD3 JUMPI CALLER ISZERO PUSH2 0xBA JUMPI PUSH1 0x0 SLOAD PUSH1 0x1 DUP1 PUSH1 0xA0 SHL SUB NOT SWAP1 CALLER DUP3 DUP3 AND OR PUSH1 0x0 SSTORE PUSH1 0x40 MLOAD SWAP4 CALLER SWAP2 AND PUSH32 0x8BE0079C531659141344CD1FD0A4F28419497F9722A3DAAFE3B4186F6B6457E0 PUSH1 0x0 DUP1 LOG3 PUSH1 0x1 SLOAD AND OR PUSH1 0x1 SSTORE PUSH1 0x1 PUSH1 0xFF NOT PUSH1 0x8 SLOAD AND OR PUSH1 0x8 SSTORE PUSH2 0x10B2 SWAP1 DUP2 PUSH2 0xEF DUP3 CODECOPY RETURN JUMPDEST PUSH1 0x40 MLOAD PUSH4 0x1E4FBDF7 PUSH1 0xE0 SHL DUP2 MSTORE PUSH1 0x0 PUSH1 0x4 DUP3 ADD MSTORE PUSH1 0x24 SWAP1 REVERT JUMPDEST PUSH1 0x0 DUP1 REVERT JUMPDEST PUSH4 0x4E487B71 PUSH1 0xE0 SHL PUSH1 0x0 MSTORE PUSH1 0x41 PUSH1 0x4 MSTORE PUSH1 0x24 PUSH1 0x0 REVERT INVALID PUSH1 0x80 PUSH1 0x40 DUP2 DUP2 MSTORE PUSH1 0x4 SWAP1 DUP2 CALLDATASIZE LT ISZERO PUSH2 0x16 JUMPI PUSH1 0x0 DUP1 REVERT JUMPDEST PUSH1 0x0 SWAP3 DUP4 CALLDATALOAD PUSH1 0xE0 SHR SWAP1 DUP2 PUSH4 0x12A9016E EQ PUSH2 0x95D JUMPI POP DUP1 PUSH4 0x206137AA EQ PUSH2 0x930 JUMPI DUP1 PUSH4 0x2B8B906C EQ PUSH2 0x8F2 JUMPI DUP1 PUSH4 0x3BD56175 EQ PUSH2 0x7B1 JUMPI DUP1 PUSH4 0x44EA6C69 EQ PUSH2 0x784 JUMPI DUP1 PUSH4 0x4BB34A7D EQ PUSH2 0x6E6 JUMPI DUP1 PUSH4 0x50072DD7 EQ PUSH2 0x69A JUMPI DUP1 PUSH4 0x604A0902 EQ PUSH2 0x65F JUMPI DUP1 PUSH4 0x638371EE EQ PUSH2 0x5C1 JUMPI DUP1 PUSH4 0x715018A6 EQ PUSH2 0x564 JUMPI DUP1 PUSH4 0x8AD6FCFB EQ PUSH2 0x548 JUMPI DUP1 PUSH4 0x8DA5CB5B EQ PUSH2 0x520 JUMPI DUP1 PUSH4 0xAC99E576 EQ PUSH2 0x4F1 JUMPI DUP1 PUSH4 0xADDECC06 EQ PUSH2 0x4D3 JUMPI DUP1 PUSH4 0xB7119A5F EQ PUSH2 0x4AF JUMPI DUP1 PUSH4 0xC0D3F385 EQ PUSH2 0x487 JUMPI DUP1 PUSH4 0xC37A636B EQ PUSH2 0x46B JUMPI DUP1 PUSH4 0xC3A39536 EQ PUSH2 0x321 JUMPI DUP1 PUSH4 0xD4B9C129 EQ PUSH2 0x305 JUMPI DUP1 PUSH4 0xDE62201A EQ PUSH2 0x2E9 JUMPI DUP1 PUSH4 0xEF4A949E EQ PUSH2 0x1DE JUMPI DUP1 PUSH4 0xF1CF7905 EQ PUSH2 0x1B1 JUMPI PUSH4 0xF2FDE38B EQ PUSH2 0x121 JUMPI PUSH1 0x0 DUP1 REVERT JUMPDEST CALLVALUE PUSH2 0x1AD JUMPI PUSH1 0x20 CALLDATASIZE PUSH1 0x3 NOT ADD SLT PUSH2 0x1AD JUMPI PUSH1 0x1 PUSH1 0x1 PUSH1 0xA0 SHL SUB DUP3 CALLDATALOAD DUP2 DUP2 AND SWAP4 SWAP2 SWAP3 SWAP1 DUP5 SWAP1 SUB PUSH2 0x1A9 JUMPI PUSH2 0x152 PUSH2 0x9AF JUMP JUMPDEST DUP4 ISZERO PUSH2 0x193 JUMPI POP POP DUP3 SLOAD PUSH1 0x1 PUSH1 0x1 PUSH1 0xA0 SHL SUB NOT DUP2 AND DUP4 OR DUP5 SSTORE AND PUSH32 0x8BE0079C531659141344CD1FD0A4F28419497F9722A3DAAFE3B4186F6B6457E0 DUP4 DUP1 LOG3 DUP1 RETURN JUMPDEST MLOAD PUSH4 0x1E4FBDF7 PUSH1 0xE0 SHL DUP2 MSTORE SWAP1 DUP2 ADD DUP5 SWAP1 MSTORE PUSH1 0x24 SWAP1 REVERT JUMPDEST DUP5 DUP1 REVERT JUMPDEST DUP3 DUP1 REVERT JUMPDEST DUP4 DUP3 CALLVALUE PUSH2 0x1DA JUMPI DUP2 PUSH1 0x3 NOT CALLDATASIZE ADD SLT PUSH2 0x1DA JUMPI PUSH1 0x1 SLOAD SWAP1 MLOAD PUSH1 0x1 PUSH1 0x1 PUSH1 0xA0 SHL SUB SWAP1 SWAP2 AND DUP2 MSTORE PUSH1 0x20 SWAP1 RETURN JUMPDEST POP DUP1 REVERT JUMPDEST POP DUP3 SWAP1 CALLVALUE PUSH2 0x1DA JUMPI PUSH1 0xA0 CALLDATASIZE PUSH1 0x3 NOT ADD SLT PUSH2 0x1DA JUMPI PUSH8 0xFFFFFFFFFFFFFFFF SWAP3 DUP1 CALLDATALOAD PUSH1 0x24 CALLDATALOAD DUP6 DUP2 GT PUSH2 0x1A9 JUMPI PUSH2 0x215 SWAP1 CALLDATASIZE SWAP1 DUP5 ADD PUSH2 0x979 JUMP JUMPDEST SWAP5 PUSH1 0x44 CALLDATALOAD SWAP4 PUSH1 0x64 CALLDATALOAD SWAP8 PUSH1 0x84 CALLDATALOAD SWAP1 DUP1 DUP3 GT PUSH2 0x2E5 JUMPI CALLDATASIZE PUSH1 0x23 DUP4 ADD SLT ISZERO PUSH2 0x2E5 JUMPI DUP2 DUP4 ADD CALLDATALOAD SWAP1 DUP2 GT PUSH2 0x2E5 JUMPI CALLDATASIZE SWAP2 ADD PUSH1 0x24 ADD GT PUSH2 0x1DA JUMPI DUP8 DUP3 MSTORE PUSH1 0x7 PUSH1 0x20 MSTORE PUSH1 0xFF DUP7 DUP4 KECCAK256 SLOAD AND PUSH2 0x2CE JUMPI PUSH1 0xFF PUSH1 0x8 SLOAD AND ISZERO PUSH2 0x2C0 JUMPI POP DUP7 PUSH2 0x2AF DUP6 DUP9 PUSH32 0x5FDE3EEFB6947171E166B973C9376F8F26046D6BE28DB64B8819DF9FDA8EA80D SWAP6 DUP10 DUP7 PUSH1 0x20 SWAP14 DUP3 SWAP9 MSTORE PUSH1 0x7 DUP15 MSTORE KECCAK256 PUSH1 0x1 PUSH1 0xFF NOT DUP3 SLOAD AND OR SWAP1 SSTORE DUP8 PUSH2 0xACF JUMP JUMPDEST SWAP7 DUP3 MLOAD SWAP2 DUP3 MSTORE DUP9 DUP3 ADD MSTORE LOG3 MLOAD SWAP1 DUP2 MSTORE RETURN JUMPDEST DUP6 MLOAD PUSH4 0x3B2487B PUSH1 0xE1 SHL DUP2 MSTORE REVERT JUMPDEST DUP6 MLOAD PUSH4 0x2920F741 PUSH1 0xE2 SHL DUP2 MSTORE SWAP1 DUP2 ADD DUP9 SWAP1 MSTORE PUSH1 0x24 SWAP1 REVERT JUMPDEST DUP4 DUP1 REVERT JUMPDEST DUP4 DUP3 CALLVALUE PUSH2 0x1DA JUMPI DUP2 PUSH1 0x3 NOT CALLDATASIZE ADD SLT PUSH2 0x1DA JUMPI PUSH1 0x20 SWAP1 MLOAD PUSH1 0x2A DUP2 MSTORE RETURN JUMPDEST DUP4 DUP3 CALLVALUE PUSH2 0x1DA JUMPI DUP2 PUSH1 0x3 NOT CALLDATASIZE ADD SLT PUSH2 0x1DA JUMPI PUSH1 0x20 SWAP1 MLOAD PUSH1 0x6 DUP2 MSTORE RETURN JUMPDEST POP CALLVALUE PUSH2 0x1AD JUMPI DUP1 PUSH1 0x3 NOT CALLDATASIZE ADD SLT PUSH2 0x1AD JUMPI DUP2 CALLDATALOAD SWAP1 PUSH1 0x24 CALLDATALOAD PUSH8 0xFFFFFFFFFFFFFFFF DUP2 GT PUSH2 0x1A9 JUMPI PUSH2 0x354 SWAP1 CALLDATASIZE SWAP1 DUP6 ADD PUSH2 0x979 JUMP JUMPDEST SWAP4 DUP4 DUP7 MSTORE PUSH1 0x3 PUSH1 0x20 MSTORE PUSH1 0xFF DUP4 DUP8 KECCAK256 SLOAD AND PUSH2 0x454 JUMPI PUSH1 0x2 DUP6 LT DUP1 ISZERO PUSH2 0x44A JUMPI JUMPDEST PUSH2 0x433 JUMPI POP DUP3 DUP6 MSTORE PUSH1 0x2 PUSH1 0x20 MSTORE DUP2 DUP6 KECCAK256 PUSH1 0x1 DUP2 ADD DUP1 SLOAD PUSH1 0x1 PUSH1 0x1 PUSH1 0xE8 SHL SUB NOT AND CALLER PUSH9 0xFFFFFFFFFFFFFFFFFF PUSH1 0xA0 SHL NOT AND OR TIMESTAMP PUSH1 0xA0 SHL PUSH8 0xFFFFFFFFFFFFFFFF PUSH1 0xA0 SHL AND OR PUSH1 0x1 PUSH1 0xE0 SHL OR SWAP1 SSTORE DUP6 JUMPDEST DUP6 DUP2 LT PUSH2 0x410 JUMPI POP POP POP PUSH1 0xFF SWAP1 DUP3 DUP6 MSTORE PUSH1 0x3 PUSH1 0x20 MSTORE DUP1 DUP6 KECCAK256 PUSH1 0x1 DUP4 NOT DUP3 SLOAD AND OR SWAP1 SSTORE MLOAD SWAP3 AND DUP3 MSTORE PUSH32 0xD51F1EA8E0B03F99B94C0BDB936C2FC4683C160BF64B58E5FBC3CCBE4C20F9CA PUSH1 0x20 CALLER SWAP4 LOG3 DUP1 RETURN JUMPDEST DUP1 PUSH2 0x429 PUSH2 0x422 PUSH2 0x42E SWAP4 DUP10 DUP8 PUSH2 0xA00 JUMP JUMPDEST CALLDATALOAD DUP5 PUSH2 0xA3E JUMP JUMPDEST PUSH2 0x9DB JUMP JUMPDEST PUSH2 0x3C0 JUMP JUMPDEST DUP3 MLOAD PUSH4 0xEF2E255D PUSH1 0xE0 SHL DUP2 MSTORE SWAP1 DUP2 ADD DUP6 SWAP1 MSTORE PUSH1 0x24 SWAP1 REVERT JUMPDEST POP PUSH1 0x6 DUP6 GT PUSH2 0x373 JUMP JUMPDEST DUP3 MLOAD PUSH4 0xF7BD25CB PUSH1 0xE0 SHL DUP2 MSTORE SWAP1 DUP2 ADD DUP5 SWAP1 MSTORE PUSH1 0x24 SWAP1 REVERT JUMPDEST DUP4 DUP3 CALLVALUE PUSH2 0x1DA JUMPI DUP2 PUSH1 0x3 NOT CALLDATASIZE ADD SLT PUSH2 0x1DA JUMPI PUSH1 0x20 SWAP1 MLOAD PUSH1 0x28 DUP2 MSTORE RETURN JUMPDEST POP SWAP1 CALLVALUE PUSH2 0x1AD JUMPI PUSH1 0x20 CALLDATASIZE PUSH1 0x3 NOT ADD SLT PUSH2 0x1AD JUMPI PUSH1 0x20 SWAP3 DUP3 SWAP2 CALLDATALOAD DUP2 MSTORE PUSH1 0x6 DUP5 MSTORE KECCAK256 SLOAD SWAP1 MLOAD SWAP1 DUP2 MSTORE RETURN JUMPDEST DUP4 DUP3 CALLVALUE PUSH2 0x1DA JUMPI DUP2 PUSH1 0x3 NOT CALLDATASIZE ADD SLT PUSH2 0x1DA JUMPI PUSH1 0x20 SWAP1 PUSH1 0xFF PUSH1 0x8 SLOAD AND SWAP1 MLOAD SWAP1 ISZERO ISZERO DUP2 MSTORE RETURN JUMPDEST POP SWAP1 CALLVALUE PUSH2 0x1AD JUMPI DUP3 PUSH1 0x3 NOT CALLDATASIZE ADD SLT PUSH2 0x1AD JUMPI PUSH1 0x20 SWAP3 POP SLOAD SWAP1 MLOAD SWAP1 DUP2 MSTORE RETURN JUMPDEST POP POP CALLVALUE PUSH2 0x1DA JUMPI PUSH1 0x20 CALLDATASIZE PUSH1 0x3 NOT ADD SLT PUSH2 0x1DA JUMPI CALLDATALOAD DUP1 ISZERO ISZERO DUP1 SWAP2 SUB PUSH2 0x1DA JUMPI PUSH1 0xFF DUP1 NOT PUSH1 0x8 SLOAD AND SWAP2 AND OR PUSH1 0x8 SSTORE DUP1 RETURN JUMPDEST DUP4 DUP3 CALLVALUE PUSH2 0x1DA JUMPI DUP2 PUSH1 0x3 NOT CALLDATASIZE ADD SLT PUSH2 0x1DA JUMPI SWAP1 SLOAD SWAP1 MLOAD PUSH1 0x1 PUSH1 0x1 PUSH1 0xA0 SHL SUB SWAP1 SWAP2 AND DUP2 MSTORE PUSH1 0x20 SWAP1 RETURN JUMPDEST DUP4 DUP3 CALLVALUE PUSH2 0x1DA JUMPI DUP2 PUSH1 0x3 NOT CALLDATASIZE ADD SLT PUSH2 0x1DA JUMPI PUSH1 0x20 SWAP1 MLOAD PUSH1 0x2 DUP2 MSTORE RETURN JUMPDEST DUP4 CALLVALUE PUSH2 0x5BE JUMPI DUP1 PUSH1 0x3 NOT CALLDATASIZE ADD SLT PUSH2 0x5BE JUMPI PUSH2 0x57D PUSH2 0x9AF JUMP JUMPDEST DUP1 SLOAD PUSH1 0x1 PUSH1 0x1 PUSH1 0xA0 SHL SUB NOT DUP2 AND DUP3 SSTORE DUP2 SWAP1 PUSH1 0x1 PUSH1 0x1 PUSH1 0xA0 SHL SUB AND PUSH32 0x8BE0079C531659141344CD1FD0A4F28419497F9722A3DAAFE3B4186F6B6457E0 DUP3 DUP1 LOG3 DUP1 RETURN JUMPDEST DUP1 REVERT JUMPDEST POP SWAP2 CALLVALUE PUSH2 0x5BE JUMPI PUSH1 0x20 SWAP2 DUP3 PUSH1 0x3 NOT CALLDATASIZE ADD SLT PUSH2 0x1DA JUMPI SWAP3 SWAP2 SWAP3 CALLDATALOAD DUP2 MSTORE PUSH1 0x6 DUP4 MSTORE DUP2 DUP2 KECCAK256 SWAP1 DUP3 MLOAD DUP1 DUP6 DUP5 SLOAD SWAP2 DUP3 DUP2 MSTORE ADD SWAP1 DUP2 SWAP5 DUP5 MSTORE DUP7 DUP5 KECCAK256 SWAP1 DUP5 JUMPDEST DUP2 DUP2 LT PUSH2 0x64B JUMPI POP POP POP DUP2 PUSH2 0x610 SWAP2 SUB DUP3 PUSH2 0xAAD JUMP JUMPDEST DUP4 MLOAD SWAP5 DUP6 SWAP5 DUP2 DUP7 ADD SWAP3 DUP3 DUP8 MSTORE MLOAD DUP1 SWAP4 MSTORE DUP6 ADD SWAP4 SWAP3 JUMPDEST DUP3 DUP2 LT PUSH2 0x634 JUMPI POP POP POP POP SUB SWAP1 RETURN JUMPDEST DUP4 MLOAD DUP6 MSTORE DUP7 SWAP6 POP SWAP4 DUP2 ADD SWAP4 SWAP3 DUP2 ADD SWAP3 PUSH1 0x1 ADD PUSH2 0x625 JUMP JUMPDEST DUP3 SLOAD DUP5 MSTORE SWAP3 DUP9 ADD SWAP3 PUSH1 0x1 SWAP3 DUP4 ADD SWAP3 ADD PUSH2 0x5FA JUMP JUMPDEST DUP4 DUP3 CALLVALUE PUSH2 0x1DA JUMPI DUP2 PUSH1 0x3 NOT CALLDATASIZE ADD SLT PUSH2 0x1DA JUMPI PUSH1 0x20 SWAP1 MLOAD PUSH32 0x22C53F333828936B9047D0D278F0624190302E02696FA9AA397835BD5B74BBD1 DUP2 MSTORE RETURN JUMPDEST POP DUP3 CALLVALUE PUSH2 0x5BE JUMPI PUSH1 0x60 CALLDATASIZE PUSH1 0x3 NOT ADD SLT PUSH2 0x5BE JUMPI PUSH1 0x24 CALLDATALOAD SWAP1 PUSH8 0xFFFFFFFFFFFFFFFF DUP3 GT PUSH2 0x5BE JUMPI POP PUSH1 0x20 SWAP3 PUSH2 0x6D4 PUSH2 0x6DF SWAP3 CALLDATASIZE SWAP1 DUP4 ADD PUSH2 0x979 JUMP JUMPDEST SWAP1 PUSH1 0x44 CALLDATALOAD SWAP3 CALLDATALOAD PUSH2 0xACF JUMP JUMPDEST SWAP1 MLOAD SWAP1 DUP2 MSTORE RETURN JUMPDEST POP SWAP2 SWAP1 CALLVALUE PUSH2 0x1DA JUMPI PUSH1 0x20 SWAP1 DUP2 PUSH1 0x3 NOT CALLDATASIZE ADD SLT PUSH2 0x1AD JUMPI SWAP2 SWAP1 SWAP2 CALLDATALOAD DUP2 MSTORE PUSH1 0x2 DUP3 MSTORE DUP3 DUP2 KECCAK256 SWAP3 PUSH1 0x1 SWAP3 PUSH2 0x71A DUP5 DUP7 ADD SLOAD SWAP6 PUSH2 0x102B JUMP JUMPDEST SWAP3 DUP3 MLOAD SWAP5 PUSH1 0x80 DUP7 ADD PUSH1 0x80 DUP8 MSTORE DUP6 MLOAD DUP1 SWAP2 MSTORE DUP4 PUSH1 0xA0 DUP9 ADD SWAP7 ADD SWAP3 JUMPDEST DUP2 DUP2 LT PUSH2 0x771 JUMPI PUSH1 0x1 PUSH1 0x1 PUSH1 0xA0 SHL SUB DUP10 AND DUP6 DUP10 ADD MSTORE PUSH1 0xA0 DUP10 SWAP1 SHR PUSH8 0xFFFFFFFFFFFFFFFF AND DUP7 DUP10 ADD MSTORE PUSH1 0xE0 DUP10 SWAP1 SHR PUSH1 0xFF AND ISZERO ISZERO PUSH1 0x60 DUP10 ADD MSTORE DUP8 DUP8 SUB DUP9 RETURN JUMPDEST DUP4 MLOAD DUP8 MSTORE SWAP6 DUP5 ADD SWAP6 SWAP3 DUP5 ADD SWAP3 DUP3 ADD PUSH2 0x734 JUMP JUMPDEST POP SWAP1 CALLVALUE PUSH2 0x1AD JUMPI PUSH1 0x20 CALLDATASIZE PUSH1 0x3 NOT ADD SLT PUSH2 0x1AD JUMPI DUP2 PUSH1 0x20 SWAP4 PUSH1 0xFF SWAP3 CALLDATALOAD DUP2 MSTORE PUSH1 0x3 DUP6 MSTORE KECCAK256 SLOAD AND SWAP1 MLOAD SWAP1 ISZERO ISZERO DUP2 MSTORE RETURN JUMPDEST POP SWAP2 CALLVALUE PUSH2 0x5BE JUMPI PUSH1 0x20 SWAP2 DUP3 PUSH1 0x3 NOT CALLDATASIZE ADD SLT PUSH2 0x1DA JUMPI DUP2 PUSH1 0xC0 DUP6 SWAP5 SWAP4 SWAP6 MLOAD PUSH2 0x7D7 DUP2 PUSH2 0xA91 JUMP JUMPDEST DUP3 DUP2 MSTORE DUP3 DUP6 DUP3 ADD MSTORE PUSH1 0x60 DUP7 DUP3 ADD MSTORE DUP3 PUSH1 0x60 DUP3 ADD MSTORE DUP3 PUSH1 0x80 DUP3 ADD MSTORE DUP3 PUSH1 0xA0 DUP3 ADD MSTORE ADD MSTORE CALLDATALOAD DUP4 MSTORE PUSH1 0x5 DUP2 MSTORE DUP2 DUP4 KECCAK256 DUP3 MLOAD SWAP3 PUSH2 0x80F DUP5 PUSH2 0xA91 JUMP JUMPDEST DUP2 SLOAD DUP5 MSTORE PUSH1 0x1 SWAP2 DUP3 DUP2 ADD SLOAD SWAP5 DUP5 DUP2 ADD SWAP6 DUP7 MSTORE PUSH1 0x3 PUSH2 0x82F PUSH1 0x2 DUP5 ADD PUSH2 0x102B JUMP JUMPDEST SWAP3 DUP5 DUP4 ADD SWAP4 DUP5 MSTORE ADD SLOAD SWAP4 PUSH1 0x60 DUP3 ADD SWAP8 PUSH1 0xFF DUP7 AND DUP10 MSTORE PUSH1 0x80 DUP4 ADD SWAP2 PUSH1 0xFF DUP8 PUSH1 0x8 SHR AND ISZERO ISZERO DUP4 MSTORE PUSH1 0xA0 DUP5 ADD SWAP4 PUSH8 0xFFFFFFFFFFFFFFFF SWAP6 DUP7 DUP10 PUSH1 0x10 SHR AND DUP7 MSTORE PUSH1 0xC0 DUP3 ADD SWAP8 PUSH1 0x1 DUP1 PUSH1 0xA0 SHL SUB DUP1 SWAP11 PUSH1 0x50 SHR AND DUP10 MSTORE DUP1 MLOAD SWAP12 DUP12 DUP14 MSTORE DUP13 DUP13 PUSH2 0x100 DUP3 ADD SWAP6 MLOAD SWAP2 ADD MSTORE MLOAD SWAP1 DUP13 ADD MSTORE MLOAD SWAP9 PUSH1 0xE0 PUSH1 0x60 DUP13 ADD MSTORE DUP10 MLOAD DUP1 SWAP3 MSTORE DUP1 PUSH2 0x120 DUP13 ADD SWAP11 ADD SWAP4 JUMPDEST DUP3 DUP2 LT PUSH2 0x8DF JUMPI POP POP POP POP POP PUSH1 0xFF DUP8 SWAP9 MLOAD AND PUSH1 0x80 DUP9 ADD MSTORE MLOAD ISZERO ISZERO PUSH1 0xA0 DUP8 ADD MSTORE MLOAD AND PUSH1 0xC0 DUP6 ADD MSTORE MLOAD AND PUSH1 0xE0 DUP4 ADD MSTORE SUB SWAP1 RETURN JUMPDEST DUP5 MLOAD DUP12 MSTORE SWAP10 DUP2 ADD SWAP10 SWAP4 DUP2 ADD SWAP4 DUP4 ADD PUSH2 0x8AE JUMP JUMPDEST POP DUP3 CALLVALUE PUSH2 0x5BE JUMPI PUSH1 0x20 CALLDATASIZE PUSH1 0x3 NOT ADD SLT PUSH2 0x5BE JUMPI DUP3 CALLDATALOAD SWAP1 PUSH8 0xFFFFFFFFFFFFFFFF DUP3 GT PUSH2 0x5BE JUMPI POP PUSH2 0x92A PUSH1 0x20 SWAP4 PUSH2 0x6DF SWAP3 CALLDATASIZE SWAP2 ADD PUSH2 0x979 JUMP JUMPDEST SWAP1 PUSH2 0xE32 JUMP JUMPDEST POP SWAP1 CALLVALUE PUSH2 0x1AD JUMPI PUSH1 0x20 CALLDATASIZE PUSH1 0x3 NOT ADD SLT PUSH2 0x1AD JUMPI DUP2 PUSH1 0x20 SWAP4 PUSH1 0xFF SWAP3 CALLDATALOAD DUP2 MSTORE PUSH1 0x7 DUP6 MSTORE KECCAK256 SLOAD AND SWAP1 MLOAD SWAP1 ISZERO ISZERO DUP2 MSTORE RETURN JUMPDEST DUP5 SWAP1 CALLVALUE PUSH2 0x1DA JUMPI DUP2 PUSH1 0x3 NOT CALLDATASIZE ADD SLT PUSH2 0x1DA JUMPI DUP1 PUSH2 0x100 PUSH1 0x20 SWAP3 MSTORE RETURN JUMPDEST SWAP2 DUP2 PUSH1 0x1F DUP5 ADD SLT ISZERO PUSH2 0x9AA JUMPI DUP3 CALLDATALOAD SWAP2 PUSH8 0xFFFFFFFFFFFFFFFF DUP4 GT PUSH2 0x9AA JUMPI PUSH1 0x20 DUP1 DUP6 ADD SWAP5 DUP5 PUSH1 0x5 SHL ADD ADD GT PUSH2 0x9AA JUMPI JUMP JUMPDEST PUSH1 0x0 DUP1 REVERT JUMPDEST PUSH1 0x0 SLOAD PUSH1 0x1 PUSH1 0x1 PUSH1 0xA0 SHL SUB AND CALLER SUB PUSH2 0x9C3 JUMPI JUMP JUMPDEST PUSH1 0x40 MLOAD PUSH4 0x118CDAA7 PUSH1 0xE0 SHL DUP2 MSTORE CALLER PUSH1 0x4 DUP3 ADD MSTORE PUSH1 0x24 SWAP1 REVERT JUMPDEST PUSH1 0x0 NOT DUP2 EQ PUSH2 0x9EA JUMPI PUSH1 0x1 ADD SWAP1 JUMP JUMPDEST PUSH4 0x4E487B71 PUSH1 0xE0 SHL PUSH1 0x0 MSTORE PUSH1 0x11 PUSH1 0x4 MSTORE PUSH1 0x24 PUSH1 0x0 REVERT JUMPDEST SWAP2 SWAP1 DUP2 LT ISZERO PUSH2 0xA10 JUMPI PUSH1 0x5 SHL ADD SWAP1 JUMP JUMPDEST PUSH4 0x4E487B71 PUSH1 0xE0 SHL PUSH1 0x0 MSTORE PUSH1 0x32 PUSH1 0x4 MSTORE PUSH1 0x24 PUSH1 0x0 REVERT JUMPDEST DUP1 SLOAD DUP3 LT ISZERO PUSH2 0xA10 JUMPI PUSH1 0x0 MSTORE PUSH1 0x20 PUSH1 0x0 KECCAK256 ADD SWAP1 PUSH1 0x0 SWAP1 JUMP JUMPDEST DUP1 SLOAD SWAP1 PUSH1 0x1 PUSH1 0x40 SHL DUP3 LT ISZERO PUSH2 0xA7B JUMPI DUP2 PUSH2 0xA60 SWAP2 PUSH1 0x1 PUSH2 0xA77 SWAP5 ADD DUP2 SSTORE PUSH2 0xA26 JUMP JUMPDEST DUP2 SWAP4 SWAP2 SLOAD SWAP1 PUSH1 0x3 SHL SWAP2 DUP3 SHL SWAP2 PUSH1 0x0 NOT SWAP1 SHL NOT AND OR SWAP1 JUMP JUMPDEST SWAP1 SSTORE JUMP JUMPDEST PUSH4 0x4E487B71 PUSH1 0xE0 SHL PUSH1 0x0 MSTORE PUSH1 0x41 PUSH1 0x4 MSTORE PUSH1 0x24 PUSH1 0x0 REVERT JUMPDEST PUSH1 0xE0 DUP2 ADD SWAP1 DUP2 LT PUSH8 0xFFFFFFFFFFFFFFFF DUP3 GT OR PUSH2 0xA7B JUMPI PUSH1 0x40 MSTORE JUMP JUMPDEST SWAP1 PUSH1 0x1F DUP1 NOT SWAP2 ADD AND DUP2 ADD SWAP1 DUP2 LT PUSH8 0xFFFFFFFFFFFFFFFF DUP3 GT OR PUSH2 0xA7B JUMPI PUSH1 0x40 MSTORE JUMP JUMPDEST SWAP1 SWAP4 SWAP3 PUSH1 0x0 DUP3 DUP2 MSTORE PUSH1 0x20 SWAP4 PUSH1 0x3 DUP6 MSTORE PUSH1 0xFF SWAP5 PUSH1 0x40 SWAP3 DUP7 DUP5 DUP3 KECCAK256 SLOAD AND ISZERO PUSH2 0xDEE JUMPI DUP6 DUP2 MSTORE PUSH1 0x2 DUP3 MSTORE DUP4 DUP2 KECCAK256 DUP8 PUSH1 0x1 DUP3 ADD SLOAD PUSH1 0xE0 SHR AND ISZERO PUSH2 0xDD6 JUMPI SLOAD DUP1 DUP5 SUB PUSH2 0xDB9 JUMPI POP PUSH1 0x1 SLOAD PUSH1 0x1 PUSH1 0x1 PUSH1 0xA0 SHL SUB AND DUP2 JUMPDEST DUP5 DUP2 LT PUSH2 0xC75 JUMPI POP POP PUSH2 0xB32 DUP4 DUP11 PUSH2 0xE32 JUMP JUMPDEST DUP6 DUP2 SUB PUSH2 0xC58 JUMPI POP PUSH1 0x4 SLOAD SWAP7 SWAP9 PUSH2 0xB48 DUP9 PUSH2 0x9DB JUMP JUMPDEST PUSH1 0x4 SSTORE DUP8 DUP3 MSTORE PUSH1 0x5 DUP4 MSTORE DUP5 DUP3 KECCAK256 DUP8 DUP2 SSTORE PUSH1 0x1 DUP2 ADD DUP8 SWAP1 SSTORE PUSH1 0x3 DUP2 ADD DUP1 SLOAD PUSH3 0x10000 PUSH1 0x1 PUSH1 0xF0 SHL SUB NOT PUSH2 0xFFFF NOT SWAP2 SWAP1 SWAP2 AND SWAP13 DUP8 AND SWAP13 DUP14 OR PUSH2 0x100 OR AND TIMESTAMP PUSH1 0x10 SHL PUSH10 0xFFFFFFFFFFFFFFFF0000 AND OR CALLER PUSH1 0x50 SHL PUSH1 0x1 PUSH1 0x50 SHL PUSH1 0x1 PUSH1 0xF0 SHL SUB AND OR SWAP1 SSTORE SWAP8 SWAP10 DUP11 SWAP9 SWAP1 SWAP5 PUSH1 0x2 SWAP1 SWAP2 ADD SWAP1 DUP4 JUMPDEST DUP2 DUP2 LT PUSH2 0xC3A JUMPI POP POP POP POP DUP6 DUP2 MSTORE PUSH1 0x6 DUP3 MSTORE DUP4 DUP2 KECCAK256 DUP1 SLOAD SWAP2 PUSH1 0x1 PUSH1 0x40 SHL DUP4 LT ISZERO PUSH2 0xC26 JUMPI POP SWAP3 PUSH1 0x1 SWAP3 DUP9 PUSH2 0xC16 PUSH2 0xA60 DUP6 PUSH32 0x6FAF02F204BAEAAF295439E5483B112C706763054453BED74B5D8647E82CA55B SWAP11 SWAP9 DUP9 PUSH1 0x60 SWAP12 SWAP9 ADD DUP2 SSTORE PUSH2 0xA26 JUMP JUMPDEST SWAP1 SSTORE DUP3 MLOAD SWAP5 DUP6 MSTORE DUP5 ADD MSTORE DUP3 ADD MSTORE LOG3 JUMP JUMPDEST PUSH4 0x4E487B71 PUSH1 0xE0 SHL DUP2 MSTORE PUSH1 0x41 PUSH1 0x4 MSTORE PUSH1 0x24 SWAP1 REVERT JUMPDEST DUP1 PUSH2 0x429 PUSH2 0xC4C PUSH2 0xC53 SWAP4 DUP6 DUP9 PUSH2 0xA00 JUMP JUMPDEST CALLDATALOAD DUP6 PUSH2 0xA3E JUMP JUMPDEST PUSH2 0xBB5 JUMP JUMPDEST PUSH1 0x44 SWAP1 DUP7 DUP7 MLOAD SWAP2 PUSH4 0x27C4ED97 PUSH1 0xE2 SHL DUP4 MSTORE PUSH1 0x4 DUP4 ADD MSTORE PUSH1 0x24 DUP3 ADD MSTORE REVERT JUMPDEST PUSH2 0xC80 DUP2 DUP7 DUP14 PUSH2 0xA00 JUMP JUMPDEST DUP7 MLOAD PUSH4 0x488DBFAD PUSH1 0xE0 SHL DUP2 MSTORE SWAP1 CALLDATALOAD PUSH1 0x4 DUP1 DUP4 ADD DUP3 SWAP1 MSTORE SWAP2 PUSH1 0x24 SWAP1 DUP8 DUP2 DUP4 DUP2 DUP10 GAS STATICCALL SWAP1 DUP2 ISZERO PUSH2 0xD65 JUMPI DUP8 SWAP2 PUSH2 0xD83 JUMPI JUMPDEST POP ISZERO PUSH2 0xD6F JUMPI DUP9 MLOAD PUSH4 0xCD68A831 PUSH1 0xE0 SHL DUP2 MSTORE DUP4 DUP2 ADD DUP4 SWAP1 MSTORE DUP8 DUP2 DUP4 DUP2 DUP10 GAS STATICCALL SWAP1 DUP2 ISZERO PUSH2 0xD65 JUMPI SWAP1 DUP14 SWAP2 DUP9 SWAP2 PUSH2 0xD27 JUMPI JUMPDEST POP AND SWAP2 PUSH1 0x28 DUP4 LT ISZERO DUP1 PUSH2 0xD1C JUMPI JUMPDEST PUSH2 0xD03 JUMPI POP POP POP POP PUSH2 0xCFE SWAP1 PUSH2 0x9DB JUMP JUMPDEST PUSH2 0xB1F JUMP JUMPDEST DUP10 MLOAD PUSH4 0x379A7713 PUSH1 0xE2 SHL DUP2 MSTORE SWAP4 DUP5 ADD MSTORE DUP3 ADD MSTORE PUSH1 0x44 SWAP2 POP REVERT JUMPDEST POP PUSH1 0x2A DUP4 GT ISZERO PUSH2 0xCED JUMP JUMPDEST DUP1 SWAP3 POP DUP10 DUP1 SWAP3 POP RETURNDATASIZE DUP4 GT PUSH2 0xD5E JUMPI JUMPDEST PUSH2 0xD40 DUP2 DUP4 PUSH2 0xAAD JUMP JUMPDEST DUP2 ADD SUB SLT PUSH2 0xD5A JUMPI MLOAD DUP13 DUP2 AND DUP2 SUB PUSH2 0xD5A JUMPI DUP13 SWAP1 CODESIZE PUSH2 0xCDF JUMP JUMPDEST DUP7 DUP1 REVERT JUMPDEST POP RETURNDATASIZE PUSH2 0xD36 JUMP JUMPDEST DUP11 MLOAD RETURNDATASIZE DUP10 DUP3 RETURNDATACOPY RETURNDATASIZE SWAP1 REVERT JUMPDEST SWAP3 POP DUP8 MLOAD SWAP2 PUSH4 0x2047F235 PUSH1 0xE2 SHL DUP4 MSTORE DUP3 ADD MSTORE REVERT JUMPDEST SWAP1 POP DUP8 DUP2 DUP2 RETURNDATASIZE DUP4 GT PUSH2 0xDB2 JUMPI JUMPDEST PUSH2 0xD9A DUP2 DUP4 PUSH2 0xAAD JUMP JUMPDEST DUP2 ADD SUB SLT PUSH2 0xD5A JUMPI MLOAD DUP1 ISZERO ISZERO DUP2 SUB PUSH2 0xD5A JUMPI CODESIZE PUSH2 0xCAF JUMP JUMPDEST POP RETURNDATASIZE PUSH2 0xD90 JUMP JUMPDEST PUSH1 0x44 SWAP1 DUP5 DUP7 MLOAD SWAP2 PUSH4 0x4C1EB769 PUSH1 0xE1 SHL DUP4 MSTORE PUSH1 0x4 DUP4 ADD MSTORE PUSH1 0x24 DUP3 ADD MSTORE REVERT JUMPDEST DUP5 MLOAD PUSH4 0xB79EACFB PUSH1 0xE0 SHL DUP2 MSTORE PUSH1 0x4 DUP2 ADD DUP9 SWAP1 MSTORE PUSH1 0x24 SWAP1 REVERT JUMPDEST DUP4 MLOAD PUSH4 0x760A053 PUSH1 0xE3 SHL DUP2 MSTORE PUSH1 0x4 DUP2 ADD DUP8 SWAP1 MSTORE PUSH1 0x24 SWAP1 REVERT JUMPDEST PUSH8 0xFFFFFFFFFFFFFFFF DUP2 GT PUSH2 0xA7B JUMPI PUSH1 0x5 SHL PUSH1 0x20 ADD SWAP1 JUMP JUMPDEST DUP1 MLOAD DUP3 LT ISZERO PUSH2 0xA10 JUMPI PUSH1 0x20 SWAP2 PUSH1 0x5 SHL ADD ADD SWAP1 JUMP JUMPDEST SWAP1 DUP1 PUSH1 0x1 SWAP2 DUP3 DUP2 EQ PUSH2 0x101F JUMPI PUSH2 0xE47 DUP2 PUSH2 0xE06 JUMP JUMPDEST SWAP3 PUSH1 0x40 SWAP3 PUSH2 0xE57 DUP5 MLOAD SWAP6 DUP7 PUSH2 0xAAD JUMP JUMPDEST DUP3 DUP6 MSTORE PUSH2 0xE63 DUP4 PUSH2 0xE06 JUMP JUMPDEST SWAP6 PUSH1 0x20 SWAP4 DUP5 DUP8 ADD SWAP8 PUSH1 0x1F NOT ADD CALLDATASIZE DUP10 CALLDATACOPY PUSH1 0x0 JUMPDEST DUP2 DUP2 LT PUSH2 0x1000 JUMPI POP POP POP DUP2 DUP1 JUMPDEST PUSH2 0xF58 JUMPI JUMPDEST POP JUMPDEST DUP2 DUP2 GT PUSH2 0xE9E JUMPI POP POP POP POP MLOAD ISZERO PUSH2 0xA10 JUMPI MLOAD SWAP1 JUMP JUMPDEST DUP2 DUP2 ADD DUP1 DUP3 GT PUSH2 0x9EA JUMPI DUP3 SHR SWAP1 PUSH1 0x0 JUMPDEST DUP3 DUP2 LT PUSH2 0xEBC JUMPI POP POP PUSH2 0xE89 JUMP JUMPDEST DUP1 DUP5 SHL SWAP1 DUP1 DUP3 DIV PUSH1 0x2 EQ DUP2 ISZERO OR ISZERO PUSH2 0x9EA JUMPI DUP5 DUP3 ADD SWAP2 DUP3 DUP2 GT PUSH2 0x9EA JUMPI DUP4 DUP4 LT ISZERO PUSH2 0xF3E JUMPI PUSH2 0xEEE PUSH2 0xEF6 SWAP2 DUP11 PUSH2 0xE1E JUMP JUMPDEST MLOAD SWAP3 DUP10 PUSH2 0xE1E JUMP JUMPDEST MLOAD SWAP2 DUP8 MLOAD SWAP3 DUP8 DUP5 ADD SWAP2 DUP3 MSTORE DUP9 DUP5 ADD MSTORE DUP8 DUP4 MSTORE PUSH1 0x60 DUP4 ADD SWAP3 DUP1 DUP5 LT PUSH8 0xFFFFFFFFFFFFFFFF DUP6 GT OR PUSH2 0xA7B JUMPI PUSH2 0xF39 SWAP4 DUP10 MSTORE MLOAD SWAP1 KECCAK256 PUSH2 0xF33 DUP3 DUP11 PUSH2 0xE1E JUMP JUMPDEST MSTORE PUSH2 0x9DB JUMP JUMPDEST PUSH2 0xEAE JUMP JUMPDEST PUSH2 0xF39 SWAP3 POP PUSH2 0xF4D SWAP1 DUP10 PUSH2 0xE1E JUMP JUMPDEST MLOAD PUSH2 0xF33 DUP3 DUP11 PUSH2 0xE1E JUMP JUMPDEST DUP6 MLOAD DUP2 LT ISZERO PUSH2 0xFFB JUMPI DUP3 DUP2 PUSH2 0xF6E DUP3 SWAP4 DUP10 PUSH2 0xE1E JUMP JUMPDEST MLOAD DUP2 SWAP4 JUMPDEST PUSH2 0xF8B JUMPI JUMPDEST PUSH2 0xF33 PUSH2 0xF85 SWAP4 SWAP5 DUP11 PUSH2 0xE1E JUMP JUMPDEST SWAP1 PUSH2 0xE82 JUMP JUMPDEST SWAP2 POP SWAP2 DUP1 ISZERO DUP6 DUP2 ISZERO DUP1 PUSH2 0xFDA JUMPI JUMPDEST ISZERO PUSH2 0xFCF JUMPI POP PUSH1 0x0 NOT DUP3 ADD SWAP2 DUP1 DUP4 GT PUSH2 0x9EA JUMPI PUSH2 0xFC1 PUSH2 0xFB9 DUP5 DUP13 PUSH2 0xE1E JUMP JUMPDEST MLOAD SWAP2 DUP12 PUSH2 0xE1E JUMP JUMPDEST MSTORE PUSH2 0x9EA JUMPI SWAP2 DUP5 SWAP2 DUP3 PUSH2 0xF72 JUMP JUMPDEST SWAP3 SWAP1 POP SWAP3 SWAP1 SWAP3 PUSH2 0xF77 JUMP JUMPDEST POP POP PUSH1 0x0 NOT DUP3 ADD DUP3 DUP2 GT PUSH2 0x9EA JUMPI DUP4 PUSH2 0xFF4 DUP9 SWAP3 DUP13 PUSH2 0xE1E JUMP JUMPDEST MLOAD GT PUSH2 0xF99 JUMP JUMPDEST PUSH2 0xE87 JUMP JUMPDEST DUP1 PUSH2 0x100F PUSH2 0x101A SWAP3 DUP5 DUP7 PUSH2 0xA00 JUMP JUMPDEST CALLDATALOAD PUSH2 0xF33 DUP3 DUP12 PUSH2 0xE1E JUMP JUMPDEST PUSH2 0xE75 JUMP JUMPDEST SWAP2 POP POP ISZERO PUSH2 0xA10 JUMPI CALLDATALOAD SWAP1 JUMP JUMPDEST SWAP1 PUSH1 0x40 MLOAD SWAP2 DUP3 DUP2 SLOAD SWAP2 DUP3 DUP3 MSTORE PUSH1 0x20 SWAP3 DUP4 DUP4 ADD SWAP2 PUSH1 0x0 MSTORE DUP4 PUSH1 0x0 KECCAK256 SWAP4 PUSH1 0x0 SWAP1 JUMPDEST DUP3 DUP3 LT PUSH2 0x1062 JUMPI POP POP POP PUSH2 0x1060 SWAP3 POP SUB DUP4 PUSH2 0xAAD JUMP JUMPDEST JUMP JUMPDEST DUP6 SLOAD DUP5 MSTORE PUSH1 0x1 SWAP6 DUP7 ADD SWAP6 DUP9 SWAP6 POP SWAP4 DUP2 ADD SWAP4 SWAP1 SWAP2 ADD SWAP1 PUSH2 0x104A JUMP INVALID LOG2 PUSH5 0x6970667358 0x22 SLT KECCAK256 0xDB GASPRICE 0x29 0xD6 0xCE 0x2C 0xDF 0x1E 0x22 PUSH29 0x57E83338A5947DB6AA9279326881396266FFD773B86164736F6C634300 ADDMOD EQ STOP CALLER "},"methodIdentifiers":{"CHEAT_INFERENCE_MAX()":"de62201a","CHEAT_INFERENCE_MIN()":"c37a636b","MAX_TEAM_SIZE()":"d4b9c129","MIN_TEAM_SIZE()":"8ad6fcfb","MOCK_PROOF_SIZE()":"12a9016e","ZK_VERSION()":"604a0902","computeMerkleRoot(bytes32[])":"2b8b906c","createTeam(bytes32,bytes32[])":"c3a39536","getTeam(bytes32)":"4bb34a7d","getTeamProof(uint256)":"3bd56175","getTeamProofCount(bytes32)":"c0d3f385","getTeamProofIds(bytes32)":"638371ee","mockZKResult()":"b7119a5f","owner()":"8da5cb5b","poACVerifier()":"f1cf7905","proofCount()":"addecc06","renounceOwnership()":"715018a6","setMockZKResult(bool)":"ac99e576","submitTeamProof(bytes32,bytes32[],bytes32)":"50072dd7","submitTeamProofZK(bytes32,bytes32[],bytes32,bytes32,bytes)":"ef4a949e","teamExists(bytes32)":"44ea6c69","transferOwnership(address)":"f2fde38b","usedNullifiers(bytes32)":"206137aa"}}}}}