{"contracts/PITLSessionRegistry.sol":{"PITLSessionRegistry":{"abi":[{"inputs":[{"internalType":"address","name":"_bridge","type":"address"}],"stateMutability":"nonpayable","type":"constructor"},{"inputs":[{"internalType":"uint256","name":"value","type":"uint256"}],"name":"HumanityProbOutOfRange","type":"error"},{"inputs":[{"internalType":"bytes32","name":"nullifier","type":"bytes32"}],"name":"NullifierUsed","type":"error"},{"inputs":[],"name":"OnlyBridge","type":"error"},{"inputs":[],"name":"ProofVerificationFailed","type":"error"},{"anonymous":false,"inputs":[{"indexed":true,"internalType":"bytes32","name":"deviceId","type":"bytes32"},{"indexed":false,"internalType":"uint256","name":"humanityProbInt","type":"uint256"},{"indexed":false,"internalType":"uint256","name":"featureCommitment","type":"uint256"},{"indexed":true,"internalType":"uint256","name":"epoch","type":"uint256"}],"name":"PITLSessionProofSubmitted","type":"event"},{"anonymous":false,"inputs":[{"indexed":true,"internalType":"address","name":"verifier","type":"address"}],"name":"PITLVerifierSet","type":"event"},{"inputs":[],"name":"bridge","outputs":[{"internalType":"address","name":"","type":"address"}],"stateMutability":"view","type":"function"},{"inputs":[{"internalType":"bytes32","name":"","type":"bytes32"}],"name":"latestHumanityProb","outputs":[{"internalType":"uint256","name":"","type":"uint256"}],"stateMutability":"view","type":"function"},{"inputs":[],"name":"pitlVerifier","outputs":[{"internalType":"address","name":"","type":"address"}],"stateMutability":"view","type":"function"},{"inputs":[{"internalType":"bytes32","name":"","type":"bytes32"}],"name":"sessionCount","outputs":[{"internalType":"uint256","name":"","type":"uint256"}],"stateMutability":"view","type":"function"},{"inputs":[{"internalType":"address","name":"_verifier","type":"address"}],"name":"setPITLVerifier","outputs":[],"stateMutability":"nonpayable","type":"function"},{"inputs":[{"internalType":"bytes32","name":"deviceId","type":"bytes32"},{"internalType":"bytes","name":"proof","type":"bytes"},{"internalType":"uint256","name":"featureCommitment","type":"uint256"},{"internalType":"uint256","name":"humanityProbInt","type":"uint256"},{"internalType":"uint256","name":"nullifierHash","type":"uint256"},{"internalType":"uint256","name":"epoch","type":"uint256"}],"name":"submitPITLProof","outputs":[],"stateMutability":"nonpayable","type":"function"},{"inputs":[{"internalType":"bytes32","name":"","type":"bytes32"}],"name":"usedNullifiers","outputs":[{"internalType":"bool","name":"","type":"bool"}],"stateMutability":"view","type":"function"}],"evm":{"bytecode":{"linkReferences":{},"object":"60a03461007757601f61076d38819003918201601f19168301916001600160401b0383118484101761007c5780849260209460405283398101031261007757516001600160a01b0381168103610077576080526040516106da9081610093823960805181818160820152818161010901526102730152f35b600080fd5b634e487b7160e01b600052604160045260246000fdfe608080604052600436101561001357600080fd5b60003560e01c908163206137aa146105ee5750806355d39a91146102165780635cf28b09146101ea578063a701424e146101be578063b797617c146100df578063b866cc83146100b65763e78cea921461006c57600080fd5b346100b15760003660031901126100b1576040517f00000000000000000000000000000000000000000000000000000000000000006001600160a01b03168152602090f35b600080fd5b346100b15760003660031901126100b1576000546040516001600160a01b039091168152602090f35b346100b15760203660031901126100b1576004356001600160a01b03818116918290036100b157807f00000000000000000000000000000000000000000000000000000000000000001633036101ac57600054908116610170576001600160a01b031916811760009081557f192fd780c603a71fb9bd58d56e97cdfbc59547fd310e1db0fba0ee3b461cf7a69080a2005b60405162461bcd60e51b81526020600482015260146024820152731d995c9a599a595c88185b1c9958591e481cd95d60621b6044820152606490fd5b6040516338da3b1560e01b8152600490fd5b346100b15760203660031901126100b15760043560005260026020526020604060002054604051908152f35b346100b15760203660031901126100b15760043560005260036020526020604060002054604051908152f35b346100b15760c03660031901126100b15760243567ffffffffffffffff81116100b157366023820112156100b157806004013567ffffffffffffffff81116100b1578082019060248201923684116100b1576001600160a01b03917f0000000000000000000000000000000000000000000000000000000000000000831633036101ac576103e8606435116105d4576084359283600052600160205260ff604060002054166105bb578360005260016020526040600020600160ff1982541617905561010080920361057f57600054169384610372575b505050505050600435806000526002602052606435604060002055600360205260406000208054906001820180921161035c575560405190606435825260443560208301527fdc6a30bfb3bd7d7332aee810ef955e814aef54d22e1fc52f65fee063dccfad82604060a43593a3005b634e487b7160e01b600052601160045260246000fd5b829003126100b1576103878460248301610637565b93806083830112156100b157604051916103a08361061b565b8260e48201918383116100b157606401905b828210610565575050906103c591610637565b926040519260a0840184811067ffffffffffffffff8211176105225760409493945260a03684376044358352606435602084015260006040840152606083015260a4356080830152610428604051956334baeab960e01b8752600487019061067c565b60009291604486015b6002851015610475578351600090825b6002831061045f575050506020604060019201940194019392610431565b6020806001928451815201920192019190610441565b5091509284925061048a9060c484019061067c565b600061010483015b6005821061054b575050506101a4816020935afa90811561053f576000916104d8575b50156104c6578080808080806102ed565b604051631ac2386360e31b8152600490fd5b905060203d602011610538575b601f8101601f1916820167ffffffffffffffff811183821017610522576020918391604052810103126100b1575180151581036100b157816104b5565b634e487b7160e01b600052604160045260246000fd5b503d6104e5565b6040513d6000823e3d90fd5b829350602080916001939451815201930191018492610492565b60206040916105748685610637565b8152019101906103b2565b60405162461bcd60e51b81526020600482015260146024820152730d2dcecc2d8d2c840e0e4dedecc40d8cadccee8d60631b6044820152606490fd5b6040516312ab05ef60e21b815260048101859052602490fd5b604051633524aadb60e01b81526064356004820152602490fd5b346100b15760203660031901126100b1576020906004356000526001825260ff6040600020541615158152f35b6040810190811067ffffffffffffffff82111761052257604052565b9080601f830112156100b157604051916106508361061b565b8290604081019283116100b157905b82821061066c5750505090565b813581526020918201910161065f565b6000915b6002831061068d57505050565b60019082518152602080910192019201919061068056fea2646970667358221220d2da392e7f9072e180f2651f8b9eecc2496d6844c50b46d111fd2b5b2609e26b64736f6c63430008140033","opcodes":"PUSH1 0xA0 CALLVALUE PUSH2 0x77 JUMPI PUSH1 0x1F PUSH2 0x76D CODESIZE DUP2 SWAP1 SUB SWAP2 DUP3 ADD PUSH1 0x1F NOT AND DUP4 ADD SWAP2 PUSH1 0x1 PUSH1 0x1 PUSH1 0x40 SHL SUB DUP4 GT DUP5 DUP5 LT OR PUSH2 0x7C JUMPI DUP1 DUP5 SWAP3 PUSH1 0x20 SWAP5 PUSH1 0x40 MSTORE DUP4 CODECOPY DUP2 ADD SUB SLT PUSH2 0x77 JUMPI MLOAD PUSH1 0x1 PUSH1 0x1 PUSH1 0xA0 SHL SUB DUP2 AND DUP2 SUB PUSH2 0x77 JUMPI PUSH1 0x80 MSTORE PUSH1 0x40 MLOAD PUSH2 0x6DA SWAP1 DUP2 PUSH2 0x93 DUP3 CODECOPY PUSH1 0x80 MLOAD DUP2 DUP2 DUP2 PUSH1 0x82 ADD MSTORE DUP2 DUP2 PUSH2 0x109 ADD MSTORE PUSH2 0x273 ADD MSTORE RETURN JUMPDEST PUSH1 0x0 DUP1 REVERT JUMPDEST PUSH4 0x4E487B71 PUSH1 0xE0 SHL PUSH1 0x0 MSTORE PUSH1 0x41 PUSH1 0x4 MSTORE PUSH1 0x24 PUSH1 0x0 REVERT INVALID PUSH1 0x80 DUP1 PUSH1 0x40 MSTORE PUSH1 0x4 CALLDATASIZE LT ISZERO PUSH2 0x13 JUMPI PUSH1 0x0 DUP1 REVERT JUMPDEST PUSH1 0x0 CALLDATALOAD PUSH1 0xE0 SHR SWAP1 DUP2 PUSH4 0x206137AA EQ PUSH2 0x5EE JUMPI POP DUP1 PUSH4 0x55D39A91 EQ PUSH2 0x216 JUMPI DUP1 PUSH4 0x5CF28B09 EQ PUSH2 0x1EA JUMPI DUP1 PUSH4 0xA701424E EQ PUSH2 0x1BE JUMPI DUP1 PUSH4 0xB797617C EQ PUSH2 0xDF JUMPI DUP1 PUSH4 0xB866CC83 EQ PUSH2 0xB6 JUMPI PUSH4 0xE78CEA92 EQ PUSH2 0x6C JUMPI PUSH1 0x0 DUP1 REVERT JUMPDEST CALLVALUE PUSH2 0xB1 JUMPI PUSH1 0x0 CALLDATASIZE PUSH1 0x3 NOT ADD SLT PUSH2 0xB1 JUMPI PUSH1 0x40 MLOAD PUSH32 0x0 PUSH1 0x1 PUSH1 0x1 PUSH1 0xA0 SHL SUB AND DUP2 MSTORE PUSH1 0x20 SWAP1 RETURN JUMPDEST PUSH1 0x0 DUP1 REVERT JUMPDEST CALLVALUE PUSH2 0xB1 JUMPI PUSH1 0x0 CALLDATASIZE PUSH1 0x3 NOT ADD SLT PUSH2 0xB1 JUMPI PUSH1 0x0 SLOAD PUSH1 0x40 MLOAD PUSH1 0x1 PUSH1 0x1 PUSH1 0xA0 SHL SUB SWAP1 SWAP2 AND DUP2 MSTORE PUSH1 0x20 SWAP1 RETURN JUMPDEST CALLVALUE PUSH2 0xB1 JUMPI PUSH1 0x20 CALLDATASIZE PUSH1 0x3 NOT ADD SLT PUSH2 0xB1 JUMPI PUSH1 0x4 CALLDATALOAD PUSH1 0x1 PUSH1 0x1 PUSH1 0xA0 SHL SUB DUP2 DUP2 AND SWAP2 DUP3 SWAP1 SUB PUSH2 0xB1 JUMPI DUP1 PUSH32 0x0 AND CALLER SUB PUSH2 0x1AC JUMPI PUSH1 0x0 SLOAD SWAP1 DUP2 AND PUSH2 0x170 JUMPI PUSH1 0x1 PUSH1 0x1 PUSH1 0xA0 SHL SUB NOT AND DUP2 OR PUSH1 0x0 SWAP1 DUP2 SSTORE PUSH32 0x192FD780C603A71FB9BD58D56E97CDFBC59547FD310E1DB0FBA0EE3B461CF7A6 SWAP1 DUP1 LOG2 STOP JUMPDEST PUSH1 0x40 MLOAD PUSH3 0x461BCD PUSH1 0xE5 SHL DUP2 MSTORE PUSH1 0x20 PUSH1 0x4 DUP3 ADD MSTORE PUSH1 0x14 PUSH1 0x24 DUP3 ADD MSTORE PUSH20 0x1D995C9A599A595C88185B1C9958591E481CD95D PUSH1 0x62 SHL PUSH1 0x44 DUP3 ADD MSTORE PUSH1 0x64 SWAP1 REVERT JUMPDEST PUSH1 0x40 MLOAD PUSH4 0x38DA3B15 PUSH1 0xE0 SHL DUP2 MSTORE PUSH1 0x4 SWAP1 REVERT JUMPDEST CALLVALUE PUSH2 0xB1 JUMPI PUSH1 0x20 CALLDATASIZE PUSH1 0x3 NOT ADD SLT PUSH2 0xB1 JUMPI PUSH1 0x4 CALLDATALOAD PUSH1 0x0 MSTORE PUSH1 0x2 PUSH1 0x20 MSTORE PUSH1 0x20 PUSH1 0x40 PUSH1 0x0 KECCAK256 SLOAD PUSH1 0x40 MLOAD SWAP1 DUP2 MSTORE RETURN JUMPDEST CALLVALUE PUSH2 0xB1 JUMPI PUSH1 0x20 CALLDATASIZE PUSH1 0x3 NOT ADD SLT PUSH2 0xB1 JUMPI PUSH1 0x4 CALLDATALOAD PUSH1 0x0 MSTORE PUSH1 0x3 PUSH1 0x20 MSTORE PUSH1 0x20 PUSH1 0x40 PUSH1 0x0 KECCAK256 SLOAD PUSH1 0x40 MLOAD SWAP1 DUP2 MSTORE RETURN JUMPDEST CALLVALUE PUSH2 0xB1 JUMPI PUSH1 0xC0 CALLDATASIZE PUSH1 0x3 NOT ADD SLT PUSH2 0xB1 JUMPI PUSH1 0x24 CALLDATALOAD PUSH8 0xFFFFFFFFFFFFFFFF DUP2 GT PUSH2 0xB1 JUMPI CALLDATASIZE PUSH1 0x23 DUP3 ADD SLT ISZERO PUSH2 0xB1 JUMPI DUP1 PUSH1 0x4 ADD CALLDATALOAD PUSH8 0xFFFFFFFFFFFFFFFF DUP2 GT PUSH2 0xB1 JUMPI DUP1 DUP3 ADD SWAP1 PUSH1 0x24 DUP3 ADD SWAP3 CALLDATASIZE DUP5 GT PUSH2 0xB1 JUMPI PUSH1 0x1 PUSH1 0x1 PUSH1 0xA0 SHL SUB SWAP2 PUSH32 0x0 DUP4 AND CALLER SUB PUSH2 0x1AC JUMPI PUSH2 0x3E8 PUSH1 0x64 CALLDATALOAD GT PUSH2 0x5D4 JUMPI PUSH1 0x84 CALLDATALOAD SWAP3 DUP4 PUSH1 0x0 MSTORE PUSH1 0x1 PUSH1 0x20 MSTORE PUSH1 0xFF PUSH1 0x40 PUSH1 0x0 KECCAK256 SLOAD AND PUSH2 0x5BB JUMPI DUP4 PUSH1 0x0 MSTORE PUSH1 0x1 PUSH1 0x20 MSTORE PUSH1 0x40 PUSH1 0x0 KECCAK256 PUSH1 0x1 PUSH1 0xFF NOT DUP3 SLOAD AND OR SWAP1 SSTORE PUSH2 0x100 DUP1 SWAP3 SUB PUSH2 0x57F JUMPI PUSH1 0x0 SLOAD AND SWAP4 DUP5 PUSH2 0x372 JUMPI JUMPDEST POP POP POP POP POP POP PUSH1 0x4 CALLDATALOAD DUP1 PUSH1 0x0 MSTORE PUSH1 0x2 PUSH1 0x20 MSTORE PUSH1 0x64 CALLDATALOAD PUSH1 0x40 PUSH1 0x0 KECCAK256 SSTORE PUSH1 0x3 PUSH1 0x20 MSTORE PUSH1 0x40 PUSH1 0x0 KECCAK256 DUP1 SLOAD SWAP1 PUSH1 0x1 DUP3 ADD DUP1 SWAP3 GT PUSH2 0x35C JUMPI SSTORE PUSH1 0x40 MLOAD SWAP1 PUSH1 0x64 CALLDATALOAD DUP3 MSTORE PUSH1 0x44 CALLDATALOAD PUSH1 0x20 DUP4 ADD MSTORE PUSH32 0xDC6A30BFB3BD7D7332AEE810EF955E814AEF54D22E1FC52F65FEE063DCCFAD82 PUSH1 0x40 PUSH1 0xA4 CALLDATALOAD SWAP4 LOG3 STOP JUMPDEST PUSH4 0x4E487B71 PUSH1 0xE0 SHL PUSH1 0x0 MSTORE PUSH1 0x11 PUSH1 0x4 MSTORE PUSH1 0x24 PUSH1 0x0 REVERT JUMPDEST DUP3 SWAP1 SUB SLT PUSH2 0xB1 JUMPI PUSH2 0x387 DUP5 PUSH1 0x24 DUP4 ADD PUSH2 0x637 JUMP JUMPDEST SWAP4 DUP1 PUSH1 0x83 DUP4 ADD SLT ISZERO PUSH2 0xB1 JUMPI PUSH1 0x40 MLOAD SWAP2 PUSH2 0x3A0 DUP4 PUSH2 0x61B JUMP JUMPDEST DUP3 PUSH1 0xE4 DUP3 ADD SWAP2 DUP4 DUP4 GT PUSH2 0xB1 JUMPI PUSH1 0x64 ADD SWAP1 JUMPDEST DUP3 DUP3 LT PUSH2 0x565 JUMPI POP POP SWAP1 PUSH2 0x3C5 SWAP2 PUSH2 0x637 JUMP JUMPDEST SWAP3 PUSH1 0x40 MLOAD SWAP3 PUSH1 0xA0 DUP5 ADD DUP5 DUP2 LT PUSH8 0xFFFFFFFFFFFFFFFF DUP3 GT OR PUSH2 0x522 JUMPI PUSH1 0x40 SWAP5 SWAP4 SWAP5 MSTORE PUSH1 0xA0 CALLDATASIZE DUP5 CALLDATACOPY PUSH1 0x44 CALLDATALOAD DUP4 MSTORE PUSH1 0x64 CALLDATALOAD PUSH1 0x20 DUP5 ADD MSTORE PUSH1 0x0 PUSH1 0x40 DUP5 ADD MSTORE PUSH1 0x60 DUP4 ADD MSTORE PUSH1 0xA4 CALLDATALOAD PUSH1 0x80 DUP4 ADD MSTORE PUSH2 0x428 PUSH1 0x40 MLOAD SWAP6 PUSH4 0x34BAEAB9 PUSH1 0xE0 SHL DUP8 MSTORE PUSH1 0x4 DUP8 ADD SWAP1 PUSH2 0x67C JUMP JUMPDEST PUSH1 0x0 SWAP3 SWAP2 PUSH1 0x44 DUP7 ADD JUMPDEST PUSH1 0x2 DUP6 LT ISZERO PUSH2 0x475 JUMPI DUP4 MLOAD PUSH1 0x0 SWAP1 DUP3 JUMPDEST PUSH1 0x2 DUP4 LT PUSH2 0x45F JUMPI POP POP POP PUSH1 0x20 PUSH1 0x40 PUSH1 0x1 SWAP3 ADD SWAP5 ADD SWAP5 ADD SWAP4 SWAP3 PUSH2 0x431 JUMP JUMPDEST PUSH1 0x20 DUP1 PUSH1 0x1 SWAP3 DUP5 MLOAD DUP2 MSTORE ADD SWAP3 ADD SWAP3 ADD SWAP2 SWAP1 PUSH2 0x441 JUMP JUMPDEST POP SWAP2 POP SWAP3 DUP5 SWAP3 POP PUSH2 0x48A SWAP1 PUSH1 0xC4 DUP5 ADD SWAP1 PUSH2 0x67C JUMP JUMPDEST PUSH1 0x0 PUSH2 0x104 DUP4 ADD JUMPDEST PUSH1 0x5 DUP3 LT PUSH2 0x54B JUMPI POP POP POP PUSH2 0x1A4 DUP2 PUSH1 0x20 SWAP4 GAS STATICCALL SWAP1 DUP2 ISZERO PUSH2 0x53F JUMPI PUSH1 0x0 SWAP2 PUSH2 0x4D8 JUMPI JUMPDEST POP ISZERO PUSH2 0x4C6 JUMPI DUP1 DUP1 DUP1 DUP1 DUP1 DUP1 PUSH2 0x2ED JUMP JUMPDEST PUSH1 0x40 MLOAD PUSH4 0x1AC23863 PUSH1 0xE3 SHL DUP2 MSTORE PUSH1 0x4 SWAP1 REVERT JUMPDEST SWAP1 POP PUSH1 0x20 RETURNDATASIZE PUSH1 0x20 GT PUSH2 0x538 JUMPI JUMPDEST PUSH1 0x1F DUP2 ADD PUSH1 0x1F NOT AND DUP3 ADD PUSH8 0xFFFFFFFFFFFFFFFF DUP2 GT DUP4 DUP3 LT OR PUSH2 0x522 JUMPI PUSH1 0x20 SWAP2 DUP4 SWAP2 PUSH1 0x40 MSTORE DUP2 ADD SUB SLT PUSH2 0xB1 JUMPI MLOAD DUP1 ISZERO ISZERO DUP2 SUB PUSH2 0xB1 JUMPI DUP2 PUSH2 0x4B5 JUMP JUMPDEST PUSH4 0x4E487B71 PUSH1 0xE0 SHL PUSH1 0x0 MSTORE PUSH1 0x41 PUSH1 0x4 MSTORE PUSH1 0x24 PUSH1 0x0 REVERT JUMPDEST POP RETURNDATASIZE PUSH2 0x4E5 JUMP JUMPDEST PUSH1 0x40 MLOAD RETURNDATASIZE PUSH1 0x0 DUP3 RETURNDATACOPY RETURNDATASIZE SWAP1 REVERT JUMPDEST DUP3 SWAP4 POP PUSH1 0x20 DUP1 SWAP2 PUSH1 0x1 SWAP4 SWAP5 MLOAD DUP2 MSTORE ADD SWAP4 ADD SWAP2 ADD DUP5 SWAP3 PUSH2 0x492 JUMP JUMPDEST PUSH1 0x20 PUSH1 0x40 SWAP2 PUSH2 0x574 DUP7 DUP6 PUSH2 0x637 JUMP JUMPDEST DUP2 MSTORE ADD SWAP2 ADD SWAP1 PUSH2 0x3B2 JUMP JUMPDEST PUSH1 0x40 MLOAD PUSH3 0x461BCD PUSH1 0xE5 SHL DUP2 MSTORE PUSH1 0x20 PUSH1 0x4 DUP3 ADD MSTORE PUSH1 0x14 PUSH1 0x24 DUP3 ADD MSTORE PUSH20 0xD2DCECC2D8D2C840E0E4DEDECC40D8CADCCEE8D PUSH1 0x63 SHL PUSH1 0x44 DUP3 ADD MSTORE PUSH1 0x64 SWAP1 REVERT JUMPDEST PUSH1 0x40 MLOAD PUSH4 0x12AB05EF PUSH1 0xE2 SHL DUP2 MSTORE PUSH1 0x4 DUP2 ADD DUP6 SWAP1 MSTORE PUSH1 0x24 SWAP1 REVERT JUMPDEST PUSH1 0x40 MLOAD PUSH4 0x3524AADB PUSH1 0xE0 SHL DUP2 MSTORE PUSH1 0x64 CALLDATALOAD PUSH1 0x4 DUP3 ADD MSTORE PUSH1 0x24 SWAP1 REVERT JUMPDEST CALLVALUE PUSH2 0xB1 JUMPI PUSH1 0x20 CALLDATASIZE PUSH1 0x3 NOT ADD SLT PUSH2 0xB1 JUMPI PUSH1 0x20 SWAP1 PUSH1 0x4 CALLDATALOAD PUSH1 0x0 MSTORE PUSH1 0x1 DUP3 MSTORE PUSH1 0xFF PUSH1 0x40 PUSH1 0x0 KECCAK256 SLOAD AND ISZERO ISZERO DUP2 MSTORE RETURN JUMPDEST PUSH1 0x40 DUP2 ADD SWAP1 DUP2 LT PUSH8 0xFFFFFFFFFFFFFFFF DUP3 GT OR PUSH2 0x522 JUMPI PUSH1 0x40 MSTORE JUMP JUMPDEST SWAP1 DUP1 PUSH1 0x1F DUP4 ADD SLT ISZERO PUSH2 0xB1 JUMPI PUSH1 0x40 MLOAD SWAP2 PUSH2 0x650 DUP4 PUSH2 0x61B JUMP JUMPDEST DUP3 SWAP1 PUSH1 0x40 DUP2 ADD SWAP3 DUP4 GT PUSH2 0xB1 JUMPI SWAP1 JUMPDEST DUP3 DUP3 LT PUSH2 0x66C JUMPI POP POP POP SWAP1 JUMP JUMPDEST DUP2 CALLDATALOAD DUP2 MSTORE PUSH1 0x20 SWAP2 DUP3 ADD SWAP2 ADD PUSH2 0x65F JUMP JUMPDEST PUSH1 0x0 SWAP2 JUMPDEST PUSH1 0x2 DUP4 LT PUSH2 0x68D JUMPI POP POP POP JUMP JUMPDEST PUSH1 0x1 SWAP1 DUP3 MLOAD DUP2 MSTORE PUSH1 0x20 DUP1 SWAP2 ADD SWAP3 ADD SWAP3 ADD SWAP2 SWAP1 PUSH2 0x680 JUMP INVALID LOG2 PUSH5 0x6970667358 0x22 SLT KECCAK256 0xD2 0xDA CODECOPY 0x2E PUSH32 0x9072E180F2651F8B9EECC2496D6844C50B46D111FD2B5B2609E26B64736F6C63 NUMBER STOP ADDMOD EQ STOP CALLER "},"methodIdentifiers":{"bridge()":"e78cea92","latestHumanityProb(bytes32)":"a701424e","pitlVerifier()":"b866cc83","sessionCount(bytes32)":"5cf28b09","setPITLVerifier(address)":"b797617c","submitPITLProof(bytes32,bytes,uint256,uint256,uint256,uint256)":"55d39a91","usedNullifiers(bytes32)":"206137aa"}}}}}