{
  "_format": "hh-sol-artifact-1",
  "contractName": "FederatedThreatRegistry",
  "sourceName": "contracts/FederatedThreatRegistry.sol",
  "abi": [
    {
      "inputs": [
        {
          "internalType": "address",
          "name": "bridge_",
          "type": "address"
        }
      ],
      "stateMutability": "nonpayable",
      "type": "constructor"
    },
    {
      "inputs": [
        {
          "internalType": "bytes32",
          "name": "clusterHash",
          "type": "bytes32"
        },
        {
          "internalType": "address",
          "name": "reporter",
          "type": "address"
        }
      ],
      "name": "AlreadyReported",
      "type": "error"
    },
    {
      "inputs": [],
      "name": "OnlyBridge",
      "type": "error"
    },
    {
      "anonymous": false,
      "inputs": [
        {
          "indexed": true,
          "internalType": "bytes32",
          "name": "clusterHash",
          "type": "bytes32"
        },
        {
          "indexed": true,
          "internalType": "address",
          "name": "reporter",
          "type": "address"
        },
        {
          "indexed": false,
          "internalType": "uint256",
          "name": "reportCount",
          "type": "uint256"
        }
      ],
      "name": "ClusterReported",
      "type": "event"
    },
    {
      "anonymous": false,
      "inputs": [
        {
          "indexed": true,
          "internalType": "bytes32",
          "name": "clusterHash",
          "type": "bytes32"
        },
        {
          "indexed": false,
          "internalType": "uint256",
          "name": "confirmedBy",
          "type": "uint256"
        }
      ],
      "name": "MultiVenueConfirmed",
      "type": "event"
    },
    {
      "inputs": [],
      "name": "bridge",
      "outputs": [
        {
          "internalType": "address",
          "name": "",
          "type": "address"
        }
      ],
      "stateMutability": "view",
      "type": "function"
    },
    {
      "inputs": [
        {
          "internalType": "bytes32",
          "name": "clusterHash",
          "type": "bytes32"
        }
      ],
      "name": "getReportCount",
      "outputs": [
        {
          "internalType": "uint256",
          "name": "",
          "type": "uint256"
        }
      ],
      "stateMutability": "view",
      "type": "function"
    },
    {
      "inputs": [
        {
          "internalType": "bytes32",
          "name": "clusterHash",
          "type": "bytes32"
        },
        {
          "internalType": "address",
          "name": "reporter",
          "type": "address"
        }
      ],
      "name": "hasReported",
      "outputs": [
        {
          "internalType": "bool",
          "name": "",
          "type": "bool"
        }
      ],
      "stateMutability": "view",
      "type": "function"
    },
    {
      "inputs": [
        {
          "internalType": "bytes32",
          "name": "clusterHash",
          "type": "bytes32"
        },
        {
          "internalType": "uint256",
          "name": "minBridges",
          "type": "uint256"
        }
      ],
      "name": "isMultiVenueConfirmed",
      "outputs": [
        {
          "internalType": "bool",
          "name": "",
          "type": "bool"
        }
      ],
      "stateMutability": "view",
      "type": "function"
    },
    {
      "inputs": [
        {
          "internalType": "bytes32",
          "name": "clusterHash",
          "type": "bytes32"
        }
      ],
      "name": "reportCluster",
      "outputs": [],
      "stateMutability": "nonpayable",
      "type": "function"
    }
  ],
  "bytecode": "0x60a03461006f57601f61034a38819003918201601f19168301916001600160401b038311848410176100745780849260209460405283398101031261006f57516001600160a01b038116810361006f576080526040516102bf908161008b8239608051818181606f015260bc0152f35b600080fd5b634e487b7160e01b600052604160045260246000fdfe608060408181526004918236101561001657600080fd5b600092833560e01c9182631394e4471461023f57508163580317eb146102175781637272bedb146101ea578163c156a94a146100a2575063e78cea921461005c57600080fd5b3461009e578160031936011261009e57517f00000000000000000000000000000000000000000000000000000000000000006001600160a01b03168152602090f35b5080fd5b919050346101e6576020806003193601126101e2578235927f00000000000000000000000000000000000000000000000000000000000000006001600160a01b031633036101d457838552848252828520338652825260ff83862054166101b7578385528482528285203386528252828520600160ff19825416179055838552600182528285209081549060001982146101a457506001018091558251818152847f572bb6fdcced369654885f9e0724b1803e8d64bf42532e0a2612c54b350619b1843393a36002811015610175578480f35b7fc672fcf68dbb8f1d16d72242a1df3b87bff1be1d46d5e71e1bce88db5fda26c69251908152a2388080808480f35b634e487b7160e01b875260119052602486fd5b8251631399fa2f60e21b8152908101849052336024820152604490fd5b82516338da3b1560e01b8152fd5b8380fd5b8280fd5b9050346101e657816003193601126101e65791602092358152600183528160243591205410159051908152f35b9050346101e65760203660031901126101e65760209282913581526001845220549051908152f35b929150346101e257816003193601126101e2576024356001600160a01b038116919082900361028557358452602084815282852091855290815292205460ff1615158152f35b8480fdfea2646970667358221220155046569548cd8c27a1ad01cd480d1ef083da915ec25ce5af9d42b676e8266e64736f6c63430008140033",
  "linkReferences": {},
  "deployedLinkReferences": {}
}