{
  "_format": "hh-sol-artifact-1",
  "contractName": "BountyMarket",
  "sourceName": "contracts/BountyMarket.sol",
  "abi": [
    {
      "inputs": [
        {
          "internalType": "address",
          "name": "_poACVerifier",
          "type": "address"
        },
        {
          "internalType": "address",
          "name": "_deviceRegistry",
          "type": "address"
        },
        {
          "internalType": "uint16",
          "name": "_platformFeeBps",
          "type": "uint16"
        }
      ],
      "stateMutability": "nonpayable",
      "type": "constructor"
    },
    {
      "inputs": [
        {
          "internalType": "uint256",
          "name": "bountyId",
          "type": "uint256"
        },
        {
          "internalType": "bytes32",
          "name": "deviceId",
          "type": "bytes32"
        }
      ],
      "name": "AlreadyAccepted",
      "type": "error"
    },
    {
      "inputs": [
        {
          "internalType": "uint256",
          "name": "bountyId",
          "type": "uint256"
        }
      ],
      "name": "BountyAlreadyFulfilled",
      "type": "error"
    },
    {
      "inputs": [
        {
          "internalType": "uint256",
          "name": "bountyId",
          "type": "uint256"
        }
      ],
      "name": "BountyNotActive",
      "type": "error"
    },
    {
      "inputs": [
        {
          "internalType": "uint256",
          "name": "bountyId",
          "type": "uint256"
        }
      ],
      "name": "BountyNotExpired",
      "type": "error"
    },
    {
      "inputs": [
        {
          "internalType": "uint256",
          "name": "bountyId",
          "type": "uint256"
        }
      ],
      "name": "BountyNotFound",
      "type": "error"
    },
    {
      "inputs": [
        {
          "internalType": "bytes32",
          "name": "deviceId",
          "type": "bytes32"
        }
      ],
      "name": "DeviceNotActive",
      "type": "error"
    },
    {
      "inputs": [
        {
          "internalType": "bytes32",
          "name": "deviceId",
          "type": "bytes32"
        }
      ],
      "name": "DeviceNotRegistered",
      "type": "error"
    },
    {
      "inputs": [
        {
          "internalType": "bytes32",
          "name": "deviceId",
          "type": "bytes32"
        }
      ],
      "name": "GateCheckFailed",
      "type": "error"
    },
    {
      "inputs": [
        {
          "internalType": "bytes32",
          "name": "deviceId",
          "type": "bytes32"
        }
      ],
      "name": "IneligibleTier",
      "type": "error"
    },
    {
      "inputs": [],
      "name": "InsufficientReward",
      "type": "error"
    },
    {
      "inputs": [
        {
          "internalType": "uint256",
          "name": "duration",
          "type": "uint256"
        }
      ],
      "name": "InvalidDuration",
      "type": "error"
    },
    {
      "inputs": [],
      "name": "InvalidMinSamples",
      "type": "error"
    },
    {
      "inputs": [],
      "name": "InvalidZone",
      "type": "error"
    },
    {
      "inputs": [
        {
          "internalType": "uint256",
          "name": "bountyId",
          "type": "uint256"
        },
        {
          "internalType": "uint16",
          "name": "submitted",
          "type": "uint16"
        },
        {
          "internalType": "uint16",
          "name": "required",
          "type": "uint16"
        }
      ],
      "name": "MinSamplesNotReached",
      "type": "error"
    },
    {
      "inputs": [
        {
          "internalType": "uint256",
          "name": "bountyId",
          "type": "uint256"
        }
      ],
      "name": "NoDevicesForAggregation",
      "type": "error"
    },
    {
      "inputs": [
        {
          "internalType": "uint256",
          "name": "bountyId",
          "type": "uint256"
        },
        {
          "internalType": "bytes32",
          "name": "deviceId",
          "type": "bytes32"
        }
      ],
      "name": "NotAccepted",
      "type": "error"
    },
    {
      "inputs": [
        {
          "internalType": "uint256",
          "name": "bountyId",
          "type": "uint256"
        },
        {
          "internalType": "address",
          "name": "caller",
          "type": "address"
        }
      ],
      "name": "NotBountyCreator",
      "type": "error"
    },
    {
      "inputs": [
        {
          "internalType": "int64",
          "name": "lat",
          "type": "int64"
        },
        {
          "internalType": "int64",
          "name": "lon",
          "type": "int64"
        }
      ],
      "name": "OutsideGeographicZone",
      "type": "error"
    },
    {
      "inputs": [
        {
          "internalType": "address",
          "name": "owner",
          "type": "address"
        }
      ],
      "name": "OwnableInvalidOwner",
      "type": "error"
    },
    {
      "inputs": [
        {
          "internalType": "address",
          "name": "account",
          "type": "address"
        }
      ],
      "name": "OwnableUnauthorizedAccount",
      "type": "error"
    },
    {
      "inputs": [
        {
          "internalType": "bytes32",
          "name": "recordHash",
          "type": "bytes32"
        },
        {
          "internalType": "uint256",
          "name": "existingBountyId",
          "type": "uint256"
        }
      ],
      "name": "RecordAlreadyUsed",
      "type": "error"
    },
    {
      "inputs": [
        {
          "internalType": "bytes32",
          "name": "recordHash",
          "type": "bytes32"
        }
      ],
      "name": "RecordNotVerified",
      "type": "error"
    },
    {
      "inputs": [],
      "name": "ReentrancyGuardReentrantCall",
      "type": "error"
    },
    {
      "inputs": [
        {
          "internalType": "int64",
          "name": "lastTs",
          "type": "int64"
        },
        {
          "internalType": "int64",
          "name": "currentTs",
          "type": "int64"
        },
        {
          "internalType": "uint32",
          "name": "requiredInterval",
          "type": "uint32"
        }
      ],
      "name": "SampleIntervalNotRespected",
      "type": "error"
    },
    {
      "inputs": [],
      "name": "TransferFailed",
      "type": "error"
    },
    {
      "anonymous": false,
      "inputs": [
        {
          "indexed": true,
          "internalType": "uint256",
          "name": "bountyId",
          "type": "uint256"
        },
        {
          "indexed": true,
          "internalType": "bytes32",
          "name": "deviceId",
          "type": "bytes32"
        },
        {
          "indexed": false,
          "internalType": "uint64",
          "name": "acceptedAt",
          "type": "uint64"
        }
      ],
      "name": "BountyAccepted",
      "type": "event"
    },
    {
      "anonymous": false,
      "inputs": [
        {
          "indexed": true,
          "internalType": "uint256",
          "name": "bountyId",
          "type": "uint256"
        },
        {
          "indexed": true,
          "internalType": "address",
          "name": "creator",
          "type": "address"
        },
        {
          "indexed": false,
          "internalType": "uint256",
          "name": "refundAmount",
          "type": "uint256"
        }
      ],
      "name": "BountyExpired",
      "type": "event"
    },
    {
      "anonymous": false,
      "inputs": [
        {
          "indexed": true,
          "internalType": "uint256",
          "name": "bountyId",
          "type": "uint256"
        },
        {
          "indexed": true,
          "internalType": "address",
          "name": "creator",
          "type": "address"
        },
        {
          "indexed": false,
          "internalType": "uint256",
          "name": "reward",
          "type": "uint256"
        },
        {
          "indexed": false,
          "internalType": "uint16",
          "name": "sensorRequirements",
          "type": "uint16"
        },
        {
          "indexed": false,
          "internalType": "uint16",
          "name": "minSamples",
          "type": "uint16"
        },
        {
          "indexed": false,
          "internalType": "uint64",
          "name": "deadlineMs",
          "type": "uint64"
        }
      ],
      "name": "BountyPosted",
      "type": "event"
    },
    {
      "anonymous": false,
      "inputs": [
        {
          "indexed": true,
          "internalType": "uint256",
          "name": "bountyId",
          "type": "uint256"
        },
        {
          "indexed": true,
          "internalType": "bytes32",
          "name": "deviceId",
          "type": "bytes32"
        },
        {
          "indexed": true,
          "internalType": "bytes32",
          "name": "recordHash",
          "type": "bytes32"
        },
        {
          "indexed": false,
          "internalType": "uint16",
          "name": "sampleNumber",
          "type": "uint16"
        }
      ],
      "name": "EvidenceSubmitted",
      "type": "event"
    },
    {
      "anonymous": false,
      "inputs": [
        {
          "indexed": true,
          "internalType": "address",
          "name": "previousOwner",
          "type": "address"
        },
        {
          "indexed": true,
          "internalType": "address",
          "name": "newOwner",
          "type": "address"
        }
      ],
      "name": "OwnershipTransferred",
      "type": "event"
    },
    {
      "anonymous": false,
      "inputs": [
        {
          "indexed": true,
          "internalType": "uint256",
          "name": "bountyId",
          "type": "uint256"
        },
        {
          "indexed": false,
          "internalType": "uint256",
          "name": "deviceCount",
          "type": "uint256"
        },
        {
          "indexed": false,
          "internalType": "uint256",
          "name": "totalSamples",
          "type": "uint256"
        },
        {
          "indexed": false,
          "internalType": "uint16",
          "name": "confidenceScore",
          "type": "uint16"
        },
        {
          "indexed": false,
          "internalType": "uint8",
          "name": "consensusInference",
          "type": "uint8"
        },
        {
          "indexed": false,
          "internalType": "int64",
          "name": "medianLatitude",
          "type": "int64"
        },
        {
          "indexed": false,
          "internalType": "int64",
          "name": "medianLongitude",
          "type": "int64"
        },
        {
          "indexed": false,
          "internalType": "int64",
          "name": "earliestTimestampMs",
          "type": "int64"
        },
        {
          "indexed": false,
          "internalType": "int64",
          "name": "latestTimestampMs",
          "type": "int64"
        }
      ],
      "name": "PhysicalOracleReport",
      "type": "event"
    },
    {
      "anonymous": false,
      "inputs": [
        {
          "indexed": true,
          "internalType": "uint256",
          "name": "bountyId",
          "type": "uint256"
        },
        {
          "indexed": true,
          "internalType": "bytes32",
          "name": "deviceId",
          "type": "bytes32"
        },
        {
          "indexed": true,
          "internalType": "address",
          "name": "recipient",
          "type": "address"
        },
        {
          "indexed": false,
          "internalType": "uint256",
          "name": "amount",
          "type": "uint256"
        }
      ],
      "name": "RewardClaimed",
      "type": "event"
    },
    {
      "inputs": [],
      "name": "COORD_SCALE",
      "outputs": [
        {
          "internalType": "int64",
          "name": "",
          "type": "int64"
        }
      ],
      "stateMutability": "view",
      "type": "function"
    },
    {
      "inputs": [],
      "name": "MAX_BOUNTY_DURATION",
      "outputs": [
        {
          "internalType": "uint256",
          "name": "",
          "type": "uint256"
        }
      ],
      "stateMutability": "view",
      "type": "function"
    },
    {
      "inputs": [],
      "name": "MIN_BOUNTY_DURATION",
      "outputs": [
        {
          "internalType": "uint256",
          "name": "",
          "type": "uint256"
        }
      ],
      "stateMutability": "view",
      "type": "function"
    },
    {
      "inputs": [],
      "name": "REQUIRES_GPS",
      "outputs": [
        {
          "internalType": "uint16",
          "name": "",
          "type": "uint16"
        }
      ],
      "stateMutability": "view",
      "type": "function"
    },
    {
      "inputs": [],
      "name": "REQUIRES_HUMIDITY",
      "outputs": [
        {
          "internalType": "uint16",
          "name": "",
          "type": "uint16"
        }
      ],
      "stateMutability": "view",
      "type": "function"
    },
    {
      "inputs": [],
      "name": "REQUIRES_LIGHT",
      "outputs": [
        {
          "internalType": "uint16",
          "name": "",
          "type": "uint16"
        }
      ],
      "stateMutability": "view",
      "type": "function"
    },
    {
      "inputs": [],
      "name": "REQUIRES_MOTION",
      "outputs": [
        {
          "internalType": "uint16",
          "name": "",
          "type": "uint16"
        }
      ],
      "stateMutability": "view",
      "type": "function"
    },
    {
      "inputs": [],
      "name": "REQUIRES_PRESSURE",
      "outputs": [
        {
          "internalType": "uint16",
          "name": "",
          "type": "uint16"
        }
      ],
      "stateMutability": "view",
      "type": "function"
    },
    {
      "inputs": [],
      "name": "REQUIRES_TEMP",
      "outputs": [
        {
          "internalType": "uint16",
          "name": "",
          "type": "uint16"
        }
      ],
      "stateMutability": "view",
      "type": "function"
    },
    {
      "inputs": [],
      "name": "REQUIRES_VOC",
      "outputs": [
        {
          "internalType": "uint16",
          "name": "",
          "type": "uint16"
        }
      ],
      "stateMutability": "view",
      "type": "function"
    },
    {
      "inputs": [
        {
          "internalType": "uint256",
          "name": "_bountyId",
          "type": "uint256"
        },
        {
          "internalType": "bytes32",
          "name": "_deviceId",
          "type": "bytes32"
        }
      ],
      "name": "acceptBounty",
      "outputs": [],
      "stateMutability": "nonpayable",
      "type": "function"
    },
    {
      "inputs": [
        {
          "internalType": "uint256",
          "name": "",
          "type": "uint256"
        },
        {
          "internalType": "bytes32",
          "name": "",
          "type": "bytes32"
        }
      ],
      "name": "acceptances",
      "outputs": [
        {
          "internalType": "bool",
          "name": "accepted",
          "type": "bool"
        },
        {
          "internalType": "uint64",
          "name": "acceptedAt",
          "type": "uint64"
        },
        {
          "internalType": "uint16",
          "name": "samplesSubmitted",
          "type": "uint16"
        },
        {
          "internalType": "int64",
          "name": "lastSampleTimestampMs",
          "type": "int64"
        }
      ],
      "stateMutability": "view",
      "type": "function"
    },
    {
      "inputs": [],
      "name": "accumulatedFees",
      "outputs": [
        {
          "internalType": "uint256",
          "name": "",
          "type": "uint256"
        }
      ],
      "stateMutability": "view",
      "type": "function"
    },
    {
      "inputs": [
        {
          "internalType": "uint256",
          "name": "_bountyId",
          "type": "uint256"
        },
        {
          "internalType": "bytes32[]",
          "name": "_deviceIds",
          "type": "bytes32[]"
        },
        {
          "internalType": "bytes32[]",
          "name": "_recordHashes",
          "type": "bytes32[]"
        },
        {
          "internalType": "int64[]",
          "name": "_latitudes",
          "type": "int64[]"
        },
        {
          "internalType": "int64[]",
          "name": "_longitudes",
          "type": "int64[]"
        },
        {
          "internalType": "int64[]",
          "name": "_timestampsMs",
          "type": "int64[]"
        },
        {
          "internalType": "uint8[]",
          "name": "_inferences",
          "type": "uint8[]"
        }
      ],
      "name": "aggregateSwarmReport",
      "outputs": [
        {
          "components": [
            {
              "internalType": "uint256",
              "name": "bountyId",
              "type": "uint256"
            },
            {
              "internalType": "uint256",
              "name": "deviceCount",
              "type": "uint256"
            },
            {
              "internalType": "uint256",
              "name": "totalSamples",
              "type": "uint256"
            },
            {
              "internalType": "uint16",
              "name": "confidenceScore",
              "type": "uint16"
            },
            {
              "internalType": "uint8",
              "name": "consensusInference",
              "type": "uint8"
            },
            {
              "internalType": "int64",
              "name": "medianLatitude",
              "type": "int64"
            },
            {
              "internalType": "int64",
              "name": "medianLongitude",
              "type": "int64"
            },
            {
              "internalType": "int64",
              "name": "earliestTimestampMs",
              "type": "int64"
            },
            {
              "internalType": "int64",
              "name": "latestTimestampMs",
              "type": "int64"
            }
          ],
          "internalType": "struct BountyMarket.SwarmReport",
          "name": "report",
          "type": "tuple"
        }
      ],
      "stateMutability": "nonpayable",
      "type": "function"
    },
    {
      "inputs": [
        {
          "internalType": "uint256",
          "name": "",
          "type": "uint256"
        }
      ],
      "name": "bounties",
      "outputs": [
        {
          "internalType": "uint256",
          "name": "bountyId",
          "type": "uint256"
        },
        {
          "internalType": "address",
          "name": "creator",
          "type": "address"
        },
        {
          "internalType": "uint256",
          "name": "reward",
          "type": "uint256"
        },
        {
          "internalType": "uint16",
          "name": "sensorRequirements",
          "type": "uint16"
        },
        {
          "internalType": "uint16",
          "name": "minSamples",
          "type": "uint16"
        },
        {
          "internalType": "uint32",
          "name": "sampleIntervalS",
          "type": "uint32"
        },
        {
          "internalType": "uint32",
          "name": "durationS",
          "type": "uint32"
        },
        {
          "internalType": "uint64",
          "name": "deadlineMs",
          "type": "uint64"
        },
        {
          "internalType": "int64",
          "name": "zoneLatMin",
          "type": "int64"
        },
        {
          "internalType": "int64",
          "name": "zoneLatMax",
          "type": "int64"
        },
        {
          "internalType": "int64",
          "name": "zoneLonMin",
          "type": "int64"
        },
        {
          "internalType": "int64",
          "name": "zoneLonMax",
          "type": "int64"
        },
        {
          "internalType": "int256",
          "name": "vocThreshold",
          "type": "int256"
        },
        {
          "internalType": "int256",
          "name": "tempThresholdHi",
          "type": "int256"
        },
        {
          "internalType": "int256",
          "name": "tempThresholdLo",
          "type": "int256"
        },
        {
          "internalType": "enum BountyMarket.BountyStatus",
          "name": "status",
          "type": "uint8"
        },
        {
          "internalType": "uint256",
          "name": "createdAt",
          "type": "uint256"
        }
      ],
      "stateMutability": "view",
      "type": "function"
    },
    {
      "inputs": [
        {
          "internalType": "uint256",
          "name": "_bountyId",
          "type": "uint256"
        },
        {
          "internalType": "bytes32",
          "name": "_deviceId",
          "type": "bytes32"
        }
      ],
      "name": "claimReward",
      "outputs": [],
      "stateMutability": "nonpayable",
      "type": "function"
    },
    {
      "inputs": [],
      "name": "deviceRegistry",
      "outputs": [
        {
          "internalType": "contract DeviceRegistry",
          "name": "",
          "type": "address"
        }
      ],
      "stateMutability": "view",
      "type": "function"
    },
    {
      "inputs": [
        {
          "internalType": "bytes32",
          "name": "",
          "type": "bytes32"
        }
      ],
      "name": "evidenceRecordToBounty",
      "outputs": [
        {
          "internalType": "uint256",
          "name": "",
          "type": "uint256"
        }
      ],
      "stateMutability": "view",
      "type": "function"
    },
    {
      "inputs": [
        {
          "internalType": "uint256",
          "name": "_bountyId",
          "type": "uint256"
        }
      ],
      "name": "expireBounty",
      "outputs": [],
      "stateMutability": "nonpayable",
      "type": "function"
    },
    {
      "inputs": [
        {
          "internalType": "uint256",
          "name": "_bountyId",
          "type": "uint256"
        },
        {
          "internalType": "bytes32",
          "name": "_deviceId",
          "type": "bytes32"
        }
      ],
      "name": "getAcceptance",
      "outputs": [
        {
          "components": [
            {
              "internalType": "bool",
              "name": "accepted",
              "type": "bool"
            },
            {
              "internalType": "uint64",
              "name": "acceptedAt",
              "type": "uint64"
            },
            {
              "internalType": "uint16",
              "name": "samplesSubmitted",
              "type": "uint16"
            },
            {
              "internalType": "int64",
              "name": "lastSampleTimestampMs",
              "type": "int64"
            }
          ],
          "internalType": "struct BountyMarket.Acceptance",
          "name": "",
          "type": "tuple"
        }
      ],
      "stateMutability": "view",
      "type": "function"
    },
    {
      "inputs": [
        {
          "internalType": "uint256",
          "name": "_bountyId",
          "type": "uint256"
        }
      ],
      "name": "getAcceptedDevices",
      "outputs": [
        {
          "internalType": "bytes32[]",
          "name": "",
          "type": "bytes32[]"
        }
      ],
      "stateMutability": "view",
      "type": "function"
    },
    {
      "inputs": [
        {
          "internalType": "uint256",
          "name": "_bountyId",
          "type": "uint256"
        }
      ],
      "name": "getBounty",
      "outputs": [
        {
          "components": [
            {
              "internalType": "uint256",
              "name": "bountyId",
              "type": "uint256"
            },
            {
              "internalType": "address",
              "name": "creator",
              "type": "address"
            },
            {
              "internalType": "uint256",
              "name": "reward",
              "type": "uint256"
            },
            {
              "internalType": "uint16",
              "name": "sensorRequirements",
              "type": "uint16"
            },
            {
              "internalType": "uint16",
              "name": "minSamples",
              "type": "uint16"
            },
            {
              "internalType": "uint32",
              "name": "sampleIntervalS",
              "type": "uint32"
            },
            {
              "internalType": "uint32",
              "name": "durationS",
              "type": "uint32"
            },
            {
              "internalType": "uint64",
              "name": "deadlineMs",
              "type": "uint64"
            },
            {
              "internalType": "int64",
              "name": "zoneLatMin",
              "type": "int64"
            },
            {
              "internalType": "int64",
              "name": "zoneLatMax",
              "type": "int64"
            },
            {
              "internalType": "int64",
              "name": "zoneLonMin",
              "type": "int64"
            },
            {
              "internalType": "int64",
              "name": "zoneLonMax",
              "type": "int64"
            },
            {
              "internalType": "int256",
              "name": "vocThreshold",
              "type": "int256"
            },
            {
              "internalType": "int256",
              "name": "tempThresholdHi",
              "type": "int256"
            },
            {
              "internalType": "int256",
              "name": "tempThresholdLo",
              "type": "int256"
            },
            {
              "internalType": "enum BountyMarket.BountyStatus",
              "name": "status",
              "type": "uint8"
            },
            {
              "internalType": "uint256",
              "name": "createdAt",
              "type": "uint256"
            }
          ],
          "internalType": "struct BountyMarket.BountyDescriptor",
          "name": "",
          "type": "tuple"
        }
      ],
      "stateMutability": "view",
      "type": "function"
    },
    {
      "inputs": [
        {
          "internalType": "uint256",
          "name": "_bountyId",
          "type": "uint256"
        },
        {
          "internalType": "uint256",
          "name": "_index",
          "type": "uint256"
        }
      ],
      "name": "getEvidence",
      "outputs": [
        {
          "components": [
            {
              "internalType": "bytes32",
              "name": "deviceId",
              "type": "bytes32"
            },
            {
              "internalType": "bytes32",
              "name": "recordHash",
              "type": "bytes32"
            },
            {
              "internalType": "int64",
              "name": "timestampMs",
              "type": "int64"
            },
            {
              "internalType": "int64",
              "name": "latitude",
              "type": "int64"
            },
            {
              "internalType": "int64",
              "name": "longitude",
              "type": "int64"
            }
          ],
          "internalType": "struct BountyMarket.Evidence",
          "name": "",
          "type": "tuple"
        }
      ],
      "stateMutability": "view",
      "type": "function"
    },
    {
      "inputs": [
        {
          "internalType": "uint256",
          "name": "_bountyId",
          "type": "uint256"
        }
      ],
      "name": "getEvidenceCount",
      "outputs": [
        {
          "internalType": "uint256",
          "name": "count",
          "type": "uint256"
        }
      ],
      "stateMutability": "view",
      "type": "function"
    },
    {
      "inputs": [],
      "name": "nextBountyId",
      "outputs": [
        {
          "internalType": "uint256",
          "name": "",
          "type": "uint256"
        }
      ],
      "stateMutability": "view",
      "type": "function"
    },
    {
      "inputs": [],
      "name": "owner",
      "outputs": [
        {
          "internalType": "address",
          "name": "",
          "type": "address"
        }
      ],
      "stateMutability": "view",
      "type": "function"
    },
    {
      "inputs": [],
      "name": "platformFeeBps",
      "outputs": [
        {
          "internalType": "uint16",
          "name": "",
          "type": "uint16"
        }
      ],
      "stateMutability": "view",
      "type": "function"
    },
    {
      "inputs": [],
      "name": "poACVerifier",
      "outputs": [
        {
          "internalType": "contract PoACVerifier",
          "name": "",
          "type": "address"
        }
      ],
      "stateMutability": "view",
      "type": "function"
    },
    {
      "inputs": [
        {
          "internalType": "uint16",
          "name": "_sensorRequirements",
          "type": "uint16"
        },
        {
          "internalType": "uint16",
          "name": "_minSamples",
          "type": "uint16"
        },
        {
          "internalType": "uint32",
          "name": "_sampleIntervalS",
          "type": "uint32"
        },
        {
          "internalType": "uint32",
          "name": "_durationS",
          "type": "uint32"
        },
        {
          "internalType": "int64",
          "name": "_zoneLatMin",
          "type": "int64"
        },
        {
          "internalType": "int64",
          "name": "_zoneLatMax",
          "type": "int64"
        },
        {
          "internalType": "int64",
          "name": "_zoneLonMin",
          "type": "int64"
        },
        {
          "internalType": "int64",
          "name": "_zoneLonMax",
          "type": "int64"
        },
        {
          "internalType": "int256",
          "name": "_vocThreshold",
          "type": "int256"
        },
        {
          "internalType": "int256",
          "name": "_tempThresholdHi",
          "type": "int256"
        },
        {
          "internalType": "int256",
          "name": "_tempThresholdLo",
          "type": "int256"
        }
      ],
      "name": "postBounty",
      "outputs": [
        {
          "internalType": "uint256",
          "name": "bountyId",
          "type": "uint256"
        }
      ],
      "stateMutability": "payable",
      "type": "function"
    },
    {
      "inputs": [],
      "name": "renounceOwnership",
      "outputs": [],
      "stateMutability": "nonpayable",
      "type": "function"
    },
    {
      "inputs": [
        {
          "internalType": "uint16",
          "name": "_newFeeBps",
          "type": "uint16"
        }
      ],
      "name": "setPlatformFee",
      "outputs": [],
      "stateMutability": "nonpayable",
      "type": "function"
    },
    {
      "inputs": [
        {
          "internalType": "address",
          "name": "gate",
          "type": "address"
        }
      ],
      "name": "setTournamentGate",
      "outputs": [],
      "stateMutability": "nonpayable",
      "type": "function"
    },
    {
      "inputs": [
        {
          "internalType": "uint256",
          "name": "_bountyId",
          "type": "uint256"
        },
        {
          "internalType": "bytes32",
          "name": "_deviceId",
          "type": "bytes32"
        },
        {
          "internalType": "bytes32",
          "name": "_recordHash",
          "type": "bytes32"
        },
        {
          "internalType": "int64",
          "name": "_latitude",
          "type": "int64"
        },
        {
          "internalType": "int64",
          "name": "_longitude",
          "type": "int64"
        },
        {
          "internalType": "int64",
          "name": "_timestampMs",
          "type": "int64"
        }
      ],
      "name": "submitEvidence",
      "outputs": [],
      "stateMutability": "nonpayable",
      "type": "function"
    },
    {
      "inputs": [],
      "name": "tournamentGate",
      "outputs": [
        {
          "internalType": "address",
          "name": "",
          "type": "address"
        }
      ],
      "stateMutability": "view",
      "type": "function"
    },
    {
      "inputs": [
        {
          "internalType": "address",
          "name": "newOwner",
          "type": "address"
        }
      ],
      "name": "transferOwnership",
      "outputs": [],
      "stateMutability": "nonpayable",
      "type": "function"
    },
    {
      "inputs": [],
      "name": "withdrawFees",
      "outputs": [],
      "stateMutability": "nonpayable",
      "type": "function"
    }
  ],
  "bytecode": "0x6080346200011657601f62002b3238819003918201601f19168301916001600160401b038311848410176200011b5780849260609460405283398101031262000116576200004d8162000131565b9060406200005e6020830162000131565b9101519061ffff821680920362000116573315620000fd5760008054336001600160a01b0319808316821784556040519690946001600160a01b03949093859391908416907f8be0079c531659141344cd1fd0a4f28419497f9722a3daafe3b4186f6b6457e09080a360018055168360045416176004551690600554161760055561ffff19600254161760025560016007556129eb9081620001478239f35b604051631e4fbdf760e01b815260006004820152602490fd5b600080fd5b634e487b7160e01b600052604160045260246000fd5b51906001600160a01b0382168203620001165756fe61028080604052600436101561001457600080fd5b60003560e01c90816311955a8d146126955750806322dcd13e146126735780632cd5a77a146125c0578063327cea62146125a4578063423aee311461257857806344c5e39b14611bc85780634636f70a14611bac578063476343ee14611b5f57806348591e5514611b43578063496e62f714611b24578063587f5ed714611b065780635cbc742c14611a765780635efb870a14611a4d5780635faedcef146119555780636569dac414611660578063715018a61461160757806385c3dd80146115db5780638da5cb5b146115b2578063925ac9b1146115965780639d2fd78b14611508578063b52947e4146114ed578063bd62ad22146114d0578063c9ae98bd14610f69578063d5f9897f14610f06578063d7b5a84a14610eea578063dc2f874414610dde578063e144064a14610dc2578063e489232d14610b23578063eacd3ab3146106d2578063eb768843146106a9578063ee8c4bbf146103f3578063f1b8a98c1461032e578063f1cf790514610305578063f2fde38b14610275578063f4f47683146101cf5763fd14fad4146101ac57600080fd5b346101ca5760003660031901126101ca576020600754604051908152f35b600080fd5b346101ca576020806003193601126101ca57600435600052600b8152604060002060405190818382549182815201908192600052846000209060005b86828210610261578686610221828803836127e2565b604051928392818401908285525180915260408401929160005b82811061024a57505050500390f35b83518552869550938101939281019260010161023b565b83548552909301926001928301920161020b565b346101ca5760203660031901126101ca576004356001600160a01b03818116918290036101ca576102a4612735565b81156102ec57600054826bffffffffffffffffffffffff60a01b821617600055167f8be0079c531659141344cd1fd0a4f28419497f9722a3daafe3b4186f6b6457e0600080a3005b604051631e4fbdf760e01b815260006004820152602490fd5b346101ca5760003660031901126101ca576004546040516001600160a01b039091168152602090f35b346101ca5760403660031901126101ca576000608060405161034f816127ab565b8281528260208201528260408201528260608201520152600435600052600a60205260a0610383602435604060002061289a565b5060405190610391826127ab565b8054918281526002600183015492602083019384520154906040810160079383850b8252608060608401938560401c870b8552019360801c850b845260405195865251602086015251830b604085015251820b606084015251900b6080820152f35b346101ca5760203660031901126101ca576000610200604051610415816127c6565b8281528260208201528260408201528260608201528260808201528260a08201528260c08201528260e08201528261010082015282610120820152826101408201528261016082015282610180820152826101a0820152826101c0820152826101e0820152015260043580600052600860205260406000209060ff60088301541690600482101561069357811561067b5750610200610220926009604051916104bd836127c6565b80549485845260018060a01b03600183015416602085015260028201546040850152600382015461ffff8116606086015261ffff8160101c16608086015263ffffffff8160201c1660a086015263ffffffff8160401c1660c08601526001600160401b038160601c1660e086015260a01c60070b61010085015260048201548060070b6101208601528060401c60070b61014086015260801c60070b610160850152600582015461018085015260068201546101a085015260078201546101c08501526101e084015201548282015260405192835260018060a01b0360208201511660208401526040810151604084015261ffff606082015116606084015261ffff608082015116608084015263ffffffff60a08201511660a084015263ffffffff60c08201511660c08401526001600160401b0360e08201511660e084015261010081015160070b61010084015261012081015160070b61012084015261014081015160070b61014084015261016081015160070b6101608401526101808101516101808401526101a08101516101a08401526101c08101516101c08401526106716101e08201516101e0850190612728565b0151610200820152f35b6024906040519063728640f360e11b82526004820152fd5b634e487b7160e01b600052602160045260246000fd5b346101ca5760003660031901126101ca576006546040516001600160a01b039091168152602090f35b346101ca576106e0366126b1565b6106e861284e565b8160005260209160088352604060002092600884019081549460ff86166004811015610693578015610b0a5760028114610af157600103610ad857836000526009825260406000208560005282526040600020549260ff841615610aba5761ffff809460481c1684600384015460101c1690818110610a965750506006546001600160a01b039790881680610a36575b5090600280939260ff191617905501549160025416808302908382041483151715610a20576127109004808303928311610a20576107b890600354612880565b600355602460008660055416604051928380926359d902ed60e01b82528960048301525afa8015610a145786916000916108a0575b505116946000808080868a5af161080261281e565b501561088e576005541691823b156101ca576040516307567c7560e01b81526004810186905260006024820181905260016044830152606482018190527f26ef85f0daac61fc17bf2398563cb3e2d7731117f76c2b14f2fdbbb6bad62bac948290608490829084905af161087f575b50604051908152a460018055005b61088890612798565b86610871565b6040516312171d8360e31b8152600490fd5b9150503d806000833e6108b381836127e2565b810182828203126101ca5781516001600160401b03928382116101ca5701906101409283838303126101ca57604051938401848110828211176109fe57604052825189811681036101ca57845261090b8584016128d6565b8585015261091b604084016128d6565b6040850152606083015160608501526109366080840161288d565b608085015260a08301519081116101ca57820181601f820112156101ca5780519061096082612803565b9261096e60405194856127e2565b8284528683830101116101ca578994939291869160005b8281106109e7575050906000918301015260a08301526109a760c082016128ea565b60c08301526109b860e082016128ea565b60e08301526101006109cb8183016128ea565b908301526109dd6101208092016128fb565b90820152876107ed565b8181018401518582018501528c9750889301610985565b634e487b7160e01b600052604160045260246000fd5b6040513d6000823e3d90fd5b634e487b7160e01b600052601160045260246000fd5b803b156101ca576000602491604051928380926305d05f6f60e31b82528c60048301525afa9081610a87575b50610a8057604051639741880760e01b815260048101889052602490fd5b6002610778565b610a9090612798565b89610a62565b606491879160405192636bb8313960e11b8452600484015260248301526044820152fd5b604485876040519163dfcd137d60e01b835260048301526024820152fd5b60405163616b4a8360e01b815260048101859052602490fd5b6040516310670cd160e01b815260048101869052602490fd5b60405163728640f360e11b815260048101869052602490fd5b346101ca57610b31366126b1565b9080600052602060088152604060002060ff6008820154166004811015610693578015610da957600103610d90576103e8804202904282041442151715610a20576003916001600160401b03928391015460601c1610610d9057600554604051635ec8fe6b60e01b815260048101869052908390829060249082906001600160a01b03165afa908115610a1457600091610d5b575b5015610d42578260005260098252604060002084600052825260ff60406000205416610d2457421690610cad604051610bfe81612761565b60018152828101848152610c8261ffff6040840160008152606085019360008552896000526009885260406000208b60005288526040600020955115159060ff68ffffffffffffffff008854925160081b1692169068ffffffffffffffffff1916171785555116839061ffff60481b82549160481b169061ffff60481b1916179055565b51815460589190911b67ffffffffffffffff60581b1667ffffffffffffffff60581b19909116179055565b82600052600b8152604060002091825492600160401b8410156109fe5760018401808255841015610d0e577f439c72668c744083584e3621696c1da1e6e44a0ecf9ebd7e0105655b86044fd0938691600052836000200155604051908152a3005b634e487b7160e01b600052603260045260246000fd5b604483856040519163e548d20960e01b835260048301526024820152fd5b60405163159c717560e11b815260048101859052602490fd5b90508281813d8311610d89575b610d7281836127e2565b810103126101ca57610d839061288d565b85610bc6565b503d610d68565b60405163616b4a8360e01b815260048101849052602490fd5b60405163728640f360e11b815260048101859052602490fd5b346101ca5760003660031901126101ca57602060405160408152f35b346101ca5760203660031901126101ca5760043560005260086020526102206040600020805490610ee260018060a01b0360018301541691600281015460038201546004830154600584015490600685015492600786015494600960ff600889015416970154986040519a8b5260208b015260408a015261ffff80821660608b01528160101c1660808a015263ffffffff808260201c1660a08b01528160401c1660c08a01526001600160401b038160601c1660e08a015260a01c60070b6101008901528060070b6101208901528060401c60070b61014089015260801c60070b6101608801526101808701526101a08601526101c08501526101e0840190612728565b610200820152f35b346101ca5760003660031901126101ca57602060405160028152f35b346101ca57610f14366126b1565b90600052600960205260406000209060005260205260806040600020546040519060ff8116151582526001600160401b038160081c16602083015261ffff8160481c16604083015260581c60070b6060820152f35b346101ca5760c03660031901126101ca576064358060070b81036101ca57610f8f612708565b610f97612718565b91610fa061284e565b600435600052600860205260406000209160ff60088401541660048110156106935780156114b75760010361149e576003830154926001600160401b038460601c166001600160401b0386161161149e576004356000526009602052604060002060243560005260205260406000209384549160ff83161561147d57600554604051631f9b019b60e01b81526024803560048301529091602091839182906001600160a01b03165afa908115610a1457600091611443575b501561142a576024602060018060a01b03600454166040519283809263488dbfad60e01b825260443560048301525afa908115610a14576000916113f0575b50156113d657604435600052600c602052604060002054806113b657508160a01c60070b8560070b129081156113a1575b8115611389575b8115611372575b5061134e5761ffff8260481c1615158061133c575b6112c2575b5050600435600052600a60205260406000209060405192611110846127ab565b602435845260443560208501528560070b604085015260070b606084015260070b60808301528054600160401b8110156109fe576111539160018201815561289a565b9190916112ac57608060026111f0938351815560208401516001820155019160408101516001600160401b0319845416906001600160401b03161783556111c4606082015160070b849081549060401b67ffffffffffffffff60401b169067ffffffffffffffff60401b1916179055565b0151815460809190911b67ffffffffffffffff60801b1667ffffffffffffffff60801b19909116179055565b604435600052600c60205260043560406000205561ffff815460481c1661ffff8114610a205781546affff000000000000000000191660019190910160481b61ffff60481b1617815561ffff9161126b90825460589190911b67ffffffffffffffff60581b1667ffffffffffffffff60581b19909116178255565b5460481c1660405190815260443590602435907f34f15eb843ffba278410dec94d6ed018dbcd7f438b771255faa42192a42e2f9b602060043592a460018055005b634e487b7160e01b600052600060045260246000fd5b63ffffffff9060201c166103e88160070b02918260070b928303610a205760581c60070b918660070b90838203677fffffffffffffff8113677fffffffffffffff19821217610a205760070b1261131957506110f0565b6064935060405192633ae02db960e21b8452600484015260248301526044820152fd5b5063ffffffff8160201c1615156110eb565b60405163bfb806bb60e01b8152600785810b600483015284900b6024820152604490fd5b60049150015460801c60070b8360070b13876110d6565b9050600481015460401c60070b8460070b12906110cf565b9050600481015460070b8560070b13906110c8565b60405163321d419760e11b81526044803560048301526024820192909252fd5b604051632047f23560e21b81526044356004820152602490fd5b90506020813d602011611422575b8161140b602093836127e2565b810103126101ca5761141c9061288d565b88611097565b3d91506113fe565b6040516347b63a5360e01b815260248035600483015290fd5b90506020813d602011611475575b8161145e602093836127e2565b810103126101ca5761146f9061288d565b88611058565b3d9150611451565b604460405163dfcd137d60e01b815260043560048201526024356024820152fd5b602460405163616b4a8360e01b81526004356004820152fd5b602460405163728640f360e11b81526004356004820152fd5b346101ca5760003660031901126101ca576020604051610e108152f35b346101ca5760003660031901126101ca576020604051818152f35b346101ca5760203660031901126101ca576004356001600160a01b03818116918290036101ca57611537612735565b600654908116611551576001600160a01b03191617600655005b60405162461bcd60e51b815260206004820152601e60248201527f426f756e74794d61726b65743a206761746520616c72656164792073657400006044820152606490fd5b346101ca5760003660031901126101ca57602060405160018152f35b346101ca5760003660031901126101ca576000546040516001600160a01b039091168152602090f35b346101ca5760203660031901126101ca57600435600052600c6020526020604060002054604051908152f35b346101ca5760003660031901126101ca57611620612735565b600080546001600160a01b0319811682556001600160a01b03167f8be0079c531659141344cd1fd0a4f28419497f9722a3daafe3b4186f6b6457e08280a3005b6101603660031901126101ca576116756126f7565b61ffff60243516602435036101ca5763ffffffff8060443516604435036101ca578060643516606435036101ca576116ab612708565b6116b3612718565b60c43560070b60c435036101ca5760e43560070b60e435036101ca576116d761284e565b341561194357610e108360643516108015611932575b611916578060070b8260070b12801590611902575b6118f05761ffff60243516156118de5761172f6007549361172285612871565b6007556064351642612880565b6103e890818102918183041490151715610a2057602094846000526008865260406000209085825560018201336bffffffffffffffffffffffff60a01b82541617905534600283015561ffff600383019116948582549160a01b6001600160401b0360a01b169163ffffffff60e01b161763ffff000060243560101b161767ffffffff000000006044358a1b16176bffffffff000000000000000060643560401b16176001600160401b0360601b8560601b161717905561185e600482016001600160401b03198154166001600160401b0395861617815561183660c435829081549060401b67ffffffffffffffff60401b169067ffffffffffffffff60401b1916179055565b805467ffffffffffffffff60801b191667ffffffffffffffff60801b60e43560801b16179055565b61010435600582015561012435600682015561014435600782015560088101600160ff19825416179055600942910155604051923484528584015261ffff602435166040840152166060820152817f36924365dfd16e16e86593c39511c44d2a1c13a28e05c093cfb1e908aebe5c0960803393a360018055604051908152f35b60405163adf316ad60e01b8152600490fd5b604051639d3c586b60e01b8152600490fd5b5060e43560070b60c43560070b1215611702565b6040516313b783af60e21b815260643584166004820152602490fd5b506301e133808360643516116116ed565b604051636bbdb6db60e11b8152600490fd5b346101ca5760203660031901126101ca5760043561197161284e565b80600052600860205260406000209060088201805460ff81166004811015610693578015610da957600103610d90576103e8804202904282041442151715610a20576001600160401b03600386015460601c161015611a345760039060ff191617905560016002830154920160018060a01b0390600080808087868654165af16119f961281e565b501561088e577fbcaf9d6f28ffdbd48d1abf354b5f84d03eda4274bf2995a6b1f0a84630c01b8791602091541693604051908152a360018055005b604051630134589d60e41b815260048101849052602490fd5b346101ca5760003660031901126101ca576005546040516001600160a01b039091168152602090f35b346101ca5760203660031901126101ca5761ffff611a926126f7565b611a9a612735565b166103e88111611ab55761ffff196002541617600255600080f35b60405162461bcd60e51b815260206004820152602360248201527f426f756e74794d61726b65743a206665652063616e6e6f74206578636565642060448201526231302560e81b6064820152608490fd5b346101ca5760003660031901126101ca576020600354604051908152f35b346101ca5760003660031901126101ca5760206040516301e133808152f35b346101ca5760003660031901126101ca57602060405160108152f35b346101ca5760003660031901126101ca57611b78612735565b611b8061284e565b60008080806003548160035560018060a01b038254165af1611ba061281e565b501561088e5760018055005b346101ca5760003660031901126101ca57602060405160088152f35b346101ca5760e03660031901126101ca576024356001600160401b0381116101ca57611bf89036906004016126c7565b6080526044356001600160401b0381116101ca57611c1a9036906004016126c7565b610200526064356001600160401b0381116101ca57611c3d9036906004016126c7565b60e052610240526084356001600160401b0381116101ca57611c639036906004016126c7565b6101605260c0526001600160401b0360a435116101ca57611c893660a4356004016126c7565b90926001600160401b0360c435116101ca57611caa3660c4356004016126c7565b61018052610140526000610100604051611cc38161277c565b8281528260208201528260408201528260608201528260808201528260a08201528260c08201528260e0820152015261020051608051908114908161256c575b8161255f575b81612555575b81612548575b50156124f757608051156124de576004356000526008602052604060002060ff600882015416600481101561069357156114b75760006101a052600061012052677fffffffffffffff61022052677fffffffffffffff196101c052600060a0526000610260526040518061010052806120008101106001600160401b03612000830111176109fe5780612000809296939601604052369037611db860805161290a565b90611dc660405192836127e2565b6080518252601f19611dd960805161290a565b0136602084013760006101e0525b6080516101e05190811015612296576020611e1160018060a01b0360045416926102005185612921565b3560246040518094819363488dbfad60e01b835260048301525afa908115610a145760009161225c575b501561220657611e5c611e576101e05160e05161024051612921565b612931565b600386015460a01c60070b9060070b1215806121dc575b806121af575b80612182575b156121335760019460005b6101205181101561212b57611e9f818561293f565b51611eb06101e05160805188612921565b3514611ec457611ebf90612871565b611e8a565b5091945060005b611ff2575b611ee1611e576101e0518689612921565b6102205160070b9060070b12611fd8575b611f03611e576101e0518689612921565b6101c05160070b9060070b13611fbe575b611f35611f2d611e576101e05160e05161024051612921565b60a051612953565b60a052611f5a611f51611e576101e0516101605160c051612921565b61026051612953565b61026052611f726101e0516101805161014051612921565b3560ff811681036101ca57611fa560ff611f9a611f948285166101005161297b565b51612871565b92166101005161297b565b52611fb26101e051612871565b6101e052939093611de7565b611fcf611e576101e0518689612921565b6101c052611f14565b611fe9611e576101e0518689612921565b61022052611ef2565b6120026101e05160805185612921565b35612010610120518761293f565b5261201d61012051612871565b6101205260018060a01b036005541661203c6101e05160805186612921565b604051631ce6b50f60e21b815290356004820152602081602481855afa600091816120ef575b506120d4575b506120796101e05160805186612921565b3590803b156101ca576040516307567c7560e01b815260048101929092526000602483018190526001604484015260648301819052908290608490829084905af16120c5575b50611ed0565b6120ce90612798565b866120bf565b61ffff6120e591166101a051612880565b6101a05287612068565b9091506020813d602011612123575b8161210b602093836127e2565b810103126101ca5761211c906128fb565b9089612062565b3d91506120fe565b509194611ecb565b60405162461bcd60e51b815260206004820152602160248201527f426f756e74794d61726b65743a207265636f7264206f757473696465207a6f6e6044820152606560f81b6064820152608490fd5b50612199611e576101e0516101605160c051612921565b600486015460801c60070b9060070b1315611e7f565b506121c6611e576101e0516101605160c051612921565b600486015460401c60070b9060070b1215611e79565b506121f3611e576101e05160e05161024051612921565b600486015460070b9060070b1315611e73565b60405162461bcd60e51b815260206004820152602860248201527f426f756e74794d61726b65743a20756e7665726966696564207265636f726420604482015267696e20737761726d60c01b6064820152608490fd5b90506020813d60201161228e575b81612277602093836127e2565b810103126101ca576122889061288d565b87611e3b565b3d915061226a565b60008060005b610100811061249e575061012051600a81111561249857600a905b6103e8908282810204821483151715610a2057801561248f576122dd906101a0516128b6565b915b846127108102046127101485151715610a205761231760039361231c936123106101209861271060805191026128b6565b9302612880565b612880565b0461271081111561248657506127105b60805160070b9161234c6123428460a05161298d565b936102605161298d565b604051936123598561277c565b600435855285516020860152608051604086015261ffff8416606086015260ff831660808601528060070b60a08601528160070b60c08601526102205160070b60e086015260ff6101c05160070b938461010088015261ffff6040519689518852608051602089015216604087015216606085015260070b608084015260070b60a08301526102205160070b60c083015260e08201527f27ac23b194a7076145dc8eae5267a9483caccbbdb3f36aebbb7397eafd8235d461010060043592a26101006040519180518352602081015160208401526040810151604084015261ffff606082015116606084015260ff608082015116608084015260a081015160070b60a084015260c081015160070b60c084015260e081015160070b60e0840152015160070b610100820152f35b61ffff1661232c565b506000916122df565b806122b7565b826124ac826101005161297b565b51116124c1575b6124bc90612871565b61229c565b8092506124d291506101005161297b565b519060ff8116906124b3565b602460405163287ae57960e01b81526004356004820152fd5b60405162461bcd60e51b815260206004820152602360248201527f426f756e74794d61726b65743a206172726179206c656e677468206d69736d616044820152620e8c6d60eb1b6064820152608490fd5b9050610180511485611d15565b8381149150611d0f565b6101605181149150611d09565b60e05181149150611d03565b346101ca5760203660031901126101ca57600435600052600a6020526020604060002054604051908152f35b346101ca5760003660031901126101ca57602060405160048152f35b346101ca576125ce366126b1565b90600060606040516125df81612761565b82815282602082015282604082015201526000526009602052604060002090600052602052608060406000206040519061261882612761565b5460ff8116151591828152602081016001600160401b03808460081c1682526040830191606061ffff94858760481c168552019460581c60070b855260405195865251166020850152511660408301525160070b6060820152f35b346101ca5760003660031901126101ca57602061ffff60025416604051908152f35b346101ca5760003660031901126101ca57806298968060209252f35b60409060031901126101ca576004359060243590565b9181601f840112156101ca578235916001600160401b0383116101ca576020808501948460051b0101116101ca57565b6004359061ffff821682036101ca57565b608435908160070b82036101ca57565b60a435908160070b82036101ca57565b9060048210156106935752565b6000546001600160a01b0316330361274957565b60405163118cdaa760e01b8152336004820152602490fd5b608081019081106001600160401b038211176109fe57604052565b61012081019081106001600160401b038211176109fe57604052565b6001600160401b0381116109fe57604052565b60a081019081106001600160401b038211176109fe57604052565b61022081019081106001600160401b038211176109fe57604052565b90601f801991011681019081106001600160401b038211176109fe57604052565b6001600160401b0381116109fe57601f01601f191660200190565b3d15612849573d9061282f82612803565b9161283d60405193846127e2565b82523d6000602084013e565b606090565b60026001541461285f576002600155565b604051633ee5aeb560e01b8152600490fd5b6000198114610a205760010190565b91908201809211610a2057565b519081151582036101ca57565b8054821015610d0e576000526003602060002091020190600090565b81156128c0570490565b634e487b7160e01b600052601260045260246000fd5b51906001600160401b03821682036101ca57565b519063ffffffff821682036101ca57565b519061ffff821682036101ca57565b6001600160401b0381116109fe5760051b60200190565b9190811015610d0e5760051b0190565b358060070b81036101ca5790565b8051821015610d0e5760209160051b010190565b9060070b9060070b0190677fffffffffffffff198212677fffffffffffffff831317610a2057565b90610100811015610d0e5760051b0190565b60070b9060070b9081156128c057677fffffffffffffff198114600019831416610a2057059056fea2646970667358221220fced3a695214970080adad5a53d146a5814b1324821a12c6dcea8727f8e321f664736f6c63430008140033",
  "linkReferences": {},
  "deployedLinkReferences": {}
}