{
  "_format": "hh-sol-artifact-1",
  "contractName": "TeamProofAggregatorZK",
  "sourceName": "contracts/TeamProofAggregatorZK.sol",
  "abi": [
    {
      "inputs": [
        {
          "internalType": "address",
          "name": "_poACVerifier",
          "type": "address"
        }
      ],
      "stateMutability": "nonpayable",
      "type": "constructor"
    },
    {
      "inputs": [
        {
          "internalType": "bytes32",
          "name": "recordHash",
          "type": "bytes32"
        },
        {
          "internalType": "uint8",
          "name": "inferenceResult",
          "type": "uint8"
        }
      ],
      "name": "CheatFlagDetected",
      "type": "error"
    },
    {
      "inputs": [
        {
          "internalType": "bytes32",
          "name": "computed",
          "type": "bytes32"
        },
        {
          "internalType": "bytes32",
          "name": "submitted",
          "type": "bytes32"
        }
      ],
      "name": "InvalidMerkleRoot",
      "type": "error"
    },
    {
      "inputs": [
        {
          "internalType": "uint256",
          "name": "size",
          "type": "uint256"
        }
      ],
      "name": "InvalidTeamSize",
      "type": "error"
    },
    {
      "inputs": [],
      "name": "InvalidZKProof",
      "type": "error"
    },
    {
      "inputs": [
        {
          "internalType": "uint256",
          "name": "expected",
          "type": "uint256"
        },
        {
          "internalType": "uint256",
          "name": "provided",
          "type": "uint256"
        }
      ],
      "name": "MemberCountMismatch",
      "type": "error"
    },
    {
      "inputs": [
        {
          "internalType": "bytes32",
          "name": "nullifier",
          "type": "bytes32"
        }
      ],
      "name": "NullifierAlreadyUsed",
      "type": "error"
    },
    {
      "inputs": [
        {
          "internalType": "address",
          "name": "owner",
          "type": "address"
        }
      ],
      "name": "OwnableInvalidOwner",
      "type": "error"
    },
    {
      "inputs": [
        {
          "internalType": "address",
          "name": "account",
          "type": "address"
        }
      ],
      "name": "OwnableUnauthorizedAccount",
      "type": "error"
    },
    {
      "inputs": [
        {
          "internalType": "bytes32",
          "name": "recordHash",
          "type": "bytes32"
        }
      ],
      "name": "RecordNotVerified",
      "type": "error"
    },
    {
      "inputs": [
        {
          "internalType": "bytes32",
          "name": "teamId",
          "type": "bytes32"
        }
      ],
      "name": "TeamAlreadyExists",
      "type": "error"
    },
    {
      "inputs": [
        {
          "internalType": "bytes32",
          "name": "teamId",
          "type": "bytes32"
        }
      ],
      "name": "TeamNotActive",
      "type": "error"
    },
    {
      "inputs": [
        {
          "internalType": "bytes32",
          "name": "teamId",
          "type": "bytes32"
        }
      ],
      "name": "TeamNotFound",
      "type": "error"
    },
    {
      "anonymous": false,
      "inputs": [
        {
          "indexed": true,
          "internalType": "address",
          "name": "previousOwner",
          "type": "address"
        },
        {
          "indexed": true,
          "internalType": "address",
          "name": "newOwner",
          "type": "address"
        }
      ],
      "name": "OwnershipTransferred",
      "type": "event"
    },
    {
      "anonymous": false,
      "inputs": [
        {
          "indexed": true,
          "internalType": "bytes32",
          "name": "teamId",
          "type": "bytes32"
        },
        {
          "indexed": true,
          "internalType": "address",
          "name": "captain",
          "type": "address"
        },
        {
          "indexed": false,
          "internalType": "uint8",
          "name": "memberCount",
          "type": "uint8"
        }
      ],
      "name": "TeamCreated",
      "type": "event"
    },
    {
      "anonymous": false,
      "inputs": [
        {
          "indexed": true,
          "internalType": "bytes32",
          "name": "teamId",
          "type": "bytes32"
        },
        {
          "indexed": true,
          "internalType": "uint256",
          "name": "proofId",
          "type": "uint256"
        },
        {
          "indexed": false,
          "internalType": "bytes32",
          "name": "merkleRoot",
          "type": "bytes32"
        },
        {
          "indexed": false,
          "internalType": "uint8",
          "name": "memberCount",
          "type": "uint8"
        },
        {
          "indexed": false,
          "internalType": "bool",
          "name": "allClean",
          "type": "bool"
        }
      ],
      "name": "TeamProofSubmitted",
      "type": "event"
    },
    {
      "anonymous": false,
      "inputs": [
        {
          "indexed": true,
          "internalType": "address",
          "name": "verifier",
          "type": "address"
        }
      ],
      "name": "TeamProofVerifierSet",
      "type": "event"
    },
    {
      "anonymous": false,
      "inputs": [
        {
          "indexed": true,
          "internalType": "bytes32",
          "name": "teamId",
          "type": "bytes32"
        },
        {
          "indexed": true,
          "internalType": "bytes32",
          "name": "merkleRoot",
          "type": "bytes32"
        },
        {
          "indexed": false,
          "internalType": "bytes32",
          "name": "nullifierHash",
          "type": "bytes32"
        },
        {
          "indexed": false,
          "internalType": "uint256",
          "name": "memberCount",
          "type": "uint256"
        }
      ],
      "name": "ZKTeamProofSubmitted",
      "type": "event"
    },
    {
      "inputs": [],
      "name": "CHEAT_INFERENCE_MAX",
      "outputs": [
        {
          "internalType": "uint8",
          "name": "",
          "type": "uint8"
        }
      ],
      "stateMutability": "view",
      "type": "function"
    },
    {
      "inputs": [],
      "name": "CHEAT_INFERENCE_MIN",
      "outputs": [
        {
          "internalType": "uint8",
          "name": "",
          "type": "uint8"
        }
      ],
      "stateMutability": "view",
      "type": "function"
    },
    {
      "inputs": [],
      "name": "MAX_TEAM_SIZE",
      "outputs": [
        {
          "internalType": "uint8",
          "name": "",
          "type": "uint8"
        }
      ],
      "stateMutability": "view",
      "type": "function"
    },
    {
      "inputs": [],
      "name": "MIN_TEAM_SIZE",
      "outputs": [
        {
          "internalType": "uint8",
          "name": "",
          "type": "uint8"
        }
      ],
      "stateMutability": "view",
      "type": "function"
    },
    {
      "inputs": [],
      "name": "MOCK_PROOF_SIZE",
      "outputs": [
        {
          "internalType": "uint256",
          "name": "",
          "type": "uint256"
        }
      ],
      "stateMutability": "view",
      "type": "function"
    },
    {
      "inputs": [],
      "name": "ZK_VERSION",
      "outputs": [
        {
          "internalType": "bytes32",
          "name": "",
          "type": "bytes32"
        }
      ],
      "stateMutability": "view",
      "type": "function"
    },
    {
      "inputs": [
        {
          "internalType": "bytes32[]",
          "name": "_leaves",
          "type": "bytes32[]"
        }
      ],
      "name": "computeMerkleRoot",
      "outputs": [
        {
          "internalType": "bytes32",
          "name": "",
          "type": "bytes32"
        }
      ],
      "stateMutability": "pure",
      "type": "function"
    },
    {
      "inputs": [
        {
          "internalType": "bytes32",
          "name": "_teamId",
          "type": "bytes32"
        },
        {
          "internalType": "bytes32[]",
          "name": "_deviceIds",
          "type": "bytes32[]"
        }
      ],
      "name": "createTeam",
      "outputs": [],
      "stateMutability": "nonpayable",
      "type": "function"
    },
    {
      "inputs": [
        {
          "internalType": "bytes32",
          "name": "_teamId",
          "type": "bytes32"
        }
      ],
      "name": "getTeam",
      "outputs": [
        {
          "internalType": "bytes32[]",
          "name": "memberDeviceIds",
          "type": "bytes32[]"
        },
        {
          "internalType": "address",
          "name": "captain",
          "type": "address"
        },
        {
          "internalType": "uint64",
          "name": "createdAt",
          "type": "uint64"
        },
        {
          "internalType": "bool",
          "name": "active",
          "type": "bool"
        }
      ],
      "stateMutability": "view",
      "type": "function"
    },
    {
      "inputs": [
        {
          "internalType": "uint256",
          "name": "_proofId",
          "type": "uint256"
        }
      ],
      "name": "getTeamProof",
      "outputs": [
        {
          "components": [
            {
              "internalType": "bytes32",
              "name": "teamId",
              "type": "bytes32"
            },
            {
              "internalType": "bytes32",
              "name": "merkleRoot",
              "type": "bytes32"
            },
            {
              "internalType": "bytes32[]",
              "name": "recordHashes",
              "type": "bytes32[]"
            },
            {
              "internalType": "uint8",
              "name": "memberCount",
              "type": "uint8"
            },
            {
              "internalType": "bool",
              "name": "allClean",
              "type": "bool"
            },
            {
              "internalType": "uint64",
              "name": "submittedAt",
              "type": "uint64"
            },
            {
              "internalType": "address",
              "name": "submitter",
              "type": "address"
            }
          ],
          "internalType": "struct TeamProofAggregator.TeamProof",
          "name": "",
          "type": "tuple"
        }
      ],
      "stateMutability": "view",
      "type": "function"
    },
    {
      "inputs": [
        {
          "internalType": "bytes32",
          "name": "_teamId",
          "type": "bytes32"
        }
      ],
      "name": "getTeamProofCount",
      "outputs": [
        {
          "internalType": "uint256",
          "name": "",
          "type": "uint256"
        }
      ],
      "stateMutability": "view",
      "type": "function"
    },
    {
      "inputs": [
        {
          "internalType": "bytes32",
          "name": "_teamId",
          "type": "bytes32"
        }
      ],
      "name": "getTeamProofIds",
      "outputs": [
        {
          "internalType": "uint256[]",
          "name": "",
          "type": "uint256[]"
        }
      ],
      "stateMutability": "view",
      "type": "function"
    },
    {
      "inputs": [],
      "name": "owner",
      "outputs": [
        {
          "internalType": "address",
          "name": "",
          "type": "address"
        }
      ],
      "stateMutability": "view",
      "type": "function"
    },
    {
      "inputs": [],
      "name": "poACVerifier",
      "outputs": [
        {
          "internalType": "contract PoACVerifier",
          "name": "",
          "type": "address"
        }
      ],
      "stateMutability": "view",
      "type": "function"
    },
    {
      "inputs": [],
      "name": "proofCount",
      "outputs": [
        {
          "internalType": "uint256",
          "name": "",
          "type": "uint256"
        }
      ],
      "stateMutability": "view",
      "type": "function"
    },
    {
      "inputs": [],
      "name": "renounceOwnership",
      "outputs": [],
      "stateMutability": "nonpayable",
      "type": "function"
    },
    {
      "inputs": [
        {
          "internalType": "address",
          "name": "_verifier",
          "type": "address"
        }
      ],
      "name": "setTeamProofVerifier",
      "outputs": [],
      "stateMutability": "nonpayable",
      "type": "function"
    },
    {
      "inputs": [
        {
          "internalType": "bytes32",
          "name": "_teamId",
          "type": "bytes32"
        },
        {
          "internalType": "bytes32[]",
          "name": "_recordHashes",
          "type": "bytes32[]"
        },
        {
          "internalType": "bytes32",
          "name": "_merkleRoot",
          "type": "bytes32"
        }
      ],
      "name": "submitTeamProof",
      "outputs": [
        {
          "internalType": "uint256",
          "name": "proofId",
          "type": "uint256"
        }
      ],
      "stateMutability": "nonpayable",
      "type": "function"
    },
    {
      "inputs": [
        {
          "internalType": "bytes32",
          "name": "_teamId",
          "type": "bytes32"
        },
        {
          "internalType": "bytes32[]",
          "name": "_recordHashes",
          "type": "bytes32[]"
        },
        {
          "internalType": "bytes32",
          "name": "_merkleRoot",
          "type": "bytes32"
        },
        {
          "internalType": "bytes32",
          "name": "_nullifierHash",
          "type": "bytes32"
        },
        {
          "internalType": "bytes",
          "name": "_zkProof",
          "type": "bytes"
        },
        {
          "internalType": "uint256",
          "name": "_poseidonMerkleRoot",
          "type": "uint256"
        },
        {
          "internalType": "uint256",
          "name": "_epoch",
          "type": "uint256"
        }
      ],
      "name": "submitTeamProofZK",
      "outputs": [
        {
          "internalType": "uint256",
          "name": "proofId",
          "type": "uint256"
        }
      ],
      "stateMutability": "nonpayable",
      "type": "function"
    },
    {
      "inputs": [
        {
          "internalType": "bytes32",
          "name": "_teamId",
          "type": "bytes32"
        },
        {
          "internalType": "bytes32[]",
          "name": "_recordHashes",
          "type": "bytes32[]"
        },
        {
          "internalType": "bytes32",
          "name": "_merkleRoot",
          "type": "bytes32"
        },
        {
          "internalType": "bytes32",
          "name": "_nullifierHash",
          "type": "bytes32"
        },
        {
          "internalType": "bytes",
          "name": "_zkProof",
          "type": "bytes"
        }
      ],
      "name": "submitTeamProofZK",
      "outputs": [
        {
          "internalType": "uint256",
          "name": "proofId",
          "type": "uint256"
        }
      ],
      "stateMutability": "nonpayable",
      "type": "function"
    },
    {
      "inputs": [
        {
          "internalType": "bytes32",
          "name": "",
          "type": "bytes32"
        }
      ],
      "name": "teamExists",
      "outputs": [
        {
          "internalType": "bool",
          "name": "",
          "type": "bool"
        }
      ],
      "stateMutability": "view",
      "type": "function"
    },
    {
      "inputs": [],
      "name": "teamProofVerifier",
      "outputs": [
        {
          "internalType": "address",
          "name": "",
          "type": "address"
        }
      ],
      "stateMutability": "view",
      "type": "function"
    },
    {
      "inputs": [
        {
          "internalType": "address",
          "name": "newOwner",
          "type": "address"
        }
      ],
      "name": "transferOwnership",
      "outputs": [],
      "stateMutability": "nonpayable",
      "type": "function"
    },
    {
      "inputs": [
        {
          "internalType": "bytes32",
          "name": "",
          "type": "bytes32"
        }
      ],
      "name": "usedNullifiers",
      "outputs": [
        {
          "internalType": "bool",
          "name": "",
          "type": "bool"
        }
      ],
      "stateMutability": "view",
      "type": "function"
    }
  ],
  "bytecode": "0x6080346100c657601f61172038819003918201601f19168301916001600160401b038311848410176100cb578084926020946040528339810103126100c657516001600160a01b0390818116908190036100c65733156100ad5760005460018060a01b0319903382821617600055604051933391167f8be0079c531659141344cd1fd0a4f28419497f9722a3daafe3b4186f6b6457e0600080a3600154161760015561163e90816100e28239f35b604051631e4fbdf760e01b815260006004820152602490fd5b600080fd5b634e487b7160e01b600052604160045260246000fdfe608060408181526004908136101561001657600080fd5b600092833560e01c908163023e41b9146109ff5750806312a9016e146109e2578063206137aa146109b55780632b8b906c1461097857806334a1d644146109115780633bd56175146107d157806344ea6c69146107a45780634bb34a7d1461070757806350072dd7146106bc578063604a090214610681578063638371ee146105e3578063715018a6146105865780638635ca06146105085780638ad6fcfb146104ec5780638da5cb5b146104c4578063addecc06146104a6578063c0d3f3851461047e578063c37a636b14610462578063c3a3953614610319578063d4b9c129146102fd578063de62201a146102e1578063ef4a949e146101e9578063f1cf7905146101bc5763f2fde38b1461012c57600080fd5b346101b85760203660031901126101b8576001600160a01b038235818116939192908490036101b45761015d610a86565b831561019e57505082546001600160a01b0319811683178455167f8be0079c531659141344cd1fd0a4f28419497f9722a3daafe3b4186f6b6457e08380a380f35b51631e4fbdf760e01b8152908101849052602490fd5b8480fd5b8280fd5b8382346101e557816003193601126101e55760015490516001600160a01b039091168152602090f35b5080fd5b508290346101e55760a03660031901126101e5576001600160401b039280356024358581116101b45761021f9036908401610a24565b9460443593606435976084359081116101b85761023f9036908301610a59565b90898452600760205260ff88852054166102ca579061025f91898b6111e6565b156102bc5750866102ab85887f5fde3eefb6947171e166b973c9376f8f26046d6be28db64b8819df9fda8ea80d95898660209d82985260078e5220600160ff1982541617905587610bd7565b96825191825288820152a351908152f35b85516303b2487b60e11b8152fd5b8751632920f74160e21b81528084018b9052602490fd5b8382346101e557816003193601126101e55760209051602a8152f35b8382346101e557816003193601126101e5576020905160068152f35b50346101b857806003193601126101b8578135906024356001600160401b0381116101b45761034b9036908501610a24565b93838652600360205260ff838720541661044b57600285108015610441575b61042a575082855260026020528185206001810180546001600160e81b0319163368ffffffffffffffffff60a01b1916174260a01b67ffffffffffffffff60a01b1617600160e01b179055855b8581106104075750505060ff9082855260036020528085206001831982541617905551921682527fd51f1ea8e0b03f99b94c0bdb936c2fc4683c160bf64b58e5fbc3ccbe4c20f9ca60203393a380f35b80610420610419610425938987610ad7565b3584610b15565b610ab2565b6103b7565b825163ef2e255d60e01b8152908101859052602490fd5b506006851161036a565b825163f7bd25cb60e01b8152908101849052602490fd5b8382346101e557816003193601126101e5576020905160288152f35b5090346101b85760203660031901126101b85760209282913581526006845220549051908152f35b5090346101b857826003193601126101b85760209250549051908152f35b8382346101e557816003193601126101e557905490516001600160a01b039091168152602090f35b8382346101e557816003193601126101e5576020905160028152f35b508290346101e55760e03660031901126101e5576001600160401b039280356024358581116101b45761053e9036908401610a24565b9460443593606435976084359081116101b85761055e9036908301610a59565b90898452600760205260ff88852054166102ca579061025f9160c4359160a435918b8d611405565b83346105e057806003193601126105e05761059f610a86565b80546001600160a01b03198116825581906001600160a01b03167f8be0079c531659141344cd1fd0a4f28419497f9722a3daafe3b4186f6b6457e08280a380f35b80fd5b5091346105e057602091826003193601126101e55792919235815260068352818120908251808584549182815201908194845286842090845b81811061066d5750505081610632910382610b9e565b83519485948186019282875251809352850193925b82811061065657505050500390f35b835185528695509381019392810192600101610647565b82548452928801926001928301920161061c565b8382346101e557816003193601126101e557602090517f22c53f333828936b9047d0d278f0624190302e02696fa9aa397835bd5b74bbd18152f35b5082346105e05760603660031901126105e057602435906001600160401b0382116105e057506020926106f56107009236908301610a24565b906044359235610bd7565b9051908152f35b509190346101e557602090816003193601126101b857919091358152600282528281209260019261073b8486015495611128565b92825194608086016080875285518091528360a088019601925b818110610791576001600160a01b0389168589015260a089901c6001600160401b03168689015260e089901c60ff161515606089015287870388f35b8351875295840195928401928201610755565b5090346101b85760203660031901126101b8578160209360ff923581526003855220541690519015158152f35b5091346105e057602091826003193601126101e5578160c085949395516107f781610b68565b82815282858201526060868201528260608201528260808201528260a082015201523583526005815281832082519261082f84610b68565b815484526001918281015494848101958652600361084f60028401611128565b92848301938452015493606082019760ff86168952608083019160ff8760081c161515835260a08401936001600160401b0395868960101c16865260c082019760018060a01b03809a60501c16895280519b8b8d528c8c6101008201955191015251908c0152519860e060608c01528951809252806101208c019a01935b8281106108fe57505050505060ff87985116608088015251151560a0870152511660c0850152511660e08301520390f35b84518b52998101999381019383016108cd565b5050346101e55760203660031901126101e557356001600160a01b038116908190036101e55761093f610a86565b600880546001600160a01b031916821790557fba20270f1db7d5ba92574e021388b3ed01069a5c039d928a0f6343c565e4059e8280a280f35b5082346105e05760203660031901126105e0578235906001600160401b0382116105e057506109af60209361070092369101610a24565b90610f30565b5090346101b85760203660031901126101b8578160209360ff923581526007855220541690519015158152f35b8382346101e557816003193601126101e557602090516101008152f35b8490346101e557816003193601126101e5576008546001600160a01b03168152602090f35b9181601f84011215610a54578235916001600160401b038311610a54576020808501948460051b010111610a5457565b600080fd5b9181601f84011215610a54578235916001600160401b038311610a545760208381860195010111610a5457565b6000546001600160a01b03163303610a9a57565b60405163118cdaa760e01b8152336004820152602490fd5b6000198114610ac15760010190565b634e487b7160e01b600052601160045260246000fd5b9190811015610ae75760051b0190565b634e487b7160e01b600052603260045260246000fd5b8054821015610ae75760005260206000200190600090565b805490600160401b821015610b525781610b37916001610b4e94018155610afd565b819391549060031b91821b91600019901b19161790565b9055565b634e487b7160e01b600052604160045260246000fd5b60e081019081106001600160401b03821117610b5257604052565b604081019081106001600160401b03821117610b5257604052565b90601f801991011681019081106001600160401b03821117610b5257604052565b90816020910312610a5457518015158103610a545790565b90939260008281526020936003855260ff9460409286848220541615610eed578581526002825283812087600182015460e01c1615610ed55754808403610eb857506001546001600160a01b0316815b848110610d7d575050610c3a838a610f30565b858103610d6057506004549698610c5088610ab2565b600455878252600583528482208781556001810187905560038101805462010000600160f01b031961ffff19919091169c87169c8d1761010017164260101b69ffffffffffffffff000016173360501b600160501b600160f01b031617905597998a989094600290910190835b818110610d42575050505085815260068252838120805491600160401b831015610d2e57509260019288610d1e610b37857f6faf02f204baeaaf295439e5483b112c706763054453bed74b5d8647e82ca55b9a988860609b98018155610afd565b90558251948552840152820152a3565b634e487b7160e01b81526041600452602490fd5b80610420610d54610d5b938588610ad7565b3585610b15565b610cbd565b604490868651916327c4ed9760e21b835260048301526024820152fd5b610d8881868d610ad7565b865163488dbfad60e01b8152903560048083018290529160249087818381895afa908115610e6d578791610e8b575b5015610e7757885163cd68a83160e01b815283810183905287818381895afa908115610e6d57908d918891610e2f575b501691602883101580610e24575b610e0b5750505050610e0690610ab2565b610c27565b895163379a771360e21b81529384015282015260449150fd5b50602a831115610df5565b809250898092503d8311610e66575b610e488183610b9e565b81010312610e6257518c81168103610e62578c9038610de7565b8680fd5b503d610e3e565b8a513d89823e3d90fd5b9250875191632047f23560e21b8352820152fd5b610eab9150883d8a11610eb1575b610ea38183610b9e565b810190610bbf565b38610db7565b503d610e99565b60449084865191634c1eb76960e11b835260048301526024820152fd5b845163b79eacfb60e01b815260048101889052602490fd5b8351630760a05360e31b815260048101879052602490fd5b6001600160401b038111610b525760051b60200190565b8051821015610ae75760209160051b010190565b908060019182811461111c57610f4581610f05565b92604092610f5584519586610b9e565b828552610f6183610f05565b9560209384870197601f190136893760005b8181106110fd5750505081805b611055575b505b818111610f9c57505050505115610ae7575190565b818101808211610ac157821c9060005b828110610fba575050610f87565b80841b9080820460021481151715610ac15784820191828111610ac1578383101561103b57610fec610ff4918a610f1c565b519289610f1c565b51918751928784019182528884015287835260608301928084106001600160401b03851117610b5257611036938952519020611030828a610f1c565b52610ab2565b610fac565b611036925061104a9089610f1c565b51611030828a610f1c565b85518110156110f857828161106b829389610f1c565b5181935b611088575b61103061108293948a610f1c565b90610f80565b9150918015858115806110d7575b156110cc5750600019820191808311610ac1576110be6110b6848c610f1c565b51918b610f1c565b52610ac1579184918261106f565b929050929092611074565b50506000198201828111610ac157836110f188928c610f1c565b5111611096565b610f85565b8061110c611117928486610ad7565b35611030828b610f1c565b610f73565b91505015610ae7573590565b9060405191828154918282526020928383019160005283600020936000905b82821061115f5750505061115d92500383610b9e565b565b855484526001958601958895509381019390910190611147565b9080601f83011215610a54576040519161119283610b83565b829060408101928311610a5457905b8282106111ae5750505090565b81518152602091820191016111a1565b6000915b600283106111cf57505050565b6001908251815260208091019201920191906111c2565b60085490939192906001600160a01b0316801580156113fd575b6113f1576101008084036113e6576001600160401b03808511610b525760409687519660209661123988601f19601f840116018a610b9e565b808952878901903681890111610a5457808998833760009788918b010152885189019489898701960312610e62578461127191611179565b9380607f8a011215610e62578951986112898a610b83565b8960e08201918383116113e2578a60608e9201925b8484106113ca5750505050906112b391611179565b918951936080850190858210908211176113b6578a528684528388015288830152606082018590528751635fe8c13b60e01b8152968694889490936004939092909161130290858801906111be565b878b604488015b6002831061138c57505050506113239060c48601906111be565b859061010485015b838310611372575050505081610184915afa93841561136857509261134f57505090565b6113659250803d10610eb157610ea38183610b9e565b90565b51903d90823e3d90fd5b8151815288968a965060019390930192918201910161132b565b8395979992949698506113a281600195516111be565b019301910190899593918b8a989694611309565b634e487b7160e01b88526041600452602488fd5b6113d48685611179565b8152019101908a8d9161129e565b8980fd5b505050505050600090565b50506101001492915050565b506001611200565b9394909460018060a01b03600854169182158015611600575b6115f157610100918286036115e4576001600160401b0391828711610b52576040988951986020986114598a601f19601f840116018c610b9e565b808b52898b019036818b0111610a5457808b9a83376000998a918d0101528a518b01968b8b89019803126115e0578661149191611179565b9580607f8c0112156115e0578b519a6114a98c610b83565b8b60e08201918383116115dc578c8f91606001925b8484106115c45750505050906114d391611179565b938b51956080870190878210908211176115b0578c528552848901528984015260608301528751635fe8c13b60e01b8152968694889490936004939092909161151f90858801906111be565b878b604488015b6002831061158657505050506115409060c48601906111be565b859061010485015b83831061156c575050505081610184915afa93841561136857509261134f57505090565b8151815288968a9650600193909301929182019101611548565b83959799929496985061159c81600195516111be565b019301910190899593918b8a989694611526565b634e487b7160e01b8a52604160045260248afd5b6115ce8685611179565b8152019101908c8f916114be565b8b80fd5b8880fd5b5050505050505050600090565b50505050905061010091501490565b50811561141e56fea26469706673582212202249aea5abd80ba24a78c6224ffdb2fabf5d65975ee94b1c8bbd8f5e6cf4bfae64736f6c63430008140033",
  "linkReferences": {},
  "deployedLinkReferences": {}
}