{
  "_format": "hh-sol-artifact-1",
  "contractName": "PITLSessionRegistry",
  "sourceName": "contracts/PITLSessionRegistry.sol",
  "abi": [
    {
      "inputs": [
        {
          "internalType": "address",
          "name": "_bridge",
          "type": "address"
        }
      ],
      "stateMutability": "nonpayable",
      "type": "constructor"
    },
    {
      "inputs": [
        {
          "internalType": "uint256",
          "name": "value",
          "type": "uint256"
        }
      ],
      "name": "HumanityProbOutOfRange",
      "type": "error"
    },
    {
      "inputs": [
        {
          "internalType": "bytes32",
          "name": "nullifier",
          "type": "bytes32"
        }
      ],
      "name": "NullifierUsed",
      "type": "error"
    },
    {
      "inputs": [],
      "name": "OnlyBridge",
      "type": "error"
    },
    {
      "inputs": [],
      "name": "ProofVerificationFailed",
      "type": "error"
    },
    {
      "anonymous": false,
      "inputs": [
        {
          "indexed": true,
          "internalType": "bytes32",
          "name": "deviceId",
          "type": "bytes32"
        },
        {
          "indexed": false,
          "internalType": "uint256",
          "name": "humanityProbInt",
          "type": "uint256"
        },
        {
          "indexed": false,
          "internalType": "uint256",
          "name": "featureCommitment",
          "type": "uint256"
        },
        {
          "indexed": true,
          "internalType": "uint256",
          "name": "epoch",
          "type": "uint256"
        }
      ],
      "name": "PITLSessionProofSubmitted",
      "type": "event"
    },
    {
      "anonymous": false,
      "inputs": [
        {
          "indexed": true,
          "internalType": "address",
          "name": "verifier",
          "type": "address"
        }
      ],
      "name": "PITLVerifierSet",
      "type": "event"
    },
    {
      "inputs": [],
      "name": "bridge",
      "outputs": [
        {
          "internalType": "address",
          "name": "",
          "type": "address"
        }
      ],
      "stateMutability": "view",
      "type": "function"
    },
    {
      "inputs": [
        {
          "internalType": "bytes32",
          "name": "",
          "type": "bytes32"
        }
      ],
      "name": "latestHumanityProb",
      "outputs": [
        {
          "internalType": "uint256",
          "name": "",
          "type": "uint256"
        }
      ],
      "stateMutability": "view",
      "type": "function"
    },
    {
      "inputs": [],
      "name": "pitlVerifier",
      "outputs": [
        {
          "internalType": "address",
          "name": "",
          "type": "address"
        }
      ],
      "stateMutability": "view",
      "type": "function"
    },
    {
      "inputs": [
        {
          "internalType": "bytes32",
          "name": "",
          "type": "bytes32"
        }
      ],
      "name": "sessionCount",
      "outputs": [
        {
          "internalType": "uint256",
          "name": "",
          "type": "uint256"
        }
      ],
      "stateMutability": "view",
      "type": "function"
    },
    {
      "inputs": [
        {
          "internalType": "address",
          "name": "_verifier",
          "type": "address"
        }
      ],
      "name": "setPITLVerifier",
      "outputs": [],
      "stateMutability": "nonpayable",
      "type": "function"
    },
    {
      "inputs": [
        {
          "internalType": "bytes32",
          "name": "deviceId",
          "type": "bytes32"
        },
        {
          "internalType": "bytes",
          "name": "proof",
          "type": "bytes"
        },
        {
          "internalType": "uint256",
          "name": "featureCommitment",
          "type": "uint256"
        },
        {
          "internalType": "uint256",
          "name": "humanityProbInt",
          "type": "uint256"
        },
        {
          "internalType": "uint256",
          "name": "nullifierHash",
          "type": "uint256"
        },
        {
          "internalType": "uint256",
          "name": "epoch",
          "type": "uint256"
        }
      ],
      "name": "submitPITLProof",
      "outputs": [],
      "stateMutability": "nonpayable",
      "type": "function"
    },
    {
      "inputs": [
        {
          "internalType": "bytes32",
          "name": "",
          "type": "bytes32"
        }
      ],
      "name": "usedNullifiers",
      "outputs": [
        {
          "internalType": "bool",
          "name": "",
          "type": "bool"
        }
      ],
      "stateMutability": "view",
      "type": "function"
    }
  ],
  "bytecode": "0x60a03461007757601f61076d38819003918201601f19168301916001600160401b0383118484101761007c5780849260209460405283398101031261007757516001600160a01b0381168103610077576080526040516106da9081610093823960805181818160820152818161010901526102730152f35b600080fd5b634e487b7160e01b600052604160045260246000fdfe608080604052600436101561001357600080fd5b60003560e01c908163206137aa146105ee5750806355d39a91146102165780635cf28b09146101ea578063a701424e146101be578063b797617c146100df578063b866cc83146100b65763e78cea921461006c57600080fd5b346100b15760003660031901126100b1576040517f00000000000000000000000000000000000000000000000000000000000000006001600160a01b03168152602090f35b600080fd5b346100b15760003660031901126100b1576000546040516001600160a01b039091168152602090f35b346100b15760203660031901126100b1576004356001600160a01b03818116918290036100b157807f00000000000000000000000000000000000000000000000000000000000000001633036101ac57600054908116610170576001600160a01b031916811760009081557f192fd780c603a71fb9bd58d56e97cdfbc59547fd310e1db0fba0ee3b461cf7a69080a2005b60405162461bcd60e51b81526020600482015260146024820152731d995c9a599a595c88185b1c9958591e481cd95d60621b6044820152606490fd5b6040516338da3b1560e01b8152600490fd5b346100b15760203660031901126100b15760043560005260026020526020604060002054604051908152f35b346100b15760203660031901126100b15760043560005260036020526020604060002054604051908152f35b346100b15760c03660031901126100b15760243567ffffffffffffffff81116100b157366023820112156100b157806004013567ffffffffffffffff81116100b1578082019060248201923684116100b1576001600160a01b03917f0000000000000000000000000000000000000000000000000000000000000000831633036101ac576103e8606435116105d4576084359283600052600160205260ff604060002054166105bb578360005260016020526040600020600160ff1982541617905561010080920361057f57600054169384610372575b505050505050600435806000526002602052606435604060002055600360205260406000208054906001820180921161035c575560405190606435825260443560208301527fdc6a30bfb3bd7d7332aee810ef955e814aef54d22e1fc52f65fee063dccfad82604060a43593a3005b634e487b7160e01b600052601160045260246000fd5b829003126100b1576103878460248301610637565b93806083830112156100b157604051916103a08361061b565b8260e48201918383116100b157606401905b828210610565575050906103c591610637565b926040519260a0840184811067ffffffffffffffff8211176105225760409493945260a03684376044358352606435602084015260006040840152606083015260a4356080830152610428604051956334baeab960e01b8752600487019061067c565b60009291604486015b6002851015610475578351600090825b6002831061045f575050506020604060019201940194019392610431565b6020806001928451815201920192019190610441565b5091509284925061048a9060c484019061067c565b600061010483015b6005821061054b575050506101a4816020935afa90811561053f576000916104d8575b50156104c6578080808080806102ed565b604051631ac2386360e31b8152600490fd5b905060203d602011610538575b601f8101601f1916820167ffffffffffffffff811183821017610522576020918391604052810103126100b1575180151581036100b157816104b5565b634e487b7160e01b600052604160045260246000fd5b503d6104e5565b6040513d6000823e3d90fd5b829350602080916001939451815201930191018492610492565b60206040916105748685610637565b8152019101906103b2565b60405162461bcd60e51b81526020600482015260146024820152730d2dcecc2d8d2c840e0e4dedecc40d8cadccee8d60631b6044820152606490fd5b6040516312ab05ef60e21b815260048101859052602490fd5b604051633524aadb60e01b81526064356004820152602490fd5b346100b15760203660031901126100b1576020906004356000526001825260ff6040600020541615158152f35b6040810190811067ffffffffffffffff82111761052257604052565b9080601f830112156100b157604051916106508361061b565b8290604081019283116100b157905b82821061066c5750505090565b813581526020918201910161065f565b6000915b6002831061068d57505050565b60019082518152602080910192019201919061068056fea2646970667358221220d2da392e7f9072e180f2651f8b9eecc2496d6844c50b46d111fd2b5b2609e26b64736f6c63430008140033",
  "linkReferences": {},
  "deployedLinkReferences": {}
}