{
  "_format": "hh-sol-artifact-1",
  "contractName": "PHGRegistry",
  "sourceName": "contracts/PHGRegistry.sol",
  "abi": [
    {
      "inputs": [
        {
          "internalType": "address",
          "name": "_bridge",
          "type": "address"
        }
      ],
      "stateMutability": "nonpayable",
      "type": "constructor"
    },
    {
      "inputs": [],
      "name": "IdentityRegistryAlreadySet",
      "type": "error"
    },
    {
      "inputs": [],
      "name": "NotIdentityRegistry",
      "type": "error"
    },
    {
      "inputs": [],
      "name": "OnlyBridge",
      "type": "error"
    },
    {
      "anonymous": false,
      "inputs": [
        {
          "indexed": true,
          "internalType": "bytes32",
          "name": "deviceId",
          "type": "bytes32"
        },
        {
          "indexed": false,
          "internalType": "uint256",
          "name": "cumulativeScore",
          "type": "uint256"
        },
        {
          "indexed": false,
          "internalType": "uint32",
          "name": "recordCount",
          "type": "uint32"
        },
        {
          "indexed": false,
          "internalType": "bytes32",
          "name": "biometricHash",
          "type": "bytes32"
        },
        {
          "indexed": false,
          "internalType": "bytes32",
          "name": "prevCheckpointHash",
          "type": "bytes32"
        },
        {
          "indexed": false,
          "internalType": "uint256",
          "name": "blockNumber",
          "type": "uint256"
        }
      ],
      "name": "PHGCheckpointCommitted",
      "type": "event"
    },
    {
      "inputs": [],
      "name": "bridge",
      "outputs": [
        {
          "internalType": "address",
          "name": "",
          "type": "address"
        }
      ],
      "stateMutability": "view",
      "type": "function"
    },
    {
      "inputs": [
        {
          "internalType": "bytes32",
          "name": "",
          "type": "bytes32"
        }
      ],
      "name": "checkpointHead",
      "outputs": [
        {
          "internalType": "bytes32",
          "name": "",
          "type": "bytes32"
        }
      ],
      "stateMutability": "view",
      "type": "function"
    },
    {
      "inputs": [
        {
          "internalType": "bytes32",
          "name": "deviceId",
          "type": "bytes32"
        },
        {
          "internalType": "uint256",
          "name": "scoreDelta",
          "type": "uint256"
        },
        {
          "internalType": "uint32",
          "name": "count",
          "type": "uint32"
        },
        {
          "internalType": "bytes32",
          "name": "biometricHash",
          "type": "bytes32"
        }
      ],
      "name": "commitCheckpoint",
      "outputs": [],
      "stateMutability": "nonpayable",
      "type": "function"
    },
    {
      "inputs": [
        {
          "internalType": "bytes32",
          "name": "",
          "type": "bytes32"
        }
      ],
      "name": "cumulativeScore",
      "outputs": [
        {
          "internalType": "uint256",
          "name": "",
          "type": "uint256"
        }
      ],
      "stateMutability": "view",
      "type": "function"
    },
    {
      "inputs": [
        {
          "internalType": "bytes32",
          "name": "deviceId",
          "type": "bytes32"
        }
      ],
      "name": "getDeviceState",
      "outputs": [
        {
          "internalType": "uint256",
          "name": "score",
          "type": "uint256"
        },
        {
          "internalType": "uint32",
          "name": "count",
          "type": "uint32"
        },
        {
          "internalType": "bytes32",
          "name": "head",
          "type": "bytes32"
        }
      ],
      "stateMutability": "view",
      "type": "function"
    },
    {
      "inputs": [
        {
          "internalType": "bytes32",
          "name": "deviceId",
          "type": "bytes32"
        },
        {
          "internalType": "uint256",
          "name": "windowSize",
          "type": "uint256"
        }
      ],
      "name": "getRecentVelocity",
      "outputs": [
        {
          "internalType": "uint256",
          "name": "velocity",
          "type": "uint256"
        }
      ],
      "stateMutability": "view",
      "type": "function"
    },
    {
      "inputs": [],
      "name": "identityRegistry",
      "outputs": [
        {
          "internalType": "address",
          "name": "",
          "type": "address"
        }
      ],
      "stateMutability": "view",
      "type": "function"
    },
    {
      "inputs": [
        {
          "internalType": "bytes32",
          "name": "fromId",
          "type": "bytes32"
        },
        {
          "internalType": "bytes32",
          "name": "toId",
          "type": "bytes32"
        }
      ],
      "name": "inheritScore",
      "outputs": [],
      "stateMutability": "nonpayable",
      "type": "function"
    },
    {
      "inputs": [
        {
          "internalType": "bytes32",
          "name": "deviceId",
          "type": "bytes32"
        },
        {
          "internalType": "uint256",
          "name": "minScore",
          "type": "uint256"
        }
      ],
      "name": "isEligible",
      "outputs": [
        {
          "internalType": "bool",
          "name": "",
          "type": "bool"
        }
      ],
      "stateMutability": "view",
      "type": "function"
    },
    {
      "inputs": [
        {
          "internalType": "bytes32",
          "name": "",
          "type": "bytes32"
        }
      ],
      "name": "prevCheckpointAt",
      "outputs": [
        {
          "internalType": "bytes32",
          "name": "",
          "type": "bytes32"
        }
      ],
      "stateMutability": "view",
      "type": "function"
    },
    {
      "inputs": [
        {
          "internalType": "bytes32",
          "name": "",
          "type": "bytes32"
        }
      ],
      "name": "recordCount",
      "outputs": [
        {
          "internalType": "uint32",
          "name": "",
          "type": "uint32"
        }
      ],
      "stateMutability": "view",
      "type": "function"
    },
    {
      "inputs": [
        {
          "internalType": "bytes32",
          "name": "",
          "type": "bytes32"
        }
      ],
      "name": "scoreDeltaAt",
      "outputs": [
        {
          "internalType": "uint256",
          "name": "",
          "type": "uint256"
        }
      ],
      "stateMutability": "view",
      "type": "function"
    },
    {
      "inputs": [
        {
          "internalType": "address",
          "name": "reg",
          "type": "address"
        }
      ],
      "name": "setIdentityRegistry",
      "outputs": [],
      "stateMutability": "nonpayable",
      "type": "function"
    }
  ],
  "bytecode": "0x60a0346100ba57601f61079538819003918201601f19168301916001600160401b038311848410176100bf578084926020946040528339810103126100ba57516001600160a01b0381168082036100ba5715610076576080526040516106bf90816100d6823960805181818160e2015261026e0152f35b606460405162461bcd60e51b815260206004820152602060248201527f50484752656769737472793a207a65726f2062726964676520616464726573736044820152fd5b600080fd5b634e487b7160e01b600052604160045260246000fdfe60806040908082526004918236101561001757600080fd5b600091823560e01c908163018cc9301461060957508063134e18f4146105e25780632094950a1461053f5780634af6136a146104f3578063508a764d146104cb5780636b28c1171461049d57806373e07669146103c2578063871347b11461039a578063b69a7a4614610373578063cbf3f861146102c3578063d2570b941461029d578063e78cea921461025a5763edfd629e146100b457600080fd5b346102565760803660031901126102565782359060243560443563ffffffff808216820361025257606435907f00000000000000000000000000000000000000000000000000000000000000006001600160a01b03163303610242578587526020906002825285882054936001835286892061013187825461064e565b905587895260038352868920908261014d835492828416610671565b169063ffffffff1916179055868852600182528588205495600383528089205495815196848801988a8a528389015263ffffffff60e01b9060e01b1660608801528460648801526064875260a087019787891067ffffffffffffffff8a111761022f5788835287519020898b5260028552828b208190558a528a8452818a205560058352808920859055878952600183528089205460039093528820549186521660c084015260e083015261010082015243610120909101527f9711acd4ea78bff7ddbbb9c8116ef494af1e0504dd72111c56ef89cdbfd4f5e99060a090a280f35b634e487b7160e01b8b5260418c5260248bfd5b84516338da3b1560e01b81528890fd5b8580fd5b5080fd5b5034610256578160031936011261025657517f00000000000000000000000000000000000000000000000000000000000000006001600160a01b03168152602090f35b503461025657602091816102b036610633565b9290815260018552205410159051908152f35b5082903461036f57602036600319011261036f576001600160a01b0382358181169391929084900361036b57845492831661035e5783156103105750506001600160a01b03191617815580f35b906020608492519162461bcd60e51b8352820152602260248201527f50484752656769737472793a207a65726f207265676973747279206164647265604482015261737360f01b6064820152fd5b516345214f6360e11b8152fd5b8480fd5b8280fd5b50823461036f57602036600319011261036f57602092818392358252845220549051908152f35b50823461036f57602036600319011261036f5760209282913581526002845220549051908152f35b50346102565780600319360112610256578154833590602435906001600160a01b0316330361048d578394508184526002602060018152848620546003825263ffffffff9081878920541690600184528888812055600384528789209063ffffffff1991828154169055868a5260018552610441898b2091825461064e565b9055858952600384528789209261045c845493828516610671565b169116179055828652528284205415610479575b50825281205580f35b818452828420549084528284205538610470565b8251630e99e05560e31b81528590fd5b50823461036f57602036600319011261036f578160209363ffffffff92358152600385522054169051908152f35b50823461036f57602036600319011261036f5760209282913581526005845220549051908152f35b50823461036f57602036600319011261036f57916060923581526001602052818120549160036020528063ffffffff818420541692600260205220549181519384526020840152820152f35b5091346102565761054f36610633565b9390839084526020906002825282852054908596600881106000146105d7579691905b811515806105ce575b156105c557818752858452848720546105939161064e565b90865260058352838620549160001981146105b2576001019190610572565b634e487b7160e01b875260118652602487fd5b83908551908152f35b5087831061057b565b506008969190610572565b5034610256578160031936011261025657905490516001600160a01b039091168152602090f35b929390503461062f57602036600319011261062f57926020933581526001845220548152f35b8380fd5b6040906003190112610649576004359060243590565b600080fd5b9190820180921161065b57565b634e487b7160e01b600052601160045260246000fd5b91909163ffffffff8080941691160191821161065b5756fea2646970667358221220065359700c363195a84a8bc26325192ac8ce525ab090237ce43f8631953f696664736f6c63430008140033",
  "linkReferences": {},
  "deployedLinkReferences": {}
}