{
  "_format": "hh-sol-artifact-1",
  "contractName": "TournamentGate",
  "sourceName": "contracts/TournamentGate.sol",
  "abi": [
    {
      "inputs": [
        {
          "internalType": "address",
          "name": "_phgRegistry",
          "type": "address"
        },
        {
          "internalType": "uint256",
          "name": "_minPHGScore",
          "type": "uint256"
        }
      ],
      "stateMutability": "nonpayable",
      "type": "constructor"
    },
    {
      "inputs": [
        {
          "internalType": "bytes32",
          "name": "deviceId",
          "type": "bytes32"
        },
        {
          "internalType": "uint256",
          "name": "have",
          "type": "uint256"
        },
        {
          "internalType": "uint256",
          "name": "need",
          "type": "uint256"
        }
      ],
      "name": "InsufficientHumanityScore",
      "type": "error"
    },
    {
      "inputs": [
        {
          "internalType": "bytes32",
          "name": "deviceId",
          "type": "bytes32"
        }
      ],
      "name": "assertEligible",
      "outputs": [],
      "stateMutability": "view",
      "type": "function"
    },
    {
      "inputs": [
        {
          "internalType": "bytes32",
          "name": "deviceId",
          "type": "bytes32"
        }
      ],
      "name": "isEligible",
      "outputs": [
        {
          "internalType": "bool",
          "name": "",
          "type": "bool"
        }
      ],
      "stateMutability": "view",
      "type": "function"
    },
    {
      "inputs": [],
      "name": "minPHGScore",
      "outputs": [
        {
          "internalType": "uint256",
          "name": "",
          "type": "uint256"
        }
      ],
      "stateMutability": "view",
      "type": "function"
    },
    {
      "inputs": [],
      "name": "phgRegistry",
      "outputs": [
        {
          "internalType": "contract PHGRegistry",
          "name": "",
          "type": "address"
        }
      ],
      "stateMutability": "view",
      "type": "function"
    }
  ],
  "bytecode": "0x60c0346100f057601f61042938819003918201601f19168301916001600160401b038311848410176100f55780849260409485528339810103126100f05780516001600160a01b03811691908290036100f0576020015190801561009d5760805260a05260405161031d908161010c823960805181818160e6015281816101a60152610280015260a05181818160670152818160bb01526101e10152f35b60405162461bcd60e51b815260206004820152602560248201527f546f75726e616d656e74476174653a207a65726f207265676973747279206164604482015264647265737360d81b6064820152608490fd5b600080fd5b634e487b7160e01b600052604160045260246000fdfe608060408181526004918236101561001657600080fd5b600092833560e01c918263245cc4e71461026c575081632e82fb78146101775781633c74e0d91461008e575063a58043b51461005157600080fd5b3461008a578160031936011261008a57602090517f00000000000000000000000000000000000000000000000000000000000000008152f35b5080fd5b91905034610173576020928360031936011261015d578151633495c2e560e21b81528335938101939093527f0000000000000000000000000000000000000000000000000000000000000000602484015283836044817f00000000000000000000000000000000000000000000000000000000000000006001600160a01b03165afa928315610167578193610128575b5050519015158152f35b909192508381813d8311610160575b61014181836102af565b8101031261008a575190811515820361015d575090388061011e565b80fd5b503d610137565b509051903d90823e3d90fd5b8280fd5b919050346101735760203660031901126101735780516218cc9360e41b815282358184018190526020826024817f00000000000000000000000000000000000000000000000000000000000000006001600160a01b03165afa91821561026257859261022b575b507f00000000000000000000000000000000000000000000000000000000000000009283831061020c578580f35b51631750e4e960e21b8152938401526024830152604482015260649150fd5b9091506020813d821161025a575b81610246602093836102af565b81010312610256575190386101de565b8480fd5b3d9150610239565b83513d87823e3d90fd5b84903461008a578160031936011261008a577f00000000000000000000000000000000000000000000000000000000000000006001600160a01b03168152602090f35b90601f8019910116810190811067ffffffffffffffff8211176102d157604052565b634e487b7160e01b600052604160045260246000fdfea26469706673582212207832314329c9b5c762965b3e85ae9cb55a7599d1e4500bf03b8384d9afe81a6564736f6c63430008140033",
  "linkReferences": {},
  "deployedLinkReferences": {}
}