{
  "_format": "hh-sol-artifact-1",
  "contractName": "ProgressAttestation",
  "sourceName": "contracts/ProgressAttestation.sol",
  "abi": [
    {
      "inputs": [
        {
          "internalType": "address",
          "name": "_poACVerifier",
          "type": "address"
        }
      ],
      "stateMutability": "nonpayable",
      "type": "constructor"
    },
    {
      "inputs": [
        {
          "internalType": "bytes32",
          "name": "recordHash",
          "type": "bytes32"
        }
      ],
      "name": "BaselineNotVerified",
      "type": "error"
    },
    {
      "inputs": [
        {
          "internalType": "bytes32",
          "name": "recordHash",
          "type": "bytes32"
        }
      ],
      "name": "CurrentNotVerified",
      "type": "error"
    },
    {
      "inputs": [
        {
          "internalType": "uint8",
          "name": "baselineSchema",
          "type": "uint8"
        },
        {
          "internalType": "uint8",
          "name": "currentSchema",
          "type": "uint8"
        }
      ],
      "name": "IncompatibleSchema",
      "type": "error"
    },
    {
      "inputs": [
        {
          "internalType": "address",
          "name": "owner",
          "type": "address"
        }
      ],
      "name": "OwnableInvalidOwner",
      "type": "error"
    },
    {
      "inputs": [
        {
          "internalType": "address",
          "name": "account",
          "type": "address"
        }
      ],
      "name": "OwnableUnauthorizedAccount",
      "type": "error"
    },
    {
      "inputs": [
        {
          "internalType": "bytes32",
          "name": "baselineHash",
          "type": "bytes32"
        },
        {
          "internalType": "bytes32",
          "name": "currentHash",
          "type": "bytes32"
        }
      ],
      "name": "PairAlreadyAttested",
      "type": "error"
    },
    {
      "inputs": [],
      "name": "SameRecord",
      "type": "error"
    },
    {
      "inputs": [],
      "name": "ZeroImprovement",
      "type": "error"
    },
    {
      "anonymous": false,
      "inputs": [
        {
          "indexed": true,
          "internalType": "address",
          "name": "previousOwner",
          "type": "address"
        },
        {
          "indexed": true,
          "internalType": "address",
          "name": "newOwner",
          "type": "address"
        }
      ],
      "name": "OwnershipTransferred",
      "type": "event"
    },
    {
      "anonymous": false,
      "inputs": [
        {
          "indexed": true,
          "internalType": "bytes32",
          "name": "deviceId",
          "type": "bytes32"
        },
        {
          "indexed": true,
          "internalType": "uint256",
          "name": "attestationId",
          "type": "uint256"
        },
        {
          "indexed": false,
          "internalType": "enum ProgressAttestation.MetricType",
          "name": "metricType",
          "type": "uint8"
        },
        {
          "indexed": false,
          "internalType": "uint32",
          "name": "improvementBps",
          "type": "uint32"
        },
        {
          "indexed": false,
          "internalType": "address",
          "name": "attestor",
          "type": "address"
        }
      ],
      "name": "ProgressAttested",
      "type": "event"
    },
    {
      "inputs": [
        {
          "internalType": "bytes32",
          "name": "_deviceId",
          "type": "bytes32"
        },
        {
          "internalType": "bytes32",
          "name": "_baselineHash",
          "type": "bytes32"
        },
        {
          "internalType": "bytes32",
          "name": "_currentHash",
          "type": "bytes32"
        },
        {
          "internalType": "enum ProgressAttestation.MetricType",
          "name": "_metricType",
          "type": "uint8"
        },
        {
          "internalType": "uint32",
          "name": "_improvementBps",
          "type": "uint32"
        }
      ],
      "name": "attestProgress",
      "outputs": [
        {
          "internalType": "uint256",
          "name": "attestationId",
          "type": "uint256"
        }
      ],
      "stateMutability": "nonpayable",
      "type": "function"
    },
    {
      "inputs": [],
      "name": "attestationCount",
      "outputs": [
        {
          "internalType": "uint256",
          "name": "",
          "type": "uint256"
        }
      ],
      "stateMutability": "view",
      "type": "function"
    },
    {
      "inputs": [
        {
          "internalType": "uint256",
          "name": "_id",
          "type": "uint256"
        }
      ],
      "name": "getAttestation",
      "outputs": [
        {
          "components": [
            {
              "internalType": "bytes32",
              "name": "deviceId",
              "type": "bytes32"
            },
            {
              "internalType": "bytes32",
              "name": "baselineRecordHash",
              "type": "bytes32"
            },
            {
              "internalType": "bytes32",
              "name": "currentRecordHash",
              "type": "bytes32"
            },
            {
              "internalType": "enum ProgressAttestation.MetricType",
              "name": "metricType",
              "type": "uint8"
            },
            {
              "internalType": "uint32",
              "name": "improvementBps",
              "type": "uint32"
            },
            {
              "internalType": "uint64",
              "name": "attestedAt",
              "type": "uint64"
            },
            {
              "internalType": "address",
              "name": "attestor",
              "type": "address"
            }
          ],
          "internalType": "struct ProgressAttestation.ProgressRecord",
          "name": "",
          "type": "tuple"
        }
      ],
      "stateMutability": "view",
      "type": "function"
    },
    {
      "inputs": [
        {
          "internalType": "bytes32",
          "name": "_deviceId",
          "type": "bytes32"
        }
      ],
      "name": "getDeviceAttestationCount",
      "outputs": [
        {
          "internalType": "uint256",
          "name": "",
          "type": "uint256"
        }
      ],
      "stateMutability": "view",
      "type": "function"
    },
    {
      "inputs": [
        {
          "internalType": "bytes32",
          "name": "_deviceId",
          "type": "bytes32"
        }
      ],
      "name": "getDeviceAttestationIds",
      "outputs": [
        {
          "internalType": "uint256[]",
          "name": "",
          "type": "uint256[]"
        }
      ],
      "stateMutability": "view",
      "type": "function"
    },
    {
      "inputs": [
        {
          "internalType": "bytes32",
          "name": "_deviceId",
          "type": "bytes32"
        }
      ],
      "name": "getProgressHistory",
      "outputs": [
        {
          "components": [
            {
              "internalType": "bytes32",
              "name": "deviceId",
              "type": "bytes32"
            },
            {
              "internalType": "bytes32",
              "name": "baselineRecordHash",
              "type": "bytes32"
            },
            {
              "internalType": "bytes32",
              "name": "currentRecordHash",
              "type": "bytes32"
            },
            {
              "internalType": "enum ProgressAttestation.MetricType",
              "name": "metricType",
              "type": "uint8"
            },
            {
              "internalType": "uint32",
              "name": "improvementBps",
              "type": "uint32"
            },
            {
              "internalType": "uint64",
              "name": "attestedAt",
              "type": "uint64"
            },
            {
              "internalType": "address",
              "name": "attestor",
              "type": "address"
            }
          ],
          "internalType": "struct ProgressAttestation.ProgressRecord[]",
          "name": "",
          "type": "tuple[]"
        }
      ],
      "stateMutability": "view",
      "type": "function"
    },
    {
      "inputs": [],
      "name": "owner",
      "outputs": [
        {
          "internalType": "address",
          "name": "",
          "type": "address"
        }
      ],
      "stateMutability": "view",
      "type": "function"
    },
    {
      "inputs": [],
      "name": "poACVerifier",
      "outputs": [
        {
          "internalType": "contract PoACVerifier",
          "name": "",
          "type": "address"
        }
      ],
      "stateMutability": "view",
      "type": "function"
    },
    {
      "inputs": [],
      "name": "renounceOwnership",
      "outputs": [],
      "stateMutability": "nonpayable",
      "type": "function"
    },
    {
      "inputs": [
        {
          "internalType": "address",
          "name": "newOwner",
          "type": "address"
        }
      ],
      "name": "transferOwnership",
      "outputs": [],
      "stateMutability": "nonpayable",
      "type": "function"
    }
  ],
  "bytecode": "0x6080346100c657601f610c8738819003918201601f19168301916001600160401b038311848410176100cb578084926020946040528339810103126100c657516001600160a01b0390818116908190036100c65733156100ad5760005460018060a01b0319903382821617600055604051933391167f8be0079c531659141344cd1fd0a4f28419497f9722a3daafe3b4186f6b6457e0600080a36001541617600155610ba590816100e28239f35b604051631e4fbdf760e01b815260006004820152602490fd5b600080fd5b634e487b7160e01b600052604160045260246000fdfe60406080815260048036101561001457600080fd5b60009160e08335811c90816329be4db2146108cb57816357da24a11461074657508063715018a6146106ec57806375f477141461064f5780638da5cb5b14610627578063a15b932114610608578063a8fa2fd714610175578063b5a772651461014e578063f1cf7905146101215763f2fde38b1461009157600080fd5b3461011d57602036600319011261011d576001600160a01b03823581811693919290849003610119576100c26109f2565b831561010357505082546001600160a01b0319811683178455167f8be0079c531659141344cd1fd0a4f28419497f9722a3daafe3b4186f6b6457e08380a380f35b51631e4fbdf760e01b8152908101849052602490fd5b8480fd5b8280fd5b83823461014a578160031936011261014a5760015490516001600160a01b039091168152602090f35b5080fd5b50903461011d57602036600319011261011d57602092818392358252845220549051908152f35b5082903461014a5760a036600319011261014a57823560249283359360443595606435926005841015610605576084359263ffffffff841680940361014a578888146105f55783156105e557600154875163488dbfad60e01b8082528582018b905260209b6001600160a01b0393909290841691908d818781865afa90811561050e5787916105ac575b5015610596578a5190815282878201528c818681855afa90811561058c578691610553575b501561053d57895190632ae7324760e01b8083528c888401528b838781855afa90811561050e578c9088948993610518575b50878251809581938252888d8301525afa801561050e57879288916104db575b50816104d3575b50806104c3575b6104a35750508851908b8201918b8352818b8201528a8152606081019067ffffffffffffffff9381831085841117610491579060058f9392838f528251902093848a525260ff8d892054166104745750508c8b94938b938b9389526005835286892060ff1981541660011790556002549e8f9761030089610aac565b60025580519661030f88610a1e565b8752848701918252808701928352606087019561032c9087610ad1565b60808701948d865260a08801944216855260c0880199338b528c52600390528a2095518655516001860155516002850155600384019251916005831015610462579083929160ff6cffffffffffffffff000000000064ffffffff008d989754935160081b16935160281b169316906cffffffffffffffffffffffffff19161717179055019151166bffffffffffffffffffffffff60a01b825416179055858252828952868220918254936801000000000000000085101561045257505050927fbb4732bb818670393a68bee1a69f5a8c3dd2d09f05bd7a171a1e66c3012dea8792610421838997966001606096018155610add565b81549060031b9088821b91600019901b19161790556104428751809361096d565b888201523386820152a351908152f35b634e487b7160e01b825260419052fd5b634e487b7160e01b895260218a528789fd5b637211b43360e11b8252606481018e905260840183905260449150fd5b634e487b7160e01b8852604189528688fd5b8a5163e1f9fe7f60e01b815260ff92831681890152911681850152604490fd5b5060ff811660ff83161415610284565b90508e61027d565b90506104fe9192508c8d3d10610507575b6104f68183610a50565b810190610a84565b9190918f610276565b503d6104ec565b8c513d89823e3d90fd5b909250816105339295503d8611610507576104f68183610a50565b9390939138610256565b8951630d32f7ff60e31b81528087018390528490fd5b90508c81813d8311610585575b61056a8183610a50565b810103126105815761057b90610a72565b8d610224565b8580fd5b503d610560565b8b513d88823e3d90fd5b8a5163021d5f6760e11b81528088018d90528590fd5b90508d81813d83116105de575b6105c38183610a50565b810103126105da576105d490610a72565b8e6101ff565b8680fd5b503d6105b9565b865163fe52dc3560e01b81528390fd5b865163029bd85960e61b81528390fd5b80fd5b83823461014a578160031936011261014a576020906002549051908152f35b83823461014a578160031936011261014a57905490516001600160a01b039091168152602090f35b509134610605576020918260031936011261014a57809392933582528352818120908251808584549182815201908194845286842090845b8181106106d8575050508161069d910382610a50565b83519485948186019282875251809352850193925b8281106106c157505050500390f35b8351855286955093810193928101926001016106b2565b825484529288019260019283019201610687565b83346106055780600319360112610605576107056109f2565b80546001600160a01b03198116825581906001600160a01b03167f8be0079c531659141344cd1fd0a4f28419497f9722a3daafe3b4186f6b6457e08280a380f35b9390503461060557602090816003193601126106055790939291823582528285528082209283549061077782610b43565b9461078484519687610a50565b828652601f1961079384610b43565b01855b8181106108aa575050845b8381106107f857505050508051948594818087019381885286518095528701950193905b8382106107d25786860387f35b9184965082866107e86001949698849851610990565b01960192018695949293916107c5565b8061080c61089f92849b9897999a9b610add565b9054600391821b1c875280885288872067ffffffffffffffff8a519261083184610a1e565b8254845260018301548b85015260028301548c85015282015461085a60ff821660608601610ad1565b600881901c63ffffffff16608085015260281c1660a08301528501546001600160a01b031660c082015261088e828b610b5b565b52610899818a610b5b565b50610aac565b9796959394976107a1565b988096959798996108b9610b0b565b82828c01015201989796949598610796565b9390503461060557602036600319011261060557908061096b926108ed610b0b565b508435815260036020522081519361090485610a1e565b815485526001820154602086015260028201548386015267ffffffffffffffff600383015461093960ff821660608901610ad1565b600881901c63ffffffff16608088015260281c1660a086015201546001600160a01b031660c084015251918290610990565bf35b90600582101561097a5752565b634e487b7160e01b600052602160045260246000fd5b60c0908051835260208101516020840152604081015160408401526109bd6060820151606085019061096d565b60808181015163ffffffff169084015260a08082015167ffffffffffffffff16908401528101516001600160a01b0316910152565b6000546001600160a01b03163303610a0657565b60405163118cdaa760e01b8152336004820152602490fd5b60e0810190811067ffffffffffffffff821117610a3a57604052565b634e487b7160e01b600052604160045260246000fd5b90601f8019910116810190811067ffffffffffffffff821117610a3a57604052565b51908115158203610a7f57565b600080fd5b9190826040910312610a7f57815160ff81168103610a7f576020610aa9919301610a72565b90565b6000198114610abb5760010190565b634e487b7160e01b600052601160045260246000fd5b600582101561097a5752565b8054821015610af55760005260206000200190600090565b634e487b7160e01b600052603260045260246000fd5b60405190610b1882610a1e565b8160c06000918281528260208201528260408201528260608201528260808201528260a08201520152565b67ffffffffffffffff8111610a3a5760051b60200190565b8051821015610af55760209160051b01019056fea2646970667358221220a6f11329fada900cb41f483a344975dff5f2599e91b662e7c52763b00e1cfb9164736f6c63430008140033",
  "linkReferences": {},
  "deployedLinkReferences": {}
}